{
	"data": {
		"bytecode": {
			"linkReferences": {},
			"object": "60806040526000805534801561001457600080fd5b5060aa806100236000396000f300608060405260043610603f576000357c0100000000000000000000000000000000000000000000000000000000900463ffffffff168063b69ef8a8146050575b346000808282540192505081905550005b348015605b57600080fd5b5060626078565b6040518082815260200191505060405180910390f35b600054815600a165627a7a72305820461a10b29ee0d7c7b6c77ede70275290bf7d5e7c41a326ade110e6d484be58a90029",
			"opcodes": "PUSH1 0x80 PUSH1 0x40 MSTORE PUSH1 0x0 DUP1 SSTORE CALLVALUE DUP1 ISZERO PUSH2 0x14 JUMPI PUSH1 0x0 DUP1 REVERT JUMPDEST POP PUSH1 0xAA DUP1 PUSH2 0x23 PUSH1 0x0 CODECOPY PUSH1 0x0 RETURN STOP PUSH1 0x80 PUSH1 0x40 MSTORE PUSH1 0x4 CALLDATASIZE LT PUSH1 0x3F JUMPI PUSH1 0x0 CALLDATALOAD PUSH29 0x100000000000000000000000000000000000000000000000000000000 SWAP1 DIV PUSH4 0xFFFFFFFF AND DUP1 PUSH4 0xB69EF8A8 EQ PUSH1 0x50 JUMPI JUMPDEST CALLVALUE PUSH1 0x0 DUP1 DUP3 DUP3 SLOAD ADD SWAP3 POP POP DUP2 SWAP1 SSTORE POP STOP JUMPDEST CALLVALUE DUP1 ISZERO PUSH1 0x5B JUMPI PUSH1 0x0 DUP1 REVERT JUMPDEST POP PUSH1 0x62 PUSH1 0x78 JUMP JUMPDEST PUSH1 0x40 MLOAD DUP1 DUP3 DUP2 MSTORE PUSH1 0x20 ADD SWAP2 POP POP PUSH1 0x40 MLOAD DUP1 SWAP2 SUB SWAP1 RETURN JUMPDEST PUSH1 0x0 SLOAD DUP2 JUMP STOP LOG1 PUSH6 0x627A7A723058 KECCAK256 0x46 BYTE LT 0xb2 SWAP15 0xe0 0xd7 0xc7 0xb6 0xc7 PUSH31 0xDE70275290BF7D5E7C41A326ADE110E6D484BE58A900290000000000000000 "
		},
		"gasEstimates": {
			"creation": {
				"codeDepositCost": "34000",
				"executionCost": "5093",
				"totalCost": "39093"
			},
			"external": {
				"": "20317",
				"balance()": "394"
			},
			"internal": {
				"integerToString(uint256)": "infinite"
			}
		},
		"methodIdentifiers": {
			"balance()": "b69ef8a8"
		}
	},
	"abi": [
		{
			"constant": true,
			"inputs": [],
			"name": "balance",
			"outputs": [
				{
					"name": "",
					"type": "uint256"
				}
			],
			"payable": false,
			"stateMutability": "view",
			"type": "function"
		},
		{
			"payable": true,
			"stateMutability": "payable",
			"type": "fallback"
		}
	]
}