{
  "contractName": "FLIRContract",
  "abi": [
    {
      "inputs": [
        {
          "internalType": "uint256",
          "name": "nPget",
          "type": "uint256"
        },
        {
          "internalType": "uint256",
          "name": "nCget",
          "type": "uint256"
        },
        {
          "internalType": "uint256",
          "name": "nEVget",
          "type": "uint256"
        }
      ],
      "name": "getnPnCnEV",
      "outputs": [
        {
          "internalType": "uint256",
          "name": "",
          "type": "uint256"
        },
        {
          "internalType": "uint256",
          "name": "",
          "type": "uint256"
        },
        {
          "internalType": "uint256",
          "name": "",
          "type": "uint256"
        }
      ],
      "stateMutability": "nonpayable",
      "type": "function"
    },
    {
      "inputs": [
        {
          "internalType": "uint256",
          "name": "Pexp",
          "type": "uint256"
        }
      ],
      "name": "getProsumerTariff",
      "outputs": [
        {
          "internalType": "uint256",
          "name": "",
          "type": "uint256"
        }
      ],
      "stateMutability": "nonpayable",
      "type": "function"
    },
    {
      "inputs": [
        {
          "internalType": "uint256",
          "name": "Cimp",
          "type": "uint256"
        }
      ],
      "name": "getConsumerTariff",
      "outputs": [
        {
          "internalType": "uint256",
          "name": "",
          "type": "uint256"
        }
      ],
      "stateMutability": "nonpayable",
      "type": "function"
    },
    {
      "inputs": [
        {
          "internalType": "address payable",
          "name": "_to",
          "type": "address"
        }
      ],
      "name": "sendViaTransfer",
      "outputs": [],
      "stateMutability": "payable",
      "type": "function",
      "payable": true
    },
    {
      "inputs": [
        {
          "internalType": "uint256",
          "name": "P1",
          "type": "uint256"
        },
        {
          "internalType": "uint256",
          "name": "delta",
          "type": "uint256"
        }
      ],
      "name": "prosumerReward",
      "outputs": [
        {
          "internalType": "uint256",
          "name": "",
          "type": "uint256"
        }
      ],
      "stateMutability": "nonpayable",
      "type": "function"
    }
  ],
  "bytecode": "0x608060405260036000556003600155600460025560056003556006600455600760055560086006556009600755600a60085534801561003d57600080fd5b506108708061004d6000396000f3fe60806040526004361061004a5760003560e01c80635c8f6b561461004f578063636e082b1461008c578063721028ec146100a857806392e6f828146100e5578063f02e48c314610122575b600080fd5b34801561005b57600080fd5b506100766004803603810190610071919061051b565b610161565b6040516100839190610557565b60405180910390f35b6100a660048036038101906100a191906105d0565b61017d565b005b3480156100b457600080fd5b506100cf60048036038101906100ca919061051b565b6101c7565b6040516100dc9190610557565b60405180910390f35b3480156100f157600080fd5b5061010c600480360381019061010791906105fd565b61044a565b6040516101199190610557565b60405180910390f35b34801561012e57600080fd5b506101496004803603810190610144919061063d565b6104b8565b60405161015893929190610690565b60405180910390f35b6000806000548361017291906106f6565b905080915050919050565b8073ffffffffffffffffffffffffffffffffffffffff166108fc349081150290604051600060405180830381858888f193505050501580156101c3573d6000803e3d6000fd5b5050565b6000806000905060fb8310156103cc5760338310156101f557600154836101ee91906106f6565b90506103c7565b6032831180156102055750606583105b156102445760025460328461021a9190610750565b61022491906106f6565b600154603261023391906106f6565b61023d9190610784565b90506103c6565b6064831180156102545750609783105b156102ac576003546032846102699190610750565b61027391906106f6565b600254603261028291906106f6565b600154603261029191906106f6565b61029b9190610784565b6102a59190610784565b90506103c5565b6096831180156102bc575060c983105b1561032d576004546032846102d19190610750565b6102db91906106f6565b60035460326102ea91906106f6565b60025460326102f991906106f6565b600154603261030891906106f6565b6103129190610784565b61031c9190610784565b6103269190610784565b90506103c4565b60c88311801561033d575060fb83105b156103c3576005546032846103529190610750565b61035c91906106f6565b600454603261036b91906106f6565b600354603261037a91906106f6565b600254603261038991906106f6565b600154603261039891906106f6565b6103a29190610784565b6103ac9190610784565b6103b69190610784565b6103c09190610784565b90505b5b5b5b5b610441565b60fa831180156103dd575061015f83105b156103f757600654836103f091906106f6565b9050610440565b61015e8311801561040957506101c383105b15610423576007548361041c91906106f6565b905061043f565b6101c283111561043e576008548361043b91906106f6565b90505b5b5b5b80915050919050565b60008083836104599190610784565b600054848561046891906106f6565b61047291906106f6565b61047c9190610809565b6000548461048a91906106f6565b6000548661049891906106f6565b6104a29190610784565b6104ac9190610784565b90508091505092915050565b6000806000808690506000869050600086905082828295509550955050505093509350939050565b600080fd5b6000819050919050565b6104f8816104e5565b811461050357600080fd5b50565b600081359050610515816104ef565b92915050565b600060208284031215610531576105306104e0565b5b600061053f84828501610506565b91505092915050565b610551816104e5565b82525050565b600060208201905061056c6000830184610548565b92915050565b600073ffffffffffffffffffffffffffffffffffffffff82169050919050565b600061059d82610572565b9050919050565b6105ad81610592565b81146105b857600080fd5b50565b6000813590506105ca816105a4565b92915050565b6000602082840312156105e6576105e56104e0565b5b60006105f4848285016105bb565b91505092915050565b60008060408385031215610614576106136104e0565b5b600061062285828601610506565b925050602061063385828601610506565b9150509250929050565b600080600060608486031215610656576106556104e0565b5b600061066486828701610506565b935050602061067586828701610506565b925050604061068686828701610506565b9150509250925092565b60006060820190506106a56000830186610548565b6106b26020830185610548565b6106bf6040830184610548565b949350505050565b7f4e487b7100000000000000000000000000000000000000000000000000000000600052601160045260246000fd5b6000610701826104e5565b915061070c836104e5565b9250817fffffffffffffffffffffffffffffffffffffffffffffffffffffffffffffffff0483118215151615610745576107446106c7565b5b828202905092915050565b600061075b826104e5565b9150610766836104e5565b925082821015610779576107786106c7565b5b828203905092915050565b600061078f826104e5565b915061079a836104e5565b9250827fffffffffffffffffffffffffffffffffffffffffffffffffffffffffffffffff038211156107cf576107ce6106c7565b5b828201905092915050565b7f4e487b7100000000000000000000000000000000000000000000000000000000600052601260045260246000fd5b6000610814826104e5565b915061081f836104e5565b92508261082f5761082e6107da565b5b82820490509291505056fea2646970667358221220b1845cdb33b3fdeefc4924f704d46bb1baf550c23860eddafe14d2af15c4f5e964736f6c634300080d0033",
  "immutableReferences": {},
  "source": "// SPDX-License-Identifier: MIT\n\n\npragma solidity >=0.4.4;\n\n// library for logging in console\n// import \"hardhat/console.sol\";\n\n\ncontract FLIRContract{\n\n    uint btp = 3;\n\n    uint btc1 = 3;\n    uint btc2 = 4;\n    uint btc3 = 5;\n    uint btc4 = 6;\n    uint btc5 = 7;\n    uint btc6 = 8;\n    uint btc7 = 9;\n    uint btc8 = 10;\n\n    function getnPnCnEV(uint nPget, uint nCget,uint nEVget) public \n    returns (uint,uint,uint)\n    {\n        \n       uint nP = nPget;\n       uint nC = nCget;\n       uint nEV = nEVget;\n       return (nP,nC,nEV);\n    }\n\n    function getProsumerTariff(uint Pexp) public \n    returns (uint)\n    {\n       uint Tp = Pexp * btp;\n       return (Tp);\n    }\n\n    function getConsumerTariff(uint Cimp) public \n    returns (uint)\n    {\n        uint Tc = 0;\n        if(Cimp < 251){\n            if(Cimp < 51){\n                Tc = Cimp * btc1;\n            }\n            else if(Cimp > 50 && Cimp < 101){\n                Tc = (50 * btc1) + ((Cimp-50) * btc2);\n            }\n            else if(Cimp > 100 && Cimp < 151){\n                Tc = (50 * btc1) + (50 * btc2) + ((Cimp-50) * btc3);\n            }\n            else if(Cimp > 150 && Cimp < 201){\n                Tc = (50 * btc1) + (50 * btc2) + (50 * btc3) + ((Cimp-50) * btc4);\n            }\n            else if(Cimp > 200 && Cimp < 251){\n                Tc = (50 * btc1) + (50 * btc2) + (50 * btc3) + (50 * btc4) + ((Cimp-50) * btc5);\n            }\n        }\n        else if(Cimp > 250 && Cimp < 351){\n            Tc = Cimp * btc6;\n        }\n        else if(Cimp > 350 && Cimp < 451){\n            Tc = Cimp * btc7;\n        }\n        else if(Cimp > 450){\n            Tc = Cimp * btc8;\n        }\n        return (Tc);\n    }\n\n    function sendViaTransfer(address payable _to) public\n    payable\n    {\n    _to.transfer(msg.value);\n    }\n\n    function prosumerReward(uint P1, uint delta) public\n    returns (uint)\n    {\n        uint reward = (P1 * btp) + (delta * btp) + (delta * delta * btp / (delta+P1));\n        return(reward);\n    }\n\n}",
  "sourcePath": "/home/wnaadmin/Git/flir/eth based/truffle/contracts/FLIR_Contract.sol",
  "compiler": {
    "name": "solc",
    "version": "0.8.13+commit.abaa5c0e.Emscripten.clang"
  },
  "schemaVersion": "3.4.10",
  "updatedAt": "2022-11-29T05:29:19.667Z",
  "networkType": "ethereum",
  "devdoc": {
    "kind": "dev",
    "methods": {},
    "version": 1
  },
  "userdoc": {
    "kind": "user",
    "methods": {},
    "version": 1
  }
}