{
	"eth based/FLIR_Contract.sol": {
		"FLIRContract": {
			"abi": [
				{
					"constant": true,
					"inputs": [
						{
							"name": "Cimp1",
							"type": "uint256"
						}
					],
					"name": "ConsumerSlabPrice1",
					"outputs": [
						{
							"name": "cost1",
							"type": "uint256"
						}
					],
					"payable": false,
					"stateMutability": "view",
					"type": "function"
				},
				{
					"constant": true,
					"inputs": [
						{
							"name": "Cimp2",
							"type": "uint256"
						},
						{
							"name": "cost1",
							"type": "uint256"
						}
					],
					"name": "ConsumerSlabPrice2",
					"outputs": [
						{
							"name": "",
							"type": "string"
						},
						{
							"name": "costn",
							"type": "uint256"
						}
					],
					"payable": false,
					"stateMutability": "view",
					"type": "function"
				}
			],
			"devdoc": {
				"methods": {}
			},
			"evm": {
				"assembly": "    /* \"eth based/FLIR_Contract.sol\":91:1506  contract FLIRContract{... */\n  mstore(0x40, 0x80)\n    /* \"eth based/FLIR_Contract.sol\":128:129  5 */\n  0x5\n    /* \"eth based/FLIR_Contract.sol\":118:129  uint nP = 5 */\n  0x0\n  sstore\n    /* \"eth based/FLIR_Contract.sol\":145:146  3 */\n  0x3\n    /* \"eth based/FLIR_Contract.sol\":135:146  uint nC = 3 */\n  0x1\n  sstore\n    /* \"eth based/FLIR_Contract.sol\":164:165  3 */\n  0x3\n    /* \"eth based/FLIR_Contract.sol\":153:165  uint btp = 3 */\n  0x2\n  sstore\n    /* \"eth based/FLIR_Contract.sol\":184:185  3 */\n  0x3\n    /* \"eth based/FLIR_Contract.sol\":172:185  uint btc1 = 3 */\n  dup1\n  sstore\n    /* \"eth based/FLIR_Contract.sol\":203:204  4 */\n  0x4\n    /* \"eth based/FLIR_Contract.sol\":191:204  uint btc2 = 4 */\n  dup1\n  sstore\n    /* \"eth based/FLIR_Contract.sol\":222:223  5 */\n  0x5\n    /* \"eth based/FLIR_Contract.sol\":210:223  uint btc3 = 5 */\n  dup1\n  sstore\n    /* \"eth based/FLIR_Contract.sol\":241:242  6 */\n  0x6\n    /* \"eth based/FLIR_Contract.sol\":229:242  uint btc4 = 6 */\n  dup1\n  sstore\n    /* \"eth based/FLIR_Contract.sol\":260:261  7 */\n  0x7\n    /* \"eth based/FLIR_Contract.sol\":248:261  uint btc5 = 7 */\n  dup1\n  sstore\n    /* \"eth based/FLIR_Contract.sol\":279:280  8 */\n  0x8\n    /* \"eth based/FLIR_Contract.sol\":267:280  uint btc6 = 8 */\n  dup1\n  sstore\n    /* \"eth based/FLIR_Contract.sol\":298:299  9 */\n  0x9\n    /* \"eth based/FLIR_Contract.sol\":286:299  uint btc7 = 9 */\n  dup1\n  sstore\n    /* \"eth based/FLIR_Contract.sol\":317:319  10 */\n  0xa\n    /* \"eth based/FLIR_Contract.sol\":305:319  uint btc8 = 10 */\n  dup1\n  sstore\n    /* \"eth based/FLIR_Contract.sol\":91:1506  contract FLIRContract{... */\n  callvalue\n    /* \"--CODEGEN--\":8:17   */\n  dup1\n    /* \"--CODEGEN--\":5:7   */\n  iszero\n  tag_1\n  jumpi\n    /* \"--CODEGEN--\":30:31   */\n  0x0\n    /* \"--CODEGEN--\":27:28   */\n  dup1\n    /* \"--CODEGEN--\":20:32   */\n  revert\n    /* \"--CODEGEN--\":5:7   */\ntag_1:\n    /* \"eth based/FLIR_Contract.sol\":91:1506  contract FLIRContract{... */\n  pop\n  dataSize(sub_0)\n  dup1\n  dataOffset(sub_0)\n  0x0\n  codecopy\n  0x0\n  return\nstop\n\nsub_0: assembly {\n        /* \"eth based/FLIR_Contract.sol\":91:1506  contract FLIRContract{... */\n      mstore(0x40, 0x80)\n      jumpi(tag_1, lt(calldatasize, 0x4))\n      calldataload(0x0)\n      0x100000000000000000000000000000000000000000000000000000000\n      swap1\n      div\n      0xffffffff\n      and\n      dup1\n      0x61cb59ca\n      eq\n      tag_2\n      jumpi\n      dup1\n      0x8111a2a6\n      eq\n      tag_3\n      jumpi\n    tag_1:\n      0x0\n      dup1\n      revert\n        /* \"eth based/FLIR_Contract.sol\":447:652  function ConsumerSlabPrice1(uint Cimp1)public view returns (uint cost1){... */\n    tag_2:\n      callvalue\n        /* \"--CODEGEN--\":8:17   */\n      dup1\n        /* \"--CODEGEN--\":5:7   */\n      iszero\n      tag_4\n      jumpi\n        /* \"--CODEGEN--\":30:31   */\n      0x0\n        /* \"--CODEGEN--\":27:28   */\n      dup1\n        /* \"--CODEGEN--\":20:32   */\n      revert\n        /* \"--CODEGEN--\":5:7   */\n    tag_4:\n        /* \"eth based/FLIR_Contract.sol\":447:652  function ConsumerSlabPrice1(uint Cimp1)public view returns (uint cost1){... */\n      pop\n      tag_5\n      0x4\n      dup1\n      calldatasize\n      sub\n      dup2\n      add\n      swap1\n      dup1\n      dup1\n      calldataload\n      swap1\n      0x20\n      add\n      swap1\n      swap3\n      swap2\n      swap1\n      pop\n      pop\n      pop\n      jump(tag_6)\n    tag_5:\n      mload(0x40)\n      dup1\n      dup3\n      dup2\n      mstore\n      0x20\n      add\n      swap2\n      pop\n      pop\n      mload(0x40)\n      dup1\n      swap2\n      sub\n      swap1\n      return\n        /* \"eth based/FLIR_Contract.sol\":658:845  function ConsumerSlabPrice2(uint Cimp2, uint cost1)public view returns (string memory, uint costn){... */\n    tag_3:\n      callvalue\n        /* \"--CODEGEN--\":8:17   */\n      dup1\n        /* \"--CODEGEN--\":5:7   */\n      iszero\n      tag_7\n      jumpi\n        /* \"--CODEGEN--\":30:31   */\n      0x0\n        /* \"--CODEGEN--\":27:28   */\n      dup1\n        /* \"--CODEGEN--\":20:32   */\n      revert\n        /* \"--CODEGEN--\":5:7   */\n    tag_7:\n        /* \"eth based/FLIR_Contract.sol\":658:845  function ConsumerSlabPrice2(uint Cimp2, uint cost1)public view returns (string memory, uint costn){... */\n      pop\n      tag_8\n      0x4\n      dup1\n      calldatasize\n      sub\n      dup2\n      add\n      swap1\n      dup1\n      dup1\n      calldataload\n      swap1\n      0x20\n      add\n      swap1\n      swap3\n      swap2\n      swap1\n      dup1\n      calldataload\n      swap1\n      0x20\n      add\n      swap1\n      swap3\n      swap2\n      swap1\n      pop\n      pop\n      pop\n      jump(tag_9)\n    tag_8:\n      mload(0x40)\n      dup1\n      dup1\n      0x20\n      add\n      dup4\n      dup2\n      mstore\n      0x20\n      add\n      dup3\n      dup2\n      sub\n      dup3\n      mstore\n      dup5\n      dup2\n      dup2\n      mload\n      dup2\n      mstore\n      0x20\n      add\n      swap2\n      pop\n      dup1\n      mload\n      swap1\n      0x20\n      add\n      swap1\n      dup1\n      dup4\n      dup4\n        /* \"--CODEGEN--\":23:24   */\n      0x0\n        /* \"--CODEGEN--\":8:108   */\n    tag_10:\n        /* \"--CODEGEN--\":33:36   */\n      dup4\n        /* \"--CODEGEN--\":30:31   */\n      dup2\n        /* \"--CODEGEN--\":27:37   */\n      lt\n        /* \"--CODEGEN--\":8:108   */\n      iszero\n      tag_11\n      jumpi\n        /* \"--CODEGEN--\":99:100   */\n      dup1\n        /* \"--CODEGEN--\":94:97   */\n      dup3\n        /* \"--CODEGEN--\":90:101   */\n      add\n        /* \"--CODEGEN--\":84:102   */\n      mload\n        /* \"--CODEGEN--\":80:81   */\n      dup2\n        /* \"--CODEGEN--\":75:78   */\n      dup5\n        /* \"--CODEGEN--\":71:82   */\n      add\n        /* \"--CODEGEN--\":64:103   */\n      mstore\n        /* \"--CODEGEN--\":52:54   */\n      0x20\n        /* \"--CODEGEN--\":49:50   */\n      dup2\n        /* \"--CODEGEN--\":45:55   */\n      add\n        /* \"--CODEGEN--\":40:55   */\n      swap1\n      pop\n        /* \"--CODEGEN--\":8:108   */\n      jump(tag_10)\n    tag_11:\n        /* \"--CODEGEN--\":12:26   */\n      pop\n        /* \"eth based/FLIR_Contract.sol\":658:845  function ConsumerSlabPrice2(uint Cimp2, uint cost1)public view returns (string memory, uint costn){... */\n      pop\n      pop\n      pop\n      swap1\n      pop\n      swap1\n      dup2\n      add\n      swap1\n      0x1f\n      and\n      dup1\n      iszero\n      tag_13\n      jumpi\n      dup1\n      dup3\n      sub\n      dup1\n      mload\n      0x1\n      dup4\n      0x20\n      sub\n      0x100\n      exp\n      sub\n      not\n      and\n      dup2\n      mstore\n      0x20\n      add\n      swap2\n      pop\n    tag_13:\n      pop\n      swap4\n      pop\n      pop\n      pop\n      pop\n      mload(0x40)\n      dup1\n      swap2\n      sub\n      swap1\n      return\n        /* \"eth based/FLIR_Contract.sol\":447:652  function ConsumerSlabPrice1(uint Cimp1)public view returns (uint cost1){... */\n    tag_6:\n        /* \"eth based/FLIR_Contract.sol\":507:517  uint cost1 */\n      0x0\n        /* \"eth based/FLIR_Contract.sol\":543:547  btc1 */\n      sload(0x3)\n        /* \"eth based/FLIR_Contract.sol\":535:540  Cimp1 */\n      dup3\n        /* \"eth based/FLIR_Contract.sol\":535:547  Cimp1 * btc1 */\n      mul\n        /* \"eth based/FLIR_Contract.sol\":527:547  cost1 = Cimp1 * btc1 */\n      swap1\n      pop\n        /* \"eth based/FLIR_Contract.sol\":639:644  cost1 */\n      dup1\n        /* \"eth based/FLIR_Contract.sol\":631:645  return (cost1) */\n      swap1\n      pop\n        /* \"eth based/FLIR_Contract.sol\":447:652  function ConsumerSlabPrice1(uint Cimp1)public view returns (uint cost1){... */\n      swap2\n      swap1\n      pop\n      jump\t// out\n        /* \"eth based/FLIR_Contract.sol\":658:845  function ConsumerSlabPrice2(uint Cimp2, uint cost1)public view returns (string memory, uint costn){... */\n    tag_9:\n        /* \"eth based/FLIR_Contract.sol\":730:736  string */\n      0x60\n        /* \"eth based/FLIR_Contract.sol\":745:755  uint costn */\n      0x0\n        /* \"eth based/FLIR_Contract.sol\":766:776  uint cost2 */\n      dup1\n        /* \"eth based/FLIR_Contract.sol\":787:791  btc1 */\n      sload(0x3)\n        /* \"eth based/FLIR_Contract.sol\":779:784  Cimp2 */\n      dup6\n        /* \"eth based/FLIR_Contract.sol\":779:791  Cimp2 * btc1 */\n      mul\n        /* \"eth based/FLIR_Contract.sol\":766:791  uint cost2 = Cimp2 * btc1 */\n      swap1\n      pop\n        /* \"eth based/FLIR_Contract.sol\":809:831  integerToString(cost2) */\n      tag_16\n        /* \"eth based/FLIR_Contract.sol\":825:830  cost2 */\n      dup2\n        /* \"eth based/FLIR_Contract.sol\":809:824  integerToString */\n      tag_17\n        /* \"eth based/FLIR_Contract.sol\":809:831  integerToString(cost2) */\n      jump\t// in\n    tag_16:\n        /* \"eth based/FLIR_Contract.sol\":832:837  cost1 */\n      dup5\n        /* \"eth based/FLIR_Contract.sol\":801:838  return (integerToString(cost2),cost1) */\n      swap3\n      pop\n      swap3\n      pop\n        /* \"eth based/FLIR_Contract.sol\":658:845  function ConsumerSlabPrice2(uint Cimp2, uint cost1)public view returns (string memory, uint costn){... */\n      pop\n      swap3\n      pop\n      swap3\n      swap1\n      pop\n      jump\t// out\n        /* \"eth based/FLIR_Contract.sol\":1030:1501  function integerToString(uint _i) internal pure ... */\n    tag_17:\n        /* \"eth based/FLIR_Contract.sol\":1094:1100  string */\n      0x60\n        /* \"eth based/FLIR_Contract.sol\":1174:1180  uint j */\n      0x0\n        /* \"eth based/FLIR_Contract.sol\":1193:1201  uint len */\n      dup1\n        /* \"eth based/FLIR_Contract.sol\":1281:1298  bytes memory bstr */\n      0x60\n        /* \"eth based/FLIR_Contract.sol\":1323:1329  uint k */\n      0x0\n        /* \"eth based/FLIR_Contract.sol\":1134:1135  0 */\n      dup1\n        /* \"eth based/FLIR_Contract.sol\":1128:1130  _i */\n      dup7\n        /* \"eth based/FLIR_Contract.sol\":1128:1135  _i == 0 */\n      eq\n        /* \"eth based/FLIR_Contract.sol\":1124:1167  if (_i == 0) {... */\n      iszero\n      tag_19\n      jumpi\n        /* \"eth based/FLIR_Contract.sol\":1148:1158  return \"0\" */\n      0x40\n      dup1\n      mload\n      swap1\n      dup2\n      add\n      0x40\n      mstore\n      dup1\n      0x1\n      dup2\n      mstore\n      0x20\n      add\n      0x3000000000000000000000000000000000000000000000000000000000000000\n      dup2\n      mstore\n      pop\n      swap5\n      pop\n      jump(tag_18)\n        /* \"eth based/FLIR_Contract.sol\":1124:1167  if (_i == 0) {... */\n    tag_19:\n        /* \"eth based/FLIR_Contract.sol\":1183:1185  _i */\n      dup6\n        /* \"eth based/FLIR_Contract.sol\":1174:1185  uint j = _i */\n      swap4\n      pop\n        /* \"eth based/FLIR_Contract.sol\":1216:1274  while (j != 0) {... */\n    tag_20:\n        /* \"eth based/FLIR_Contract.sol\":1228:1229  0 */\n      0x0\n        /* \"eth based/FLIR_Contract.sol\":1223:1224  j */\n      dup5\n        /* \"eth based/FLIR_Contract.sol\":1223:1229  j != 0 */\n      eq\n      iszero\n        /* \"eth based/FLIR_Contract.sol\":1216:1274  while (j != 0) {... */\n      iszero\n      tag_21\n      jumpi\n        /* \"eth based/FLIR_Contract.sol\":1242:1247  len++ */\n      dup3\n      dup1\n      0x1\n      add\n      swap4\n      pop\n      pop\n        /* \"eth based/FLIR_Contract.sol\":1263:1265  10 */\n      0xa\n        /* \"eth based/FLIR_Contract.sol\":1258:1265  j /= 10 */\n      dup5\n      dup2\n      iszero\n      iszero\n      tag_22\n      jumpi\n      invalid\n    tag_22:\n      div\n      swap4\n      pop\n        /* \"eth based/FLIR_Contract.sol\":1216:1274  while (j != 0) {... */\n      jump(tag_20)\n    tag_21:\n        /* \"eth based/FLIR_Contract.sol\":1311:1314  len */\n      dup3\n        /* \"eth based/FLIR_Contract.sol\":1301:1315  new bytes(len) */\n      mload(0x40)\n      swap1\n      dup1\n      dup3\n      mstore\n      dup1\n      0x1f\n      add\n      not(0x1f)\n      and\n      0x20\n      add\n      dup3\n      add\n      0x40\n      mstore\n      dup1\n      iszero\n      tag_23\n      jumpi\n      dup2\n      0x20\n      add\n        /* \"--CODEGEN--\":29:31   */\n      0x20\n        /* \"--CODEGEN--\":21:27   */\n      dup3\n        /* \"--CODEGEN--\":17:32   */\n      mul\n        /* \"--CODEGEN--\":117:121   */\n      dup1\n        /* \"--CODEGEN--\":105:115   */\n      codesize\n        /* \"--CODEGEN--\":97:103   */\n      dup4\n        /* \"--CODEGEN--\":88:122   */\n      codecopy\n        /* \"--CODEGEN--\":148:152   */\n      dup1\n        /* \"--CODEGEN--\":140:146   */\n      dup3\n        /* \"--CODEGEN--\":136:153   */\n      add\n        /* \"--CODEGEN--\":126:153   */\n      swap2\n      pop\n        /* \"--CODEGEN--\":0:157   */\n      pop\n        /* \"eth based/FLIR_Contract.sol\":1301:1315  new bytes(len) */\n      swap1\n      pop\n    tag_23:\n      pop\n        /* \"eth based/FLIR_Contract.sol\":1281:1315  bytes memory bstr = new bytes(len) */\n      swap2\n      pop\n        /* \"eth based/FLIR_Contract.sol\":1338:1339  1 */\n      0x1\n        /* \"eth based/FLIR_Contract.sol\":1332:1335  len */\n      dup4\n        /* \"eth based/FLIR_Contract.sol\":1332:1339  len - 1 */\n      sub\n        /* \"eth based/FLIR_Contract.sol\":1323:1339  uint k = len - 1 */\n      swap1\n      pop\n        /* \"eth based/FLIR_Contract.sol\":1354:1446  while (_i != 0) {... */\n    tag_24:\n        /* \"eth based/FLIR_Contract.sol\":1367:1368  0 */\n      0x0\n        /* \"eth based/FLIR_Contract.sol\":1361:1363  _i */\n      dup7\n        /* \"eth based/FLIR_Contract.sol\":1361:1368  _i != 0 */\n      eq\n      iszero\n        /* \"eth based/FLIR_Contract.sol\":1354:1446  while (_i != 0) {... */\n      iszero\n      tag_25\n      jumpi\n        /* \"eth based/FLIR_Contract.sol\":1414:1416  10 */\n      0xa\n        /* \"eth based/FLIR_Contract.sol\":1409:1411  _i */\n      dup7\n        /* \"eth based/FLIR_Contract.sol\":1409:1416  _i % 10 */\n      dup2\n      iszero\n      iszero\n      tag_26\n      jumpi\n      invalid\n    tag_26:\n      mod\n        /* \"eth based/FLIR_Contract.sol\":1404:1406  48 */\n      0x30\n        /* \"eth based/FLIR_Contract.sol\":1404:1416  48 + _i % 10 */\n      add\n        /* \"eth based/FLIR_Contract.sol\":1393:1418  byte(uint8(48 + _i % 10)) */\n      0x100000000000000000000000000000000000000000000000000000000000000\n      mul\n        /* \"eth based/FLIR_Contract.sol\":1381:1385  bstr */\n      dup3\n        /* \"eth based/FLIR_Contract.sol\":1386:1389  k-- */\n      dup3\n      dup1\n      0x1\n      swap1\n      sub\n      swap4\n      pop\n        /* \"eth based/FLIR_Contract.sol\":1381:1390  bstr[k--] */\n      dup2\n      mload\n      dup2\n      lt\n      iszero\n      iszero\n      tag_27\n      jumpi\n      invalid\n    tag_27:\n      swap1\n      0x20\n      add\n      add\n        /* \"eth based/FLIR_Contract.sol\":1381:1418  bstr[k--] = byte(uint8(48 + _i % 10)) */\n      swap1\n      not(0xffffffffffffffffffffffffffffffffffffffffffffffffffffffffffffff)\n      and\n      swap1\n      dup2\n      0x0\n      byte\n      swap1\n      mstore8\n      pop\n        /* \"eth based/FLIR_Contract.sol\":1435:1437  10 */\n      0xa\n        /* \"eth based/FLIR_Contract.sol\":1429:1437  _i /= 10 */\n      dup7\n      dup2\n      iszero\n      iszero\n      tag_28\n      jumpi\n      invalid\n    tag_28:\n      div\n      swap6\n      pop\n        /* \"eth based/FLIR_Contract.sol\":1354:1446  while (_i != 0) {... */\n      jump(tag_24)\n    tag_25:\n        /* \"eth based/FLIR_Contract.sol\":1467:1471  bstr */\n      dup2\n        /* \"eth based/FLIR_Contract.sol\":1453:1472  return string(bstr) */\n      swap5\n      pop\n        /* \"eth based/FLIR_Contract.sol\":1030:1501  function integerToString(uint _i) internal pure ... */\n    tag_18:\n      pop\n      pop\n      pop\n      pop\n      swap2\n      swap1\n      pop\n      jump\t// out\n\n    auxdata: 0xa165627a7a72305820c5baef566be66ace0c0d0a5b835688345621e8af8998261fc1fd1626116a81c60029\n}\n",
				"bytecode": {
					"linkReferences": {},
					"object": "608060405260056000556003600155600360025560038055600480556005805560068055600780556008805560098055600a805534801561003f57600080fd5b506102ff8061004f6000396000f30060806040526004361061004c576000357c0100000000000000000000000000000000000000000000000000000000900463ffffffff16806361cb59ca146100515780638111a2a614610092575b600080fd5b34801561005d57600080fd5b5061007c60048036038101908080359060200190929190505050610149565b6040518082815260200191505060405180910390f35b34801561009e57600080fd5b506100c7600480360381019080803590602001909291908035906020019092919050505061015a565b6040518080602001838152602001828103825284818151815260200191508051906020019080838360005b8381101561010d5780820151818401526020810190506100f2565b50505050905090810190601f16801561013a5780820380516001836020036101000a031916815260200191505b50935050505060405180910390f35b600060035482029050809050919050565b60606000806003548502905061016f8161017c565b8492509250509250929050565b606060008060606000808614156101ca576040805190810160405280600181526020017f300000000000000000000000000000000000000000000000000000000000000081525094506102ca565b8593505b6000841415156101f4578280600101935050600a848115156101ec57fe5b0493506101ce565b826040519080825280601f01601f1916602001820160405280156102275781602001602082028038833980820191505090505b5091506001830390505b6000861415156102c657600a8681151561024757fe5b066030017f01000000000000000000000000000000000000000000000000000000000000000282828060019003935081518110151561028257fe5b9060200101907effffffffffffffffffffffffffffffffffffffffffffffffffffffffffffff1916908160001a905350600a868115156102be57fe5b049550610231565b8194505b505050509190505600a165627a7a72305820c5baef566be66ace0c0d0a5b835688345621e8af8998261fc1fd1626116a81c60029",
					"opcodes": "PUSH1 0x80 PUSH1 0x40 MSTORE PUSH1 0x5 PUSH1 0x0 SSTORE PUSH1 0x3 PUSH1 0x1 SSTORE PUSH1 0x3 PUSH1 0x2 SSTORE PUSH1 0x3 DUP1 SSTORE PUSH1 0x4 DUP1 SSTORE PUSH1 0x5 DUP1 SSTORE PUSH1 0x6 DUP1 SSTORE PUSH1 0x7 DUP1 SSTORE PUSH1 0x8 DUP1 SSTORE PUSH1 0x9 DUP1 SSTORE PUSH1 0xA DUP1 SSTORE CALLVALUE DUP1 ISZERO PUSH2 0x3F JUMPI PUSH1 0x0 DUP1 REVERT JUMPDEST POP PUSH2 0x2FF DUP1 PUSH2 0x4F PUSH1 0x0 CODECOPY PUSH1 0x0 RETURN STOP PUSH1 0x80 PUSH1 0x40 MSTORE PUSH1 0x4 CALLDATASIZE LT PUSH2 0x4C JUMPI PUSH1 0x0 CALLDATALOAD PUSH29 0x100000000000000000000000000000000000000000000000000000000 SWAP1 DIV PUSH4 0xFFFFFFFF AND DUP1 PUSH4 0x61CB59CA EQ PUSH2 0x51 JUMPI DUP1 PUSH4 0x8111A2A6 EQ PUSH2 0x92 JUMPI JUMPDEST PUSH1 0x0 DUP1 REVERT JUMPDEST CALLVALUE DUP1 ISZERO PUSH2 0x5D JUMPI PUSH1 0x0 DUP1 REVERT JUMPDEST POP PUSH2 0x7C PUSH1 0x4 DUP1 CALLDATASIZE SUB DUP2 ADD SWAP1 DUP1 DUP1 CALLDATALOAD SWAP1 PUSH1 0x20 ADD SWAP1 SWAP3 SWAP2 SWAP1 POP POP POP PUSH2 0x149 JUMP JUMPDEST PUSH1 0x40 MLOAD DUP1 DUP3 DUP2 MSTORE PUSH1 0x20 ADD SWAP2 POP POP PUSH1 0x40 MLOAD DUP1 SWAP2 SUB SWAP1 RETURN JUMPDEST CALLVALUE DUP1 ISZERO PUSH2 0x9E JUMPI PUSH1 0x0 DUP1 REVERT JUMPDEST POP PUSH2 0xC7 PUSH1 0x4 DUP1 CALLDATASIZE SUB DUP2 ADD SWAP1 DUP1 DUP1 CALLDATALOAD SWAP1 PUSH1 0x20 ADD SWAP1 SWAP3 SWAP2 SWAP1 DUP1 CALLDATALOAD SWAP1 PUSH1 0x20 ADD SWAP1 SWAP3 SWAP2 SWAP1 POP POP POP PUSH2 0x15A JUMP JUMPDEST PUSH1 0x40 MLOAD DUP1 DUP1 PUSH1 0x20 ADD DUP4 DUP2 MSTORE PUSH1 0x20 ADD DUP3 DUP2 SUB DUP3 MSTORE DUP5 DUP2 DUP2 MLOAD DUP2 MSTORE PUSH1 0x20 ADD SWAP2 POP DUP1 MLOAD SWAP1 PUSH1 0x20 ADD SWAP1 DUP1 DUP4 DUP4 PUSH1 0x0 JUMPDEST DUP4 DUP2 LT ISZERO PUSH2 0x10D JUMPI DUP1 DUP3 ADD MLOAD DUP2 DUP5 ADD MSTORE PUSH1 0x20 DUP2 ADD SWAP1 POP PUSH2 0xF2 JUMP JUMPDEST POP POP POP POP SWAP1 POP SWAP1 DUP2 ADD SWAP1 PUSH1 0x1F AND DUP1 ISZERO PUSH2 0x13A JUMPI DUP1 DUP3 SUB DUP1 MLOAD PUSH1 0x1 DUP4 PUSH1 0x20 SUB PUSH2 0x100 EXP SUB NOT AND DUP2 MSTORE PUSH1 0x20 ADD SWAP2 POP JUMPDEST POP SWAP4 POP POP POP POP PUSH1 0x40 MLOAD DUP1 SWAP2 SUB SWAP1 RETURN JUMPDEST PUSH1 0x0 PUSH1 0x3 SLOAD DUP3 MUL SWAP1 POP DUP1 SWAP1 POP SWAP2 SWAP1 POP JUMP JUMPDEST PUSH1 0x60 PUSH1 0x0 DUP1 PUSH1 0x3 SLOAD DUP6 MUL SWAP1 POP PUSH2 0x16F DUP2 PUSH2 0x17C JUMP JUMPDEST DUP5 SWAP3 POP SWAP3 POP POP SWAP3 POP SWAP3 SWAP1 POP JUMP JUMPDEST PUSH1 0x60 PUSH1 0x0 DUP1 PUSH1 0x60 PUSH1 0x0 DUP1 DUP7 EQ ISZERO PUSH2 0x1CA JUMPI PUSH1 0x40 DUP1 MLOAD SWAP1 DUP2 ADD PUSH1 0x40 MSTORE DUP1 PUSH1 0x1 DUP2 MSTORE PUSH1 0x20 ADD PUSH32 0x3000000000000000000000000000000000000000000000000000000000000000 DUP2 MSTORE POP SWAP5 POP PUSH2 0x2CA JUMP JUMPDEST DUP6 SWAP4 POP JUMPDEST PUSH1 0x0 DUP5 EQ ISZERO ISZERO PUSH2 0x1F4 JUMPI DUP3 DUP1 PUSH1 0x1 ADD SWAP4 POP POP PUSH1 0xA DUP5 DUP2 ISZERO ISZERO PUSH2 0x1EC JUMPI INVALID JUMPDEST DIV SWAP4 POP PUSH2 0x1CE JUMP JUMPDEST DUP3 PUSH1 0x40 MLOAD SWAP1 DUP1 DUP3 MSTORE DUP1 PUSH1 0x1F ADD PUSH1 0x1F NOT AND PUSH1 0x20 ADD DUP3 ADD PUSH1 0x40 MSTORE DUP1 ISZERO PUSH2 0x227 JUMPI DUP2 PUSH1 0x20 ADD PUSH1 0x20 DUP3 MUL DUP1 CODESIZE DUP4 CODECOPY DUP1 DUP3 ADD SWAP2 POP POP SWAP1 POP JUMPDEST POP SWAP2 POP PUSH1 0x1 DUP4 SUB SWAP1 POP JUMPDEST PUSH1 0x0 DUP7 EQ ISZERO ISZERO PUSH2 0x2C6 JUMPI PUSH1 0xA DUP7 DUP2 ISZERO ISZERO PUSH2 0x247 JUMPI INVALID JUMPDEST MOD PUSH1 0x30 ADD PUSH32 0x100000000000000000000000000000000000000000000000000000000000000 MUL DUP3 DUP3 DUP1 PUSH1 0x1 SWAP1 SUB SWAP4 POP DUP2 MLOAD DUP2 LT ISZERO ISZERO PUSH2 0x282 JUMPI INVALID JUMPDEST SWAP1 PUSH1 0x20 ADD ADD SWAP1 PUSH31 0xFFFFFFFFFFFFFFFFFFFFFFFFFFFFFFFFFFFFFFFFFFFFFFFFFFFFFFFFFFFFFF NOT AND SWAP1 DUP2 PUSH1 0x0 BYTE SWAP1 MSTORE8 POP PUSH1 0xA DUP7 DUP2 ISZERO ISZERO PUSH2 0x2BE JUMPI INVALID JUMPDEST DIV SWAP6 POP PUSH2 0x231 JUMP JUMPDEST DUP2 SWAP5 POP JUMPDEST POP POP POP POP SWAP2 SWAP1 POP JUMP STOP LOG1 PUSH6 0x627A7A723058 KECCAK256 0xc5 0xba 0xef JUMP PUSH12 0xE66ACE0C0D0A5B8356883456 0x21 0xe8 0xaf DUP10 SWAP9 0x26 0x1f 0xc1 REVERT AND 0x26 GT PUSH11 0x81C6002900000000000000 "
				},
				"gasEstimates": {
					"creation": {
						"codeDepositCost": "153400",
						"executionCost": "220262",
						"totalCost": "373662"
					},
					"external": {
						"ConsumerSlabPrice1(uint256)": "479",
						"ConsumerSlabPrice2(uint256,uint256)": "infinite"
					},
					"internal": {
						"integerToString(uint256)": "infinite"
					}
				},
				"methodIdentifiers": {
					"ConsumerSlabPrice1(uint256)": "61cb59ca",
					"ConsumerSlabPrice2(uint256,uint256)": "8111a2a6"
				}
			},
			"userdoc": {
				"methods": {}
			}
		}
	}
}