{
	"eth based/FLIR_Contract.sol": {
		"FLIRContract": {
			"abi": [
				{
					"constant": true,
					"inputs": [
						{
							"name": "cost1",
							"type": "uint256"
						},
						{
							"name": "cost2",
							"type": "uint256"
						}
					],
					"name": "totalCost",
					"outputs": [
						{
							"name": "",
							"type": "string"
						}
					],
					"payable": false,
					"stateMutability": "view",
					"type": "function"
				},
				{
					"constant": true,
					"inputs": [
						{
							"name": "Cimp2",
							"type": "uint256"
						}
					],
					"name": "ConsumerSlabPrice2",
					"outputs": [
						{
							"name": "",
							"type": "string"
						}
					],
					"payable": false,
					"stateMutability": "view",
					"type": "function"
				},
				{
					"constant": true,
					"inputs": [
						{
							"name": "Cimp1",
							"type": "uint256"
						}
					],
					"name": "ConsumerSlabPrice1",
					"outputs": [
						{
							"name": "",
							"type": "string"
						}
					],
					"payable": false,
					"stateMutability": "view",
					"type": "function"
				}
			],
			"devdoc": {
				"methods": {}
			},
			"evm": {
				"assembly": "    /* \"eth based/FLIR_Contract.sol\":91:1361  contract FLIRContract{... */\n  mstore(0x40, 0x80)\n    /* \"eth based/FLIR_Contract.sol\":128:129  5 */\n  0x5\n    /* \"eth based/FLIR_Contract.sol\":118:129  uint nP = 5 */\n  0x0\n  sstore\n    /* \"eth based/FLIR_Contract.sol\":145:146  3 */\n  0x3\n    /* \"eth based/FLIR_Contract.sol\":135:146  uint nC = 3 */\n  0x1\n  sstore\n    /* \"eth based/FLIR_Contract.sol\":164:165  3 */\n  0x3\n    /* \"eth based/FLIR_Contract.sol\":153:165  uint btp = 3 */\n  0x2\n  sstore\n    /* \"eth based/FLIR_Contract.sol\":184:185  3 */\n  0x3\n    /* \"eth based/FLIR_Contract.sol\":172:185  uint btc1 = 3 */\n  dup1\n  sstore\n    /* \"eth based/FLIR_Contract.sol\":203:204  4 */\n  0x4\n    /* \"eth based/FLIR_Contract.sol\":191:204  uint btc2 = 4 */\n  dup1\n  sstore\n    /* \"eth based/FLIR_Contract.sol\":222:223  5 */\n  0x5\n    /* \"eth based/FLIR_Contract.sol\":210:223  uint btc3 = 5 */\n  dup1\n  sstore\n    /* \"eth based/FLIR_Contract.sol\":241:242  6 */\n  0x6\n    /* \"eth based/FLIR_Contract.sol\":229:242  uint btc4 = 6 */\n  dup1\n  sstore\n    /* \"eth based/FLIR_Contract.sol\":260:261  7 */\n  0x7\n    /* \"eth based/FLIR_Contract.sol\":248:261  uint btc5 = 7 */\n  dup1\n  sstore\n    /* \"eth based/FLIR_Contract.sol\":279:280  8 */\n  0x8\n    /* \"eth based/FLIR_Contract.sol\":267:280  uint btc6 = 8 */\n  dup1\n  sstore\n    /* \"eth based/FLIR_Contract.sol\":298:299  9 */\n  0x9\n    /* \"eth based/FLIR_Contract.sol\":286:299  uint btc7 = 9 */\n  dup1\n  sstore\n    /* \"eth based/FLIR_Contract.sol\":317:319  10 */\n  0xa\n    /* \"eth based/FLIR_Contract.sol\":305:319  uint btc8 = 10 */\n  dup1\n  sstore\n    /* \"eth based/FLIR_Contract.sol\":339:340  0 */\n  0x0\n    /* \"eth based/FLIR_Contract.sol\":326:340  uint cost1 = 0 */\n  0xb\n  sstore\n    /* \"eth based/FLIR_Contract.sol\":359:360  0 */\n  0x0\n    /* \"eth based/FLIR_Contract.sol\":346:360  uint cost2 = 0 */\n  0xc\n  sstore\n    /* \"eth based/FLIR_Contract.sol\":379:380  0 */\n  0x0\n    /* \"eth based/FLIR_Contract.sol\":366:380  uint tCost = 0 */\n  0xd\n  sstore\n    /* \"eth based/FLIR_Contract.sol\":91:1361  contract FLIRContract{... */\n  callvalue\n    /* \"--CODEGEN--\":8:17   */\n  dup1\n    /* \"--CODEGEN--\":5:7   */\n  iszero\n  tag_1\n  jumpi\n    /* \"--CODEGEN--\":30:31   */\n  0x0\n    /* \"--CODEGEN--\":27:28   */\n  dup1\n    /* \"--CODEGEN--\":20:32   */\n  revert\n    /* \"--CODEGEN--\":5:7   */\ntag_1:\n    /* \"eth based/FLIR_Contract.sol\":91:1361  contract FLIRContract{... */\n  pop\n  dataSize(sub_0)\n  dup1\n  dataOffset(sub_0)\n  0x0\n  codecopy\n  0x0\n  return\nstop\n\nsub_0: assembly {\n        /* \"eth based/FLIR_Contract.sol\":91:1361  contract FLIRContract{... */\n      mstore(0x40, 0x80)\n      jumpi(tag_1, lt(calldatasize, 0x4))\n      calldataload(0x0)\n      0x100000000000000000000000000000000000000000000000000000000\n      swap1\n      div\n      0xffffffff\n      and\n      dup1\n      0x66cf0df\n      eq\n      tag_2\n      jumpi\n      dup1\n      0x911b4e0\n      eq\n      tag_3\n      jumpi\n      dup1\n      0x61cb59ca\n      eq\n      tag_4\n      jumpi\n    tag_1:\n      0x0\n      dup1\n      revert\n        /* \"eth based/FLIR_Contract.sol\":723:878  function totalCost(uint cost1, uint cost2)public view returns (string memory){... */\n    tag_2:\n      callvalue\n        /* \"--CODEGEN--\":8:17   */\n      dup1\n        /* \"--CODEGEN--\":5:7   */\n      iszero\n      tag_5\n      jumpi\n        /* \"--CODEGEN--\":30:31   */\n      0x0\n        /* \"--CODEGEN--\":27:28   */\n      dup1\n        /* \"--CODEGEN--\":20:32   */\n      revert\n        /* \"--CODEGEN--\":5:7   */\n    tag_5:\n        /* \"eth based/FLIR_Contract.sol\":723:878  function totalCost(uint cost1, uint cost2)public view returns (string memory){... */\n      pop\n      tag_6\n      0x4\n      dup1\n      calldatasize\n      sub\n      dup2\n      add\n      swap1\n      dup1\n      dup1\n      calldataload\n      swap1\n      0x20\n      add\n      swap1\n      swap3\n      swap2\n      swap1\n      dup1\n      calldataload\n      swap1\n      0x20\n      add\n      swap1\n      swap3\n      swap2\n      swap1\n      pop\n      pop\n      pop\n      jump(tag_7)\n    tag_6:\n      mload(0x40)\n      dup1\n      dup1\n      0x20\n      add\n      dup3\n      dup2\n      sub\n      dup3\n      mstore\n      dup4\n      dup2\n      dup2\n      mload\n      dup2\n      mstore\n      0x20\n      add\n      swap2\n      pop\n      dup1\n      mload\n      swap1\n      0x20\n      add\n      swap1\n      dup1\n      dup4\n      dup4\n        /* \"--CODEGEN--\":23:24   */\n      0x0\n        /* \"--CODEGEN--\":8:108   */\n    tag_8:\n        /* \"--CODEGEN--\":33:36   */\n      dup4\n        /* \"--CODEGEN--\":30:31   */\n      dup2\n        /* \"--CODEGEN--\":27:37   */\n      lt\n        /* \"--CODEGEN--\":8:108   */\n      iszero\n      tag_9\n      jumpi\n        /* \"--CODEGEN--\":99:100   */\n      dup1\n        /* \"--CODEGEN--\":94:97   */\n      dup3\n        /* \"--CODEGEN--\":90:101   */\n      add\n        /* \"--CODEGEN--\":84:102   */\n      mload\n        /* \"--CODEGEN--\":80:81   */\n      dup2\n        /* \"--CODEGEN--\":75:78   */\n      dup5\n        /* \"--CODEGEN--\":71:82   */\n      add\n        /* \"--CODEGEN--\":64:103   */\n      mstore\n        /* \"--CODEGEN--\":52:54   */\n      0x20\n        /* \"--CODEGEN--\":49:50   */\n      dup2\n        /* \"--CODEGEN--\":45:55   */\n      add\n        /* \"--CODEGEN--\":40:55   */\n      swap1\n      pop\n        /* \"--CODEGEN--\":8:108   */\n      jump(tag_8)\n    tag_9:\n        /* \"--CODEGEN--\":12:26   */\n      pop\n        /* \"eth based/FLIR_Contract.sol\":723:878  function totalCost(uint cost1, uint cost2)public view returns (string memory){... */\n      pop\n      pop\n      pop\n      swap1\n      pop\n      swap1\n      dup2\n      add\n      swap1\n      0x1f\n      and\n      dup1\n      iszero\n      tag_11\n      jumpi\n      dup1\n      dup3\n      sub\n      dup1\n      mload\n      0x1\n      dup4\n      0x20\n      sub\n      0x100\n      exp\n      sub\n      not\n      and\n      dup2\n      mstore\n      0x20\n      add\n      swap2\n      pop\n    tag_11:\n      pop\n      swap3\n      pop\n      pop\n      pop\n      mload(0x40)\n      dup1\n      swap2\n      sub\n      swap1\n      return\n        /* \"eth based/FLIR_Contract.sol\":567:717  function ConsumerSlabPrice2(uint Cimp2)public view returns (string memory){... */\n    tag_3:\n      callvalue\n        /* \"--CODEGEN--\":8:17   */\n      dup1\n        /* \"--CODEGEN--\":5:7   */\n      iszero\n      tag_12\n      jumpi\n        /* \"--CODEGEN--\":30:31   */\n      0x0\n        /* \"--CODEGEN--\":27:28   */\n      dup1\n        /* \"--CODEGEN--\":20:32   */\n      revert\n        /* \"--CODEGEN--\":5:7   */\n    tag_12:\n        /* \"eth based/FLIR_Contract.sol\":567:717  function ConsumerSlabPrice2(uint Cimp2)public view returns (string memory){... */\n      pop\n      tag_13\n      0x4\n      dup1\n      calldatasize\n      sub\n      dup2\n      add\n      swap1\n      dup1\n      dup1\n      calldataload\n      swap1\n      0x20\n      add\n      swap1\n      swap3\n      swap2\n      swap1\n      pop\n      pop\n      pop\n      jump(tag_14)\n    tag_13:\n      mload(0x40)\n      dup1\n      dup1\n      0x20\n      add\n      dup3\n      dup2\n      sub\n      dup3\n      mstore\n      dup4\n      dup2\n      dup2\n      mload\n      dup2\n      mstore\n      0x20\n      add\n      swap2\n      pop\n      dup1\n      mload\n      swap1\n      0x20\n      add\n      swap1\n      dup1\n      dup4\n      dup4\n        /* \"--CODEGEN--\":23:24   */\n      0x0\n        /* \"--CODEGEN--\":8:108   */\n    tag_15:\n        /* \"--CODEGEN--\":33:36   */\n      dup4\n        /* \"--CODEGEN--\":30:31   */\n      dup2\n        /* \"--CODEGEN--\":27:37   */\n      lt\n        /* \"--CODEGEN--\":8:108   */\n      iszero\n      tag_16\n      jumpi\n        /* \"--CODEGEN--\":99:100   */\n      dup1\n        /* \"--CODEGEN--\":94:97   */\n      dup3\n        /* \"--CODEGEN--\":90:101   */\n      add\n        /* \"--CODEGEN--\":84:102   */\n      mload\n        /* \"--CODEGEN--\":80:81   */\n      dup2\n        /* \"--CODEGEN--\":75:78   */\n      dup5\n        /* \"--CODEGEN--\":71:82   */\n      add\n        /* \"--CODEGEN--\":64:103   */\n      mstore\n        /* \"--CODEGEN--\":52:54   */\n      0x20\n        /* \"--CODEGEN--\":49:50   */\n      dup2\n        /* \"--CODEGEN--\":45:55   */\n      add\n        /* \"--CODEGEN--\":40:55   */\n      swap1\n      pop\n        /* \"--CODEGEN--\":8:108   */\n      jump(tag_15)\n    tag_16:\n        /* \"--CODEGEN--\":12:26   */\n      pop\n        /* \"eth based/FLIR_Contract.sol\":567:717  function ConsumerSlabPrice2(uint Cimp2)public view returns (string memory){... */\n      pop\n      pop\n      pop\n      swap1\n      pop\n      swap1\n      dup2\n      add\n      swap1\n      0x1f\n      and\n      dup1\n      iszero\n      tag_18\n      jumpi\n      dup1\n      dup3\n      sub\n      dup1\n      mload\n      0x1\n      dup4\n      0x20\n      sub\n      0x100\n      exp\n      sub\n      not\n      and\n      dup2\n      mstore\n      0x20\n      add\n      swap2\n      pop\n    tag_18:\n      pop\n      swap3\n      pop\n      pop\n      pop\n      mload(0x40)\n      dup1\n      swap2\n      sub\n      swap1\n      return\n        /* \"eth based/FLIR_Contract.sol\":411:561  function ConsumerSlabPrice1(uint Cimp1)public view returns (string memory){... */\n    tag_4:\n      callvalue\n        /* \"--CODEGEN--\":8:17   */\n      dup1\n        /* \"--CODEGEN--\":5:7   */\n      iszero\n      tag_19\n      jumpi\n        /* \"--CODEGEN--\":30:31   */\n      0x0\n        /* \"--CODEGEN--\":27:28   */\n      dup1\n        /* \"--CODEGEN--\":20:32   */\n      revert\n        /* \"--CODEGEN--\":5:7   */\n    tag_19:\n        /* \"eth based/FLIR_Contract.sol\":411:561  function ConsumerSlabPrice1(uint Cimp1)public view returns (string memory){... */\n      pop\n      tag_20\n      0x4\n      dup1\n      calldatasize\n      sub\n      dup2\n      add\n      swap1\n      dup1\n      dup1\n      calldataload\n      swap1\n      0x20\n      add\n      swap1\n      swap3\n      swap2\n      swap1\n      pop\n      pop\n      pop\n      jump(tag_21)\n    tag_20:\n      mload(0x40)\n      dup1\n      dup1\n      0x20\n      add\n      dup3\n      dup2\n      sub\n      dup3\n      mstore\n      dup4\n      dup2\n      dup2\n      mload\n      dup2\n      mstore\n      0x20\n      add\n      swap2\n      pop\n      dup1\n      mload\n      swap1\n      0x20\n      add\n      swap1\n      dup1\n      dup4\n      dup4\n        /* \"--CODEGEN--\":23:24   */\n      0x0\n        /* \"--CODEGEN--\":8:108   */\n    tag_22:\n        /* \"--CODEGEN--\":33:36   */\n      dup4\n        /* \"--CODEGEN--\":30:31   */\n      dup2\n        /* \"--CODEGEN--\":27:37   */\n      lt\n        /* \"--CODEGEN--\":8:108   */\n      iszero\n      tag_23\n      jumpi\n        /* \"--CODEGEN--\":99:100   */\n      dup1\n        /* \"--CODEGEN--\":94:97   */\n      dup3\n        /* \"--CODEGEN--\":90:101   */\n      add\n        /* \"--CODEGEN--\":84:102   */\n      mload\n        /* \"--CODEGEN--\":80:81   */\n      dup2\n        /* \"--CODEGEN--\":75:78   */\n      dup5\n        /* \"--CODEGEN--\":71:82   */\n      add\n        /* \"--CODEGEN--\":64:103   */\n      mstore\n        /* \"--CODEGEN--\":52:54   */\n      0x20\n        /* \"--CODEGEN--\":49:50   */\n      dup2\n        /* \"--CODEGEN--\":45:55   */\n      add\n        /* \"--CODEGEN--\":40:55   */\n      swap1\n      pop\n        /* \"--CODEGEN--\":8:108   */\n      jump(tag_22)\n    tag_23:\n        /* \"--CODEGEN--\":12:26   */\n      pop\n        /* \"eth based/FLIR_Contract.sol\":411:561  function ConsumerSlabPrice1(uint Cimp1)public view returns (string memory){... */\n      pop\n      pop\n      pop\n      swap1\n      pop\n      swap1\n      dup2\n      add\n      swap1\n      0x1f\n      and\n      dup1\n      iszero\n      tag_25\n      jumpi\n      dup1\n      dup3\n      sub\n      dup1\n      mload\n      0x1\n      dup4\n      0x20\n      sub\n      0x100\n      exp\n      sub\n      not\n      and\n      dup2\n      mstore\n      0x20\n      add\n      swap2\n      pop\n    tag_25:\n      pop\n      swap3\n      pop\n      pop\n      pop\n      mload(0x40)\n      dup1\n      swap2\n      sub\n      swap1\n      return\n        /* \"eth based/FLIR_Contract.sol\":723:878  function totalCost(uint cost1, uint cost2)public view returns (string memory){... */\n    tag_7:\n        /* \"eth based/FLIR_Contract.sol\":786:792  string */\n      0x60\n        /* \"eth based/FLIR_Contract.sol\":826:831  cost2 */\n      dup2\n        /* \"eth based/FLIR_Contract.sol\":818:823  cost1 */\n      dup4\n        /* \"eth based/FLIR_Contract.sol\":818:831  cost1 + cost2 */\n      add\n        /* \"eth based/FLIR_Contract.sol\":810:815  tCost */\n      0xd\n        /* \"eth based/FLIR_Contract.sol\":810:831  tCost = cost1 + cost2 */\n      dup2\n      swap1\n      sstore\n      pop\n        /* \"eth based/FLIR_Contract.sol\":848:870  integerToString(tCost) */\n      tag_27\n        /* \"eth based/FLIR_Contract.sol\":864:869  tCost */\n      sload(0xd)\n        /* \"eth based/FLIR_Contract.sol\":848:863  integerToString */\n      tag_28\n        /* \"eth based/FLIR_Contract.sol\":848:870  integerToString(tCost) */\n      jump\t// in\n    tag_27:\n        /* \"eth based/FLIR_Contract.sol\":841:870  return integerToString(tCost) */\n      swap1\n      pop\n        /* \"eth based/FLIR_Contract.sol\":723:878  function totalCost(uint cost1, uint cost2)public view returns (string memory){... */\n      swap3\n      swap2\n      pop\n      pop\n      jump\t// out\n        /* \"eth based/FLIR_Contract.sol\":567:717  function ConsumerSlabPrice2(uint Cimp2)public view returns (string memory){... */\n    tag_14:\n        /* \"eth based/FLIR_Contract.sol\":627:633  string */\n      0x60\n        /* \"eth based/FLIR_Contract.sol\":667:671  btc1 */\n      sload(0x3)\n        /* \"eth based/FLIR_Contract.sol\":659:664  Cimp2 */\n      dup3\n        /* \"eth based/FLIR_Contract.sol\":659:671  Cimp2 * btc1 */\n      mul\n        /* \"eth based/FLIR_Contract.sol\":651:656  cost2 */\n      0xc\n        /* \"eth based/FLIR_Contract.sol\":651:671  cost2 = Cimp2 * btc1 */\n      dup2\n      swap1\n      sstore\n      pop\n        /* \"eth based/FLIR_Contract.sol\":688:710  integerToString(cost2) */\n      tag_30\n        /* \"eth based/FLIR_Contract.sol\":704:709  cost2 */\n      sload(0xc)\n        /* \"eth based/FLIR_Contract.sol\":688:703  integerToString */\n      tag_28\n        /* \"eth based/FLIR_Contract.sol\":688:710  integerToString(cost2) */\n      jump\t// in\n    tag_30:\n        /* \"eth based/FLIR_Contract.sol\":681:710  return integerToString(cost2) */\n      swap1\n      pop\n        /* \"eth based/FLIR_Contract.sol\":567:717  function ConsumerSlabPrice2(uint Cimp2)public view returns (string memory){... */\n      swap2\n      swap1\n      pop\n      jump\t// out\n        /* \"eth based/FLIR_Contract.sol\":411:561  function ConsumerSlabPrice1(uint Cimp1)public view returns (string memory){... */\n    tag_21:\n        /* \"eth based/FLIR_Contract.sol\":471:477  string */\n      0x60\n        /* \"eth based/FLIR_Contract.sol\":511:515  btc1 */\n      sload(0x3)\n        /* \"eth based/FLIR_Contract.sol\":503:508  Cimp1 */\n      dup3\n        /* \"eth based/FLIR_Contract.sol\":503:515  Cimp1 * btc1 */\n      mul\n        /* \"eth based/FLIR_Contract.sol\":495:500  cost1 */\n      0xb\n        /* \"eth based/FLIR_Contract.sol\":495:515  cost1 = Cimp1 * btc1 */\n      dup2\n      swap1\n      sstore\n      pop\n        /* \"eth based/FLIR_Contract.sol\":532:554  integerToString(cost1) */\n      tag_32\n        /* \"eth based/FLIR_Contract.sol\":548:553  cost1 */\n      sload(0xb)\n        /* \"eth based/FLIR_Contract.sol\":532:547  integerToString */\n      tag_28\n        /* \"eth based/FLIR_Contract.sol\":532:554  integerToString(cost1) */\n      jump\t// in\n    tag_32:\n        /* \"eth based/FLIR_Contract.sol\":525:554  return integerToString(cost1) */\n      swap1\n      pop\n        /* \"eth based/FLIR_Contract.sol\":411:561  function ConsumerSlabPrice1(uint Cimp1)public view returns (string memory){... */\n      swap2\n      swap1\n      pop\n      jump\t// out\n        /* \"eth based/FLIR_Contract.sol\":885:1356  function integerToString(uint _i) internal pure ... */\n    tag_28:\n        /* \"eth based/FLIR_Contract.sol\":949:955  string */\n      0x60\n        /* \"eth based/FLIR_Contract.sol\":1029:1035  uint j */\n      0x0\n        /* \"eth based/FLIR_Contract.sol\":1048:1056  uint len */\n      dup1\n        /* \"eth based/FLIR_Contract.sol\":1136:1153  bytes memory bstr */\n      0x60\n        /* \"eth based/FLIR_Contract.sol\":1178:1184  uint k */\n      0x0\n        /* \"eth based/FLIR_Contract.sol\":989:990  0 */\n      dup1\n        /* \"eth based/FLIR_Contract.sol\":983:985  _i */\n      dup7\n        /* \"eth based/FLIR_Contract.sol\":983:990  _i == 0 */\n      eq\n        /* \"eth based/FLIR_Contract.sol\":979:1022  if (_i == 0) {... */\n      iszero\n      tag_34\n      jumpi\n        /* \"eth based/FLIR_Contract.sol\":1003:1013  return \"0\" */\n      0x40\n      dup1\n      mload\n      swap1\n      dup2\n      add\n      0x40\n      mstore\n      dup1\n      0x1\n      dup2\n      mstore\n      0x20\n      add\n      0x3000000000000000000000000000000000000000000000000000000000000000\n      dup2\n      mstore\n      pop\n      swap5\n      pop\n      jump(tag_33)\n        /* \"eth based/FLIR_Contract.sol\":979:1022  if (_i == 0) {... */\n    tag_34:\n        /* \"eth based/FLIR_Contract.sol\":1038:1040  _i */\n      dup6\n        /* \"eth based/FLIR_Contract.sol\":1029:1040  uint j = _i */\n      swap4\n      pop\n        /* \"eth based/FLIR_Contract.sol\":1071:1129  while (j != 0) {... */\n    tag_35:\n        /* \"eth based/FLIR_Contract.sol\":1083:1084  0 */\n      0x0\n        /* \"eth based/FLIR_Contract.sol\":1078:1079  j */\n      dup5\n        /* \"eth based/FLIR_Contract.sol\":1078:1084  j != 0 */\n      eq\n      iszero\n        /* \"eth based/FLIR_Contract.sol\":1071:1129  while (j != 0) {... */\n      iszero\n      tag_36\n      jumpi\n        /* \"eth based/FLIR_Contract.sol\":1097:1102  len++ */\n      dup3\n      dup1\n      0x1\n      add\n      swap4\n      pop\n      pop\n        /* \"eth based/FLIR_Contract.sol\":1118:1120  10 */\n      0xa\n        /* \"eth based/FLIR_Contract.sol\":1113:1120  j /= 10 */\n      dup5\n      dup2\n      iszero\n      iszero\n      tag_37\n      jumpi\n      invalid\n    tag_37:\n      div\n      swap4\n      pop\n        /* \"eth based/FLIR_Contract.sol\":1071:1129  while (j != 0) {... */\n      jump(tag_35)\n    tag_36:\n        /* \"eth based/FLIR_Contract.sol\":1166:1169  len */\n      dup3\n        /* \"eth based/FLIR_Contract.sol\":1156:1170  new bytes(len) */\n      mload(0x40)\n      swap1\n      dup1\n      dup3\n      mstore\n      dup1\n      0x1f\n      add\n      not(0x1f)\n      and\n      0x20\n      add\n      dup3\n      add\n      0x40\n      mstore\n      dup1\n      iszero\n      tag_38\n      jumpi\n      dup2\n      0x20\n      add\n        /* \"--CODEGEN--\":29:31   */\n      0x20\n        /* \"--CODEGEN--\":21:27   */\n      dup3\n        /* \"--CODEGEN--\":17:32   */\n      mul\n        /* \"--CODEGEN--\":117:121   */\n      dup1\n        /* \"--CODEGEN--\":105:115   */\n      codesize\n        /* \"--CODEGEN--\":97:103   */\n      dup4\n        /* \"--CODEGEN--\":88:122   */\n      codecopy\n        /* \"--CODEGEN--\":148:152   */\n      dup1\n        /* \"--CODEGEN--\":140:146   */\n      dup3\n        /* \"--CODEGEN--\":136:153   */\n      add\n        /* \"--CODEGEN--\":126:153   */\n      swap2\n      pop\n        /* \"--CODEGEN--\":0:157   */\n      pop\n        /* \"eth based/FLIR_Contract.sol\":1156:1170  new bytes(len) */\n      swap1\n      pop\n    tag_38:\n      pop\n        /* \"eth based/FLIR_Contract.sol\":1136:1170  bytes memory bstr = new bytes(len) */\n      swap2\n      pop\n        /* \"eth based/FLIR_Contract.sol\":1193:1194  1 */\n      0x1\n        /* \"eth based/FLIR_Contract.sol\":1187:1190  len */\n      dup4\n        /* \"eth based/FLIR_Contract.sol\":1187:1194  len - 1 */\n      sub\n        /* \"eth based/FLIR_Contract.sol\":1178:1194  uint k = len - 1 */\n      swap1\n      pop\n        /* \"eth based/FLIR_Contract.sol\":1209:1301  while (_i != 0) {... */\n    tag_39:\n        /* \"eth based/FLIR_Contract.sol\":1222:1223  0 */\n      0x0\n        /* \"eth based/FLIR_Contract.sol\":1216:1218  _i */\n      dup7\n        /* \"eth based/FLIR_Contract.sol\":1216:1223  _i != 0 */\n      eq\n      iszero\n        /* \"eth based/FLIR_Contract.sol\":1209:1301  while (_i != 0) {... */\n      iszero\n      tag_40\n      jumpi\n        /* \"eth based/FLIR_Contract.sol\":1269:1271  10 */\n      0xa\n        /* \"eth based/FLIR_Contract.sol\":1264:1266  _i */\n      dup7\n        /* \"eth based/FLIR_Contract.sol\":1264:1271  _i % 10 */\n      dup2\n      iszero\n      iszero\n      tag_41\n      jumpi\n      invalid\n    tag_41:\n      mod\n        /* \"eth based/FLIR_Contract.sol\":1259:1261  48 */\n      0x30\n        /* \"eth based/FLIR_Contract.sol\":1259:1271  48 + _i % 10 */\n      add\n        /* \"eth based/FLIR_Contract.sol\":1248:1273  byte(uint8(48 + _i % 10)) */\n      0x100000000000000000000000000000000000000000000000000000000000000\n      mul\n        /* \"eth based/FLIR_Contract.sol\":1236:1240  bstr */\n      dup3\n        /* \"eth based/FLIR_Contract.sol\":1241:1244  k-- */\n      dup3\n      dup1\n      0x1\n      swap1\n      sub\n      swap4\n      pop\n        /* \"eth based/FLIR_Contract.sol\":1236:1245  bstr[k--] */\n      dup2\n      mload\n      dup2\n      lt\n      iszero\n      iszero\n      tag_42\n      jumpi\n      invalid\n    tag_42:\n      swap1\n      0x20\n      add\n      add\n        /* \"eth based/FLIR_Contract.sol\":1236:1273  bstr[k--] = byte(uint8(48 + _i % 10)) */\n      swap1\n      not(0xffffffffffffffffffffffffffffffffffffffffffffffffffffffffffffff)\n      and\n      swap1\n      dup2\n      0x0\n      byte\n      swap1\n      mstore8\n      pop\n        /* \"eth based/FLIR_Contract.sol\":1290:1292  10 */\n      0xa\n        /* \"eth based/FLIR_Contract.sol\":1284:1292  _i /= 10 */\n      dup7\n      dup2\n      iszero\n      iszero\n      tag_43\n      jumpi\n      invalid\n    tag_43:\n      div\n      swap6\n      pop\n        /* \"eth based/FLIR_Contract.sol\":1209:1301  while (_i != 0) {... */\n      jump(tag_39)\n    tag_40:\n        /* \"eth based/FLIR_Contract.sol\":1322:1326  bstr */\n      dup2\n        /* \"eth based/FLIR_Contract.sol\":1308:1327  return string(bstr) */\n      swap5\n      pop\n        /* \"eth based/FLIR_Contract.sol\":885:1356  function integerToString(uint _i) internal pure ... */\n    tag_33:\n      pop\n      pop\n      pop\n      pop\n      swap2\n      swap1\n      pop\n      jump\t// out\n\n    auxdata: 0xa165627a7a723058205dea94a6b4e41e4a032b719daad9ac2c86e3da07a7ad952578c4aeeaa9f724510029\n}\n",
				"bytecode": {
					"linkReferences": {},
					"object": "608060405260056000556003600155600360025560038055600480556005805560068055600780556008805560098055600a80556000600b556000600c556000600d5534801561004e57600080fd5b506104378061005e6000396000f300608060405260043610610057576000357c0100000000000000000000000000000000000000000000000000000000900463ffffffff168063066cf0df1461005c5780630911b4e01461010c57806361cb59ca146101b2575b600080fd5b34801561006857600080fd5b506100916004803603810190808035906020019092919080359060200190929190505050610258565b6040518080602001828103825283818151815260200191508051906020019080838360005b838110156100d15780820151818401526020810190506100b6565b50505050905090810190601f1680156100fe5780820380516001836020036101000a031916815260200191505b509250505060405180910390f35b34801561011857600080fd5b5061013760048036038101908080359060200190929190505050610276565b6040518080602001828103825283818151815260200191508051906020019080838360005b8381101561017757808201518184015260208101905061015c565b50505050905090810190601f1680156101a45780820380516001836020036101000a031916815260200191505b509250505060405180910390f35b3480156101be57600080fd5b506101dd60048036038101908080359060200190929190505050610295565b6040518080602001828103825283818151815260200191508051906020019080838360005b8381101561021d578082015181840152602081019050610202565b50505050905090810190601f16801561024a5780820380516001836020036101000a031916815260200191505b509250505060405180910390f35b6060818301600d8190555061026e600d546102b4565b905092915050565b60606003548202600c8190555061028e600c546102b4565b9050919050565b60606003548202600b819055506102ad600b546102b4565b9050919050565b60606000806060600080861415610302576040805190810160405280600181526020017f30000000000000000000000000000000000000000000000000000000000000008152509450610402565b8593505b60008414151561032c578280600101935050600a8481151561032457fe5b049350610306565b826040519080825280601f01601f19166020018201604052801561035f5781602001602082028038833980820191505090505b5091506001830390505b6000861415156103fe57600a8681151561037f57fe5b066030017f0100000000000000000000000000000000000000000000000000000000000000028282806001900393508151811015156103ba57fe5b9060200101907effffffffffffffffffffffffffffffffffffffffffffffffffffffffffffff1916908160001a905350600a868115156103f657fe5b049550610369565b8194505b505050509190505600a165627a7a723058205dea94a6b4e41e4a032b719daad9ac2c86e3da07a7ad952578c4aeeaa9f724510029",
					"opcodes": "PUSH1 0x80 PUSH1 0x40 MSTORE PUSH1 0x5 PUSH1 0x0 SSTORE PUSH1 0x3 PUSH1 0x1 SSTORE PUSH1 0x3 PUSH1 0x2 SSTORE PUSH1 0x3 DUP1 SSTORE PUSH1 0x4 DUP1 SSTORE PUSH1 0x5 DUP1 SSTORE PUSH1 0x6 DUP1 SSTORE PUSH1 0x7 DUP1 SSTORE PUSH1 0x8 DUP1 SSTORE PUSH1 0x9 DUP1 SSTORE PUSH1 0xA DUP1 SSTORE PUSH1 0x0 PUSH1 0xB SSTORE PUSH1 0x0 PUSH1 0xC SSTORE PUSH1 0x0 PUSH1 0xD SSTORE CALLVALUE DUP1 ISZERO PUSH2 0x4E JUMPI PUSH1 0x0 DUP1 REVERT JUMPDEST POP PUSH2 0x437 DUP1 PUSH2 0x5E PUSH1 0x0 CODECOPY PUSH1 0x0 RETURN STOP PUSH1 0x80 PUSH1 0x40 MSTORE PUSH1 0x4 CALLDATASIZE LT PUSH2 0x57 JUMPI PUSH1 0x0 CALLDATALOAD PUSH29 0x100000000000000000000000000000000000000000000000000000000 SWAP1 DIV PUSH4 0xFFFFFFFF AND DUP1 PUSH4 0x66CF0DF EQ PUSH2 0x5C JUMPI DUP1 PUSH4 0x911B4E0 EQ PUSH2 0x10C JUMPI DUP1 PUSH4 0x61CB59CA EQ PUSH2 0x1B2 JUMPI JUMPDEST PUSH1 0x0 DUP1 REVERT JUMPDEST CALLVALUE DUP1 ISZERO PUSH2 0x68 JUMPI PUSH1 0x0 DUP1 REVERT JUMPDEST POP PUSH2 0x91 PUSH1 0x4 DUP1 CALLDATASIZE SUB DUP2 ADD SWAP1 DUP1 DUP1 CALLDATALOAD SWAP1 PUSH1 0x20 ADD SWAP1 SWAP3 SWAP2 SWAP1 DUP1 CALLDATALOAD SWAP1 PUSH1 0x20 ADD SWAP1 SWAP3 SWAP2 SWAP1 POP POP POP PUSH2 0x258 JUMP JUMPDEST PUSH1 0x40 MLOAD DUP1 DUP1 PUSH1 0x20 ADD DUP3 DUP2 SUB DUP3 MSTORE DUP4 DUP2 DUP2 MLOAD DUP2 MSTORE PUSH1 0x20 ADD SWAP2 POP DUP1 MLOAD SWAP1 PUSH1 0x20 ADD SWAP1 DUP1 DUP4 DUP4 PUSH1 0x0 JUMPDEST DUP4 DUP2 LT ISZERO PUSH2 0xD1 JUMPI DUP1 DUP3 ADD MLOAD DUP2 DUP5 ADD MSTORE PUSH1 0x20 DUP2 ADD SWAP1 POP PUSH2 0xB6 JUMP JUMPDEST POP POP POP POP SWAP1 POP SWAP1 DUP2 ADD SWAP1 PUSH1 0x1F AND DUP1 ISZERO PUSH2 0xFE JUMPI DUP1 DUP3 SUB DUP1 MLOAD PUSH1 0x1 DUP4 PUSH1 0x20 SUB PUSH2 0x100 EXP SUB NOT AND DUP2 MSTORE PUSH1 0x20 ADD SWAP2 POP JUMPDEST POP SWAP3 POP POP POP PUSH1 0x40 MLOAD DUP1 SWAP2 SUB SWAP1 RETURN JUMPDEST CALLVALUE DUP1 ISZERO PUSH2 0x118 JUMPI PUSH1 0x0 DUP1 REVERT JUMPDEST POP PUSH2 0x137 PUSH1 0x4 DUP1 CALLDATASIZE SUB DUP2 ADD SWAP1 DUP1 DUP1 CALLDATALOAD SWAP1 PUSH1 0x20 ADD SWAP1 SWAP3 SWAP2 SWAP1 POP POP POP PUSH2 0x276 JUMP JUMPDEST PUSH1 0x40 MLOAD DUP1 DUP1 PUSH1 0x20 ADD DUP3 DUP2 SUB DUP3 MSTORE DUP4 DUP2 DUP2 MLOAD DUP2 MSTORE PUSH1 0x20 ADD SWAP2 POP DUP1 MLOAD SWAP1 PUSH1 0x20 ADD SWAP1 DUP1 DUP4 DUP4 PUSH1 0x0 JUMPDEST DUP4 DUP2 LT ISZERO PUSH2 0x177 JUMPI DUP1 DUP3 ADD MLOAD DUP2 DUP5 ADD MSTORE PUSH1 0x20 DUP2 ADD SWAP1 POP PUSH2 0x15C JUMP JUMPDEST POP POP POP POP SWAP1 POP SWAP1 DUP2 ADD SWAP1 PUSH1 0x1F AND DUP1 ISZERO PUSH2 0x1A4 JUMPI DUP1 DUP3 SUB DUP1 MLOAD PUSH1 0x1 DUP4 PUSH1 0x20 SUB PUSH2 0x100 EXP SUB NOT AND DUP2 MSTORE PUSH1 0x20 ADD SWAP2 POP JUMPDEST POP SWAP3 POP POP POP PUSH1 0x40 MLOAD DUP1 SWAP2 SUB SWAP1 RETURN JUMPDEST CALLVALUE DUP1 ISZERO PUSH2 0x1BE JUMPI PUSH1 0x0 DUP1 REVERT JUMPDEST POP PUSH2 0x1DD PUSH1 0x4 DUP1 CALLDATASIZE SUB DUP2 ADD SWAP1 DUP1 DUP1 CALLDATALOAD SWAP1 PUSH1 0x20 ADD SWAP1 SWAP3 SWAP2 SWAP1 POP POP POP PUSH2 0x295 JUMP JUMPDEST PUSH1 0x40 MLOAD DUP1 DUP1 PUSH1 0x20 ADD DUP3 DUP2 SUB DUP3 MSTORE DUP4 DUP2 DUP2 MLOAD DUP2 MSTORE PUSH1 0x20 ADD SWAP2 POP DUP1 MLOAD SWAP1 PUSH1 0x20 ADD SWAP1 DUP1 DUP4 DUP4 PUSH1 0x0 JUMPDEST DUP4 DUP2 LT ISZERO PUSH2 0x21D JUMPI DUP1 DUP3 ADD MLOAD DUP2 DUP5 ADD MSTORE PUSH1 0x20 DUP2 ADD SWAP1 POP PUSH2 0x202 JUMP JUMPDEST POP POP POP POP SWAP1 POP SWAP1 DUP2 ADD SWAP1 PUSH1 0x1F AND DUP1 ISZERO PUSH2 0x24A JUMPI DUP1 DUP3 SUB DUP1 MLOAD PUSH1 0x1 DUP4 PUSH1 0x20 SUB PUSH2 0x100 EXP SUB NOT AND DUP2 MSTORE PUSH1 0x20 ADD SWAP2 POP JUMPDEST POP SWAP3 POP POP POP PUSH1 0x40 MLOAD DUP1 SWAP2 SUB SWAP1 RETURN JUMPDEST PUSH1 0x60 DUP2 DUP4 ADD PUSH1 0xD DUP2 SWAP1 SSTORE POP PUSH2 0x26E PUSH1 0xD SLOAD PUSH2 0x2B4 JUMP JUMPDEST SWAP1 POP SWAP3 SWAP2 POP POP JUMP JUMPDEST PUSH1 0x60 PUSH1 0x3 SLOAD DUP3 MUL PUSH1 0xC DUP2 SWAP1 SSTORE POP PUSH2 0x28E PUSH1 0xC SLOAD PUSH2 0x2B4 JUMP JUMPDEST SWAP1 POP SWAP2 SWAP1 POP JUMP JUMPDEST PUSH1 0x60 PUSH1 0x3 SLOAD DUP3 MUL PUSH1 0xB DUP2 SWAP1 SSTORE POP PUSH2 0x2AD PUSH1 0xB SLOAD PUSH2 0x2B4 JUMP JUMPDEST SWAP1 POP SWAP2 SWAP1 POP JUMP JUMPDEST PUSH1 0x60 PUSH1 0x0 DUP1 PUSH1 0x60 PUSH1 0x0 DUP1 DUP7 EQ ISZERO PUSH2 0x302 JUMPI PUSH1 0x40 DUP1 MLOAD SWAP1 DUP2 ADD PUSH1 0x40 MSTORE DUP1 PUSH1 0x1 DUP2 MSTORE PUSH1 0x20 ADD PUSH32 0x3000000000000000000000000000000000000000000000000000000000000000 DUP2 MSTORE POP SWAP5 POP PUSH2 0x402 JUMP JUMPDEST DUP6 SWAP4 POP JUMPDEST PUSH1 0x0 DUP5 EQ ISZERO ISZERO PUSH2 0x32C JUMPI DUP3 DUP1 PUSH1 0x1 ADD SWAP4 POP POP PUSH1 0xA DUP5 DUP2 ISZERO ISZERO PUSH2 0x324 JUMPI INVALID JUMPDEST DIV SWAP4 POP PUSH2 0x306 JUMP JUMPDEST DUP3 PUSH1 0x40 MLOAD SWAP1 DUP1 DUP3 MSTORE DUP1 PUSH1 0x1F ADD PUSH1 0x1F NOT AND PUSH1 0x20 ADD DUP3 ADD PUSH1 0x40 MSTORE DUP1 ISZERO PUSH2 0x35F JUMPI DUP2 PUSH1 0x20 ADD PUSH1 0x20 DUP3 MUL DUP1 CODESIZE DUP4 CODECOPY DUP1 DUP3 ADD SWAP2 POP POP SWAP1 POP JUMPDEST POP SWAP2 POP PUSH1 0x1 DUP4 SUB SWAP1 POP JUMPDEST PUSH1 0x0 DUP7 EQ ISZERO ISZERO PUSH2 0x3FE JUMPI PUSH1 0xA DUP7 DUP2 ISZERO ISZERO PUSH2 0x37F JUMPI INVALID JUMPDEST MOD PUSH1 0x30 ADD PUSH32 0x100000000000000000000000000000000000000000000000000000000000000 MUL DUP3 DUP3 DUP1 PUSH1 0x1 SWAP1 SUB SWAP4 POP DUP2 MLOAD DUP2 LT ISZERO ISZERO PUSH2 0x3BA JUMPI INVALID JUMPDEST SWAP1 PUSH1 0x20 ADD ADD SWAP1 PUSH31 0xFFFFFFFFFFFFFFFFFFFFFFFFFFFFFFFFFFFFFFFFFFFFFFFFFFFFFFFFFFFFFF NOT AND SWAP1 DUP2 PUSH1 0x0 BYTE SWAP1 MSTORE8 POP PUSH1 0xA DUP7 DUP2 ISZERO ISZERO PUSH2 0x3F6 JUMPI INVALID JUMPDEST DIV SWAP6 POP PUSH2 0x369 JUMP JUMPDEST DUP2 SWAP5 POP JUMPDEST POP POP POP POP SWAP2 SWAP1 POP JUMP STOP LOG1 PUSH6 0x627A7A723058 KECCAK256 0x5d 0xea SWAP5 0xa6 0xb4 0xe4 0x1e 0x4a SUB 0x2b PUSH18 0x9DAAD9AC2C86E3DA07A7AD952578C4AEEAA9 0xf7 0x24 MLOAD STOP 0x29 "
				},
				"gasEstimates": {
					"creation": {
						"codeDepositCost": "215800",
						"executionCost": "235341",
						"totalCost": "451141"
					},
					"external": {
						"ConsumerSlabPrice1(uint256)": "infinite",
						"ConsumerSlabPrice2(uint256)": "infinite",
						"totalCost(uint256,uint256)": "infinite"
					},
					"internal": {
						"integerToString(uint256)": "infinite"
					}
				},
				"methodIdentifiers": {
					"ConsumerSlabPrice1(uint256)": "61cb59ca",
					"ConsumerSlabPrice2(uint256)": "0911b4e0",
					"totalCost(uint256,uint256)": "066cf0df"
				}
			},
			"userdoc": {
				"methods": {}
			}
		}
	}
}