{
	"eth based/FLIR_Contract.sol": {
		"FLIRContract": {
			"abi": [
				{
					"constant": true,
					"inputs": [
						{
							"name": "cost1",
							"type": "uint256"
						},
						{
							"name": "cost2",
							"type": "uint256"
						}
					],
					"name": "totalCost",
					"outputs": [
						{
							"name": "",
							"type": "string"
						}
					],
					"payable": false,
					"stateMutability": "view",
					"type": "function"
				},
				{
					"constant": true,
					"inputs": [
						{
							"name": "Cimp2",
							"type": "uint256"
						}
					],
					"name": "ConsumerSlabPrice2",
					"outputs": [
						{
							"name": "",
							"type": "string"
						}
					],
					"payable": false,
					"stateMutability": "view",
					"type": "function"
				},
				{
					"constant": true,
					"inputs": [
						{
							"name": "Cimp1",
							"type": "uint256"
						}
					],
					"name": "ConsumerSlabPrice1",
					"outputs": [
						{
							"name": "cost1",
							"type": "uint256"
						},
						{
							"name": "",
							"type": "string"
						}
					],
					"payable": false,
					"stateMutability": "view",
					"type": "function"
				}
			],
			"devdoc": {
				"methods": {}
			},
			"evm": {
				"assembly": "    /* \"eth based/FLIR_Contract.sol\":91:1382  contract FLIRContract{... */\n  mstore(0x40, 0x80)\n    /* \"eth based/FLIR_Contract.sol\":128:129  5 */\n  0x5\n    /* \"eth based/FLIR_Contract.sol\":118:129  uint nP = 5 */\n  0x0\n  sstore\n    /* \"eth based/FLIR_Contract.sol\":145:146  3 */\n  0x3\n    /* \"eth based/FLIR_Contract.sol\":135:146  uint nC = 3 */\n  0x1\n  sstore\n    /* \"eth based/FLIR_Contract.sol\":164:165  3 */\n  0x3\n    /* \"eth based/FLIR_Contract.sol\":153:165  uint btp = 3 */\n  0x2\n  sstore\n    /* \"eth based/FLIR_Contract.sol\":184:185  3 */\n  0x3\n    /* \"eth based/FLIR_Contract.sol\":172:185  uint btc1 = 3 */\n  dup1\n  sstore\n    /* \"eth based/FLIR_Contract.sol\":203:204  4 */\n  0x4\n    /* \"eth based/FLIR_Contract.sol\":191:204  uint btc2 = 4 */\n  dup1\n  sstore\n    /* \"eth based/FLIR_Contract.sol\":222:223  5 */\n  0x5\n    /* \"eth based/FLIR_Contract.sol\":210:223  uint btc3 = 5 */\n  dup1\n  sstore\n    /* \"eth based/FLIR_Contract.sol\":241:242  6 */\n  0x6\n    /* \"eth based/FLIR_Contract.sol\":229:242  uint btc4 = 6 */\n  dup1\n  sstore\n    /* \"eth based/FLIR_Contract.sol\":260:261  7 */\n  0x7\n    /* \"eth based/FLIR_Contract.sol\":248:261  uint btc5 = 7 */\n  dup1\n  sstore\n    /* \"eth based/FLIR_Contract.sol\":279:280  8 */\n  0x8\n    /* \"eth based/FLIR_Contract.sol\":267:280  uint btc6 = 8 */\n  dup1\n  sstore\n    /* \"eth based/FLIR_Contract.sol\":298:299  9 */\n  0x9\n    /* \"eth based/FLIR_Contract.sol\":286:299  uint btc7 = 9 */\n  dup1\n  sstore\n    /* \"eth based/FLIR_Contract.sol\":317:319  10 */\n  0xa\n    /* \"eth based/FLIR_Contract.sol\":305:319  uint btc8 = 10 */\n  dup1\n  sstore\n    /* \"eth based/FLIR_Contract.sol\":339:340  0 */\n  0x0\n    /* \"eth based/FLIR_Contract.sol\":326:340  uint cost1 = 0 */\n  0xb\n  sstore\n    /* \"eth based/FLIR_Contract.sol\":359:360  0 */\n  0x0\n    /* \"eth based/FLIR_Contract.sol\":346:360  uint cost2 = 0 */\n  0xc\n  sstore\n    /* \"eth based/FLIR_Contract.sol\":379:380  0 */\n  0x0\n    /* \"eth based/FLIR_Contract.sol\":366:380  uint tCost = 0 */\n  0xd\n  sstore\n    /* \"eth based/FLIR_Contract.sol\":91:1382  contract FLIRContract{... */\n  callvalue\n    /* \"--CODEGEN--\":8:17   */\n  dup1\n    /* \"--CODEGEN--\":5:7   */\n  iszero\n  tag_1\n  jumpi\n    /* \"--CODEGEN--\":30:31   */\n  0x0\n    /* \"--CODEGEN--\":27:28   */\n  dup1\n    /* \"--CODEGEN--\":20:32   */\n  revert\n    /* \"--CODEGEN--\":5:7   */\ntag_1:\n    /* \"eth based/FLIR_Contract.sol\":91:1382  contract FLIRContract{... */\n  pop\n  dataSize(sub_0)\n  dup1\n  dataOffset(sub_0)\n  0x0\n  codecopy\n  0x0\n  return\nstop\n\nsub_0: assembly {\n        /* \"eth based/FLIR_Contract.sol\":91:1382  contract FLIRContract{... */\n      mstore(0x40, 0x80)\n      jumpi(tag_1, lt(calldatasize, 0x4))\n      calldataload(0x0)\n      0x100000000000000000000000000000000000000000000000000000000\n      swap1\n      div\n      0xffffffff\n      and\n      dup1\n      0x66cf0df\n      eq\n      tag_2\n      jumpi\n      dup1\n      0x911b4e0\n      eq\n      tag_3\n      jumpi\n      dup1\n      0x61cb59ca\n      eq\n      tag_4\n      jumpi\n    tag_1:\n      0x0\n      dup1\n      revert\n        /* \"eth based/FLIR_Contract.sol\":744:899  function totalCost(uint cost1, uint cost2)public view returns (string memory){... */\n    tag_2:\n      callvalue\n        /* \"--CODEGEN--\":8:17   */\n      dup1\n        /* \"--CODEGEN--\":5:7   */\n      iszero\n      tag_5\n      jumpi\n        /* \"--CODEGEN--\":30:31   */\n      0x0\n        /* \"--CODEGEN--\":27:28   */\n      dup1\n        /* \"--CODEGEN--\":20:32   */\n      revert\n        /* \"--CODEGEN--\":5:7   */\n    tag_5:\n        /* \"eth based/FLIR_Contract.sol\":744:899  function totalCost(uint cost1, uint cost2)public view returns (string memory){... */\n      pop\n      tag_6\n      0x4\n      dup1\n      calldatasize\n      sub\n      dup2\n      add\n      swap1\n      dup1\n      dup1\n      calldataload\n      swap1\n      0x20\n      add\n      swap1\n      swap3\n      swap2\n      swap1\n      dup1\n      calldataload\n      swap1\n      0x20\n      add\n      swap1\n      swap3\n      swap2\n      swap1\n      pop\n      pop\n      pop\n      jump(tag_7)\n    tag_6:\n      mload(0x40)\n      dup1\n      dup1\n      0x20\n      add\n      dup3\n      dup2\n      sub\n      dup3\n      mstore\n      dup4\n      dup2\n      dup2\n      mload\n      dup2\n      mstore\n      0x20\n      add\n      swap2\n      pop\n      dup1\n      mload\n      swap1\n      0x20\n      add\n      swap1\n      dup1\n      dup4\n      dup4\n        /* \"--CODEGEN--\":23:24   */\n      0x0\n        /* \"--CODEGEN--\":8:108   */\n    tag_8:\n        /* \"--CODEGEN--\":33:36   */\n      dup4\n        /* \"--CODEGEN--\":30:31   */\n      dup2\n        /* \"--CODEGEN--\":27:37   */\n      lt\n        /* \"--CODEGEN--\":8:108   */\n      iszero\n      tag_9\n      jumpi\n        /* \"--CODEGEN--\":99:100   */\n      dup1\n        /* \"--CODEGEN--\":94:97   */\n      dup3\n        /* \"--CODEGEN--\":90:101   */\n      add\n        /* \"--CODEGEN--\":84:102   */\n      mload\n        /* \"--CODEGEN--\":80:81   */\n      dup2\n        /* \"--CODEGEN--\":75:78   */\n      dup5\n        /* \"--CODEGEN--\":71:82   */\n      add\n        /* \"--CODEGEN--\":64:103   */\n      mstore\n        /* \"--CODEGEN--\":52:54   */\n      0x20\n        /* \"--CODEGEN--\":49:50   */\n      dup2\n        /* \"--CODEGEN--\":45:55   */\n      add\n        /* \"--CODEGEN--\":40:55   */\n      swap1\n      pop\n        /* \"--CODEGEN--\":8:108   */\n      jump(tag_8)\n    tag_9:\n        /* \"--CODEGEN--\":12:26   */\n      pop\n        /* \"eth based/FLIR_Contract.sol\":744:899  function totalCost(uint cost1, uint cost2)public view returns (string memory){... */\n      pop\n      pop\n      pop\n      swap1\n      pop\n      swap1\n      dup2\n      add\n      swap1\n      0x1f\n      and\n      dup1\n      iszero\n      tag_11\n      jumpi\n      dup1\n      dup3\n      sub\n      dup1\n      mload\n      0x1\n      dup4\n      0x20\n      sub\n      0x100\n      exp\n      sub\n      not\n      and\n      dup2\n      mstore\n      0x20\n      add\n      swap2\n      pop\n    tag_11:\n      pop\n      swap3\n      pop\n      pop\n      pop\n      mload(0x40)\n      dup1\n      swap2\n      sub\n      swap1\n      return\n        /* \"eth based/FLIR_Contract.sol\":588:738  function ConsumerSlabPrice2(uint Cimp2)public view returns (string memory){... */\n    tag_3:\n      callvalue\n        /* \"--CODEGEN--\":8:17   */\n      dup1\n        /* \"--CODEGEN--\":5:7   */\n      iszero\n      tag_12\n      jumpi\n        /* \"--CODEGEN--\":30:31   */\n      0x0\n        /* \"--CODEGEN--\":27:28   */\n      dup1\n        /* \"--CODEGEN--\":20:32   */\n      revert\n        /* \"--CODEGEN--\":5:7   */\n    tag_12:\n        /* \"eth based/FLIR_Contract.sol\":588:738  function ConsumerSlabPrice2(uint Cimp2)public view returns (string memory){... */\n      pop\n      tag_13\n      0x4\n      dup1\n      calldatasize\n      sub\n      dup2\n      add\n      swap1\n      dup1\n      dup1\n      calldataload\n      swap1\n      0x20\n      add\n      swap1\n      swap3\n      swap2\n      swap1\n      pop\n      pop\n      pop\n      jump(tag_14)\n    tag_13:\n      mload(0x40)\n      dup1\n      dup1\n      0x20\n      add\n      dup3\n      dup2\n      sub\n      dup3\n      mstore\n      dup4\n      dup2\n      dup2\n      mload\n      dup2\n      mstore\n      0x20\n      add\n      swap2\n      pop\n      dup1\n      mload\n      swap1\n      0x20\n      add\n      swap1\n      dup1\n      dup4\n      dup4\n        /* \"--CODEGEN--\":23:24   */\n      0x0\n        /* \"--CODEGEN--\":8:108   */\n    tag_15:\n        /* \"--CODEGEN--\":33:36   */\n      dup4\n        /* \"--CODEGEN--\":30:31   */\n      dup2\n        /* \"--CODEGEN--\":27:37   */\n      lt\n        /* \"--CODEGEN--\":8:108   */\n      iszero\n      tag_16\n      jumpi\n        /* \"--CODEGEN--\":99:100   */\n      dup1\n        /* \"--CODEGEN--\":94:97   */\n      dup3\n        /* \"--CODEGEN--\":90:101   */\n      add\n        /* \"--CODEGEN--\":84:102   */\n      mload\n        /* \"--CODEGEN--\":80:81   */\n      dup2\n        /* \"--CODEGEN--\":75:78   */\n      dup5\n        /* \"--CODEGEN--\":71:82   */\n      add\n        /* \"--CODEGEN--\":64:103   */\n      mstore\n        /* \"--CODEGEN--\":52:54   */\n      0x20\n        /* \"--CODEGEN--\":49:50   */\n      dup2\n        /* \"--CODEGEN--\":45:55   */\n      add\n        /* \"--CODEGEN--\":40:55   */\n      swap1\n      pop\n        /* \"--CODEGEN--\":8:108   */\n      jump(tag_15)\n    tag_16:\n        /* \"--CODEGEN--\":12:26   */\n      pop\n        /* \"eth based/FLIR_Contract.sol\":588:738  function ConsumerSlabPrice2(uint Cimp2)public view returns (string memory){... */\n      pop\n      pop\n      pop\n      swap1\n      pop\n      swap1\n      dup2\n      add\n      swap1\n      0x1f\n      and\n      dup1\n      iszero\n      tag_18\n      jumpi\n      dup1\n      dup3\n      sub\n      dup1\n      mload\n      0x1\n      dup4\n      0x20\n      sub\n      0x100\n      exp\n      sub\n      not\n      and\n      dup2\n      mstore\n      0x20\n      add\n      swap2\n      pop\n    tag_18:\n      pop\n      swap3\n      pop\n      pop\n      pop\n      mload(0x40)\n      dup1\n      swap2\n      sub\n      swap1\n      return\n        /* \"eth based/FLIR_Contract.sol\":411:582  function ConsumerSlabPrice1(uint Cimp1)public view returns (uint cost1, string memory){... */\n    tag_4:\n      callvalue\n        /* \"--CODEGEN--\":8:17   */\n      dup1\n        /* \"--CODEGEN--\":5:7   */\n      iszero\n      tag_19\n      jumpi\n        /* \"--CODEGEN--\":30:31   */\n      0x0\n        /* \"--CODEGEN--\":27:28   */\n      dup1\n        /* \"--CODEGEN--\":20:32   */\n      revert\n        /* \"--CODEGEN--\":5:7   */\n    tag_19:\n        /* \"eth based/FLIR_Contract.sol\":411:582  function ConsumerSlabPrice1(uint Cimp1)public view returns (uint cost1, string memory){... */\n      pop\n      tag_20\n      0x4\n      dup1\n      calldatasize\n      sub\n      dup2\n      add\n      swap1\n      dup1\n      dup1\n      calldataload\n      swap1\n      0x20\n      add\n      swap1\n      swap3\n      swap2\n      swap1\n      pop\n      pop\n      pop\n      jump(tag_21)\n    tag_20:\n      mload(0x40)\n      dup1\n      dup4\n      dup2\n      mstore\n      0x20\n      add\n      dup1\n      0x20\n      add\n      dup3\n      dup2\n      sub\n      dup3\n      mstore\n      dup4\n      dup2\n      dup2\n      mload\n      dup2\n      mstore\n      0x20\n      add\n      swap2\n      pop\n      dup1\n      mload\n      swap1\n      0x20\n      add\n      swap1\n      dup1\n      dup4\n      dup4\n        /* \"--CODEGEN--\":23:24   */\n      0x0\n        /* \"--CODEGEN--\":8:108   */\n    tag_22:\n        /* \"--CODEGEN--\":33:36   */\n      dup4\n        /* \"--CODEGEN--\":30:31   */\n      dup2\n        /* \"--CODEGEN--\":27:37   */\n      lt\n        /* \"--CODEGEN--\":8:108   */\n      iszero\n      tag_23\n      jumpi\n        /* \"--CODEGEN--\":99:100   */\n      dup1\n        /* \"--CODEGEN--\":94:97   */\n      dup3\n        /* \"--CODEGEN--\":90:101   */\n      add\n        /* \"--CODEGEN--\":84:102   */\n      mload\n        /* \"--CODEGEN--\":80:81   */\n      dup2\n        /* \"--CODEGEN--\":75:78   */\n      dup5\n        /* \"--CODEGEN--\":71:82   */\n      add\n        /* \"--CODEGEN--\":64:103   */\n      mstore\n        /* \"--CODEGEN--\":52:54   */\n      0x20\n        /* \"--CODEGEN--\":49:50   */\n      dup2\n        /* \"--CODEGEN--\":45:55   */\n      add\n        /* \"--CODEGEN--\":40:55   */\n      swap1\n      pop\n        /* \"--CODEGEN--\":8:108   */\n      jump(tag_22)\n    tag_23:\n        /* \"--CODEGEN--\":12:26   */\n      pop\n        /* \"eth based/FLIR_Contract.sol\":411:582  function ConsumerSlabPrice1(uint Cimp1)public view returns (uint cost1, string memory){... */\n      pop\n      pop\n      pop\n      swap1\n      pop\n      swap1\n      dup2\n      add\n      swap1\n      0x1f\n      and\n      dup1\n      iszero\n      tag_25\n      jumpi\n      dup1\n      dup3\n      sub\n      dup1\n      mload\n      0x1\n      dup4\n      0x20\n      sub\n      0x100\n      exp\n      sub\n      not\n      and\n      dup2\n      mstore\n      0x20\n      add\n      swap2\n      pop\n    tag_25:\n      pop\n      swap4\n      pop\n      pop\n      pop\n      pop\n      mload(0x40)\n      dup1\n      swap2\n      sub\n      swap1\n      return\n        /* \"eth based/FLIR_Contract.sol\":744:899  function totalCost(uint cost1, uint cost2)public view returns (string memory){... */\n    tag_7:\n        /* \"eth based/FLIR_Contract.sol\":807:813  string */\n      0x60\n        /* \"eth based/FLIR_Contract.sol\":847:852  cost2 */\n      dup2\n        /* \"eth based/FLIR_Contract.sol\":839:844  cost1 */\n      dup4\n        /* \"eth based/FLIR_Contract.sol\":839:852  cost1 + cost2 */\n      add\n        /* \"eth based/FLIR_Contract.sol\":831:836  tCost */\n      0xd\n        /* \"eth based/FLIR_Contract.sol\":831:852  tCost = cost1 + cost2 */\n      dup2\n      swap1\n      sstore\n      pop\n        /* \"eth based/FLIR_Contract.sol\":869:891  integerToString(tCost) */\n      tag_27\n        /* \"eth based/FLIR_Contract.sol\":885:890  tCost */\n      sload(0xd)\n        /* \"eth based/FLIR_Contract.sol\":869:884  integerToString */\n      tag_28\n        /* \"eth based/FLIR_Contract.sol\":869:891  integerToString(tCost) */\n      jump\t// in\n    tag_27:\n        /* \"eth based/FLIR_Contract.sol\":862:891  return integerToString(tCost) */\n      swap1\n      pop\n        /* \"eth based/FLIR_Contract.sol\":744:899  function totalCost(uint cost1, uint cost2)public view returns (string memory){... */\n      swap3\n      swap2\n      pop\n      pop\n      jump\t// out\n        /* \"eth based/FLIR_Contract.sol\":588:738  function ConsumerSlabPrice2(uint Cimp2)public view returns (string memory){... */\n    tag_14:\n        /* \"eth based/FLIR_Contract.sol\":648:654  string */\n      0x60\n        /* \"eth based/FLIR_Contract.sol\":688:692  btc1 */\n      sload(0x3)\n        /* \"eth based/FLIR_Contract.sol\":680:685  Cimp2 */\n      dup3\n        /* \"eth based/FLIR_Contract.sol\":680:692  Cimp2 * btc1 */\n      mul\n        /* \"eth based/FLIR_Contract.sol\":672:677  cost2 */\n      0xc\n        /* \"eth based/FLIR_Contract.sol\":672:692  cost2 = Cimp2 * btc1 */\n      dup2\n      swap1\n      sstore\n      pop\n        /* \"eth based/FLIR_Contract.sol\":709:731  integerToString(cost2) */\n      tag_30\n        /* \"eth based/FLIR_Contract.sol\":725:730  cost2 */\n      sload(0xc)\n        /* \"eth based/FLIR_Contract.sol\":709:724  integerToString */\n      tag_28\n        /* \"eth based/FLIR_Contract.sol\":709:731  integerToString(cost2) */\n      jump\t// in\n    tag_30:\n        /* \"eth based/FLIR_Contract.sol\":702:731  return integerToString(cost2) */\n      swap1\n      pop\n        /* \"eth based/FLIR_Contract.sol\":588:738  function ConsumerSlabPrice2(uint Cimp2)public view returns (string memory){... */\n      swap2\n      swap1\n      pop\n      jump\t// out\n        /* \"eth based/FLIR_Contract.sol\":411:582  function ConsumerSlabPrice1(uint Cimp1)public view returns (uint cost1, string memory){... */\n    tag_21:\n        /* \"eth based/FLIR_Contract.sol\":471:481  uint cost1 */\n      0x0\n        /* \"eth based/FLIR_Contract.sol\":483:489  string */\n      0x60\n        /* \"eth based/FLIR_Contract.sol\":523:527  btc1 */\n      sload(0x3)\n        /* \"eth based/FLIR_Contract.sol\":515:520  Cimp1 */\n      dup4\n        /* \"eth based/FLIR_Contract.sol\":515:527  Cimp1 * btc1 */\n      mul\n        /* \"eth based/FLIR_Contract.sol\":507:527  cost1 = Cimp1 * btc1 */\n      swap2\n      pop\n        /* \"eth based/FLIR_Contract.sol\":545:550  cost1 */\n      dup2\n        /* \"eth based/FLIR_Contract.sol\":552:574  integerToString(cost1) */\n      tag_32\n        /* \"eth based/FLIR_Contract.sol\":568:573  cost1 */\n      dup4\n        /* \"eth based/FLIR_Contract.sol\":552:567  integerToString */\n      tag_28\n        /* \"eth based/FLIR_Contract.sol\":552:574  integerToString(cost1) */\n      jump\t// in\n    tag_32:\n        /* \"eth based/FLIR_Contract.sol\":537:575  return (cost1, integerToString(cost1)) */\n      swap2\n      pop\n      swap2\n      pop\n        /* \"eth based/FLIR_Contract.sol\":411:582  function ConsumerSlabPrice1(uint Cimp1)public view returns (uint cost1, string memory){... */\n      swap2\n      pop\n      swap2\n      jump\t// out\n        /* \"eth based/FLIR_Contract.sol\":906:1377  function integerToString(uint _i) internal pure ... */\n    tag_28:\n        /* \"eth based/FLIR_Contract.sol\":970:976  string */\n      0x60\n        /* \"eth based/FLIR_Contract.sol\":1050:1056  uint j */\n      0x0\n        /* \"eth based/FLIR_Contract.sol\":1069:1077  uint len */\n      dup1\n        /* \"eth based/FLIR_Contract.sol\":1157:1174  bytes memory bstr */\n      0x60\n        /* \"eth based/FLIR_Contract.sol\":1199:1205  uint k */\n      0x0\n        /* \"eth based/FLIR_Contract.sol\":1010:1011  0 */\n      dup1\n        /* \"eth based/FLIR_Contract.sol\":1004:1006  _i */\n      dup7\n        /* \"eth based/FLIR_Contract.sol\":1004:1011  _i == 0 */\n      eq\n        /* \"eth based/FLIR_Contract.sol\":1000:1043  if (_i == 0) {... */\n      iszero\n      tag_34\n      jumpi\n        /* \"eth based/FLIR_Contract.sol\":1024:1034  return \"0\" */\n      0x40\n      dup1\n      mload\n      swap1\n      dup2\n      add\n      0x40\n      mstore\n      dup1\n      0x1\n      dup2\n      mstore\n      0x20\n      add\n      0x3000000000000000000000000000000000000000000000000000000000000000\n      dup2\n      mstore\n      pop\n      swap5\n      pop\n      jump(tag_33)\n        /* \"eth based/FLIR_Contract.sol\":1000:1043  if (_i == 0) {... */\n    tag_34:\n        /* \"eth based/FLIR_Contract.sol\":1059:1061  _i */\n      dup6\n        /* \"eth based/FLIR_Contract.sol\":1050:1061  uint j = _i */\n      swap4\n      pop\n        /* \"eth based/FLIR_Contract.sol\":1092:1150  while (j != 0) {... */\n    tag_35:\n        /* \"eth based/FLIR_Contract.sol\":1104:1105  0 */\n      0x0\n        /* \"eth based/FLIR_Contract.sol\":1099:1100  j */\n      dup5\n        /* \"eth based/FLIR_Contract.sol\":1099:1105  j != 0 */\n      eq\n      iszero\n        /* \"eth based/FLIR_Contract.sol\":1092:1150  while (j != 0) {... */\n      iszero\n      tag_36\n      jumpi\n        /* \"eth based/FLIR_Contract.sol\":1118:1123  len++ */\n      dup3\n      dup1\n      0x1\n      add\n      swap4\n      pop\n      pop\n        /* \"eth based/FLIR_Contract.sol\":1139:1141  10 */\n      0xa\n        /* \"eth based/FLIR_Contract.sol\":1134:1141  j /= 10 */\n      dup5\n      dup2\n      iszero\n      iszero\n      tag_37\n      jumpi\n      invalid\n    tag_37:\n      div\n      swap4\n      pop\n        /* \"eth based/FLIR_Contract.sol\":1092:1150  while (j != 0) {... */\n      jump(tag_35)\n    tag_36:\n        /* \"eth based/FLIR_Contract.sol\":1187:1190  len */\n      dup3\n        /* \"eth based/FLIR_Contract.sol\":1177:1191  new bytes(len) */\n      mload(0x40)\n      swap1\n      dup1\n      dup3\n      mstore\n      dup1\n      0x1f\n      add\n      not(0x1f)\n      and\n      0x20\n      add\n      dup3\n      add\n      0x40\n      mstore\n      dup1\n      iszero\n      tag_38\n      jumpi\n      dup2\n      0x20\n      add\n        /* \"--CODEGEN--\":29:31   */\n      0x20\n        /* \"--CODEGEN--\":21:27   */\n      dup3\n        /* \"--CODEGEN--\":17:32   */\n      mul\n        /* \"--CODEGEN--\":117:121   */\n      dup1\n        /* \"--CODEGEN--\":105:115   */\n      codesize\n        /* \"--CODEGEN--\":97:103   */\n      dup4\n        /* \"--CODEGEN--\":88:122   */\n      codecopy\n        /* \"--CODEGEN--\":148:152   */\n      dup1\n        /* \"--CODEGEN--\":140:146   */\n      dup3\n        /* \"--CODEGEN--\":136:153   */\n      add\n        /* \"--CODEGEN--\":126:153   */\n      swap2\n      pop\n        /* \"--CODEGEN--\":0:157   */\n      pop\n        /* \"eth based/FLIR_Contract.sol\":1177:1191  new bytes(len) */\n      swap1\n      pop\n    tag_38:\n      pop\n        /* \"eth based/FLIR_Contract.sol\":1157:1191  bytes memory bstr = new bytes(len) */\n      swap2\n      pop\n        /* \"eth based/FLIR_Contract.sol\":1214:1215  1 */\n      0x1\n        /* \"eth based/FLIR_Contract.sol\":1208:1211  len */\n      dup4\n        /* \"eth based/FLIR_Contract.sol\":1208:1215  len - 1 */\n      sub\n        /* \"eth based/FLIR_Contract.sol\":1199:1215  uint k = len - 1 */\n      swap1\n      pop\n        /* \"eth based/FLIR_Contract.sol\":1230:1322  while (_i != 0) {... */\n    tag_39:\n        /* \"eth based/FLIR_Contract.sol\":1243:1244  0 */\n      0x0\n        /* \"eth based/FLIR_Contract.sol\":1237:1239  _i */\n      dup7\n        /* \"eth based/FLIR_Contract.sol\":1237:1244  _i != 0 */\n      eq\n      iszero\n        /* \"eth based/FLIR_Contract.sol\":1230:1322  while (_i != 0) {... */\n      iszero\n      tag_40\n      jumpi\n        /* \"eth based/FLIR_Contract.sol\":1290:1292  10 */\n      0xa\n        /* \"eth based/FLIR_Contract.sol\":1285:1287  _i */\n      dup7\n        /* \"eth based/FLIR_Contract.sol\":1285:1292  _i % 10 */\n      dup2\n      iszero\n      iszero\n      tag_41\n      jumpi\n      invalid\n    tag_41:\n      mod\n        /* \"eth based/FLIR_Contract.sol\":1280:1282  48 */\n      0x30\n        /* \"eth based/FLIR_Contract.sol\":1280:1292  48 + _i % 10 */\n      add\n        /* \"eth based/FLIR_Contract.sol\":1269:1294  byte(uint8(48 + _i % 10)) */\n      0x100000000000000000000000000000000000000000000000000000000000000\n      mul\n        /* \"eth based/FLIR_Contract.sol\":1257:1261  bstr */\n      dup3\n        /* \"eth based/FLIR_Contract.sol\":1262:1265  k-- */\n      dup3\n      dup1\n      0x1\n      swap1\n      sub\n      swap4\n      pop\n        /* \"eth based/FLIR_Contract.sol\":1257:1266  bstr[k--] */\n      dup2\n      mload\n      dup2\n      lt\n      iszero\n      iszero\n      tag_42\n      jumpi\n      invalid\n    tag_42:\n      swap1\n      0x20\n      add\n      add\n        /* \"eth based/FLIR_Contract.sol\":1257:1294  bstr[k--] = byte(uint8(48 + _i % 10)) */\n      swap1\n      not(0xffffffffffffffffffffffffffffffffffffffffffffffffffffffffffffff)\n      and\n      swap1\n      dup2\n      0x0\n      byte\n      swap1\n      mstore8\n      pop\n        /* \"eth based/FLIR_Contract.sol\":1311:1313  10 */\n      0xa\n        /* \"eth based/FLIR_Contract.sol\":1305:1313  _i /= 10 */\n      dup7\n      dup2\n      iszero\n      iszero\n      tag_43\n      jumpi\n      invalid\n    tag_43:\n      div\n      swap6\n      pop\n        /* \"eth based/FLIR_Contract.sol\":1230:1322  while (_i != 0) {... */\n      jump(tag_39)\n    tag_40:\n        /* \"eth based/FLIR_Contract.sol\":1343:1347  bstr */\n      dup2\n        /* \"eth based/FLIR_Contract.sol\":1329:1348  return string(bstr) */\n      swap5\n      pop\n        /* \"eth based/FLIR_Contract.sol\":906:1377  function integerToString(uint _i) internal pure ... */\n    tag_33:\n      pop\n      pop\n      pop\n      pop\n      swap2\n      swap1\n      pop\n      jump\t// out\n\n    auxdata: 0xa165627a7a7230582051374b8714a39ae30e3b4d9e517733b36484706ad586ecaf73ddc29f5053129a0029\n}\n",
				"bytecode": {
					"linkReferences": {},
					"object": "608060405260056000556003600155600360025560038055600480556005805560068055600780556008805560098055600a80556000600b556000600c556000600d5534801561004e57600080fd5b5061043d8061005e6000396000f300608060405260043610610057576000357c0100000000000000000000000000000000000000000000000000000000900463ffffffff168063066cf0df1461005c5780630911b4e01461010c57806361cb59ca146101b2575b600080fd5b34801561006857600080fd5b50610091600480360381019080803590602001909291908035906020019092919050505061025f565b6040518080602001828103825283818151815260200191508051906020019080838360005b838110156100d15780820151818401526020810190506100b6565b50505050905090810190601f1680156100fe5780820380516001836020036101000a031916815260200191505b509250505060405180910390f35b34801561011857600080fd5b506101376004803603810190808035906020019092919050505061027d565b6040518080602001828103825283818151815260200191508051906020019080838360005b8381101561017757808201518184015260208101905061015c565b50505050905090810190601f1680156101a45780820380516001836020036101000a031916815260200191505b509250505060405180910390f35b3480156101be57600080fd5b506101dd6004803603810190808035906020019092919050505061029c565b6040518083815260200180602001828103825283818151815260200191508051906020019080838360005b83811015610223578082015181840152602081019050610208565b50505050905090810190601f1680156102505780820380516001836020036101000a031916815260200191505b50935050505060405180910390f35b6060818301600d81905550610275600d546102ba565b905092915050565b60606003548202600c81905550610295600c546102ba565b9050919050565b6000606060035483029150816102b1836102ba565b91509150915091565b60606000806060600080861415610308576040805190810160405280600181526020017f30000000000000000000000000000000000000000000000000000000000000008152509450610408565b8593505b600084141515610332578280600101935050600a8481151561032a57fe5b04935061030c565b826040519080825280601f01601f1916602001820160405280156103655781602001602082028038833980820191505090505b5091506001830390505b60008614151561040457600a8681151561038557fe5b066030017f0100000000000000000000000000000000000000000000000000000000000000028282806001900393508151811015156103c057fe5b9060200101907effffffffffffffffffffffffffffffffffffffffffffffffffffffffffffff1916908160001a905350600a868115156103fc57fe5b04955061036f565b8194505b505050509190505600a165627a7a7230582051374b8714a39ae30e3b4d9e517733b36484706ad586ecaf73ddc29f5053129a0029",
					"opcodes": "PUSH1 0x80 PUSH1 0x40 MSTORE PUSH1 0x5 PUSH1 0x0 SSTORE PUSH1 0x3 PUSH1 0x1 SSTORE PUSH1 0x3 PUSH1 0x2 SSTORE PUSH1 0x3 DUP1 SSTORE PUSH1 0x4 DUP1 SSTORE PUSH1 0x5 DUP1 SSTORE PUSH1 0x6 DUP1 SSTORE PUSH1 0x7 DUP1 SSTORE PUSH1 0x8 DUP1 SSTORE PUSH1 0x9 DUP1 SSTORE PUSH1 0xA DUP1 SSTORE PUSH1 0x0 PUSH1 0xB SSTORE PUSH1 0x0 PUSH1 0xC SSTORE PUSH1 0x0 PUSH1 0xD SSTORE CALLVALUE DUP1 ISZERO PUSH2 0x4E JUMPI PUSH1 0x0 DUP1 REVERT JUMPDEST POP PUSH2 0x43D DUP1 PUSH2 0x5E PUSH1 0x0 CODECOPY PUSH1 0x0 RETURN STOP PUSH1 0x80 PUSH1 0x40 MSTORE PUSH1 0x4 CALLDATASIZE LT PUSH2 0x57 JUMPI PUSH1 0x0 CALLDATALOAD PUSH29 0x100000000000000000000000000000000000000000000000000000000 SWAP1 DIV PUSH4 0xFFFFFFFF AND DUP1 PUSH4 0x66CF0DF EQ PUSH2 0x5C JUMPI DUP1 PUSH4 0x911B4E0 EQ PUSH2 0x10C JUMPI DUP1 PUSH4 0x61CB59CA EQ PUSH2 0x1B2 JUMPI JUMPDEST PUSH1 0x0 DUP1 REVERT JUMPDEST CALLVALUE DUP1 ISZERO PUSH2 0x68 JUMPI PUSH1 0x0 DUP1 REVERT JUMPDEST POP PUSH2 0x91 PUSH1 0x4 DUP1 CALLDATASIZE SUB DUP2 ADD SWAP1 DUP1 DUP1 CALLDATALOAD SWAP1 PUSH1 0x20 ADD SWAP1 SWAP3 SWAP2 SWAP1 DUP1 CALLDATALOAD SWAP1 PUSH1 0x20 ADD SWAP1 SWAP3 SWAP2 SWAP1 POP POP POP PUSH2 0x25F JUMP JUMPDEST PUSH1 0x40 MLOAD DUP1 DUP1 PUSH1 0x20 ADD DUP3 DUP2 SUB DUP3 MSTORE DUP4 DUP2 DUP2 MLOAD DUP2 MSTORE PUSH1 0x20 ADD SWAP2 POP DUP1 MLOAD SWAP1 PUSH1 0x20 ADD SWAP1 DUP1 DUP4 DUP4 PUSH1 0x0 JUMPDEST DUP4 DUP2 LT ISZERO PUSH2 0xD1 JUMPI DUP1 DUP3 ADD MLOAD DUP2 DUP5 ADD MSTORE PUSH1 0x20 DUP2 ADD SWAP1 POP PUSH2 0xB6 JUMP JUMPDEST POP POP POP POP SWAP1 POP SWAP1 DUP2 ADD SWAP1 PUSH1 0x1F AND DUP1 ISZERO PUSH2 0xFE JUMPI DUP1 DUP3 SUB DUP1 MLOAD PUSH1 0x1 DUP4 PUSH1 0x20 SUB PUSH2 0x100 EXP SUB NOT AND DUP2 MSTORE PUSH1 0x20 ADD SWAP2 POP JUMPDEST POP SWAP3 POP POP POP PUSH1 0x40 MLOAD DUP1 SWAP2 SUB SWAP1 RETURN JUMPDEST CALLVALUE DUP1 ISZERO PUSH2 0x118 JUMPI PUSH1 0x0 DUP1 REVERT JUMPDEST POP PUSH2 0x137 PUSH1 0x4 DUP1 CALLDATASIZE SUB DUP2 ADD SWAP1 DUP1 DUP1 CALLDATALOAD SWAP1 PUSH1 0x20 ADD SWAP1 SWAP3 SWAP2 SWAP1 POP POP POP PUSH2 0x27D JUMP JUMPDEST PUSH1 0x40 MLOAD DUP1 DUP1 PUSH1 0x20 ADD DUP3 DUP2 SUB DUP3 MSTORE DUP4 DUP2 DUP2 MLOAD DUP2 MSTORE PUSH1 0x20 ADD SWAP2 POP DUP1 MLOAD SWAP1 PUSH1 0x20 ADD SWAP1 DUP1 DUP4 DUP4 PUSH1 0x0 JUMPDEST DUP4 DUP2 LT ISZERO PUSH2 0x177 JUMPI DUP1 DUP3 ADD MLOAD DUP2 DUP5 ADD MSTORE PUSH1 0x20 DUP2 ADD SWAP1 POP PUSH2 0x15C JUMP JUMPDEST POP POP POP POP SWAP1 POP SWAP1 DUP2 ADD SWAP1 PUSH1 0x1F AND DUP1 ISZERO PUSH2 0x1A4 JUMPI DUP1 DUP3 SUB DUP1 MLOAD PUSH1 0x1 DUP4 PUSH1 0x20 SUB PUSH2 0x100 EXP SUB NOT AND DUP2 MSTORE PUSH1 0x20 ADD SWAP2 POP JUMPDEST POP SWAP3 POP POP POP PUSH1 0x40 MLOAD DUP1 SWAP2 SUB SWAP1 RETURN JUMPDEST CALLVALUE DUP1 ISZERO PUSH2 0x1BE JUMPI PUSH1 0x0 DUP1 REVERT JUMPDEST POP PUSH2 0x1DD PUSH1 0x4 DUP1 CALLDATASIZE SUB DUP2 ADD SWAP1 DUP1 DUP1 CALLDATALOAD SWAP1 PUSH1 0x20 ADD SWAP1 SWAP3 SWAP2 SWAP1 POP POP POP PUSH2 0x29C JUMP JUMPDEST PUSH1 0x40 MLOAD DUP1 DUP4 DUP2 MSTORE PUSH1 0x20 ADD DUP1 PUSH1 0x20 ADD DUP3 DUP2 SUB DUP3 MSTORE DUP4 DUP2 DUP2 MLOAD DUP2 MSTORE PUSH1 0x20 ADD SWAP2 POP DUP1 MLOAD SWAP1 PUSH1 0x20 ADD SWAP1 DUP1 DUP4 DUP4 PUSH1 0x0 JUMPDEST DUP4 DUP2 LT ISZERO PUSH2 0x223 JUMPI DUP1 DUP3 ADD MLOAD DUP2 DUP5 ADD MSTORE PUSH1 0x20 DUP2 ADD SWAP1 POP PUSH2 0x208 JUMP JUMPDEST POP POP POP POP SWAP1 POP SWAP1 DUP2 ADD SWAP1 PUSH1 0x1F AND DUP1 ISZERO PUSH2 0x250 JUMPI DUP1 DUP3 SUB DUP1 MLOAD PUSH1 0x1 DUP4 PUSH1 0x20 SUB PUSH2 0x100 EXP SUB NOT AND DUP2 MSTORE PUSH1 0x20 ADD SWAP2 POP JUMPDEST POP SWAP4 POP POP POP POP PUSH1 0x40 MLOAD DUP1 SWAP2 SUB SWAP1 RETURN JUMPDEST PUSH1 0x60 DUP2 DUP4 ADD PUSH1 0xD DUP2 SWAP1 SSTORE POP PUSH2 0x275 PUSH1 0xD SLOAD PUSH2 0x2BA JUMP JUMPDEST SWAP1 POP SWAP3 SWAP2 POP POP JUMP JUMPDEST PUSH1 0x60 PUSH1 0x3 SLOAD DUP3 MUL PUSH1 0xC DUP2 SWAP1 SSTORE POP PUSH2 0x295 PUSH1 0xC SLOAD PUSH2 0x2BA JUMP JUMPDEST SWAP1 POP SWAP2 SWAP1 POP JUMP JUMPDEST PUSH1 0x0 PUSH1 0x60 PUSH1 0x3 SLOAD DUP4 MUL SWAP2 POP DUP2 PUSH2 0x2B1 DUP4 PUSH2 0x2BA JUMP JUMPDEST SWAP2 POP SWAP2 POP SWAP2 POP SWAP2 JUMP JUMPDEST PUSH1 0x60 PUSH1 0x0 DUP1 PUSH1 0x60 PUSH1 0x0 DUP1 DUP7 EQ ISZERO PUSH2 0x308 JUMPI PUSH1 0x40 DUP1 MLOAD SWAP1 DUP2 ADD PUSH1 0x40 MSTORE DUP1 PUSH1 0x1 DUP2 MSTORE PUSH1 0x20 ADD PUSH32 0x3000000000000000000000000000000000000000000000000000000000000000 DUP2 MSTORE POP SWAP5 POP PUSH2 0x408 JUMP JUMPDEST DUP6 SWAP4 POP JUMPDEST PUSH1 0x0 DUP5 EQ ISZERO ISZERO PUSH2 0x332 JUMPI DUP3 DUP1 PUSH1 0x1 ADD SWAP4 POP POP PUSH1 0xA DUP5 DUP2 ISZERO ISZERO PUSH2 0x32A JUMPI INVALID JUMPDEST DIV SWAP4 POP PUSH2 0x30C JUMP JUMPDEST DUP3 PUSH1 0x40 MLOAD SWAP1 DUP1 DUP3 MSTORE DUP1 PUSH1 0x1F ADD PUSH1 0x1F NOT AND PUSH1 0x20 ADD DUP3 ADD PUSH1 0x40 MSTORE DUP1 ISZERO PUSH2 0x365 JUMPI DUP2 PUSH1 0x20 ADD PUSH1 0x20 DUP3 MUL DUP1 CODESIZE DUP4 CODECOPY DUP1 DUP3 ADD SWAP2 POP POP SWAP1 POP JUMPDEST POP SWAP2 POP PUSH1 0x1 DUP4 SUB SWAP1 POP JUMPDEST PUSH1 0x0 DUP7 EQ ISZERO ISZERO PUSH2 0x404 JUMPI PUSH1 0xA DUP7 DUP2 ISZERO ISZERO PUSH2 0x385 JUMPI INVALID JUMPDEST MOD PUSH1 0x30 ADD PUSH32 0x100000000000000000000000000000000000000000000000000000000000000 MUL DUP3 DUP3 DUP1 PUSH1 0x1 SWAP1 SUB SWAP4 POP DUP2 MLOAD DUP2 LT ISZERO ISZERO PUSH2 0x3C0 JUMPI INVALID JUMPDEST SWAP1 PUSH1 0x20 ADD ADD SWAP1 PUSH31 0xFFFFFFFFFFFFFFFFFFFFFFFFFFFFFFFFFFFFFFFFFFFFFFFFFFFFFFFFFFFFFF NOT AND SWAP1 DUP2 PUSH1 0x0 BYTE SWAP1 MSTORE8 POP PUSH1 0xA DUP7 DUP2 ISZERO ISZERO PUSH2 0x3FC JUMPI INVALID JUMPDEST DIV SWAP6 POP PUSH2 0x36F JUMP JUMPDEST DUP2 SWAP5 POP JUMPDEST POP POP POP POP SWAP2 SWAP1 POP JUMP STOP LOG1 PUSH6 0x627A7A723058 KECCAK256 MLOAD CALLDATACOPY 0x4b DUP8 EQ LOG3 SWAP11 0xe3 0xe EXTCODESIZE 0x4d SWAP15 MLOAD PUSH24 0x33B36484706AD586ECAF73DDC29F5053129A002900000000 "
				},
				"gasEstimates": {
					"creation": {
						"codeDepositCost": "217000",
						"executionCost": "235341",
						"totalCost": "452341"
					},
					"external": {
						"ConsumerSlabPrice1(uint256)": "infinite",
						"ConsumerSlabPrice2(uint256)": "infinite",
						"totalCost(uint256,uint256)": "infinite"
					},
					"internal": {
						"integerToString(uint256)": "infinite"
					}
				},
				"methodIdentifiers": {
					"ConsumerSlabPrice1(uint256)": "61cb59ca",
					"ConsumerSlabPrice2(uint256)": "0911b4e0",
					"totalCost(uint256,uint256)": "066cf0df"
				}
			},
			"userdoc": {
				"methods": {}
			}
		}
	}
}