{
	"eth based/FLIR_Contract.sol": {
		"FLIRContract": {
			"abi": [
				{
					"constant": false,
					"inputs": [
						{
							"name": "nPget",
							"type": "uint256"
						},
						{
							"name": "nCget",
							"type": "uint256"
						}
					],
					"name": "getnPnC",
					"outputs": [],
					"payable": false,
					"stateMutability": "nonpayable",
					"type": "function"
				}
			],
			"devdoc": {
				"methods": {}
			},
			"evm": {
				"assembly": "    /* \"eth based/FLIR_Contract.sol\":91:2017  contract FLIRContract{... */\n  mstore(0x40, 0x80)\n  callvalue\n    /* \"--CODEGEN--\":8:17   */\n  dup1\n    /* \"--CODEGEN--\":5:7   */\n  iszero\n  tag_1\n  jumpi\n    /* \"--CODEGEN--\":30:31   */\n  0x0\n    /* \"--CODEGEN--\":27:28   */\n  dup1\n    /* \"--CODEGEN--\":20:32   */\n  revert\n    /* \"--CODEGEN--\":5:7   */\ntag_1:\n    /* \"eth based/FLIR_Contract.sol\":91:2017  contract FLIRContract{... */\n  pop\n  dataSize(sub_0)\n  dup1\n  dataOffset(sub_0)\n  0x0\n  codecopy\n  0x0\n  return\nstop\n\nsub_0: assembly {\n        /* \"eth based/FLIR_Contract.sol\":91:2017  contract FLIRContract{... */\n      mstore(0x40, 0x80)\n      jumpi(tag_1, lt(calldatasize, 0x4))\n      calldataload(0x0)\n      0x100000000000000000000000000000000000000000000000000000000\n      swap1\n      div\n      0xffffffff\n      and\n      dup1\n      0x3dcc4ce5\n      eq\n      tag_2\n      jumpi\n    tag_1:\n      0x0\n      dup1\n      revert\n        /* \"eth based/FLIR_Contract.sol\":587:789  function getnPnC(uint nPget, uint nCget) public{... */\n    tag_2:\n      callvalue\n        /* \"--CODEGEN--\":8:17   */\n      dup1\n        /* \"--CODEGEN--\":5:7   */\n      iszero\n      tag_3\n      jumpi\n        /* \"--CODEGEN--\":30:31   */\n      0x0\n        /* \"--CODEGEN--\":27:28   */\n      dup1\n        /* \"--CODEGEN--\":20:32   */\n      revert\n        /* \"--CODEGEN--\":5:7   */\n    tag_3:\n        /* \"eth based/FLIR_Contract.sol\":587:789  function getnPnC(uint nPget, uint nCget) public{... */\n      pop\n      tag_4\n      0x4\n      dup1\n      calldatasize\n      sub\n      dup2\n      add\n      swap1\n      dup1\n      dup1\n      calldataload\n      swap1\n      0x20\n      add\n      swap1\n      swap3\n      swap2\n      swap1\n      dup1\n      calldataload\n      swap1\n      0x20\n      add\n      swap1\n      swap3\n      swap2\n      swap1\n      pop\n      pop\n      pop\n      jump(tag_5)\n    tag_4:\n      stop\n    tag_5:\n        /* \"eth based/FLIR_Contract.sol\":658:663  nPget */\n      dup2\n        /* \"eth based/FLIR_Contract.sol\":653:655  nP */\n      0x2\n        /* \"eth based/FLIR_Contract.sol\":653:663  nP = nPget */\n      dup2\n      swap1\n      sstore\n      pop\n        /* \"eth based/FLIR_Contract.sol\":678:683  nCget */\n      dup1\n        /* \"eth based/FLIR_Contract.sol\":673:675  nC */\n      0x3\n        /* \"eth based/FLIR_Contract.sol\":673:683  nC = nCget */\n      dup2\n      swap1\n      sstore\n      pop\n        /* \"eth based/FLIR_Contract.sol\":693:718  console.log(\"NP = %s\",nP) */\n      tag_7\n      0x40\n      dup1\n      mload\n      swap1\n      dup2\n      add\n      0x40\n      mstore\n      dup1\n      0x7\n      dup2\n      mstore\n      0x20\n      add\n      0x4e50203d20257300000000000000000000000000000000000000000000000000\n      dup2\n      mstore\n      pop\n        /* \"eth based/FLIR_Contract.sol\":715:717  nP */\n      sload(0x2)\n        /* \"eth based/FLIR_Contract.sol\":693:704  console.log */\n      tag_8\n        /* \"eth based/FLIR_Contract.sol\":693:718  console.log(\"NP = %s\",nP) */\n      jump\t// in\n    tag_7:\n        /* \"eth based/FLIR_Contract.sol\":728:753  console.log(\"NC = %s\",nC) */\n      tag_9\n      0x40\n      dup1\n      mload\n      swap1\n      dup2\n      add\n      0x40\n      mstore\n      dup1\n      0x7\n      dup2\n      mstore\n      0x20\n      add\n      0x4e43203d20257300000000000000000000000000000000000000000000000000\n      dup2\n      mstore\n      pop\n        /* \"eth based/FLIR_Contract.sol\":750:752  nC */\n      sload(0x3)\n        /* \"eth based/FLIR_Contract.sol\":728:739  console.log */\n      tag_8\n        /* \"eth based/FLIR_Contract.sol\":728:753  console.log(\"NC = %s\",nC) */\n      jump\t// in\n    tag_9:\n        /* \"eth based/FLIR_Contract.sol\":587:789  function getnPnC(uint nPget, uint nCget) public{... */\n      pop\n      pop\n      jump\t// out\n        /* \"hardhat/console.sol\":5888:6018  function log(string memory p0, uint p1) internal view {... */\n    tag_8:\n        /* \"hardhat/console.sol\":5946:6014  _sendLogPayload(abi.encodeWithSignature(\"log(string,uint)\", p0, p1)) */\n      tag_11\n        /* \"hardhat/console.sol\":6006:6008  p0 */\n      dup3\n        /* \"hardhat/console.sol\":6010:6012  p1 */\n      dup3\n        /* \"hardhat/console.sol\":5962:6013  abi.encodeWithSignature(\"log(string,uint)\", p0, p1) */\n      add(0x24, mload(0x40))\n      dup1\n      dup1\n      0x20\n      add\n      dup4\n      dup2\n      mstore\n      0x20\n      add\n      dup3\n      dup2\n      sub\n      dup3\n      mstore\n      dup5\n      dup2\n      dup2\n      mload\n      dup2\n      mstore\n      0x20\n      add\n      swap2\n      pop\n      dup1\n      mload\n      swap1\n      0x20\n      add\n      swap1\n      dup1\n      dup4\n      dup4\n        /* \"--CODEGEN--\":23:24   */\n      0x0\n        /* \"--CODEGEN--\":8:108   */\n    tag_12:\n        /* \"--CODEGEN--\":33:36   */\n      dup4\n        /* \"--CODEGEN--\":30:31   */\n      dup2\n        /* \"--CODEGEN--\":27:37   */\n      lt\n        /* \"--CODEGEN--\":8:108   */\n      iszero\n      tag_13\n      jumpi\n        /* \"--CODEGEN--\":99:100   */\n      dup1\n        /* \"--CODEGEN--\":94:97   */\n      dup3\n        /* \"--CODEGEN--\":90:101   */\n      add\n        /* \"--CODEGEN--\":84:102   */\n      mload\n        /* \"--CODEGEN--\":80:81   */\n      dup2\n        /* \"--CODEGEN--\":75:78   */\n      dup5\n        /* \"--CODEGEN--\":71:82   */\n      add\n        /* \"--CODEGEN--\":64:103   */\n      mstore\n        /* \"--CODEGEN--\":52:54   */\n      0x20\n        /* \"--CODEGEN--\":49:50   */\n      dup2\n        /* \"--CODEGEN--\":45:55   */\n      add\n        /* \"--CODEGEN--\":40:55   */\n      swap1\n      pop\n        /* \"--CODEGEN--\":8:108   */\n      jump(tag_12)\n    tag_13:\n        /* \"--CODEGEN--\":12:26   */\n      pop\n        /* \"hardhat/console.sol\":5962:6013  abi.encodeWithSignature(\"log(string,uint)\", p0, p1) */\n      pop\n      pop\n      pop\n      swap1\n      pop\n      swap1\n      dup2\n      add\n      swap1\n      0x1f\n      and\n      dup1\n      iszero\n      tag_15\n      jumpi\n      dup1\n      dup3\n      sub\n      dup1\n      mload\n      0x1\n      dup4\n      0x20\n      sub\n      0x100\n      exp\n      sub\n      not\n      and\n      dup2\n      mstore\n      0x20\n      add\n      swap2\n      pop\n    tag_15:\n      pop\n      swap4\n      pop\n      pop\n      pop\n      pop\n      mload(0x40)\n        /* \"--CODEGEN--\":49:53   */\n      0x20\n        /* \"--CODEGEN--\":39:46   */\n      dup2\n        /* \"--CODEGEN--\":30:37   */\n      dup4\n        /* \"--CODEGEN--\":26:47   */\n      sub\n        /* \"--CODEGEN--\":22:54   */\n      sub\n        /* \"--CODEGEN--\":13:20   */\n      dup2\n        /* \"--CODEGEN--\":6:55   */\n      mstore\n        /* \"hardhat/console.sol\":5962:6013  abi.encodeWithSignature(\"log(string,uint)\", p0, p1) */\n      swap1\n      0x40\n      mstore\n      and(not(0xffffffffffffffffffffffffffffffffffffffffffffffffffffffff), 0x9710a9d000000000000000000000000000000000000000000000000000000000)\n        /* \"--CODEGEN--\":38:42   */\n      0x20\n        /* \"--CODEGEN--\":29:36   */\n      dup3\n        /* \"--CODEGEN--\":25:43   */\n      add\n        /* \"--CODEGEN--\":67:77   */\n      dup1\n        /* \"--CODEGEN--\":61:78   */\n      mload\n        /* \"--CODEGEN--\":96:154   */\n      0xffffffffffffffffffffffffffffffffffffffffffffffffffffffff\n        /* \"--CODEGEN--\":199:207   */\n      dup4\n        /* \"--CODEGEN--\":192:196   */\n      dup2\n        /* \"--CODEGEN--\":186:190   */\n      dup4\n        /* \"--CODEGEN--\":182:197   */\n      and\n        /* \"--CODEGEN--\":179:208   */\n      or\n        /* \"--CODEGEN--\":167:177   */\n      dup4\n        /* \"--CODEGEN--\":160:209   */\n      mstore\n        /* \"--CODEGEN--\":0:215   */\n      pop\n      pop\n      pop\n        /* \"hardhat/console.sol\":5962:6013  abi.encodeWithSignature(\"log(string,uint)\", p0, p1) */\n      pop\n        /* \"hardhat/console.sol\":5946:5961  _sendLogPayload */\n      tag_16\n        /* \"hardhat/console.sol\":5946:6014  _sendLogPayload(abi.encodeWithSignature(\"log(string,uint)\", p0, p1)) */\n      jump\t// in\n    tag_11:\n        /* \"hardhat/console.sol\":5888:6018  function log(string memory p0, uint p1) internal view {... */\n      pop\n      pop\n      jump\t// out\n        /* \"hardhat/console.sol\":176:464  function _sendLogPayload(bytes memory payload) private view {... */\n    tag_16:\n        /* \"hardhat/console.sol\":240:261  uint256 payloadLength */\n      0x0\n        /* \"hardhat/console.sol\":282:304  address consoleAddress */\n      dup1\n        /* \"hardhat/console.sol\":264:271  payload */\n      dup3\n        /* \"hardhat/console.sol\":264:278  payload.length */\n      mload\n        /* \"hardhat/console.sol\":240:278  uint256 payloadLength = payload.length */\n      swap2\n      pop\n        /* \"hardhat/console.sol\":129:171  0x000000000000000000636F6e736F6c652e6c6f67 */\n      0x636f6e736f6c652e6c6f67\n        /* \"hardhat/console.sol\":282:322  address consoleAddress = CONSOLE_ADDRESS */\n      swap1\n      pop\n        /* \"hardhat/console.sol\":373:375  32 */\n      0x20\n        /* \"hardhat/console.sol\":364:371  payload */\n      dup4\n        /* \"hardhat/console.sol\":360:376  add(payload, 32) */\n      add\n        /* \"hardhat/console.sol\":455:456  0 */\n      0x0\n        /* \"hardhat/console.sol\":452:453  0 */\n      dup1\n        /* \"hardhat/console.sol\":437:450  payloadLength */\n      dup5\n        /* \"hardhat/console.sol\":423:435  payloadStart */\n      dup4\n        /* \"hardhat/console.sol\":407:421  consoleAddress */\n      dup6\n        /* \"hardhat/console.sol\":400:405  gas() */\n      gas\n        /* \"hardhat/console.sol\":389:457  staticcall(gas(), consoleAddress, payloadStart, payloadLength, 0, 0) */\n      staticcall\n        /* \"hardhat/console.sol\":335:461  {... */\n      pop\n      pop\n      pop\n      pop\n      pop\n      jump\t// out\n\n    auxdata: 0xa165627a7a72305820e19fbb3440b7e53c354cd1a471fde8431af8fda38f47ee8ef23068e77d1d1cfb0029\n}\n",
				"bytecode": {
					"linkReferences": {},
					"object": "608060405234801561001057600080fd5b5061026c806100206000396000f300608060405260043610610041576000357c0100000000000000000000000000000000000000000000000000000000900463ffffffff1680633dcc4ce514610046575b600080fd5b34801561005257600080fd5b5061007b600480360381019080803590602001909291908035906020019092919050505061007d565b005b81600281905550806003819055506100cc6040805190810160405280600781526020017f4e50203d20257300000000000000000000000000000000000000000000000000815250600254610111565b61010d6040805190810160405280600781526020017f4e43203d20257300000000000000000000000000000000000000000000000000815250600354610111565b5050565b61021482826040516024018080602001838152602001828103825284818151815260200191508051906020019080838360005b8381101561015f578082015181840152602081019050610144565b50505050905090810190601f16801561018c5780820380516001836020036101000a031916815260200191505b5093505050506040516020818303038152906040527f9710a9d0000000000000000000000000000000000000000000000000000000007bffffffffffffffffffffffffffffffffffffffffffffffffffffffff19166020820180517bffffffffffffffffffffffffffffffffffffffffffffffffffffffff8381831617835250505050610218565b5050565b600080825191506a636f6e736f6c652e6c6f679050602083016000808483855afa50505050505600a165627a7a72305820e19fbb3440b7e53c354cd1a471fde8431af8fda38f47ee8ef23068e77d1d1cfb0029",
					"opcodes": "PUSH1 0x80 PUSH1 0x40 MSTORE CALLVALUE DUP1 ISZERO PUSH2 0x10 JUMPI PUSH1 0x0 DUP1 REVERT JUMPDEST POP PUSH2 0x26C DUP1 PUSH2 0x20 PUSH1 0x0 CODECOPY PUSH1 0x0 RETURN STOP PUSH1 0x80 PUSH1 0x40 MSTORE PUSH1 0x4 CALLDATASIZE LT PUSH2 0x41 JUMPI PUSH1 0x0 CALLDATALOAD PUSH29 0x100000000000000000000000000000000000000000000000000000000 SWAP1 DIV PUSH4 0xFFFFFFFF AND DUP1 PUSH4 0x3DCC4CE5 EQ PUSH2 0x46 JUMPI JUMPDEST PUSH1 0x0 DUP1 REVERT JUMPDEST CALLVALUE DUP1 ISZERO PUSH2 0x52 JUMPI PUSH1 0x0 DUP1 REVERT JUMPDEST POP PUSH2 0x7B PUSH1 0x4 DUP1 CALLDATASIZE SUB DUP2 ADD SWAP1 DUP1 DUP1 CALLDATALOAD SWAP1 PUSH1 0x20 ADD SWAP1 SWAP3 SWAP2 SWAP1 DUP1 CALLDATALOAD SWAP1 PUSH1 0x20 ADD SWAP1 SWAP3 SWAP2 SWAP1 POP POP POP PUSH2 0x7D JUMP JUMPDEST STOP JUMPDEST DUP2 PUSH1 0x2 DUP2 SWAP1 SSTORE POP DUP1 PUSH1 0x3 DUP2 SWAP1 SSTORE POP PUSH2 0xCC PUSH1 0x40 DUP1 MLOAD SWAP1 DUP2 ADD PUSH1 0x40 MSTORE DUP1 PUSH1 0x7 DUP2 MSTORE PUSH1 0x20 ADD PUSH32 0x4E50203D20257300000000000000000000000000000000000000000000000000 DUP2 MSTORE POP PUSH1 0x2 SLOAD PUSH2 0x111 JUMP JUMPDEST PUSH2 0x10D PUSH1 0x40 DUP1 MLOAD SWAP1 DUP2 ADD PUSH1 0x40 MSTORE DUP1 PUSH1 0x7 DUP2 MSTORE PUSH1 0x20 ADD PUSH32 0x4E43203D20257300000000000000000000000000000000000000000000000000 DUP2 MSTORE POP PUSH1 0x3 SLOAD PUSH2 0x111 JUMP JUMPDEST POP POP JUMP JUMPDEST PUSH2 0x214 DUP3 DUP3 PUSH1 0x40 MLOAD PUSH1 0x24 ADD DUP1 DUP1 PUSH1 0x20 ADD DUP4 DUP2 MSTORE PUSH1 0x20 ADD DUP3 DUP2 SUB DUP3 MSTORE DUP5 DUP2 DUP2 MLOAD DUP2 MSTORE PUSH1 0x20 ADD SWAP2 POP DUP1 MLOAD SWAP1 PUSH1 0x20 ADD SWAP1 DUP1 DUP4 DUP4 PUSH1 0x0 JUMPDEST DUP4 DUP2 LT ISZERO PUSH2 0x15F JUMPI DUP1 DUP3 ADD MLOAD DUP2 DUP5 ADD MSTORE PUSH1 0x20 DUP2 ADD SWAP1 POP PUSH2 0x144 JUMP JUMPDEST POP POP POP POP SWAP1 POP SWAP1 DUP2 ADD SWAP1 PUSH1 0x1F AND DUP1 ISZERO PUSH2 0x18C JUMPI DUP1 DUP3 SUB DUP1 MLOAD PUSH1 0x1 DUP4 PUSH1 0x20 SUB PUSH2 0x100 EXP SUB NOT AND DUP2 MSTORE PUSH1 0x20 ADD SWAP2 POP JUMPDEST POP SWAP4 POP POP POP POP PUSH1 0x40 MLOAD PUSH1 0x20 DUP2 DUP4 SUB SUB DUP2 MSTORE SWAP1 PUSH1 0x40 MSTORE PUSH32 0x9710A9D000000000000000000000000000000000000000000000000000000000 PUSH28 0xFFFFFFFFFFFFFFFFFFFFFFFFFFFFFFFFFFFFFFFFFFFFFFFFFFFFFFFF NOT AND PUSH1 0x20 DUP3 ADD DUP1 MLOAD PUSH28 0xFFFFFFFFFFFFFFFFFFFFFFFFFFFFFFFFFFFFFFFFFFFFFFFFFFFFFFFF DUP4 DUP2 DUP4 AND OR DUP4 MSTORE POP POP POP POP PUSH2 0x218 JUMP JUMPDEST POP POP JUMP JUMPDEST PUSH1 0x0 DUP1 DUP3 MLOAD SWAP2 POP PUSH11 0x636F6E736F6C652E6C6F67 SWAP1 POP PUSH1 0x20 DUP4 ADD PUSH1 0x0 DUP1 DUP5 DUP4 DUP6 GAS STATICCALL POP POP POP POP POP JUMP STOP LOG1 PUSH6 0x627A7A723058 KECCAK256 0xe1 SWAP16 0xbb CALLVALUE BLOCKHASH 0xb7 0xe5 EXTCODECOPY CALLDATALOAD 0x4c 0xd1 LOG4 PUSH18 0xFDE8431AF8FDA38F47EE8EF23068E77D1D1C CREATE2 STOP 0x29 "
				},
				"gasEstimates": {
					"creation": {
						"codeDepositCost": "124000",
						"executionCost": "171",
						"totalCost": "124171"
					},
					"external": {
						"getnPnC(uint256,uint256)": "infinite"
					},
					"internal": {
						"integerToString(uint256)": "infinite"
					}
				},
				"methodIdentifiers": {
					"getnPnC(uint256,uint256)": "3dcc4ce5"
				}
			},
			"userdoc": {
				"methods": {}
			}
		}
	}
}