{
	"eth based/FLIR_Contract.sol": {
		"FLIRContract": {
			"abi": [
				{
					"constant": true,
					"inputs": [
						{
							"name": "cost1",
							"type": "uint256"
						},
						{
							"name": "cost2",
							"type": "uint256"
						}
					],
					"name": "totalCost",
					"outputs": [
						{
							"name": "",
							"type": "string"
						}
					],
					"payable": false,
					"stateMutability": "view",
					"type": "function"
				},
				{
					"constant": true,
					"inputs": [
						{
							"name": "Cimp1",
							"type": "uint256"
						}
					],
					"name": "ConsumerSlabPrice1",
					"outputs": [
						{
							"name": "cost1",
							"type": "uint256"
						}
					],
					"payable": false,
					"stateMutability": "view",
					"type": "function"
				},
				{
					"constant": true,
					"inputs": [
						{
							"name": "Cimp2",
							"type": "uint256"
						},
						{
							"name": "cost1",
							"type": "uint256"
						}
					],
					"name": "ConsumerSlabPrice2",
					"outputs": [
						{
							"name": "",
							"type": "string"
						},
						{
							"name": "costn",
							"type": "uint256"
						}
					],
					"payable": false,
					"stateMutability": "view",
					"type": "function"
				}
			],
			"devdoc": {
				"methods": {}
			},
			"evm": {
				"assembly": "    /* \"eth based/FLIR_Contract.sol\":91:1494  contract FLIRContract{... */\n  mstore(0x40, 0x80)\n    /* \"eth based/FLIR_Contract.sol\":128:129  5 */\n  0x5\n    /* \"eth based/FLIR_Contract.sol\":118:129  uint nP = 5 */\n  0x0\n  sstore\n    /* \"eth based/FLIR_Contract.sol\":145:146  3 */\n  0x3\n    /* \"eth based/FLIR_Contract.sol\":135:146  uint nC = 3 */\n  0x1\n  sstore\n    /* \"eth based/FLIR_Contract.sol\":164:165  3 */\n  0x3\n    /* \"eth based/FLIR_Contract.sol\":153:165  uint btp = 3 */\n  0x2\n  sstore\n    /* \"eth based/FLIR_Contract.sol\":184:185  3 */\n  0x3\n    /* \"eth based/FLIR_Contract.sol\":172:185  uint btc1 = 3 */\n  dup1\n  sstore\n    /* \"eth based/FLIR_Contract.sol\":203:204  4 */\n  0x4\n    /* \"eth based/FLIR_Contract.sol\":191:204  uint btc2 = 4 */\n  dup1\n  sstore\n    /* \"eth based/FLIR_Contract.sol\":222:223  5 */\n  0x5\n    /* \"eth based/FLIR_Contract.sol\":210:223  uint btc3 = 5 */\n  dup1\n  sstore\n    /* \"eth based/FLIR_Contract.sol\":241:242  6 */\n  0x6\n    /* \"eth based/FLIR_Contract.sol\":229:242  uint btc4 = 6 */\n  dup1\n  sstore\n    /* \"eth based/FLIR_Contract.sol\":260:261  7 */\n  0x7\n    /* \"eth based/FLIR_Contract.sol\":248:261  uint btc5 = 7 */\n  dup1\n  sstore\n    /* \"eth based/FLIR_Contract.sol\":279:280  8 */\n  0x8\n    /* \"eth based/FLIR_Contract.sol\":267:280  uint btc6 = 8 */\n  dup1\n  sstore\n    /* \"eth based/FLIR_Contract.sol\":298:299  9 */\n  0x9\n    /* \"eth based/FLIR_Contract.sol\":286:299  uint btc7 = 9 */\n  dup1\n  sstore\n    /* \"eth based/FLIR_Contract.sol\":317:319  10 */\n  0xa\n    /* \"eth based/FLIR_Contract.sol\":305:319  uint btc8 = 10 */\n  dup1\n  sstore\n    /* \"eth based/FLIR_Contract.sol\":91:1494  contract FLIRContract{... */\n  callvalue\n    /* \"--CODEGEN--\":8:17   */\n  dup1\n    /* \"--CODEGEN--\":5:7   */\n  iszero\n  tag_1\n  jumpi\n    /* \"--CODEGEN--\":30:31   */\n  0x0\n    /* \"--CODEGEN--\":27:28   */\n  dup1\n    /* \"--CODEGEN--\":20:32   */\n  revert\n    /* \"--CODEGEN--\":5:7   */\ntag_1:\n    /* \"eth based/FLIR_Contract.sol\":91:1494  contract FLIRContract{... */\n  pop\n  dataSize(sub_0)\n  dup1\n  dataOffset(sub_0)\n  0x0\n  codecopy\n  0x0\n  return\nstop\n\nsub_0: assembly {\n        /* \"eth based/FLIR_Contract.sol\":91:1494  contract FLIRContract{... */\n      mstore(0x40, 0x80)\n      jumpi(tag_1, lt(calldatasize, 0x4))\n      calldataload(0x0)\n      0x100000000000000000000000000000000000000000000000000000000\n      swap1\n      div\n      0xffffffff\n      and\n      dup1\n      0x66cf0df\n      eq\n      tag_2\n      jumpi\n      dup1\n      0x61cb59ca\n      eq\n      tag_3\n      jumpi\n      dup1\n      0x8111a2a6\n      eq\n      tag_4\n      jumpi\n    tag_1:\n      0x0\n      dup1\n      revert\n        /* \"eth based/FLIR_Contract.sol\":851:1011  function totalCost(uint cost1, uint cost2)public view returns (string memory){... */\n    tag_2:\n      callvalue\n        /* \"--CODEGEN--\":8:17   */\n      dup1\n        /* \"--CODEGEN--\":5:7   */\n      iszero\n      tag_5\n      jumpi\n        /* \"--CODEGEN--\":30:31   */\n      0x0\n        /* \"--CODEGEN--\":27:28   */\n      dup1\n        /* \"--CODEGEN--\":20:32   */\n      revert\n        /* \"--CODEGEN--\":5:7   */\n    tag_5:\n        /* \"eth based/FLIR_Contract.sol\":851:1011  function totalCost(uint cost1, uint cost2)public view returns (string memory){... */\n      pop\n      tag_6\n      0x4\n      dup1\n      calldatasize\n      sub\n      dup2\n      add\n      swap1\n      dup1\n      dup1\n      calldataload\n      swap1\n      0x20\n      add\n      swap1\n      swap3\n      swap2\n      swap1\n      dup1\n      calldataload\n      swap1\n      0x20\n      add\n      swap1\n      swap3\n      swap2\n      swap1\n      pop\n      pop\n      pop\n      jump(tag_7)\n    tag_6:\n      mload(0x40)\n      dup1\n      dup1\n      0x20\n      add\n      dup3\n      dup2\n      sub\n      dup3\n      mstore\n      dup4\n      dup2\n      dup2\n      mload\n      dup2\n      mstore\n      0x20\n      add\n      swap2\n      pop\n      dup1\n      mload\n      swap1\n      0x20\n      add\n      swap1\n      dup1\n      dup4\n      dup4\n        /* \"--CODEGEN--\":23:24   */\n      0x0\n        /* \"--CODEGEN--\":8:108   */\n    tag_8:\n        /* \"--CODEGEN--\":33:36   */\n      dup4\n        /* \"--CODEGEN--\":30:31   */\n      dup2\n        /* \"--CODEGEN--\":27:37   */\n      lt\n        /* \"--CODEGEN--\":8:108   */\n      iszero\n      tag_9\n      jumpi\n        /* \"--CODEGEN--\":99:100   */\n      dup1\n        /* \"--CODEGEN--\":94:97   */\n      dup3\n        /* \"--CODEGEN--\":90:101   */\n      add\n        /* \"--CODEGEN--\":84:102   */\n      mload\n        /* \"--CODEGEN--\":80:81   */\n      dup2\n        /* \"--CODEGEN--\":75:78   */\n      dup5\n        /* \"--CODEGEN--\":71:82   */\n      add\n        /* \"--CODEGEN--\":64:103   */\n      mstore\n        /* \"--CODEGEN--\":52:54   */\n      0x20\n        /* \"--CODEGEN--\":49:50   */\n      dup2\n        /* \"--CODEGEN--\":45:55   */\n      add\n        /* \"--CODEGEN--\":40:55   */\n      swap1\n      pop\n        /* \"--CODEGEN--\":8:108   */\n      jump(tag_8)\n    tag_9:\n        /* \"--CODEGEN--\":12:26   */\n      pop\n        /* \"eth based/FLIR_Contract.sol\":851:1011  function totalCost(uint cost1, uint cost2)public view returns (string memory){... */\n      pop\n      pop\n      pop\n      swap1\n      pop\n      swap1\n      dup2\n      add\n      swap1\n      0x1f\n      and\n      dup1\n      iszero\n      tag_11\n      jumpi\n      dup1\n      dup3\n      sub\n      dup1\n      mload\n      0x1\n      dup4\n      0x20\n      sub\n      0x100\n      exp\n      sub\n      not\n      and\n      dup2\n      mstore\n      0x20\n      add\n      swap2\n      pop\n    tag_11:\n      pop\n      swap3\n      pop\n      pop\n      pop\n      mload(0x40)\n      dup1\n      swap2\n      sub\n      swap1\n      return\n        /* \"eth based/FLIR_Contract.sol\":447:652  function ConsumerSlabPrice1(uint Cimp1)public view returns (uint cost1){... */\n    tag_3:\n      callvalue\n        /* \"--CODEGEN--\":8:17   */\n      dup1\n        /* \"--CODEGEN--\":5:7   */\n      iszero\n      tag_12\n      jumpi\n        /* \"--CODEGEN--\":30:31   */\n      0x0\n        /* \"--CODEGEN--\":27:28   */\n      dup1\n        /* \"--CODEGEN--\":20:32   */\n      revert\n        /* \"--CODEGEN--\":5:7   */\n    tag_12:\n        /* \"eth based/FLIR_Contract.sol\":447:652  function ConsumerSlabPrice1(uint Cimp1)public view returns (uint cost1){... */\n      pop\n      tag_13\n      0x4\n      dup1\n      calldatasize\n      sub\n      dup2\n      add\n      swap1\n      dup1\n      dup1\n      calldataload\n      swap1\n      0x20\n      add\n      swap1\n      swap3\n      swap2\n      swap1\n      pop\n      pop\n      pop\n      jump(tag_14)\n    tag_13:\n      mload(0x40)\n      dup1\n      dup3\n      dup2\n      mstore\n      0x20\n      add\n      swap2\n      pop\n      pop\n      mload(0x40)\n      dup1\n      swap2\n      sub\n      swap1\n      return\n        /* \"eth based/FLIR_Contract.sol\":658:845  function ConsumerSlabPrice2(uint Cimp2, uint cost1)public view returns (string memory, uint costn){... */\n    tag_4:\n      callvalue\n        /* \"--CODEGEN--\":8:17   */\n      dup1\n        /* \"--CODEGEN--\":5:7   */\n      iszero\n      tag_15\n      jumpi\n        /* \"--CODEGEN--\":30:31   */\n      0x0\n        /* \"--CODEGEN--\":27:28   */\n      dup1\n        /* \"--CODEGEN--\":20:32   */\n      revert\n        /* \"--CODEGEN--\":5:7   */\n    tag_15:\n        /* \"eth based/FLIR_Contract.sol\":658:845  function ConsumerSlabPrice2(uint Cimp2, uint cost1)public view returns (string memory, uint costn){... */\n      pop\n      tag_16\n      0x4\n      dup1\n      calldatasize\n      sub\n      dup2\n      add\n      swap1\n      dup1\n      dup1\n      calldataload\n      swap1\n      0x20\n      add\n      swap1\n      swap3\n      swap2\n      swap1\n      dup1\n      calldataload\n      swap1\n      0x20\n      add\n      swap1\n      swap3\n      swap2\n      swap1\n      pop\n      pop\n      pop\n      jump(tag_17)\n    tag_16:\n      mload(0x40)\n      dup1\n      dup1\n      0x20\n      add\n      dup4\n      dup2\n      mstore\n      0x20\n      add\n      dup3\n      dup2\n      sub\n      dup3\n      mstore\n      dup5\n      dup2\n      dup2\n      mload\n      dup2\n      mstore\n      0x20\n      add\n      swap2\n      pop\n      dup1\n      mload\n      swap1\n      0x20\n      add\n      swap1\n      dup1\n      dup4\n      dup4\n        /* \"--CODEGEN--\":23:24   */\n      0x0\n        /* \"--CODEGEN--\":8:108   */\n    tag_18:\n        /* \"--CODEGEN--\":33:36   */\n      dup4\n        /* \"--CODEGEN--\":30:31   */\n      dup2\n        /* \"--CODEGEN--\":27:37   */\n      lt\n        /* \"--CODEGEN--\":8:108   */\n      iszero\n      tag_19\n      jumpi\n        /* \"--CODEGEN--\":99:100   */\n      dup1\n        /* \"--CODEGEN--\":94:97   */\n      dup3\n        /* \"--CODEGEN--\":90:101   */\n      add\n        /* \"--CODEGEN--\":84:102   */\n      mload\n        /* \"--CODEGEN--\":80:81   */\n      dup2\n        /* \"--CODEGEN--\":75:78   */\n      dup5\n        /* \"--CODEGEN--\":71:82   */\n      add\n        /* \"--CODEGEN--\":64:103   */\n      mstore\n        /* \"--CODEGEN--\":52:54   */\n      0x20\n        /* \"--CODEGEN--\":49:50   */\n      dup2\n        /* \"--CODEGEN--\":45:55   */\n      add\n        /* \"--CODEGEN--\":40:55   */\n      swap1\n      pop\n        /* \"--CODEGEN--\":8:108   */\n      jump(tag_18)\n    tag_19:\n        /* \"--CODEGEN--\":12:26   */\n      pop\n        /* \"eth based/FLIR_Contract.sol\":658:845  function ConsumerSlabPrice2(uint Cimp2, uint cost1)public view returns (string memory, uint costn){... */\n      pop\n      pop\n      pop\n      swap1\n      pop\n      swap1\n      dup2\n      add\n      swap1\n      0x1f\n      and\n      dup1\n      iszero\n      tag_21\n      jumpi\n      dup1\n      dup3\n      sub\n      dup1\n      mload\n      0x1\n      dup4\n      0x20\n      sub\n      0x100\n      exp\n      sub\n      not\n      and\n      dup2\n      mstore\n      0x20\n      add\n      swap2\n      pop\n    tag_21:\n      pop\n      swap4\n      pop\n      pop\n      pop\n      pop\n      mload(0x40)\n      dup1\n      swap2\n      sub\n      swap1\n      return\n        /* \"eth based/FLIR_Contract.sol\":851:1011  function totalCost(uint cost1, uint cost2)public view returns (string memory){... */\n    tag_7:\n        /* \"eth based/FLIR_Contract.sol\":914:920  string */\n      0x60\n        /* \"eth based/FLIR_Contract.sol\":938:948  uint tCost */\n      0x0\n        /* \"eth based/FLIR_Contract.sol\":959:964  cost2 */\n      dup3\n        /* \"eth based/FLIR_Contract.sol\":951:956  cost1 */\n      dup5\n        /* \"eth based/FLIR_Contract.sol\":951:964  cost1 + cost2 */\n      add\n        /* \"eth based/FLIR_Contract.sol\":938:964  uint tCost = cost1 + cost2 */\n      swap1\n      pop\n        /* \"eth based/FLIR_Contract.sol\":981:1003  integerToString(tCost) */\n      tag_23\n        /* \"eth based/FLIR_Contract.sol\":997:1002  tCost */\n      dup2\n        /* \"eth based/FLIR_Contract.sol\":981:996  integerToString */\n      tag_24\n        /* \"eth based/FLIR_Contract.sol\":981:1003  integerToString(tCost) */\n      jump\t// in\n    tag_23:\n        /* \"eth based/FLIR_Contract.sol\":974:1003  return integerToString(tCost) */\n      swap2\n      pop\n        /* \"eth based/FLIR_Contract.sol\":851:1011  function totalCost(uint cost1, uint cost2)public view returns (string memory){... */\n      pop\n      swap3\n      swap2\n      pop\n      pop\n      jump\t// out\n        /* \"eth based/FLIR_Contract.sol\":447:652  function ConsumerSlabPrice1(uint Cimp1)public view returns (uint cost1){... */\n    tag_14:\n        /* \"eth based/FLIR_Contract.sol\":507:517  uint cost1 */\n      0x0\n        /* \"eth based/FLIR_Contract.sol\":543:547  btc1 */\n      sload(0x3)\n        /* \"eth based/FLIR_Contract.sol\":535:540  Cimp1 */\n      dup3\n        /* \"eth based/FLIR_Contract.sol\":535:547  Cimp1 * btc1 */\n      mul\n        /* \"eth based/FLIR_Contract.sol\":527:547  cost1 = Cimp1 * btc1 */\n      swap1\n      pop\n        /* \"eth based/FLIR_Contract.sol\":639:644  cost1 */\n      dup1\n        /* \"eth based/FLIR_Contract.sol\":631:645  return (cost1) */\n      swap1\n      pop\n        /* \"eth based/FLIR_Contract.sol\":447:652  function ConsumerSlabPrice1(uint Cimp1)public view returns (uint cost1){... */\n      swap2\n      swap1\n      pop\n      jump\t// out\n        /* \"eth based/FLIR_Contract.sol\":658:845  function ConsumerSlabPrice2(uint Cimp2, uint cost1)public view returns (string memory, uint costn){... */\n    tag_17:\n        /* \"eth based/FLIR_Contract.sol\":730:736  string */\n      0x60\n        /* \"eth based/FLIR_Contract.sol\":745:755  uint costn */\n      0x0\n        /* \"eth based/FLIR_Contract.sol\":766:776  uint cost2 */\n      dup1\n        /* \"eth based/FLIR_Contract.sol\":787:791  btc1 */\n      sload(0x3)\n        /* \"eth based/FLIR_Contract.sol\":779:784  Cimp2 */\n      dup6\n        /* \"eth based/FLIR_Contract.sol\":779:791  Cimp2 * btc1 */\n      mul\n        /* \"eth based/FLIR_Contract.sol\":766:791  uint cost2 = Cimp2 * btc1 */\n      swap1\n      pop\n        /* \"eth based/FLIR_Contract.sol\":809:831  integerToString(cost2) */\n      tag_27\n        /* \"eth based/FLIR_Contract.sol\":825:830  cost2 */\n      dup2\n        /* \"eth based/FLIR_Contract.sol\":809:824  integerToString */\n      tag_24\n        /* \"eth based/FLIR_Contract.sol\":809:831  integerToString(cost2) */\n      jump\t// in\n    tag_27:\n        /* \"eth based/FLIR_Contract.sol\":832:837  cost1 */\n      dup5\n        /* \"eth based/FLIR_Contract.sol\":801:838  return (integerToString(cost2),cost1) */\n      swap3\n      pop\n      swap3\n      pop\n        /* \"eth based/FLIR_Contract.sol\":658:845  function ConsumerSlabPrice2(uint Cimp2, uint cost1)public view returns (string memory, uint costn){... */\n      pop\n      swap3\n      pop\n      swap3\n      swap1\n      pop\n      jump\t// out\n        /* \"eth based/FLIR_Contract.sol\":1018:1489  function integerToString(uint _i) internal pure ... */\n    tag_24:\n        /* \"eth based/FLIR_Contract.sol\":1082:1088  string */\n      0x60\n        /* \"eth based/FLIR_Contract.sol\":1162:1168  uint j */\n      0x0\n        /* \"eth based/FLIR_Contract.sol\":1181:1189  uint len */\n      dup1\n        /* \"eth based/FLIR_Contract.sol\":1269:1286  bytes memory bstr */\n      0x60\n        /* \"eth based/FLIR_Contract.sol\":1311:1317  uint k */\n      0x0\n        /* \"eth based/FLIR_Contract.sol\":1122:1123  0 */\n      dup1\n        /* \"eth based/FLIR_Contract.sol\":1116:1118  _i */\n      dup7\n        /* \"eth based/FLIR_Contract.sol\":1116:1123  _i == 0 */\n      eq\n        /* \"eth based/FLIR_Contract.sol\":1112:1155  if (_i == 0) {... */\n      iszero\n      tag_29\n      jumpi\n        /* \"eth based/FLIR_Contract.sol\":1136:1146  return \"0\" */\n      0x40\n      dup1\n      mload\n      swap1\n      dup2\n      add\n      0x40\n      mstore\n      dup1\n      0x1\n      dup2\n      mstore\n      0x20\n      add\n      0x3000000000000000000000000000000000000000000000000000000000000000\n      dup2\n      mstore\n      pop\n      swap5\n      pop\n      jump(tag_28)\n        /* \"eth based/FLIR_Contract.sol\":1112:1155  if (_i == 0) {... */\n    tag_29:\n        /* \"eth based/FLIR_Contract.sol\":1171:1173  _i */\n      dup6\n        /* \"eth based/FLIR_Contract.sol\":1162:1173  uint j = _i */\n      swap4\n      pop\n        /* \"eth based/FLIR_Contract.sol\":1204:1262  while (j != 0) {... */\n    tag_30:\n        /* \"eth based/FLIR_Contract.sol\":1216:1217  0 */\n      0x0\n        /* \"eth based/FLIR_Contract.sol\":1211:1212  j */\n      dup5\n        /* \"eth based/FLIR_Contract.sol\":1211:1217  j != 0 */\n      eq\n      iszero\n        /* \"eth based/FLIR_Contract.sol\":1204:1262  while (j != 0) {... */\n      iszero\n      tag_31\n      jumpi\n        /* \"eth based/FLIR_Contract.sol\":1230:1235  len++ */\n      dup3\n      dup1\n      0x1\n      add\n      swap4\n      pop\n      pop\n        /* \"eth based/FLIR_Contract.sol\":1251:1253  10 */\n      0xa\n        /* \"eth based/FLIR_Contract.sol\":1246:1253  j /= 10 */\n      dup5\n      dup2\n      iszero\n      iszero\n      tag_32\n      jumpi\n      invalid\n    tag_32:\n      div\n      swap4\n      pop\n        /* \"eth based/FLIR_Contract.sol\":1204:1262  while (j != 0) {... */\n      jump(tag_30)\n    tag_31:\n        /* \"eth based/FLIR_Contract.sol\":1299:1302  len */\n      dup3\n        /* \"eth based/FLIR_Contract.sol\":1289:1303  new bytes(len) */\n      mload(0x40)\n      swap1\n      dup1\n      dup3\n      mstore\n      dup1\n      0x1f\n      add\n      not(0x1f)\n      and\n      0x20\n      add\n      dup3\n      add\n      0x40\n      mstore\n      dup1\n      iszero\n      tag_33\n      jumpi\n      dup2\n      0x20\n      add\n        /* \"--CODEGEN--\":29:31   */\n      0x20\n        /* \"--CODEGEN--\":21:27   */\n      dup3\n        /* \"--CODEGEN--\":17:32   */\n      mul\n        /* \"--CODEGEN--\":117:121   */\n      dup1\n        /* \"--CODEGEN--\":105:115   */\n      codesize\n        /* \"--CODEGEN--\":97:103   */\n      dup4\n        /* \"--CODEGEN--\":88:122   */\n      codecopy\n        /* \"--CODEGEN--\":148:152   */\n      dup1\n        /* \"--CODEGEN--\":140:146   */\n      dup3\n        /* \"--CODEGEN--\":136:153   */\n      add\n        /* \"--CODEGEN--\":126:153   */\n      swap2\n      pop\n        /* \"--CODEGEN--\":0:157   */\n      pop\n        /* \"eth based/FLIR_Contract.sol\":1289:1303  new bytes(len) */\n      swap1\n      pop\n    tag_33:\n      pop\n        /* \"eth based/FLIR_Contract.sol\":1269:1303  bytes memory bstr = new bytes(len) */\n      swap2\n      pop\n        /* \"eth based/FLIR_Contract.sol\":1326:1327  1 */\n      0x1\n        /* \"eth based/FLIR_Contract.sol\":1320:1323  len */\n      dup4\n        /* \"eth based/FLIR_Contract.sol\":1320:1327  len - 1 */\n      sub\n        /* \"eth based/FLIR_Contract.sol\":1311:1327  uint k = len - 1 */\n      swap1\n      pop\n        /* \"eth based/FLIR_Contract.sol\":1342:1434  while (_i != 0) {... */\n    tag_34:\n        /* \"eth based/FLIR_Contract.sol\":1355:1356  0 */\n      0x0\n        /* \"eth based/FLIR_Contract.sol\":1349:1351  _i */\n      dup7\n        /* \"eth based/FLIR_Contract.sol\":1349:1356  _i != 0 */\n      eq\n      iszero\n        /* \"eth based/FLIR_Contract.sol\":1342:1434  while (_i != 0) {... */\n      iszero\n      tag_35\n      jumpi\n        /* \"eth based/FLIR_Contract.sol\":1402:1404  10 */\n      0xa\n        /* \"eth based/FLIR_Contract.sol\":1397:1399  _i */\n      dup7\n        /* \"eth based/FLIR_Contract.sol\":1397:1404  _i % 10 */\n      dup2\n      iszero\n      iszero\n      tag_36\n      jumpi\n      invalid\n    tag_36:\n      mod\n        /* \"eth based/FLIR_Contract.sol\":1392:1394  48 */\n      0x30\n        /* \"eth based/FLIR_Contract.sol\":1392:1404  48 + _i % 10 */\n      add\n        /* \"eth based/FLIR_Contract.sol\":1381:1406  byte(uint8(48 + _i % 10)) */\n      0x100000000000000000000000000000000000000000000000000000000000000\n      mul\n        /* \"eth based/FLIR_Contract.sol\":1369:1373  bstr */\n      dup3\n        /* \"eth based/FLIR_Contract.sol\":1374:1377  k-- */\n      dup3\n      dup1\n      0x1\n      swap1\n      sub\n      swap4\n      pop\n        /* \"eth based/FLIR_Contract.sol\":1369:1378  bstr[k--] */\n      dup2\n      mload\n      dup2\n      lt\n      iszero\n      iszero\n      tag_37\n      jumpi\n      invalid\n    tag_37:\n      swap1\n      0x20\n      add\n      add\n        /* \"eth based/FLIR_Contract.sol\":1369:1406  bstr[k--] = byte(uint8(48 + _i % 10)) */\n      swap1\n      not(0xffffffffffffffffffffffffffffffffffffffffffffffffffffffffffffff)\n      and\n      swap1\n      dup2\n      0x0\n      byte\n      swap1\n      mstore8\n      pop\n        /* \"eth based/FLIR_Contract.sol\":1423:1425  10 */\n      0xa\n        /* \"eth based/FLIR_Contract.sol\":1417:1425  _i /= 10 */\n      dup7\n      dup2\n      iszero\n      iszero\n      tag_38\n      jumpi\n      invalid\n    tag_38:\n      div\n      swap6\n      pop\n        /* \"eth based/FLIR_Contract.sol\":1342:1434  while (_i != 0) {... */\n      jump(tag_34)\n    tag_35:\n        /* \"eth based/FLIR_Contract.sol\":1455:1459  bstr */\n      dup2\n        /* \"eth based/FLIR_Contract.sol\":1441:1460  return string(bstr) */\n      swap5\n      pop\n        /* \"eth based/FLIR_Contract.sol\":1018:1489  function integerToString(uint _i) internal pure ... */\n    tag_28:\n      pop\n      pop\n      pop\n      pop\n      swap2\n      swap1\n      pop\n      jump\t// out\n\n    auxdata: 0xa165627a7a72305820081188906ccc74576599116bb0d617bc7e300187a62d201ff0f742bfd7274fe40029\n}\n",
				"bytecode": {
					"linkReferences": {},
					"object": "608060405260056000556003600155600360025560038055600480556005805560068055600780556008805560098055600a805534801561003f57600080fd5b506103d58061004f6000396000f300608060405260043610610057576000357c0100000000000000000000000000000000000000000000000000000000900463ffffffff168063066cf0df1461005c57806361cb59ca1461010c5780638111a2a61461014d575b600080fd5b34801561006857600080fd5b506100916004803603810190808035906020019092919080359060200190929190505050610204565b6040518080602001828103825283818151815260200191508051906020019080838360005b838110156100d15780820151818401526020810190506100b6565b50505050905090810190601f1680156100fe5780820380516001836020036101000a031916815260200191505b509250505060405180910390f35b34801561011857600080fd5b506101376004803603810190808035906020019092919050505061021f565b6040518082815260200191505060405180910390f35b34801561015957600080fd5b506101826004803603810190808035906020019092919080359060200190929190505050610230565b6040518080602001838152602001828103825284818151815260200191508051906020019080838360005b838110156101c85780820151818401526020810190506101ad565b50505050905090810190601f1680156101f55780820380516001836020036101000a031916815260200191505b50935050505060405180910390f35b60606000828401905061021681610252565b91505092915050565b600060035482029050809050919050565b60606000806003548502905061024581610252565b8492509250509250929050565b606060008060606000808614156102a0576040805190810160405280600181526020017f300000000000000000000000000000000000000000000000000000000000000081525094506103a0565b8593505b6000841415156102ca578280600101935050600a848115156102c257fe5b0493506102a4565b826040519080825280601f01601f1916602001820160405280156102fd5781602001602082028038833980820191505090505b5091506001830390505b60008614151561039c57600a8681151561031d57fe5b066030017f01000000000000000000000000000000000000000000000000000000000000000282828060019003935081518110151561035857fe5b9060200101907effffffffffffffffffffffffffffffffffffffffffffffffffffffffffffff1916908160001a905350600a8681151561039457fe5b049550610307565b8194505b505050509190505600a165627a7a72305820081188906ccc74576599116bb0d617bc7e300187a62d201ff0f742bfd7274fe40029",
					"opcodes": "PUSH1 0x80 PUSH1 0x40 MSTORE PUSH1 0x5 PUSH1 0x0 SSTORE PUSH1 0x3 PUSH1 0x1 SSTORE PUSH1 0x3 PUSH1 0x2 SSTORE PUSH1 0x3 DUP1 SSTORE PUSH1 0x4 DUP1 SSTORE PUSH1 0x5 DUP1 SSTORE PUSH1 0x6 DUP1 SSTORE PUSH1 0x7 DUP1 SSTORE PUSH1 0x8 DUP1 SSTORE PUSH1 0x9 DUP1 SSTORE PUSH1 0xA DUP1 SSTORE CALLVALUE DUP1 ISZERO PUSH2 0x3F JUMPI PUSH1 0x0 DUP1 REVERT JUMPDEST POP PUSH2 0x3D5 DUP1 PUSH2 0x4F PUSH1 0x0 CODECOPY PUSH1 0x0 RETURN STOP PUSH1 0x80 PUSH1 0x40 MSTORE PUSH1 0x4 CALLDATASIZE LT PUSH2 0x57 JUMPI PUSH1 0x0 CALLDATALOAD PUSH29 0x100000000000000000000000000000000000000000000000000000000 SWAP1 DIV PUSH4 0xFFFFFFFF AND DUP1 PUSH4 0x66CF0DF EQ PUSH2 0x5C JUMPI DUP1 PUSH4 0x61CB59CA EQ PUSH2 0x10C JUMPI DUP1 PUSH4 0x8111A2A6 EQ PUSH2 0x14D JUMPI JUMPDEST PUSH1 0x0 DUP1 REVERT JUMPDEST CALLVALUE DUP1 ISZERO PUSH2 0x68 JUMPI PUSH1 0x0 DUP1 REVERT JUMPDEST POP PUSH2 0x91 PUSH1 0x4 DUP1 CALLDATASIZE SUB DUP2 ADD SWAP1 DUP1 DUP1 CALLDATALOAD SWAP1 PUSH1 0x20 ADD SWAP1 SWAP3 SWAP2 SWAP1 DUP1 CALLDATALOAD SWAP1 PUSH1 0x20 ADD SWAP1 SWAP3 SWAP2 SWAP1 POP POP POP PUSH2 0x204 JUMP JUMPDEST PUSH1 0x40 MLOAD DUP1 DUP1 PUSH1 0x20 ADD DUP3 DUP2 SUB DUP3 MSTORE DUP4 DUP2 DUP2 MLOAD DUP2 MSTORE PUSH1 0x20 ADD SWAP2 POP DUP1 MLOAD SWAP1 PUSH1 0x20 ADD SWAP1 DUP1 DUP4 DUP4 PUSH1 0x0 JUMPDEST DUP4 DUP2 LT ISZERO PUSH2 0xD1 JUMPI DUP1 DUP3 ADD MLOAD DUP2 DUP5 ADD MSTORE PUSH1 0x20 DUP2 ADD SWAP1 POP PUSH2 0xB6 JUMP JUMPDEST POP POP POP POP SWAP1 POP SWAP1 DUP2 ADD SWAP1 PUSH1 0x1F AND DUP1 ISZERO PUSH2 0xFE JUMPI DUP1 DUP3 SUB DUP1 MLOAD PUSH1 0x1 DUP4 PUSH1 0x20 SUB PUSH2 0x100 EXP SUB NOT AND DUP2 MSTORE PUSH1 0x20 ADD SWAP2 POP JUMPDEST POP SWAP3 POP POP POP PUSH1 0x40 MLOAD DUP1 SWAP2 SUB SWAP1 RETURN JUMPDEST CALLVALUE DUP1 ISZERO PUSH2 0x118 JUMPI PUSH1 0x0 DUP1 REVERT JUMPDEST POP PUSH2 0x137 PUSH1 0x4 DUP1 CALLDATASIZE SUB DUP2 ADD SWAP1 DUP1 DUP1 CALLDATALOAD SWAP1 PUSH1 0x20 ADD SWAP1 SWAP3 SWAP2 SWAP1 POP POP POP PUSH2 0x21F JUMP JUMPDEST PUSH1 0x40 MLOAD DUP1 DUP3 DUP2 MSTORE PUSH1 0x20 ADD SWAP2 POP POP PUSH1 0x40 MLOAD DUP1 SWAP2 SUB SWAP1 RETURN JUMPDEST CALLVALUE DUP1 ISZERO PUSH2 0x159 JUMPI PUSH1 0x0 DUP1 REVERT JUMPDEST POP PUSH2 0x182 PUSH1 0x4 DUP1 CALLDATASIZE SUB DUP2 ADD SWAP1 DUP1 DUP1 CALLDATALOAD SWAP1 PUSH1 0x20 ADD SWAP1 SWAP3 SWAP2 SWAP1 DUP1 CALLDATALOAD SWAP1 PUSH1 0x20 ADD SWAP1 SWAP3 SWAP2 SWAP1 POP POP POP PUSH2 0x230 JUMP JUMPDEST PUSH1 0x40 MLOAD DUP1 DUP1 PUSH1 0x20 ADD DUP4 DUP2 MSTORE PUSH1 0x20 ADD DUP3 DUP2 SUB DUP3 MSTORE DUP5 DUP2 DUP2 MLOAD DUP2 MSTORE PUSH1 0x20 ADD SWAP2 POP DUP1 MLOAD SWAP1 PUSH1 0x20 ADD SWAP1 DUP1 DUP4 DUP4 PUSH1 0x0 JUMPDEST DUP4 DUP2 LT ISZERO PUSH2 0x1C8 JUMPI DUP1 DUP3 ADD MLOAD DUP2 DUP5 ADD MSTORE PUSH1 0x20 DUP2 ADD SWAP1 POP PUSH2 0x1AD JUMP JUMPDEST POP POP POP POP SWAP1 POP SWAP1 DUP2 ADD SWAP1 PUSH1 0x1F AND DUP1 ISZERO PUSH2 0x1F5 JUMPI DUP1 DUP3 SUB DUP1 MLOAD PUSH1 0x1 DUP4 PUSH1 0x20 SUB PUSH2 0x100 EXP SUB NOT AND DUP2 MSTORE PUSH1 0x20 ADD SWAP2 POP JUMPDEST POP SWAP4 POP POP POP POP PUSH1 0x40 MLOAD DUP1 SWAP2 SUB SWAP1 RETURN JUMPDEST PUSH1 0x60 PUSH1 0x0 DUP3 DUP5 ADD SWAP1 POP PUSH2 0x216 DUP2 PUSH2 0x252 JUMP JUMPDEST SWAP2 POP POP SWAP3 SWAP2 POP POP JUMP JUMPDEST PUSH1 0x0 PUSH1 0x3 SLOAD DUP3 MUL SWAP1 POP DUP1 SWAP1 POP SWAP2 SWAP1 POP JUMP JUMPDEST PUSH1 0x60 PUSH1 0x0 DUP1 PUSH1 0x3 SLOAD DUP6 MUL SWAP1 POP PUSH2 0x245 DUP2 PUSH2 0x252 JUMP JUMPDEST DUP5 SWAP3 POP SWAP3 POP POP SWAP3 POP SWAP3 SWAP1 POP JUMP JUMPDEST PUSH1 0x60 PUSH1 0x0 DUP1 PUSH1 0x60 PUSH1 0x0 DUP1 DUP7 EQ ISZERO PUSH2 0x2A0 JUMPI PUSH1 0x40 DUP1 MLOAD SWAP1 DUP2 ADD PUSH1 0x40 MSTORE DUP1 PUSH1 0x1 DUP2 MSTORE PUSH1 0x20 ADD PUSH32 0x3000000000000000000000000000000000000000000000000000000000000000 DUP2 MSTORE POP SWAP5 POP PUSH2 0x3A0 JUMP JUMPDEST DUP6 SWAP4 POP JUMPDEST PUSH1 0x0 DUP5 EQ ISZERO ISZERO PUSH2 0x2CA JUMPI DUP3 DUP1 PUSH1 0x1 ADD SWAP4 POP POP PUSH1 0xA DUP5 DUP2 ISZERO ISZERO PUSH2 0x2C2 JUMPI INVALID JUMPDEST DIV SWAP4 POP PUSH2 0x2A4 JUMP JUMPDEST DUP3 PUSH1 0x40 MLOAD SWAP1 DUP1 DUP3 MSTORE DUP1 PUSH1 0x1F ADD PUSH1 0x1F NOT AND PUSH1 0x20 ADD DUP3 ADD PUSH1 0x40 MSTORE DUP1 ISZERO PUSH2 0x2FD JUMPI DUP2 PUSH1 0x20 ADD PUSH1 0x20 DUP3 MUL DUP1 CODESIZE DUP4 CODECOPY DUP1 DUP3 ADD SWAP2 POP POP SWAP1 POP JUMPDEST POP SWAP2 POP PUSH1 0x1 DUP4 SUB SWAP1 POP JUMPDEST PUSH1 0x0 DUP7 EQ ISZERO ISZERO PUSH2 0x39C JUMPI PUSH1 0xA DUP7 DUP2 ISZERO ISZERO PUSH2 0x31D JUMPI INVALID JUMPDEST MOD PUSH1 0x30 ADD PUSH32 0x100000000000000000000000000000000000000000000000000000000000000 MUL DUP3 DUP3 DUP1 PUSH1 0x1 SWAP1 SUB SWAP4 POP DUP2 MLOAD DUP2 LT ISZERO ISZERO PUSH2 0x358 JUMPI INVALID JUMPDEST SWAP1 PUSH1 0x20 ADD ADD SWAP1 PUSH31 0xFFFFFFFFFFFFFFFFFFFFFFFFFFFFFFFFFFFFFFFFFFFFFFFFFFFFFFFFFFFFFF NOT AND SWAP1 DUP2 PUSH1 0x0 BYTE SWAP1 MSTORE8 POP PUSH1 0xA DUP7 DUP2 ISZERO ISZERO PUSH2 0x394 JUMPI INVALID JUMPDEST DIV SWAP6 POP PUSH2 0x307 JUMP JUMPDEST DUP2 SWAP5 POP JUMPDEST POP POP POP POP SWAP2 SWAP1 POP JUMP STOP LOG1 PUSH6 0x627A7A723058 KECCAK256 ADDMOD GT DUP9 SWAP1 PUSH13 0xCC74576599116BB0D617BC7E30 ADD DUP8 0xa6 0x2d KECCAK256 0x1f CREATE 0xf7 TIMESTAMP 0xbf 0xd7 0x27 0x4f 0xe4 STOP 0x29 "
				},
				"gasEstimates": {
					"creation": {
						"codeDepositCost": "196200",
						"executionCost": "220304",
						"totalCost": "416504"
					},
					"external": {
						"ConsumerSlabPrice1(uint256)": "501",
						"ConsumerSlabPrice2(uint256,uint256)": "infinite",
						"totalCost(uint256,uint256)": "infinite"
					},
					"internal": {
						"integerToString(uint256)": "infinite"
					}
				},
				"methodIdentifiers": {
					"ConsumerSlabPrice1(uint256)": "61cb59ca",
					"ConsumerSlabPrice2(uint256,uint256)": "8111a2a6",
					"totalCost(uint256,uint256)": "066cf0df"
				}
			},
			"userdoc": {
				"methods": {}
			}
		}
	}
}