{
	"data": {
		"bytecode": {
			"linkReferences": {},
			"object": "608060405260056000556003600155600360025560038055600480556005805560068055600780556008805560098055600a80556000600b556000600c556000600d5534801561004e57600080fd5b5061043d8061005e6000396000f300608060405260043610610057576000357c0100000000000000000000000000000000000000000000000000000000900463ffffffff168063066cf0df1461005c5780630911b4e01461010c57806361cb59ca146101b2575b600080fd5b34801561006857600080fd5b50610091600480360381019080803590602001909291908035906020019092919050505061025f565b6040518080602001828103825283818151815260200191508051906020019080838360005b838110156100d15780820151818401526020810190506100b6565b50505050905090810190601f1680156100fe5780820380516001836020036101000a031916815260200191505b509250505060405180910390f35b34801561011857600080fd5b506101376004803603810190808035906020019092919050505061027d565b6040518080602001828103825283818151815260200191508051906020019080838360005b8381101561017757808201518184015260208101905061015c565b50505050905090810190601f1680156101a45780820380516001836020036101000a031916815260200191505b509250505060405180910390f35b3480156101be57600080fd5b506101dd6004803603810190808035906020019092919050505061029c565b6040518083815260200180602001828103825283818151815260200191508051906020019080838360005b83811015610223578082015181840152602081019050610208565b50505050905090810190601f1680156102505780820380516001836020036101000a031916815260200191505b50935050505060405180910390f35b6060818301600d81905550610275600d546102ba565b905092915050565b60606003548202600c81905550610295600c546102ba565b9050919050565b6000606060035483029150816102b1836102ba565b91509150915091565b60606000806060600080861415610308576040805190810160405280600181526020017f30000000000000000000000000000000000000000000000000000000000000008152509450610408565b8593505b600084141515610332578280600101935050600a8481151561032a57fe5b04935061030c565b826040519080825280601f01601f1916602001820160405280156103655781602001602082028038833980820191505090505b5091506001830390505b60008614151561040457600a8681151561038557fe5b066030017f0100000000000000000000000000000000000000000000000000000000000000028282806001900393508151811015156103c057fe5b9060200101907effffffffffffffffffffffffffffffffffffffffffffffffffffffffffffff1916908160001a905350600a868115156103fc57fe5b04955061036f565b8194505b505050509190505600a165627a7a7230582051374b8714a39ae30e3b4d9e517733b36484706ad586ecaf73ddc29f5053129a0029",
			"opcodes": "PUSH1 0x80 PUSH1 0x40 MSTORE PUSH1 0x5 PUSH1 0x0 SSTORE PUSH1 0x3 PUSH1 0x1 SSTORE PUSH1 0x3 PUSH1 0x2 SSTORE PUSH1 0x3 DUP1 SSTORE PUSH1 0x4 DUP1 SSTORE PUSH1 0x5 DUP1 SSTORE PUSH1 0x6 DUP1 SSTORE PUSH1 0x7 DUP1 SSTORE PUSH1 0x8 DUP1 SSTORE PUSH1 0x9 DUP1 SSTORE PUSH1 0xA DUP1 SSTORE PUSH1 0x0 PUSH1 0xB SSTORE PUSH1 0x0 PUSH1 0xC SSTORE PUSH1 0x0 PUSH1 0xD SSTORE CALLVALUE DUP1 ISZERO PUSH2 0x4E JUMPI PUSH1 0x0 DUP1 REVERT JUMPDEST POP PUSH2 0x43D DUP1 PUSH2 0x5E PUSH1 0x0 CODECOPY PUSH1 0x0 RETURN STOP PUSH1 0x80 PUSH1 0x40 MSTORE PUSH1 0x4 CALLDATASIZE LT PUSH2 0x57 JUMPI PUSH1 0x0 CALLDATALOAD PUSH29 0x100000000000000000000000000000000000000000000000000000000 SWAP1 DIV PUSH4 0xFFFFFFFF AND DUP1 PUSH4 0x66CF0DF EQ PUSH2 0x5C JUMPI DUP1 PUSH4 0x911B4E0 EQ PUSH2 0x10C JUMPI DUP1 PUSH4 0x61CB59CA EQ PUSH2 0x1B2 JUMPI JUMPDEST PUSH1 0x0 DUP1 REVERT JUMPDEST CALLVALUE DUP1 ISZERO PUSH2 0x68 JUMPI PUSH1 0x0 DUP1 REVERT JUMPDEST POP PUSH2 0x91 PUSH1 0x4 DUP1 CALLDATASIZE SUB DUP2 ADD SWAP1 DUP1 DUP1 CALLDATALOAD SWAP1 PUSH1 0x20 ADD SWAP1 SWAP3 SWAP2 SWAP1 DUP1 CALLDATALOAD SWAP1 PUSH1 0x20 ADD SWAP1 SWAP3 SWAP2 SWAP1 POP POP POP PUSH2 0x25F JUMP JUMPDEST PUSH1 0x40 MLOAD DUP1 DUP1 PUSH1 0x20 ADD DUP3 DUP2 SUB DUP3 MSTORE DUP4 DUP2 DUP2 MLOAD DUP2 MSTORE PUSH1 0x20 ADD SWAP2 POP DUP1 MLOAD SWAP1 PUSH1 0x20 ADD SWAP1 DUP1 DUP4 DUP4 PUSH1 0x0 JUMPDEST DUP4 DUP2 LT ISZERO PUSH2 0xD1 JUMPI DUP1 DUP3 ADD MLOAD DUP2 DUP5 ADD MSTORE PUSH1 0x20 DUP2 ADD SWAP1 POP PUSH2 0xB6 JUMP JUMPDEST POP POP POP POP SWAP1 POP SWAP1 DUP2 ADD SWAP1 PUSH1 0x1F AND DUP1 ISZERO PUSH2 0xFE JUMPI DUP1 DUP3 SUB DUP1 MLOAD PUSH1 0x1 DUP4 PUSH1 0x20 SUB PUSH2 0x100 EXP SUB NOT AND DUP2 MSTORE PUSH1 0x20 ADD SWAP2 POP JUMPDEST POP SWAP3 POP POP POP PUSH1 0x40 MLOAD DUP1 SWAP2 SUB SWAP1 RETURN JUMPDEST CALLVALUE DUP1 ISZERO PUSH2 0x118 JUMPI PUSH1 0x0 DUP1 REVERT JUMPDEST POP PUSH2 0x137 PUSH1 0x4 DUP1 CALLDATASIZE SUB DUP2 ADD SWAP1 DUP1 DUP1 CALLDATALOAD SWAP1 PUSH1 0x20 ADD SWAP1 SWAP3 SWAP2 SWAP1 POP POP POP PUSH2 0x27D JUMP JUMPDEST PUSH1 0x40 MLOAD DUP1 DUP1 PUSH1 0x20 ADD DUP3 DUP2 SUB DUP3 MSTORE DUP4 DUP2 DUP2 MLOAD DUP2 MSTORE PUSH1 0x20 ADD SWAP2 POP DUP1 MLOAD SWAP1 PUSH1 0x20 ADD SWAP1 DUP1 DUP4 DUP4 PUSH1 0x0 JUMPDEST DUP4 DUP2 LT ISZERO PUSH2 0x177 JUMPI DUP1 DUP3 ADD MLOAD DUP2 DUP5 ADD MSTORE PUSH1 0x20 DUP2 ADD SWAP1 POP PUSH2 0x15C JUMP JUMPDEST POP POP POP POP SWAP1 POP SWAP1 DUP2 ADD SWAP1 PUSH1 0x1F AND DUP1 ISZERO PUSH2 0x1A4 JUMPI DUP1 DUP3 SUB DUP1 MLOAD PUSH1 0x1 DUP4 PUSH1 0x20 SUB PUSH2 0x100 EXP SUB NOT AND DUP2 MSTORE PUSH1 0x20 ADD SWAP2 POP JUMPDEST POP SWAP3 POP POP POP PUSH1 0x40 MLOAD DUP1 SWAP2 SUB SWAP1 RETURN JUMPDEST CALLVALUE DUP1 ISZERO PUSH2 0x1BE JUMPI PUSH1 0x0 DUP1 REVERT JUMPDEST POP PUSH2 0x1DD PUSH1 0x4 DUP1 CALLDATASIZE SUB DUP2 ADD SWAP1 DUP1 DUP1 CALLDATALOAD SWAP1 PUSH1 0x20 ADD SWAP1 SWAP3 SWAP2 SWAP1 POP POP POP PUSH2 0x29C JUMP JUMPDEST PUSH1 0x40 MLOAD DUP1 DUP4 DUP2 MSTORE PUSH1 0x20 ADD DUP1 PUSH1 0x20 ADD DUP3 DUP2 SUB DUP3 MSTORE DUP4 DUP2 DUP2 MLOAD DUP2 MSTORE PUSH1 0x20 ADD SWAP2 POP DUP1 MLOAD SWAP1 PUSH1 0x20 ADD SWAP1 DUP1 DUP4 DUP4 PUSH1 0x0 JUMPDEST DUP4 DUP2 LT ISZERO PUSH2 0x223 JUMPI DUP1 DUP3 ADD MLOAD DUP2 DUP5 ADD MSTORE PUSH1 0x20 DUP2 ADD SWAP1 POP PUSH2 0x208 JUMP JUMPDEST POP POP POP POP SWAP1 POP SWAP1 DUP2 ADD SWAP1 PUSH1 0x1F AND DUP1 ISZERO PUSH2 0x250 JUMPI DUP1 DUP3 SUB DUP1 MLOAD PUSH1 0x1 DUP4 PUSH1 0x20 SUB PUSH2 0x100 EXP SUB NOT AND DUP2 MSTORE PUSH1 0x20 ADD SWAP2 POP JUMPDEST POP SWAP4 POP POP POP POP PUSH1 0x40 MLOAD DUP1 SWAP2 SUB SWAP1 RETURN JUMPDEST PUSH1 0x60 DUP2 DUP4 ADD PUSH1 0xD DUP2 SWAP1 SSTORE POP PUSH2 0x275 PUSH1 0xD SLOAD PUSH2 0x2BA JUMP JUMPDEST SWAP1 POP SWAP3 SWAP2 POP POP JUMP JUMPDEST PUSH1 0x60 PUSH1 0x3 SLOAD DUP3 MUL PUSH1 0xC DUP2 SWAP1 SSTORE POP PUSH2 0x295 PUSH1 0xC SLOAD PUSH2 0x2BA JUMP JUMPDEST SWAP1 POP SWAP2 SWAP1 POP JUMP JUMPDEST PUSH1 0x0 PUSH1 0x60 PUSH1 0x3 SLOAD DUP4 MUL SWAP2 POP DUP2 PUSH2 0x2B1 DUP4 PUSH2 0x2BA JUMP JUMPDEST SWAP2 POP SWAP2 POP SWAP2 POP SWAP2 JUMP JUMPDEST PUSH1 0x60 PUSH1 0x0 DUP1 PUSH1 0x60 PUSH1 0x0 DUP1 DUP7 EQ ISZERO PUSH2 0x308 JUMPI PUSH1 0x40 DUP1 MLOAD SWAP1 DUP2 ADD PUSH1 0x40 MSTORE DUP1 PUSH1 0x1 DUP2 MSTORE PUSH1 0x20 ADD PUSH32 0x3000000000000000000000000000000000000000000000000000000000000000 DUP2 MSTORE POP SWAP5 POP PUSH2 0x408 JUMP JUMPDEST DUP6 SWAP4 POP JUMPDEST PUSH1 0x0 DUP5 EQ ISZERO ISZERO PUSH2 0x332 JUMPI DUP3 DUP1 PUSH1 0x1 ADD SWAP4 POP POP PUSH1 0xA DUP5 DUP2 ISZERO ISZERO PUSH2 0x32A JUMPI INVALID JUMPDEST DIV SWAP4 POP PUSH2 0x30C JUMP JUMPDEST DUP3 PUSH1 0x40 MLOAD SWAP1 DUP1 DUP3 MSTORE DUP1 PUSH1 0x1F ADD PUSH1 0x1F NOT AND PUSH1 0x20 ADD DUP3 ADD PUSH1 0x40 MSTORE DUP1 ISZERO PUSH2 0x365 JUMPI DUP2 PUSH1 0x20 ADD PUSH1 0x20 DUP3 MUL DUP1 CODESIZE DUP4 CODECOPY DUP1 DUP3 ADD SWAP2 POP POP SWAP1 POP JUMPDEST POP SWAP2 POP PUSH1 0x1 DUP4 SUB SWAP1 POP JUMPDEST PUSH1 0x0 DUP7 EQ ISZERO ISZERO PUSH2 0x404 JUMPI PUSH1 0xA DUP7 DUP2 ISZERO ISZERO PUSH2 0x385 JUMPI INVALID JUMPDEST MOD PUSH1 0x30 ADD PUSH32 0x100000000000000000000000000000000000000000000000000000000000000 MUL DUP3 DUP3 DUP1 PUSH1 0x1 SWAP1 SUB SWAP4 POP DUP2 MLOAD DUP2 LT ISZERO ISZERO PUSH2 0x3C0 JUMPI INVALID JUMPDEST SWAP1 PUSH1 0x20 ADD ADD SWAP1 PUSH31 0xFFFFFFFFFFFFFFFFFFFFFFFFFFFFFFFFFFFFFFFFFFFFFFFFFFFFFFFFFFFFFF NOT AND SWAP1 DUP2 PUSH1 0x0 BYTE SWAP1 MSTORE8 POP PUSH1 0xA DUP7 DUP2 ISZERO ISZERO PUSH2 0x3FC JUMPI INVALID JUMPDEST DIV SWAP6 POP PUSH2 0x36F JUMP JUMPDEST DUP2 SWAP5 POP JUMPDEST POP POP POP POP SWAP2 SWAP1 POP JUMP STOP LOG1 PUSH6 0x627A7A723058 KECCAK256 MLOAD CALLDATACOPY 0x4b DUP8 EQ LOG3 SWAP11 0xe3 0xe EXTCODESIZE 0x4d SWAP15 MLOAD PUSH24 0x33B36484706AD586ECAF73DDC29F5053129A002900000000 "
		},
		"gasEstimates": {
			"creation": {
				"codeDepositCost": "217000",
				"executionCost": "235341",
				"totalCost": "452341"
			},
			"external": {
				"ConsumerSlabPrice1(uint256)": "infinite",
				"ConsumerSlabPrice2(uint256)": "infinite",
				"totalCost(uint256,uint256)": "infinite"
			},
			"internal": {
				"integerToString(uint256)": "infinite"
			}
		},
		"methodIdentifiers": {
			"ConsumerSlabPrice1(uint256)": "61cb59ca",
			"ConsumerSlabPrice2(uint256)": "0911b4e0",
			"totalCost(uint256,uint256)": "066cf0df"
		}
	},
	"abi": [
		{
			"constant": true,
			"inputs": [
				{
					"name": "cost1",
					"type": "uint256"
				},
				{
					"name": "cost2",
					"type": "uint256"
				}
			],
			"name": "totalCost",
			"outputs": [
				{
					"name": "",
					"type": "string"
				}
			],
			"payable": false,
			"stateMutability": "view",
			"type": "function"
		},
		{
			"constant": true,
			"inputs": [
				{
					"name": "Cimp2",
					"type": "uint256"
				}
			],
			"name": "ConsumerSlabPrice2",
			"outputs": [
				{
					"name": "",
					"type": "string"
				}
			],
			"payable": false,
			"stateMutability": "view",
			"type": "function"
		},
		{
			"constant": true,
			"inputs": [
				{
					"name": "Cimp1",
					"type": "uint256"
				}
			],
			"name": "ConsumerSlabPrice1",
			"outputs": [
				{
					"name": "cost1",
					"type": "uint256"
				},
				{
					"name": "",
					"type": "string"
				}
			],
			"payable": false,
			"stateMutability": "view",
			"type": "function"
		}
	]
}