{
	"data": {
		"bytecode": {
			"linkReferences": {},
			"object": "608060405260036000556003600155600460025560056003556006600455600760055560086006556009600755600a60085534801561003d57600080fd5b506109368061004d6000396000f3fe6080604052600436106100c25760003560e01c8063636e082b1161007f578063b4ad7fa911610059578063b4ad7fa91461025f578063c2c496ec1461028a578063ed2fa5ab146102b5578063f02e48c3146102e0576100c2565b8063636e082b146101db578063721028ec146101f7578063a8bdb68b14610234576100c2565b80630c03a1a3146100c7578063103347e7146100f257806320e731a11461011d57806328780a44146101485780632c9af64c146101735780635c8f6b561461019e575b600080fd5b3480156100d357600080fd5b506100dc61031f565b6040516100e9919061072c565b60405180910390f35b3480156100fe57600080fd5b50610107610325565b604051610114919061072c565b60405180910390f35b34801561012957600080fd5b5061013261032b565b60405161013f919061072c565b60405180910390f35b34801561015457600080fd5b5061015d610331565b60405161016a919061072c565b60405180910390f35b34801561017f57600080fd5b50610188610337565b604051610195919061072c565b60405180910390f35b3480156101aa57600080fd5b506101c560048036038101906101c0919061069d565b61033d565b6040516101d2919061072c565b60405180910390f35b6101f560048036038101906101f09190610670565b610353565b005b34801561020357600080fd5b5061021e6004803603810190610219919061069d565b61039d565b60405161022b919061072c565b60405180910390f35b34801561024057600080fd5b50610249610617565b604051610256919061072c565b60405180910390f35b34801561026b57600080fd5b5061027461061d565b604051610281919061072c565b60405180910390f35b34801561029657600080fd5b5061029f610623565b6040516102ac919061072c565b60405180910390f35b3480156102c157600080fd5b506102ca610629565b6040516102d7919061072c565b60405180910390f35b3480156102ec57600080fd5b50610307600480360381019061030291906106ca565b61062f565b60405161031693929190610747565b60405180910390f35b60055481565b60045481565b60035481565b60025481565b60005481565b600080548261034c91906107d4565b9050919050565b8073ffffffffffffffffffffffffffffffffffffffff166108fc349081150290604051600060405180830381858888f19350505050158015610399573d6000803e3d6000fd5b5050565b600060fb82101561059d5760338210156103c657600154826103bf91906107d4565b9050610598565b6032821180156103d65750606582105b15610415576002546032836103eb919061082e565b6103f591906107d4565b600154603261040491906107d4565b61040e919061077e565b9050610597565b6064821180156104255750609782105b1561047d5760035460328361043a919061082e565b61044491906107d4565b600254603261045391906107d4565b600154603261046291906107d4565b61046c919061077e565b610476919061077e565b9050610596565b60968211801561048d575060c982105b156104fe576004546032836104a2919061082e565b6104ac91906107d4565b60035460326104bb91906107d4565b60025460326104ca91906107d4565b60015460326104d991906107d4565b6104e3919061077e565b6104ed919061077e565b6104f7919061077e565b9050610595565b60c88211801561050e575060fb82105b1561059457600554603283610523919061082e565b61052d91906107d4565b600454603261053c91906107d4565b600354603261054b91906107d4565b600254603261055a91906107d4565b600154603261056991906107d4565b610573919061077e565b61057d919061077e565b610587919061077e565b610591919061077e565b90505b5b5b5b5b610612565b60fa821180156105ae575061015f82105b156105c857600654826105c191906107d4565b9050610611565b61015e821180156105da57506101c382105b156105f457600754826105ed91906107d4565b9050610610565b6101c282111561060f576008548261060c91906107d4565b90505b5b5b5b919050565b60085481565b60065481565b60015481565b60075481565b600080600085925084915083905093509350939050565b600081359050610655816108d2565b92915050565b60008135905061066a816108e9565b92915050565b600060208284031215610686576106856108cd565b5b600061069484828501610646565b91505092915050565b6000602082840312156106b3576106b26108cd565b5b60006106c18482850161065b565b91505092915050565b6000806000606084860312156106e3576106e26108cd565b5b60006106f18682870161065b565b93505060206107028682870161065b565b92505060406107138682870161065b565b9150509250925092565b61072681610894565b82525050565b6000602082019050610741600083018461071d565b92915050565b600060608201905061075c600083018661071d565b610769602083018561071d565b610776604083018461071d565b949350505050565b600061078982610894565b915061079483610894565b9250827fffffffffffffffffffffffffffffffffffffffffffffffffffffffffffffffff038211156107c9576107c861089e565b5b828201905092915050565b60006107df82610894565b91506107ea83610894565b9250817fffffffffffffffffffffffffffffffffffffffffffffffffffffffffffffffff04831182151516156108235761082261089e565b5b828202905092915050565b600061083982610894565b915061084483610894565b9250828210156108575761085661089e565b5b828203905092915050565b600061086d82610874565b9050919050565b600073ffffffffffffffffffffffffffffffffffffffff82169050919050565b6000819050919050565b7f4e487b7100000000000000000000000000000000000000000000000000000000600052601160045260246000fd5b600080fd5b6108db81610862565b81146108e657600080fd5b50565b6108f281610894565b81146108fd57600080fd5b5056fea26469706673582212204f72b3804d31f72f4e83fb628ea67971ecebad32dfa4d7122159247b8affac8b64736f6c63430008070033",
			"opcodes": "PUSH1 0x80 PUSH1 0x40 MSTORE PUSH1 0x3 PUSH1 0x0 SSTORE PUSH1 0x3 PUSH1 0x1 SSTORE PUSH1 0x4 PUSH1 0x2 SSTORE PUSH1 0x5 PUSH1 0x3 SSTORE PUSH1 0x6 PUSH1 0x4 SSTORE PUSH1 0x7 PUSH1 0x5 SSTORE PUSH1 0x8 PUSH1 0x6 SSTORE PUSH1 0x9 PUSH1 0x7 SSTORE PUSH1 0xA PUSH1 0x8 SSTORE CALLVALUE DUP1 ISZERO PUSH2 0x3D JUMPI PUSH1 0x0 DUP1 REVERT JUMPDEST POP PUSH2 0x936 DUP1 PUSH2 0x4D PUSH1 0x0 CODECOPY PUSH1 0x0 RETURN INVALID PUSH1 0x80 PUSH1 0x40 MSTORE PUSH1 0x4 CALLDATASIZE LT PUSH2 0xC2 JUMPI PUSH1 0x0 CALLDATALOAD PUSH1 0xE0 SHR DUP1 PUSH4 0x636E082B GT PUSH2 0x7F JUMPI DUP1 PUSH4 0xB4AD7FA9 GT PUSH2 0x59 JUMPI DUP1 PUSH4 0xB4AD7FA9 EQ PUSH2 0x25F JUMPI DUP1 PUSH4 0xC2C496EC EQ PUSH2 0x28A JUMPI DUP1 PUSH4 0xED2FA5AB EQ PUSH2 0x2B5 JUMPI DUP1 PUSH4 0xF02E48C3 EQ PUSH2 0x2E0 JUMPI PUSH2 0xC2 JUMP JUMPDEST DUP1 PUSH4 0x636E082B EQ PUSH2 0x1DB JUMPI DUP1 PUSH4 0x721028EC EQ PUSH2 0x1F7 JUMPI DUP1 PUSH4 0xA8BDB68B EQ PUSH2 0x234 JUMPI PUSH2 0xC2 JUMP JUMPDEST DUP1 PUSH4 0xC03A1A3 EQ PUSH2 0xC7 JUMPI DUP1 PUSH4 0x103347E7 EQ PUSH2 0xF2 JUMPI DUP1 PUSH4 0x20E731A1 EQ PUSH2 0x11D JUMPI DUP1 PUSH4 0x28780A44 EQ PUSH2 0x148 JUMPI DUP1 PUSH4 0x2C9AF64C EQ PUSH2 0x173 JUMPI DUP1 PUSH4 0x5C8F6B56 EQ PUSH2 0x19E JUMPI JUMPDEST PUSH1 0x0 DUP1 REVERT JUMPDEST CALLVALUE DUP1 ISZERO PUSH2 0xD3 JUMPI PUSH1 0x0 DUP1 REVERT JUMPDEST POP PUSH2 0xDC PUSH2 0x31F JUMP JUMPDEST PUSH1 0x40 MLOAD PUSH2 0xE9 SWAP2 SWAP1 PUSH2 0x72C JUMP JUMPDEST PUSH1 0x40 MLOAD DUP1 SWAP2 SUB SWAP1 RETURN JUMPDEST CALLVALUE DUP1 ISZERO PUSH2 0xFE JUMPI PUSH1 0x0 DUP1 REVERT JUMPDEST POP PUSH2 0x107 PUSH2 0x325 JUMP JUMPDEST PUSH1 0x40 MLOAD PUSH2 0x114 SWAP2 SWAP1 PUSH2 0x72C JUMP JUMPDEST PUSH1 0x40 MLOAD DUP1 SWAP2 SUB SWAP1 RETURN JUMPDEST CALLVALUE DUP1 ISZERO PUSH2 0x129 JUMPI PUSH1 0x0 DUP1 REVERT JUMPDEST POP PUSH2 0x132 PUSH2 0x32B JUMP JUMPDEST PUSH1 0x40 MLOAD PUSH2 0x13F SWAP2 SWAP1 PUSH2 0x72C JUMP JUMPDEST PUSH1 0x40 MLOAD DUP1 SWAP2 SUB SWAP1 RETURN JUMPDEST CALLVALUE DUP1 ISZERO PUSH2 0x154 JUMPI PUSH1 0x0 DUP1 REVERT JUMPDEST POP PUSH2 0x15D PUSH2 0x331 JUMP JUMPDEST PUSH1 0x40 MLOAD PUSH2 0x16A SWAP2 SWAP1 PUSH2 0x72C JUMP JUMPDEST PUSH1 0x40 MLOAD DUP1 SWAP2 SUB SWAP1 RETURN JUMPDEST CALLVALUE DUP1 ISZERO PUSH2 0x17F JUMPI PUSH1 0x0 DUP1 REVERT JUMPDEST POP PUSH2 0x188 PUSH2 0x337 JUMP JUMPDEST PUSH1 0x40 MLOAD PUSH2 0x195 SWAP2 SWAP1 PUSH2 0x72C JUMP JUMPDEST PUSH1 0x40 MLOAD DUP1 SWAP2 SUB SWAP1 RETURN JUMPDEST CALLVALUE DUP1 ISZERO PUSH2 0x1AA JUMPI PUSH1 0x0 DUP1 REVERT JUMPDEST POP PUSH2 0x1C5 PUSH1 0x4 DUP1 CALLDATASIZE SUB DUP2 ADD SWAP1 PUSH2 0x1C0 SWAP2 SWAP1 PUSH2 0x69D JUMP JUMPDEST PUSH2 0x33D JUMP JUMPDEST PUSH1 0x40 MLOAD PUSH2 0x1D2 SWAP2 SWAP1 PUSH2 0x72C JUMP JUMPDEST PUSH1 0x40 MLOAD DUP1 SWAP2 SUB SWAP1 RETURN JUMPDEST PUSH2 0x1F5 PUSH1 0x4 DUP1 CALLDATASIZE SUB DUP2 ADD SWAP1 PUSH2 0x1F0 SWAP2 SWAP1 PUSH2 0x670 JUMP JUMPDEST PUSH2 0x353 JUMP JUMPDEST STOP JUMPDEST CALLVALUE DUP1 ISZERO PUSH2 0x203 JUMPI PUSH1 0x0 DUP1 REVERT JUMPDEST POP PUSH2 0x21E PUSH1 0x4 DUP1 CALLDATASIZE SUB DUP2 ADD SWAP1 PUSH2 0x219 SWAP2 SWAP1 PUSH2 0x69D JUMP JUMPDEST PUSH2 0x39D JUMP JUMPDEST PUSH1 0x40 MLOAD PUSH2 0x22B SWAP2 SWAP1 PUSH2 0x72C JUMP JUMPDEST PUSH1 0x40 MLOAD DUP1 SWAP2 SUB SWAP1 RETURN JUMPDEST CALLVALUE DUP1 ISZERO PUSH2 0x240 JUMPI PUSH1 0x0 DUP1 REVERT JUMPDEST POP PUSH2 0x249 PUSH2 0x617 JUMP JUMPDEST PUSH1 0x40 MLOAD PUSH2 0x256 SWAP2 SWAP1 PUSH2 0x72C JUMP JUMPDEST PUSH1 0x40 MLOAD DUP1 SWAP2 SUB SWAP1 RETURN JUMPDEST CALLVALUE DUP1 ISZERO PUSH2 0x26B JUMPI PUSH1 0x0 DUP1 REVERT JUMPDEST POP PUSH2 0x274 PUSH2 0x61D JUMP JUMPDEST PUSH1 0x40 MLOAD PUSH2 0x281 SWAP2 SWAP1 PUSH2 0x72C JUMP JUMPDEST PUSH1 0x40 MLOAD DUP1 SWAP2 SUB SWAP1 RETURN JUMPDEST CALLVALUE DUP1 ISZERO PUSH2 0x296 JUMPI PUSH1 0x0 DUP1 REVERT JUMPDEST POP PUSH2 0x29F PUSH2 0x623 JUMP JUMPDEST PUSH1 0x40 MLOAD PUSH2 0x2AC SWAP2 SWAP1 PUSH2 0x72C JUMP JUMPDEST PUSH1 0x40 MLOAD DUP1 SWAP2 SUB SWAP1 RETURN JUMPDEST CALLVALUE DUP1 ISZERO PUSH2 0x2C1 JUMPI PUSH1 0x0 DUP1 REVERT JUMPDEST POP PUSH2 0x2CA PUSH2 0x629 JUMP JUMPDEST PUSH1 0x40 MLOAD PUSH2 0x2D7 SWAP2 SWAP1 PUSH2 0x72C JUMP JUMPDEST PUSH1 0x40 MLOAD DUP1 SWAP2 SUB SWAP1 RETURN JUMPDEST CALLVALUE DUP1 ISZERO PUSH2 0x2EC JUMPI PUSH1 0x0 DUP1 REVERT JUMPDEST POP PUSH2 0x307 PUSH1 0x4 DUP1 CALLDATASIZE SUB DUP2 ADD SWAP1 PUSH2 0x302 SWAP2 SWAP1 PUSH2 0x6CA JUMP JUMPDEST PUSH2 0x62F JUMP JUMPDEST PUSH1 0x40 MLOAD PUSH2 0x316 SWAP4 SWAP3 SWAP2 SWAP1 PUSH2 0x747 JUMP JUMPDEST PUSH1 0x40 MLOAD DUP1 SWAP2 SUB SWAP1 RETURN JUMPDEST PUSH1 0x5 SLOAD DUP2 JUMP JUMPDEST PUSH1 0x4 SLOAD DUP2 JUMP JUMPDEST PUSH1 0x3 SLOAD DUP2 JUMP JUMPDEST PUSH1 0x2 SLOAD DUP2 JUMP JUMPDEST PUSH1 0x0 SLOAD DUP2 JUMP JUMPDEST PUSH1 0x0 DUP1 SLOAD DUP3 PUSH2 0x34C SWAP2 SWAP1 PUSH2 0x7D4 JUMP JUMPDEST SWAP1 POP SWAP2 SWAP1 POP JUMP JUMPDEST DUP1 PUSH20 0xFFFFFFFFFFFFFFFFFFFFFFFFFFFFFFFFFFFFFFFF AND PUSH2 0x8FC CALLVALUE SWAP1 DUP2 ISZERO MUL SWAP1 PUSH1 0x40 MLOAD PUSH1 0x0 PUSH1 0x40 MLOAD DUP1 DUP4 SUB DUP2 DUP6 DUP9 DUP9 CALL SWAP4 POP POP POP POP ISZERO DUP1 ISZERO PUSH2 0x399 JUMPI RETURNDATASIZE PUSH1 0x0 DUP1 RETURNDATACOPY RETURNDATASIZE PUSH1 0x0 REVERT JUMPDEST POP POP JUMP JUMPDEST PUSH1 0x0 PUSH1 0xFB DUP3 LT ISZERO PUSH2 0x59D JUMPI PUSH1 0x33 DUP3 LT ISZERO PUSH2 0x3C6 JUMPI PUSH1 0x1 SLOAD DUP3 PUSH2 0x3BF SWAP2 SWAP1 PUSH2 0x7D4 JUMP JUMPDEST SWAP1 POP PUSH2 0x598 JUMP JUMPDEST PUSH1 0x32 DUP3 GT DUP1 ISZERO PUSH2 0x3D6 JUMPI POP PUSH1 0x65 DUP3 LT JUMPDEST ISZERO PUSH2 0x415 JUMPI PUSH1 0x2 SLOAD PUSH1 0x32 DUP4 PUSH2 0x3EB SWAP2 SWAP1 PUSH2 0x82E JUMP JUMPDEST PUSH2 0x3F5 SWAP2 SWAP1 PUSH2 0x7D4 JUMP JUMPDEST PUSH1 0x1 SLOAD PUSH1 0x32 PUSH2 0x404 SWAP2 SWAP1 PUSH2 0x7D4 JUMP JUMPDEST PUSH2 0x40E SWAP2 SWAP1 PUSH2 0x77E JUMP JUMPDEST SWAP1 POP PUSH2 0x597 JUMP JUMPDEST PUSH1 0x64 DUP3 GT DUP1 ISZERO PUSH2 0x425 JUMPI POP PUSH1 0x97 DUP3 LT JUMPDEST ISZERO PUSH2 0x47D JUMPI PUSH1 0x3 SLOAD PUSH1 0x32 DUP4 PUSH2 0x43A SWAP2 SWAP1 PUSH2 0x82E JUMP JUMPDEST PUSH2 0x444 SWAP2 SWAP1 PUSH2 0x7D4 JUMP JUMPDEST PUSH1 0x2 SLOAD PUSH1 0x32 PUSH2 0x453 SWAP2 SWAP1 PUSH2 0x7D4 JUMP JUMPDEST PUSH1 0x1 SLOAD PUSH1 0x32 PUSH2 0x462 SWAP2 SWAP1 PUSH2 0x7D4 JUMP JUMPDEST PUSH2 0x46C SWAP2 SWAP1 PUSH2 0x77E JUMP JUMPDEST PUSH2 0x476 SWAP2 SWAP1 PUSH2 0x77E JUMP JUMPDEST SWAP1 POP PUSH2 0x596 JUMP JUMPDEST PUSH1 0x96 DUP3 GT DUP1 ISZERO PUSH2 0x48D JUMPI POP PUSH1 0xC9 DUP3 LT JUMPDEST ISZERO PUSH2 0x4FE JUMPI PUSH1 0x4 SLOAD PUSH1 0x32 DUP4 PUSH2 0x4A2 SWAP2 SWAP1 PUSH2 0x82E JUMP JUMPDEST PUSH2 0x4AC SWAP2 SWAP1 PUSH2 0x7D4 JUMP JUMPDEST PUSH1 0x3 SLOAD PUSH1 0x32 PUSH2 0x4BB SWAP2 SWAP1 PUSH2 0x7D4 JUMP JUMPDEST PUSH1 0x2 SLOAD PUSH1 0x32 PUSH2 0x4CA SWAP2 SWAP1 PUSH2 0x7D4 JUMP JUMPDEST PUSH1 0x1 SLOAD PUSH1 0x32 PUSH2 0x4D9 SWAP2 SWAP1 PUSH2 0x7D4 JUMP JUMPDEST PUSH2 0x4E3 SWAP2 SWAP1 PUSH2 0x77E JUMP JUMPDEST PUSH2 0x4ED SWAP2 SWAP1 PUSH2 0x77E JUMP JUMPDEST PUSH2 0x4F7 SWAP2 SWAP1 PUSH2 0x77E JUMP JUMPDEST SWAP1 POP PUSH2 0x595 JUMP JUMPDEST PUSH1 0xC8 DUP3 GT DUP1 ISZERO PUSH2 0x50E JUMPI POP PUSH1 0xFB DUP3 LT JUMPDEST ISZERO PUSH2 0x594 JUMPI PUSH1 0x5 SLOAD PUSH1 0x32 DUP4 PUSH2 0x523 SWAP2 SWAP1 PUSH2 0x82E JUMP JUMPDEST PUSH2 0x52D SWAP2 SWAP1 PUSH2 0x7D4 JUMP JUMPDEST PUSH1 0x4 SLOAD PUSH1 0x32 PUSH2 0x53C SWAP2 SWAP1 PUSH2 0x7D4 JUMP JUMPDEST PUSH1 0x3 SLOAD PUSH1 0x32 PUSH2 0x54B SWAP2 SWAP1 PUSH2 0x7D4 JUMP JUMPDEST PUSH1 0x2 SLOAD PUSH1 0x32 PUSH2 0x55A SWAP2 SWAP1 PUSH2 0x7D4 JUMP JUMPDEST PUSH1 0x1 SLOAD PUSH1 0x32 PUSH2 0x569 SWAP2 SWAP1 PUSH2 0x7D4 JUMP JUMPDEST PUSH2 0x573 SWAP2 SWAP1 PUSH2 0x77E JUMP JUMPDEST PUSH2 0x57D SWAP2 SWAP1 PUSH2 0x77E JUMP JUMPDEST PUSH2 0x587 SWAP2 SWAP1 PUSH2 0x77E JUMP JUMPDEST PUSH2 0x591 SWAP2 SWAP1 PUSH2 0x77E JUMP JUMPDEST SWAP1 POP JUMPDEST JUMPDEST JUMPDEST JUMPDEST JUMPDEST PUSH2 0x612 JUMP JUMPDEST PUSH1 0xFA DUP3 GT DUP1 ISZERO PUSH2 0x5AE JUMPI POP PUSH2 0x15F DUP3 LT JUMPDEST ISZERO PUSH2 0x5C8 JUMPI PUSH1 0x6 SLOAD DUP3 PUSH2 0x5C1 SWAP2 SWAP1 PUSH2 0x7D4 JUMP JUMPDEST SWAP1 POP PUSH2 0x611 JUMP JUMPDEST PUSH2 0x15E DUP3 GT DUP1 ISZERO PUSH2 0x5DA JUMPI POP PUSH2 0x1C3 DUP3 LT JUMPDEST ISZERO PUSH2 0x5F4 JUMPI PUSH1 0x7 SLOAD DUP3 PUSH2 0x5ED SWAP2 SWAP1 PUSH2 0x7D4 JUMP JUMPDEST SWAP1 POP PUSH2 0x610 JUMP JUMPDEST PUSH2 0x1C2 DUP3 GT ISZERO PUSH2 0x60F JUMPI PUSH1 0x8 SLOAD DUP3 PUSH2 0x60C SWAP2 SWAP1 PUSH2 0x7D4 JUMP JUMPDEST SWAP1 POP JUMPDEST JUMPDEST JUMPDEST JUMPDEST SWAP2 SWAP1 POP JUMP JUMPDEST PUSH1 0x8 SLOAD DUP2 JUMP JUMPDEST PUSH1 0x6 SLOAD DUP2 JUMP JUMPDEST PUSH1 0x1 SLOAD DUP2 JUMP JUMPDEST PUSH1 0x7 SLOAD DUP2 JUMP JUMPDEST PUSH1 0x0 DUP1 PUSH1 0x0 DUP6 SWAP3 POP DUP5 SWAP2 POP DUP4 SWAP1 POP SWAP4 POP SWAP4 POP SWAP4 SWAP1 POP JUMP JUMPDEST PUSH1 0x0 DUP2 CALLDATALOAD SWAP1 POP PUSH2 0x655 DUP2 PUSH2 0x8D2 JUMP JUMPDEST SWAP3 SWAP2 POP POP JUMP JUMPDEST PUSH1 0x0 DUP2 CALLDATALOAD SWAP1 POP PUSH2 0x66A DUP2 PUSH2 0x8E9 JUMP JUMPDEST SWAP3 SWAP2 POP POP JUMP JUMPDEST PUSH1 0x0 PUSH1 0x20 DUP3 DUP5 SUB SLT ISZERO PUSH2 0x686 JUMPI PUSH2 0x685 PUSH2 0x8CD JUMP JUMPDEST JUMPDEST PUSH1 0x0 PUSH2 0x694 DUP5 DUP3 DUP6 ADD PUSH2 0x646 JUMP JUMPDEST SWAP2 POP POP SWAP3 SWAP2 POP POP JUMP JUMPDEST PUSH1 0x0 PUSH1 0x20 DUP3 DUP5 SUB SLT ISZERO PUSH2 0x6B3 JUMPI PUSH2 0x6B2 PUSH2 0x8CD JUMP JUMPDEST JUMPDEST PUSH1 0x0 PUSH2 0x6C1 DUP5 DUP3 DUP6 ADD PUSH2 0x65B JUMP JUMPDEST SWAP2 POP POP SWAP3 SWAP2 POP POP JUMP JUMPDEST PUSH1 0x0 DUP1 PUSH1 0x0 PUSH1 0x60 DUP5 DUP7 SUB SLT ISZERO PUSH2 0x6E3 JUMPI PUSH2 0x6E2 PUSH2 0x8CD JUMP JUMPDEST JUMPDEST PUSH1 0x0 PUSH2 0x6F1 DUP7 DUP3 DUP8 ADD PUSH2 0x65B JUMP JUMPDEST SWAP4 POP POP PUSH1 0x20 PUSH2 0x702 DUP7 DUP3 DUP8 ADD PUSH2 0x65B JUMP JUMPDEST SWAP3 POP POP PUSH1 0x40 PUSH2 0x713 DUP7 DUP3 DUP8 ADD PUSH2 0x65B JUMP JUMPDEST SWAP2 POP POP SWAP3 POP SWAP3 POP SWAP3 JUMP JUMPDEST PUSH2 0x726 DUP2 PUSH2 0x894 JUMP JUMPDEST DUP3 MSTORE POP POP JUMP JUMPDEST PUSH1 0x0 PUSH1 0x20 DUP3 ADD SWAP1 POP PUSH2 0x741 PUSH1 0x0 DUP4 ADD DUP5 PUSH2 0x71D JUMP JUMPDEST SWAP3 SWAP2 POP POP JUMP JUMPDEST PUSH1 0x0 PUSH1 0x60 DUP3 ADD SWAP1 POP PUSH2 0x75C PUSH1 0x0 DUP4 ADD DUP7 PUSH2 0x71D JUMP JUMPDEST PUSH2 0x769 PUSH1 0x20 DUP4 ADD DUP6 PUSH2 0x71D JUMP JUMPDEST PUSH2 0x776 PUSH1 0x40 DUP4 ADD DUP5 PUSH2 0x71D JUMP JUMPDEST SWAP5 SWAP4 POP POP POP POP JUMP JUMPDEST PUSH1 0x0 PUSH2 0x789 DUP3 PUSH2 0x894 JUMP JUMPDEST SWAP2 POP PUSH2 0x794 DUP4 PUSH2 0x894 JUMP JUMPDEST SWAP3 POP DUP3 PUSH32 0xFFFFFFFFFFFFFFFFFFFFFFFFFFFFFFFFFFFFFFFFFFFFFFFFFFFFFFFFFFFFFFFF SUB DUP3 GT ISZERO PUSH2 0x7C9 JUMPI PUSH2 0x7C8 PUSH2 0x89E JUMP JUMPDEST JUMPDEST DUP3 DUP3 ADD SWAP1 POP SWAP3 SWAP2 POP POP JUMP JUMPDEST PUSH1 0x0 PUSH2 0x7DF DUP3 PUSH2 0x894 JUMP JUMPDEST SWAP2 POP PUSH2 0x7EA DUP4 PUSH2 0x894 JUMP JUMPDEST SWAP3 POP DUP2 PUSH32 0xFFFFFFFFFFFFFFFFFFFFFFFFFFFFFFFFFFFFFFFFFFFFFFFFFFFFFFFFFFFFFFFF DIV DUP4 GT DUP3 ISZERO ISZERO AND ISZERO PUSH2 0x823 JUMPI PUSH2 0x822 PUSH2 0x89E JUMP JUMPDEST JUMPDEST DUP3 DUP3 MUL SWAP1 POP SWAP3 SWAP2 POP POP JUMP JUMPDEST PUSH1 0x0 PUSH2 0x839 DUP3 PUSH2 0x894 JUMP JUMPDEST SWAP2 POP PUSH2 0x844 DUP4 PUSH2 0x894 JUMP JUMPDEST SWAP3 POP DUP3 DUP3 LT ISZERO PUSH2 0x857 JUMPI PUSH2 0x856 PUSH2 0x89E JUMP JUMPDEST JUMPDEST DUP3 DUP3 SUB SWAP1 POP SWAP3 SWAP2 POP POP JUMP JUMPDEST PUSH1 0x0 PUSH2 0x86D DUP3 PUSH2 0x874 JUMP JUMPDEST SWAP1 POP SWAP2 SWAP1 POP JUMP JUMPDEST PUSH1 0x0 PUSH20 0xFFFFFFFFFFFFFFFFFFFFFFFFFFFFFFFFFFFFFFFF DUP3 AND SWAP1 POP SWAP2 SWAP1 POP JUMP JUMPDEST PUSH1 0x0 DUP2 SWAP1 POP SWAP2 SWAP1 POP JUMP JUMPDEST PUSH32 0x4E487B7100000000000000000000000000000000000000000000000000000000 PUSH1 0x0 MSTORE PUSH1 0x11 PUSH1 0x4 MSTORE PUSH1 0x24 PUSH1 0x0 REVERT JUMPDEST PUSH1 0x0 DUP1 REVERT JUMPDEST PUSH2 0x8DB DUP2 PUSH2 0x862 JUMP JUMPDEST DUP2 EQ PUSH2 0x8E6 JUMPI PUSH1 0x0 DUP1 REVERT JUMPDEST POP JUMP JUMPDEST PUSH2 0x8F2 DUP2 PUSH2 0x894 JUMP JUMPDEST DUP2 EQ PUSH2 0x8FD JUMPI PUSH1 0x0 DUP1 REVERT JUMPDEST POP JUMP INVALID LOG2 PUSH5 0x6970667358 0x22 SLT KECCAK256 0x4F PUSH19 0xB3804D31F72F4E83FB628EA67971ECEBAD32DF LOG4 0xD7 SLT 0x21 MSIZE 0x24 PUSH28 0x8AFFAC8B64736F6C6343000807003300000000000000000000000000 "
		},
		"gasEstimates": {
			"creation": {
				"codeDepositCost": "471600",
				"executionCost": "199459",
				"totalCost": "671059"
			},
			"external": {
				"btc1()": "2473",
				"btc2()": "2496",
				"btc3()": "2474",
				"btc4()": "2452",
				"btc5()": "2430",
				"btc6()": "2451",
				"btc7()": "2495",
				"btc8()": "2496",
				"btp()": "2518",
				"getConsumerTariff(uint256)": "infinite",
				"getProsumerTariff(uint256)": "infinite",
				"getnPnCnEV(uint256,uint256,uint256)": "infinite",
				"sendViaTransfer(address)": "infinite"
			}
		},
		"methodIdentifiers": {
			"btc1()": "c2c496ec",
			"btc2()": "28780a44",
			"btc3()": "20e731a1",
			"btc4()": "103347e7",
			"btc5()": "0c03a1a3",
			"btc6()": "b4ad7fa9",
			"btc7()": "ed2fa5ab",
			"btc8()": "a8bdb68b",
			"btp()": "2c9af64c",
			"getConsumerTariff(uint256)": "721028ec",
			"getProsumerTariff(uint256)": "5c8f6b56",
			"getnPnCnEV(uint256,uint256,uint256)": "f02e48c3",
			"sendViaTransfer(address)": "636e082b"
		}
	},
	"abi": [
		{
			"inputs": [],
			"name": "btc1",
			"outputs": [
				{
					"internalType": "uint256",
					"name": "",
					"type": "uint256"
				}
			],
			"stateMutability": "view",
			"type": "function"
		},
		{
			"inputs": [],
			"name": "btc2",
			"outputs": [
				{
					"internalType": "uint256",
					"name": "",
					"type": "uint256"
				}
			],
			"stateMutability": "view",
			"type": "function"
		},
		{
			"inputs": [],
			"name": "btc3",
			"outputs": [
				{
					"internalType": "uint256",
					"name": "",
					"type": "uint256"
				}
			],
			"stateMutability": "view",
			"type": "function"
		},
		{
			"inputs": [],
			"name": "btc4",
			"outputs": [
				{
					"internalType": "uint256",
					"name": "",
					"type": "uint256"
				}
			],
			"stateMutability": "view",
			"type": "function"
		},
		{
			"inputs": [],
			"name": "btc5",
			"outputs": [
				{
					"internalType": "uint256",
					"name": "",
					"type": "uint256"
				}
			],
			"stateMutability": "view",
			"type": "function"
		},
		{
			"inputs": [],
			"name": "btc6",
			"outputs": [
				{
					"internalType": "uint256",
					"name": "",
					"type": "uint256"
				}
			],
			"stateMutability": "view",
			"type": "function"
		},
		{
			"inputs": [],
			"name": "btc7",
			"outputs": [
				{
					"internalType": "uint256",
					"name": "",
					"type": "uint256"
				}
			],
			"stateMutability": "view",
			"type": "function"
		},
		{
			"inputs": [],
			"name": "btc8",
			"outputs": [
				{
					"internalType": "uint256",
					"name": "",
					"type": "uint256"
				}
			],
			"stateMutability": "view",
			"type": "function"
		},
		{
			"inputs": [],
			"name": "btp",
			"outputs": [
				{
					"internalType": "uint256",
					"name": "",
					"type": "uint256"
				}
			],
			"stateMutability": "view",
			"type": "function"
		},
		{
			"inputs": [
				{
					"internalType": "uint256",
					"name": "Cimp",
					"type": "uint256"
				}
			],
			"name": "getConsumerTariff",
			"outputs": [
				{
					"internalType": "uint256",
					"name": "Tc",
					"type": "uint256"
				}
			],
			"stateMutability": "nonpayable",
			"type": "function"
		},
		{
			"inputs": [
				{
					"internalType": "uint256",
					"name": "Pexp",
					"type": "uint256"
				}
			],
			"name": "getProsumerTariff",
			"outputs": [
				{
					"internalType": "uint256",
					"name": "Tp",
					"type": "uint256"
				}
			],
			"stateMutability": "nonpayable",
			"type": "function"
		},
		{
			"inputs": [
				{
					"internalType": "uint256",
					"name": "nPget",
					"type": "uint256"
				},
				{
					"internalType": "uint256",
					"name": "nCget",
					"type": "uint256"
				},
				{
					"internalType": "uint256",
					"name": "nEVget",
					"type": "uint256"
				}
			],
			"name": "getnPnCnEV",
			"outputs": [
				{
					"internalType": "uint256",
					"name": "nP",
					"type": "uint256"
				},
				{
					"internalType": "uint256",
					"name": "nC",
					"type": "uint256"
				},
				{
					"internalType": "uint256",
					"name": "nEV",
					"type": "uint256"
				}
			],
			"stateMutability": "pure",
			"type": "function"
		},
		{
			"inputs": [
				{
					"internalType": "address payable",
					"name": "_to",
					"type": "address"
				}
			],
			"name": "sendViaTransfer",
			"outputs": [],
			"stateMutability": "payable",
			"type": "function"
		}
	]
}