{
	"eth based/truffle/contracts/FLIR_Contract.sol": {
		"FLIRContract": {
			"abi": [
				{
					"inputs": [],
					"name": "btc1",
					"outputs": [
						{
							"internalType": "uint256",
							"name": "",
							"type": "uint256"
						}
					],
					"stateMutability": "view",
					"type": "function"
				},
				{
					"inputs": [],
					"name": "btc2",
					"outputs": [
						{
							"internalType": "uint256",
							"name": "",
							"type": "uint256"
						}
					],
					"stateMutability": "view",
					"type": "function"
				},
				{
					"inputs": [],
					"name": "btc3",
					"outputs": [
						{
							"internalType": "uint256",
							"name": "",
							"type": "uint256"
						}
					],
					"stateMutability": "view",
					"type": "function"
				},
				{
					"inputs": [],
					"name": "btc4",
					"outputs": [
						{
							"internalType": "uint256",
							"name": "",
							"type": "uint256"
						}
					],
					"stateMutability": "view",
					"type": "function"
				},
				{
					"inputs": [],
					"name": "btc5",
					"outputs": [
						{
							"internalType": "uint256",
							"name": "",
							"type": "uint256"
						}
					],
					"stateMutability": "view",
					"type": "function"
				},
				{
					"inputs": [],
					"name": "btc6",
					"outputs": [
						{
							"internalType": "uint256",
							"name": "",
							"type": "uint256"
						}
					],
					"stateMutability": "view",
					"type": "function"
				},
				{
					"inputs": [],
					"name": "btc7",
					"outputs": [
						{
							"internalType": "uint256",
							"name": "",
							"type": "uint256"
						}
					],
					"stateMutability": "view",
					"type": "function"
				},
				{
					"inputs": [],
					"name": "btc8",
					"outputs": [
						{
							"internalType": "uint256",
							"name": "",
							"type": "uint256"
						}
					],
					"stateMutability": "view",
					"type": "function"
				},
				{
					"inputs": [],
					"name": "btp",
					"outputs": [
						{
							"internalType": "uint256",
							"name": "",
							"type": "uint256"
						}
					],
					"stateMutability": "view",
					"type": "function"
				},
				{
					"inputs": [
						{
							"internalType": "uint256",
							"name": "nPget",
							"type": "uint256"
						},
						{
							"internalType": "uint256",
							"name": "nCget",
							"type": "uint256"
						},
						{
							"internalType": "uint256",
							"name": "nEVget",
							"type": "uint256"
						}
					],
					"name": "getnPnCnEV",
					"outputs": [],
					"stateMutability": "nonpayable",
					"type": "function"
				},
				{
					"inputs": [],
					"name": "nC",
					"outputs": [
						{
							"internalType": "uint256",
							"name": "",
							"type": "uint256"
						}
					],
					"stateMutability": "view",
					"type": "function"
				},
				{
					"inputs": [],
					"name": "nEV",
					"outputs": [
						{
							"internalType": "uint256",
							"name": "",
							"type": "uint256"
						}
					],
					"stateMutability": "view",
					"type": "function"
				},
				{
					"inputs": [],
					"name": "nP",
					"outputs": [
						{
							"internalType": "uint256",
							"name": "",
							"type": "uint256"
						}
					],
					"stateMutability": "view",
					"type": "function"
				}
			],
			"devdoc": {
				"kind": "dev",
				"methods": {},
				"version": 1
			},
			"evm": {
				"assembly": "    /* \"eth based/truffle/contracts/FLIR_Contract.sol\":129:1882  contract FLIRContract{... */\n  mstore(0x40, 0x80)\n    /* \"eth based/truffle/contracts/FLIR_Contract.sol\":450:451  3 */\n  0x03\n    /* \"eth based/truffle/contracts/FLIR_Contract.sol\":432:451  uint public btp = 3 */\n  0x05\n  sstore\n    /* \"eth based/truffle/contracts/FLIR_Contract.sol\":477:478  3 */\n  0x03\n    /* \"eth based/truffle/contracts/FLIR_Contract.sol\":458:478  uint public btc1 = 3 */\n  0x06\n  sstore\n    /* \"eth based/truffle/contracts/FLIR_Contract.sol\":503:504  4 */\n  0x04\n    /* \"eth based/truffle/contracts/FLIR_Contract.sol\":484:504  uint public btc2 = 4 */\n  0x07\n  sstore\n    /* \"eth based/truffle/contracts/FLIR_Contract.sol\":529:530  5 */\n  0x05\n    /* \"eth based/truffle/contracts/FLIR_Contract.sol\":510:530  uint public btc3 = 5 */\n  0x08\n  sstore\n    /* \"eth based/truffle/contracts/FLIR_Contract.sol\":555:556  6 */\n  0x06\n    /* \"eth based/truffle/contracts/FLIR_Contract.sol\":536:556  uint public btc4 = 6 */\n  0x09\n  sstore\n    /* \"eth based/truffle/contracts/FLIR_Contract.sol\":581:582  7 */\n  0x07\n    /* \"eth based/truffle/contracts/FLIR_Contract.sol\":562:582  uint public btc5 = 7 */\n  0x0a\n  sstore\n    /* \"eth based/truffle/contracts/FLIR_Contract.sol\":607:608  8 */\n  0x08\n    /* \"eth based/truffle/contracts/FLIR_Contract.sol\":588:608  uint public btc6 = 8 */\n  0x0b\n  sstore\n    /* \"eth based/truffle/contracts/FLIR_Contract.sol\":633:634  9 */\n  0x09\n    /* \"eth based/truffle/contracts/FLIR_Contract.sol\":614:634  uint public btc7 = 9 */\n  0x0c\n  sstore\n    /* \"eth based/truffle/contracts/FLIR_Contract.sol\":659:661  10 */\n  0x0a\n    /* \"eth based/truffle/contracts/FLIR_Contract.sol\":640:661  uint public btc8 = 10 */\n  0x0d\n  sstore\n    /* \"eth based/truffle/contracts/FLIR_Contract.sol\":129:1882  contract FLIRContract{... */\n  callvalue\n  dup1\n  iszero\n  tag_1\n  jumpi\n  0x00\n  dup1\n  revert\ntag_1:\n  pop\n  dataSize(sub_0)\n  dup1\n  dataOffset(sub_0)\n  0x00\n  codecopy\n  0x00\n  return\nstop\n\nsub_0: assembly {\n        /* \"eth based/truffle/contracts/FLIR_Contract.sol\":129:1882  contract FLIRContract{... */\n      mstore(0x40, 0x80)\n      callvalue\n      dup1\n      iszero\n      tag_1\n      jumpi\n      0x00\n      dup1\n      revert\n    tag_1:\n      pop\n      jumpi(tag_2, lt(calldatasize, 0x04))\n      shr(0xe0, calldataload(0x00))\n      dup1\n      0x5b6e3cf0\n      gt\n      tag_16\n      jumpi\n      dup1\n      0xb4ad7fa9\n      gt\n      tag_17\n      jumpi\n      dup1\n      0xb4ad7fa9\n      eq\n      tag_12\n      jumpi\n      dup1\n      0xc2c496ec\n      eq\n      tag_13\n      jumpi\n      dup1\n      0xed2fa5ab\n      eq\n      tag_14\n      jumpi\n      dup1\n      0xf02e48c3\n      eq\n      tag_15\n      jumpi\n      jump(tag_2)\n    tag_17:\n      dup1\n      0x5b6e3cf0\n      eq\n      tag_9\n      jumpi\n      dup1\n      0x7c3084cc\n      eq\n      tag_10\n      jumpi\n      dup1\n      0xa8bdb68b\n      eq\n      tag_11\n      jumpi\n      jump(tag_2)\n    tag_16:\n      dup1\n      0x03100155\n      eq\n      tag_3\n      jumpi\n      dup1\n      0x0c03a1a3\n      eq\n      tag_4\n      jumpi\n      dup1\n      0x103347e7\n      eq\n      tag_5\n      jumpi\n      dup1\n      0x20e731a1\n      eq\n      tag_6\n      jumpi\n      dup1\n      0x28780a44\n      eq\n      tag_7\n      jumpi\n      dup1\n      0x2c9af64c\n      eq\n      tag_8\n      jumpi\n    tag_2:\n      0x00\n      dup1\n      revert\n        /* \"eth based/truffle/contracts/FLIR_Contract.sol\":390:404  uint public nC */\n    tag_3:\n      tag_18\n      tag_19\n      jump\t// in\n    tag_18:\n      mload(0x40)\n      tag_20\n      swap2\n      swap1\n      tag_21\n      jump\t// in\n    tag_20:\n      mload(0x40)\n      dup1\n      swap2\n      sub\n      swap1\n      return\n        /* \"eth based/truffle/contracts/FLIR_Contract.sol\":562:582  uint public btc5 = 7 */\n    tag_4:\n      tag_22\n      tag_23\n      jump\t// in\n    tag_22:\n      mload(0x40)\n      tag_24\n      swap2\n      swap1\n      tag_21\n      jump\t// in\n    tag_24:\n      mload(0x40)\n      dup1\n      swap2\n      sub\n      swap1\n      return\n        /* \"eth based/truffle/contracts/FLIR_Contract.sol\":536:556  uint public btc4 = 6 */\n    tag_5:\n      tag_25\n      tag_26\n      jump\t// in\n    tag_25:\n      mload(0x40)\n      tag_27\n      swap2\n      swap1\n      tag_21\n      jump\t// in\n    tag_27:\n      mload(0x40)\n      dup1\n      swap2\n      sub\n      swap1\n      return\n        /* \"eth based/truffle/contracts/FLIR_Contract.sol\":510:530  uint public btc3 = 5 */\n    tag_6:\n      tag_28\n      tag_29\n      jump\t// in\n    tag_28:\n      mload(0x40)\n      tag_30\n      swap2\n      swap1\n      tag_21\n      jump\t// in\n    tag_30:\n      mload(0x40)\n      dup1\n      swap2\n      sub\n      swap1\n      return\n        /* \"eth based/truffle/contracts/FLIR_Contract.sol\":484:504  uint public btc2 = 4 */\n    tag_7:\n      tag_31\n      tag_32\n      jump\t// in\n    tag_31:\n      mload(0x40)\n      tag_33\n      swap2\n      swap1\n      tag_21\n      jump\t// in\n    tag_33:\n      mload(0x40)\n      dup1\n      swap2\n      sub\n      swap1\n      return\n        /* \"eth based/truffle/contracts/FLIR_Contract.sol\":432:451  uint public btp = 3 */\n    tag_8:\n      tag_34\n      tag_35\n      jump\t// in\n    tag_34:\n      mload(0x40)\n      tag_36\n      swap2\n      swap1\n      tag_21\n      jump\t// in\n    tag_36:\n      mload(0x40)\n      dup1\n      swap2\n      sub\n      swap1\n      return\n        /* \"eth based/truffle/contracts/FLIR_Contract.sol\":370:384  uint public nP */\n    tag_9:\n      tag_37\n      tag_38\n      jump\t// in\n    tag_37:\n      mload(0x40)\n      tag_39\n      swap2\n      swap1\n      tag_21\n      jump\t// in\n    tag_39:\n      mload(0x40)\n      dup1\n      swap2\n      sub\n      swap1\n      return\n        /* \"eth based/truffle/contracts/FLIR_Contract.sol\":410:425  uint public nEV */\n    tag_10:\n      tag_40\n      tag_41\n      jump\t// in\n    tag_40:\n      mload(0x40)\n      tag_42\n      swap2\n      swap1\n      tag_21\n      jump\t// in\n    tag_42:\n      mload(0x40)\n      dup1\n      swap2\n      sub\n      swap1\n      return\n        /* \"eth based/truffle/contracts/FLIR_Contract.sol\":640:661  uint public btc8 = 10 */\n    tag_11:\n      tag_43\n      tag_44\n      jump\t// in\n    tag_43:\n      mload(0x40)\n      tag_45\n      swap2\n      swap1\n      tag_21\n      jump\t// in\n    tag_45:\n      mload(0x40)\n      dup1\n      swap2\n      sub\n      swap1\n      return\n        /* \"eth based/truffle/contracts/FLIR_Contract.sol\":588:608  uint public btc6 = 8 */\n    tag_12:\n      tag_46\n      tag_47\n      jump\t// in\n    tag_46:\n      mload(0x40)\n      tag_48\n      swap2\n      swap1\n      tag_21\n      jump\t// in\n    tag_48:\n      mload(0x40)\n      dup1\n      swap2\n      sub\n      swap1\n      return\n        /* \"eth based/truffle/contracts/FLIR_Contract.sol\":458:478  uint public btc1 = 3 */\n    tag_13:\n      tag_49\n      tag_50\n      jump\t// in\n    tag_49:\n      mload(0x40)\n      tag_51\n      swap2\n      swap1\n      tag_21\n      jump\t// in\n    tag_51:\n      mload(0x40)\n      dup1\n      swap2\n      sub\n      swap1\n      return\n        /* \"eth based/truffle/contracts/FLIR_Contract.sol\":614:634  uint public btc7 = 9 */\n    tag_14:\n      tag_52\n      tag_53\n      jump\t// in\n    tag_52:\n      mload(0x40)\n      tag_54\n      swap2\n      swap1\n      tag_21\n      jump\t// in\n    tag_54:\n      mload(0x40)\n      dup1\n      swap2\n      sub\n      swap1\n      return\n        /* \"eth based/truffle/contracts/FLIR_Contract.sol\":674:959  function getnPnCnEV(uint nPget, uint nCget,uint nEVget) public{... */\n    tag_15:\n      tag_55\n      0x04\n      dup1\n      calldatasize\n      sub\n      dup2\n      add\n      swap1\n      tag_56\n      swap2\n      swap1\n      tag_57\n      jump\t// in\n    tag_56:\n      tag_58\n      jump\t// in\n    tag_55:\n      stop\n        /* \"eth based/truffle/contracts/FLIR_Contract.sol\":390:404  uint public nC */\n    tag_19:\n      sload(0x03)\n      dup2\n      jump\t// out\n        /* \"eth based/truffle/contracts/FLIR_Contract.sol\":562:582  uint public btc5 = 7 */\n    tag_23:\n      sload(0x0a)\n      dup2\n      jump\t// out\n        /* \"eth based/truffle/contracts/FLIR_Contract.sol\":536:556  uint public btc4 = 6 */\n    tag_26:\n      sload(0x09)\n      dup2\n      jump\t// out\n        /* \"eth based/truffle/contracts/FLIR_Contract.sol\":510:530  uint public btc3 = 5 */\n    tag_29:\n      sload(0x08)\n      dup2\n      jump\t// out\n        /* \"eth based/truffle/contracts/FLIR_Contract.sol\":484:504  uint public btc2 = 4 */\n    tag_32:\n      sload(0x07)\n      dup2\n      jump\t// out\n        /* \"eth based/truffle/contracts/FLIR_Contract.sol\":432:451  uint public btp = 3 */\n    tag_35:\n      sload(0x05)\n      dup2\n      jump\t// out\n        /* \"eth based/truffle/contracts/FLIR_Contract.sol\":370:384  uint public nP */\n    tag_38:\n      sload(0x02)\n      dup2\n      jump\t// out\n        /* \"eth based/truffle/contracts/FLIR_Contract.sol\":410:425  uint public nEV */\n    tag_41:\n      sload(0x04)\n      dup2\n      jump\t// out\n        /* \"eth based/truffle/contracts/FLIR_Contract.sol\":640:661  uint public btc8 = 10 */\n    tag_44:\n      sload(0x0d)\n      dup2\n      jump\t// out\n        /* \"eth based/truffle/contracts/FLIR_Contract.sol\":588:608  uint public btc6 = 8 */\n    tag_47:\n      sload(0x0b)\n      dup2\n      jump\t// out\n        /* \"eth based/truffle/contracts/FLIR_Contract.sol\":458:478  uint public btc1 = 3 */\n    tag_50:\n      sload(0x06)\n      dup2\n      jump\t// out\n        /* \"eth based/truffle/contracts/FLIR_Contract.sol\":614:634  uint public btc7 = 9 */\n    tag_53:\n      sload(0x0c)\n      dup2\n      jump\t// out\n        /* \"eth based/truffle/contracts/FLIR_Contract.sol\":674:959  function getnPnCnEV(uint nPget, uint nCget,uint nEVget) public{... */\n    tag_58:\n        /* \"eth based/truffle/contracts/FLIR_Contract.sol\":760:765  nPget */\n      dup3\n        /* \"eth based/truffle/contracts/FLIR_Contract.sol\":755:757  nP */\n      0x02\n        /* \"eth based/truffle/contracts/FLIR_Contract.sol\":755:765  nP = nPget */\n      dup2\n      swap1\n      sstore\n      pop\n        /* \"eth based/truffle/contracts/FLIR_Contract.sol\":780:785  nCget */\n      dup2\n        /* \"eth based/truffle/contracts/FLIR_Contract.sol\":775:777  nC */\n      0x03\n        /* \"eth based/truffle/contracts/FLIR_Contract.sol\":775:785  nC = nCget */\n      dup2\n      swap1\n      sstore\n      pop\n        /* \"eth based/truffle/contracts/FLIR_Contract.sol\":801:807  nEVget */\n      dup1\n        /* \"eth based/truffle/contracts/FLIR_Contract.sol\":795:798  nEV */\n      0x04\n        /* \"eth based/truffle/contracts/FLIR_Contract.sol\":795:807  nEV = nEVget */\n      dup2\n      swap1\n      sstore\n      pop\n        /* \"eth based/truffle/contracts/FLIR_Contract.sol\":674:959  function getnPnCnEV(uint nPget, uint nCget,uint nEVget) public{... */\n      pop\n      pop\n      pop\n      jump\t// out\n        /* \"#utility.yul\":7:146   */\n    tag_61:\n        /* \"#utility.yul\":53:58   */\n      0x00\n        /* \"#utility.yul\":91:97   */\n      dup2\n        /* \"#utility.yul\":78:98   */\n      calldataload\n        /* \"#utility.yul\":69:98   */\n      swap1\n      pop\n        /* \"#utility.yul\":107:140   */\n      tag_63\n        /* \"#utility.yul\":134:139   */\n      dup2\n        /* \"#utility.yul\":107:140   */\n      tag_64\n      jump\t// in\n    tag_63:\n        /* \"#utility.yul\":7:146   */\n      swap3\n      swap2\n      pop\n      pop\n      jump\t// out\n        /* \"#utility.yul\":152:771   */\n    tag_57:\n        /* \"#utility.yul\":229:235   */\n      0x00\n        /* \"#utility.yul\":237:243   */\n      dup1\n        /* \"#utility.yul\":245:251   */\n      0x00\n        /* \"#utility.yul\":294:296   */\n      0x60\n        /* \"#utility.yul\":282:291   */\n      dup5\n        /* \"#utility.yul\":273:280   */\n      dup7\n        /* \"#utility.yul\":269:292   */\n      sub\n        /* \"#utility.yul\":265:297   */\n      slt\n        /* \"#utility.yul\":262:381   */\n      iszero\n      tag_66\n      jumpi\n        /* \"#utility.yul\":300:379   */\n      tag_67\n      tag_68\n      jump\t// in\n    tag_67:\n        /* \"#utility.yul\":262:381   */\n    tag_66:\n        /* \"#utility.yul\":420:421   */\n      0x00\n        /* \"#utility.yul\":445:498   */\n      tag_69\n        /* \"#utility.yul\":490:497   */\n      dup7\n        /* \"#utility.yul\":481:487   */\n      dup3\n        /* \"#utility.yul\":470:479   */\n      dup8\n        /* \"#utility.yul\":466:488   */\n      add\n        /* \"#utility.yul\":445:498   */\n      tag_61\n      jump\t// in\n    tag_69:\n        /* \"#utility.yul\":435:498   */\n      swap4\n      pop\n        /* \"#utility.yul\":391:508   */\n      pop\n        /* \"#utility.yul\":547:549   */\n      0x20\n        /* \"#utility.yul\":573:626   */\n      tag_70\n        /* \"#utility.yul\":618:625   */\n      dup7\n        /* \"#utility.yul\":609:615   */\n      dup3\n        /* \"#utility.yul\":598:607   */\n      dup8\n        /* \"#utility.yul\":594:616   */\n      add\n        /* \"#utility.yul\":573:626   */\n      tag_61\n      jump\t// in\n    tag_70:\n        /* \"#utility.yul\":563:626   */\n      swap3\n      pop\n        /* \"#utility.yul\":518:636   */\n      pop\n        /* \"#utility.yul\":675:677   */\n      0x40\n        /* \"#utility.yul\":701:754   */\n      tag_71\n        /* \"#utility.yul\":746:753   */\n      dup7\n        /* \"#utility.yul\":737:743   */\n      dup3\n        /* \"#utility.yul\":726:735   */\n      dup8\n        /* \"#utility.yul\":722:744   */\n      add\n        /* \"#utility.yul\":701:754   */\n      tag_61\n      jump\t// in\n    tag_71:\n        /* \"#utility.yul\":691:754   */\n      swap2\n      pop\n        /* \"#utility.yul\":646:764   */\n      pop\n        /* \"#utility.yul\":152:771   */\n      swap3\n      pop\n      swap3\n      pop\n      swap3\n      jump\t// out\n        /* \"#utility.yul\":777:895   */\n    tag_72:\n        /* \"#utility.yul\":864:888   */\n      tag_74\n        /* \"#utility.yul\":882:887   */\n      dup2\n        /* \"#utility.yul\":864:888   */\n      tag_75\n      jump\t// in\n    tag_74:\n        /* \"#utility.yul\":859:862   */\n      dup3\n        /* \"#utility.yul\":852:889   */\n      mstore\n        /* \"#utility.yul\":777:895   */\n      pop\n      pop\n      jump\t// out\n        /* \"#utility.yul\":901:1123   */\n    tag_21:\n        /* \"#utility.yul\":994:998   */\n      0x00\n        /* \"#utility.yul\":1032:1034   */\n      0x20\n        /* \"#utility.yul\":1021:1030   */\n      dup3\n        /* \"#utility.yul\":1017:1035   */\n      add\n        /* \"#utility.yul\":1009:1035   */\n      swap1\n      pop\n        /* \"#utility.yul\":1045:1116   */\n      tag_77\n        /* \"#utility.yul\":1113:1114   */\n      0x00\n        /* \"#utility.yul\":1102:1111   */\n      dup4\n        /* \"#utility.yul\":1098:1115   */\n      add\n        /* \"#utility.yul\":1089:1095   */\n      dup5\n        /* \"#utility.yul\":1045:1116   */\n      tag_72\n      jump\t// in\n    tag_77:\n        /* \"#utility.yul\":901:1123   */\n      swap3\n      swap2\n      pop\n      pop\n      jump\t// out\n        /* \"#utility.yul\":1210:1287   */\n    tag_75:\n        /* \"#utility.yul\":1247:1254   */\n      0x00\n        /* \"#utility.yul\":1276:1281   */\n      dup2\n        /* \"#utility.yul\":1265:1281   */\n      swap1\n      pop\n        /* \"#utility.yul\":1210:1287   */\n      swap2\n      swap1\n      pop\n      jump\t// out\n        /* \"#utility.yul\":1416:1533   */\n    tag_68:\n        /* \"#utility.yul\":1525:1526   */\n      0x00\n        /* \"#utility.yul\":1522:1523   */\n      dup1\n        /* \"#utility.yul\":1515:1527   */\n      revert\n        /* \"#utility.yul\":1539:1661   */\n    tag_64:\n        /* \"#utility.yul\":1612:1636   */\n      tag_85\n        /* \"#utility.yul\":1630:1635   */\n      dup2\n        /* \"#utility.yul\":1612:1636   */\n      tag_75\n      jump\t// in\n    tag_85:\n        /* \"#utility.yul\":1605:1610   */\n      dup2\n        /* \"#utility.yul\":1602:1637   */\n      eq\n        /* \"#utility.yul\":1592:1655   */\n      tag_86\n      jumpi\n        /* \"#utility.yul\":1651:1652   */\n      0x00\n        /* \"#utility.yul\":1648:1649   */\n      dup1\n        /* \"#utility.yul\":1641:1653   */\n      revert\n        /* \"#utility.yul\":1592:1655   */\n    tag_86:\n        /* \"#utility.yul\":1539:1661   */\n      pop\n      jump\t// out\n\n    auxdata: 0xa264697066735822122055b874c324e738f43d7b1a79ef13a01c4a9bef33ca294d546c77c3a476c2b91764736f6c63430008070033\n}\n",
				"bytecode": {
					"linkReferences": {},
					"object": "6080604052600360055560036006556004600755600560085560066009556007600a556008600b556009600c55600a600d5534801561003d57600080fd5b506103a88061004d6000396000f3fe608060405234801561001057600080fd5b50600436106100cf5760003560e01c80635b6e3cf01161008c578063b4ad7fa911610066578063b4ad7fa9146101e2578063c2c496ec14610200578063ed2fa5ab1461021e578063f02e48c31461023c576100cf565b80635b6e3cf0146101885780637c3084cc146101a6578063a8bdb68b146101c4576100cf565b806303100155146100d45780630c03a1a3146100f2578063103347e71461011057806320e731a11461012e57806328780a441461014c5780632c9af64c1461016a575b600080fd5b6100dc610258565b6040516100e99190610331565b60405180910390f35b6100fa61025e565b6040516101079190610331565b60405180910390f35b610118610264565b6040516101259190610331565b60405180910390f35b61013661026a565b6040516101439190610331565b60405180910390f35b610154610270565b6040516101619190610331565b60405180910390f35b610172610276565b60405161017f9190610331565b60405180910390f35b61019061027c565b60405161019d9190610331565b60405180910390f35b6101ae610282565b6040516101bb9190610331565b60405180910390f35b6101cc610288565b6040516101d99190610331565b60405180910390f35b6101ea61028e565b6040516101f79190610331565b60405180910390f35b610208610294565b6040516102159190610331565b60405180910390f35b61022661029a565b6040516102339190610331565b60405180910390f35b610256600480360381019061025191906102cf565b6102a0565b005b60035481565b600a5481565b60095481565b60085481565b60075481565b60055481565b60025481565b60045481565b600d5481565b600b5481565b60065481565b600c5481565b826002819055508160038190555080600481905550505050565b6000813590506102c98161035b565b92915050565b6000806000606084860312156102e8576102e7610356565b5b60006102f6868287016102ba565b9350506020610307868287016102ba565b9250506040610318868287016102ba565b9150509250925092565b61032b8161034c565b82525050565b60006020820190506103466000830184610322565b92915050565b6000819050919050565b600080fd5b6103648161034c565b811461036f57600080fd5b5056fea264697066735822122055b874c324e738f43d7b1a79ef13a01c4a9bef33ca294d546c77c3a476c2b91764736f6c63430008070033",
					"opcodes": "PUSH1 0x80 PUSH1 0x40 MSTORE PUSH1 0x3 PUSH1 0x5 SSTORE PUSH1 0x3 PUSH1 0x6 SSTORE PUSH1 0x4 PUSH1 0x7 SSTORE PUSH1 0x5 PUSH1 0x8 SSTORE PUSH1 0x6 PUSH1 0x9 SSTORE PUSH1 0x7 PUSH1 0xA SSTORE PUSH1 0x8 PUSH1 0xB SSTORE PUSH1 0x9 PUSH1 0xC SSTORE PUSH1 0xA PUSH1 0xD SSTORE CALLVALUE DUP1 ISZERO PUSH2 0x3D JUMPI PUSH1 0x0 DUP1 REVERT JUMPDEST POP PUSH2 0x3A8 DUP1 PUSH2 0x4D PUSH1 0x0 CODECOPY PUSH1 0x0 RETURN INVALID PUSH1 0x80 PUSH1 0x40 MSTORE CALLVALUE DUP1 ISZERO PUSH2 0x10 JUMPI PUSH1 0x0 DUP1 REVERT JUMPDEST POP PUSH1 0x4 CALLDATASIZE LT PUSH2 0xCF JUMPI PUSH1 0x0 CALLDATALOAD PUSH1 0xE0 SHR DUP1 PUSH4 0x5B6E3CF0 GT PUSH2 0x8C JUMPI DUP1 PUSH4 0xB4AD7FA9 GT PUSH2 0x66 JUMPI DUP1 PUSH4 0xB4AD7FA9 EQ PUSH2 0x1E2 JUMPI DUP1 PUSH4 0xC2C496EC EQ PUSH2 0x200 JUMPI DUP1 PUSH4 0xED2FA5AB EQ PUSH2 0x21E JUMPI DUP1 PUSH4 0xF02E48C3 EQ PUSH2 0x23C JUMPI PUSH2 0xCF JUMP JUMPDEST DUP1 PUSH4 0x5B6E3CF0 EQ PUSH2 0x188 JUMPI DUP1 PUSH4 0x7C3084CC EQ PUSH2 0x1A6 JUMPI DUP1 PUSH4 0xA8BDB68B EQ PUSH2 0x1C4 JUMPI PUSH2 0xCF JUMP JUMPDEST DUP1 PUSH4 0x3100155 EQ PUSH2 0xD4 JUMPI DUP1 PUSH4 0xC03A1A3 EQ PUSH2 0xF2 JUMPI DUP1 PUSH4 0x103347E7 EQ PUSH2 0x110 JUMPI DUP1 PUSH4 0x20E731A1 EQ PUSH2 0x12E JUMPI DUP1 PUSH4 0x28780A44 EQ PUSH2 0x14C JUMPI DUP1 PUSH4 0x2C9AF64C EQ PUSH2 0x16A JUMPI JUMPDEST PUSH1 0x0 DUP1 REVERT JUMPDEST PUSH2 0xDC PUSH2 0x258 JUMP JUMPDEST PUSH1 0x40 MLOAD PUSH2 0xE9 SWAP2 SWAP1 PUSH2 0x331 JUMP JUMPDEST PUSH1 0x40 MLOAD DUP1 SWAP2 SUB SWAP1 RETURN JUMPDEST PUSH2 0xFA PUSH2 0x25E JUMP JUMPDEST PUSH1 0x40 MLOAD PUSH2 0x107 SWAP2 SWAP1 PUSH2 0x331 JUMP JUMPDEST PUSH1 0x40 MLOAD DUP1 SWAP2 SUB SWAP1 RETURN JUMPDEST PUSH2 0x118 PUSH2 0x264 JUMP JUMPDEST PUSH1 0x40 MLOAD PUSH2 0x125 SWAP2 SWAP1 PUSH2 0x331 JUMP JUMPDEST PUSH1 0x40 MLOAD DUP1 SWAP2 SUB SWAP1 RETURN JUMPDEST PUSH2 0x136 PUSH2 0x26A JUMP JUMPDEST PUSH1 0x40 MLOAD PUSH2 0x143 SWAP2 SWAP1 PUSH2 0x331 JUMP JUMPDEST PUSH1 0x40 MLOAD DUP1 SWAP2 SUB SWAP1 RETURN JUMPDEST PUSH2 0x154 PUSH2 0x270 JUMP JUMPDEST PUSH1 0x40 MLOAD PUSH2 0x161 SWAP2 SWAP1 PUSH2 0x331 JUMP JUMPDEST PUSH1 0x40 MLOAD DUP1 SWAP2 SUB SWAP1 RETURN JUMPDEST PUSH2 0x172 PUSH2 0x276 JUMP JUMPDEST PUSH1 0x40 MLOAD PUSH2 0x17F SWAP2 SWAP1 PUSH2 0x331 JUMP JUMPDEST PUSH1 0x40 MLOAD DUP1 SWAP2 SUB SWAP1 RETURN JUMPDEST PUSH2 0x190 PUSH2 0x27C JUMP JUMPDEST PUSH1 0x40 MLOAD PUSH2 0x19D SWAP2 SWAP1 PUSH2 0x331 JUMP JUMPDEST PUSH1 0x40 MLOAD DUP1 SWAP2 SUB SWAP1 RETURN JUMPDEST PUSH2 0x1AE PUSH2 0x282 JUMP JUMPDEST PUSH1 0x40 MLOAD PUSH2 0x1BB SWAP2 SWAP1 PUSH2 0x331 JUMP JUMPDEST PUSH1 0x40 MLOAD DUP1 SWAP2 SUB SWAP1 RETURN JUMPDEST PUSH2 0x1CC PUSH2 0x288 JUMP JUMPDEST PUSH1 0x40 MLOAD PUSH2 0x1D9 SWAP2 SWAP1 PUSH2 0x331 JUMP JUMPDEST PUSH1 0x40 MLOAD DUP1 SWAP2 SUB SWAP1 RETURN JUMPDEST PUSH2 0x1EA PUSH2 0x28E JUMP JUMPDEST PUSH1 0x40 MLOAD PUSH2 0x1F7 SWAP2 SWAP1 PUSH2 0x331 JUMP JUMPDEST PUSH1 0x40 MLOAD DUP1 SWAP2 SUB SWAP1 RETURN JUMPDEST PUSH2 0x208 PUSH2 0x294 JUMP JUMPDEST PUSH1 0x40 MLOAD PUSH2 0x215 SWAP2 SWAP1 PUSH2 0x331 JUMP JUMPDEST PUSH1 0x40 MLOAD DUP1 SWAP2 SUB SWAP1 RETURN JUMPDEST PUSH2 0x226 PUSH2 0x29A JUMP JUMPDEST PUSH1 0x40 MLOAD PUSH2 0x233 SWAP2 SWAP1 PUSH2 0x331 JUMP JUMPDEST PUSH1 0x40 MLOAD DUP1 SWAP2 SUB SWAP1 RETURN JUMPDEST PUSH2 0x256 PUSH1 0x4 DUP1 CALLDATASIZE SUB DUP2 ADD SWAP1 PUSH2 0x251 SWAP2 SWAP1 PUSH2 0x2CF JUMP JUMPDEST PUSH2 0x2A0 JUMP JUMPDEST STOP JUMPDEST PUSH1 0x3 SLOAD DUP2 JUMP JUMPDEST PUSH1 0xA SLOAD DUP2 JUMP JUMPDEST PUSH1 0x9 SLOAD DUP2 JUMP JUMPDEST PUSH1 0x8 SLOAD DUP2 JUMP JUMPDEST PUSH1 0x7 SLOAD DUP2 JUMP JUMPDEST PUSH1 0x5 SLOAD DUP2 JUMP JUMPDEST PUSH1 0x2 SLOAD DUP2 JUMP JUMPDEST PUSH1 0x4 SLOAD DUP2 JUMP JUMPDEST PUSH1 0xD SLOAD DUP2 JUMP JUMPDEST PUSH1 0xB SLOAD DUP2 JUMP JUMPDEST PUSH1 0x6 SLOAD DUP2 JUMP JUMPDEST PUSH1 0xC SLOAD DUP2 JUMP JUMPDEST DUP3 PUSH1 0x2 DUP2 SWAP1 SSTORE POP DUP2 PUSH1 0x3 DUP2 SWAP1 SSTORE POP DUP1 PUSH1 0x4 DUP2 SWAP1 SSTORE POP POP POP POP JUMP JUMPDEST PUSH1 0x0 DUP2 CALLDATALOAD SWAP1 POP PUSH2 0x2C9 DUP2 PUSH2 0x35B JUMP JUMPDEST SWAP3 SWAP2 POP POP JUMP JUMPDEST PUSH1 0x0 DUP1 PUSH1 0x0 PUSH1 0x60 DUP5 DUP7 SUB SLT ISZERO PUSH2 0x2E8 JUMPI PUSH2 0x2E7 PUSH2 0x356 JUMP JUMPDEST JUMPDEST PUSH1 0x0 PUSH2 0x2F6 DUP7 DUP3 DUP8 ADD PUSH2 0x2BA JUMP JUMPDEST SWAP4 POP POP PUSH1 0x20 PUSH2 0x307 DUP7 DUP3 DUP8 ADD PUSH2 0x2BA JUMP JUMPDEST SWAP3 POP POP PUSH1 0x40 PUSH2 0x318 DUP7 DUP3 DUP8 ADD PUSH2 0x2BA JUMP JUMPDEST SWAP2 POP POP SWAP3 POP SWAP3 POP SWAP3 JUMP JUMPDEST PUSH2 0x32B DUP2 PUSH2 0x34C JUMP JUMPDEST DUP3 MSTORE POP POP JUMP JUMPDEST PUSH1 0x0 PUSH1 0x20 DUP3 ADD SWAP1 POP PUSH2 0x346 PUSH1 0x0 DUP4 ADD DUP5 PUSH2 0x322 JUMP JUMPDEST SWAP3 SWAP2 POP POP JUMP JUMPDEST PUSH1 0x0 DUP2 SWAP1 POP SWAP2 SWAP1 POP JUMP JUMPDEST PUSH1 0x0 DUP1 REVERT JUMPDEST PUSH2 0x364 DUP2 PUSH2 0x34C JUMP JUMPDEST DUP2 EQ PUSH2 0x36F JUMPI PUSH1 0x0 DUP1 REVERT JUMPDEST POP JUMP INVALID LOG2 PUSH5 0x6970667358 0x22 SLT KECCAK256 SSTORE 0xB8 PUSH21 0xC324E738F43D7B1A79EF13A01C4A9BEF33CA294D54 PUSH13 0x77C3A476C2B91764736F6C6343 STOP ADDMOD SMOD STOP CALLER "
				},
				"gasEstimates": {
					"creation": {
						"codeDepositCost": "187200",
						"executionCost": "199186",
						"totalCost": "386386"
					},
					"external": {
						"btc1()": "2473",
						"btc2()": "2518",
						"btc3()": "2496",
						"btc4()": "2474",
						"btc5()": "2452",
						"btc6()": "2451",
						"btc7()": "2495",
						"btc8()": "2496",
						"btp()": "2540",
						"getnPnCnEV(uint256,uint256,uint256)": "infinite",
						"nC()": "2430",
						"nEV()": "2474",
						"nP()": "2452"
					}
				},
				"methodIdentifiers": {
					"btc1()": "c2c496ec",
					"btc2()": "28780a44",
					"btc3()": "20e731a1",
					"btc4()": "103347e7",
					"btc5()": "0c03a1a3",
					"btc6()": "b4ad7fa9",
					"btc7()": "ed2fa5ab",
					"btc8()": "a8bdb68b",
					"btp()": "2c9af64c",
					"getnPnCnEV(uint256,uint256,uint256)": "f02e48c3",
					"nC()": "03100155",
					"nEV()": "7c3084cc",
					"nP()": "5b6e3cf0"
				}
			},
			"storageLayout": {
				"storage": [
					{
						"astId": 5,
						"contract": "eth based/truffle/contracts/FLIR_Contract.sol:FLIRContract",
						"label": "balaces",
						"offset": 0,
						"slot": "0",
						"type": "t_mapping(t_address,t_uint256)"
					},
					{
						"astId": 10,
						"contract": "eth based/truffle/contracts/FLIR_Contract.sol:FLIRContract",
						"label": "roles",
						"offset": 0,
						"slot": "1",
						"type": "t_mapping(t_address,t_enum(role)15)"
					},
					{
						"astId": 17,
						"contract": "eth based/truffle/contracts/FLIR_Contract.sol:FLIRContract",
						"label": "nP",
						"offset": 0,
						"slot": "2",
						"type": "t_uint256"
					},
					{
						"astId": 19,
						"contract": "eth based/truffle/contracts/FLIR_Contract.sol:FLIRContract",
						"label": "nC",
						"offset": 0,
						"slot": "3",
						"type": "t_uint256"
					},
					{
						"astId": 21,
						"contract": "eth based/truffle/contracts/FLIR_Contract.sol:FLIRContract",
						"label": "nEV",
						"offset": 0,
						"slot": "4",
						"type": "t_uint256"
					},
					{
						"astId": 24,
						"contract": "eth based/truffle/contracts/FLIR_Contract.sol:FLIRContract",
						"label": "btp",
						"offset": 0,
						"slot": "5",
						"type": "t_uint256"
					},
					{
						"astId": 27,
						"contract": "eth based/truffle/contracts/FLIR_Contract.sol:FLIRContract",
						"label": "btc1",
						"offset": 0,
						"slot": "6",
						"type": "t_uint256"
					},
					{
						"astId": 30,
						"contract": "eth based/truffle/contracts/FLIR_Contract.sol:FLIRContract",
						"label": "btc2",
						"offset": 0,
						"slot": "7",
						"type": "t_uint256"
					},
					{
						"astId": 33,
						"contract": "eth based/truffle/contracts/FLIR_Contract.sol:FLIRContract",
						"label": "btc3",
						"offset": 0,
						"slot": "8",
						"type": "t_uint256"
					},
					{
						"astId": 36,
						"contract": "eth based/truffle/contracts/FLIR_Contract.sol:FLIRContract",
						"label": "btc4",
						"offset": 0,
						"slot": "9",
						"type": "t_uint256"
					},
					{
						"astId": 39,
						"contract": "eth based/truffle/contracts/FLIR_Contract.sol:FLIRContract",
						"label": "btc5",
						"offset": 0,
						"slot": "10",
						"type": "t_uint256"
					},
					{
						"astId": 42,
						"contract": "eth based/truffle/contracts/FLIR_Contract.sol:FLIRContract",
						"label": "btc6",
						"offset": 0,
						"slot": "11",
						"type": "t_uint256"
					},
					{
						"astId": 45,
						"contract": "eth based/truffle/contracts/FLIR_Contract.sol:FLIRContract",
						"label": "btc7",
						"offset": 0,
						"slot": "12",
						"type": "t_uint256"
					},
					{
						"astId": 48,
						"contract": "eth based/truffle/contracts/FLIR_Contract.sol:FLIRContract",
						"label": "btc8",
						"offset": 0,
						"slot": "13",
						"type": "t_uint256"
					}
				],
				"types": {
					"t_address": {
						"encoding": "inplace",
						"label": "address",
						"numberOfBytes": "20"
					},
					"t_enum(role)15": {
						"encoding": "inplace",
						"label": "enum FLIRContract.role",
						"numberOfBytes": "1"
					},
					"t_mapping(t_address,t_enum(role)15)": {
						"encoding": "mapping",
						"key": "t_address",
						"label": "mapping(address => enum FLIRContract.role)",
						"numberOfBytes": "32",
						"value": "t_enum(role)15"
					},
					"t_mapping(t_address,t_uint256)": {
						"encoding": "mapping",
						"key": "t_address",
						"label": "mapping(address => uint256)",
						"numberOfBytes": "32",
						"value": "t_uint256"
					},
					"t_uint256": {
						"encoding": "inplace",
						"label": "uint256",
						"numberOfBytes": "32"
					}
				}
			},
			"userdoc": {
				"kind": "user",
				"methods": {},
				"version": 1
			}
		}
	}
}