{
	"eth based/truffle/contracts/FLIR_Contract.sol": {
		"FLIRContract": {
			"abi": [
				{
					"inputs": [],
					"name": "balCheck",
					"outputs": [],
					"stateMutability": "payable",
					"type": "function"
				},
				{
					"inputs": [],
					"name": "balance",
					"outputs": [
						{
							"internalType": "uint256",
							"name": "",
							"type": "uint256"
						}
					],
					"stateMutability": "view",
					"type": "function"
				},
				{
					"inputs": [],
					"name": "btc1",
					"outputs": [
						{
							"internalType": "uint256",
							"name": "",
							"type": "uint256"
						}
					],
					"stateMutability": "view",
					"type": "function"
				},
				{
					"inputs": [],
					"name": "btc2",
					"outputs": [
						{
							"internalType": "uint256",
							"name": "",
							"type": "uint256"
						}
					],
					"stateMutability": "view",
					"type": "function"
				},
				{
					"inputs": [],
					"name": "btc3",
					"outputs": [
						{
							"internalType": "uint256",
							"name": "",
							"type": "uint256"
						}
					],
					"stateMutability": "view",
					"type": "function"
				},
				{
					"inputs": [],
					"name": "btc4",
					"outputs": [
						{
							"internalType": "uint256",
							"name": "",
							"type": "uint256"
						}
					],
					"stateMutability": "view",
					"type": "function"
				},
				{
					"inputs": [],
					"name": "btc5",
					"outputs": [
						{
							"internalType": "uint256",
							"name": "",
							"type": "uint256"
						}
					],
					"stateMutability": "view",
					"type": "function"
				},
				{
					"inputs": [],
					"name": "btc6",
					"outputs": [
						{
							"internalType": "uint256",
							"name": "",
							"type": "uint256"
						}
					],
					"stateMutability": "view",
					"type": "function"
				},
				{
					"inputs": [],
					"name": "btc7",
					"outputs": [
						{
							"internalType": "uint256",
							"name": "",
							"type": "uint256"
						}
					],
					"stateMutability": "view",
					"type": "function"
				},
				{
					"inputs": [],
					"name": "btc8",
					"outputs": [
						{
							"internalType": "uint256",
							"name": "",
							"type": "uint256"
						}
					],
					"stateMutability": "view",
					"type": "function"
				},
				{
					"inputs": [],
					"name": "btp",
					"outputs": [
						{
							"internalType": "uint256",
							"name": "",
							"type": "uint256"
						}
					],
					"stateMutability": "view",
					"type": "function"
				},
				{
					"inputs": [
						{
							"internalType": "address",
							"name": "_balanceCheck",
							"type": "address"
						}
					],
					"name": "getBalance",
					"outputs": [
						{
							"internalType": "uint256",
							"name": "bal",
							"type": "uint256"
						}
					],
					"stateMutability": "nonpayable",
					"type": "function"
				},
				{
					"inputs": [
						{
							"internalType": "uint256",
							"name": "Cimp",
							"type": "uint256"
						}
					],
					"name": "getConsumerTariff",
					"outputs": [
						{
							"internalType": "uint256",
							"name": "Tc",
							"type": "uint256"
						}
					],
					"stateMutability": "nonpayable",
					"type": "function"
				},
				{
					"inputs": [
						{
							"internalType": "uint256",
							"name": "Pexp",
							"type": "uint256"
						}
					],
					"name": "getProsumerTariff",
					"outputs": [
						{
							"internalType": "uint256",
							"name": "Tp",
							"type": "uint256"
						}
					],
					"stateMutability": "nonpayable",
					"type": "function"
				},
				{
					"inputs": [
						{
							"internalType": "uint256",
							"name": "nPget",
							"type": "uint256"
						},
						{
							"internalType": "uint256",
							"name": "nCget",
							"type": "uint256"
						},
						{
							"internalType": "uint256",
							"name": "nEVget",
							"type": "uint256"
						}
					],
					"name": "getnPnCnEV",
					"outputs": [
						{
							"internalType": "uint256",
							"name": "nP",
							"type": "uint256"
						},
						{
							"internalType": "uint256",
							"name": "nC",
							"type": "uint256"
						},
						{
							"internalType": "uint256",
							"name": "nEV",
							"type": "uint256"
						}
					],
					"stateMutability": "nonpayable",
					"type": "function"
				},
				{
					"inputs": [],
					"name": "manager",
					"outputs": [
						{
							"internalType": "address",
							"name": "",
							"type": "address"
						}
					],
					"stateMutability": "view",
					"type": "function"
				},
				{
					"inputs": [
						{
							"internalType": "uint256",
							"name": "",
							"type": "uint256"
						}
					],
					"name": "seller",
					"outputs": [
						{
							"internalType": "address",
							"name": "",
							"type": "address"
						}
					],
					"stateMutability": "view",
					"type": "function"
				},
				{
					"inputs": [
						{
							"internalType": "address payable",
							"name": "_receiver",
							"type": "address"
						},
						{
							"internalType": "uint256",
							"name": "amount",
							"type": "uint256"
						}
					],
					"name": "send",
					"outputs": [],
					"stateMutability": "payable",
					"type": "function"
				}
			],
			"devdoc": {
				"kind": "dev",
				"methods": {},
				"version": 1
			},
			"evm": {
				"assembly": "    /* \"eth based/truffle/contracts/FLIR_Contract.sol\":129:3921  contract FLIRContract{... */\n  mstore(0x40, 0x80)\n    /* \"eth based/truffle/contracts/FLIR_Contract.sol\":742:743  0 */\n  0x00\n    /* \"eth based/truffle/contracts/FLIR_Contract.sol\":720:743  uint public balance = 0 */\n  0x12\n  sstore\n    /* \"eth based/truffle/contracts/FLIR_Contract.sol\":908:909  3 */\n  0x03\n    /* \"eth based/truffle/contracts/FLIR_Contract.sol\":890:909  uint public btp = 3 */\n  0x13\n  sstore\n    /* \"eth based/truffle/contracts/FLIR_Contract.sol\":935:936  3 */\n  0x03\n    /* \"eth based/truffle/contracts/FLIR_Contract.sol\":916:936  uint public btc1 = 3 */\n  0x14\n  sstore\n    /* \"eth based/truffle/contracts/FLIR_Contract.sol\":961:962  4 */\n  0x04\n    /* \"eth based/truffle/contracts/FLIR_Contract.sol\":942:962  uint public btc2 = 4 */\n  0x15\n  sstore\n    /* \"eth based/truffle/contracts/FLIR_Contract.sol\":987:988  5 */\n  0x05\n    /* \"eth based/truffle/contracts/FLIR_Contract.sol\":968:988  uint public btc3 = 5 */\n  0x16\n  sstore\n    /* \"eth based/truffle/contracts/FLIR_Contract.sol\":1013:1014  6 */\n  0x06\n    /* \"eth based/truffle/contracts/FLIR_Contract.sol\":994:1014  uint public btc4 = 6 */\n  0x17\n  sstore\n    /* \"eth based/truffle/contracts/FLIR_Contract.sol\":1039:1040  7 */\n  0x07\n    /* \"eth based/truffle/contracts/FLIR_Contract.sol\":1020:1040  uint public btc5 = 7 */\n  0x18\n  sstore\n    /* \"eth based/truffle/contracts/FLIR_Contract.sol\":1065:1066  8 */\n  0x08\n    /* \"eth based/truffle/contracts/FLIR_Contract.sol\":1046:1066  uint public btc6 = 8 */\n  0x19\n  sstore\n    /* \"eth based/truffle/contracts/FLIR_Contract.sol\":1091:1092  9 */\n  0x09\n    /* \"eth based/truffle/contracts/FLIR_Contract.sol\":1072:1092  uint public btc7 = 9 */\n  0x1a\n  sstore\n    /* \"eth based/truffle/contracts/FLIR_Contract.sol\":1117:1119  10 */\n  0x0a\n    /* \"eth based/truffle/contracts/FLIR_Contract.sol\":1098:1119  uint public btc8 = 10 */\n  0x1b\n  sstore\n    /* \"eth based/truffle/contracts/FLIR_Contract.sol\":129:3921  contract FLIRContract{... */\n  callvalue\n  dup1\n  iszero\n  tag_1\n  jumpi\n  0x00\n  dup1\n  revert\ntag_1:\n  pop\n  dataSize(sub_0)\n  dup1\n  dataOffset(sub_0)\n  0x00\n  codecopy\n  0x00\n  return\nstop\n\nsub_0: assembly {\n        /* \"eth based/truffle/contracts/FLIR_Contract.sol\":129:3921  contract FLIRContract{... */\n      mstore(0x40, 0x80)\n      jumpi(tag_1, lt(calldatasize, 0x04))\n      shr(0xe0, calldataload(0x00))\n      dup1\n      0xa8bdb68b\n      gt\n      tag_20\n      jumpi\n      dup1\n      0xc2c496ec\n      gt\n      tag_21\n      jumpi\n      dup1\n      0xc2c496ec\n      eq\n      tag_15\n      jumpi\n      dup1\n      0xd0679d34\n      eq\n      tag_16\n      jumpi\n      dup1\n      0xed2fa5ab\n      eq\n      tag_17\n      jumpi\n      dup1\n      0xf02e48c3\n      eq\n      tag_18\n      jumpi\n      dup1\n      0xf8b2cb4f\n      eq\n      tag_19\n      jumpi\n      jump(tag_1)\n    tag_21:\n      dup1\n      0xa8bdb68b\n      eq\n      tag_11\n      jumpi\n      dup1\n      0xaacdfe6f\n      eq\n      tag_12\n      jumpi\n      dup1\n      0xb4ad7fa9\n      eq\n      tag_13\n      jumpi\n      dup1\n      0xb69ef8a8\n      eq\n      tag_14\n      jumpi\n      jump(tag_1)\n    tag_20:\n      dup1\n      0x2c9af64c\n      gt\n      tag_22\n      jumpi\n      dup1\n      0x2c9af64c\n      eq\n      tag_6\n      jumpi\n      dup1\n      0x481c6a75\n      eq\n      tag_7\n      jumpi\n      dup1\n      0x5c8f6b56\n      eq\n      tag_8\n      jumpi\n      dup1\n      0x721028ec\n      eq\n      tag_9\n      jumpi\n      dup1\n      0x7c134b14\n      eq\n      tag_10\n      jumpi\n      jump(tag_1)\n    tag_22:\n      dup1\n      0x0c03a1a3\n      eq\n      tag_2\n      jumpi\n      dup1\n      0x103347e7\n      eq\n      tag_3\n      jumpi\n      dup1\n      0x20e731a1\n      eq\n      tag_4\n      jumpi\n      dup1\n      0x28780a44\n      eq\n      tag_5\n      jumpi\n    tag_1:\n      0x00\n      dup1\n      revert\n        /* \"eth based/truffle/contracts/FLIR_Contract.sol\":1020:1040  uint public btc5 = 7 */\n    tag_2:\n      callvalue\n      dup1\n      iszero\n      tag_23\n      jumpi\n      0x00\n      dup1\n      revert\n    tag_23:\n      pop\n      tag_24\n      tag_25\n      jump\t// in\n    tag_24:\n      mload(0x40)\n      tag_26\n      swap2\n      swap1\n      tag_27\n      jump\t// in\n    tag_26:\n      mload(0x40)\n      dup1\n      swap2\n      sub\n      swap1\n      return\n        /* \"eth based/truffle/contracts/FLIR_Contract.sol\":994:1014  uint public btc4 = 6 */\n    tag_3:\n      callvalue\n      dup1\n      iszero\n      tag_28\n      jumpi\n      0x00\n      dup1\n      revert\n    tag_28:\n      pop\n      tag_29\n      tag_30\n      jump\t// in\n    tag_29:\n      mload(0x40)\n      tag_31\n      swap2\n      swap1\n      tag_27\n      jump\t// in\n    tag_31:\n      mload(0x40)\n      dup1\n      swap2\n      sub\n      swap1\n      return\n        /* \"eth based/truffle/contracts/FLIR_Contract.sol\":968:988  uint public btc3 = 5 */\n    tag_4:\n      callvalue\n      dup1\n      iszero\n      tag_32\n      jumpi\n      0x00\n      dup1\n      revert\n    tag_32:\n      pop\n      tag_33\n      tag_34\n      jump\t// in\n    tag_33:\n      mload(0x40)\n      tag_35\n      swap2\n      swap1\n      tag_27\n      jump\t// in\n    tag_35:\n      mload(0x40)\n      dup1\n      swap2\n      sub\n      swap1\n      return\n        /* \"eth based/truffle/contracts/FLIR_Contract.sol\":942:962  uint public btc2 = 4 */\n    tag_5:\n      callvalue\n      dup1\n      iszero\n      tag_36\n      jumpi\n      0x00\n      dup1\n      revert\n    tag_36:\n      pop\n      tag_37\n      tag_38\n      jump\t// in\n    tag_37:\n      mload(0x40)\n      tag_39\n      swap2\n      swap1\n      tag_27\n      jump\t// in\n    tag_39:\n      mload(0x40)\n      dup1\n      swap2\n      sub\n      swap1\n      return\n        /* \"eth based/truffle/contracts/FLIR_Contract.sol\":890:909  uint public btp = 3 */\n    tag_6:\n      callvalue\n      dup1\n      iszero\n      tag_40\n      jumpi\n      0x00\n      dup1\n      revert\n    tag_40:\n      pop\n      tag_41\n      tag_42\n      jump\t// in\n    tag_41:\n      mload(0x40)\n      tag_43\n      swap2\n      swap1\n      tag_27\n      jump\t// in\n    tag_43:\n      mload(0x40)\n      dup1\n      swap2\n      sub\n      swap1\n      return\n        /* \"eth based/truffle/contracts/FLIR_Contract.sol\":175:197  address public manager */\n    tag_7:\n      callvalue\n      dup1\n      iszero\n      tag_44\n      jumpi\n      0x00\n      dup1\n      revert\n    tag_44:\n      pop\n      tag_45\n      tag_46\n      jump\t// in\n    tag_45:\n      mload(0x40)\n      tag_47\n      swap2\n      swap1\n      tag_48\n      jump\t// in\n    tag_47:\n      mload(0x40)\n      dup1\n      swap2\n      sub\n      swap1\n      return\n        /* \"eth based/truffle/contracts/FLIR_Contract.sol\":1462:1577  function getProsumerTariff(uint Pexp) public returns (uint Tp){... */\n    tag_8:\n      callvalue\n      dup1\n      iszero\n      tag_49\n      jumpi\n      0x00\n      dup1\n      revert\n    tag_49:\n      pop\n      tag_50\n      0x04\n      dup1\n      calldatasize\n      sub\n      dup2\n      add\n      swap1\n      tag_51\n      swap2\n      swap1\n      tag_52\n      jump\t// in\n    tag_51:\n      tag_53\n      jump\t// in\n    tag_50:\n      mload(0x40)\n      tag_54\n      swap2\n      swap1\n      tag_27\n      jump\t// in\n    tag_54:\n      mload(0x40)\n      dup1\n      swap2\n      sub\n      swap1\n      return\n        /* \"eth based/truffle/contracts/FLIR_Contract.sol\":1583:2573  function getConsumerTariff(uint Cimp) public returns (uint Tc){... */\n    tag_9:\n      callvalue\n      dup1\n      iszero\n      tag_55\n      jumpi\n      0x00\n      dup1\n      revert\n    tag_55:\n      pop\n      tag_56\n      0x04\n      dup1\n      calldatasize\n      sub\n      dup2\n      add\n      swap1\n      tag_57\n      swap2\n      swap1\n      tag_52\n      jump\t// in\n    tag_57:\n      tag_58\n      jump\t// in\n    tag_56:\n      mload(0x40)\n      tag_59\n      swap2\n      swap1\n      tag_27\n      jump\t// in\n    tag_59:\n      mload(0x40)\n      dup1\n      swap2\n      sub\n      swap1\n      return\n        /* \"eth based/truffle/contracts/FLIR_Contract.sol\":2788:2856  function balCheck() public payable {... */\n    tag_10:\n      tag_60\n      tag_61\n      jump\t// in\n    tag_60:\n      stop\n        /* \"eth based/truffle/contracts/FLIR_Contract.sol\":1098:1119  uint public btc8 = 10 */\n    tag_11:\n      callvalue\n      dup1\n      iszero\n      tag_62\n      jumpi\n      0x00\n      dup1\n      revert\n    tag_62:\n      pop\n      tag_63\n      tag_64\n      jump\t// in\n    tag_63:\n      mload(0x40)\n      tag_65\n      swap2\n      swap1\n      tag_27\n      jump\t// in\n    tag_65:\n      mload(0x40)\n      dup1\n      swap2\n      sub\n      swap1\n      return\n        /* \"eth based/truffle/contracts/FLIR_Contract.sol\":203:228  address[16] public seller */\n    tag_12:\n      callvalue\n      dup1\n      iszero\n      tag_66\n      jumpi\n      0x00\n      dup1\n      revert\n    tag_66:\n      pop\n      tag_67\n      0x04\n      dup1\n      calldatasize\n      sub\n      dup2\n      add\n      swap1\n      tag_68\n      swap2\n      swap1\n      tag_52\n      jump\t// in\n    tag_68:\n      tag_69\n      jump\t// in\n    tag_67:\n      mload(0x40)\n      tag_70\n      swap2\n      swap1\n      tag_48\n      jump\t// in\n    tag_70:\n      mload(0x40)\n      dup1\n      swap2\n      sub\n      swap1\n      return\n        /* \"eth based/truffle/contracts/FLIR_Contract.sol\":1046:1066  uint public btc6 = 8 */\n    tag_13:\n      callvalue\n      dup1\n      iszero\n      tag_71\n      jumpi\n      0x00\n      dup1\n      revert\n    tag_71:\n      pop\n      tag_72\n      tag_73\n      jump\t// in\n    tag_72:\n      mload(0x40)\n      tag_74\n      swap2\n      swap1\n      tag_27\n      jump\t// in\n    tag_74:\n      mload(0x40)\n      dup1\n      swap2\n      sub\n      swap1\n      return\n        /* \"eth based/truffle/contracts/FLIR_Contract.sol\":720:743  uint public balance = 0 */\n    tag_14:\n      callvalue\n      dup1\n      iszero\n      tag_75\n      jumpi\n      0x00\n      dup1\n      revert\n    tag_75:\n      pop\n      tag_76\n      tag_77\n      jump\t// in\n    tag_76:\n      mload(0x40)\n      tag_78\n      swap2\n      swap1\n      tag_27\n      jump\t// in\n    tag_78:\n      mload(0x40)\n      dup1\n      swap2\n      sub\n      swap1\n      return\n        /* \"eth based/truffle/contracts/FLIR_Contract.sol\":916:936  uint public btc1 = 3 */\n    tag_15:\n      callvalue\n      dup1\n      iszero\n      tag_79\n      jumpi\n      0x00\n      dup1\n      revert\n    tag_79:\n      pop\n      tag_80\n      tag_81\n      jump\t// in\n    tag_80:\n      mload(0x40)\n      tag_82\n      swap2\n      swap1\n      tag_27\n      jump\t// in\n    tag_82:\n      mload(0x40)\n      dup1\n      swap2\n      sub\n      swap1\n      return\n        /* \"eth based/truffle/contracts/FLIR_Contract.sol\":2579:2782  function send(address payable _receiver, uint amount) payable public {... */\n    tag_16:\n      tag_83\n      0x04\n      dup1\n      calldatasize\n      sub\n      dup2\n      add\n      swap1\n      tag_84\n      swap2\n      swap1\n      tag_85\n      jump\t// in\n    tag_84:\n      tag_86\n      jump\t// in\n    tag_83:\n      stop\n        /* \"eth based/truffle/contracts/FLIR_Contract.sol\":1072:1092  uint public btc7 = 9 */\n    tag_17:\n      callvalue\n      dup1\n      iszero\n      tag_87\n      jumpi\n      0x00\n      dup1\n      revert\n    tag_87:\n      pop\n      tag_88\n      tag_89\n      jump\t// in\n    tag_88:\n      mload(0x40)\n      tag_90\n      swap2\n      swap1\n      tag_27\n      jump\t// in\n    tag_90:\n      mload(0x40)\n      dup1\n      swap2\n      sub\n      swap1\n      return\n        /* \"eth based/truffle/contracts/FLIR_Contract.sol\":1133:1456  function getnPnCnEV(uint nPget, uint nCget,uint nEVget) public... */\n    tag_18:\n      callvalue\n      dup1\n      iszero\n      tag_91\n      jumpi\n      0x00\n      dup1\n      revert\n    tag_91:\n      pop\n      tag_92\n      0x04\n      dup1\n      calldatasize\n      sub\n      dup2\n      add\n      swap1\n      tag_93\n      swap2\n      swap1\n      tag_94\n      jump\t// in\n    tag_93:\n      tag_95\n      jump\t// in\n    tag_92:\n      mload(0x40)\n      tag_96\n      swap4\n      swap3\n      swap2\n      swap1\n      tag_97\n      jump\t// in\n    tag_96:\n      mload(0x40)\n      dup1\n      swap2\n      sub\n      swap1\n      return\n        /* \"eth based/truffle/contracts/FLIR_Contract.sol\":2862:2997  function getBalance(address _balanceCheck) public returns (uint bal){... */\n    tag_19:\n      callvalue\n      dup1\n      iszero\n      tag_98\n      jumpi\n      0x00\n      dup1\n      revert\n    tag_98:\n      pop\n      tag_99\n      0x04\n      dup1\n      calldatasize\n      sub\n      dup2\n      add\n      swap1\n      tag_100\n      swap2\n      swap1\n      tag_101\n      jump\t// in\n    tag_100:\n      tag_102\n      jump\t// in\n    tag_99:\n      mload(0x40)\n      tag_103\n      swap2\n      swap1\n      tag_27\n      jump\t// in\n    tag_103:\n      mload(0x40)\n      dup1\n      swap2\n      sub\n      swap1\n      return\n        /* \"eth based/truffle/contracts/FLIR_Contract.sol\":1020:1040  uint public btc5 = 7 */\n    tag_25:\n      sload(0x18)\n      dup2\n      jump\t// out\n        /* \"eth based/truffle/contracts/FLIR_Contract.sol\":994:1014  uint public btc4 = 6 */\n    tag_30:\n      sload(0x17)\n      dup2\n      jump\t// out\n        /* \"eth based/truffle/contracts/FLIR_Contract.sol\":968:988  uint public btc3 = 5 */\n    tag_34:\n      sload(0x16)\n      dup2\n      jump\t// out\n        /* \"eth based/truffle/contracts/FLIR_Contract.sol\":942:962  uint public btc2 = 4 */\n    tag_38:\n      sload(0x15)\n      dup2\n      jump\t// out\n        /* \"eth based/truffle/contracts/FLIR_Contract.sol\":890:909  uint public btp = 3 */\n    tag_42:\n      sload(0x13)\n      dup2\n      jump\t// out\n        /* \"eth based/truffle/contracts/FLIR_Contract.sol\":175:197  address public manager */\n    tag_46:\n      0x01\n      0x00\n      swap1\n      sload\n      swap1\n      0x0100\n      exp\n      swap1\n      div\n      0xffffffffffffffffffffffffffffffffffffffff\n      and\n      dup2\n      jump\t// out\n        /* \"eth based/truffle/contracts/FLIR_Contract.sol\":1462:1577  function getProsumerTariff(uint Pexp) public returns (uint Tp){... */\n    tag_53:\n        /* \"eth based/truffle/contracts/FLIR_Contract.sol\":1516:1523  uint Tp */\n      0x00\n        /* \"eth based/truffle/contracts/FLIR_Contract.sol\":1546:1549  btp */\n      sload(0x13)\n        /* \"eth based/truffle/contracts/FLIR_Contract.sol\":1539:1543  Pexp */\n      dup3\n        /* \"eth based/truffle/contracts/FLIR_Contract.sol\":1539:1549  Pexp * btp */\n      tag_105\n      swap2\n      swap1\n      tag_106\n      jump\t// in\n    tag_105:\n        /* \"eth based/truffle/contracts/FLIR_Contract.sol\":1534:1549  Tp = Pexp * btp */\n      swap1\n      pop\n        /* \"eth based/truffle/contracts/FLIR_Contract.sol\":1462:1577  function getProsumerTariff(uint Pexp) public returns (uint Tp){... */\n      swap2\n      swap1\n      pop\n      jump\t// out\n        /* \"eth based/truffle/contracts/FLIR_Contract.sol\":1583:2573  function getConsumerTariff(uint Cimp) public returns (uint Tc){... */\n    tag_58:\n        /* \"eth based/truffle/contracts/FLIR_Contract.sol\":1637:1644  uint Tc */\n      0x00\n        /* \"eth based/truffle/contracts/FLIR_Contract.sol\":1674:1677  251 */\n      0xfb\n        /* \"eth based/truffle/contracts/FLIR_Contract.sol\":1667:1671  Cimp */\n      dup3\n        /* \"eth based/truffle/contracts/FLIR_Contract.sol\":1667:1677  Cimp < 251 */\n      lt\n        /* \"eth based/truffle/contracts/FLIR_Contract.sol\":1664:2546  if(Cimp < 251){... */\n      iszero\n      tag_108\n      jumpi\n        /* \"eth based/truffle/contracts/FLIR_Contract.sol\":1702:1704  51 */\n      0x33\n        /* \"eth based/truffle/contracts/FLIR_Contract.sol\":1695:1699  Cimp */\n      dup3\n        /* \"eth based/truffle/contracts/FLIR_Contract.sol\":1695:1704  Cimp < 51 */\n      lt\n        /* \"eth based/truffle/contracts/FLIR_Contract.sol\":1692:2301  if(Cimp < 51){... */\n      iszero\n      tag_109\n      jumpi\n        /* \"eth based/truffle/contracts/FLIR_Contract.sol\":1735:1739  btc1 */\n      sload(0x14)\n        /* \"eth based/truffle/contracts/FLIR_Contract.sol\":1728:1732  Cimp */\n      dup3\n        /* \"eth based/truffle/contracts/FLIR_Contract.sol\":1728:1739  Cimp * btc1 */\n      tag_110\n      swap2\n      swap1\n      tag_106\n      jump\t// in\n    tag_110:\n        /* \"eth based/truffle/contracts/FLIR_Contract.sol\":1723:1739  Tc = Cimp * btc1 */\n      swap1\n      pop\n        /* \"eth based/truffle/contracts/FLIR_Contract.sol\":1692:2301  if(Cimp < 51){... */\n      jump(tag_111)\n    tag_109:\n        /* \"eth based/truffle/contracts/FLIR_Contract.sol\":1782:1784  50 */\n      0x32\n        /* \"eth based/truffle/contracts/FLIR_Contract.sol\":1775:1779  Cimp */\n      dup3\n        /* \"eth based/truffle/contracts/FLIR_Contract.sol\":1775:1784  Cimp > 50 */\n      gt\n        /* \"eth based/truffle/contracts/FLIR_Contract.sol\":1775:1798  Cimp > 50 && Cimp < 101 */\n      dup1\n      iszero\n      tag_112\n      jumpi\n      pop\n        /* \"eth based/truffle/contracts/FLIR_Contract.sol\":1795:1798  101 */\n      0x65\n        /* \"eth based/truffle/contracts/FLIR_Contract.sol\":1788:1792  Cimp */\n      dup3\n        /* \"eth based/truffle/contracts/FLIR_Contract.sol\":1788:1798  Cimp < 101 */\n      lt\n        /* \"eth based/truffle/contracts/FLIR_Contract.sol\":1775:1798  Cimp > 50 && Cimp < 101 */\n    tag_112:\n        /* \"eth based/truffle/contracts/FLIR_Contract.sol\":1772:2301  if(Cimp > 50 && Cimp < 101){... */\n      iszero\n      tag_113\n      jumpi\n        /* \"eth based/truffle/contracts/FLIR_Contract.sol\":1849:1853  btc2 */\n      sload(0x15)\n        /* \"eth based/truffle/contracts/FLIR_Contract.sol\":1843:1845  50 */\n      0x32\n        /* \"eth based/truffle/contracts/FLIR_Contract.sol\":1838:1842  Cimp */\n      dup4\n        /* \"eth based/truffle/contracts/FLIR_Contract.sol\":1838:1845  Cimp-50 */\n      tag_114\n      swap2\n      swap1\n      tag_115\n      jump\t// in\n    tag_114:\n        /* \"eth based/truffle/contracts/FLIR_Contract.sol\":1837:1853  (Cimp-50) * btc2 */\n      tag_116\n      swap2\n      swap1\n      tag_106\n      jump\t// in\n    tag_116:\n        /* \"eth based/truffle/contracts/FLIR_Contract.sol\":1828:1832  btc1 */\n      sload(0x14)\n        /* \"eth based/truffle/contracts/FLIR_Contract.sol\":1823:1825  50 */\n      0x32\n        /* \"eth based/truffle/contracts/FLIR_Contract.sol\":1823:1832  50 * btc1 */\n      tag_117\n      swap2\n      swap1\n      tag_106\n      jump\t// in\n    tag_117:\n        /* \"eth based/truffle/contracts/FLIR_Contract.sol\":1822:1854  (50 * btc1) + ((Cimp-50) * btc2) */\n      tag_118\n      swap2\n      swap1\n      tag_119\n      jump\t// in\n    tag_118:\n        /* \"eth based/truffle/contracts/FLIR_Contract.sol\":1817:1854  Tc = (50 * btc1) + ((Cimp-50) * btc2) */\n      swap1\n      pop\n        /* \"eth based/truffle/contracts/FLIR_Contract.sol\":1772:2301  if(Cimp > 50 && Cimp < 101){... */\n      jump(tag_120)\n    tag_113:\n        /* \"eth based/truffle/contracts/FLIR_Contract.sol\":1897:1900  100 */\n      0x64\n        /* \"eth based/truffle/contracts/FLIR_Contract.sol\":1890:1894  Cimp */\n      dup3\n        /* \"eth based/truffle/contracts/FLIR_Contract.sol\":1890:1900  Cimp > 100 */\n      gt\n        /* \"eth based/truffle/contracts/FLIR_Contract.sol\":1890:1914  Cimp > 100 && Cimp < 151 */\n      dup1\n      iszero\n      tag_121\n      jumpi\n      pop\n        /* \"eth based/truffle/contracts/FLIR_Contract.sol\":1911:1914  151 */\n      0x97\n        /* \"eth based/truffle/contracts/FLIR_Contract.sol\":1904:1908  Cimp */\n      dup3\n        /* \"eth based/truffle/contracts/FLIR_Contract.sol\":1904:1914  Cimp < 151 */\n      lt\n        /* \"eth based/truffle/contracts/FLIR_Contract.sol\":1890:1914  Cimp > 100 && Cimp < 151 */\n    tag_121:\n        /* \"eth based/truffle/contracts/FLIR_Contract.sol\":1887:2301  if(Cimp > 100 && Cimp < 151){... */\n      iszero\n      tag_122\n      jumpi\n        /* \"eth based/truffle/contracts/FLIR_Contract.sol\":1979:1983  btc3 */\n      sload(0x16)\n        /* \"eth based/truffle/contracts/FLIR_Contract.sol\":1973:1975  50 */\n      0x32\n        /* \"eth based/truffle/contracts/FLIR_Contract.sol\":1968:1972  Cimp */\n      dup4\n        /* \"eth based/truffle/contracts/FLIR_Contract.sol\":1968:1975  Cimp-50 */\n      tag_123\n      swap2\n      swap1\n      tag_115\n      jump\t// in\n    tag_123:\n        /* \"eth based/truffle/contracts/FLIR_Contract.sol\":1967:1983  (Cimp-50) * btc3 */\n      tag_124\n      swap2\n      swap1\n      tag_106\n      jump\t// in\n    tag_124:\n        /* \"eth based/truffle/contracts/FLIR_Contract.sol\":1958:1962  btc2 */\n      sload(0x15)\n        /* \"eth based/truffle/contracts/FLIR_Contract.sol\":1953:1955  50 */\n      0x32\n        /* \"eth based/truffle/contracts/FLIR_Contract.sol\":1953:1962  50 * btc2 */\n      tag_125\n      swap2\n      swap1\n      tag_106\n      jump\t// in\n    tag_125:\n        /* \"eth based/truffle/contracts/FLIR_Contract.sol\":1944:1948  btc1 */\n      sload(0x14)\n        /* \"eth based/truffle/contracts/FLIR_Contract.sol\":1939:1941  50 */\n      0x32\n        /* \"eth based/truffle/contracts/FLIR_Contract.sol\":1939:1948  50 * btc1 */\n      tag_126\n      swap2\n      swap1\n      tag_106\n      jump\t// in\n    tag_126:\n        /* \"eth based/truffle/contracts/FLIR_Contract.sol\":1938:1963  (50 * btc1) + (50 * btc2) */\n      tag_127\n      swap2\n      swap1\n      tag_119\n      jump\t// in\n    tag_127:\n        /* \"eth based/truffle/contracts/FLIR_Contract.sol\":1938:1984  (50 * btc1) + (50 * btc2) + ((Cimp-50) * btc3) */\n      tag_128\n      swap2\n      swap1\n      tag_119\n      jump\t// in\n    tag_128:\n        /* \"eth based/truffle/contracts/FLIR_Contract.sol\":1933:1984  Tc = (50 * btc1) + (50 * btc2) + ((Cimp-50) * btc3) */\n      swap1\n      pop\n        /* \"eth based/truffle/contracts/FLIR_Contract.sol\":1887:2301  if(Cimp > 100 && Cimp < 151){... */\n      jump(tag_129)\n    tag_122:\n        /* \"eth based/truffle/contracts/FLIR_Contract.sol\":2027:2030  150 */\n      0x96\n        /* \"eth based/truffle/contracts/FLIR_Contract.sol\":2020:2024  Cimp */\n      dup3\n        /* \"eth based/truffle/contracts/FLIR_Contract.sol\":2020:2030  Cimp > 150 */\n      gt\n        /* \"eth based/truffle/contracts/FLIR_Contract.sol\":2020:2044  Cimp > 150 && Cimp < 201 */\n      dup1\n      iszero\n      tag_130\n      jumpi\n      pop\n        /* \"eth based/truffle/contracts/FLIR_Contract.sol\":2041:2044  201 */\n      0xc9\n        /* \"eth based/truffle/contracts/FLIR_Contract.sol\":2034:2038  Cimp */\n      dup3\n        /* \"eth based/truffle/contracts/FLIR_Contract.sol\":2034:2044  Cimp < 201 */\n      lt\n        /* \"eth based/truffle/contracts/FLIR_Contract.sol\":2020:2044  Cimp > 150 && Cimp < 201 */\n    tag_130:\n        /* \"eth based/truffle/contracts/FLIR_Contract.sol\":2017:2301  if(Cimp > 150 && Cimp < 201){... */\n      iszero\n      tag_131\n      jumpi\n        /* \"eth based/truffle/contracts/FLIR_Contract.sol\":2123:2127  btc4 */\n      sload(0x17)\n        /* \"eth based/truffle/contracts/FLIR_Contract.sol\":2117:2119  50 */\n      0x32\n        /* \"eth based/truffle/contracts/FLIR_Contract.sol\":2112:2116  Cimp */\n      dup4\n        /* \"eth based/truffle/contracts/FLIR_Contract.sol\":2112:2119  Cimp-50 */\n      tag_132\n      swap2\n      swap1\n      tag_115\n      jump\t// in\n    tag_132:\n        /* \"eth based/truffle/contracts/FLIR_Contract.sol\":2111:2127  (Cimp-50) * btc4 */\n      tag_133\n      swap2\n      swap1\n      tag_106\n      jump\t// in\n    tag_133:\n        /* \"eth based/truffle/contracts/FLIR_Contract.sol\":2102:2106  btc3 */\n      sload(0x16)\n        /* \"eth based/truffle/contracts/FLIR_Contract.sol\":2097:2099  50 */\n      0x32\n        /* \"eth based/truffle/contracts/FLIR_Contract.sol\":2097:2106  50 * btc3 */\n      tag_134\n      swap2\n      swap1\n      tag_106\n      jump\t// in\n    tag_134:\n        /* \"eth based/truffle/contracts/FLIR_Contract.sol\":2088:2092  btc2 */\n      sload(0x15)\n        /* \"eth based/truffle/contracts/FLIR_Contract.sol\":2083:2085  50 */\n      0x32\n        /* \"eth based/truffle/contracts/FLIR_Contract.sol\":2083:2092  50 * btc2 */\n      tag_135\n      swap2\n      swap1\n      tag_106\n      jump\t// in\n    tag_135:\n        /* \"eth based/truffle/contracts/FLIR_Contract.sol\":2074:2078  btc1 */\n      sload(0x14)\n        /* \"eth based/truffle/contracts/FLIR_Contract.sol\":2069:2071  50 */\n      0x32\n        /* \"eth based/truffle/contracts/FLIR_Contract.sol\":2069:2078  50 * btc1 */\n      tag_136\n      swap2\n      swap1\n      tag_106\n      jump\t// in\n    tag_136:\n        /* \"eth based/truffle/contracts/FLIR_Contract.sol\":2068:2093  (50 * btc1) + (50 * btc2) */\n      tag_137\n      swap2\n      swap1\n      tag_119\n      jump\t// in\n    tag_137:\n        /* \"eth based/truffle/contracts/FLIR_Contract.sol\":2068:2107  (50 * btc1) + (50 * btc2) + (50 * btc3) */\n      tag_138\n      swap2\n      swap1\n      tag_119\n      jump\t// in\n    tag_138:\n        /* \"eth based/truffle/contracts/FLIR_Contract.sol\":2068:2128  (50 * btc1) + (50 * btc2) + (50 * btc3) + ((Cimp-50) * btc4) */\n      tag_139\n      swap2\n      swap1\n      tag_119\n      jump\t// in\n    tag_139:\n        /* \"eth based/truffle/contracts/FLIR_Contract.sol\":2063:2128  Tc = (50 * btc1) + (50 * btc2) + (50 * btc3) + ((Cimp-50) * btc4) */\n      swap1\n      pop\n        /* \"eth based/truffle/contracts/FLIR_Contract.sol\":2017:2301  if(Cimp > 150 && Cimp < 201){... */\n      jump(tag_140)\n    tag_131:\n        /* \"eth based/truffle/contracts/FLIR_Contract.sol\":2171:2174  200 */\n      0xc8\n        /* \"eth based/truffle/contracts/FLIR_Contract.sol\":2164:2168  Cimp */\n      dup3\n        /* \"eth based/truffle/contracts/FLIR_Contract.sol\":2164:2174  Cimp > 200 */\n      gt\n        /* \"eth based/truffle/contracts/FLIR_Contract.sol\":2164:2188  Cimp > 200 && Cimp < 251 */\n      dup1\n      iszero\n      tag_141\n      jumpi\n      pop\n        /* \"eth based/truffle/contracts/FLIR_Contract.sol\":2185:2188  251 */\n      0xfb\n        /* \"eth based/truffle/contracts/FLIR_Contract.sol\":2178:2182  Cimp */\n      dup3\n        /* \"eth based/truffle/contracts/FLIR_Contract.sol\":2178:2188  Cimp < 251 */\n      lt\n        /* \"eth based/truffle/contracts/FLIR_Contract.sol\":2164:2188  Cimp > 200 && Cimp < 251 */\n    tag_141:\n        /* \"eth based/truffle/contracts/FLIR_Contract.sol\":2161:2301  if(Cimp > 200 && Cimp < 251){... */\n      iszero\n      tag_142\n      jumpi\n        /* \"eth based/truffle/contracts/FLIR_Contract.sol\":2281:2285  btc5 */\n      sload(0x18)\n        /* \"eth based/truffle/contracts/FLIR_Contract.sol\":2275:2277  50 */\n      0x32\n        /* \"eth based/truffle/contracts/FLIR_Contract.sol\":2270:2274  Cimp */\n      dup4\n        /* \"eth based/truffle/contracts/FLIR_Contract.sol\":2270:2277  Cimp-50 */\n      tag_143\n      swap2\n      swap1\n      tag_115\n      jump\t// in\n    tag_143:\n        /* \"eth based/truffle/contracts/FLIR_Contract.sol\":2269:2285  (Cimp-50) * btc5 */\n      tag_144\n      swap2\n      swap1\n      tag_106\n      jump\t// in\n    tag_144:\n        /* \"eth based/truffle/contracts/FLIR_Contract.sol\":2260:2264  btc4 */\n      sload(0x17)\n        /* \"eth based/truffle/contracts/FLIR_Contract.sol\":2255:2257  50 */\n      0x32\n        /* \"eth based/truffle/contracts/FLIR_Contract.sol\":2255:2264  50 * btc4 */\n      tag_145\n      swap2\n      swap1\n      tag_106\n      jump\t// in\n    tag_145:\n        /* \"eth based/truffle/contracts/FLIR_Contract.sol\":2246:2250  btc3 */\n      sload(0x16)\n        /* \"eth based/truffle/contracts/FLIR_Contract.sol\":2241:2243  50 */\n      0x32\n        /* \"eth based/truffle/contracts/FLIR_Contract.sol\":2241:2250  50 * btc3 */\n      tag_146\n      swap2\n      swap1\n      tag_106\n      jump\t// in\n    tag_146:\n        /* \"eth based/truffle/contracts/FLIR_Contract.sol\":2232:2236  btc2 */\n      sload(0x15)\n        /* \"eth based/truffle/contracts/FLIR_Contract.sol\":2227:2229  50 */\n      0x32\n        /* \"eth based/truffle/contracts/FLIR_Contract.sol\":2227:2236  50 * btc2 */\n      tag_147\n      swap2\n      swap1\n      tag_106\n      jump\t// in\n    tag_147:\n        /* \"eth based/truffle/contracts/FLIR_Contract.sol\":2218:2222  btc1 */\n      sload(0x14)\n        /* \"eth based/truffle/contracts/FLIR_Contract.sol\":2213:2215  50 */\n      0x32\n        /* \"eth based/truffle/contracts/FLIR_Contract.sol\":2213:2222  50 * btc1 */\n      tag_148\n      swap2\n      swap1\n      tag_106\n      jump\t// in\n    tag_148:\n        /* \"eth based/truffle/contracts/FLIR_Contract.sol\":2212:2237  (50 * btc1) + (50 * btc2) */\n      tag_149\n      swap2\n      swap1\n      tag_119\n      jump\t// in\n    tag_149:\n        /* \"eth based/truffle/contracts/FLIR_Contract.sol\":2212:2251  (50 * btc1) + (50 * btc2) + (50 * btc3) */\n      tag_150\n      swap2\n      swap1\n      tag_119\n      jump\t// in\n    tag_150:\n        /* \"eth based/truffle/contracts/FLIR_Contract.sol\":2212:2265  (50 * btc1) + (50 * btc2) + (50 * btc3) + (50 * btc4) */\n      tag_151\n      swap2\n      swap1\n      tag_119\n      jump\t// in\n    tag_151:\n        /* \"eth based/truffle/contracts/FLIR_Contract.sol\":2212:2286  (50 * btc1) + (50 * btc2) + (50 * btc3) + (50 * btc4) + ((Cimp-50) * btc5) */\n      tag_152\n      swap2\n      swap1\n      tag_119\n      jump\t// in\n    tag_152:\n        /* \"eth based/truffle/contracts/FLIR_Contract.sol\":2207:2286  Tc = (50 * btc1) + (50 * btc2) + (50 * btc3) + (50 * btc4) + ((Cimp-50) * btc5) */\n      swap1\n      pop\n        /* \"eth based/truffle/contracts/FLIR_Contract.sol\":2161:2301  if(Cimp > 200 && Cimp < 251){... */\n    tag_142:\n        /* \"eth based/truffle/contracts/FLIR_Contract.sol\":2017:2301  if(Cimp > 150 && Cimp < 201){... */\n    tag_140:\n        /* \"eth based/truffle/contracts/FLIR_Contract.sol\":1887:2301  if(Cimp > 100 && Cimp < 151){... */\n    tag_129:\n        /* \"eth based/truffle/contracts/FLIR_Contract.sol\":1772:2301  if(Cimp > 50 && Cimp < 101){... */\n    tag_120:\n        /* \"eth based/truffle/contracts/FLIR_Contract.sol\":1692:2301  if(Cimp < 51){... */\n    tag_111:\n        /* \"eth based/truffle/contracts/FLIR_Contract.sol\":1664:2546  if(Cimp < 251){... */\n      jump(tag_153)\n    tag_108:\n        /* \"eth based/truffle/contracts/FLIR_Contract.sol\":2335:2338  250 */\n      0xfa\n        /* \"eth based/truffle/contracts/FLIR_Contract.sol\":2328:2332  Cimp */\n      dup3\n        /* \"eth based/truffle/contracts/FLIR_Contract.sol\":2328:2338  Cimp > 250 */\n      gt\n        /* \"eth based/truffle/contracts/FLIR_Contract.sol\":2328:2352  Cimp > 250 && Cimp < 351 */\n      dup1\n      iszero\n      tag_154\n      jumpi\n      pop\n        /* \"eth based/truffle/contracts/FLIR_Contract.sol\":2349:2352  351 */\n      0x015f\n        /* \"eth based/truffle/contracts/FLIR_Contract.sol\":2342:2346  Cimp */\n      dup3\n        /* \"eth based/truffle/contracts/FLIR_Contract.sol\":2342:2352  Cimp < 351 */\n      lt\n        /* \"eth based/truffle/contracts/FLIR_Contract.sol\":2328:2352  Cimp > 250 && Cimp < 351 */\n    tag_154:\n        /* \"eth based/truffle/contracts/FLIR_Contract.sol\":2325:2546  if(Cimp > 250 && Cimp < 351){... */\n      iszero\n      tag_155\n      jumpi\n        /* \"eth based/truffle/contracts/FLIR_Contract.sol\":2379:2383  btc6 */\n      sload(0x19)\n        /* \"eth based/truffle/contracts/FLIR_Contract.sol\":2372:2376  Cimp */\n      dup3\n        /* \"eth based/truffle/contracts/FLIR_Contract.sol\":2372:2383  Cimp * btc6 */\n      tag_156\n      swap2\n      swap1\n      tag_106\n      jump\t// in\n    tag_156:\n        /* \"eth based/truffle/contracts/FLIR_Contract.sol\":2367:2383  Tc = Cimp * btc6 */\n      swap1\n      pop\n        /* \"eth based/truffle/contracts/FLIR_Contract.sol\":2325:2546  if(Cimp > 250 && Cimp < 351){... */\n      jump(tag_157)\n    tag_155:\n        /* \"eth based/truffle/contracts/FLIR_Contract.sol\":2418:2421  350 */\n      0x015e\n        /* \"eth based/truffle/contracts/FLIR_Contract.sol\":2411:2415  Cimp */\n      dup3\n        /* \"eth based/truffle/contracts/FLIR_Contract.sol\":2411:2421  Cimp > 350 */\n      gt\n        /* \"eth based/truffle/contracts/FLIR_Contract.sol\":2411:2435  Cimp > 350 && Cimp < 451 */\n      dup1\n      iszero\n      tag_158\n      jumpi\n      pop\n        /* \"eth based/truffle/contracts/FLIR_Contract.sol\":2432:2435  451 */\n      0x01c3\n        /* \"eth based/truffle/contracts/FLIR_Contract.sol\":2425:2429  Cimp */\n      dup3\n        /* \"eth based/truffle/contracts/FLIR_Contract.sol\":2425:2435  Cimp < 451 */\n      lt\n        /* \"eth based/truffle/contracts/FLIR_Contract.sol\":2411:2435  Cimp > 350 && Cimp < 451 */\n    tag_158:\n        /* \"eth based/truffle/contracts/FLIR_Contract.sol\":2408:2546  if(Cimp > 350 && Cimp < 451){... */\n      iszero\n      tag_159\n      jumpi\n        /* \"eth based/truffle/contracts/FLIR_Contract.sol\":2462:2466  btc7 */\n      sload(0x1a)\n        /* \"eth based/truffle/contracts/FLIR_Contract.sol\":2455:2459  Cimp */\n      dup3\n        /* \"eth based/truffle/contracts/FLIR_Contract.sol\":2455:2466  Cimp * btc7 */\n      tag_160\n      swap2\n      swap1\n      tag_106\n      jump\t// in\n    tag_160:\n        /* \"eth based/truffle/contracts/FLIR_Contract.sol\":2450:2466  Tc = Cimp * btc7 */\n      swap1\n      pop\n        /* \"eth based/truffle/contracts/FLIR_Contract.sol\":2408:2546  if(Cimp > 350 && Cimp < 451){... */\n      jump(tag_161)\n    tag_159:\n        /* \"eth based/truffle/contracts/FLIR_Contract.sol\":2501:2504  450 */\n      0x01c2\n        /* \"eth based/truffle/contracts/FLIR_Contract.sol\":2494:2498  Cimp */\n      dup3\n        /* \"eth based/truffle/contracts/FLIR_Contract.sol\":2494:2504  Cimp > 450 */\n      gt\n        /* \"eth based/truffle/contracts/FLIR_Contract.sol\":2491:2546  if(Cimp > 450){... */\n      iszero\n      tag_162\n      jumpi\n        /* \"eth based/truffle/contracts/FLIR_Contract.sol\":2531:2535  btc8 */\n      sload(0x1b)\n        /* \"eth based/truffle/contracts/FLIR_Contract.sol\":2524:2528  Cimp */\n      dup3\n        /* \"eth based/truffle/contracts/FLIR_Contract.sol\":2524:2535  Cimp * btc8 */\n      tag_163\n      swap2\n      swap1\n      tag_106\n      jump\t// in\n    tag_163:\n        /* \"eth based/truffle/contracts/FLIR_Contract.sol\":2519:2535  Tc = Cimp * btc8 */\n      swap1\n      pop\n        /* \"eth based/truffle/contracts/FLIR_Contract.sol\":2491:2546  if(Cimp > 450){... */\n    tag_162:\n        /* \"eth based/truffle/contracts/FLIR_Contract.sol\":2408:2546  if(Cimp > 350 && Cimp < 451){... */\n    tag_161:\n        /* \"eth based/truffle/contracts/FLIR_Contract.sol\":2325:2546  if(Cimp > 250 && Cimp < 351){... */\n    tag_157:\n        /* \"eth based/truffle/contracts/FLIR_Contract.sol\":1664:2546  if(Cimp < 251){... */\n    tag_153:\n        /* \"eth based/truffle/contracts/FLIR_Contract.sol\":1583:2573  function getConsumerTariff(uint Cimp) public returns (uint Tc){... */\n      swap2\n      swap1\n      pop\n      jump\t// out\n        /* \"eth based/truffle/contracts/FLIR_Contract.sol\":2788:2856  function balCheck() public payable {... */\n    tag_61:\n        /* \"eth based/truffle/contracts/FLIR_Contract.sol\":2840:2849  msg.value */\n      callvalue\n        /* \"eth based/truffle/contracts/FLIR_Contract.sol\":2829:2836  balance */\n      0x12\n      0x00\n        /* \"eth based/truffle/contracts/FLIR_Contract.sol\":2829:2849  balance += msg.value */\n      dup3\n      dup3\n      sload\n      tag_165\n      swap2\n      swap1\n      tag_119\n      jump\t// in\n    tag_165:\n      swap3\n      pop\n      pop\n      dup2\n      swap1\n      sstore\n      pop\n        /* \"eth based/truffle/contracts/FLIR_Contract.sol\":2788:2856  function balCheck() public payable {... */\n      jump\t// out\n        /* \"eth based/truffle/contracts/FLIR_Contract.sol\":1098:1119  uint public btc8 = 10 */\n    tag_64:\n      sload(0x1b)\n      dup2\n      jump\t// out\n        /* \"eth based/truffle/contracts/FLIR_Contract.sol\":203:228  address[16] public seller */\n    tag_69:\n      0x02\n      dup2\n      0x10\n      dup2\n      lt\n      tag_166\n      jumpi\n      0x00\n      dup1\n      revert\n    tag_166:\n      add\n      0x00\n      swap2\n      pop\n      sload\n      swap1\n      0x0100\n      exp\n      swap1\n      div\n      0xffffffffffffffffffffffffffffffffffffffff\n      and\n      dup2\n      jump\t// out\n        /* \"eth based/truffle/contracts/FLIR_Contract.sol\":1046:1066  uint public btc6 = 8 */\n    tag_73:\n      sload(0x19)\n      dup2\n      jump\t// out\n        /* \"eth based/truffle/contracts/FLIR_Contract.sol\":720:743  uint public balance = 0 */\n    tag_77:\n      sload(0x12)\n      dup2\n      jump\t// out\n        /* \"eth based/truffle/contracts/FLIR_Contract.sol\":916:936  uint public btc1 = 3 */\n    tag_81:\n      sload(0x14)\n      dup2\n      jump\t// out\n        /* \"eth based/truffle/contracts/FLIR_Contract.sol\":2579:2782  function send(address payable _receiver, uint amount) payable public {... */\n    tag_86:\n        /* \"eth based/truffle/contracts/FLIR_Contract.sol\":2732:2738  amount */\n      dup1\n        /* \"eth based/truffle/contracts/FLIR_Contract.sol\":2719:2728  msg.value */\n      callvalue\n        /* \"eth based/truffle/contracts/FLIR_Contract.sol\":2719:2738  msg.value >= amount */\n      lt\n      iszero\n        /* \"eth based/truffle/contracts/FLIR_Contract.sol\":2711:2739  require(msg.value >= amount) */\n      tag_169\n      jumpi\n      0x00\n      dup1\n      revert\n    tag_169:\n        /* \"eth based/truffle/contracts/FLIR_Contract.sol\":2749:2758  _receiver */\n      dup2\n        /* \"eth based/truffle/contracts/FLIR_Contract.sol\":2749:2767  _receiver.transfer */\n      0xffffffffffffffffffffffffffffffffffffffff\n      and\n        /* \"eth based/truffle/contracts/FLIR_Contract.sol\":2749:2775  _receiver.transfer(amount) */\n      0x08fc\n        /* \"eth based/truffle/contracts/FLIR_Contract.sol\":2768:2774  amount */\n      dup3\n        /* \"eth based/truffle/contracts/FLIR_Contract.sol\":2749:2775  _receiver.transfer(amount) */\n      swap1\n      dup2\n      iszero\n      mul\n      swap1\n      mload(0x40)\n      0x00\n      mload(0x40)\n      dup1\n      dup4\n      sub\n      dup2\n      dup6\n      dup9\n      dup9\n      call\n      swap4\n      pop\n      pop\n      pop\n      pop\n      iszero\n      dup1\n      iszero\n      tag_171\n      jumpi\n      returndatasize\n      0x00\n      dup1\n      returndatacopy\n      revert(0x00, returndatasize)\n    tag_171:\n      pop\n        /* \"eth based/truffle/contracts/FLIR_Contract.sol\":2579:2782  function send(address payable _receiver, uint amount) payable public {... */\n      pop\n      pop\n      jump\t// out\n        /* \"eth based/truffle/contracts/FLIR_Contract.sol\":1072:1092  uint public btc7 = 9 */\n    tag_89:\n      sload(0x1a)\n      dup2\n      jump\t// out\n        /* \"eth based/truffle/contracts/FLIR_Contract.sol\":1133:1456  function getnPnCnEV(uint nPget, uint nCget,uint nEVget) public... */\n    tag_95:\n        /* \"eth based/truffle/contracts/FLIR_Contract.sol\":1209:1216  uint nP */\n      0x00\n        /* \"eth based/truffle/contracts/FLIR_Contract.sol\":1217:1224  uint nC */\n      dup1\n        /* \"eth based/truffle/contracts/FLIR_Contract.sol\":1225:1233  uint nEV */\n      0x00\n        /* \"eth based/truffle/contracts/FLIR_Contract.sol\":1258:1263  nPget */\n      dup6\n        /* \"eth based/truffle/contracts/FLIR_Contract.sol\":1253:1263  nP = nPget */\n      swap3\n      pop\n        /* \"eth based/truffle/contracts/FLIR_Contract.sol\":1278:1283  nCget */\n      dup5\n        /* \"eth based/truffle/contracts/FLIR_Contract.sol\":1273:1283  nC = nCget */\n      swap2\n      pop\n        /* \"eth based/truffle/contracts/FLIR_Contract.sol\":1299:1305  nEVget */\n      dup4\n        /* \"eth based/truffle/contracts/FLIR_Contract.sol\":1293:1305  nEV = nEVget */\n      swap1\n      pop\n        /* \"eth based/truffle/contracts/FLIR_Contract.sol\":1133:1456  function getnPnCnEV(uint nPget, uint nCget,uint nEVget) public... */\n      swap4\n      pop\n      swap4\n      pop\n      swap4\n      swap1\n      pop\n      jump\t// out\n        /* \"eth based/truffle/contracts/FLIR_Contract.sol\":2862:2997  function getBalance(address _balanceCheck) public returns (uint bal){... */\n    tag_102:\n        /* \"eth based/truffle/contracts/FLIR_Contract.sol\":2921:2929  uint bal */\n      0x00\n        /* \"eth based/truffle/contracts/FLIR_Contract.sol\":2946:2959  _balanceCheck */\n      dup2\n        /* \"eth based/truffle/contracts/FLIR_Contract.sol\":2946:2967  _balanceCheck.balance */\n      0xffffffffffffffffffffffffffffffffffffffff\n      and\n      balance\n        /* \"eth based/truffle/contracts/FLIR_Contract.sol\":2940:2967  bal = _balanceCheck.balance */\n      swap1\n      pop\n        /* \"eth based/truffle/contracts/FLIR_Contract.sol\":2862:2997  function getBalance(address _balanceCheck) public returns (uint bal){... */\n      swap2\n      swap1\n      pop\n      jump\t// out\n        /* \"#utility.yul\":7:146   */\n    tag_175:\n        /* \"#utility.yul\":53:58   */\n      0x00\n        /* \"#utility.yul\":91:97   */\n      dup2\n        /* \"#utility.yul\":78:98   */\n      calldataload\n        /* \"#utility.yul\":69:98   */\n      swap1\n      pop\n        /* \"#utility.yul\":107:140   */\n      tag_177\n        /* \"#utility.yul\":134:139   */\n      dup2\n        /* \"#utility.yul\":107:140   */\n      tag_178\n      jump\t// in\n    tag_177:\n        /* \"#utility.yul\":7:146   */\n      swap3\n      swap2\n      pop\n      pop\n      jump\t// out\n        /* \"#utility.yul\":152:307   */\n    tag_179:\n        /* \"#utility.yul\":206:211   */\n      0x00\n        /* \"#utility.yul\":244:250   */\n      dup2\n        /* \"#utility.yul\":231:251   */\n      calldataload\n        /* \"#utility.yul\":222:251   */\n      swap1\n      pop\n        /* \"#utility.yul\":260:301   */\n      tag_181\n        /* \"#utility.yul\":295:300   */\n      dup2\n        /* \"#utility.yul\":260:301   */\n      tag_182\n      jump\t// in\n    tag_181:\n        /* \"#utility.yul\":152:307   */\n      swap3\n      swap2\n      pop\n      pop\n      jump\t// out\n        /* \"#utility.yul\":313:452   */\n    tag_183:\n        /* \"#utility.yul\":359:364   */\n      0x00\n        /* \"#utility.yul\":397:403   */\n      dup2\n        /* \"#utility.yul\":384:404   */\n      calldataload\n        /* \"#utility.yul\":375:404   */\n      swap1\n      pop\n        /* \"#utility.yul\":413:446   */\n      tag_185\n        /* \"#utility.yul\":440:445   */\n      dup2\n        /* \"#utility.yul\":413:446   */\n      tag_186\n      jump\t// in\n    tag_185:\n        /* \"#utility.yul\":313:452   */\n      swap3\n      swap2\n      pop\n      pop\n      jump\t// out\n        /* \"#utility.yul\":458:787   */\n    tag_101:\n        /* \"#utility.yul\":517:523   */\n      0x00\n        /* \"#utility.yul\":566:568   */\n      0x20\n        /* \"#utility.yul\":554:563   */\n      dup3\n        /* \"#utility.yul\":545:552   */\n      dup5\n        /* \"#utility.yul\":541:564   */\n      sub\n        /* \"#utility.yul\":537:569   */\n      slt\n        /* \"#utility.yul\":534:653   */\n      iszero\n      tag_188\n      jumpi\n        /* \"#utility.yul\":572:651   */\n      tag_189\n      tag_190\n      jump\t// in\n    tag_189:\n        /* \"#utility.yul\":534:653   */\n    tag_188:\n        /* \"#utility.yul\":692:693   */\n      0x00\n        /* \"#utility.yul\":717:770   */\n      tag_191\n        /* \"#utility.yul\":762:769   */\n      dup5\n        /* \"#utility.yul\":753:759   */\n      dup3\n        /* \"#utility.yul\":742:751   */\n      dup6\n        /* \"#utility.yul\":738:760   */\n      add\n        /* \"#utility.yul\":717:770   */\n      tag_175\n      jump\t// in\n    tag_191:\n        /* \"#utility.yul\":707:770   */\n      swap2\n      pop\n        /* \"#utility.yul\":663:780   */\n      pop\n        /* \"#utility.yul\":458:787   */\n      swap3\n      swap2\n      pop\n      pop\n      jump\t// out\n        /* \"#utility.yul\":793:1283   */\n    tag_85:\n        /* \"#utility.yul\":869:875   */\n      0x00\n        /* \"#utility.yul\":877:883   */\n      dup1\n        /* \"#utility.yul\":926:928   */\n      0x40\n        /* \"#utility.yul\":914:923   */\n      dup4\n        /* \"#utility.yul\":905:912   */\n      dup6\n        /* \"#utility.yul\":901:924   */\n      sub\n        /* \"#utility.yul\":897:929   */\n      slt\n        /* \"#utility.yul\":894:1013   */\n      iszero\n      tag_193\n      jumpi\n        /* \"#utility.yul\":932:1011   */\n      tag_194\n      tag_190\n      jump\t// in\n    tag_194:\n        /* \"#utility.yul\":894:1013   */\n    tag_193:\n        /* \"#utility.yul\":1052:1053   */\n      0x00\n        /* \"#utility.yul\":1077:1138   */\n      tag_195\n        /* \"#utility.yul\":1130:1137   */\n      dup6\n        /* \"#utility.yul\":1121:1127   */\n      dup3\n        /* \"#utility.yul\":1110:1119   */\n      dup7\n        /* \"#utility.yul\":1106:1128   */\n      add\n        /* \"#utility.yul\":1077:1138   */\n      tag_179\n      jump\t// in\n    tag_195:\n        /* \"#utility.yul\":1067:1138   */\n      swap3\n      pop\n        /* \"#utility.yul\":1023:1148   */\n      pop\n        /* \"#utility.yul\":1187:1189   */\n      0x20\n        /* \"#utility.yul\":1213:1266   */\n      tag_196\n        /* \"#utility.yul\":1258:1265   */\n      dup6\n        /* \"#utility.yul\":1249:1255   */\n      dup3\n        /* \"#utility.yul\":1238:1247   */\n      dup7\n        /* \"#utility.yul\":1234:1256   */\n      add\n        /* \"#utility.yul\":1213:1266   */\n      tag_183\n      jump\t// in\n    tag_196:\n        /* \"#utility.yul\":1203:1266   */\n      swap2\n      pop\n        /* \"#utility.yul\":1158:1276   */\n      pop\n        /* \"#utility.yul\":793:1283   */\n      swap3\n      pop\n      swap3\n      swap1\n      pop\n      jump\t// out\n        /* \"#utility.yul\":1289:1618   */\n    tag_52:\n        /* \"#utility.yul\":1348:1354   */\n      0x00\n        /* \"#utility.yul\":1397:1399   */\n      0x20\n        /* \"#utility.yul\":1385:1394   */\n      dup3\n        /* \"#utility.yul\":1376:1383   */\n      dup5\n        /* \"#utility.yul\":1372:1395   */\n      sub\n        /* \"#utility.yul\":1368:1400   */\n      slt\n        /* \"#utility.yul\":1365:1484   */\n      iszero\n      tag_198\n      jumpi\n        /* \"#utility.yul\":1403:1482   */\n      tag_199\n      tag_190\n      jump\t// in\n    tag_199:\n        /* \"#utility.yul\":1365:1484   */\n    tag_198:\n        /* \"#utility.yul\":1523:1524   */\n      0x00\n        /* \"#utility.yul\":1548:1601   */\n      tag_200\n        /* \"#utility.yul\":1593:1600   */\n      dup5\n        /* \"#utility.yul\":1584:1590   */\n      dup3\n        /* \"#utility.yul\":1573:1582   */\n      dup6\n        /* \"#utility.yul\":1569:1591   */\n      add\n        /* \"#utility.yul\":1548:1601   */\n      tag_183\n      jump\t// in\n    tag_200:\n        /* \"#utility.yul\":1538:1601   */\n      swap2\n      pop\n        /* \"#utility.yul\":1494:1611   */\n      pop\n        /* \"#utility.yul\":1289:1618   */\n      swap3\n      swap2\n      pop\n      pop\n      jump\t// out\n        /* \"#utility.yul\":1624:2243   */\n    tag_94:\n        /* \"#utility.yul\":1701:1707   */\n      0x00\n        /* \"#utility.yul\":1709:1715   */\n      dup1\n        /* \"#utility.yul\":1717:1723   */\n      0x00\n        /* \"#utility.yul\":1766:1768   */\n      0x60\n        /* \"#utility.yul\":1754:1763   */\n      dup5\n        /* \"#utility.yul\":1745:1752   */\n      dup7\n        /* \"#utility.yul\":1741:1764   */\n      sub\n        /* \"#utility.yul\":1737:1769   */\n      slt\n        /* \"#utility.yul\":1734:1853   */\n      iszero\n      tag_202\n      jumpi\n        /* \"#utility.yul\":1772:1851   */\n      tag_203\n      tag_190\n      jump\t// in\n    tag_203:\n        /* \"#utility.yul\":1734:1853   */\n    tag_202:\n        /* \"#utility.yul\":1892:1893   */\n      0x00\n        /* \"#utility.yul\":1917:1970   */\n      tag_204\n        /* \"#utility.yul\":1962:1969   */\n      dup7\n        /* \"#utility.yul\":1953:1959   */\n      dup3\n        /* \"#utility.yul\":1942:1951   */\n      dup8\n        /* \"#utility.yul\":1938:1960   */\n      add\n        /* \"#utility.yul\":1917:1970   */\n      tag_183\n      jump\t// in\n    tag_204:\n        /* \"#utility.yul\":1907:1970   */\n      swap4\n      pop\n        /* \"#utility.yul\":1863:1980   */\n      pop\n        /* \"#utility.yul\":2019:2021   */\n      0x20\n        /* \"#utility.yul\":2045:2098   */\n      tag_205\n        /* \"#utility.yul\":2090:2097   */\n      dup7\n        /* \"#utility.yul\":2081:2087   */\n      dup3\n        /* \"#utility.yul\":2070:2079   */\n      dup8\n        /* \"#utility.yul\":2066:2088   */\n      add\n        /* \"#utility.yul\":2045:2098   */\n      tag_183\n      jump\t// in\n    tag_205:\n        /* \"#utility.yul\":2035:2098   */\n      swap3\n      pop\n        /* \"#utility.yul\":1990:2108   */\n      pop\n        /* \"#utility.yul\":2147:2149   */\n      0x40\n        /* \"#utility.yul\":2173:2226   */\n      tag_206\n        /* \"#utility.yul\":2218:2225   */\n      dup7\n        /* \"#utility.yul\":2209:2215   */\n      dup3\n        /* \"#utility.yul\":2198:2207   */\n      dup8\n        /* \"#utility.yul\":2194:2216   */\n      add\n        /* \"#utility.yul\":2173:2226   */\n      tag_183\n      jump\t// in\n    tag_206:\n        /* \"#utility.yul\":2163:2226   */\n      swap2\n      pop\n        /* \"#utility.yul\":2118:2236   */\n      pop\n        /* \"#utility.yul\":1624:2243   */\n      swap3\n      pop\n      swap3\n      pop\n      swap3\n      jump\t// out\n        /* \"#utility.yul\":2249:2367   */\n    tag_207:\n        /* \"#utility.yul\":2336:2360   */\n      tag_209\n        /* \"#utility.yul\":2354:2359   */\n      dup2\n        /* \"#utility.yul\":2336:2360   */\n      tag_210\n      jump\t// in\n    tag_209:\n        /* \"#utility.yul\":2331:2334   */\n      dup3\n        /* \"#utility.yul\":2324:2361   */\n      mstore\n        /* \"#utility.yul\":2249:2367   */\n      pop\n      pop\n      jump\t// out\n        /* \"#utility.yul\":2373:2491   */\n    tag_211:\n        /* \"#utility.yul\":2460:2484   */\n      tag_213\n        /* \"#utility.yul\":2478:2483   */\n      dup2\n        /* \"#utility.yul\":2460:2484   */\n      tag_214\n      jump\t// in\n    tag_213:\n        /* \"#utility.yul\":2455:2458   */\n      dup3\n        /* \"#utility.yul\":2448:2485   */\n      mstore\n        /* \"#utility.yul\":2373:2491   */\n      pop\n      pop\n      jump\t// out\n        /* \"#utility.yul\":2497:2719   */\n    tag_48:\n        /* \"#utility.yul\":2590:2594   */\n      0x00\n        /* \"#utility.yul\":2628:2630   */\n      0x20\n        /* \"#utility.yul\":2617:2626   */\n      dup3\n        /* \"#utility.yul\":2613:2631   */\n      add\n        /* \"#utility.yul\":2605:2631   */\n      swap1\n      pop\n        /* \"#utility.yul\":2641:2712   */\n      tag_216\n        /* \"#utility.yul\":2709:2710   */\n      0x00\n        /* \"#utility.yul\":2698:2707   */\n      dup4\n        /* \"#utility.yul\":2694:2711   */\n      add\n        /* \"#utility.yul\":2685:2691   */\n      dup5\n        /* \"#utility.yul\":2641:2712   */\n      tag_207\n      jump\t// in\n    tag_216:\n        /* \"#utility.yul\":2497:2719   */\n      swap3\n      swap2\n      pop\n      pop\n      jump\t// out\n        /* \"#utility.yul\":2725:2947   */\n    tag_27:\n        /* \"#utility.yul\":2818:2822   */\n      0x00\n        /* \"#utility.yul\":2856:2858   */\n      0x20\n        /* \"#utility.yul\":2845:2854   */\n      dup3\n        /* \"#utility.yul\":2841:2859   */\n      add\n        /* \"#utility.yul\":2833:2859   */\n      swap1\n      pop\n        /* \"#utility.yul\":2869:2940   */\n      tag_218\n        /* \"#utility.yul\":2937:2938   */\n      0x00\n        /* \"#utility.yul\":2926:2935   */\n      dup4\n        /* \"#utility.yul\":2922:2939   */\n      add\n        /* \"#utility.yul\":2913:2919   */\n      dup5\n        /* \"#utility.yul\":2869:2940   */\n      tag_211\n      jump\t// in\n    tag_218:\n        /* \"#utility.yul\":2725:2947   */\n      swap3\n      swap2\n      pop\n      pop\n      jump\t// out\n        /* \"#utility.yul\":2953:3395   */\n    tag_97:\n        /* \"#utility.yul\":3102:3106   */\n      0x00\n        /* \"#utility.yul\":3140:3142   */\n      0x60\n        /* \"#utility.yul\":3129:3138   */\n      dup3\n        /* \"#utility.yul\":3125:3143   */\n      add\n        /* \"#utility.yul\":3117:3143   */\n      swap1\n      pop\n        /* \"#utility.yul\":3153:3224   */\n      tag_220\n        /* \"#utility.yul\":3221:3222   */\n      0x00\n        /* \"#utility.yul\":3210:3219   */\n      dup4\n        /* \"#utility.yul\":3206:3223   */\n      add\n        /* \"#utility.yul\":3197:3203   */\n      dup7\n        /* \"#utility.yul\":3153:3224   */\n      tag_211\n      jump\t// in\n    tag_220:\n        /* \"#utility.yul\":3234:3306   */\n      tag_221\n        /* \"#utility.yul\":3302:3304   */\n      0x20\n        /* \"#utility.yul\":3291:3300   */\n      dup4\n        /* \"#utility.yul\":3287:3305   */\n      add\n        /* \"#utility.yul\":3278:3284   */\n      dup6\n        /* \"#utility.yul\":3234:3306   */\n      tag_211\n      jump\t// in\n    tag_221:\n        /* \"#utility.yul\":3316:3388   */\n      tag_222\n        /* \"#utility.yul\":3384:3386   */\n      0x40\n        /* \"#utility.yul\":3373:3382   */\n      dup4\n        /* \"#utility.yul\":3369:3387   */\n      add\n        /* \"#utility.yul\":3360:3366   */\n      dup5\n        /* \"#utility.yul\":3316:3388   */\n      tag_211\n      jump\t// in\n    tag_222:\n        /* \"#utility.yul\":2953:3395   */\n      swap5\n      swap4\n      pop\n      pop\n      pop\n      pop\n      jump\t// out\n        /* \"#utility.yul\":3482:3787   */\n    tag_119:\n        /* \"#utility.yul\":3522:3525   */\n      0x00\n        /* \"#utility.yul\":3541:3561   */\n      tag_226\n        /* \"#utility.yul\":3559:3560   */\n      dup3\n        /* \"#utility.yul\":3541:3561   */\n      tag_214\n      jump\t// in\n    tag_226:\n        /* \"#utility.yul\":3536:3561   */\n      swap2\n      pop\n        /* \"#utility.yul\":3575:3595   */\n      tag_227\n        /* \"#utility.yul\":3593:3594   */\n      dup4\n        /* \"#utility.yul\":3575:3595   */\n      tag_214\n      jump\t// in\n    tag_227:\n        /* \"#utility.yul\":3570:3595   */\n      swap3\n      pop\n        /* \"#utility.yul\":3729:3730   */\n      dup3\n        /* \"#utility.yul\":3661:3727   */\n      0xffffffffffffffffffffffffffffffffffffffffffffffffffffffffffffffff\n        /* \"#utility.yul\":3657:3731   */\n      sub\n        /* \"#utility.yul\":3654:3655   */\n      dup3\n        /* \"#utility.yul\":3651:3732   */\n      gt\n        /* \"#utility.yul\":3648:3755   */\n      iszero\n      tag_228\n      jumpi\n        /* \"#utility.yul\":3735:3753   */\n      tag_229\n      tag_230\n      jump\t// in\n    tag_229:\n        /* \"#utility.yul\":3648:3755   */\n    tag_228:\n        /* \"#utility.yul\":3779:3780   */\n      dup3\n        /* \"#utility.yul\":3776:3777   */\n      dup3\n        /* \"#utility.yul\":3772:3781   */\n      add\n        /* \"#utility.yul\":3765:3781   */\n      swap1\n      pop\n        /* \"#utility.yul\":3482:3787   */\n      swap3\n      swap2\n      pop\n      pop\n      jump\t// out\n        /* \"#utility.yul\":3793:4141   */\n    tag_106:\n        /* \"#utility.yul\":3833:3840   */\n      0x00\n        /* \"#utility.yul\":3856:3876   */\n      tag_232\n        /* \"#utility.yul\":3874:3875   */\n      dup3\n        /* \"#utility.yul\":3856:3876   */\n      tag_214\n      jump\t// in\n    tag_232:\n        /* \"#utility.yul\":3851:3876   */\n      swap2\n      pop\n        /* \"#utility.yul\":3890:3910   */\n      tag_233\n        /* \"#utility.yul\":3908:3909   */\n      dup4\n        /* \"#utility.yul\":3890:3910   */\n      tag_214\n      jump\t// in\n    tag_233:\n        /* \"#utility.yul\":3885:3910   */\n      swap3\n      pop\n        /* \"#utility.yul\":4078:4079   */\n      dup2\n        /* \"#utility.yul\":4010:4076   */\n      0xffffffffffffffffffffffffffffffffffffffffffffffffffffffffffffffff\n        /* \"#utility.yul\":4006:4080   */\n      div\n        /* \"#utility.yul\":4003:4004   */\n      dup4\n        /* \"#utility.yul\":4000:4081   */\n      gt\n        /* \"#utility.yul\":3995:3996   */\n      dup3\n        /* \"#utility.yul\":3988:3997   */\n      iszero\n        /* \"#utility.yul\":3981:3998   */\n      iszero\n        /* \"#utility.yul\":3977:4082   */\n      and\n        /* \"#utility.yul\":3974:4105   */\n      iszero\n      tag_234\n      jumpi\n        /* \"#utility.yul\":4085:4103   */\n      tag_235\n      tag_230\n      jump\t// in\n    tag_235:\n        /* \"#utility.yul\":3974:4105   */\n    tag_234:\n        /* \"#utility.yul\":4133:4134   */\n      dup3\n        /* \"#utility.yul\":4130:4131   */\n      dup3\n        /* \"#utility.yul\":4126:4135   */\n      mul\n        /* \"#utility.yul\":4115:4135   */\n      swap1\n      pop\n        /* \"#utility.yul\":3793:4141   */\n      swap3\n      swap2\n      pop\n      pop\n      jump\t// out\n        /* \"#utility.yul\":4147:4338   */\n    tag_115:\n        /* \"#utility.yul\":4187:4191   */\n      0x00\n        /* \"#utility.yul\":4207:4227   */\n      tag_237\n        /* \"#utility.yul\":4225:4226   */\n      dup3\n        /* \"#utility.yul\":4207:4227   */\n      tag_214\n      jump\t// in\n    tag_237:\n        /* \"#utility.yul\":4202:4227   */\n      swap2\n      pop\n        /* \"#utility.yul\":4241:4261   */\n      tag_238\n        /* \"#utility.yul\":4259:4260   */\n      dup4\n        /* \"#utility.yul\":4241:4261   */\n      tag_214\n      jump\t// in\n    tag_238:\n        /* \"#utility.yul\":4236:4261   */\n      swap3\n      pop\n        /* \"#utility.yul\":4280:4281   */\n      dup3\n        /* \"#utility.yul\":4277:4278   */\n      dup3\n        /* \"#utility.yul\":4274:4282   */\n      lt\n        /* \"#utility.yul\":4271:4305   */\n      iszero\n      tag_239\n      jumpi\n        /* \"#utility.yul\":4285:4303   */\n      tag_240\n      tag_230\n      jump\t// in\n    tag_240:\n        /* \"#utility.yul\":4271:4305   */\n    tag_239:\n        /* \"#utility.yul\":4330:4331   */\n      dup3\n        /* \"#utility.yul\":4327:4328   */\n      dup3\n        /* \"#utility.yul\":4323:4332   */\n      sub\n        /* \"#utility.yul\":4315:4332   */\n      swap1\n      pop\n        /* \"#utility.yul\":4147:4338   */\n      swap3\n      swap2\n      pop\n      pop\n      jump\t// out\n        /* \"#utility.yul\":4344:4440   */\n    tag_210:\n        /* \"#utility.yul\":4381:4388   */\n      0x00\n        /* \"#utility.yul\":4410:4434   */\n      tag_242\n        /* \"#utility.yul\":4428:4433   */\n      dup3\n        /* \"#utility.yul\":4410:4434   */\n      tag_243\n      jump\t// in\n    tag_242:\n        /* \"#utility.yul\":4399:4434   */\n      swap1\n      pop\n        /* \"#utility.yul\":4344:4440   */\n      swap2\n      swap1\n      pop\n      jump\t// out\n        /* \"#utility.yul\":4446:4550   */\n    tag_244:\n        /* \"#utility.yul\":4491:4498   */\n      0x00\n        /* \"#utility.yul\":4520:4544   */\n      tag_246\n        /* \"#utility.yul\":4538:4543   */\n      dup3\n        /* \"#utility.yul\":4520:4544   */\n      tag_243\n      jump\t// in\n    tag_246:\n        /* \"#utility.yul\":4509:4544   */\n      swap1\n      pop\n        /* \"#utility.yul\":4446:4550   */\n      swap2\n      swap1\n      pop\n      jump\t// out\n        /* \"#utility.yul\":4556:4682   */\n    tag_243:\n        /* \"#utility.yul\":4593:4600   */\n      0x00\n        /* \"#utility.yul\":4633:4675   */\n      0xffffffffffffffffffffffffffffffffffffffff\n        /* \"#utility.yul\":4626:4631   */\n      dup3\n        /* \"#utility.yul\":4622:4676   */\n      and\n        /* \"#utility.yul\":4611:4676   */\n      swap1\n      pop\n        /* \"#utility.yul\":4556:4682   */\n      swap2\n      swap1\n      pop\n      jump\t// out\n        /* \"#utility.yul\":4688:4765   */\n    tag_214:\n        /* \"#utility.yul\":4725:4732   */\n      0x00\n        /* \"#utility.yul\":4754:4759   */\n      dup2\n        /* \"#utility.yul\":4743:4759   */\n      swap1\n      pop\n        /* \"#utility.yul\":4688:4765   */\n      swap2\n      swap1\n      pop\n      jump\t// out\n        /* \"#utility.yul\":4771:4951   */\n    tag_230:\n        /* \"#utility.yul\":4819:4896   */\n      0x4e487b7100000000000000000000000000000000000000000000000000000000\n        /* \"#utility.yul\":4816:4817   */\n      0x00\n        /* \"#utility.yul\":4809:4897   */\n      mstore\n        /* \"#utility.yul\":4916:4920   */\n      0x11\n        /* \"#utility.yul\":4913:4914   */\n      0x04\n        /* \"#utility.yul\":4906:4921   */\n      mstore\n        /* \"#utility.yul\":4940:4944   */\n      0x24\n        /* \"#utility.yul\":4937:4938   */\n      0x00\n        /* \"#utility.yul\":4930:4945   */\n      revert\n        /* \"#utility.yul\":5080:5197   */\n    tag_190:\n        /* \"#utility.yul\":5189:5190   */\n      0x00\n        /* \"#utility.yul\":5186:5187   */\n      dup1\n        /* \"#utility.yul\":5179:5191   */\n      revert\n        /* \"#utility.yul\":5203:5325   */\n    tag_178:\n        /* \"#utility.yul\":5276:5300   */\n      tag_254\n        /* \"#utility.yul\":5294:5299   */\n      dup2\n        /* \"#utility.yul\":5276:5300   */\n      tag_210\n      jump\t// in\n    tag_254:\n        /* \"#utility.yul\":5269:5274   */\n      dup2\n        /* \"#utility.yul\":5266:5301   */\n      eq\n        /* \"#utility.yul\":5256:5319   */\n      tag_255\n      jumpi\n        /* \"#utility.yul\":5315:5316   */\n      0x00\n        /* \"#utility.yul\":5312:5313   */\n      dup1\n        /* \"#utility.yul\":5305:5317   */\n      revert\n        /* \"#utility.yul\":5256:5319   */\n    tag_255:\n        /* \"#utility.yul\":5203:5325   */\n      pop\n      jump\t// out\n        /* \"#utility.yul\":5331:5469   */\n    tag_182:\n        /* \"#utility.yul\":5412:5444   */\n      tag_257\n        /* \"#utility.yul\":5438:5443   */\n      dup2\n        /* \"#utility.yul\":5412:5444   */\n      tag_244\n      jump\t// in\n    tag_257:\n        /* \"#utility.yul\":5405:5410   */\n      dup2\n        /* \"#utility.yul\":5402:5445   */\n      eq\n        /* \"#utility.yul\":5392:5463   */\n      tag_258\n      jumpi\n        /* \"#utility.yul\":5459:5460   */\n      0x00\n        /* \"#utility.yul\":5456:5457   */\n      dup1\n        /* \"#utility.yul\":5449:5461   */\n      revert\n        /* \"#utility.yul\":5392:5463   */\n    tag_258:\n        /* \"#utility.yul\":5331:5469   */\n      pop\n      jump\t// out\n        /* \"#utility.yul\":5475:5597   */\n    tag_186:\n        /* \"#utility.yul\":5548:5572   */\n      tag_260\n        /* \"#utility.yul\":5566:5571   */\n      dup2\n        /* \"#utility.yul\":5548:5572   */\n      tag_214\n      jump\t// in\n    tag_260:\n        /* \"#utility.yul\":5541:5546   */\n      dup2\n        /* \"#utility.yul\":5538:5573   */\n      eq\n        /* \"#utility.yul\":5528:5591   */\n      tag_261\n      jumpi\n        /* \"#utility.yul\":5587:5588   */\n      0x00\n        /* \"#utility.yul\":5584:5585   */\n      dup1\n        /* \"#utility.yul\":5577:5589   */\n      revert\n        /* \"#utility.yul\":5528:5591   */\n    tag_261:\n        /* \"#utility.yul\":5475:5597   */\n      pop\n      jump\t// out\n\n    auxdata: 0xa2646970667358221220975a6106f01950555558865db9a5b6d069ba33ba0742252b549afba15461432c64736f6c63430008070033\n}\n",
				"bytecode": {
					"linkReferences": {},
					"object": "6080604052600060125560036013556003601455600460155560056016556006601755600760185560086019556009601a55600a601b5534801561004257600080fd5b50610bac806100526000396000f3fe6080604052600436106101095760003560e01c8063a8bdb68b11610095578063c2c496ec11610064578063c2c496ec14610352578063d0679d341461037d578063ed2fa5ab14610399578063f02e48c3146103c4578063f8b2cb4f1461040357610109565b8063a8bdb68b14610294578063aacdfe6f146102bf578063b4ad7fa9146102fc578063b69ef8a81461032757610109565b80632c9af64c116100dc5780632c9af64c146101ba578063481c6a75146101e55780635c8f6b5614610210578063721028ec1461024d5780637c134b141461028a57610109565b80630c03a1a31461010e578063103347e71461013957806320e731a11461016457806328780a441461018f575b600080fd5b34801561011a57600080fd5b50610123610440565b6040516101309190610979565b60405180910390f35b34801561014557600080fd5b5061014e610446565b60405161015b9190610979565b60405180910390f35b34801561017057600080fd5b5061017961044c565b6040516101869190610979565b60405180910390f35b34801561019b57600080fd5b506101a4610452565b6040516101b19190610979565b60405180910390f35b3480156101c657600080fd5b506101cf610458565b6040516101dc9190610979565b60405180910390f35b3480156101f157600080fd5b506101fa61045e565b604051610207919061095e565b60405180910390f35b34801561021c57600080fd5b50610237600480360381019061023291906108c0565b610484565b6040516102449190610979565b60405180910390f35b34801561025957600080fd5b50610274600480360381019061026f91906108c0565b61049b565b6040516102819190610979565b60405180910390f35b610292610715565b005b3480156102a057600080fd5b506102a9610730565b6040516102b69190610979565b60405180910390f35b3480156102cb57600080fd5b506102e660048036038101906102e191906108c0565b610736565b6040516102f3919061095e565b60405180910390f35b34801561030857600080fd5b5061031161076c565b60405161031e9190610979565b60405180910390f35b34801561033357600080fd5b5061033c610772565b6040516103499190610979565b60405180910390f35b34801561035e57600080fd5b50610367610778565b6040516103749190610979565b60405180910390f35b61039760048036038101906103929190610880565b61077e565b005b3480156103a557600080fd5b506103ae6107d6565b6040516103bb9190610979565b60405180910390f35b3480156103d057600080fd5b506103eb60048036038101906103e691906108ed565b6107dc565b6040516103fa93929190610994565b60405180910390f35b34801561040f57600080fd5b5061042a60048036038101906104259190610853565b6107f3565b6040516104379190610979565b60405180910390f35b60185481565b60175481565b60165481565b60155481565b60135481565b600160009054906101000a900473ffffffffffffffffffffffffffffffffffffffff1681565b6000601354826104949190610a21565b9050919050565b600060fb82101561069b5760338210156104c457601454826104bd9190610a21565b9050610696565b6032821180156104d45750606582105b15610513576015546032836104e99190610a7b565b6104f39190610a21565b60145460326105029190610a21565b61050c91906109cb565b9050610695565b6064821180156105235750609782105b1561057b576016546032836105389190610a7b565b6105429190610a21565b60155460326105519190610a21565b60145460326105609190610a21565b61056a91906109cb565b61057491906109cb565b9050610694565b60968211801561058b575060c982105b156105fc576017546032836105a09190610a7b565b6105aa9190610a21565b60165460326105b99190610a21565b60155460326105c89190610a21565b60145460326105d79190610a21565b6105e191906109cb565b6105eb91906109cb565b6105f591906109cb565b9050610693565b60c88211801561060c575060fb82105b15610692576018546032836106219190610a7b565b61062b9190610a21565b601754603261063a9190610a21565b60165460326106499190610a21565b60155460326106589190610a21565b60145460326106679190610a21565b61067191906109cb565b61067b91906109cb565b61068591906109cb565b61068f91906109cb565b90505b5b5b5b5b610710565b60fa821180156106ac575061015f82105b156106c657601954826106bf9190610a21565b905061070f565b61015e821180156106d857506101c382105b156106f257601a54826106eb9190610a21565b905061070e565b6101c282111561070d57601b548261070a9190610a21565b90505b5b5b5b919050565b346012600082825461072791906109cb565b92505081905550565b601b5481565b6002816010811061074657600080fd5b016000915054906101000a900473ffffffffffffffffffffffffffffffffffffffff1681565b60195481565b60125481565b60145481565b8034101561078b57600080fd5b8173ffffffffffffffffffffffffffffffffffffffff166108fc829081150290604051600060405180830381858888f193505050501580156107d1573d6000803e3d6000fd5b505050565b601a5481565b600080600085925084915083905093509350939050565b60008173ffffffffffffffffffffffffffffffffffffffff16319050919050565b60008135905061082381610b31565b92915050565b60008135905061083881610b48565b92915050565b60008135905061084d81610b5f565b92915050565b60006020828403121561086957610868610b2c565b5b600061087784828501610814565b91505092915050565b6000806040838503121561089757610896610b2c565b5b60006108a585828601610829565b92505060206108b68582860161083e565b9150509250929050565b6000602082840312156108d6576108d5610b2c565b5b60006108e48482850161083e565b91505092915050565b60008060006060848603121561090657610905610b2c565b5b60006109148682870161083e565b93505060206109258682870161083e565b92505060406109368682870161083e565b9150509250925092565b61094981610aaf565b82525050565b61095881610af3565b82525050565b60006020820190506109736000830184610940565b92915050565b600060208201905061098e600083018461094f565b92915050565b60006060820190506109a9600083018661094f565b6109b6602083018561094f565b6109c3604083018461094f565b949350505050565b60006109d682610af3565b91506109e183610af3565b9250827fffffffffffffffffffffffffffffffffffffffffffffffffffffffffffffffff03821115610a1657610a15610afd565b5b828201905092915050565b6000610a2c82610af3565b9150610a3783610af3565b9250817fffffffffffffffffffffffffffffffffffffffffffffffffffffffffffffffff0483118215151615610a7057610a6f610afd565b5b828202905092915050565b6000610a8682610af3565b9150610a9183610af3565b925082821015610aa457610aa3610afd565b5b828203905092915050565b6000610aba82610ad3565b9050919050565b6000610acc82610ad3565b9050919050565b600073ffffffffffffffffffffffffffffffffffffffff82169050919050565b6000819050919050565b7f4e487b7100000000000000000000000000000000000000000000000000000000600052601160045260246000fd5b600080fd5b610b3a81610aaf565b8114610b4557600080fd5b50565b610b5181610ac1565b8114610b5c57600080fd5b50565b610b6881610af3565b8114610b7357600080fd5b5056fea2646970667358221220975a6106f01950555558865db9a5b6d069ba33ba0742252b549afba15461432c64736f6c63430008070033",
					"opcodes": "PUSH1 0x80 PUSH1 0x40 MSTORE PUSH1 0x0 PUSH1 0x12 SSTORE PUSH1 0x3 PUSH1 0x13 SSTORE PUSH1 0x3 PUSH1 0x14 SSTORE PUSH1 0x4 PUSH1 0x15 SSTORE PUSH1 0x5 PUSH1 0x16 SSTORE PUSH1 0x6 PUSH1 0x17 SSTORE PUSH1 0x7 PUSH1 0x18 SSTORE PUSH1 0x8 PUSH1 0x19 SSTORE PUSH1 0x9 PUSH1 0x1A SSTORE PUSH1 0xA PUSH1 0x1B SSTORE CALLVALUE DUP1 ISZERO PUSH2 0x42 JUMPI PUSH1 0x0 DUP1 REVERT JUMPDEST POP PUSH2 0xBAC DUP1 PUSH2 0x52 PUSH1 0x0 CODECOPY PUSH1 0x0 RETURN INVALID PUSH1 0x80 PUSH1 0x40 MSTORE PUSH1 0x4 CALLDATASIZE LT PUSH2 0x109 JUMPI PUSH1 0x0 CALLDATALOAD PUSH1 0xE0 SHR DUP1 PUSH4 0xA8BDB68B GT PUSH2 0x95 JUMPI DUP1 PUSH4 0xC2C496EC GT PUSH2 0x64 JUMPI DUP1 PUSH4 0xC2C496EC EQ PUSH2 0x352 JUMPI DUP1 PUSH4 0xD0679D34 EQ PUSH2 0x37D JUMPI DUP1 PUSH4 0xED2FA5AB EQ PUSH2 0x399 JUMPI DUP1 PUSH4 0xF02E48C3 EQ PUSH2 0x3C4 JUMPI DUP1 PUSH4 0xF8B2CB4F EQ PUSH2 0x403 JUMPI PUSH2 0x109 JUMP JUMPDEST DUP1 PUSH4 0xA8BDB68B EQ PUSH2 0x294 JUMPI DUP1 PUSH4 0xAACDFE6F EQ PUSH2 0x2BF JUMPI DUP1 PUSH4 0xB4AD7FA9 EQ PUSH2 0x2FC JUMPI DUP1 PUSH4 0xB69EF8A8 EQ PUSH2 0x327 JUMPI PUSH2 0x109 JUMP JUMPDEST DUP1 PUSH4 0x2C9AF64C GT PUSH2 0xDC JUMPI DUP1 PUSH4 0x2C9AF64C EQ PUSH2 0x1BA JUMPI DUP1 PUSH4 0x481C6A75 EQ PUSH2 0x1E5 JUMPI DUP1 PUSH4 0x5C8F6B56 EQ PUSH2 0x210 JUMPI DUP1 PUSH4 0x721028EC EQ PUSH2 0x24D JUMPI DUP1 PUSH4 0x7C134B14 EQ PUSH2 0x28A JUMPI PUSH2 0x109 JUMP JUMPDEST DUP1 PUSH4 0xC03A1A3 EQ PUSH2 0x10E JUMPI DUP1 PUSH4 0x103347E7 EQ PUSH2 0x139 JUMPI DUP1 PUSH4 0x20E731A1 EQ PUSH2 0x164 JUMPI DUP1 PUSH4 0x28780A44 EQ PUSH2 0x18F JUMPI JUMPDEST PUSH1 0x0 DUP1 REVERT JUMPDEST CALLVALUE DUP1 ISZERO PUSH2 0x11A JUMPI PUSH1 0x0 DUP1 REVERT JUMPDEST POP PUSH2 0x123 PUSH2 0x440 JUMP JUMPDEST PUSH1 0x40 MLOAD PUSH2 0x130 SWAP2 SWAP1 PUSH2 0x979 JUMP JUMPDEST PUSH1 0x40 MLOAD DUP1 SWAP2 SUB SWAP1 RETURN JUMPDEST CALLVALUE DUP1 ISZERO PUSH2 0x145 JUMPI PUSH1 0x0 DUP1 REVERT JUMPDEST POP PUSH2 0x14E PUSH2 0x446 JUMP JUMPDEST PUSH1 0x40 MLOAD PUSH2 0x15B SWAP2 SWAP1 PUSH2 0x979 JUMP JUMPDEST PUSH1 0x40 MLOAD DUP1 SWAP2 SUB SWAP1 RETURN JUMPDEST CALLVALUE DUP1 ISZERO PUSH2 0x170 JUMPI PUSH1 0x0 DUP1 REVERT JUMPDEST POP PUSH2 0x179 PUSH2 0x44C JUMP JUMPDEST PUSH1 0x40 MLOAD PUSH2 0x186 SWAP2 SWAP1 PUSH2 0x979 JUMP JUMPDEST PUSH1 0x40 MLOAD DUP1 SWAP2 SUB SWAP1 RETURN JUMPDEST CALLVALUE DUP1 ISZERO PUSH2 0x19B JUMPI PUSH1 0x0 DUP1 REVERT JUMPDEST POP PUSH2 0x1A4 PUSH2 0x452 JUMP JUMPDEST PUSH1 0x40 MLOAD PUSH2 0x1B1 SWAP2 SWAP1 PUSH2 0x979 JUMP JUMPDEST PUSH1 0x40 MLOAD DUP1 SWAP2 SUB SWAP1 RETURN JUMPDEST CALLVALUE DUP1 ISZERO PUSH2 0x1C6 JUMPI PUSH1 0x0 DUP1 REVERT JUMPDEST POP PUSH2 0x1CF PUSH2 0x458 JUMP JUMPDEST PUSH1 0x40 MLOAD PUSH2 0x1DC SWAP2 SWAP1 PUSH2 0x979 JUMP JUMPDEST PUSH1 0x40 MLOAD DUP1 SWAP2 SUB SWAP1 RETURN JUMPDEST CALLVALUE DUP1 ISZERO PUSH2 0x1F1 JUMPI PUSH1 0x0 DUP1 REVERT JUMPDEST POP PUSH2 0x1FA PUSH2 0x45E JUMP JUMPDEST PUSH1 0x40 MLOAD PUSH2 0x207 SWAP2 SWAP1 PUSH2 0x95E JUMP JUMPDEST PUSH1 0x40 MLOAD DUP1 SWAP2 SUB SWAP1 RETURN JUMPDEST CALLVALUE DUP1 ISZERO PUSH2 0x21C JUMPI PUSH1 0x0 DUP1 REVERT JUMPDEST POP PUSH2 0x237 PUSH1 0x4 DUP1 CALLDATASIZE SUB DUP2 ADD SWAP1 PUSH2 0x232 SWAP2 SWAP1 PUSH2 0x8C0 JUMP JUMPDEST PUSH2 0x484 JUMP JUMPDEST PUSH1 0x40 MLOAD PUSH2 0x244 SWAP2 SWAP1 PUSH2 0x979 JUMP JUMPDEST PUSH1 0x40 MLOAD DUP1 SWAP2 SUB SWAP1 RETURN JUMPDEST CALLVALUE DUP1 ISZERO PUSH2 0x259 JUMPI PUSH1 0x0 DUP1 REVERT JUMPDEST POP PUSH2 0x274 PUSH1 0x4 DUP1 CALLDATASIZE SUB DUP2 ADD SWAP1 PUSH2 0x26F SWAP2 SWAP1 PUSH2 0x8C0 JUMP JUMPDEST PUSH2 0x49B JUMP JUMPDEST PUSH1 0x40 MLOAD PUSH2 0x281 SWAP2 SWAP1 PUSH2 0x979 JUMP JUMPDEST PUSH1 0x40 MLOAD DUP1 SWAP2 SUB SWAP1 RETURN JUMPDEST PUSH2 0x292 PUSH2 0x715 JUMP JUMPDEST STOP JUMPDEST CALLVALUE DUP1 ISZERO PUSH2 0x2A0 JUMPI PUSH1 0x0 DUP1 REVERT JUMPDEST POP PUSH2 0x2A9 PUSH2 0x730 JUMP JUMPDEST PUSH1 0x40 MLOAD PUSH2 0x2B6 SWAP2 SWAP1 PUSH2 0x979 JUMP JUMPDEST PUSH1 0x40 MLOAD DUP1 SWAP2 SUB SWAP1 RETURN JUMPDEST CALLVALUE DUP1 ISZERO PUSH2 0x2CB JUMPI PUSH1 0x0 DUP1 REVERT JUMPDEST POP PUSH2 0x2E6 PUSH1 0x4 DUP1 CALLDATASIZE SUB DUP2 ADD SWAP1 PUSH2 0x2E1 SWAP2 SWAP1 PUSH2 0x8C0 JUMP JUMPDEST PUSH2 0x736 JUMP JUMPDEST PUSH1 0x40 MLOAD PUSH2 0x2F3 SWAP2 SWAP1 PUSH2 0x95E JUMP JUMPDEST PUSH1 0x40 MLOAD DUP1 SWAP2 SUB SWAP1 RETURN JUMPDEST CALLVALUE DUP1 ISZERO PUSH2 0x308 JUMPI PUSH1 0x0 DUP1 REVERT JUMPDEST POP PUSH2 0x311 PUSH2 0x76C JUMP JUMPDEST PUSH1 0x40 MLOAD PUSH2 0x31E SWAP2 SWAP1 PUSH2 0x979 JUMP JUMPDEST PUSH1 0x40 MLOAD DUP1 SWAP2 SUB SWAP1 RETURN JUMPDEST CALLVALUE DUP1 ISZERO PUSH2 0x333 JUMPI PUSH1 0x0 DUP1 REVERT JUMPDEST POP PUSH2 0x33C PUSH2 0x772 JUMP JUMPDEST PUSH1 0x40 MLOAD PUSH2 0x349 SWAP2 SWAP1 PUSH2 0x979 JUMP JUMPDEST PUSH1 0x40 MLOAD DUP1 SWAP2 SUB SWAP1 RETURN JUMPDEST CALLVALUE DUP1 ISZERO PUSH2 0x35E JUMPI PUSH1 0x0 DUP1 REVERT JUMPDEST POP PUSH2 0x367 PUSH2 0x778 JUMP JUMPDEST PUSH1 0x40 MLOAD PUSH2 0x374 SWAP2 SWAP1 PUSH2 0x979 JUMP JUMPDEST PUSH1 0x40 MLOAD DUP1 SWAP2 SUB SWAP1 RETURN JUMPDEST PUSH2 0x397 PUSH1 0x4 DUP1 CALLDATASIZE SUB DUP2 ADD SWAP1 PUSH2 0x392 SWAP2 SWAP1 PUSH2 0x880 JUMP JUMPDEST PUSH2 0x77E JUMP JUMPDEST STOP JUMPDEST CALLVALUE DUP1 ISZERO PUSH2 0x3A5 JUMPI PUSH1 0x0 DUP1 REVERT JUMPDEST POP PUSH2 0x3AE PUSH2 0x7D6 JUMP JUMPDEST PUSH1 0x40 MLOAD PUSH2 0x3BB SWAP2 SWAP1 PUSH2 0x979 JUMP JUMPDEST PUSH1 0x40 MLOAD DUP1 SWAP2 SUB SWAP1 RETURN JUMPDEST CALLVALUE DUP1 ISZERO PUSH2 0x3D0 JUMPI PUSH1 0x0 DUP1 REVERT JUMPDEST POP PUSH2 0x3EB PUSH1 0x4 DUP1 CALLDATASIZE SUB DUP2 ADD SWAP1 PUSH2 0x3E6 SWAP2 SWAP1 PUSH2 0x8ED JUMP JUMPDEST PUSH2 0x7DC JUMP JUMPDEST PUSH1 0x40 MLOAD PUSH2 0x3FA SWAP4 SWAP3 SWAP2 SWAP1 PUSH2 0x994 JUMP JUMPDEST PUSH1 0x40 MLOAD DUP1 SWAP2 SUB SWAP1 RETURN JUMPDEST CALLVALUE DUP1 ISZERO PUSH2 0x40F JUMPI PUSH1 0x0 DUP1 REVERT JUMPDEST POP PUSH2 0x42A PUSH1 0x4 DUP1 CALLDATASIZE SUB DUP2 ADD SWAP1 PUSH2 0x425 SWAP2 SWAP1 PUSH2 0x853 JUMP JUMPDEST PUSH2 0x7F3 JUMP JUMPDEST PUSH1 0x40 MLOAD PUSH2 0x437 SWAP2 SWAP1 PUSH2 0x979 JUMP JUMPDEST PUSH1 0x40 MLOAD DUP1 SWAP2 SUB SWAP1 RETURN JUMPDEST PUSH1 0x18 SLOAD DUP2 JUMP JUMPDEST PUSH1 0x17 SLOAD DUP2 JUMP JUMPDEST PUSH1 0x16 SLOAD DUP2 JUMP JUMPDEST PUSH1 0x15 SLOAD DUP2 JUMP JUMPDEST PUSH1 0x13 SLOAD DUP2 JUMP JUMPDEST PUSH1 0x1 PUSH1 0x0 SWAP1 SLOAD SWAP1 PUSH2 0x100 EXP SWAP1 DIV PUSH20 0xFFFFFFFFFFFFFFFFFFFFFFFFFFFFFFFFFFFFFFFF AND DUP2 JUMP JUMPDEST PUSH1 0x0 PUSH1 0x13 SLOAD DUP3 PUSH2 0x494 SWAP2 SWAP1 PUSH2 0xA21 JUMP JUMPDEST SWAP1 POP SWAP2 SWAP1 POP JUMP JUMPDEST PUSH1 0x0 PUSH1 0xFB DUP3 LT ISZERO PUSH2 0x69B JUMPI PUSH1 0x33 DUP3 LT ISZERO PUSH2 0x4C4 JUMPI PUSH1 0x14 SLOAD DUP3 PUSH2 0x4BD SWAP2 SWAP1 PUSH2 0xA21 JUMP JUMPDEST SWAP1 POP PUSH2 0x696 JUMP JUMPDEST PUSH1 0x32 DUP3 GT DUP1 ISZERO PUSH2 0x4D4 JUMPI POP PUSH1 0x65 DUP3 LT JUMPDEST ISZERO PUSH2 0x513 JUMPI PUSH1 0x15 SLOAD PUSH1 0x32 DUP4 PUSH2 0x4E9 SWAP2 SWAP1 PUSH2 0xA7B JUMP JUMPDEST PUSH2 0x4F3 SWAP2 SWAP1 PUSH2 0xA21 JUMP JUMPDEST PUSH1 0x14 SLOAD PUSH1 0x32 PUSH2 0x502 SWAP2 SWAP1 PUSH2 0xA21 JUMP JUMPDEST PUSH2 0x50C SWAP2 SWAP1 PUSH2 0x9CB JUMP JUMPDEST SWAP1 POP PUSH2 0x695 JUMP JUMPDEST PUSH1 0x64 DUP3 GT DUP1 ISZERO PUSH2 0x523 JUMPI POP PUSH1 0x97 DUP3 LT JUMPDEST ISZERO PUSH2 0x57B JUMPI PUSH1 0x16 SLOAD PUSH1 0x32 DUP4 PUSH2 0x538 SWAP2 SWAP1 PUSH2 0xA7B JUMP JUMPDEST PUSH2 0x542 SWAP2 SWAP1 PUSH2 0xA21 JUMP JUMPDEST PUSH1 0x15 SLOAD PUSH1 0x32 PUSH2 0x551 SWAP2 SWAP1 PUSH2 0xA21 JUMP JUMPDEST PUSH1 0x14 SLOAD PUSH1 0x32 PUSH2 0x560 SWAP2 SWAP1 PUSH2 0xA21 JUMP JUMPDEST PUSH2 0x56A SWAP2 SWAP1 PUSH2 0x9CB JUMP JUMPDEST PUSH2 0x574 SWAP2 SWAP1 PUSH2 0x9CB JUMP JUMPDEST SWAP1 POP PUSH2 0x694 JUMP JUMPDEST PUSH1 0x96 DUP3 GT DUP1 ISZERO PUSH2 0x58B JUMPI POP PUSH1 0xC9 DUP3 LT JUMPDEST ISZERO PUSH2 0x5FC JUMPI PUSH1 0x17 SLOAD PUSH1 0x32 DUP4 PUSH2 0x5A0 SWAP2 SWAP1 PUSH2 0xA7B JUMP JUMPDEST PUSH2 0x5AA SWAP2 SWAP1 PUSH2 0xA21 JUMP JUMPDEST PUSH1 0x16 SLOAD PUSH1 0x32 PUSH2 0x5B9 SWAP2 SWAP1 PUSH2 0xA21 JUMP JUMPDEST PUSH1 0x15 SLOAD PUSH1 0x32 PUSH2 0x5C8 SWAP2 SWAP1 PUSH2 0xA21 JUMP JUMPDEST PUSH1 0x14 SLOAD PUSH1 0x32 PUSH2 0x5D7 SWAP2 SWAP1 PUSH2 0xA21 JUMP JUMPDEST PUSH2 0x5E1 SWAP2 SWAP1 PUSH2 0x9CB JUMP JUMPDEST PUSH2 0x5EB SWAP2 SWAP1 PUSH2 0x9CB JUMP JUMPDEST PUSH2 0x5F5 SWAP2 SWAP1 PUSH2 0x9CB JUMP JUMPDEST SWAP1 POP PUSH2 0x693 JUMP JUMPDEST PUSH1 0xC8 DUP3 GT DUP1 ISZERO PUSH2 0x60C JUMPI POP PUSH1 0xFB DUP3 LT JUMPDEST ISZERO PUSH2 0x692 JUMPI PUSH1 0x18 SLOAD PUSH1 0x32 DUP4 PUSH2 0x621 SWAP2 SWAP1 PUSH2 0xA7B JUMP JUMPDEST PUSH2 0x62B SWAP2 SWAP1 PUSH2 0xA21 JUMP JUMPDEST PUSH1 0x17 SLOAD PUSH1 0x32 PUSH2 0x63A SWAP2 SWAP1 PUSH2 0xA21 JUMP JUMPDEST PUSH1 0x16 SLOAD PUSH1 0x32 PUSH2 0x649 SWAP2 SWAP1 PUSH2 0xA21 JUMP JUMPDEST PUSH1 0x15 SLOAD PUSH1 0x32 PUSH2 0x658 SWAP2 SWAP1 PUSH2 0xA21 JUMP JUMPDEST PUSH1 0x14 SLOAD PUSH1 0x32 PUSH2 0x667 SWAP2 SWAP1 PUSH2 0xA21 JUMP JUMPDEST PUSH2 0x671 SWAP2 SWAP1 PUSH2 0x9CB JUMP JUMPDEST PUSH2 0x67B SWAP2 SWAP1 PUSH2 0x9CB JUMP JUMPDEST PUSH2 0x685 SWAP2 SWAP1 PUSH2 0x9CB JUMP JUMPDEST PUSH2 0x68F SWAP2 SWAP1 PUSH2 0x9CB JUMP JUMPDEST SWAP1 POP JUMPDEST JUMPDEST JUMPDEST JUMPDEST JUMPDEST PUSH2 0x710 JUMP JUMPDEST PUSH1 0xFA DUP3 GT DUP1 ISZERO PUSH2 0x6AC JUMPI POP PUSH2 0x15F DUP3 LT JUMPDEST ISZERO PUSH2 0x6C6 JUMPI PUSH1 0x19 SLOAD DUP3 PUSH2 0x6BF SWAP2 SWAP1 PUSH2 0xA21 JUMP JUMPDEST SWAP1 POP PUSH2 0x70F JUMP JUMPDEST PUSH2 0x15E DUP3 GT DUP1 ISZERO PUSH2 0x6D8 JUMPI POP PUSH2 0x1C3 DUP3 LT JUMPDEST ISZERO PUSH2 0x6F2 JUMPI PUSH1 0x1A SLOAD DUP3 PUSH2 0x6EB SWAP2 SWAP1 PUSH2 0xA21 JUMP JUMPDEST SWAP1 POP PUSH2 0x70E JUMP JUMPDEST PUSH2 0x1C2 DUP3 GT ISZERO PUSH2 0x70D JUMPI PUSH1 0x1B SLOAD DUP3 PUSH2 0x70A SWAP2 SWAP1 PUSH2 0xA21 JUMP JUMPDEST SWAP1 POP JUMPDEST JUMPDEST JUMPDEST JUMPDEST SWAP2 SWAP1 POP JUMP JUMPDEST CALLVALUE PUSH1 0x12 PUSH1 0x0 DUP3 DUP3 SLOAD PUSH2 0x727 SWAP2 SWAP1 PUSH2 0x9CB JUMP JUMPDEST SWAP3 POP POP DUP2 SWAP1 SSTORE POP JUMP JUMPDEST PUSH1 0x1B SLOAD DUP2 JUMP JUMPDEST PUSH1 0x2 DUP2 PUSH1 0x10 DUP2 LT PUSH2 0x746 JUMPI PUSH1 0x0 DUP1 REVERT JUMPDEST ADD PUSH1 0x0 SWAP2 POP SLOAD SWAP1 PUSH2 0x100 EXP SWAP1 DIV PUSH20 0xFFFFFFFFFFFFFFFFFFFFFFFFFFFFFFFFFFFFFFFF AND DUP2 JUMP JUMPDEST PUSH1 0x19 SLOAD DUP2 JUMP JUMPDEST PUSH1 0x12 SLOAD DUP2 JUMP JUMPDEST PUSH1 0x14 SLOAD DUP2 JUMP JUMPDEST DUP1 CALLVALUE LT ISZERO PUSH2 0x78B JUMPI PUSH1 0x0 DUP1 REVERT JUMPDEST DUP2 PUSH20 0xFFFFFFFFFFFFFFFFFFFFFFFFFFFFFFFFFFFFFFFF AND PUSH2 0x8FC DUP3 SWAP1 DUP2 ISZERO MUL SWAP1 PUSH1 0x40 MLOAD PUSH1 0x0 PUSH1 0x40 MLOAD DUP1 DUP4 SUB DUP2 DUP6 DUP9 DUP9 CALL SWAP4 POP POP POP POP ISZERO DUP1 ISZERO PUSH2 0x7D1 JUMPI RETURNDATASIZE PUSH1 0x0 DUP1 RETURNDATACOPY RETURNDATASIZE PUSH1 0x0 REVERT JUMPDEST POP POP POP JUMP JUMPDEST PUSH1 0x1A SLOAD DUP2 JUMP JUMPDEST PUSH1 0x0 DUP1 PUSH1 0x0 DUP6 SWAP3 POP DUP5 SWAP2 POP DUP4 SWAP1 POP SWAP4 POP SWAP4 POP SWAP4 SWAP1 POP JUMP JUMPDEST PUSH1 0x0 DUP2 PUSH20 0xFFFFFFFFFFFFFFFFFFFFFFFFFFFFFFFFFFFFFFFF AND BALANCE SWAP1 POP SWAP2 SWAP1 POP JUMP JUMPDEST PUSH1 0x0 DUP2 CALLDATALOAD SWAP1 POP PUSH2 0x823 DUP2 PUSH2 0xB31 JUMP JUMPDEST SWAP3 SWAP2 POP POP JUMP JUMPDEST PUSH1 0x0 DUP2 CALLDATALOAD SWAP1 POP PUSH2 0x838 DUP2 PUSH2 0xB48 JUMP JUMPDEST SWAP3 SWAP2 POP POP JUMP JUMPDEST PUSH1 0x0 DUP2 CALLDATALOAD SWAP1 POP PUSH2 0x84D DUP2 PUSH2 0xB5F JUMP JUMPDEST SWAP3 SWAP2 POP POP JUMP JUMPDEST PUSH1 0x0 PUSH1 0x20 DUP3 DUP5 SUB SLT ISZERO PUSH2 0x869 JUMPI PUSH2 0x868 PUSH2 0xB2C JUMP JUMPDEST JUMPDEST PUSH1 0x0 PUSH2 0x877 DUP5 DUP3 DUP6 ADD PUSH2 0x814 JUMP JUMPDEST SWAP2 POP POP SWAP3 SWAP2 POP POP JUMP JUMPDEST PUSH1 0x0 DUP1 PUSH1 0x40 DUP4 DUP6 SUB SLT ISZERO PUSH2 0x897 JUMPI PUSH2 0x896 PUSH2 0xB2C JUMP JUMPDEST JUMPDEST PUSH1 0x0 PUSH2 0x8A5 DUP6 DUP3 DUP7 ADD PUSH2 0x829 JUMP JUMPDEST SWAP3 POP POP PUSH1 0x20 PUSH2 0x8B6 DUP6 DUP3 DUP7 ADD PUSH2 0x83E JUMP JUMPDEST SWAP2 POP POP SWAP3 POP SWAP3 SWAP1 POP JUMP JUMPDEST PUSH1 0x0 PUSH1 0x20 DUP3 DUP5 SUB SLT ISZERO PUSH2 0x8D6 JUMPI PUSH2 0x8D5 PUSH2 0xB2C JUMP JUMPDEST JUMPDEST PUSH1 0x0 PUSH2 0x8E4 DUP5 DUP3 DUP6 ADD PUSH2 0x83E JUMP JUMPDEST SWAP2 POP POP SWAP3 SWAP2 POP POP JUMP JUMPDEST PUSH1 0x0 DUP1 PUSH1 0x0 PUSH1 0x60 DUP5 DUP7 SUB SLT ISZERO PUSH2 0x906 JUMPI PUSH2 0x905 PUSH2 0xB2C JUMP JUMPDEST JUMPDEST PUSH1 0x0 PUSH2 0x914 DUP7 DUP3 DUP8 ADD PUSH2 0x83E JUMP JUMPDEST SWAP4 POP POP PUSH1 0x20 PUSH2 0x925 DUP7 DUP3 DUP8 ADD PUSH2 0x83E JUMP JUMPDEST SWAP3 POP POP PUSH1 0x40 PUSH2 0x936 DUP7 DUP3 DUP8 ADD PUSH2 0x83E JUMP JUMPDEST SWAP2 POP POP SWAP3 POP SWAP3 POP SWAP3 JUMP JUMPDEST PUSH2 0x949 DUP2 PUSH2 0xAAF JUMP JUMPDEST DUP3 MSTORE POP POP JUMP JUMPDEST PUSH2 0x958 DUP2 PUSH2 0xAF3 JUMP JUMPDEST DUP3 MSTORE POP POP JUMP JUMPDEST PUSH1 0x0 PUSH1 0x20 DUP3 ADD SWAP1 POP PUSH2 0x973 PUSH1 0x0 DUP4 ADD DUP5 PUSH2 0x940 JUMP JUMPDEST SWAP3 SWAP2 POP POP JUMP JUMPDEST PUSH1 0x0 PUSH1 0x20 DUP3 ADD SWAP1 POP PUSH2 0x98E PUSH1 0x0 DUP4 ADD DUP5 PUSH2 0x94F JUMP JUMPDEST SWAP3 SWAP2 POP POP JUMP JUMPDEST PUSH1 0x0 PUSH1 0x60 DUP3 ADD SWAP1 POP PUSH2 0x9A9 PUSH1 0x0 DUP4 ADD DUP7 PUSH2 0x94F JUMP JUMPDEST PUSH2 0x9B6 PUSH1 0x20 DUP4 ADD DUP6 PUSH2 0x94F JUMP JUMPDEST PUSH2 0x9C3 PUSH1 0x40 DUP4 ADD DUP5 PUSH2 0x94F JUMP JUMPDEST SWAP5 SWAP4 POP POP POP POP JUMP JUMPDEST PUSH1 0x0 PUSH2 0x9D6 DUP3 PUSH2 0xAF3 JUMP JUMPDEST SWAP2 POP PUSH2 0x9E1 DUP4 PUSH2 0xAF3 JUMP JUMPDEST SWAP3 POP DUP3 PUSH32 0xFFFFFFFFFFFFFFFFFFFFFFFFFFFFFFFFFFFFFFFFFFFFFFFFFFFFFFFFFFFFFFFF SUB DUP3 GT ISZERO PUSH2 0xA16 JUMPI PUSH2 0xA15 PUSH2 0xAFD JUMP JUMPDEST JUMPDEST DUP3 DUP3 ADD SWAP1 POP SWAP3 SWAP2 POP POP JUMP JUMPDEST PUSH1 0x0 PUSH2 0xA2C DUP3 PUSH2 0xAF3 JUMP JUMPDEST SWAP2 POP PUSH2 0xA37 DUP4 PUSH2 0xAF3 JUMP JUMPDEST SWAP3 POP DUP2 PUSH32 0xFFFFFFFFFFFFFFFFFFFFFFFFFFFFFFFFFFFFFFFFFFFFFFFFFFFFFFFFFFFFFFFF DIV DUP4 GT DUP3 ISZERO ISZERO AND ISZERO PUSH2 0xA70 JUMPI PUSH2 0xA6F PUSH2 0xAFD JUMP JUMPDEST JUMPDEST DUP3 DUP3 MUL SWAP1 POP SWAP3 SWAP2 POP POP JUMP JUMPDEST PUSH1 0x0 PUSH2 0xA86 DUP3 PUSH2 0xAF3 JUMP JUMPDEST SWAP2 POP PUSH2 0xA91 DUP4 PUSH2 0xAF3 JUMP JUMPDEST SWAP3 POP DUP3 DUP3 LT ISZERO PUSH2 0xAA4 JUMPI PUSH2 0xAA3 PUSH2 0xAFD JUMP JUMPDEST JUMPDEST DUP3 DUP3 SUB SWAP1 POP SWAP3 SWAP2 POP POP JUMP JUMPDEST PUSH1 0x0 PUSH2 0xABA DUP3 PUSH2 0xAD3 JUMP JUMPDEST SWAP1 POP SWAP2 SWAP1 POP JUMP JUMPDEST PUSH1 0x0 PUSH2 0xACC DUP3 PUSH2 0xAD3 JUMP JUMPDEST SWAP1 POP SWAP2 SWAP1 POP JUMP JUMPDEST PUSH1 0x0 PUSH20 0xFFFFFFFFFFFFFFFFFFFFFFFFFFFFFFFFFFFFFFFF DUP3 AND SWAP1 POP SWAP2 SWAP1 POP JUMP JUMPDEST PUSH1 0x0 DUP2 SWAP1 POP SWAP2 SWAP1 POP JUMP JUMPDEST PUSH32 0x4E487B7100000000000000000000000000000000000000000000000000000000 PUSH1 0x0 MSTORE PUSH1 0x11 PUSH1 0x4 MSTORE PUSH1 0x24 PUSH1 0x0 REVERT JUMPDEST PUSH1 0x0 DUP1 REVERT JUMPDEST PUSH2 0xB3A DUP2 PUSH2 0xAAF JUMP JUMPDEST DUP2 EQ PUSH2 0xB45 JUMPI PUSH1 0x0 DUP1 REVERT JUMPDEST POP JUMP JUMPDEST PUSH2 0xB51 DUP2 PUSH2 0xAC1 JUMP JUMPDEST DUP2 EQ PUSH2 0xB5C JUMPI PUSH1 0x0 DUP1 REVERT JUMPDEST POP JUMP JUMPDEST PUSH2 0xB68 DUP2 PUSH2 0xAF3 JUMP JUMPDEST DUP2 EQ PUSH2 0xB73 JUMPI PUSH1 0x0 DUP1 REVERT JUMPDEST POP JUMP INVALID LOG2 PUSH5 0x6970667358 0x22 SLT KECCAK256 SWAP8 GAS PUSH2 0x6F0 NOT POP SSTORE SSTORE PC DUP7 0x5D 0xB9 0xA5 0xB6 0xD0 PUSH10 0xBA33BA0742252B549AFB LOG1 SLOAD PUSH2 0x432C PUSH5 0x736F6C6343 STOP ADDMOD SMOD STOP CALLER "
				},
				"gasEstimates": {
					"creation": {
						"codeDepositCost": "597600",
						"executionCost": "204592",
						"totalCost": "802192"
					},
					"external": {
						"balCheck()": "infinite",
						"balance()": "2518",
						"btc1()": "2451",
						"btc2()": "2519",
						"btc3()": "2497",
						"btc4()": "2475",
						"btc5()": "2453",
						"btc6()": "2496",
						"btc7()": "2495",
						"btc8()": "2452",
						"btp()": "2452",
						"getBalance(address)": "3367",
						"getConsumerTariff(uint256)": "infinite",
						"getProsumerTariff(uint256)": "infinite",
						"getnPnCnEV(uint256,uint256,uint256)": "infinite",
						"manager()": "2559",
						"seller(uint256)": "2850",
						"send(address,uint256)": "infinite"
					}
				},
				"methodIdentifiers": {
					"balCheck()": "7c134b14",
					"balance()": "b69ef8a8",
					"btc1()": "c2c496ec",
					"btc2()": "28780a44",
					"btc3()": "20e731a1",
					"btc4()": "103347e7",
					"btc5()": "0c03a1a3",
					"btc6()": "b4ad7fa9",
					"btc7()": "ed2fa5ab",
					"btc8()": "a8bdb68b",
					"btp()": "2c9af64c",
					"getBalance(address)": "f8b2cb4f",
					"getConsumerTariff(uint256)": "721028ec",
					"getProsumerTariff(uint256)": "5c8f6b56",
					"getnPnCnEV(uint256,uint256,uint256)": "f02e48c3",
					"manager()": "481c6a75",
					"seller(uint256)": "aacdfe6f",
					"send(address,uint256)": "d0679d34"
				}
			},
			"storageLayout": {
				"storage": [
					{
						"astId": 3,
						"contract": "eth based/truffle/contracts/FLIR_Contract.sol:FLIRContract",
						"label": "owner",
						"offset": 0,
						"slot": "0",
						"type": "t_address"
					},
					{
						"astId": 5,
						"contract": "eth based/truffle/contracts/FLIR_Contract.sol:FLIRContract",
						"label": "manager",
						"offset": 0,
						"slot": "1",
						"type": "t_address"
					},
					{
						"astId": 9,
						"contract": "eth based/truffle/contracts/FLIR_Contract.sol:FLIRContract",
						"label": "seller",
						"offset": 0,
						"slot": "2",
						"type": "t_array(t_address)16_storage"
					},
					{
						"astId": 12,
						"contract": "eth based/truffle/contracts/FLIR_Contract.sol:FLIRContract",
						"label": "balance",
						"offset": 0,
						"slot": "18",
						"type": "t_uint256"
					},
					{
						"astId": 15,
						"contract": "eth based/truffle/contracts/FLIR_Contract.sol:FLIRContract",
						"label": "btp",
						"offset": 0,
						"slot": "19",
						"type": "t_uint256"
					},
					{
						"astId": 18,
						"contract": "eth based/truffle/contracts/FLIR_Contract.sol:FLIRContract",
						"label": "btc1",
						"offset": 0,
						"slot": "20",
						"type": "t_uint256"
					},
					{
						"astId": 21,
						"contract": "eth based/truffle/contracts/FLIR_Contract.sol:FLIRContract",
						"label": "btc2",
						"offset": 0,
						"slot": "21",
						"type": "t_uint256"
					},
					{
						"astId": 24,
						"contract": "eth based/truffle/contracts/FLIR_Contract.sol:FLIRContract",
						"label": "btc3",
						"offset": 0,
						"slot": "22",
						"type": "t_uint256"
					},
					{
						"astId": 27,
						"contract": "eth based/truffle/contracts/FLIR_Contract.sol:FLIRContract",
						"label": "btc4",
						"offset": 0,
						"slot": "23",
						"type": "t_uint256"
					},
					{
						"astId": 30,
						"contract": "eth based/truffle/contracts/FLIR_Contract.sol:FLIRContract",
						"label": "btc5",
						"offset": 0,
						"slot": "24",
						"type": "t_uint256"
					},
					{
						"astId": 33,
						"contract": "eth based/truffle/contracts/FLIR_Contract.sol:FLIRContract",
						"label": "btc6",
						"offset": 0,
						"slot": "25",
						"type": "t_uint256"
					},
					{
						"astId": 36,
						"contract": "eth based/truffle/contracts/FLIR_Contract.sol:FLIRContract",
						"label": "btc7",
						"offset": 0,
						"slot": "26",
						"type": "t_uint256"
					},
					{
						"astId": 39,
						"contract": "eth based/truffle/contracts/FLIR_Contract.sol:FLIRContract",
						"label": "btc8",
						"offset": 0,
						"slot": "27",
						"type": "t_uint256"
					}
				],
				"types": {
					"t_address": {
						"encoding": "inplace",
						"label": "address",
						"numberOfBytes": "20"
					},
					"t_array(t_address)16_storage": {
						"base": "t_address",
						"encoding": "inplace",
						"label": "address[16]",
						"numberOfBytes": "512"
					},
					"t_uint256": {
						"encoding": "inplace",
						"label": "uint256",
						"numberOfBytes": "32"
					}
				}
			},
			"userdoc": {
				"kind": "user",
				"methods": {},
				"version": 1
			}
		}
	}
}