{
	"eth based/truffle/contracts/FLIR_Contract.sol": {
		"FLIRContract": {
			"abi": [
				{
					"inputs": [],
					"stateMutability": "nonpayable",
					"type": "constructor"
				},
				{
					"inputs": [],
					"name": "balCheck",
					"outputs": [],
					"stateMutability": "payable",
					"type": "function"
				},
				{
					"inputs": [],
					"name": "balance",
					"outputs": [
						{
							"internalType": "uint256",
							"name": "",
							"type": "uint256"
						}
					],
					"stateMutability": "view",
					"type": "function"
				},
				{
					"inputs": [
						{
							"internalType": "address",
							"name": "",
							"type": "address"
						}
					],
					"name": "balances",
					"outputs": [
						{
							"internalType": "uint256",
							"name": "",
							"type": "uint256"
						}
					],
					"stateMutability": "view",
					"type": "function"
				},
				{
					"inputs": [],
					"name": "btc1",
					"outputs": [
						{
							"internalType": "uint256",
							"name": "",
							"type": "uint256"
						}
					],
					"stateMutability": "view",
					"type": "function"
				},
				{
					"inputs": [],
					"name": "btc2",
					"outputs": [
						{
							"internalType": "uint256",
							"name": "",
							"type": "uint256"
						}
					],
					"stateMutability": "view",
					"type": "function"
				},
				{
					"inputs": [],
					"name": "btc3",
					"outputs": [
						{
							"internalType": "uint256",
							"name": "",
							"type": "uint256"
						}
					],
					"stateMutability": "view",
					"type": "function"
				},
				{
					"inputs": [],
					"name": "btc4",
					"outputs": [
						{
							"internalType": "uint256",
							"name": "",
							"type": "uint256"
						}
					],
					"stateMutability": "view",
					"type": "function"
				},
				{
					"inputs": [],
					"name": "btc5",
					"outputs": [
						{
							"internalType": "uint256",
							"name": "",
							"type": "uint256"
						}
					],
					"stateMutability": "view",
					"type": "function"
				},
				{
					"inputs": [],
					"name": "btc6",
					"outputs": [
						{
							"internalType": "uint256",
							"name": "",
							"type": "uint256"
						}
					],
					"stateMutability": "view",
					"type": "function"
				},
				{
					"inputs": [],
					"name": "btc7",
					"outputs": [
						{
							"internalType": "uint256",
							"name": "",
							"type": "uint256"
						}
					],
					"stateMutability": "view",
					"type": "function"
				},
				{
					"inputs": [],
					"name": "btc8",
					"outputs": [
						{
							"internalType": "uint256",
							"name": "",
							"type": "uint256"
						}
					],
					"stateMutability": "view",
					"type": "function"
				},
				{
					"inputs": [],
					"name": "btp",
					"outputs": [
						{
							"internalType": "uint256",
							"name": "",
							"type": "uint256"
						}
					],
					"stateMutability": "view",
					"type": "function"
				},
				{
					"inputs": [
						{
							"internalType": "address",
							"name": "_balanceCheck",
							"type": "address"
						}
					],
					"name": "getBalance",
					"outputs": [
						{
							"internalType": "uint256",
							"name": "bal",
							"type": "uint256"
						}
					],
					"stateMutability": "nonpayable",
					"type": "function"
				},
				{
					"inputs": [
						{
							"internalType": "uint256",
							"name": "Cimp",
							"type": "uint256"
						}
					],
					"name": "getConsumerTariff",
					"outputs": [
						{
							"internalType": "uint256",
							"name": "Tc",
							"type": "uint256"
						}
					],
					"stateMutability": "nonpayable",
					"type": "function"
				},
				{
					"inputs": [
						{
							"internalType": "uint256",
							"name": "Pexp",
							"type": "uint256"
						}
					],
					"name": "getProsumerTariff",
					"outputs": [
						{
							"internalType": "uint256",
							"name": "Tp",
							"type": "uint256"
						}
					],
					"stateMutability": "nonpayable",
					"type": "function"
				},
				{
					"inputs": [
						{
							"internalType": "uint256",
							"name": "nPget",
							"type": "uint256"
						},
						{
							"internalType": "uint256",
							"name": "nCget",
							"type": "uint256"
						},
						{
							"internalType": "uint256",
							"name": "nEVget",
							"type": "uint256"
						}
					],
					"name": "getnPnCnEV",
					"outputs": [
						{
							"internalType": "uint256",
							"name": "nP",
							"type": "uint256"
						},
						{
							"internalType": "uint256",
							"name": "nC",
							"type": "uint256"
						},
						{
							"internalType": "uint256",
							"name": "nEV",
							"type": "uint256"
						}
					],
					"stateMutability": "nonpayable",
					"type": "function"
				},
				{
					"inputs": [],
					"name": "manager",
					"outputs": [
						{
							"internalType": "address",
							"name": "",
							"type": "address"
						}
					],
					"stateMutability": "view",
					"type": "function"
				},
				{
					"inputs": [],
					"name": "seller",
					"outputs": [
						{
							"internalType": "address",
							"name": "",
							"type": "address"
						}
					],
					"stateMutability": "view",
					"type": "function"
				},
				{
					"inputs": [
						{
							"internalType": "address payable",
							"name": "_receiver",
							"type": "address"
						},
						{
							"internalType": "uint256",
							"name": "amount",
							"type": "uint256"
						}
					],
					"name": "send",
					"outputs": [],
					"stateMutability": "payable",
					"type": "function"
				}
			],
			"devdoc": {
				"kind": "dev",
				"methods": {},
				"version": 1
			},
			"evm": {
				"assembly": "    /* \"eth based/truffle/contracts/FLIR_Contract.sol\":129:3876  contract FLIRContract{... */\n  mstore(0x40, 0x80)\n    /* \"eth based/truffle/contracts/FLIR_Contract.sol\":711:712  0 */\n  0x00\n    /* \"eth based/truffle/contracts/FLIR_Contract.sol\":689:712  uint public balance = 0 */\n  0x04\n  sstore\n    /* \"eth based/truffle/contracts/FLIR_Contract.sol\":868:869  3 */\n  0x03\n    /* \"eth based/truffle/contracts/FLIR_Contract.sol\":850:869  uint public btp = 3 */\n  0x05\n  sstore\n    /* \"eth based/truffle/contracts/FLIR_Contract.sol\":895:896  3 */\n  0x03\n    /* \"eth based/truffle/contracts/FLIR_Contract.sol\":876:896  uint public btc1 = 3 */\n  0x06\n  sstore\n    /* \"eth based/truffle/contracts/FLIR_Contract.sol\":921:922  4 */\n  0x04\n    /* \"eth based/truffle/contracts/FLIR_Contract.sol\":902:922  uint public btc2 = 4 */\n  0x07\n  sstore\n    /* \"eth based/truffle/contracts/FLIR_Contract.sol\":947:948  5 */\n  0x05\n    /* \"eth based/truffle/contracts/FLIR_Contract.sol\":928:948  uint public btc3 = 5 */\n  0x08\n  sstore\n    /* \"eth based/truffle/contracts/FLIR_Contract.sol\":973:974  6 */\n  0x06\n    /* \"eth based/truffle/contracts/FLIR_Contract.sol\":954:974  uint public btc4 = 6 */\n  0x09\n  sstore\n    /* \"eth based/truffle/contracts/FLIR_Contract.sol\":999:1000  7 */\n  0x07\n    /* \"eth based/truffle/contracts/FLIR_Contract.sol\":980:1000  uint public btc5 = 7 */\n  0x0a\n  sstore\n    /* \"eth based/truffle/contracts/FLIR_Contract.sol\":1025:1026  8 */\n  0x08\n    /* \"eth based/truffle/contracts/FLIR_Contract.sol\":1006:1026  uint public btc6 = 8 */\n  0x0b\n  sstore\n    /* \"eth based/truffle/contracts/FLIR_Contract.sol\":1051:1052  9 */\n  0x09\n    /* \"eth based/truffle/contracts/FLIR_Contract.sol\":1032:1052  uint public btc7 = 9 */\n  0x0c\n  sstore\n    /* \"eth based/truffle/contracts/FLIR_Contract.sol\":1077:1079  10 */\n  0x0a\n    /* \"eth based/truffle/contracts/FLIR_Contract.sol\":1058:1079  uint public btc8 = 10 */\n  0x0d\n  sstore\n    /* \"eth based/truffle/contracts/FLIR_Contract.sol\":718:773  constructor() public{... */\n  callvalue\n  dup1\n  iszero\n  tag_1\n  jumpi\n  0x00\n  dup1\n  revert\ntag_1:\n  pop\n    /* \"eth based/truffle/contracts/FLIR_Contract.sol\":756:766  msg.sender */\n  caller\n    /* \"eth based/truffle/contracts/FLIR_Contract.sol\":748:753  owner */\n  0x00\n  dup1\n    /* \"eth based/truffle/contracts/FLIR_Contract.sol\":748:766  owner = msg.sender */\n  0x0100\n  exp\n  dup2\n  sload\n  dup2\n  0xffffffffffffffffffffffffffffffffffffffff\n  mul\n  not\n  and\n  swap1\n  dup4\n  0xffffffffffffffffffffffffffffffffffffffff\n  and\n  mul\n  or\n  swap1\n  sstore\n  pop\n    /* \"eth based/truffle/contracts/FLIR_Contract.sol\":129:3876  contract FLIRContract{... */\n  dataSize(sub_0)\n  dup1\n  dataOffset(sub_0)\n  0x00\n  codecopy\n  0x00\n  return\nstop\n\nsub_0: assembly {\n        /* \"eth based/truffle/contracts/FLIR_Contract.sol\":129:3876  contract FLIRContract{... */\n      mstore(0x40, 0x80)\n      jumpi(tag_1, lt(calldatasize, 0x04))\n      shr(0xe0, calldataload(0x00))\n      dup1\n      0x721028ec\n      gt\n      tag_21\n      jumpi\n      dup1\n      0xc2c496ec\n      gt\n      tag_22\n      jumpi\n      dup1\n      0xc2c496ec\n      eq\n      tag_16\n      jumpi\n      dup1\n      0xd0679d34\n      eq\n      tag_17\n      jumpi\n      dup1\n      0xed2fa5ab\n      eq\n      tag_18\n      jumpi\n      dup1\n      0xf02e48c3\n      eq\n      tag_19\n      jumpi\n      dup1\n      0xf8b2cb4f\n      eq\n      tag_20\n      jumpi\n      jump(tag_1)\n    tag_22:\n      dup1\n      0x721028ec\n      eq\n      tag_11\n      jumpi\n      dup1\n      0x7c134b14\n      eq\n      tag_12\n      jumpi\n      dup1\n      0xa8bdb68b\n      eq\n      tag_13\n      jumpi\n      dup1\n      0xb4ad7fa9\n      eq\n      tag_14\n      jumpi\n      dup1\n      0xb69ef8a8\n      eq\n      tag_15\n      jumpi\n      jump(tag_1)\n    tag_21:\n      dup1\n      0x27e235e3\n      gt\n      tag_23\n      jumpi\n      dup1\n      0x27e235e3\n      eq\n      tag_6\n      jumpi\n      dup1\n      0x28780a44\n      eq\n      tag_7\n      jumpi\n      dup1\n      0x2c9af64c\n      eq\n      tag_8\n      jumpi\n      dup1\n      0x481c6a75\n      eq\n      tag_9\n      jumpi\n      dup1\n      0x5c8f6b56\n      eq\n      tag_10\n      jumpi\n      jump(tag_1)\n    tag_23:\n      dup1\n      0x08551a53\n      eq\n      tag_2\n      jumpi\n      dup1\n      0x0c03a1a3\n      eq\n      tag_3\n      jumpi\n      dup1\n      0x103347e7\n      eq\n      tag_4\n      jumpi\n      dup1\n      0x20e731a1\n      eq\n      tag_5\n      jumpi\n    tag_1:\n      0x00\n      dup1\n      revert\n        /* \"eth based/truffle/contracts/FLIR_Contract.sol\":203:224  address public seller */\n    tag_2:\n      callvalue\n      dup1\n      iszero\n      tag_24\n      jumpi\n      0x00\n      dup1\n      revert\n    tag_24:\n      pop\n      tag_25\n      tag_26\n      jump\t// in\n    tag_25:\n      mload(0x40)\n      tag_27\n      swap2\n      swap1\n      tag_28\n      jump\t// in\n    tag_27:\n      mload(0x40)\n      dup1\n      swap2\n      sub\n      swap1\n      return\n        /* \"eth based/truffle/contracts/FLIR_Contract.sol\":980:1000  uint public btc5 = 7 */\n    tag_3:\n      callvalue\n      dup1\n      iszero\n      tag_29\n      jumpi\n      0x00\n      dup1\n      revert\n    tag_29:\n      pop\n      tag_30\n      tag_31\n      jump\t// in\n    tag_30:\n      mload(0x40)\n      tag_32\n      swap2\n      swap1\n      tag_33\n      jump\t// in\n    tag_32:\n      mload(0x40)\n      dup1\n      swap2\n      sub\n      swap1\n      return\n        /* \"eth based/truffle/contracts/FLIR_Contract.sol\":954:974  uint public btc4 = 6 */\n    tag_4:\n      callvalue\n      dup1\n      iszero\n      tag_34\n      jumpi\n      0x00\n      dup1\n      revert\n    tag_34:\n      pop\n      tag_35\n      tag_36\n      jump\t// in\n    tag_35:\n      mload(0x40)\n      tag_37\n      swap2\n      swap1\n      tag_33\n      jump\t// in\n    tag_37:\n      mload(0x40)\n      dup1\n      swap2\n      sub\n      swap1\n      return\n        /* \"eth based/truffle/contracts/FLIR_Contract.sol\":928:948  uint public btc3 = 5 */\n    tag_5:\n      callvalue\n      dup1\n      iszero\n      tag_38\n      jumpi\n      0x00\n      dup1\n      revert\n    tag_38:\n      pop\n      tag_39\n      tag_40\n      jump\t// in\n    tag_39:\n      mload(0x40)\n      tag_41\n      swap2\n      swap1\n      tag_33\n      jump\t// in\n    tag_41:\n      mload(0x40)\n      dup1\n      swap2\n      sub\n      swap1\n      return\n        /* \"eth based/truffle/contracts/FLIR_Contract.sol\":230:270  mapping(address => uint) public balances */\n    tag_6:\n      callvalue\n      dup1\n      iszero\n      tag_42\n      jumpi\n      0x00\n      dup1\n      revert\n    tag_42:\n      pop\n      tag_43\n      0x04\n      dup1\n      calldatasize\n      sub\n      dup2\n      add\n      swap1\n      tag_44\n      swap2\n      swap1\n      tag_45\n      jump\t// in\n    tag_44:\n      tag_46\n      jump\t// in\n    tag_43:\n      mload(0x40)\n      tag_47\n      swap2\n      swap1\n      tag_33\n      jump\t// in\n    tag_47:\n      mload(0x40)\n      dup1\n      swap2\n      sub\n      swap1\n      return\n        /* \"eth based/truffle/contracts/FLIR_Contract.sol\":902:922  uint public btc2 = 4 */\n    tag_7:\n      callvalue\n      dup1\n      iszero\n      tag_48\n      jumpi\n      0x00\n      dup1\n      revert\n    tag_48:\n      pop\n      tag_49\n      tag_50\n      jump\t// in\n    tag_49:\n      mload(0x40)\n      tag_51\n      swap2\n      swap1\n      tag_33\n      jump\t// in\n    tag_51:\n      mload(0x40)\n      dup1\n      swap2\n      sub\n      swap1\n      return\n        /* \"eth based/truffle/contracts/FLIR_Contract.sol\":850:869  uint public btp = 3 */\n    tag_8:\n      callvalue\n      dup1\n      iszero\n      tag_52\n      jumpi\n      0x00\n      dup1\n      revert\n    tag_52:\n      pop\n      tag_53\n      tag_54\n      jump\t// in\n    tag_53:\n      mload(0x40)\n      tag_55\n      swap2\n      swap1\n      tag_33\n      jump\t// in\n    tag_55:\n      mload(0x40)\n      dup1\n      swap2\n      sub\n      swap1\n      return\n        /* \"eth based/truffle/contracts/FLIR_Contract.sol\":175:197  address public manager */\n    tag_9:\n      callvalue\n      dup1\n      iszero\n      tag_56\n      jumpi\n      0x00\n      dup1\n      revert\n    tag_56:\n      pop\n      tag_57\n      tag_58\n      jump\t// in\n    tag_57:\n      mload(0x40)\n      tag_59\n      swap2\n      swap1\n      tag_28\n      jump\t// in\n    tag_59:\n      mload(0x40)\n      dup1\n      swap2\n      sub\n      swap1\n      return\n        /* \"eth based/truffle/contracts/FLIR_Contract.sol\":1422:1537  function getProsumerTariff(uint Pexp) public returns (uint Tp){... */\n    tag_10:\n      callvalue\n      dup1\n      iszero\n      tag_60\n      jumpi\n      0x00\n      dup1\n      revert\n    tag_60:\n      pop\n      tag_61\n      0x04\n      dup1\n      calldatasize\n      sub\n      dup2\n      add\n      swap1\n      tag_62\n      swap2\n      swap1\n      tag_63\n      jump\t// in\n    tag_62:\n      tag_64\n      jump\t// in\n    tag_61:\n      mload(0x40)\n      tag_65\n      swap2\n      swap1\n      tag_33\n      jump\t// in\n    tag_65:\n      mload(0x40)\n      dup1\n      swap2\n      sub\n      swap1\n      return\n        /* \"eth based/truffle/contracts/FLIR_Contract.sol\":1543:2533  function getConsumerTariff(uint Cimp) public returns (uint Tc){... */\n    tag_11:\n      callvalue\n      dup1\n      iszero\n      tag_66\n      jumpi\n      0x00\n      dup1\n      revert\n    tag_66:\n      pop\n      tag_67\n      0x04\n      dup1\n      calldatasize\n      sub\n      dup2\n      add\n      swap1\n      tag_68\n      swap2\n      swap1\n      tag_63\n      jump\t// in\n    tag_68:\n      tag_69\n      jump\t// in\n    tag_67:\n      mload(0x40)\n      tag_70\n      swap2\n      swap1\n      tag_33\n      jump\t// in\n    tag_70:\n      mload(0x40)\n      dup1\n      swap2\n      sub\n      swap1\n      return\n        /* \"eth based/truffle/contracts/FLIR_Contract.sol\":2743:2811  function balCheck() public payable {... */\n    tag_12:\n      tag_71\n      tag_72\n      jump\t// in\n    tag_71:\n      stop\n        /* \"eth based/truffle/contracts/FLIR_Contract.sol\":1058:1079  uint public btc8 = 10 */\n    tag_13:\n      callvalue\n      dup1\n      iszero\n      tag_73\n      jumpi\n      0x00\n      dup1\n      revert\n    tag_73:\n      pop\n      tag_74\n      tag_75\n      jump\t// in\n    tag_74:\n      mload(0x40)\n      tag_76\n      swap2\n      swap1\n      tag_33\n      jump\t// in\n    tag_76:\n      mload(0x40)\n      dup1\n      swap2\n      sub\n      swap1\n      return\n        /* \"eth based/truffle/contracts/FLIR_Contract.sol\":1006:1026  uint public btc6 = 8 */\n    tag_14:\n      callvalue\n      dup1\n      iszero\n      tag_77\n      jumpi\n      0x00\n      dup1\n      revert\n    tag_77:\n      pop\n      tag_78\n      tag_79\n      jump\t// in\n    tag_78:\n      mload(0x40)\n      tag_80\n      swap2\n      swap1\n      tag_33\n      jump\t// in\n    tag_80:\n      mload(0x40)\n      dup1\n      swap2\n      sub\n      swap1\n      return\n        /* \"eth based/truffle/contracts/FLIR_Contract.sol\":689:712  uint public balance = 0 */\n    tag_15:\n      callvalue\n      dup1\n      iszero\n      tag_81\n      jumpi\n      0x00\n      dup1\n      revert\n    tag_81:\n      pop\n      tag_82\n      tag_83\n      jump\t// in\n    tag_82:\n      mload(0x40)\n      tag_84\n      swap2\n      swap1\n      tag_33\n      jump\t// in\n    tag_84:\n      mload(0x40)\n      dup1\n      swap2\n      sub\n      swap1\n      return\n        /* \"eth based/truffle/contracts/FLIR_Contract.sol\":876:896  uint public btc1 = 3 */\n    tag_16:\n      callvalue\n      dup1\n      iszero\n      tag_85\n      jumpi\n      0x00\n      dup1\n      revert\n    tag_85:\n      pop\n      tag_86\n      tag_87\n      jump\t// in\n    tag_86:\n      mload(0x40)\n      tag_88\n      swap2\n      swap1\n      tag_33\n      jump\t// in\n    tag_88:\n      mload(0x40)\n      dup1\n      swap2\n      sub\n      swap1\n      return\n        /* \"eth based/truffle/contracts/FLIR_Contract.sol\":2539:2737  function send(address payable _receiver, uint amount) payable public {... */\n    tag_17:\n      tag_89\n      0x04\n      dup1\n      calldatasize\n      sub\n      dup2\n      add\n      swap1\n      tag_90\n      swap2\n      swap1\n      tag_91\n      jump\t// in\n    tag_90:\n      tag_92\n      jump\t// in\n    tag_89:\n      stop\n        /* \"eth based/truffle/contracts/FLIR_Contract.sol\":1032:1052  uint public btc7 = 9 */\n    tag_18:\n      callvalue\n      dup1\n      iszero\n      tag_93\n      jumpi\n      0x00\n      dup1\n      revert\n    tag_93:\n      pop\n      tag_94\n      tag_95\n      jump\t// in\n    tag_94:\n      mload(0x40)\n      tag_96\n      swap2\n      swap1\n      tag_33\n      jump\t// in\n    tag_96:\n      mload(0x40)\n      dup1\n      swap2\n      sub\n      swap1\n      return\n        /* \"eth based/truffle/contracts/FLIR_Contract.sol\":1093:1416  function getnPnCnEV(uint nPget, uint nCget,uint nEVget) public... */\n    tag_19:\n      callvalue\n      dup1\n      iszero\n      tag_97\n      jumpi\n      0x00\n      dup1\n      revert\n    tag_97:\n      pop\n      tag_98\n      0x04\n      dup1\n      calldatasize\n      sub\n      dup2\n      add\n      swap1\n      tag_99\n      swap2\n      swap1\n      tag_100\n      jump\t// in\n    tag_99:\n      tag_101\n      jump\t// in\n    tag_98:\n      mload(0x40)\n      tag_102\n      swap4\n      swap3\n      swap2\n      swap1\n      tag_103\n      jump\t// in\n    tag_102:\n      mload(0x40)\n      dup1\n      swap2\n      sub\n      swap1\n      return\n        /* \"eth based/truffle/contracts/FLIR_Contract.sol\":2817:2952  function getBalance(address _balanceCheck) public returns (uint bal){... */\n    tag_20:\n      callvalue\n      dup1\n      iszero\n      tag_104\n      jumpi\n      0x00\n      dup1\n      revert\n    tag_104:\n      pop\n      tag_105\n      0x04\n      dup1\n      calldatasize\n      sub\n      dup2\n      add\n      swap1\n      tag_106\n      swap2\n      swap1\n      tag_45\n      jump\t// in\n    tag_106:\n      tag_107\n      jump\t// in\n    tag_105:\n      mload(0x40)\n      tag_108\n      swap2\n      swap1\n      tag_33\n      jump\t// in\n    tag_108:\n      mload(0x40)\n      dup1\n      swap2\n      sub\n      swap1\n      return\n        /* \"eth based/truffle/contracts/FLIR_Contract.sol\":203:224  address public seller */\n    tag_26:\n      0x02\n      0x00\n      swap1\n      sload\n      swap1\n      0x0100\n      exp\n      swap1\n      div\n      0xffffffffffffffffffffffffffffffffffffffff\n      and\n      dup2\n      jump\t// out\n        /* \"eth based/truffle/contracts/FLIR_Contract.sol\":980:1000  uint public btc5 = 7 */\n    tag_31:\n      sload(0x0a)\n      dup2\n      jump\t// out\n        /* \"eth based/truffle/contracts/FLIR_Contract.sol\":954:974  uint public btc4 = 6 */\n    tag_36:\n      sload(0x09)\n      dup2\n      jump\t// out\n        /* \"eth based/truffle/contracts/FLIR_Contract.sol\":928:948  uint public btc3 = 5 */\n    tag_40:\n      sload(0x08)\n      dup2\n      jump\t// out\n        /* \"eth based/truffle/contracts/FLIR_Contract.sol\":230:270  mapping(address => uint) public balances */\n    tag_46:\n      mstore(0x20, 0x03)\n      dup1\n      0x00\n      mstore\n      keccak256(0x00, 0x40)\n      0x00\n      swap2\n      pop\n      swap1\n      pop\n      sload\n      dup2\n      jump\t// out\n        /* \"eth based/truffle/contracts/FLIR_Contract.sol\":902:922  uint public btc2 = 4 */\n    tag_50:\n      sload(0x07)\n      dup2\n      jump\t// out\n        /* \"eth based/truffle/contracts/FLIR_Contract.sol\":850:869  uint public btp = 3 */\n    tag_54:\n      sload(0x05)\n      dup2\n      jump\t// out\n        /* \"eth based/truffle/contracts/FLIR_Contract.sol\":175:197  address public manager */\n    tag_58:\n      0x01\n      0x00\n      swap1\n      sload\n      swap1\n      0x0100\n      exp\n      swap1\n      div\n      0xffffffffffffffffffffffffffffffffffffffff\n      and\n      dup2\n      jump\t// out\n        /* \"eth based/truffle/contracts/FLIR_Contract.sol\":1422:1537  function getProsumerTariff(uint Pexp) public returns (uint Tp){... */\n    tag_64:\n        /* \"eth based/truffle/contracts/FLIR_Contract.sol\":1476:1483  uint Tp */\n      0x00\n        /* \"eth based/truffle/contracts/FLIR_Contract.sol\":1506:1509  btp */\n      sload(0x05)\n        /* \"eth based/truffle/contracts/FLIR_Contract.sol\":1499:1503  Pexp */\n      dup3\n        /* \"eth based/truffle/contracts/FLIR_Contract.sol\":1499:1509  Pexp * btp */\n      tag_110\n      swap2\n      swap1\n      tag_111\n      jump\t// in\n    tag_110:\n        /* \"eth based/truffle/contracts/FLIR_Contract.sol\":1494:1509  Tp = Pexp * btp */\n      swap1\n      pop\n        /* \"eth based/truffle/contracts/FLIR_Contract.sol\":1422:1537  function getProsumerTariff(uint Pexp) public returns (uint Tp){... */\n      swap2\n      swap1\n      pop\n      jump\t// out\n        /* \"eth based/truffle/contracts/FLIR_Contract.sol\":1543:2533  function getConsumerTariff(uint Cimp) public returns (uint Tc){... */\n    tag_69:\n        /* \"eth based/truffle/contracts/FLIR_Contract.sol\":1597:1604  uint Tc */\n      0x00\n        /* \"eth based/truffle/contracts/FLIR_Contract.sol\":1634:1637  251 */\n      0xfb\n        /* \"eth based/truffle/contracts/FLIR_Contract.sol\":1627:1631  Cimp */\n      dup3\n        /* \"eth based/truffle/contracts/FLIR_Contract.sol\":1627:1637  Cimp < 251 */\n      lt\n        /* \"eth based/truffle/contracts/FLIR_Contract.sol\":1624:2506  if(Cimp < 251){... */\n      iszero\n      tag_113\n      jumpi\n        /* \"eth based/truffle/contracts/FLIR_Contract.sol\":1662:1664  51 */\n      0x33\n        /* \"eth based/truffle/contracts/FLIR_Contract.sol\":1655:1659  Cimp */\n      dup3\n        /* \"eth based/truffle/contracts/FLIR_Contract.sol\":1655:1664  Cimp < 51 */\n      lt\n        /* \"eth based/truffle/contracts/FLIR_Contract.sol\":1652:2261  if(Cimp < 51){... */\n      iszero\n      tag_114\n      jumpi\n        /* \"eth based/truffle/contracts/FLIR_Contract.sol\":1695:1699  btc1 */\n      sload(0x06)\n        /* \"eth based/truffle/contracts/FLIR_Contract.sol\":1688:1692  Cimp */\n      dup3\n        /* \"eth based/truffle/contracts/FLIR_Contract.sol\":1688:1699  Cimp * btc1 */\n      tag_115\n      swap2\n      swap1\n      tag_111\n      jump\t// in\n    tag_115:\n        /* \"eth based/truffle/contracts/FLIR_Contract.sol\":1683:1699  Tc = Cimp * btc1 */\n      swap1\n      pop\n        /* \"eth based/truffle/contracts/FLIR_Contract.sol\":1652:2261  if(Cimp < 51){... */\n      jump(tag_116)\n    tag_114:\n        /* \"eth based/truffle/contracts/FLIR_Contract.sol\":1742:1744  50 */\n      0x32\n        /* \"eth based/truffle/contracts/FLIR_Contract.sol\":1735:1739  Cimp */\n      dup3\n        /* \"eth based/truffle/contracts/FLIR_Contract.sol\":1735:1744  Cimp > 50 */\n      gt\n        /* \"eth based/truffle/contracts/FLIR_Contract.sol\":1735:1758  Cimp > 50 && Cimp < 101 */\n      dup1\n      iszero\n      tag_117\n      jumpi\n      pop\n        /* \"eth based/truffle/contracts/FLIR_Contract.sol\":1755:1758  101 */\n      0x65\n        /* \"eth based/truffle/contracts/FLIR_Contract.sol\":1748:1752  Cimp */\n      dup3\n        /* \"eth based/truffle/contracts/FLIR_Contract.sol\":1748:1758  Cimp < 101 */\n      lt\n        /* \"eth based/truffle/contracts/FLIR_Contract.sol\":1735:1758  Cimp > 50 && Cimp < 101 */\n    tag_117:\n        /* \"eth based/truffle/contracts/FLIR_Contract.sol\":1732:2261  if(Cimp > 50 && Cimp < 101){... */\n      iszero\n      tag_118\n      jumpi\n        /* \"eth based/truffle/contracts/FLIR_Contract.sol\":1809:1813  btc2 */\n      sload(0x07)\n        /* \"eth based/truffle/contracts/FLIR_Contract.sol\":1803:1805  50 */\n      0x32\n        /* \"eth based/truffle/contracts/FLIR_Contract.sol\":1798:1802  Cimp */\n      dup4\n        /* \"eth based/truffle/contracts/FLIR_Contract.sol\":1798:1805  Cimp-50 */\n      tag_119\n      swap2\n      swap1\n      tag_120\n      jump\t// in\n    tag_119:\n        /* \"eth based/truffle/contracts/FLIR_Contract.sol\":1797:1813  (Cimp-50) * btc2 */\n      tag_121\n      swap2\n      swap1\n      tag_111\n      jump\t// in\n    tag_121:\n        /* \"eth based/truffle/contracts/FLIR_Contract.sol\":1788:1792  btc1 */\n      sload(0x06)\n        /* \"eth based/truffle/contracts/FLIR_Contract.sol\":1783:1785  50 */\n      0x32\n        /* \"eth based/truffle/contracts/FLIR_Contract.sol\":1783:1792  50 * btc1 */\n      tag_122\n      swap2\n      swap1\n      tag_111\n      jump\t// in\n    tag_122:\n        /* \"eth based/truffle/contracts/FLIR_Contract.sol\":1782:1814  (50 * btc1) + ((Cimp-50) * btc2) */\n      tag_123\n      swap2\n      swap1\n      tag_124\n      jump\t// in\n    tag_123:\n        /* \"eth based/truffle/contracts/FLIR_Contract.sol\":1777:1814  Tc = (50 * btc1) + ((Cimp-50) * btc2) */\n      swap1\n      pop\n        /* \"eth based/truffle/contracts/FLIR_Contract.sol\":1732:2261  if(Cimp > 50 && Cimp < 101){... */\n      jump(tag_125)\n    tag_118:\n        /* \"eth based/truffle/contracts/FLIR_Contract.sol\":1857:1860  100 */\n      0x64\n        /* \"eth based/truffle/contracts/FLIR_Contract.sol\":1850:1854  Cimp */\n      dup3\n        /* \"eth based/truffle/contracts/FLIR_Contract.sol\":1850:1860  Cimp > 100 */\n      gt\n        /* \"eth based/truffle/contracts/FLIR_Contract.sol\":1850:1874  Cimp > 100 && Cimp < 151 */\n      dup1\n      iszero\n      tag_126\n      jumpi\n      pop\n        /* \"eth based/truffle/contracts/FLIR_Contract.sol\":1871:1874  151 */\n      0x97\n        /* \"eth based/truffle/contracts/FLIR_Contract.sol\":1864:1868  Cimp */\n      dup3\n        /* \"eth based/truffle/contracts/FLIR_Contract.sol\":1864:1874  Cimp < 151 */\n      lt\n        /* \"eth based/truffle/contracts/FLIR_Contract.sol\":1850:1874  Cimp > 100 && Cimp < 151 */\n    tag_126:\n        /* \"eth based/truffle/contracts/FLIR_Contract.sol\":1847:2261  if(Cimp > 100 && Cimp < 151){... */\n      iszero\n      tag_127\n      jumpi\n        /* \"eth based/truffle/contracts/FLIR_Contract.sol\":1939:1943  btc3 */\n      sload(0x08)\n        /* \"eth based/truffle/contracts/FLIR_Contract.sol\":1933:1935  50 */\n      0x32\n        /* \"eth based/truffle/contracts/FLIR_Contract.sol\":1928:1932  Cimp */\n      dup4\n        /* \"eth based/truffle/contracts/FLIR_Contract.sol\":1928:1935  Cimp-50 */\n      tag_128\n      swap2\n      swap1\n      tag_120\n      jump\t// in\n    tag_128:\n        /* \"eth based/truffle/contracts/FLIR_Contract.sol\":1927:1943  (Cimp-50) * btc3 */\n      tag_129\n      swap2\n      swap1\n      tag_111\n      jump\t// in\n    tag_129:\n        /* \"eth based/truffle/contracts/FLIR_Contract.sol\":1918:1922  btc2 */\n      sload(0x07)\n        /* \"eth based/truffle/contracts/FLIR_Contract.sol\":1913:1915  50 */\n      0x32\n        /* \"eth based/truffle/contracts/FLIR_Contract.sol\":1913:1922  50 * btc2 */\n      tag_130\n      swap2\n      swap1\n      tag_111\n      jump\t// in\n    tag_130:\n        /* \"eth based/truffle/contracts/FLIR_Contract.sol\":1904:1908  btc1 */\n      sload(0x06)\n        /* \"eth based/truffle/contracts/FLIR_Contract.sol\":1899:1901  50 */\n      0x32\n        /* \"eth based/truffle/contracts/FLIR_Contract.sol\":1899:1908  50 * btc1 */\n      tag_131\n      swap2\n      swap1\n      tag_111\n      jump\t// in\n    tag_131:\n        /* \"eth based/truffle/contracts/FLIR_Contract.sol\":1898:1923  (50 * btc1) + (50 * btc2) */\n      tag_132\n      swap2\n      swap1\n      tag_124\n      jump\t// in\n    tag_132:\n        /* \"eth based/truffle/contracts/FLIR_Contract.sol\":1898:1944  (50 * btc1) + (50 * btc2) + ((Cimp-50) * btc3) */\n      tag_133\n      swap2\n      swap1\n      tag_124\n      jump\t// in\n    tag_133:\n        /* \"eth based/truffle/contracts/FLIR_Contract.sol\":1893:1944  Tc = (50 * btc1) + (50 * btc2) + ((Cimp-50) * btc3) */\n      swap1\n      pop\n        /* \"eth based/truffle/contracts/FLIR_Contract.sol\":1847:2261  if(Cimp > 100 && Cimp < 151){... */\n      jump(tag_134)\n    tag_127:\n        /* \"eth based/truffle/contracts/FLIR_Contract.sol\":1987:1990  150 */\n      0x96\n        /* \"eth based/truffle/contracts/FLIR_Contract.sol\":1980:1984  Cimp */\n      dup3\n        /* \"eth based/truffle/contracts/FLIR_Contract.sol\":1980:1990  Cimp > 150 */\n      gt\n        /* \"eth based/truffle/contracts/FLIR_Contract.sol\":1980:2004  Cimp > 150 && Cimp < 201 */\n      dup1\n      iszero\n      tag_135\n      jumpi\n      pop\n        /* \"eth based/truffle/contracts/FLIR_Contract.sol\":2001:2004  201 */\n      0xc9\n        /* \"eth based/truffle/contracts/FLIR_Contract.sol\":1994:1998  Cimp */\n      dup3\n        /* \"eth based/truffle/contracts/FLIR_Contract.sol\":1994:2004  Cimp < 201 */\n      lt\n        /* \"eth based/truffle/contracts/FLIR_Contract.sol\":1980:2004  Cimp > 150 && Cimp < 201 */\n    tag_135:\n        /* \"eth based/truffle/contracts/FLIR_Contract.sol\":1977:2261  if(Cimp > 150 && Cimp < 201){... */\n      iszero\n      tag_136\n      jumpi\n        /* \"eth based/truffle/contracts/FLIR_Contract.sol\":2083:2087  btc4 */\n      sload(0x09)\n        /* \"eth based/truffle/contracts/FLIR_Contract.sol\":2077:2079  50 */\n      0x32\n        /* \"eth based/truffle/contracts/FLIR_Contract.sol\":2072:2076  Cimp */\n      dup4\n        /* \"eth based/truffle/contracts/FLIR_Contract.sol\":2072:2079  Cimp-50 */\n      tag_137\n      swap2\n      swap1\n      tag_120\n      jump\t// in\n    tag_137:\n        /* \"eth based/truffle/contracts/FLIR_Contract.sol\":2071:2087  (Cimp-50) * btc4 */\n      tag_138\n      swap2\n      swap1\n      tag_111\n      jump\t// in\n    tag_138:\n        /* \"eth based/truffle/contracts/FLIR_Contract.sol\":2062:2066  btc3 */\n      sload(0x08)\n        /* \"eth based/truffle/contracts/FLIR_Contract.sol\":2057:2059  50 */\n      0x32\n        /* \"eth based/truffle/contracts/FLIR_Contract.sol\":2057:2066  50 * btc3 */\n      tag_139\n      swap2\n      swap1\n      tag_111\n      jump\t// in\n    tag_139:\n        /* \"eth based/truffle/contracts/FLIR_Contract.sol\":2048:2052  btc2 */\n      sload(0x07)\n        /* \"eth based/truffle/contracts/FLIR_Contract.sol\":2043:2045  50 */\n      0x32\n        /* \"eth based/truffle/contracts/FLIR_Contract.sol\":2043:2052  50 * btc2 */\n      tag_140\n      swap2\n      swap1\n      tag_111\n      jump\t// in\n    tag_140:\n        /* \"eth based/truffle/contracts/FLIR_Contract.sol\":2034:2038  btc1 */\n      sload(0x06)\n        /* \"eth based/truffle/contracts/FLIR_Contract.sol\":2029:2031  50 */\n      0x32\n        /* \"eth based/truffle/contracts/FLIR_Contract.sol\":2029:2038  50 * btc1 */\n      tag_141\n      swap2\n      swap1\n      tag_111\n      jump\t// in\n    tag_141:\n        /* \"eth based/truffle/contracts/FLIR_Contract.sol\":2028:2053  (50 * btc1) + (50 * btc2) */\n      tag_142\n      swap2\n      swap1\n      tag_124\n      jump\t// in\n    tag_142:\n        /* \"eth based/truffle/contracts/FLIR_Contract.sol\":2028:2067  (50 * btc1) + (50 * btc2) + (50 * btc3) */\n      tag_143\n      swap2\n      swap1\n      tag_124\n      jump\t// in\n    tag_143:\n        /* \"eth based/truffle/contracts/FLIR_Contract.sol\":2028:2088  (50 * btc1) + (50 * btc2) + (50 * btc3) + ((Cimp-50) * btc4) */\n      tag_144\n      swap2\n      swap1\n      tag_124\n      jump\t// in\n    tag_144:\n        /* \"eth based/truffle/contracts/FLIR_Contract.sol\":2023:2088  Tc = (50 * btc1) + (50 * btc2) + (50 * btc3) + ((Cimp-50) * btc4) */\n      swap1\n      pop\n        /* \"eth based/truffle/contracts/FLIR_Contract.sol\":1977:2261  if(Cimp > 150 && Cimp < 201){... */\n      jump(tag_145)\n    tag_136:\n        /* \"eth based/truffle/contracts/FLIR_Contract.sol\":2131:2134  200 */\n      0xc8\n        /* \"eth based/truffle/contracts/FLIR_Contract.sol\":2124:2128  Cimp */\n      dup3\n        /* \"eth based/truffle/contracts/FLIR_Contract.sol\":2124:2134  Cimp > 200 */\n      gt\n        /* \"eth based/truffle/contracts/FLIR_Contract.sol\":2124:2148  Cimp > 200 && Cimp < 251 */\n      dup1\n      iszero\n      tag_146\n      jumpi\n      pop\n        /* \"eth based/truffle/contracts/FLIR_Contract.sol\":2145:2148  251 */\n      0xfb\n        /* \"eth based/truffle/contracts/FLIR_Contract.sol\":2138:2142  Cimp */\n      dup3\n        /* \"eth based/truffle/contracts/FLIR_Contract.sol\":2138:2148  Cimp < 251 */\n      lt\n        /* \"eth based/truffle/contracts/FLIR_Contract.sol\":2124:2148  Cimp > 200 && Cimp < 251 */\n    tag_146:\n        /* \"eth based/truffle/contracts/FLIR_Contract.sol\":2121:2261  if(Cimp > 200 && Cimp < 251){... */\n      iszero\n      tag_147\n      jumpi\n        /* \"eth based/truffle/contracts/FLIR_Contract.sol\":2241:2245  btc5 */\n      sload(0x0a)\n        /* \"eth based/truffle/contracts/FLIR_Contract.sol\":2235:2237  50 */\n      0x32\n        /* \"eth based/truffle/contracts/FLIR_Contract.sol\":2230:2234  Cimp */\n      dup4\n        /* \"eth based/truffle/contracts/FLIR_Contract.sol\":2230:2237  Cimp-50 */\n      tag_148\n      swap2\n      swap1\n      tag_120\n      jump\t// in\n    tag_148:\n        /* \"eth based/truffle/contracts/FLIR_Contract.sol\":2229:2245  (Cimp-50) * btc5 */\n      tag_149\n      swap2\n      swap1\n      tag_111\n      jump\t// in\n    tag_149:\n        /* \"eth based/truffle/contracts/FLIR_Contract.sol\":2220:2224  btc4 */\n      sload(0x09)\n        /* \"eth based/truffle/contracts/FLIR_Contract.sol\":2215:2217  50 */\n      0x32\n        /* \"eth based/truffle/contracts/FLIR_Contract.sol\":2215:2224  50 * btc4 */\n      tag_150\n      swap2\n      swap1\n      tag_111\n      jump\t// in\n    tag_150:\n        /* \"eth based/truffle/contracts/FLIR_Contract.sol\":2206:2210  btc3 */\n      sload(0x08)\n        /* \"eth based/truffle/contracts/FLIR_Contract.sol\":2201:2203  50 */\n      0x32\n        /* \"eth based/truffle/contracts/FLIR_Contract.sol\":2201:2210  50 * btc3 */\n      tag_151\n      swap2\n      swap1\n      tag_111\n      jump\t// in\n    tag_151:\n        /* \"eth based/truffle/contracts/FLIR_Contract.sol\":2192:2196  btc2 */\n      sload(0x07)\n        /* \"eth based/truffle/contracts/FLIR_Contract.sol\":2187:2189  50 */\n      0x32\n        /* \"eth based/truffle/contracts/FLIR_Contract.sol\":2187:2196  50 * btc2 */\n      tag_152\n      swap2\n      swap1\n      tag_111\n      jump\t// in\n    tag_152:\n        /* \"eth based/truffle/contracts/FLIR_Contract.sol\":2178:2182  btc1 */\n      sload(0x06)\n        /* \"eth based/truffle/contracts/FLIR_Contract.sol\":2173:2175  50 */\n      0x32\n        /* \"eth based/truffle/contracts/FLIR_Contract.sol\":2173:2182  50 * btc1 */\n      tag_153\n      swap2\n      swap1\n      tag_111\n      jump\t// in\n    tag_153:\n        /* \"eth based/truffle/contracts/FLIR_Contract.sol\":2172:2197  (50 * btc1) + (50 * btc2) */\n      tag_154\n      swap2\n      swap1\n      tag_124\n      jump\t// in\n    tag_154:\n        /* \"eth based/truffle/contracts/FLIR_Contract.sol\":2172:2211  (50 * btc1) + (50 * btc2) + (50 * btc3) */\n      tag_155\n      swap2\n      swap1\n      tag_124\n      jump\t// in\n    tag_155:\n        /* \"eth based/truffle/contracts/FLIR_Contract.sol\":2172:2225  (50 * btc1) + (50 * btc2) + (50 * btc3) + (50 * btc4) */\n      tag_156\n      swap2\n      swap1\n      tag_124\n      jump\t// in\n    tag_156:\n        /* \"eth based/truffle/contracts/FLIR_Contract.sol\":2172:2246  (50 * btc1) + (50 * btc2) + (50 * btc3) + (50 * btc4) + ((Cimp-50) * btc5) */\n      tag_157\n      swap2\n      swap1\n      tag_124\n      jump\t// in\n    tag_157:\n        /* \"eth based/truffle/contracts/FLIR_Contract.sol\":2167:2246  Tc = (50 * btc1) + (50 * btc2) + (50 * btc3) + (50 * btc4) + ((Cimp-50) * btc5) */\n      swap1\n      pop\n        /* \"eth based/truffle/contracts/FLIR_Contract.sol\":2121:2261  if(Cimp > 200 && Cimp < 251){... */\n    tag_147:\n        /* \"eth based/truffle/contracts/FLIR_Contract.sol\":1977:2261  if(Cimp > 150 && Cimp < 201){... */\n    tag_145:\n        /* \"eth based/truffle/contracts/FLIR_Contract.sol\":1847:2261  if(Cimp > 100 && Cimp < 151){... */\n    tag_134:\n        /* \"eth based/truffle/contracts/FLIR_Contract.sol\":1732:2261  if(Cimp > 50 && Cimp < 101){... */\n    tag_125:\n        /* \"eth based/truffle/contracts/FLIR_Contract.sol\":1652:2261  if(Cimp < 51){... */\n    tag_116:\n        /* \"eth based/truffle/contracts/FLIR_Contract.sol\":1624:2506  if(Cimp < 251){... */\n      jump(tag_158)\n    tag_113:\n        /* \"eth based/truffle/contracts/FLIR_Contract.sol\":2295:2298  250 */\n      0xfa\n        /* \"eth based/truffle/contracts/FLIR_Contract.sol\":2288:2292  Cimp */\n      dup3\n        /* \"eth based/truffle/contracts/FLIR_Contract.sol\":2288:2298  Cimp > 250 */\n      gt\n        /* \"eth based/truffle/contracts/FLIR_Contract.sol\":2288:2312  Cimp > 250 && Cimp < 351 */\n      dup1\n      iszero\n      tag_159\n      jumpi\n      pop\n        /* \"eth based/truffle/contracts/FLIR_Contract.sol\":2309:2312  351 */\n      0x015f\n        /* \"eth based/truffle/contracts/FLIR_Contract.sol\":2302:2306  Cimp */\n      dup3\n        /* \"eth based/truffle/contracts/FLIR_Contract.sol\":2302:2312  Cimp < 351 */\n      lt\n        /* \"eth based/truffle/contracts/FLIR_Contract.sol\":2288:2312  Cimp > 250 && Cimp < 351 */\n    tag_159:\n        /* \"eth based/truffle/contracts/FLIR_Contract.sol\":2285:2506  if(Cimp > 250 && Cimp < 351){... */\n      iszero\n      tag_160\n      jumpi\n        /* \"eth based/truffle/contracts/FLIR_Contract.sol\":2339:2343  btc6 */\n      sload(0x0b)\n        /* \"eth based/truffle/contracts/FLIR_Contract.sol\":2332:2336  Cimp */\n      dup3\n        /* \"eth based/truffle/contracts/FLIR_Contract.sol\":2332:2343  Cimp * btc6 */\n      tag_161\n      swap2\n      swap1\n      tag_111\n      jump\t// in\n    tag_161:\n        /* \"eth based/truffle/contracts/FLIR_Contract.sol\":2327:2343  Tc = Cimp * btc6 */\n      swap1\n      pop\n        /* \"eth based/truffle/contracts/FLIR_Contract.sol\":2285:2506  if(Cimp > 250 && Cimp < 351){... */\n      jump(tag_162)\n    tag_160:\n        /* \"eth based/truffle/contracts/FLIR_Contract.sol\":2378:2381  350 */\n      0x015e\n        /* \"eth based/truffle/contracts/FLIR_Contract.sol\":2371:2375  Cimp */\n      dup3\n        /* \"eth based/truffle/contracts/FLIR_Contract.sol\":2371:2381  Cimp > 350 */\n      gt\n        /* \"eth based/truffle/contracts/FLIR_Contract.sol\":2371:2395  Cimp > 350 && Cimp < 451 */\n      dup1\n      iszero\n      tag_163\n      jumpi\n      pop\n        /* \"eth based/truffle/contracts/FLIR_Contract.sol\":2392:2395  451 */\n      0x01c3\n        /* \"eth based/truffle/contracts/FLIR_Contract.sol\":2385:2389  Cimp */\n      dup3\n        /* \"eth based/truffle/contracts/FLIR_Contract.sol\":2385:2395  Cimp < 451 */\n      lt\n        /* \"eth based/truffle/contracts/FLIR_Contract.sol\":2371:2395  Cimp > 350 && Cimp < 451 */\n    tag_163:\n        /* \"eth based/truffle/contracts/FLIR_Contract.sol\":2368:2506  if(Cimp > 350 && Cimp < 451){... */\n      iszero\n      tag_164\n      jumpi\n        /* \"eth based/truffle/contracts/FLIR_Contract.sol\":2422:2426  btc7 */\n      sload(0x0c)\n        /* \"eth based/truffle/contracts/FLIR_Contract.sol\":2415:2419  Cimp */\n      dup3\n        /* \"eth based/truffle/contracts/FLIR_Contract.sol\":2415:2426  Cimp * btc7 */\n      tag_165\n      swap2\n      swap1\n      tag_111\n      jump\t// in\n    tag_165:\n        /* \"eth based/truffle/contracts/FLIR_Contract.sol\":2410:2426  Tc = Cimp * btc7 */\n      swap1\n      pop\n        /* \"eth based/truffle/contracts/FLIR_Contract.sol\":2368:2506  if(Cimp > 350 && Cimp < 451){... */\n      jump(tag_166)\n    tag_164:\n        /* \"eth based/truffle/contracts/FLIR_Contract.sol\":2461:2464  450 */\n      0x01c2\n        /* \"eth based/truffle/contracts/FLIR_Contract.sol\":2454:2458  Cimp */\n      dup3\n        /* \"eth based/truffle/contracts/FLIR_Contract.sol\":2454:2464  Cimp > 450 */\n      gt\n        /* \"eth based/truffle/contracts/FLIR_Contract.sol\":2451:2506  if(Cimp > 450){... */\n      iszero\n      tag_167\n      jumpi\n        /* \"eth based/truffle/contracts/FLIR_Contract.sol\":2491:2495  btc8 */\n      sload(0x0d)\n        /* \"eth based/truffle/contracts/FLIR_Contract.sol\":2484:2488  Cimp */\n      dup3\n        /* \"eth based/truffle/contracts/FLIR_Contract.sol\":2484:2495  Cimp * btc8 */\n      tag_168\n      swap2\n      swap1\n      tag_111\n      jump\t// in\n    tag_168:\n        /* \"eth based/truffle/contracts/FLIR_Contract.sol\":2479:2495  Tc = Cimp * btc8 */\n      swap1\n      pop\n        /* \"eth based/truffle/contracts/FLIR_Contract.sol\":2451:2506  if(Cimp > 450){... */\n    tag_167:\n        /* \"eth based/truffle/contracts/FLIR_Contract.sol\":2368:2506  if(Cimp > 350 && Cimp < 451){... */\n    tag_166:\n        /* \"eth based/truffle/contracts/FLIR_Contract.sol\":2285:2506  if(Cimp > 250 && Cimp < 351){... */\n    tag_162:\n        /* \"eth based/truffle/contracts/FLIR_Contract.sol\":1624:2506  if(Cimp < 251){... */\n    tag_158:\n        /* \"eth based/truffle/contracts/FLIR_Contract.sol\":1543:2533  function getConsumerTariff(uint Cimp) public returns (uint Tc){... */\n      swap2\n      swap1\n      pop\n      jump\t// out\n        /* \"eth based/truffle/contracts/FLIR_Contract.sol\":2743:2811  function balCheck() public payable {... */\n    tag_72:\n        /* \"eth based/truffle/contracts/FLIR_Contract.sol\":2795:2804  msg.value */\n      callvalue\n        /* \"eth based/truffle/contracts/FLIR_Contract.sol\":2784:2791  balance */\n      0x04\n      0x00\n        /* \"eth based/truffle/contracts/FLIR_Contract.sol\":2784:2804  balance += msg.value */\n      dup3\n      dup3\n      sload\n      tag_170\n      swap2\n      swap1\n      tag_124\n      jump\t// in\n    tag_170:\n      swap3\n      pop\n      pop\n      dup2\n      swap1\n      sstore\n      pop\n        /* \"eth based/truffle/contracts/FLIR_Contract.sol\":2743:2811  function balCheck() public payable {... */\n      jump\t// out\n        /* \"eth based/truffle/contracts/FLIR_Contract.sol\":1058:1079  uint public btc8 = 10 */\n    tag_75:\n      sload(0x0d)\n      dup2\n      jump\t// out\n        /* \"eth based/truffle/contracts/FLIR_Contract.sol\":1006:1026  uint public btc6 = 8 */\n    tag_79:\n      sload(0x0b)\n      dup2\n      jump\t// out\n        /* \"eth based/truffle/contracts/FLIR_Contract.sol\":689:712  uint public balance = 0 */\n    tag_83:\n      sload(0x04)\n      dup2\n      jump\t// out\n        /* \"eth based/truffle/contracts/FLIR_Contract.sol\":876:896  uint public btc1 = 3 */\n    tag_87:\n      sload(0x06)\n      dup2\n      jump\t// out\n        /* \"eth based/truffle/contracts/FLIR_Contract.sol\":2539:2737  function send(address payable _receiver, uint amount) payable public {... */\n    tag_92:\n        /* \"eth based/truffle/contracts/FLIR_Contract.sol\":2704:2713  _receiver */\n      dup2\n        /* \"eth based/truffle/contracts/FLIR_Contract.sol\":2704:2722  _receiver.transfer */\n      0xffffffffffffffffffffffffffffffffffffffff\n      and\n        /* \"eth based/truffle/contracts/FLIR_Contract.sol\":2704:2730  _receiver.transfer(amount) */\n      0x08fc\n        /* \"eth based/truffle/contracts/FLIR_Contract.sol\":2723:2729  amount */\n      dup3\n        /* \"eth based/truffle/contracts/FLIR_Contract.sol\":2704:2730  _receiver.transfer(amount) */\n      swap1\n      dup2\n      iszero\n      mul\n      swap1\n      mload(0x40)\n      0x00\n      mload(0x40)\n      dup1\n      dup4\n      sub\n      dup2\n      dup6\n      dup9\n      dup9\n      call\n      swap4\n      pop\n      pop\n      pop\n      pop\n      iszero\n      dup1\n      iszero\n      tag_173\n      jumpi\n      returndatasize\n      0x00\n      dup1\n      returndatacopy\n      revert(0x00, returndatasize)\n    tag_173:\n      pop\n        /* \"eth based/truffle/contracts/FLIR_Contract.sol\":2539:2737  function send(address payable _receiver, uint amount) payable public {... */\n      pop\n      pop\n      jump\t// out\n        /* \"eth based/truffle/contracts/FLIR_Contract.sol\":1032:1052  uint public btc7 = 9 */\n    tag_95:\n      sload(0x0c)\n      dup2\n      jump\t// out\n        /* \"eth based/truffle/contracts/FLIR_Contract.sol\":1093:1416  function getnPnCnEV(uint nPget, uint nCget,uint nEVget) public... */\n    tag_101:\n        /* \"eth based/truffle/contracts/FLIR_Contract.sol\":1169:1176  uint nP */\n      0x00\n        /* \"eth based/truffle/contracts/FLIR_Contract.sol\":1177:1184  uint nC */\n      dup1\n        /* \"eth based/truffle/contracts/FLIR_Contract.sol\":1185:1193  uint nEV */\n      0x00\n        /* \"eth based/truffle/contracts/FLIR_Contract.sol\":1218:1223  nPget */\n      dup6\n        /* \"eth based/truffle/contracts/FLIR_Contract.sol\":1213:1223  nP = nPget */\n      swap3\n      pop\n        /* \"eth based/truffle/contracts/FLIR_Contract.sol\":1238:1243  nCget */\n      dup5\n        /* \"eth based/truffle/contracts/FLIR_Contract.sol\":1233:1243  nC = nCget */\n      swap2\n      pop\n        /* \"eth based/truffle/contracts/FLIR_Contract.sol\":1259:1265  nEVget */\n      dup4\n        /* \"eth based/truffle/contracts/FLIR_Contract.sol\":1253:1265  nEV = nEVget */\n      swap1\n      pop\n        /* \"eth based/truffle/contracts/FLIR_Contract.sol\":1093:1416  function getnPnCnEV(uint nPget, uint nCget,uint nEVget) public... */\n      swap4\n      pop\n      swap4\n      pop\n      swap4\n      swap1\n      pop\n      jump\t// out\n        /* \"eth based/truffle/contracts/FLIR_Contract.sol\":2817:2952  function getBalance(address _balanceCheck) public returns (uint bal){... */\n    tag_107:\n        /* \"eth based/truffle/contracts/FLIR_Contract.sol\":2876:2884  uint bal */\n      0x00\n        /* \"eth based/truffle/contracts/FLIR_Contract.sol\":2901:2914  _balanceCheck */\n      dup2\n        /* \"eth based/truffle/contracts/FLIR_Contract.sol\":2901:2922  _balanceCheck.balance */\n      0xffffffffffffffffffffffffffffffffffffffff\n      and\n      balance\n        /* \"eth based/truffle/contracts/FLIR_Contract.sol\":2895:2922  bal = _balanceCheck.balance */\n      swap1\n      pop\n        /* \"eth based/truffle/contracts/FLIR_Contract.sol\":2817:2952  function getBalance(address _balanceCheck) public returns (uint bal){... */\n      swap2\n      swap1\n      pop\n      jump\t// out\n        /* \"#utility.yul\":7:146   */\n    tag_177:\n        /* \"#utility.yul\":53:58   */\n      0x00\n        /* \"#utility.yul\":91:97   */\n      dup2\n        /* \"#utility.yul\":78:98   */\n      calldataload\n        /* \"#utility.yul\":69:98   */\n      swap1\n      pop\n        /* \"#utility.yul\":107:140   */\n      tag_179\n        /* \"#utility.yul\":134:139   */\n      dup2\n        /* \"#utility.yul\":107:140   */\n      tag_180\n      jump\t// in\n    tag_179:\n        /* \"#utility.yul\":7:146   */\n      swap3\n      swap2\n      pop\n      pop\n      jump\t// out\n        /* \"#utility.yul\":152:307   */\n    tag_181:\n        /* \"#utility.yul\":206:211   */\n      0x00\n        /* \"#utility.yul\":244:250   */\n      dup2\n        /* \"#utility.yul\":231:251   */\n      calldataload\n        /* \"#utility.yul\":222:251   */\n      swap1\n      pop\n        /* \"#utility.yul\":260:301   */\n      tag_183\n        /* \"#utility.yul\":295:300   */\n      dup2\n        /* \"#utility.yul\":260:301   */\n      tag_184\n      jump\t// in\n    tag_183:\n        /* \"#utility.yul\":152:307   */\n      swap3\n      swap2\n      pop\n      pop\n      jump\t// out\n        /* \"#utility.yul\":313:452   */\n    tag_185:\n        /* \"#utility.yul\":359:364   */\n      0x00\n        /* \"#utility.yul\":397:403   */\n      dup2\n        /* \"#utility.yul\":384:404   */\n      calldataload\n        /* \"#utility.yul\":375:404   */\n      swap1\n      pop\n        /* \"#utility.yul\":413:446   */\n      tag_187\n        /* \"#utility.yul\":440:445   */\n      dup2\n        /* \"#utility.yul\":413:446   */\n      tag_188\n      jump\t// in\n    tag_187:\n        /* \"#utility.yul\":313:452   */\n      swap3\n      swap2\n      pop\n      pop\n      jump\t// out\n        /* \"#utility.yul\":458:787   */\n    tag_45:\n        /* \"#utility.yul\":517:523   */\n      0x00\n        /* \"#utility.yul\":566:568   */\n      0x20\n        /* \"#utility.yul\":554:563   */\n      dup3\n        /* \"#utility.yul\":545:552   */\n      dup5\n        /* \"#utility.yul\":541:564   */\n      sub\n        /* \"#utility.yul\":537:569   */\n      slt\n        /* \"#utility.yul\":534:653   */\n      iszero\n      tag_190\n      jumpi\n        /* \"#utility.yul\":572:651   */\n      tag_191\n      tag_192\n      jump\t// in\n    tag_191:\n        /* \"#utility.yul\":534:653   */\n    tag_190:\n        /* \"#utility.yul\":692:693   */\n      0x00\n        /* \"#utility.yul\":717:770   */\n      tag_193\n        /* \"#utility.yul\":762:769   */\n      dup5\n        /* \"#utility.yul\":753:759   */\n      dup3\n        /* \"#utility.yul\":742:751   */\n      dup6\n        /* \"#utility.yul\":738:760   */\n      add\n        /* \"#utility.yul\":717:770   */\n      tag_177\n      jump\t// in\n    tag_193:\n        /* \"#utility.yul\":707:770   */\n      swap2\n      pop\n        /* \"#utility.yul\":663:780   */\n      pop\n        /* \"#utility.yul\":458:787   */\n      swap3\n      swap2\n      pop\n      pop\n      jump\t// out\n        /* \"#utility.yul\":793:1283   */\n    tag_91:\n        /* \"#utility.yul\":869:875   */\n      0x00\n        /* \"#utility.yul\":877:883   */\n      dup1\n        /* \"#utility.yul\":926:928   */\n      0x40\n        /* \"#utility.yul\":914:923   */\n      dup4\n        /* \"#utility.yul\":905:912   */\n      dup6\n        /* \"#utility.yul\":901:924   */\n      sub\n        /* \"#utility.yul\":897:929   */\n      slt\n        /* \"#utility.yul\":894:1013   */\n      iszero\n      tag_195\n      jumpi\n        /* \"#utility.yul\":932:1011   */\n      tag_196\n      tag_192\n      jump\t// in\n    tag_196:\n        /* \"#utility.yul\":894:1013   */\n    tag_195:\n        /* \"#utility.yul\":1052:1053   */\n      0x00\n        /* \"#utility.yul\":1077:1138   */\n      tag_197\n        /* \"#utility.yul\":1130:1137   */\n      dup6\n        /* \"#utility.yul\":1121:1127   */\n      dup3\n        /* \"#utility.yul\":1110:1119   */\n      dup7\n        /* \"#utility.yul\":1106:1128   */\n      add\n        /* \"#utility.yul\":1077:1138   */\n      tag_181\n      jump\t// in\n    tag_197:\n        /* \"#utility.yul\":1067:1138   */\n      swap3\n      pop\n        /* \"#utility.yul\":1023:1148   */\n      pop\n        /* \"#utility.yul\":1187:1189   */\n      0x20\n        /* \"#utility.yul\":1213:1266   */\n      tag_198\n        /* \"#utility.yul\":1258:1265   */\n      dup6\n        /* \"#utility.yul\":1249:1255   */\n      dup3\n        /* \"#utility.yul\":1238:1247   */\n      dup7\n        /* \"#utility.yul\":1234:1256   */\n      add\n        /* \"#utility.yul\":1213:1266   */\n      tag_185\n      jump\t// in\n    tag_198:\n        /* \"#utility.yul\":1203:1266   */\n      swap2\n      pop\n        /* \"#utility.yul\":1158:1276   */\n      pop\n        /* \"#utility.yul\":793:1283   */\n      swap3\n      pop\n      swap3\n      swap1\n      pop\n      jump\t// out\n        /* \"#utility.yul\":1289:1618   */\n    tag_63:\n        /* \"#utility.yul\":1348:1354   */\n      0x00\n        /* \"#utility.yul\":1397:1399   */\n      0x20\n        /* \"#utility.yul\":1385:1394   */\n      dup3\n        /* \"#utility.yul\":1376:1383   */\n      dup5\n        /* \"#utility.yul\":1372:1395   */\n      sub\n        /* \"#utility.yul\":1368:1400   */\n      slt\n        /* \"#utility.yul\":1365:1484   */\n      iszero\n      tag_200\n      jumpi\n        /* \"#utility.yul\":1403:1482   */\n      tag_201\n      tag_192\n      jump\t// in\n    tag_201:\n        /* \"#utility.yul\":1365:1484   */\n    tag_200:\n        /* \"#utility.yul\":1523:1524   */\n      0x00\n        /* \"#utility.yul\":1548:1601   */\n      tag_202\n        /* \"#utility.yul\":1593:1600   */\n      dup5\n        /* \"#utility.yul\":1584:1590   */\n      dup3\n        /* \"#utility.yul\":1573:1582   */\n      dup6\n        /* \"#utility.yul\":1569:1591   */\n      add\n        /* \"#utility.yul\":1548:1601   */\n      tag_185\n      jump\t// in\n    tag_202:\n        /* \"#utility.yul\":1538:1601   */\n      swap2\n      pop\n        /* \"#utility.yul\":1494:1611   */\n      pop\n        /* \"#utility.yul\":1289:1618   */\n      swap3\n      swap2\n      pop\n      pop\n      jump\t// out\n        /* \"#utility.yul\":1624:2243   */\n    tag_100:\n        /* \"#utility.yul\":1701:1707   */\n      0x00\n        /* \"#utility.yul\":1709:1715   */\n      dup1\n        /* \"#utility.yul\":1717:1723   */\n      0x00\n        /* \"#utility.yul\":1766:1768   */\n      0x60\n        /* \"#utility.yul\":1754:1763   */\n      dup5\n        /* \"#utility.yul\":1745:1752   */\n      dup7\n        /* \"#utility.yul\":1741:1764   */\n      sub\n        /* \"#utility.yul\":1737:1769   */\n      slt\n        /* \"#utility.yul\":1734:1853   */\n      iszero\n      tag_204\n      jumpi\n        /* \"#utility.yul\":1772:1851   */\n      tag_205\n      tag_192\n      jump\t// in\n    tag_205:\n        /* \"#utility.yul\":1734:1853   */\n    tag_204:\n        /* \"#utility.yul\":1892:1893   */\n      0x00\n        /* \"#utility.yul\":1917:1970   */\n      tag_206\n        /* \"#utility.yul\":1962:1969   */\n      dup7\n        /* \"#utility.yul\":1953:1959   */\n      dup3\n        /* \"#utility.yul\":1942:1951   */\n      dup8\n        /* \"#utility.yul\":1938:1960   */\n      add\n        /* \"#utility.yul\":1917:1970   */\n      tag_185\n      jump\t// in\n    tag_206:\n        /* \"#utility.yul\":1907:1970   */\n      swap4\n      pop\n        /* \"#utility.yul\":1863:1980   */\n      pop\n        /* \"#utility.yul\":2019:2021   */\n      0x20\n        /* \"#utility.yul\":2045:2098   */\n      tag_207\n        /* \"#utility.yul\":2090:2097   */\n      dup7\n        /* \"#utility.yul\":2081:2087   */\n      dup3\n        /* \"#utility.yul\":2070:2079   */\n      dup8\n        /* \"#utility.yul\":2066:2088   */\n      add\n        /* \"#utility.yul\":2045:2098   */\n      tag_185\n      jump\t// in\n    tag_207:\n        /* \"#utility.yul\":2035:2098   */\n      swap3\n      pop\n        /* \"#utility.yul\":1990:2108   */\n      pop\n        /* \"#utility.yul\":2147:2149   */\n      0x40\n        /* \"#utility.yul\":2173:2226   */\n      tag_208\n        /* \"#utility.yul\":2218:2225   */\n      dup7\n        /* \"#utility.yul\":2209:2215   */\n      dup3\n        /* \"#utility.yul\":2198:2207   */\n      dup8\n        /* \"#utility.yul\":2194:2216   */\n      add\n        /* \"#utility.yul\":2173:2226   */\n      tag_185\n      jump\t// in\n    tag_208:\n        /* \"#utility.yul\":2163:2226   */\n      swap2\n      pop\n        /* \"#utility.yul\":2118:2236   */\n      pop\n        /* \"#utility.yul\":1624:2243   */\n      swap3\n      pop\n      swap3\n      pop\n      swap3\n      jump\t// out\n        /* \"#utility.yul\":2249:2367   */\n    tag_209:\n        /* \"#utility.yul\":2336:2360   */\n      tag_211\n        /* \"#utility.yul\":2354:2359   */\n      dup2\n        /* \"#utility.yul\":2336:2360   */\n      tag_212\n      jump\t// in\n    tag_211:\n        /* \"#utility.yul\":2331:2334   */\n      dup3\n        /* \"#utility.yul\":2324:2361   */\n      mstore\n        /* \"#utility.yul\":2249:2367   */\n      pop\n      pop\n      jump\t// out\n        /* \"#utility.yul\":2373:2491   */\n    tag_213:\n        /* \"#utility.yul\":2460:2484   */\n      tag_215\n        /* \"#utility.yul\":2478:2483   */\n      dup2\n        /* \"#utility.yul\":2460:2484   */\n      tag_216\n      jump\t// in\n    tag_215:\n        /* \"#utility.yul\":2455:2458   */\n      dup3\n        /* \"#utility.yul\":2448:2485   */\n      mstore\n        /* \"#utility.yul\":2373:2491   */\n      pop\n      pop\n      jump\t// out\n        /* \"#utility.yul\":2497:2719   */\n    tag_28:\n        /* \"#utility.yul\":2590:2594   */\n      0x00\n        /* \"#utility.yul\":2628:2630   */\n      0x20\n        /* \"#utility.yul\":2617:2626   */\n      dup3\n        /* \"#utility.yul\":2613:2631   */\n      add\n        /* \"#utility.yul\":2605:2631   */\n      swap1\n      pop\n        /* \"#utility.yul\":2641:2712   */\n      tag_218\n        /* \"#utility.yul\":2709:2710   */\n      0x00\n        /* \"#utility.yul\":2698:2707   */\n      dup4\n        /* \"#utility.yul\":2694:2711   */\n      add\n        /* \"#utility.yul\":2685:2691   */\n      dup5\n        /* \"#utility.yul\":2641:2712   */\n      tag_209\n      jump\t// in\n    tag_218:\n        /* \"#utility.yul\":2497:2719   */\n      swap3\n      swap2\n      pop\n      pop\n      jump\t// out\n        /* \"#utility.yul\":2725:2947   */\n    tag_33:\n        /* \"#utility.yul\":2818:2822   */\n      0x00\n        /* \"#utility.yul\":2856:2858   */\n      0x20\n        /* \"#utility.yul\":2845:2854   */\n      dup3\n        /* \"#utility.yul\":2841:2859   */\n      add\n        /* \"#utility.yul\":2833:2859   */\n      swap1\n      pop\n        /* \"#utility.yul\":2869:2940   */\n      tag_220\n        /* \"#utility.yul\":2937:2938   */\n      0x00\n        /* \"#utility.yul\":2926:2935   */\n      dup4\n        /* \"#utility.yul\":2922:2939   */\n      add\n        /* \"#utility.yul\":2913:2919   */\n      dup5\n        /* \"#utility.yul\":2869:2940   */\n      tag_213\n      jump\t// in\n    tag_220:\n        /* \"#utility.yul\":2725:2947   */\n      swap3\n      swap2\n      pop\n      pop\n      jump\t// out\n        /* \"#utility.yul\":2953:3395   */\n    tag_103:\n        /* \"#utility.yul\":3102:3106   */\n      0x00\n        /* \"#utility.yul\":3140:3142   */\n      0x60\n        /* \"#utility.yul\":3129:3138   */\n      dup3\n        /* \"#utility.yul\":3125:3143   */\n      add\n        /* \"#utility.yul\":3117:3143   */\n      swap1\n      pop\n        /* \"#utility.yul\":3153:3224   */\n      tag_222\n        /* \"#utility.yul\":3221:3222   */\n      0x00\n        /* \"#utility.yul\":3210:3219   */\n      dup4\n        /* \"#utility.yul\":3206:3223   */\n      add\n        /* \"#utility.yul\":3197:3203   */\n      dup7\n        /* \"#utility.yul\":3153:3224   */\n      tag_213\n      jump\t// in\n    tag_222:\n        /* \"#utility.yul\":3234:3306   */\n      tag_223\n        /* \"#utility.yul\":3302:3304   */\n      0x20\n        /* \"#utility.yul\":3291:3300   */\n      dup4\n        /* \"#utility.yul\":3287:3305   */\n      add\n        /* \"#utility.yul\":3278:3284   */\n      dup6\n        /* \"#utility.yul\":3234:3306   */\n      tag_213\n      jump\t// in\n    tag_223:\n        /* \"#utility.yul\":3316:3388   */\n      tag_224\n        /* \"#utility.yul\":3384:3386   */\n      0x40\n        /* \"#utility.yul\":3373:3382   */\n      dup4\n        /* \"#utility.yul\":3369:3387   */\n      add\n        /* \"#utility.yul\":3360:3366   */\n      dup5\n        /* \"#utility.yul\":3316:3388   */\n      tag_213\n      jump\t// in\n    tag_224:\n        /* \"#utility.yul\":2953:3395   */\n      swap5\n      swap4\n      pop\n      pop\n      pop\n      pop\n      jump\t// out\n        /* \"#utility.yul\":3482:3787   */\n    tag_124:\n        /* \"#utility.yul\":3522:3525   */\n      0x00\n        /* \"#utility.yul\":3541:3561   */\n      tag_228\n        /* \"#utility.yul\":3559:3560   */\n      dup3\n        /* \"#utility.yul\":3541:3561   */\n      tag_216\n      jump\t// in\n    tag_228:\n        /* \"#utility.yul\":3536:3561   */\n      swap2\n      pop\n        /* \"#utility.yul\":3575:3595   */\n      tag_229\n        /* \"#utility.yul\":3593:3594   */\n      dup4\n        /* \"#utility.yul\":3575:3595   */\n      tag_216\n      jump\t// in\n    tag_229:\n        /* \"#utility.yul\":3570:3595   */\n      swap3\n      pop\n        /* \"#utility.yul\":3729:3730   */\n      dup3\n        /* \"#utility.yul\":3661:3727   */\n      0xffffffffffffffffffffffffffffffffffffffffffffffffffffffffffffffff\n        /* \"#utility.yul\":3657:3731   */\n      sub\n        /* \"#utility.yul\":3654:3655   */\n      dup3\n        /* \"#utility.yul\":3651:3732   */\n      gt\n        /* \"#utility.yul\":3648:3755   */\n      iszero\n      tag_230\n      jumpi\n        /* \"#utility.yul\":3735:3753   */\n      tag_231\n      tag_232\n      jump\t// in\n    tag_231:\n        /* \"#utility.yul\":3648:3755   */\n    tag_230:\n        /* \"#utility.yul\":3779:3780   */\n      dup3\n        /* \"#utility.yul\":3776:3777   */\n      dup3\n        /* \"#utility.yul\":3772:3781   */\n      add\n        /* \"#utility.yul\":3765:3781   */\n      swap1\n      pop\n        /* \"#utility.yul\":3482:3787   */\n      swap3\n      swap2\n      pop\n      pop\n      jump\t// out\n        /* \"#utility.yul\":3793:4141   */\n    tag_111:\n        /* \"#utility.yul\":3833:3840   */\n      0x00\n        /* \"#utility.yul\":3856:3876   */\n      tag_234\n        /* \"#utility.yul\":3874:3875   */\n      dup3\n        /* \"#utility.yul\":3856:3876   */\n      tag_216\n      jump\t// in\n    tag_234:\n        /* \"#utility.yul\":3851:3876   */\n      swap2\n      pop\n        /* \"#utility.yul\":3890:3910   */\n      tag_235\n        /* \"#utility.yul\":3908:3909   */\n      dup4\n        /* \"#utility.yul\":3890:3910   */\n      tag_216\n      jump\t// in\n    tag_235:\n        /* \"#utility.yul\":3885:3910   */\n      swap3\n      pop\n        /* \"#utility.yul\":4078:4079   */\n      dup2\n        /* \"#utility.yul\":4010:4076   */\n      0xffffffffffffffffffffffffffffffffffffffffffffffffffffffffffffffff\n        /* \"#utility.yul\":4006:4080   */\n      div\n        /* \"#utility.yul\":4003:4004   */\n      dup4\n        /* \"#utility.yul\":4000:4081   */\n      gt\n        /* \"#utility.yul\":3995:3996   */\n      dup3\n        /* \"#utility.yul\":3988:3997   */\n      iszero\n        /* \"#utility.yul\":3981:3998   */\n      iszero\n        /* \"#utility.yul\":3977:4082   */\n      and\n        /* \"#utility.yul\":3974:4105   */\n      iszero\n      tag_236\n      jumpi\n        /* \"#utility.yul\":4085:4103   */\n      tag_237\n      tag_232\n      jump\t// in\n    tag_237:\n        /* \"#utility.yul\":3974:4105   */\n    tag_236:\n        /* \"#utility.yul\":4133:4134   */\n      dup3\n        /* \"#utility.yul\":4130:4131   */\n      dup3\n        /* \"#utility.yul\":4126:4135   */\n      mul\n        /* \"#utility.yul\":4115:4135   */\n      swap1\n      pop\n        /* \"#utility.yul\":3793:4141   */\n      swap3\n      swap2\n      pop\n      pop\n      jump\t// out\n        /* \"#utility.yul\":4147:4338   */\n    tag_120:\n        /* \"#utility.yul\":4187:4191   */\n      0x00\n        /* \"#utility.yul\":4207:4227   */\n      tag_239\n        /* \"#utility.yul\":4225:4226   */\n      dup3\n        /* \"#utility.yul\":4207:4227   */\n      tag_216\n      jump\t// in\n    tag_239:\n        /* \"#utility.yul\":4202:4227   */\n      swap2\n      pop\n        /* \"#utility.yul\":4241:4261   */\n      tag_240\n        /* \"#utility.yul\":4259:4260   */\n      dup4\n        /* \"#utility.yul\":4241:4261   */\n      tag_216\n      jump\t// in\n    tag_240:\n        /* \"#utility.yul\":4236:4261   */\n      swap3\n      pop\n        /* \"#utility.yul\":4280:4281   */\n      dup3\n        /* \"#utility.yul\":4277:4278   */\n      dup3\n        /* \"#utility.yul\":4274:4282   */\n      lt\n        /* \"#utility.yul\":4271:4305   */\n      iszero\n      tag_241\n      jumpi\n        /* \"#utility.yul\":4285:4303   */\n      tag_242\n      tag_232\n      jump\t// in\n    tag_242:\n        /* \"#utility.yul\":4271:4305   */\n    tag_241:\n        /* \"#utility.yul\":4330:4331   */\n      dup3\n        /* \"#utility.yul\":4327:4328   */\n      dup3\n        /* \"#utility.yul\":4323:4332   */\n      sub\n        /* \"#utility.yul\":4315:4332   */\n      swap1\n      pop\n        /* \"#utility.yul\":4147:4338   */\n      swap3\n      swap2\n      pop\n      pop\n      jump\t// out\n        /* \"#utility.yul\":4344:4440   */\n    tag_212:\n        /* \"#utility.yul\":4381:4388   */\n      0x00\n        /* \"#utility.yul\":4410:4434   */\n      tag_244\n        /* \"#utility.yul\":4428:4433   */\n      dup3\n        /* \"#utility.yul\":4410:4434   */\n      tag_245\n      jump\t// in\n    tag_244:\n        /* \"#utility.yul\":4399:4434   */\n      swap1\n      pop\n        /* \"#utility.yul\":4344:4440   */\n      swap2\n      swap1\n      pop\n      jump\t// out\n        /* \"#utility.yul\":4446:4550   */\n    tag_246:\n        /* \"#utility.yul\":4491:4498   */\n      0x00\n        /* \"#utility.yul\":4520:4544   */\n      tag_248\n        /* \"#utility.yul\":4538:4543   */\n      dup3\n        /* \"#utility.yul\":4520:4544   */\n      tag_245\n      jump\t// in\n    tag_248:\n        /* \"#utility.yul\":4509:4544   */\n      swap1\n      pop\n        /* \"#utility.yul\":4446:4550   */\n      swap2\n      swap1\n      pop\n      jump\t// out\n        /* \"#utility.yul\":4556:4682   */\n    tag_245:\n        /* \"#utility.yul\":4593:4600   */\n      0x00\n        /* \"#utility.yul\":4633:4675   */\n      0xffffffffffffffffffffffffffffffffffffffff\n        /* \"#utility.yul\":4626:4631   */\n      dup3\n        /* \"#utility.yul\":4622:4676   */\n      and\n        /* \"#utility.yul\":4611:4676   */\n      swap1\n      pop\n        /* \"#utility.yul\":4556:4682   */\n      swap2\n      swap1\n      pop\n      jump\t// out\n        /* \"#utility.yul\":4688:4765   */\n    tag_216:\n        /* \"#utility.yul\":4725:4732   */\n      0x00\n        /* \"#utility.yul\":4754:4759   */\n      dup2\n        /* \"#utility.yul\":4743:4759   */\n      swap1\n      pop\n        /* \"#utility.yul\":4688:4765   */\n      swap2\n      swap1\n      pop\n      jump\t// out\n        /* \"#utility.yul\":4771:4951   */\n    tag_232:\n        /* \"#utility.yul\":4819:4896   */\n      0x4e487b7100000000000000000000000000000000000000000000000000000000\n        /* \"#utility.yul\":4816:4817   */\n      0x00\n        /* \"#utility.yul\":4809:4897   */\n      mstore\n        /* \"#utility.yul\":4916:4920   */\n      0x11\n        /* \"#utility.yul\":4913:4914   */\n      0x04\n        /* \"#utility.yul\":4906:4921   */\n      mstore\n        /* \"#utility.yul\":4940:4944   */\n      0x24\n        /* \"#utility.yul\":4937:4938   */\n      0x00\n        /* \"#utility.yul\":4930:4945   */\n      revert\n        /* \"#utility.yul\":5080:5197   */\n    tag_192:\n        /* \"#utility.yul\":5189:5190   */\n      0x00\n        /* \"#utility.yul\":5186:5187   */\n      dup1\n        /* \"#utility.yul\":5179:5191   */\n      revert\n        /* \"#utility.yul\":5203:5325   */\n    tag_180:\n        /* \"#utility.yul\":5276:5300   */\n      tag_256\n        /* \"#utility.yul\":5294:5299   */\n      dup2\n        /* \"#utility.yul\":5276:5300   */\n      tag_212\n      jump\t// in\n    tag_256:\n        /* \"#utility.yul\":5269:5274   */\n      dup2\n        /* \"#utility.yul\":5266:5301   */\n      eq\n        /* \"#utility.yul\":5256:5319   */\n      tag_257\n      jumpi\n        /* \"#utility.yul\":5315:5316   */\n      0x00\n        /* \"#utility.yul\":5312:5313   */\n      dup1\n        /* \"#utility.yul\":5305:5317   */\n      revert\n        /* \"#utility.yul\":5256:5319   */\n    tag_257:\n        /* \"#utility.yul\":5203:5325   */\n      pop\n      jump\t// out\n        /* \"#utility.yul\":5331:5469   */\n    tag_184:\n        /* \"#utility.yul\":5412:5444   */\n      tag_259\n        /* \"#utility.yul\":5438:5443   */\n      dup2\n        /* \"#utility.yul\":5412:5444   */\n      tag_246\n      jump\t// in\n    tag_259:\n        /* \"#utility.yul\":5405:5410   */\n      dup2\n        /* \"#utility.yul\":5402:5445   */\n      eq\n        /* \"#utility.yul\":5392:5463   */\n      tag_260\n      jumpi\n        /* \"#utility.yul\":5459:5460   */\n      0x00\n        /* \"#utility.yul\":5456:5457   */\n      dup1\n        /* \"#utility.yul\":5449:5461   */\n      revert\n        /* \"#utility.yul\":5392:5463   */\n    tag_260:\n        /* \"#utility.yul\":5331:5469   */\n      pop\n      jump\t// out\n        /* \"#utility.yul\":5475:5597   */\n    tag_188:\n        /* \"#utility.yul\":5548:5572   */\n      tag_262\n        /* \"#utility.yul\":5566:5571   */\n      dup2\n        /* \"#utility.yul\":5548:5572   */\n      tag_216\n      jump\t// in\n    tag_262:\n        /* \"#utility.yul\":5541:5546   */\n      dup2\n        /* \"#utility.yul\":5538:5573   */\n      eq\n        /* \"#utility.yul\":5528:5591   */\n      tag_263\n      jumpi\n        /* \"#utility.yul\":5587:5588   */\n      0x00\n        /* \"#utility.yul\":5584:5585   */\n      dup1\n        /* \"#utility.yul\":5577:5589   */\n      revert\n        /* \"#utility.yul\":5528:5591   */\n    tag_263:\n        /* \"#utility.yul\":5475:5597   */\n      pop\n      jump\t// out\n\n    auxdata: 0xa2646970667358221220d5e46d7b4ff8042a0eff82ee156a7986b86550e708b062ea6e6bca80ee09a94564736f6c63430008070033\n}\n",
				"bytecode": {
					"linkReferences": {},
					"object": "60806040526000600455600360055560036006556004600755600560085560066009556007600a556008600b556009600c55600a600d5534801561004257600080fd5b50336000806101000a81548173ffffffffffffffffffffffffffffffffffffffff021916908373ffffffffffffffffffffffffffffffffffffffff160217905550610bdd806100926000396000f3fe6080604052600436106101145760003560e01c8063721028ec116100a0578063c2c496ec11610064578063c2c496ec14610388578063d0679d34146103b3578063ed2fa5ab146103cf578063f02e48c3146103fa578063f8b2cb4f1461043957610114565b8063721028ec146102c05780637c134b14146102fd578063a8bdb68b14610307578063b4ad7fa914610332578063b69ef8a81461035d57610114565b806327e235e3116100e757806327e235e3146101c557806328780a44146102025780632c9af64c1461022d578063481c6a75146102585780635c8f6b561461028357610114565b806308551a53146101195780630c03a1a314610144578063103347e71461016f57806320e731a11461019a575b600080fd5b34801561012557600080fd5b5061012e610476565b60405161013b919061098f565b60405180910390f35b34801561015057600080fd5b5061015961049c565b60405161016691906109aa565b60405180910390f35b34801561017b57600080fd5b506101846104a2565b60405161019191906109aa565b60405180910390f35b3480156101a657600080fd5b506101af6104a8565b6040516101bc91906109aa565b60405180910390f35b3480156101d157600080fd5b506101ec60048036038101906101e79190610884565b6104ae565b6040516101f991906109aa565b60405180910390f35b34801561020e57600080fd5b506102176104c6565b60405161022491906109aa565b60405180910390f35b34801561023957600080fd5b506102426104cc565b60405161024f91906109aa565b60405180910390f35b34801561026457600080fd5b5061026d6104d2565b60405161027a919061098f565b60405180910390f35b34801561028f57600080fd5b506102aa60048036038101906102a591906108f1565b6104f8565b6040516102b791906109aa565b60405180910390f35b3480156102cc57600080fd5b506102e760048036038101906102e291906108f1565b61050f565b6040516102f491906109aa565b60405180910390f35b610305610789565b005b34801561031357600080fd5b5061031c6107a4565b60405161032991906109aa565b60405180910390f35b34801561033e57600080fd5b506103476107aa565b60405161035491906109aa565b60405180910390f35b34801561036957600080fd5b506103726107b0565b60405161037f91906109aa565b60405180910390f35b34801561039457600080fd5b5061039d6107b6565b6040516103aa91906109aa565b60405180910390f35b6103cd60048036038101906103c891906108b1565b6107bc565b005b3480156103db57600080fd5b506103e4610807565b6040516103f191906109aa565b60405180910390f35b34801561040657600080fd5b50610421600480360381019061041c919061091e565b61080d565b604051610430939291906109c5565b60405180910390f35b34801561044557600080fd5b50610460600480360381019061045b9190610884565b610824565b60405161046d91906109aa565b60405180910390f35b600260009054906101000a900473ffffffffffffffffffffffffffffffffffffffff1681565b600a5481565b60095481565b60085481565b60036020528060005260406000206000915090505481565b60075481565b60055481565b600160009054906101000a900473ffffffffffffffffffffffffffffffffffffffff1681565b6000600554826105089190610a52565b9050919050565b600060fb82101561070f57603382101561053857600654826105319190610a52565b905061070a565b6032821180156105485750606582105b156105875760075460328361055d9190610aac565b6105679190610a52565b60065460326105769190610a52565b61058091906109fc565b9050610709565b6064821180156105975750609782105b156105ef576008546032836105ac9190610aac565b6105b69190610a52565b60075460326105c59190610a52565b60065460326105d49190610a52565b6105de91906109fc565b6105e891906109fc565b9050610708565b6096821180156105ff575060c982105b15610670576009546032836106149190610aac565b61061e9190610a52565b600854603261062d9190610a52565b600754603261063c9190610a52565b600654603261064b9190610a52565b61065591906109fc565b61065f91906109fc565b61066991906109fc565b9050610707565b60c882118015610680575060fb82105b1561070657600a546032836106959190610aac565b61069f9190610a52565b60095460326106ae9190610a52565b60085460326106bd9190610a52565b60075460326106cc9190610a52565b60065460326106db9190610a52565b6106e591906109fc565b6106ef91906109fc565b6106f991906109fc565b61070391906109fc565b90505b5b5b5b5b610784565b60fa82118015610720575061015f82105b1561073a57600b54826107339190610a52565b9050610783565b61015e8211801561074c57506101c382105b1561076657600c548261075f9190610a52565b9050610782565b6101c282111561078157600d548261077e9190610a52565b90505b5b5b5b919050565b346004600082825461079b91906109fc565b92505081905550565b600d5481565b600b5481565b60045481565b60065481565b8173ffffffffffffffffffffffffffffffffffffffff166108fc829081150290604051600060405180830381858888f19350505050158015610802573d6000803e3d6000fd5b505050565b600c5481565b600080600085925084915083905093509350939050565b60008173ffffffffffffffffffffffffffffffffffffffff16319050919050565b60008135905061085481610b62565b92915050565b60008135905061086981610b79565b92915050565b60008135905061087e81610b90565b92915050565b60006020828403121561089a57610899610b5d565b5b60006108a884828501610845565b91505092915050565b600080604083850312156108c8576108c7610b5d565b5b60006108d68582860161085a565b92505060206108e78582860161086f565b9150509250929050565b60006020828403121561090757610906610b5d565b5b60006109158482850161086f565b91505092915050565b60008060006060848603121561093757610936610b5d565b5b60006109458682870161086f565b93505060206109568682870161086f565b92505060406109678682870161086f565b9150509250925092565b61097a81610ae0565b82525050565b61098981610b24565b82525050565b60006020820190506109a46000830184610971565b92915050565b60006020820190506109bf6000830184610980565b92915050565b60006060820190506109da6000830186610980565b6109e76020830185610980565b6109f46040830184610980565b949350505050565b6000610a0782610b24565b9150610a1283610b24565b9250827fffffffffffffffffffffffffffffffffffffffffffffffffffffffffffffffff03821115610a4757610a46610b2e565b5b828201905092915050565b6000610a5d82610b24565b9150610a6883610b24565b9250817fffffffffffffffffffffffffffffffffffffffffffffffffffffffffffffffff0483118215151615610aa157610aa0610b2e565b5b828202905092915050565b6000610ab782610b24565b9150610ac283610b24565b925082821015610ad557610ad4610b2e565b5b828203905092915050565b6000610aeb82610b04565b9050919050565b6000610afd82610b04565b9050919050565b600073ffffffffffffffffffffffffffffffffffffffff82169050919050565b6000819050919050565b7f4e487b7100000000000000000000000000000000000000000000000000000000600052601160045260246000fd5b600080fd5b610b6b81610ae0565b8114610b7657600080fd5b50565b610b8281610af2565b8114610b8d57600080fd5b50565b610b9981610b24565b8114610ba457600080fd5b5056fea2646970667358221220d5e46d7b4ff8042a0eff82ee156a7986b86550e708b062ea6e6bca80ee09a94564736f6c63430008070033",
					"opcodes": "PUSH1 0x80 PUSH1 0x40 MSTORE PUSH1 0x0 PUSH1 0x4 SSTORE PUSH1 0x3 PUSH1 0x5 SSTORE PUSH1 0x3 PUSH1 0x6 SSTORE PUSH1 0x4 PUSH1 0x7 SSTORE PUSH1 0x5 PUSH1 0x8 SSTORE PUSH1 0x6 PUSH1 0x9 SSTORE PUSH1 0x7 PUSH1 0xA SSTORE PUSH1 0x8 PUSH1 0xB SSTORE PUSH1 0x9 PUSH1 0xC SSTORE PUSH1 0xA PUSH1 0xD SSTORE CALLVALUE DUP1 ISZERO PUSH2 0x42 JUMPI PUSH1 0x0 DUP1 REVERT JUMPDEST POP CALLER PUSH1 0x0 DUP1 PUSH2 0x100 EXP DUP2 SLOAD DUP2 PUSH20 0xFFFFFFFFFFFFFFFFFFFFFFFFFFFFFFFFFFFFFFFF MUL NOT AND SWAP1 DUP4 PUSH20 0xFFFFFFFFFFFFFFFFFFFFFFFFFFFFFFFFFFFFFFFF AND MUL OR SWAP1 SSTORE POP PUSH2 0xBDD DUP1 PUSH2 0x92 PUSH1 0x0 CODECOPY PUSH1 0x0 RETURN INVALID PUSH1 0x80 PUSH1 0x40 MSTORE PUSH1 0x4 CALLDATASIZE LT PUSH2 0x114 JUMPI PUSH1 0x0 CALLDATALOAD PUSH1 0xE0 SHR DUP1 PUSH4 0x721028EC GT PUSH2 0xA0 JUMPI DUP1 PUSH4 0xC2C496EC GT PUSH2 0x64 JUMPI DUP1 PUSH4 0xC2C496EC EQ PUSH2 0x388 JUMPI DUP1 PUSH4 0xD0679D34 EQ PUSH2 0x3B3 JUMPI DUP1 PUSH4 0xED2FA5AB EQ PUSH2 0x3CF JUMPI DUP1 PUSH4 0xF02E48C3 EQ PUSH2 0x3FA JUMPI DUP1 PUSH4 0xF8B2CB4F EQ PUSH2 0x439 JUMPI PUSH2 0x114 JUMP JUMPDEST DUP1 PUSH4 0x721028EC EQ PUSH2 0x2C0 JUMPI DUP1 PUSH4 0x7C134B14 EQ PUSH2 0x2FD JUMPI DUP1 PUSH4 0xA8BDB68B EQ PUSH2 0x307 JUMPI DUP1 PUSH4 0xB4AD7FA9 EQ PUSH2 0x332 JUMPI DUP1 PUSH4 0xB69EF8A8 EQ PUSH2 0x35D JUMPI PUSH2 0x114 JUMP JUMPDEST DUP1 PUSH4 0x27E235E3 GT PUSH2 0xE7 JUMPI DUP1 PUSH4 0x27E235E3 EQ PUSH2 0x1C5 JUMPI DUP1 PUSH4 0x28780A44 EQ PUSH2 0x202 JUMPI DUP1 PUSH4 0x2C9AF64C EQ PUSH2 0x22D JUMPI DUP1 PUSH4 0x481C6A75 EQ PUSH2 0x258 JUMPI DUP1 PUSH4 0x5C8F6B56 EQ PUSH2 0x283 JUMPI PUSH2 0x114 JUMP JUMPDEST DUP1 PUSH4 0x8551A53 EQ PUSH2 0x119 JUMPI DUP1 PUSH4 0xC03A1A3 EQ PUSH2 0x144 JUMPI DUP1 PUSH4 0x103347E7 EQ PUSH2 0x16F JUMPI DUP1 PUSH4 0x20E731A1 EQ PUSH2 0x19A JUMPI JUMPDEST PUSH1 0x0 DUP1 REVERT JUMPDEST CALLVALUE DUP1 ISZERO PUSH2 0x125 JUMPI PUSH1 0x0 DUP1 REVERT JUMPDEST POP PUSH2 0x12E PUSH2 0x476 JUMP JUMPDEST PUSH1 0x40 MLOAD PUSH2 0x13B SWAP2 SWAP1 PUSH2 0x98F JUMP JUMPDEST PUSH1 0x40 MLOAD DUP1 SWAP2 SUB SWAP1 RETURN JUMPDEST CALLVALUE DUP1 ISZERO PUSH2 0x150 JUMPI PUSH1 0x0 DUP1 REVERT JUMPDEST POP PUSH2 0x159 PUSH2 0x49C JUMP JUMPDEST PUSH1 0x40 MLOAD PUSH2 0x166 SWAP2 SWAP1 PUSH2 0x9AA JUMP JUMPDEST PUSH1 0x40 MLOAD DUP1 SWAP2 SUB SWAP1 RETURN JUMPDEST CALLVALUE DUP1 ISZERO PUSH2 0x17B JUMPI PUSH1 0x0 DUP1 REVERT JUMPDEST POP PUSH2 0x184 PUSH2 0x4A2 JUMP JUMPDEST PUSH1 0x40 MLOAD PUSH2 0x191 SWAP2 SWAP1 PUSH2 0x9AA JUMP JUMPDEST PUSH1 0x40 MLOAD DUP1 SWAP2 SUB SWAP1 RETURN JUMPDEST CALLVALUE DUP1 ISZERO PUSH2 0x1A6 JUMPI PUSH1 0x0 DUP1 REVERT JUMPDEST POP PUSH2 0x1AF PUSH2 0x4A8 JUMP JUMPDEST PUSH1 0x40 MLOAD PUSH2 0x1BC SWAP2 SWAP1 PUSH2 0x9AA JUMP JUMPDEST PUSH1 0x40 MLOAD DUP1 SWAP2 SUB SWAP1 RETURN JUMPDEST CALLVALUE DUP1 ISZERO PUSH2 0x1D1 JUMPI PUSH1 0x0 DUP1 REVERT JUMPDEST POP PUSH2 0x1EC PUSH1 0x4 DUP1 CALLDATASIZE SUB DUP2 ADD SWAP1 PUSH2 0x1E7 SWAP2 SWAP1 PUSH2 0x884 JUMP JUMPDEST PUSH2 0x4AE JUMP JUMPDEST PUSH1 0x40 MLOAD PUSH2 0x1F9 SWAP2 SWAP1 PUSH2 0x9AA JUMP JUMPDEST PUSH1 0x40 MLOAD DUP1 SWAP2 SUB SWAP1 RETURN JUMPDEST CALLVALUE DUP1 ISZERO PUSH2 0x20E JUMPI PUSH1 0x0 DUP1 REVERT JUMPDEST POP PUSH2 0x217 PUSH2 0x4C6 JUMP JUMPDEST PUSH1 0x40 MLOAD PUSH2 0x224 SWAP2 SWAP1 PUSH2 0x9AA JUMP JUMPDEST PUSH1 0x40 MLOAD DUP1 SWAP2 SUB SWAP1 RETURN JUMPDEST CALLVALUE DUP1 ISZERO PUSH2 0x239 JUMPI PUSH1 0x0 DUP1 REVERT JUMPDEST POP PUSH2 0x242 PUSH2 0x4CC JUMP JUMPDEST PUSH1 0x40 MLOAD PUSH2 0x24F SWAP2 SWAP1 PUSH2 0x9AA JUMP JUMPDEST PUSH1 0x40 MLOAD DUP1 SWAP2 SUB SWAP1 RETURN JUMPDEST CALLVALUE DUP1 ISZERO PUSH2 0x264 JUMPI PUSH1 0x0 DUP1 REVERT JUMPDEST POP PUSH2 0x26D PUSH2 0x4D2 JUMP JUMPDEST PUSH1 0x40 MLOAD PUSH2 0x27A SWAP2 SWAP1 PUSH2 0x98F JUMP JUMPDEST PUSH1 0x40 MLOAD DUP1 SWAP2 SUB SWAP1 RETURN JUMPDEST CALLVALUE DUP1 ISZERO PUSH2 0x28F JUMPI PUSH1 0x0 DUP1 REVERT JUMPDEST POP PUSH2 0x2AA PUSH1 0x4 DUP1 CALLDATASIZE SUB DUP2 ADD SWAP1 PUSH2 0x2A5 SWAP2 SWAP1 PUSH2 0x8F1 JUMP JUMPDEST PUSH2 0x4F8 JUMP JUMPDEST PUSH1 0x40 MLOAD PUSH2 0x2B7 SWAP2 SWAP1 PUSH2 0x9AA JUMP JUMPDEST PUSH1 0x40 MLOAD DUP1 SWAP2 SUB SWAP1 RETURN JUMPDEST CALLVALUE DUP1 ISZERO PUSH2 0x2CC JUMPI PUSH1 0x0 DUP1 REVERT JUMPDEST POP PUSH2 0x2E7 PUSH1 0x4 DUP1 CALLDATASIZE SUB DUP2 ADD SWAP1 PUSH2 0x2E2 SWAP2 SWAP1 PUSH2 0x8F1 JUMP JUMPDEST PUSH2 0x50F JUMP JUMPDEST PUSH1 0x40 MLOAD PUSH2 0x2F4 SWAP2 SWAP1 PUSH2 0x9AA JUMP JUMPDEST PUSH1 0x40 MLOAD DUP1 SWAP2 SUB SWAP1 RETURN JUMPDEST PUSH2 0x305 PUSH2 0x789 JUMP JUMPDEST STOP JUMPDEST CALLVALUE DUP1 ISZERO PUSH2 0x313 JUMPI PUSH1 0x0 DUP1 REVERT JUMPDEST POP PUSH2 0x31C PUSH2 0x7A4 JUMP JUMPDEST PUSH1 0x40 MLOAD PUSH2 0x329 SWAP2 SWAP1 PUSH2 0x9AA JUMP JUMPDEST PUSH1 0x40 MLOAD DUP1 SWAP2 SUB SWAP1 RETURN JUMPDEST CALLVALUE DUP1 ISZERO PUSH2 0x33E JUMPI PUSH1 0x0 DUP1 REVERT JUMPDEST POP PUSH2 0x347 PUSH2 0x7AA JUMP JUMPDEST PUSH1 0x40 MLOAD PUSH2 0x354 SWAP2 SWAP1 PUSH2 0x9AA JUMP JUMPDEST PUSH1 0x40 MLOAD DUP1 SWAP2 SUB SWAP1 RETURN JUMPDEST CALLVALUE DUP1 ISZERO PUSH2 0x369 JUMPI PUSH1 0x0 DUP1 REVERT JUMPDEST POP PUSH2 0x372 PUSH2 0x7B0 JUMP JUMPDEST PUSH1 0x40 MLOAD PUSH2 0x37F SWAP2 SWAP1 PUSH2 0x9AA JUMP JUMPDEST PUSH1 0x40 MLOAD DUP1 SWAP2 SUB SWAP1 RETURN JUMPDEST CALLVALUE DUP1 ISZERO PUSH2 0x394 JUMPI PUSH1 0x0 DUP1 REVERT JUMPDEST POP PUSH2 0x39D PUSH2 0x7B6 JUMP JUMPDEST PUSH1 0x40 MLOAD PUSH2 0x3AA SWAP2 SWAP1 PUSH2 0x9AA JUMP JUMPDEST PUSH1 0x40 MLOAD DUP1 SWAP2 SUB SWAP1 RETURN JUMPDEST PUSH2 0x3CD PUSH1 0x4 DUP1 CALLDATASIZE SUB DUP2 ADD SWAP1 PUSH2 0x3C8 SWAP2 SWAP1 PUSH2 0x8B1 JUMP JUMPDEST PUSH2 0x7BC JUMP JUMPDEST STOP JUMPDEST CALLVALUE DUP1 ISZERO PUSH2 0x3DB JUMPI PUSH1 0x0 DUP1 REVERT JUMPDEST POP PUSH2 0x3E4 PUSH2 0x807 JUMP JUMPDEST PUSH1 0x40 MLOAD PUSH2 0x3F1 SWAP2 SWAP1 PUSH2 0x9AA JUMP JUMPDEST PUSH1 0x40 MLOAD DUP1 SWAP2 SUB SWAP1 RETURN JUMPDEST CALLVALUE DUP1 ISZERO PUSH2 0x406 JUMPI PUSH1 0x0 DUP1 REVERT JUMPDEST POP PUSH2 0x421 PUSH1 0x4 DUP1 CALLDATASIZE SUB DUP2 ADD SWAP1 PUSH2 0x41C SWAP2 SWAP1 PUSH2 0x91E JUMP JUMPDEST PUSH2 0x80D JUMP JUMPDEST PUSH1 0x40 MLOAD PUSH2 0x430 SWAP4 SWAP3 SWAP2 SWAP1 PUSH2 0x9C5 JUMP JUMPDEST PUSH1 0x40 MLOAD DUP1 SWAP2 SUB SWAP1 RETURN JUMPDEST CALLVALUE DUP1 ISZERO PUSH2 0x445 JUMPI PUSH1 0x0 DUP1 REVERT JUMPDEST POP PUSH2 0x460 PUSH1 0x4 DUP1 CALLDATASIZE SUB DUP2 ADD SWAP1 PUSH2 0x45B SWAP2 SWAP1 PUSH2 0x884 JUMP JUMPDEST PUSH2 0x824 JUMP JUMPDEST PUSH1 0x40 MLOAD PUSH2 0x46D SWAP2 SWAP1 PUSH2 0x9AA JUMP JUMPDEST PUSH1 0x40 MLOAD DUP1 SWAP2 SUB SWAP1 RETURN JUMPDEST PUSH1 0x2 PUSH1 0x0 SWAP1 SLOAD SWAP1 PUSH2 0x100 EXP SWAP1 DIV PUSH20 0xFFFFFFFFFFFFFFFFFFFFFFFFFFFFFFFFFFFFFFFF AND DUP2 JUMP JUMPDEST PUSH1 0xA SLOAD DUP2 JUMP JUMPDEST PUSH1 0x9 SLOAD DUP2 JUMP JUMPDEST PUSH1 0x8 SLOAD DUP2 JUMP JUMPDEST PUSH1 0x3 PUSH1 0x20 MSTORE DUP1 PUSH1 0x0 MSTORE PUSH1 0x40 PUSH1 0x0 KECCAK256 PUSH1 0x0 SWAP2 POP SWAP1 POP SLOAD DUP2 JUMP JUMPDEST PUSH1 0x7 SLOAD DUP2 JUMP JUMPDEST PUSH1 0x5 SLOAD DUP2 JUMP JUMPDEST PUSH1 0x1 PUSH1 0x0 SWAP1 SLOAD SWAP1 PUSH2 0x100 EXP SWAP1 DIV PUSH20 0xFFFFFFFFFFFFFFFFFFFFFFFFFFFFFFFFFFFFFFFF AND DUP2 JUMP JUMPDEST PUSH1 0x0 PUSH1 0x5 SLOAD DUP3 PUSH2 0x508 SWAP2 SWAP1 PUSH2 0xA52 JUMP JUMPDEST SWAP1 POP SWAP2 SWAP1 POP JUMP JUMPDEST PUSH1 0x0 PUSH1 0xFB DUP3 LT ISZERO PUSH2 0x70F JUMPI PUSH1 0x33 DUP3 LT ISZERO PUSH2 0x538 JUMPI PUSH1 0x6 SLOAD DUP3 PUSH2 0x531 SWAP2 SWAP1 PUSH2 0xA52 JUMP JUMPDEST SWAP1 POP PUSH2 0x70A JUMP JUMPDEST PUSH1 0x32 DUP3 GT DUP1 ISZERO PUSH2 0x548 JUMPI POP PUSH1 0x65 DUP3 LT JUMPDEST ISZERO PUSH2 0x587 JUMPI PUSH1 0x7 SLOAD PUSH1 0x32 DUP4 PUSH2 0x55D SWAP2 SWAP1 PUSH2 0xAAC JUMP JUMPDEST PUSH2 0x567 SWAP2 SWAP1 PUSH2 0xA52 JUMP JUMPDEST PUSH1 0x6 SLOAD PUSH1 0x32 PUSH2 0x576 SWAP2 SWAP1 PUSH2 0xA52 JUMP JUMPDEST PUSH2 0x580 SWAP2 SWAP1 PUSH2 0x9FC JUMP JUMPDEST SWAP1 POP PUSH2 0x709 JUMP JUMPDEST PUSH1 0x64 DUP3 GT DUP1 ISZERO PUSH2 0x597 JUMPI POP PUSH1 0x97 DUP3 LT JUMPDEST ISZERO PUSH2 0x5EF JUMPI PUSH1 0x8 SLOAD PUSH1 0x32 DUP4 PUSH2 0x5AC SWAP2 SWAP1 PUSH2 0xAAC JUMP JUMPDEST PUSH2 0x5B6 SWAP2 SWAP1 PUSH2 0xA52 JUMP JUMPDEST PUSH1 0x7 SLOAD PUSH1 0x32 PUSH2 0x5C5 SWAP2 SWAP1 PUSH2 0xA52 JUMP JUMPDEST PUSH1 0x6 SLOAD PUSH1 0x32 PUSH2 0x5D4 SWAP2 SWAP1 PUSH2 0xA52 JUMP JUMPDEST PUSH2 0x5DE SWAP2 SWAP1 PUSH2 0x9FC JUMP JUMPDEST PUSH2 0x5E8 SWAP2 SWAP1 PUSH2 0x9FC JUMP JUMPDEST SWAP1 POP PUSH2 0x708 JUMP JUMPDEST PUSH1 0x96 DUP3 GT DUP1 ISZERO PUSH2 0x5FF JUMPI POP PUSH1 0xC9 DUP3 LT JUMPDEST ISZERO PUSH2 0x670 JUMPI PUSH1 0x9 SLOAD PUSH1 0x32 DUP4 PUSH2 0x614 SWAP2 SWAP1 PUSH2 0xAAC JUMP JUMPDEST PUSH2 0x61E SWAP2 SWAP1 PUSH2 0xA52 JUMP JUMPDEST PUSH1 0x8 SLOAD PUSH1 0x32 PUSH2 0x62D SWAP2 SWAP1 PUSH2 0xA52 JUMP JUMPDEST PUSH1 0x7 SLOAD PUSH1 0x32 PUSH2 0x63C SWAP2 SWAP1 PUSH2 0xA52 JUMP JUMPDEST PUSH1 0x6 SLOAD PUSH1 0x32 PUSH2 0x64B SWAP2 SWAP1 PUSH2 0xA52 JUMP JUMPDEST PUSH2 0x655 SWAP2 SWAP1 PUSH2 0x9FC JUMP JUMPDEST PUSH2 0x65F SWAP2 SWAP1 PUSH2 0x9FC JUMP JUMPDEST PUSH2 0x669 SWAP2 SWAP1 PUSH2 0x9FC JUMP JUMPDEST SWAP1 POP PUSH2 0x707 JUMP JUMPDEST PUSH1 0xC8 DUP3 GT DUP1 ISZERO PUSH2 0x680 JUMPI POP PUSH1 0xFB DUP3 LT JUMPDEST ISZERO PUSH2 0x706 JUMPI PUSH1 0xA SLOAD PUSH1 0x32 DUP4 PUSH2 0x695 SWAP2 SWAP1 PUSH2 0xAAC JUMP JUMPDEST PUSH2 0x69F SWAP2 SWAP1 PUSH2 0xA52 JUMP JUMPDEST PUSH1 0x9 SLOAD PUSH1 0x32 PUSH2 0x6AE SWAP2 SWAP1 PUSH2 0xA52 JUMP JUMPDEST PUSH1 0x8 SLOAD PUSH1 0x32 PUSH2 0x6BD SWAP2 SWAP1 PUSH2 0xA52 JUMP JUMPDEST PUSH1 0x7 SLOAD PUSH1 0x32 PUSH2 0x6CC SWAP2 SWAP1 PUSH2 0xA52 JUMP JUMPDEST PUSH1 0x6 SLOAD PUSH1 0x32 PUSH2 0x6DB SWAP2 SWAP1 PUSH2 0xA52 JUMP JUMPDEST PUSH2 0x6E5 SWAP2 SWAP1 PUSH2 0x9FC JUMP JUMPDEST PUSH2 0x6EF SWAP2 SWAP1 PUSH2 0x9FC JUMP JUMPDEST PUSH2 0x6F9 SWAP2 SWAP1 PUSH2 0x9FC JUMP JUMPDEST PUSH2 0x703 SWAP2 SWAP1 PUSH2 0x9FC JUMP JUMPDEST SWAP1 POP JUMPDEST JUMPDEST JUMPDEST JUMPDEST JUMPDEST PUSH2 0x784 JUMP JUMPDEST PUSH1 0xFA DUP3 GT DUP1 ISZERO PUSH2 0x720 JUMPI POP PUSH2 0x15F DUP3 LT JUMPDEST ISZERO PUSH2 0x73A JUMPI PUSH1 0xB SLOAD DUP3 PUSH2 0x733 SWAP2 SWAP1 PUSH2 0xA52 JUMP JUMPDEST SWAP1 POP PUSH2 0x783 JUMP JUMPDEST PUSH2 0x15E DUP3 GT DUP1 ISZERO PUSH2 0x74C JUMPI POP PUSH2 0x1C3 DUP3 LT JUMPDEST ISZERO PUSH2 0x766 JUMPI PUSH1 0xC SLOAD DUP3 PUSH2 0x75F SWAP2 SWAP1 PUSH2 0xA52 JUMP JUMPDEST SWAP1 POP PUSH2 0x782 JUMP JUMPDEST PUSH2 0x1C2 DUP3 GT ISZERO PUSH2 0x781 JUMPI PUSH1 0xD SLOAD DUP3 PUSH2 0x77E SWAP2 SWAP1 PUSH2 0xA52 JUMP JUMPDEST SWAP1 POP JUMPDEST JUMPDEST JUMPDEST JUMPDEST SWAP2 SWAP1 POP JUMP JUMPDEST CALLVALUE PUSH1 0x4 PUSH1 0x0 DUP3 DUP3 SLOAD PUSH2 0x79B SWAP2 SWAP1 PUSH2 0x9FC JUMP JUMPDEST SWAP3 POP POP DUP2 SWAP1 SSTORE POP JUMP JUMPDEST PUSH1 0xD SLOAD DUP2 JUMP JUMPDEST PUSH1 0xB SLOAD DUP2 JUMP JUMPDEST PUSH1 0x4 SLOAD DUP2 JUMP JUMPDEST PUSH1 0x6 SLOAD DUP2 JUMP JUMPDEST DUP2 PUSH20 0xFFFFFFFFFFFFFFFFFFFFFFFFFFFFFFFFFFFFFFFF AND PUSH2 0x8FC DUP3 SWAP1 DUP2 ISZERO MUL SWAP1 PUSH1 0x40 MLOAD PUSH1 0x0 PUSH1 0x40 MLOAD DUP1 DUP4 SUB DUP2 DUP6 DUP9 DUP9 CALL SWAP4 POP POP POP POP ISZERO DUP1 ISZERO PUSH2 0x802 JUMPI RETURNDATASIZE PUSH1 0x0 DUP1 RETURNDATACOPY RETURNDATASIZE PUSH1 0x0 REVERT JUMPDEST POP POP POP JUMP JUMPDEST PUSH1 0xC SLOAD DUP2 JUMP JUMPDEST PUSH1 0x0 DUP1 PUSH1 0x0 DUP6 SWAP3 POP DUP5 SWAP2 POP DUP4 SWAP1 POP SWAP4 POP SWAP4 POP SWAP4 SWAP1 POP JUMP JUMPDEST PUSH1 0x0 DUP2 PUSH20 0xFFFFFFFFFFFFFFFFFFFFFFFFFFFFFFFFFFFFFFFF AND BALANCE SWAP1 POP SWAP2 SWAP1 POP JUMP JUMPDEST PUSH1 0x0 DUP2 CALLDATALOAD SWAP1 POP PUSH2 0x854 DUP2 PUSH2 0xB62 JUMP JUMPDEST SWAP3 SWAP2 POP POP JUMP JUMPDEST PUSH1 0x0 DUP2 CALLDATALOAD SWAP1 POP PUSH2 0x869 DUP2 PUSH2 0xB79 JUMP JUMPDEST SWAP3 SWAP2 POP POP JUMP JUMPDEST PUSH1 0x0 DUP2 CALLDATALOAD SWAP1 POP PUSH2 0x87E DUP2 PUSH2 0xB90 JUMP JUMPDEST SWAP3 SWAP2 POP POP JUMP JUMPDEST PUSH1 0x0 PUSH1 0x20 DUP3 DUP5 SUB SLT ISZERO PUSH2 0x89A JUMPI PUSH2 0x899 PUSH2 0xB5D JUMP JUMPDEST JUMPDEST PUSH1 0x0 PUSH2 0x8A8 DUP5 DUP3 DUP6 ADD PUSH2 0x845 JUMP JUMPDEST SWAP2 POP POP SWAP3 SWAP2 POP POP JUMP JUMPDEST PUSH1 0x0 DUP1 PUSH1 0x40 DUP4 DUP6 SUB SLT ISZERO PUSH2 0x8C8 JUMPI PUSH2 0x8C7 PUSH2 0xB5D JUMP JUMPDEST JUMPDEST PUSH1 0x0 PUSH2 0x8D6 DUP6 DUP3 DUP7 ADD PUSH2 0x85A JUMP JUMPDEST SWAP3 POP POP PUSH1 0x20 PUSH2 0x8E7 DUP6 DUP3 DUP7 ADD PUSH2 0x86F JUMP JUMPDEST SWAP2 POP POP SWAP3 POP SWAP3 SWAP1 POP JUMP JUMPDEST PUSH1 0x0 PUSH1 0x20 DUP3 DUP5 SUB SLT ISZERO PUSH2 0x907 JUMPI PUSH2 0x906 PUSH2 0xB5D JUMP JUMPDEST JUMPDEST PUSH1 0x0 PUSH2 0x915 DUP5 DUP3 DUP6 ADD PUSH2 0x86F JUMP JUMPDEST SWAP2 POP POP SWAP3 SWAP2 POP POP JUMP JUMPDEST PUSH1 0x0 DUP1 PUSH1 0x0 PUSH1 0x60 DUP5 DUP7 SUB SLT ISZERO PUSH2 0x937 JUMPI PUSH2 0x936 PUSH2 0xB5D JUMP JUMPDEST JUMPDEST PUSH1 0x0 PUSH2 0x945 DUP7 DUP3 DUP8 ADD PUSH2 0x86F JUMP JUMPDEST SWAP4 POP POP PUSH1 0x20 PUSH2 0x956 DUP7 DUP3 DUP8 ADD PUSH2 0x86F JUMP JUMPDEST SWAP3 POP POP PUSH1 0x40 PUSH2 0x967 DUP7 DUP3 DUP8 ADD PUSH2 0x86F JUMP JUMPDEST SWAP2 POP POP SWAP3 POP SWAP3 POP SWAP3 JUMP JUMPDEST PUSH2 0x97A DUP2 PUSH2 0xAE0 JUMP JUMPDEST DUP3 MSTORE POP POP JUMP JUMPDEST PUSH2 0x989 DUP2 PUSH2 0xB24 JUMP JUMPDEST DUP3 MSTORE POP POP JUMP JUMPDEST PUSH1 0x0 PUSH1 0x20 DUP3 ADD SWAP1 POP PUSH2 0x9A4 PUSH1 0x0 DUP4 ADD DUP5 PUSH2 0x971 JUMP JUMPDEST SWAP3 SWAP2 POP POP JUMP JUMPDEST PUSH1 0x0 PUSH1 0x20 DUP3 ADD SWAP1 POP PUSH2 0x9BF PUSH1 0x0 DUP4 ADD DUP5 PUSH2 0x980 JUMP JUMPDEST SWAP3 SWAP2 POP POP JUMP JUMPDEST PUSH1 0x0 PUSH1 0x60 DUP3 ADD SWAP1 POP PUSH2 0x9DA PUSH1 0x0 DUP4 ADD DUP7 PUSH2 0x980 JUMP JUMPDEST PUSH2 0x9E7 PUSH1 0x20 DUP4 ADD DUP6 PUSH2 0x980 JUMP JUMPDEST PUSH2 0x9F4 PUSH1 0x40 DUP4 ADD DUP5 PUSH2 0x980 JUMP JUMPDEST SWAP5 SWAP4 POP POP POP POP JUMP JUMPDEST PUSH1 0x0 PUSH2 0xA07 DUP3 PUSH2 0xB24 JUMP JUMPDEST SWAP2 POP PUSH2 0xA12 DUP4 PUSH2 0xB24 JUMP JUMPDEST SWAP3 POP DUP3 PUSH32 0xFFFFFFFFFFFFFFFFFFFFFFFFFFFFFFFFFFFFFFFFFFFFFFFFFFFFFFFFFFFFFFFF SUB DUP3 GT ISZERO PUSH2 0xA47 JUMPI PUSH2 0xA46 PUSH2 0xB2E JUMP JUMPDEST JUMPDEST DUP3 DUP3 ADD SWAP1 POP SWAP3 SWAP2 POP POP JUMP JUMPDEST PUSH1 0x0 PUSH2 0xA5D DUP3 PUSH2 0xB24 JUMP JUMPDEST SWAP2 POP PUSH2 0xA68 DUP4 PUSH2 0xB24 JUMP JUMPDEST SWAP3 POP DUP2 PUSH32 0xFFFFFFFFFFFFFFFFFFFFFFFFFFFFFFFFFFFFFFFFFFFFFFFFFFFFFFFFFFFFFFFF DIV DUP4 GT DUP3 ISZERO ISZERO AND ISZERO PUSH2 0xAA1 JUMPI PUSH2 0xAA0 PUSH2 0xB2E JUMP JUMPDEST JUMPDEST DUP3 DUP3 MUL SWAP1 POP SWAP3 SWAP2 POP POP JUMP JUMPDEST PUSH1 0x0 PUSH2 0xAB7 DUP3 PUSH2 0xB24 JUMP JUMPDEST SWAP2 POP PUSH2 0xAC2 DUP4 PUSH2 0xB24 JUMP JUMPDEST SWAP3 POP DUP3 DUP3 LT ISZERO PUSH2 0xAD5 JUMPI PUSH2 0xAD4 PUSH2 0xB2E JUMP JUMPDEST JUMPDEST DUP3 DUP3 SUB SWAP1 POP SWAP3 SWAP2 POP POP JUMP JUMPDEST PUSH1 0x0 PUSH2 0xAEB DUP3 PUSH2 0xB04 JUMP JUMPDEST SWAP1 POP SWAP2 SWAP1 POP JUMP JUMPDEST PUSH1 0x0 PUSH2 0xAFD DUP3 PUSH2 0xB04 JUMP JUMPDEST SWAP1 POP SWAP2 SWAP1 POP JUMP JUMPDEST PUSH1 0x0 PUSH20 0xFFFFFFFFFFFFFFFFFFFFFFFFFFFFFFFFFFFFFFFF DUP3 AND SWAP1 POP SWAP2 SWAP1 POP JUMP JUMPDEST PUSH1 0x0 DUP2 SWAP1 POP SWAP2 SWAP1 POP JUMP JUMPDEST PUSH32 0x4E487B7100000000000000000000000000000000000000000000000000000000 PUSH1 0x0 MSTORE PUSH1 0x11 PUSH1 0x4 MSTORE PUSH1 0x24 PUSH1 0x0 REVERT JUMPDEST PUSH1 0x0 DUP1 REVERT JUMPDEST PUSH2 0xB6B DUP2 PUSH2 0xAE0 JUMP JUMPDEST DUP2 EQ PUSH2 0xB76 JUMPI PUSH1 0x0 DUP1 REVERT JUMPDEST POP JUMP JUMPDEST PUSH2 0xB82 DUP2 PUSH2 0xAF2 JUMP JUMPDEST DUP2 EQ PUSH2 0xB8D JUMPI PUSH1 0x0 DUP1 REVERT JUMPDEST POP JUMP JUMPDEST PUSH2 0xB99 DUP2 PUSH2 0xB24 JUMP JUMPDEST DUP2 EQ PUSH2 0xBA4 JUMPI PUSH1 0x0 DUP1 REVERT JUMPDEST POP JUMP INVALID LOG2 PUSH5 0x6970667358 0x22 SLT KECCAK256 0xD5 0xE4 PUSH14 0x7B4FF8042A0EFF82EE156A7986B8 PUSH6 0x50E708B062EA PUSH15 0x6BCA80EE09A94564736F6C63430008 SMOD STOP CALLER "
				},
				"gasEstimates": {
					"creation": {
						"codeDepositCost": "607400",
						"executionCost": "228864",
						"totalCost": "836264"
					},
					"external": {
						"balCheck()": "infinite",
						"balance()": "2540",
						"balances(address)": "2837",
						"btc1()": "2451",
						"btc2()": "2474",
						"btc3()": "2519",
						"btc4()": "2497",
						"btc5()": "2475",
						"btc6()": "2518",
						"btc7()": "2495",
						"btc8()": "2496",
						"btp()": "2496",
						"getBalance(address)": "3367",
						"getConsumerTariff(uint256)": "infinite",
						"getProsumerTariff(uint256)": "infinite",
						"getnPnCnEV(uint256,uint256,uint256)": "infinite",
						"manager()": "2603",
						"seller()": "2538",
						"send(address,uint256)": "infinite"
					}
				},
				"methodIdentifiers": {
					"balCheck()": "7c134b14",
					"balance()": "b69ef8a8",
					"balances(address)": "27e235e3",
					"btc1()": "c2c496ec",
					"btc2()": "28780a44",
					"btc3()": "20e731a1",
					"btc4()": "103347e7",
					"btc5()": "0c03a1a3",
					"btc6()": "b4ad7fa9",
					"btc7()": "ed2fa5ab",
					"btc8()": "a8bdb68b",
					"btp()": "2c9af64c",
					"getBalance(address)": "f8b2cb4f",
					"getConsumerTariff(uint256)": "721028ec",
					"getProsumerTariff(uint256)": "5c8f6b56",
					"getnPnCnEV(uint256,uint256,uint256)": "f02e48c3",
					"manager()": "481c6a75",
					"seller()": "08551a53",
					"send(address,uint256)": "d0679d34"
				}
			},
			"storageLayout": {
				"storage": [
					{
						"astId": 3,
						"contract": "eth based/truffle/contracts/FLIR_Contract.sol:FLIRContract",
						"label": "owner",
						"offset": 0,
						"slot": "0",
						"type": "t_address"
					},
					{
						"astId": 5,
						"contract": "eth based/truffle/contracts/FLIR_Contract.sol:FLIRContract",
						"label": "manager",
						"offset": 0,
						"slot": "1",
						"type": "t_address"
					},
					{
						"astId": 7,
						"contract": "eth based/truffle/contracts/FLIR_Contract.sol:FLIRContract",
						"label": "seller",
						"offset": 0,
						"slot": "2",
						"type": "t_address"
					},
					{
						"astId": 11,
						"contract": "eth based/truffle/contracts/FLIR_Contract.sol:FLIRContract",
						"label": "balances",
						"offset": 0,
						"slot": "3",
						"type": "t_mapping(t_address,t_uint256)"
					},
					{
						"astId": 19,
						"contract": "eth based/truffle/contracts/FLIR_Contract.sol:FLIRContract",
						"label": "balance",
						"offset": 0,
						"slot": "4",
						"type": "t_uint256"
					},
					{
						"astId": 31,
						"contract": "eth based/truffle/contracts/FLIR_Contract.sol:FLIRContract",
						"label": "btp",
						"offset": 0,
						"slot": "5",
						"type": "t_uint256"
					},
					{
						"astId": 34,
						"contract": "eth based/truffle/contracts/FLIR_Contract.sol:FLIRContract",
						"label": "btc1",
						"offset": 0,
						"slot": "6",
						"type": "t_uint256"
					},
					{
						"astId": 37,
						"contract": "eth based/truffle/contracts/FLIR_Contract.sol:FLIRContract",
						"label": "btc2",
						"offset": 0,
						"slot": "7",
						"type": "t_uint256"
					},
					{
						"astId": 40,
						"contract": "eth based/truffle/contracts/FLIR_Contract.sol:FLIRContract",
						"label": "btc3",
						"offset": 0,
						"slot": "8",
						"type": "t_uint256"
					},
					{
						"astId": 43,
						"contract": "eth based/truffle/contracts/FLIR_Contract.sol:FLIRContract",
						"label": "btc4",
						"offset": 0,
						"slot": "9",
						"type": "t_uint256"
					},
					{
						"astId": 46,
						"contract": "eth based/truffle/contracts/FLIR_Contract.sol:FLIRContract",
						"label": "btc5",
						"offset": 0,
						"slot": "10",
						"type": "t_uint256"
					},
					{
						"astId": 49,
						"contract": "eth based/truffle/contracts/FLIR_Contract.sol:FLIRContract",
						"label": "btc6",
						"offset": 0,
						"slot": "11",
						"type": "t_uint256"
					},
					{
						"astId": 52,
						"contract": "eth based/truffle/contracts/FLIR_Contract.sol:FLIRContract",
						"label": "btc7",
						"offset": 0,
						"slot": "12",
						"type": "t_uint256"
					},
					{
						"astId": 55,
						"contract": "eth based/truffle/contracts/FLIR_Contract.sol:FLIRContract",
						"label": "btc8",
						"offset": 0,
						"slot": "13",
						"type": "t_uint256"
					}
				],
				"types": {
					"t_address": {
						"encoding": "inplace",
						"label": "address",
						"numberOfBytes": "20"
					},
					"t_mapping(t_address,t_uint256)": {
						"encoding": "mapping",
						"key": "t_address",
						"label": "mapping(address => uint256)",
						"numberOfBytes": "32",
						"value": "t_uint256"
					},
					"t_uint256": {
						"encoding": "inplace",
						"label": "uint256",
						"numberOfBytes": "32"
					}
				}
			},
			"userdoc": {
				"kind": "user",
				"methods": {},
				"version": 1
			}
		}
	}
}