{
	"eth based/truffle/contracts/FLIR_Contract.sol": {
		"FLIRContract": {
			"abi": [
				{
					"inputs": [],
					"name": "balCheck",
					"outputs": [],
					"stateMutability": "payable",
					"type": "function"
				},
				{
					"inputs": [],
					"name": "balance",
					"outputs": [
						{
							"internalType": "uint256",
							"name": "",
							"type": "uint256"
						}
					],
					"stateMutability": "view",
					"type": "function"
				},
				{
					"inputs": [],
					"name": "btc1",
					"outputs": [
						{
							"internalType": "uint256",
							"name": "",
							"type": "uint256"
						}
					],
					"stateMutability": "view",
					"type": "function"
				},
				{
					"inputs": [],
					"name": "btc2",
					"outputs": [
						{
							"internalType": "uint256",
							"name": "",
							"type": "uint256"
						}
					],
					"stateMutability": "view",
					"type": "function"
				},
				{
					"inputs": [],
					"name": "btc3",
					"outputs": [
						{
							"internalType": "uint256",
							"name": "",
							"type": "uint256"
						}
					],
					"stateMutability": "view",
					"type": "function"
				},
				{
					"inputs": [],
					"name": "btc4",
					"outputs": [
						{
							"internalType": "uint256",
							"name": "",
							"type": "uint256"
						}
					],
					"stateMutability": "view",
					"type": "function"
				},
				{
					"inputs": [],
					"name": "btc5",
					"outputs": [
						{
							"internalType": "uint256",
							"name": "",
							"type": "uint256"
						}
					],
					"stateMutability": "view",
					"type": "function"
				},
				{
					"inputs": [],
					"name": "btc6",
					"outputs": [
						{
							"internalType": "uint256",
							"name": "",
							"type": "uint256"
						}
					],
					"stateMutability": "view",
					"type": "function"
				},
				{
					"inputs": [],
					"name": "btc7",
					"outputs": [
						{
							"internalType": "uint256",
							"name": "",
							"type": "uint256"
						}
					],
					"stateMutability": "view",
					"type": "function"
				},
				{
					"inputs": [],
					"name": "btc8",
					"outputs": [
						{
							"internalType": "uint256",
							"name": "",
							"type": "uint256"
						}
					],
					"stateMutability": "view",
					"type": "function"
				},
				{
					"inputs": [],
					"name": "btp",
					"outputs": [
						{
							"internalType": "uint256",
							"name": "",
							"type": "uint256"
						}
					],
					"stateMutability": "view",
					"type": "function"
				},
				{
					"inputs": [
						{
							"internalType": "uint256",
							"name": "",
							"type": "uint256"
						}
					],
					"name": "buyers",
					"outputs": [
						{
							"internalType": "address",
							"name": "",
							"type": "address"
						}
					],
					"stateMutability": "view",
					"type": "function"
				},
				{
					"inputs": [
						{
							"internalType": "address",
							"name": "_balanceCheck",
							"type": "address"
						}
					],
					"name": "getBalance",
					"outputs": [
						{
							"internalType": "uint256",
							"name": "bal",
							"type": "uint256"
						}
					],
					"stateMutability": "nonpayable",
					"type": "function"
				},
				{
					"inputs": [
						{
							"internalType": "uint256",
							"name": "Cimp",
							"type": "uint256"
						}
					],
					"name": "getConsumerTariff",
					"outputs": [
						{
							"internalType": "uint256",
							"name": "Tc",
							"type": "uint256"
						}
					],
					"stateMutability": "nonpayable",
					"type": "function"
				},
				{
					"inputs": [
						{
							"internalType": "uint256",
							"name": "Pexp",
							"type": "uint256"
						}
					],
					"name": "getProsumerTariff",
					"outputs": [
						{
							"internalType": "uint256",
							"name": "Tp",
							"type": "uint256"
						}
					],
					"stateMutability": "nonpayable",
					"type": "function"
				},
				{
					"inputs": [],
					"name": "getSellers",
					"outputs": [
						{
							"internalType": "address[10]",
							"name": "",
							"type": "address[10]"
						}
					],
					"stateMutability": "view",
					"type": "function"
				},
				{
					"inputs": [
						{
							"internalType": "uint256",
							"name": "nPget",
							"type": "uint256"
						},
						{
							"internalType": "uint256",
							"name": "nCget",
							"type": "uint256"
						},
						{
							"internalType": "uint256",
							"name": "nEVget",
							"type": "uint256"
						}
					],
					"name": "getnPnCnEV",
					"outputs": [
						{
							"internalType": "uint256",
							"name": "nP",
							"type": "uint256"
						},
						{
							"internalType": "uint256",
							"name": "nC",
							"type": "uint256"
						},
						{
							"internalType": "uint256",
							"name": "nEV",
							"type": "uint256"
						}
					],
					"stateMutability": "nonpayable",
					"type": "function"
				},
				{
					"inputs": [],
					"name": "manager",
					"outputs": [
						{
							"internalType": "address",
							"name": "",
							"type": "address"
						}
					],
					"stateMutability": "view",
					"type": "function"
				},
				{
					"inputs": [],
					"name": "owner",
					"outputs": [
						{
							"internalType": "address",
							"name": "",
							"type": "address"
						}
					],
					"stateMutability": "view",
					"type": "function"
				},
				{
					"inputs": [
						{
							"internalType": "uint256",
							"name": "",
							"type": "uint256"
						}
					],
					"name": "seller",
					"outputs": [
						{
							"internalType": "address",
							"name": "",
							"type": "address"
						}
					],
					"stateMutability": "view",
					"type": "function"
				},
				{
					"inputs": [
						{
							"internalType": "uint256",
							"name": "nPget",
							"type": "uint256"
						}
					],
					"name": "sellerID",
					"outputs": [
						{
							"internalType": "uint256",
							"name": "",
							"type": "uint256"
						}
					],
					"stateMutability": "nonpayable",
					"type": "function"
				},
				{
					"inputs": [
						{
							"internalType": "address payable",
							"name": "_receiver",
							"type": "address"
						},
						{
							"internalType": "uint256",
							"name": "amount",
							"type": "uint256"
						}
					],
					"name": "send",
					"outputs": [],
					"stateMutability": "payable",
					"type": "function"
				}
			],
			"devdoc": {
				"kind": "dev",
				"methods": {},
				"version": 1
			},
			"evm": {
				"assembly": "    /* \"eth based/truffle/contracts/FLIR_Contract.sol\":129:4222  contract FLIRContract{... */\n  mstore(0x40, 0x80)\n    /* \"eth based/truffle/contracts/FLIR_Contract.sol\":780:781  0 */\n  0x00\n    /* \"eth based/truffle/contracts/FLIR_Contract.sol\":758:781  uint public balance = 0 */\n  0x16\n  sstore\n    /* \"eth based/truffle/contracts/FLIR_Contract.sol\":946:947  3 */\n  0x03\n    /* \"eth based/truffle/contracts/FLIR_Contract.sol\":928:947  uint public btp = 3 */\n  0x17\n  sstore\n    /* \"eth based/truffle/contracts/FLIR_Contract.sol\":973:974  3 */\n  0x03\n    /* \"eth based/truffle/contracts/FLIR_Contract.sol\":954:974  uint public btc1 = 3 */\n  0x18\n  sstore\n    /* \"eth based/truffle/contracts/FLIR_Contract.sol\":999:1000  4 */\n  0x04\n    /* \"eth based/truffle/contracts/FLIR_Contract.sol\":980:1000  uint public btc2 = 4 */\n  0x19\n  sstore\n    /* \"eth based/truffle/contracts/FLIR_Contract.sol\":1025:1026  5 */\n  0x05\n    /* \"eth based/truffle/contracts/FLIR_Contract.sol\":1006:1026  uint public btc3 = 5 */\n  0x1a\n  sstore\n    /* \"eth based/truffle/contracts/FLIR_Contract.sol\":1051:1052  6 */\n  0x06\n    /* \"eth based/truffle/contracts/FLIR_Contract.sol\":1032:1052  uint public btc4 = 6 */\n  0x1b\n  sstore\n    /* \"eth based/truffle/contracts/FLIR_Contract.sol\":1077:1078  7 */\n  0x07\n    /* \"eth based/truffle/contracts/FLIR_Contract.sol\":1058:1078  uint public btc5 = 7 */\n  0x1c\n  sstore\n    /* \"eth based/truffle/contracts/FLIR_Contract.sol\":1103:1104  8 */\n  0x08\n    /* \"eth based/truffle/contracts/FLIR_Contract.sol\":1084:1104  uint public btc6 = 8 */\n  0x1d\n  sstore\n    /* \"eth based/truffle/contracts/FLIR_Contract.sol\":1129:1130  9 */\n  0x09\n    /* \"eth based/truffle/contracts/FLIR_Contract.sol\":1110:1130  uint public btc7 = 9 */\n  0x1e\n  sstore\n    /* \"eth based/truffle/contracts/FLIR_Contract.sol\":1155:1157  10 */\n  0x0a\n    /* \"eth based/truffle/contracts/FLIR_Contract.sol\":1136:1157  uint public btc8 = 10 */\n  0x1f\n  sstore\n    /* \"eth based/truffle/contracts/FLIR_Contract.sol\":129:4222  contract FLIRContract{... */\n  callvalue\n  dup1\n  iszero\n  tag_1\n  jumpi\n  0x00\n  dup1\n  revert\ntag_1:\n  pop\n  dataSize(sub_0)\n  dup1\n  dataOffset(sub_0)\n  0x00\n  codecopy\n  0x00\n  return\nstop\n\nsub_0: assembly {\n        /* \"eth based/truffle/contracts/FLIR_Contract.sol\":129:4222  contract FLIRContract{... */\n      mstore(0x40, 0x80)\n      jumpi(tag_1, lt(calldatasize, 0x04))\n      shr(0xe0, calldataload(0x00))\n      dup1\n      0x8da5cb5b\n      gt\n      tag_24\n      jumpi\n      dup1\n      0xc2c496ec\n      gt\n      tag_25\n      jumpi\n      dup1\n      0xc2c496ec\n      eq\n      tag_18\n      jumpi\n      dup1\n      0xd0679d34\n      eq\n      tag_19\n      jumpi\n      dup1\n      0xed2fa5ab\n      eq\n      tag_20\n      jumpi\n      dup1\n      0xf02e48c3\n      eq\n      tag_21\n      jumpi\n      dup1\n      0xf2aa8218\n      eq\n      tag_22\n      jumpi\n      dup1\n      0xf8b2cb4f\n      eq\n      tag_23\n      jumpi\n      jump(tag_1)\n    tag_25:\n      dup1\n      0x8da5cb5b\n      eq\n      tag_13\n      jumpi\n      dup1\n      0xa8bdb68b\n      eq\n      tag_14\n      jumpi\n      dup1\n      0xaacdfe6f\n      eq\n      tag_15\n      jumpi\n      dup1\n      0xb4ad7fa9\n      eq\n      tag_16\n      jumpi\n      dup1\n      0xb69ef8a8\n      eq\n      tag_17\n      jumpi\n      jump(tag_1)\n    tag_24:\n      dup1\n      0x354f58c0\n      gt\n      tag_26\n      jumpi\n      dup1\n      0x354f58c0\n      eq\n      tag_7\n      jumpi\n      dup1\n      0x481c6a75\n      eq\n      tag_8\n      jumpi\n      dup1\n      0x5c8f6b56\n      eq\n      tag_9\n      jumpi\n      dup1\n      0x721028ec\n      eq\n      tag_10\n      jumpi\n      dup1\n      0x7c134b14\n      eq\n      tag_11\n      jumpi\n      dup1\n      0x7ee454cb\n      eq\n      tag_12\n      jumpi\n      jump(tag_1)\n    tag_26:\n      dup1\n      0x0c03a1a3\n      eq\n      tag_2\n      jumpi\n      dup1\n      0x103347e7\n      eq\n      tag_3\n      jumpi\n      dup1\n      0x20e731a1\n      eq\n      tag_4\n      jumpi\n      dup1\n      0x28780a44\n      eq\n      tag_5\n      jumpi\n      dup1\n      0x2c9af64c\n      eq\n      tag_6\n      jumpi\n    tag_1:\n      0x00\n      dup1\n      revert\n        /* \"eth based/truffle/contracts/FLIR_Contract.sol\":1058:1078  uint public btc5 = 7 */\n    tag_2:\n      callvalue\n      dup1\n      iszero\n      tag_27\n      jumpi\n      0x00\n      dup1\n      revert\n    tag_27:\n      pop\n      tag_28\n      tag_29\n      jump\t// in\n    tag_28:\n      mload(0x40)\n      tag_30\n      swap2\n      swap1\n      tag_31\n      jump\t// in\n    tag_30:\n      mload(0x40)\n      dup1\n      swap2\n      sub\n      swap1\n      return\n        /* \"eth based/truffle/contracts/FLIR_Contract.sol\":1032:1052  uint public btc4 = 6 */\n    tag_3:\n      callvalue\n      dup1\n      iszero\n      tag_32\n      jumpi\n      0x00\n      dup1\n      revert\n    tag_32:\n      pop\n      tag_33\n      tag_34\n      jump\t// in\n    tag_33:\n      mload(0x40)\n      tag_35\n      swap2\n      swap1\n      tag_31\n      jump\t// in\n    tag_35:\n      mload(0x40)\n      dup1\n      swap2\n      sub\n      swap1\n      return\n        /* \"eth based/truffle/contracts/FLIR_Contract.sol\":1006:1026  uint public btc3 = 5 */\n    tag_4:\n      callvalue\n      dup1\n      iszero\n      tag_36\n      jumpi\n      0x00\n      dup1\n      revert\n    tag_36:\n      pop\n      tag_37\n      tag_38\n      jump\t// in\n    tag_37:\n      mload(0x40)\n      tag_39\n      swap2\n      swap1\n      tag_31\n      jump\t// in\n    tag_39:\n      mload(0x40)\n      dup1\n      swap2\n      sub\n      swap1\n      return\n        /* \"eth based/truffle/contracts/FLIR_Contract.sol\":980:1000  uint public btc2 = 4 */\n    tag_5:\n      callvalue\n      dup1\n      iszero\n      tag_40\n      jumpi\n      0x00\n      dup1\n      revert\n    tag_40:\n      pop\n      tag_41\n      tag_42\n      jump\t// in\n    tag_41:\n      mload(0x40)\n      tag_43\n      swap2\n      swap1\n      tag_31\n      jump\t// in\n    tag_43:\n      mload(0x40)\n      dup1\n      swap2\n      sub\n      swap1\n      return\n        /* \"eth based/truffle/contracts/FLIR_Contract.sol\":928:947  uint public btp = 3 */\n    tag_6:\n      callvalue\n      dup1\n      iszero\n      tag_44\n      jumpi\n      0x00\n      dup1\n      revert\n    tag_44:\n      pop\n      tag_45\n      tag_46\n      jump\t// in\n    tag_45:\n      mload(0x40)\n      tag_47\n      swap2\n      swap1\n      tag_31\n      jump\t// in\n    tag_47:\n      mload(0x40)\n      dup1\n      swap2\n      sub\n      swap1\n      return\n        /* \"eth based/truffle/contracts/FLIR_Contract.sol\":1164:1325  function sellerID(uint nPget) public returns (uint) {... */\n    tag_7:\n      callvalue\n      dup1\n      iszero\n      tag_48\n      jumpi\n      0x00\n      dup1\n      revert\n    tag_48:\n      pop\n      tag_49\n      0x04\n      dup1\n      calldatasize\n      sub\n      dup2\n      add\n      swap1\n      tag_50\n      swap2\n      swap1\n      tag_51\n      jump\t// in\n    tag_50:\n      tag_52\n      jump\t// in\n    tag_49:\n      mload(0x40)\n      tag_53\n      swap2\n      swap1\n      tag_31\n      jump\t// in\n    tag_53:\n      mload(0x40)\n      dup1\n      swap2\n      sub\n      swap1\n      return\n        /* \"eth based/truffle/contracts/FLIR_Contract.sol\":182:204  address public manager */\n    tag_8:\n      callvalue\n      dup1\n      iszero\n      tag_54\n      jumpi\n      0x00\n      dup1\n      revert\n    tag_54:\n      pop\n      tag_55\n      tag_56\n      jump\t// in\n    tag_55:\n      mload(0x40)\n      tag_57\n      swap2\n      swap1\n      tag_58\n      jump\t// in\n    tag_57:\n      mload(0x40)\n      dup1\n      swap2\n      sub\n      swap1\n      return\n        /* \"eth based/truffle/contracts/FLIR_Contract.sol\":1763:1878  function getProsumerTariff(uint Pexp) public returns (uint Tp){... */\n    tag_9:\n      callvalue\n      dup1\n      iszero\n      tag_59\n      jumpi\n      0x00\n      dup1\n      revert\n    tag_59:\n      pop\n      tag_60\n      0x04\n      dup1\n      calldatasize\n      sub\n      dup2\n      add\n      swap1\n      tag_61\n      swap2\n      swap1\n      tag_51\n      jump\t// in\n    tag_61:\n      tag_62\n      jump\t// in\n    tag_60:\n      mload(0x40)\n      tag_63\n      swap2\n      swap1\n      tag_31\n      jump\t// in\n    tag_63:\n      mload(0x40)\n      dup1\n      swap2\n      sub\n      swap1\n      return\n        /* \"eth based/truffle/contracts/FLIR_Contract.sol\":1884:2874  function getConsumerTariff(uint Cimp) public returns (uint Tc){... */\n    tag_10:\n      callvalue\n      dup1\n      iszero\n      tag_64\n      jumpi\n      0x00\n      dup1\n      revert\n    tag_64:\n      pop\n      tag_65\n      0x04\n      dup1\n      calldatasize\n      sub\n      dup2\n      add\n      swap1\n      tag_66\n      swap2\n      swap1\n      tag_51\n      jump\t// in\n    tag_66:\n      tag_67\n      jump\t// in\n    tag_65:\n      mload(0x40)\n      tag_68\n      swap2\n      swap1\n      tag_31\n      jump\t// in\n    tag_68:\n      mload(0x40)\n      dup1\n      swap2\n      sub\n      swap1\n      return\n        /* \"eth based/truffle/contracts/FLIR_Contract.sol\":3089:3157  function balCheck() public payable {... */\n    tag_11:\n      tag_69\n      tag_70\n      jump\t// in\n    tag_69:\n      stop\n        /* \"eth based/truffle/contracts/FLIR_Contract.sol\":1331:1423  function getSellers() public view returns (address[10] memory){... */\n    tag_12:\n      callvalue\n      dup1\n      iszero\n      tag_71\n      jumpi\n      0x00\n      dup1\n      revert\n    tag_71:\n      pop\n      tag_72\n      tag_73\n      jump\t// in\n    tag_72:\n      mload(0x40)\n      tag_74\n      swap2\n      swap1\n      tag_75\n      jump\t// in\n    tag_74:\n      mload(0x40)\n      dup1\n      swap2\n      sub\n      swap1\n      return\n        /* \"eth based/truffle/contracts/FLIR_Contract.sol\":156:176  address public owner */\n    tag_13:\n      callvalue\n      dup1\n      iszero\n      tag_76\n      jumpi\n      0x00\n      dup1\n      revert\n    tag_76:\n      pop\n      tag_77\n      tag_78\n      jump\t// in\n    tag_77:\n      mload(0x40)\n      tag_79\n      swap2\n      swap1\n      tag_58\n      jump\t// in\n    tag_79:\n      mload(0x40)\n      dup1\n      swap2\n      sub\n      swap1\n      return\n        /* \"eth based/truffle/contracts/FLIR_Contract.sol\":1136:1157  uint public btc8 = 10 */\n    tag_14:\n      callvalue\n      dup1\n      iszero\n      tag_80\n      jumpi\n      0x00\n      dup1\n      revert\n    tag_80:\n      pop\n      tag_81\n      tag_82\n      jump\t// in\n    tag_81:\n      mload(0x40)\n      tag_83\n      swap2\n      swap1\n      tag_31\n      jump\t// in\n    tag_83:\n      mload(0x40)\n      dup1\n      swap2\n      sub\n      swap1\n      return\n        /* \"eth based/truffle/contracts/FLIR_Contract.sol\":210:235  address[10] public seller */\n    tag_15:\n      callvalue\n      dup1\n      iszero\n      tag_84\n      jumpi\n      0x00\n      dup1\n      revert\n    tag_84:\n      pop\n      tag_85\n      0x04\n      dup1\n      calldatasize\n      sub\n      dup2\n      add\n      swap1\n      tag_86\n      swap2\n      swap1\n      tag_51\n      jump\t// in\n    tag_86:\n      tag_87\n      jump\t// in\n    tag_85:\n      mload(0x40)\n      tag_88\n      swap2\n      swap1\n      tag_58\n      jump\t// in\n    tag_88:\n      mload(0x40)\n      dup1\n      swap2\n      sub\n      swap1\n      return\n        /* \"eth based/truffle/contracts/FLIR_Contract.sol\":1084:1104  uint public btc6 = 8 */\n    tag_16:\n      callvalue\n      dup1\n      iszero\n      tag_89\n      jumpi\n      0x00\n      dup1\n      revert\n    tag_89:\n      pop\n      tag_90\n      tag_91\n      jump\t// in\n    tag_90:\n      mload(0x40)\n      tag_92\n      swap2\n      swap1\n      tag_31\n      jump\t// in\n    tag_92:\n      mload(0x40)\n      dup1\n      swap2\n      sub\n      swap1\n      return\n        /* \"eth based/truffle/contracts/FLIR_Contract.sol\":758:781  uint public balance = 0 */\n    tag_17:\n      callvalue\n      dup1\n      iszero\n      tag_93\n      jumpi\n      0x00\n      dup1\n      revert\n    tag_93:\n      pop\n      tag_94\n      tag_95\n      jump\t// in\n    tag_94:\n      mload(0x40)\n      tag_96\n      swap2\n      swap1\n      tag_31\n      jump\t// in\n    tag_96:\n      mload(0x40)\n      dup1\n      swap2\n      sub\n      swap1\n      return\n        /* \"eth based/truffle/contracts/FLIR_Contract.sol\":954:974  uint public btc1 = 3 */\n    tag_18:\n      callvalue\n      dup1\n      iszero\n      tag_97\n      jumpi\n      0x00\n      dup1\n      revert\n    tag_97:\n      pop\n      tag_98\n      tag_99\n      jump\t// in\n    tag_98:\n      mload(0x40)\n      tag_100\n      swap2\n      swap1\n      tag_31\n      jump\t// in\n    tag_100:\n      mload(0x40)\n      dup1\n      swap2\n      sub\n      swap1\n      return\n        /* \"eth based/truffle/contracts/FLIR_Contract.sol\":2880:3083  function send(address payable _receiver, uint amount) payable public {... */\n    tag_19:\n      tag_101\n      0x04\n      dup1\n      calldatasize\n      sub\n      dup2\n      add\n      swap1\n      tag_102\n      swap2\n      swap1\n      tag_103\n      jump\t// in\n    tag_102:\n      tag_104\n      jump\t// in\n    tag_101:\n      stop\n        /* \"eth based/truffle/contracts/FLIR_Contract.sol\":1110:1130  uint public btc7 = 9 */\n    tag_20:\n      callvalue\n      dup1\n      iszero\n      tag_105\n      jumpi\n      0x00\n      dup1\n      revert\n    tag_105:\n      pop\n      tag_106\n      tag_107\n      jump\t// in\n    tag_106:\n      mload(0x40)\n      tag_108\n      swap2\n      swap1\n      tag_31\n      jump\t// in\n    tag_108:\n      mload(0x40)\n      dup1\n      swap2\n      sub\n      swap1\n      return\n        /* \"eth based/truffle/contracts/FLIR_Contract.sol\":1434:1757  function getnPnCnEV(uint nPget, uint nCget,uint nEVget) public... */\n    tag_21:\n      callvalue\n      dup1\n      iszero\n      tag_109\n      jumpi\n      0x00\n      dup1\n      revert\n    tag_109:\n      pop\n      tag_110\n      0x04\n      dup1\n      calldatasize\n      sub\n      dup2\n      add\n      swap1\n      tag_111\n      swap2\n      swap1\n      tag_112\n      jump\t// in\n    tag_111:\n      tag_113\n      jump\t// in\n    tag_110:\n      mload(0x40)\n      tag_114\n      swap4\n      swap3\n      swap2\n      swap1\n      tag_115\n      jump\t// in\n    tag_114:\n      mload(0x40)\n      dup1\n      swap2\n      sub\n      swap1\n      return\n        /* \"eth based/truffle/contracts/FLIR_Contract.sol\":241:266  address[10] public buyers */\n    tag_22:\n      callvalue\n      dup1\n      iszero\n      tag_116\n      jumpi\n      0x00\n      dup1\n      revert\n    tag_116:\n      pop\n      tag_117\n      0x04\n      dup1\n      calldatasize\n      sub\n      dup2\n      add\n      swap1\n      tag_118\n      swap2\n      swap1\n      tag_51\n      jump\t// in\n    tag_118:\n      tag_119\n      jump\t// in\n    tag_117:\n      mload(0x40)\n      tag_120\n      swap2\n      swap1\n      tag_58\n      jump\t// in\n    tag_120:\n      mload(0x40)\n      dup1\n      swap2\n      sub\n      swap1\n      return\n        /* \"eth based/truffle/contracts/FLIR_Contract.sol\":3163:3298  function getBalance(address _balanceCheck) public returns (uint bal){... */\n    tag_23:\n      callvalue\n      dup1\n      iszero\n      tag_121\n      jumpi\n      0x00\n      dup1\n      revert\n    tag_121:\n      pop\n      tag_122\n      0x04\n      dup1\n      calldatasize\n      sub\n      dup2\n      add\n      swap1\n      tag_123\n      swap2\n      swap1\n      tag_124\n      jump\t// in\n    tag_123:\n      tag_125\n      jump\t// in\n    tag_122:\n      mload(0x40)\n      tag_126\n      swap2\n      swap1\n      tag_31\n      jump\t// in\n    tag_126:\n      mload(0x40)\n      dup1\n      swap2\n      sub\n      swap1\n      return\n        /* \"eth based/truffle/contracts/FLIR_Contract.sol\":1058:1078  uint public btc5 = 7 */\n    tag_29:\n      sload(0x1c)\n      dup2\n      jump\t// out\n        /* \"eth based/truffle/contracts/FLIR_Contract.sol\":1032:1052  uint public btc4 = 6 */\n    tag_34:\n      sload(0x1b)\n      dup2\n      jump\t// out\n        /* \"eth based/truffle/contracts/FLIR_Contract.sol\":1006:1026  uint public btc3 = 5 */\n    tag_38:\n      sload(0x1a)\n      dup2\n      jump\t// out\n        /* \"eth based/truffle/contracts/FLIR_Contract.sol\":980:1000  uint public btc2 = 4 */\n    tag_42:\n      sload(0x19)\n      dup2\n      jump\t// out\n        /* \"eth based/truffle/contracts/FLIR_Contract.sol\":928:947  uint public btp = 3 */\n    tag_46:\n      sload(0x17)\n      dup2\n      jump\t// out\n        /* \"eth based/truffle/contracts/FLIR_Contract.sol\":1164:1325  function sellerID(uint nPget) public returns (uint) {... */\n    tag_52:\n        /* \"eth based/truffle/contracts/FLIR_Contract.sol\":1210:1214  uint */\n      0x00\n        /* \"eth based/truffle/contracts/FLIR_Contract.sol\":1243:1244  0 */\n      dup1\n        /* \"eth based/truffle/contracts/FLIR_Contract.sol\":1235:1240  nPget */\n      dup3\n        /* \"eth based/truffle/contracts/FLIR_Contract.sol\":1235:1244  nPget >=0 */\n      lt\n      iszero\n        /* \"eth based/truffle/contracts/FLIR_Contract.sol\":1235:1259  nPget >=0 && nPget <= 10 */\n      dup1\n      iszero\n      tag_128\n      jumpi\n      pop\n        /* \"eth based/truffle/contracts/FLIR_Contract.sol\":1257:1259  10 */\n      0x0a\n        /* \"eth based/truffle/contracts/FLIR_Contract.sol\":1248:1253  nPget */\n      dup3\n        /* \"eth based/truffle/contracts/FLIR_Contract.sol\":1248:1259  nPget <= 10 */\n      gt\n      iszero\n        /* \"eth based/truffle/contracts/FLIR_Contract.sol\":1235:1259  nPget >=0 && nPget <= 10 */\n    tag_128:\n        /* \"eth based/truffle/contracts/FLIR_Contract.sol\":1226:1260  require (nPget >=0 && nPget <= 10) */\n      tag_129\n      jumpi\n      0x00\n      dup1\n      revert\n    tag_129:\n        /* \"eth based/truffle/contracts/FLIR_Contract.sol\":1286:1296  msg.sender */\n      caller\n        /* \"eth based/truffle/contracts/FLIR_Contract.sol\":1270:1276  seller */\n      0x02\n        /* \"eth based/truffle/contracts/FLIR_Contract.sol\":1277:1282  nPget */\n      dup4\n        /* \"eth based/truffle/contracts/FLIR_Contract.sol\":1270:1283  seller[nPget] */\n      0x0a\n      dup2\n      lt\n      tag_130\n      jumpi\n      tag_131\n      tag_132\n      jump\t// in\n    tag_131:\n    tag_130:\n      add\n      0x00\n        /* \"eth based/truffle/contracts/FLIR_Contract.sol\":1270:1296  seller[nPget] = msg.sender */\n      0x0100\n      exp\n      dup2\n      sload\n      dup2\n      0xffffffffffffffffffffffffffffffffffffffff\n      mul\n      not\n      and\n      swap1\n      dup4\n      0xffffffffffffffffffffffffffffffffffffffff\n      and\n      mul\n      or\n      swap1\n      sstore\n      pop\n        /* \"eth based/truffle/contracts/FLIR_Contract.sol\":1313:1318  nPget */\n      dup2\n        /* \"eth based/truffle/contracts/FLIR_Contract.sol\":1306:1318  return nPget */\n      swap1\n      pop\n        /* \"eth based/truffle/contracts/FLIR_Contract.sol\":1164:1325  function sellerID(uint nPget) public returns (uint) {... */\n      swap2\n      swap1\n      pop\n      jump\t// out\n        /* \"eth based/truffle/contracts/FLIR_Contract.sol\":182:204  address public manager */\n    tag_56:\n      0x01\n      0x00\n      swap1\n      sload\n      swap1\n      0x0100\n      exp\n      swap1\n      div\n      0xffffffffffffffffffffffffffffffffffffffff\n      and\n      dup2\n      jump\t// out\n        /* \"eth based/truffle/contracts/FLIR_Contract.sol\":1763:1878  function getProsumerTariff(uint Pexp) public returns (uint Tp){... */\n    tag_62:\n        /* \"eth based/truffle/contracts/FLIR_Contract.sol\":1817:1824  uint Tp */\n      0x00\n        /* \"eth based/truffle/contracts/FLIR_Contract.sol\":1847:1850  btp */\n      sload(0x17)\n        /* \"eth based/truffle/contracts/FLIR_Contract.sol\":1840:1844  Pexp */\n      dup3\n        /* \"eth based/truffle/contracts/FLIR_Contract.sol\":1840:1850  Pexp * btp */\n      tag_135\n      swap2\n      swap1\n      tag_136\n      jump\t// in\n    tag_135:\n        /* \"eth based/truffle/contracts/FLIR_Contract.sol\":1835:1850  Tp = Pexp * btp */\n      swap1\n      pop\n        /* \"eth based/truffle/contracts/FLIR_Contract.sol\":1763:1878  function getProsumerTariff(uint Pexp) public returns (uint Tp){... */\n      swap2\n      swap1\n      pop\n      jump\t// out\n        /* \"eth based/truffle/contracts/FLIR_Contract.sol\":1884:2874  function getConsumerTariff(uint Cimp) public returns (uint Tc){... */\n    tag_67:\n        /* \"eth based/truffle/contracts/FLIR_Contract.sol\":1938:1945  uint Tc */\n      0x00\n        /* \"eth based/truffle/contracts/FLIR_Contract.sol\":1975:1978  251 */\n      0xfb\n        /* \"eth based/truffle/contracts/FLIR_Contract.sol\":1968:1972  Cimp */\n      dup3\n        /* \"eth based/truffle/contracts/FLIR_Contract.sol\":1968:1978  Cimp < 251 */\n      lt\n        /* \"eth based/truffle/contracts/FLIR_Contract.sol\":1965:2847  if(Cimp < 251){... */\n      iszero\n      tag_138\n      jumpi\n        /* \"eth based/truffle/contracts/FLIR_Contract.sol\":2003:2005  51 */\n      0x33\n        /* \"eth based/truffle/contracts/FLIR_Contract.sol\":1996:2000  Cimp */\n      dup3\n        /* \"eth based/truffle/contracts/FLIR_Contract.sol\":1996:2005  Cimp < 51 */\n      lt\n        /* \"eth based/truffle/contracts/FLIR_Contract.sol\":1993:2602  if(Cimp < 51){... */\n      iszero\n      tag_139\n      jumpi\n        /* \"eth based/truffle/contracts/FLIR_Contract.sol\":2036:2040  btc1 */\n      sload(0x18)\n        /* \"eth based/truffle/contracts/FLIR_Contract.sol\":2029:2033  Cimp */\n      dup3\n        /* \"eth based/truffle/contracts/FLIR_Contract.sol\":2029:2040  Cimp * btc1 */\n      tag_140\n      swap2\n      swap1\n      tag_136\n      jump\t// in\n    tag_140:\n        /* \"eth based/truffle/contracts/FLIR_Contract.sol\":2024:2040  Tc = Cimp * btc1 */\n      swap1\n      pop\n        /* \"eth based/truffle/contracts/FLIR_Contract.sol\":1993:2602  if(Cimp < 51){... */\n      jump(tag_141)\n    tag_139:\n        /* \"eth based/truffle/contracts/FLIR_Contract.sol\":2083:2085  50 */\n      0x32\n        /* \"eth based/truffle/contracts/FLIR_Contract.sol\":2076:2080  Cimp */\n      dup3\n        /* \"eth based/truffle/contracts/FLIR_Contract.sol\":2076:2085  Cimp > 50 */\n      gt\n        /* \"eth based/truffle/contracts/FLIR_Contract.sol\":2076:2099  Cimp > 50 && Cimp < 101 */\n      dup1\n      iszero\n      tag_142\n      jumpi\n      pop\n        /* \"eth based/truffle/contracts/FLIR_Contract.sol\":2096:2099  101 */\n      0x65\n        /* \"eth based/truffle/contracts/FLIR_Contract.sol\":2089:2093  Cimp */\n      dup3\n        /* \"eth based/truffle/contracts/FLIR_Contract.sol\":2089:2099  Cimp < 101 */\n      lt\n        /* \"eth based/truffle/contracts/FLIR_Contract.sol\":2076:2099  Cimp > 50 && Cimp < 101 */\n    tag_142:\n        /* \"eth based/truffle/contracts/FLIR_Contract.sol\":2073:2602  if(Cimp > 50 && Cimp < 101){... */\n      iszero\n      tag_143\n      jumpi\n        /* \"eth based/truffle/contracts/FLIR_Contract.sol\":2150:2154  btc2 */\n      sload(0x19)\n        /* \"eth based/truffle/contracts/FLIR_Contract.sol\":2144:2146  50 */\n      0x32\n        /* \"eth based/truffle/contracts/FLIR_Contract.sol\":2139:2143  Cimp */\n      dup4\n        /* \"eth based/truffle/contracts/FLIR_Contract.sol\":2139:2146  Cimp-50 */\n      tag_144\n      swap2\n      swap1\n      tag_145\n      jump\t// in\n    tag_144:\n        /* \"eth based/truffle/contracts/FLIR_Contract.sol\":2138:2154  (Cimp-50) * btc2 */\n      tag_146\n      swap2\n      swap1\n      tag_136\n      jump\t// in\n    tag_146:\n        /* \"eth based/truffle/contracts/FLIR_Contract.sol\":2129:2133  btc1 */\n      sload(0x18)\n        /* \"eth based/truffle/contracts/FLIR_Contract.sol\":2124:2126  50 */\n      0x32\n        /* \"eth based/truffle/contracts/FLIR_Contract.sol\":2124:2133  50 * btc1 */\n      tag_147\n      swap2\n      swap1\n      tag_136\n      jump\t// in\n    tag_147:\n        /* \"eth based/truffle/contracts/FLIR_Contract.sol\":2123:2155  (50 * btc1) + ((Cimp-50) * btc2) */\n      tag_148\n      swap2\n      swap1\n      tag_149\n      jump\t// in\n    tag_148:\n        /* \"eth based/truffle/contracts/FLIR_Contract.sol\":2118:2155  Tc = (50 * btc1) + ((Cimp-50) * btc2) */\n      swap1\n      pop\n        /* \"eth based/truffle/contracts/FLIR_Contract.sol\":2073:2602  if(Cimp > 50 && Cimp < 101){... */\n      jump(tag_150)\n    tag_143:\n        /* \"eth based/truffle/contracts/FLIR_Contract.sol\":2198:2201  100 */\n      0x64\n        /* \"eth based/truffle/contracts/FLIR_Contract.sol\":2191:2195  Cimp */\n      dup3\n        /* \"eth based/truffle/contracts/FLIR_Contract.sol\":2191:2201  Cimp > 100 */\n      gt\n        /* \"eth based/truffle/contracts/FLIR_Contract.sol\":2191:2215  Cimp > 100 && Cimp < 151 */\n      dup1\n      iszero\n      tag_151\n      jumpi\n      pop\n        /* \"eth based/truffle/contracts/FLIR_Contract.sol\":2212:2215  151 */\n      0x97\n        /* \"eth based/truffle/contracts/FLIR_Contract.sol\":2205:2209  Cimp */\n      dup3\n        /* \"eth based/truffle/contracts/FLIR_Contract.sol\":2205:2215  Cimp < 151 */\n      lt\n        /* \"eth based/truffle/contracts/FLIR_Contract.sol\":2191:2215  Cimp > 100 && Cimp < 151 */\n    tag_151:\n        /* \"eth based/truffle/contracts/FLIR_Contract.sol\":2188:2602  if(Cimp > 100 && Cimp < 151){... */\n      iszero\n      tag_152\n      jumpi\n        /* \"eth based/truffle/contracts/FLIR_Contract.sol\":2280:2284  btc3 */\n      sload(0x1a)\n        /* \"eth based/truffle/contracts/FLIR_Contract.sol\":2274:2276  50 */\n      0x32\n        /* \"eth based/truffle/contracts/FLIR_Contract.sol\":2269:2273  Cimp */\n      dup4\n        /* \"eth based/truffle/contracts/FLIR_Contract.sol\":2269:2276  Cimp-50 */\n      tag_153\n      swap2\n      swap1\n      tag_145\n      jump\t// in\n    tag_153:\n        /* \"eth based/truffle/contracts/FLIR_Contract.sol\":2268:2284  (Cimp-50) * btc3 */\n      tag_154\n      swap2\n      swap1\n      tag_136\n      jump\t// in\n    tag_154:\n        /* \"eth based/truffle/contracts/FLIR_Contract.sol\":2259:2263  btc2 */\n      sload(0x19)\n        /* \"eth based/truffle/contracts/FLIR_Contract.sol\":2254:2256  50 */\n      0x32\n        /* \"eth based/truffle/contracts/FLIR_Contract.sol\":2254:2263  50 * btc2 */\n      tag_155\n      swap2\n      swap1\n      tag_136\n      jump\t// in\n    tag_155:\n        /* \"eth based/truffle/contracts/FLIR_Contract.sol\":2245:2249  btc1 */\n      sload(0x18)\n        /* \"eth based/truffle/contracts/FLIR_Contract.sol\":2240:2242  50 */\n      0x32\n        /* \"eth based/truffle/contracts/FLIR_Contract.sol\":2240:2249  50 * btc1 */\n      tag_156\n      swap2\n      swap1\n      tag_136\n      jump\t// in\n    tag_156:\n        /* \"eth based/truffle/contracts/FLIR_Contract.sol\":2239:2264  (50 * btc1) + (50 * btc2) */\n      tag_157\n      swap2\n      swap1\n      tag_149\n      jump\t// in\n    tag_157:\n        /* \"eth based/truffle/contracts/FLIR_Contract.sol\":2239:2285  (50 * btc1) + (50 * btc2) + ((Cimp-50) * btc3) */\n      tag_158\n      swap2\n      swap1\n      tag_149\n      jump\t// in\n    tag_158:\n        /* \"eth based/truffle/contracts/FLIR_Contract.sol\":2234:2285  Tc = (50 * btc1) + (50 * btc2) + ((Cimp-50) * btc3) */\n      swap1\n      pop\n        /* \"eth based/truffle/contracts/FLIR_Contract.sol\":2188:2602  if(Cimp > 100 && Cimp < 151){... */\n      jump(tag_159)\n    tag_152:\n        /* \"eth based/truffle/contracts/FLIR_Contract.sol\":2328:2331  150 */\n      0x96\n        /* \"eth based/truffle/contracts/FLIR_Contract.sol\":2321:2325  Cimp */\n      dup3\n        /* \"eth based/truffle/contracts/FLIR_Contract.sol\":2321:2331  Cimp > 150 */\n      gt\n        /* \"eth based/truffle/contracts/FLIR_Contract.sol\":2321:2345  Cimp > 150 && Cimp < 201 */\n      dup1\n      iszero\n      tag_160\n      jumpi\n      pop\n        /* \"eth based/truffle/contracts/FLIR_Contract.sol\":2342:2345  201 */\n      0xc9\n        /* \"eth based/truffle/contracts/FLIR_Contract.sol\":2335:2339  Cimp */\n      dup3\n        /* \"eth based/truffle/contracts/FLIR_Contract.sol\":2335:2345  Cimp < 201 */\n      lt\n        /* \"eth based/truffle/contracts/FLIR_Contract.sol\":2321:2345  Cimp > 150 && Cimp < 201 */\n    tag_160:\n        /* \"eth based/truffle/contracts/FLIR_Contract.sol\":2318:2602  if(Cimp > 150 && Cimp < 201){... */\n      iszero\n      tag_161\n      jumpi\n        /* \"eth based/truffle/contracts/FLIR_Contract.sol\":2424:2428  btc4 */\n      sload(0x1b)\n        /* \"eth based/truffle/contracts/FLIR_Contract.sol\":2418:2420  50 */\n      0x32\n        /* \"eth based/truffle/contracts/FLIR_Contract.sol\":2413:2417  Cimp */\n      dup4\n        /* \"eth based/truffle/contracts/FLIR_Contract.sol\":2413:2420  Cimp-50 */\n      tag_162\n      swap2\n      swap1\n      tag_145\n      jump\t// in\n    tag_162:\n        /* \"eth based/truffle/contracts/FLIR_Contract.sol\":2412:2428  (Cimp-50) * btc4 */\n      tag_163\n      swap2\n      swap1\n      tag_136\n      jump\t// in\n    tag_163:\n        /* \"eth based/truffle/contracts/FLIR_Contract.sol\":2403:2407  btc3 */\n      sload(0x1a)\n        /* \"eth based/truffle/contracts/FLIR_Contract.sol\":2398:2400  50 */\n      0x32\n        /* \"eth based/truffle/contracts/FLIR_Contract.sol\":2398:2407  50 * btc3 */\n      tag_164\n      swap2\n      swap1\n      tag_136\n      jump\t// in\n    tag_164:\n        /* \"eth based/truffle/contracts/FLIR_Contract.sol\":2389:2393  btc2 */\n      sload(0x19)\n        /* \"eth based/truffle/contracts/FLIR_Contract.sol\":2384:2386  50 */\n      0x32\n        /* \"eth based/truffle/contracts/FLIR_Contract.sol\":2384:2393  50 * btc2 */\n      tag_165\n      swap2\n      swap1\n      tag_136\n      jump\t// in\n    tag_165:\n        /* \"eth based/truffle/contracts/FLIR_Contract.sol\":2375:2379  btc1 */\n      sload(0x18)\n        /* \"eth based/truffle/contracts/FLIR_Contract.sol\":2370:2372  50 */\n      0x32\n        /* \"eth based/truffle/contracts/FLIR_Contract.sol\":2370:2379  50 * btc1 */\n      tag_166\n      swap2\n      swap1\n      tag_136\n      jump\t// in\n    tag_166:\n        /* \"eth based/truffle/contracts/FLIR_Contract.sol\":2369:2394  (50 * btc1) + (50 * btc2) */\n      tag_167\n      swap2\n      swap1\n      tag_149\n      jump\t// in\n    tag_167:\n        /* \"eth based/truffle/contracts/FLIR_Contract.sol\":2369:2408  (50 * btc1) + (50 * btc2) + (50 * btc3) */\n      tag_168\n      swap2\n      swap1\n      tag_149\n      jump\t// in\n    tag_168:\n        /* \"eth based/truffle/contracts/FLIR_Contract.sol\":2369:2429  (50 * btc1) + (50 * btc2) + (50 * btc3) + ((Cimp-50) * btc4) */\n      tag_169\n      swap2\n      swap1\n      tag_149\n      jump\t// in\n    tag_169:\n        /* \"eth based/truffle/contracts/FLIR_Contract.sol\":2364:2429  Tc = (50 * btc1) + (50 * btc2) + (50 * btc3) + ((Cimp-50) * btc4) */\n      swap1\n      pop\n        /* \"eth based/truffle/contracts/FLIR_Contract.sol\":2318:2602  if(Cimp > 150 && Cimp < 201){... */\n      jump(tag_170)\n    tag_161:\n        /* \"eth based/truffle/contracts/FLIR_Contract.sol\":2472:2475  200 */\n      0xc8\n        /* \"eth based/truffle/contracts/FLIR_Contract.sol\":2465:2469  Cimp */\n      dup3\n        /* \"eth based/truffle/contracts/FLIR_Contract.sol\":2465:2475  Cimp > 200 */\n      gt\n        /* \"eth based/truffle/contracts/FLIR_Contract.sol\":2465:2489  Cimp > 200 && Cimp < 251 */\n      dup1\n      iszero\n      tag_171\n      jumpi\n      pop\n        /* \"eth based/truffle/contracts/FLIR_Contract.sol\":2486:2489  251 */\n      0xfb\n        /* \"eth based/truffle/contracts/FLIR_Contract.sol\":2479:2483  Cimp */\n      dup3\n        /* \"eth based/truffle/contracts/FLIR_Contract.sol\":2479:2489  Cimp < 251 */\n      lt\n        /* \"eth based/truffle/contracts/FLIR_Contract.sol\":2465:2489  Cimp > 200 && Cimp < 251 */\n    tag_171:\n        /* \"eth based/truffle/contracts/FLIR_Contract.sol\":2462:2602  if(Cimp > 200 && Cimp < 251){... */\n      iszero\n      tag_172\n      jumpi\n        /* \"eth based/truffle/contracts/FLIR_Contract.sol\":2582:2586  btc5 */\n      sload(0x1c)\n        /* \"eth based/truffle/contracts/FLIR_Contract.sol\":2576:2578  50 */\n      0x32\n        /* \"eth based/truffle/contracts/FLIR_Contract.sol\":2571:2575  Cimp */\n      dup4\n        /* \"eth based/truffle/contracts/FLIR_Contract.sol\":2571:2578  Cimp-50 */\n      tag_173\n      swap2\n      swap1\n      tag_145\n      jump\t// in\n    tag_173:\n        /* \"eth based/truffle/contracts/FLIR_Contract.sol\":2570:2586  (Cimp-50) * btc5 */\n      tag_174\n      swap2\n      swap1\n      tag_136\n      jump\t// in\n    tag_174:\n        /* \"eth based/truffle/contracts/FLIR_Contract.sol\":2561:2565  btc4 */\n      sload(0x1b)\n        /* \"eth based/truffle/contracts/FLIR_Contract.sol\":2556:2558  50 */\n      0x32\n        /* \"eth based/truffle/contracts/FLIR_Contract.sol\":2556:2565  50 * btc4 */\n      tag_175\n      swap2\n      swap1\n      tag_136\n      jump\t// in\n    tag_175:\n        /* \"eth based/truffle/contracts/FLIR_Contract.sol\":2547:2551  btc3 */\n      sload(0x1a)\n        /* \"eth based/truffle/contracts/FLIR_Contract.sol\":2542:2544  50 */\n      0x32\n        /* \"eth based/truffle/contracts/FLIR_Contract.sol\":2542:2551  50 * btc3 */\n      tag_176\n      swap2\n      swap1\n      tag_136\n      jump\t// in\n    tag_176:\n        /* \"eth based/truffle/contracts/FLIR_Contract.sol\":2533:2537  btc2 */\n      sload(0x19)\n        /* \"eth based/truffle/contracts/FLIR_Contract.sol\":2528:2530  50 */\n      0x32\n        /* \"eth based/truffle/contracts/FLIR_Contract.sol\":2528:2537  50 * btc2 */\n      tag_177\n      swap2\n      swap1\n      tag_136\n      jump\t// in\n    tag_177:\n        /* \"eth based/truffle/contracts/FLIR_Contract.sol\":2519:2523  btc1 */\n      sload(0x18)\n        /* \"eth based/truffle/contracts/FLIR_Contract.sol\":2514:2516  50 */\n      0x32\n        /* \"eth based/truffle/contracts/FLIR_Contract.sol\":2514:2523  50 * btc1 */\n      tag_178\n      swap2\n      swap1\n      tag_136\n      jump\t// in\n    tag_178:\n        /* \"eth based/truffle/contracts/FLIR_Contract.sol\":2513:2538  (50 * btc1) + (50 * btc2) */\n      tag_179\n      swap2\n      swap1\n      tag_149\n      jump\t// in\n    tag_179:\n        /* \"eth based/truffle/contracts/FLIR_Contract.sol\":2513:2552  (50 * btc1) + (50 * btc2) + (50 * btc3) */\n      tag_180\n      swap2\n      swap1\n      tag_149\n      jump\t// in\n    tag_180:\n        /* \"eth based/truffle/contracts/FLIR_Contract.sol\":2513:2566  (50 * btc1) + (50 * btc2) + (50 * btc3) + (50 * btc4) */\n      tag_181\n      swap2\n      swap1\n      tag_149\n      jump\t// in\n    tag_181:\n        /* \"eth based/truffle/contracts/FLIR_Contract.sol\":2513:2587  (50 * btc1) + (50 * btc2) + (50 * btc3) + (50 * btc4) + ((Cimp-50) * btc5) */\n      tag_182\n      swap2\n      swap1\n      tag_149\n      jump\t// in\n    tag_182:\n        /* \"eth based/truffle/contracts/FLIR_Contract.sol\":2508:2587  Tc = (50 * btc1) + (50 * btc2) + (50 * btc3) + (50 * btc4) + ((Cimp-50) * btc5) */\n      swap1\n      pop\n        /* \"eth based/truffle/contracts/FLIR_Contract.sol\":2462:2602  if(Cimp > 200 && Cimp < 251){... */\n    tag_172:\n        /* \"eth based/truffle/contracts/FLIR_Contract.sol\":2318:2602  if(Cimp > 150 && Cimp < 201){... */\n    tag_170:\n        /* \"eth based/truffle/contracts/FLIR_Contract.sol\":2188:2602  if(Cimp > 100 && Cimp < 151){... */\n    tag_159:\n        /* \"eth based/truffle/contracts/FLIR_Contract.sol\":2073:2602  if(Cimp > 50 && Cimp < 101){... */\n    tag_150:\n        /* \"eth based/truffle/contracts/FLIR_Contract.sol\":1993:2602  if(Cimp < 51){... */\n    tag_141:\n        /* \"eth based/truffle/contracts/FLIR_Contract.sol\":1965:2847  if(Cimp < 251){... */\n      jump(tag_183)\n    tag_138:\n        /* \"eth based/truffle/contracts/FLIR_Contract.sol\":2636:2639  250 */\n      0xfa\n        /* \"eth based/truffle/contracts/FLIR_Contract.sol\":2629:2633  Cimp */\n      dup3\n        /* \"eth based/truffle/contracts/FLIR_Contract.sol\":2629:2639  Cimp > 250 */\n      gt\n        /* \"eth based/truffle/contracts/FLIR_Contract.sol\":2629:2653  Cimp > 250 && Cimp < 351 */\n      dup1\n      iszero\n      tag_184\n      jumpi\n      pop\n        /* \"eth based/truffle/contracts/FLIR_Contract.sol\":2650:2653  351 */\n      0x015f\n        /* \"eth based/truffle/contracts/FLIR_Contract.sol\":2643:2647  Cimp */\n      dup3\n        /* \"eth based/truffle/contracts/FLIR_Contract.sol\":2643:2653  Cimp < 351 */\n      lt\n        /* \"eth based/truffle/contracts/FLIR_Contract.sol\":2629:2653  Cimp > 250 && Cimp < 351 */\n    tag_184:\n        /* \"eth based/truffle/contracts/FLIR_Contract.sol\":2626:2847  if(Cimp > 250 && Cimp < 351){... */\n      iszero\n      tag_185\n      jumpi\n        /* \"eth based/truffle/contracts/FLIR_Contract.sol\":2680:2684  btc6 */\n      sload(0x1d)\n        /* \"eth based/truffle/contracts/FLIR_Contract.sol\":2673:2677  Cimp */\n      dup3\n        /* \"eth based/truffle/contracts/FLIR_Contract.sol\":2673:2684  Cimp * btc6 */\n      tag_186\n      swap2\n      swap1\n      tag_136\n      jump\t// in\n    tag_186:\n        /* \"eth based/truffle/contracts/FLIR_Contract.sol\":2668:2684  Tc = Cimp * btc6 */\n      swap1\n      pop\n        /* \"eth based/truffle/contracts/FLIR_Contract.sol\":2626:2847  if(Cimp > 250 && Cimp < 351){... */\n      jump(tag_187)\n    tag_185:\n        /* \"eth based/truffle/contracts/FLIR_Contract.sol\":2719:2722  350 */\n      0x015e\n        /* \"eth based/truffle/contracts/FLIR_Contract.sol\":2712:2716  Cimp */\n      dup3\n        /* \"eth based/truffle/contracts/FLIR_Contract.sol\":2712:2722  Cimp > 350 */\n      gt\n        /* \"eth based/truffle/contracts/FLIR_Contract.sol\":2712:2736  Cimp > 350 && Cimp < 451 */\n      dup1\n      iszero\n      tag_188\n      jumpi\n      pop\n        /* \"eth based/truffle/contracts/FLIR_Contract.sol\":2733:2736  451 */\n      0x01c3\n        /* \"eth based/truffle/contracts/FLIR_Contract.sol\":2726:2730  Cimp */\n      dup3\n        /* \"eth based/truffle/contracts/FLIR_Contract.sol\":2726:2736  Cimp < 451 */\n      lt\n        /* \"eth based/truffle/contracts/FLIR_Contract.sol\":2712:2736  Cimp > 350 && Cimp < 451 */\n    tag_188:\n        /* \"eth based/truffle/contracts/FLIR_Contract.sol\":2709:2847  if(Cimp > 350 && Cimp < 451){... */\n      iszero\n      tag_189\n      jumpi\n        /* \"eth based/truffle/contracts/FLIR_Contract.sol\":2763:2767  btc7 */\n      sload(0x1e)\n        /* \"eth based/truffle/contracts/FLIR_Contract.sol\":2756:2760  Cimp */\n      dup3\n        /* \"eth based/truffle/contracts/FLIR_Contract.sol\":2756:2767  Cimp * btc7 */\n      tag_190\n      swap2\n      swap1\n      tag_136\n      jump\t// in\n    tag_190:\n        /* \"eth based/truffle/contracts/FLIR_Contract.sol\":2751:2767  Tc = Cimp * btc7 */\n      swap1\n      pop\n        /* \"eth based/truffle/contracts/FLIR_Contract.sol\":2709:2847  if(Cimp > 350 && Cimp < 451){... */\n      jump(tag_191)\n    tag_189:\n        /* \"eth based/truffle/contracts/FLIR_Contract.sol\":2802:2805  450 */\n      0x01c2\n        /* \"eth based/truffle/contracts/FLIR_Contract.sol\":2795:2799  Cimp */\n      dup3\n        /* \"eth based/truffle/contracts/FLIR_Contract.sol\":2795:2805  Cimp > 450 */\n      gt\n        /* \"eth based/truffle/contracts/FLIR_Contract.sol\":2792:2847  if(Cimp > 450){... */\n      iszero\n      tag_192\n      jumpi\n        /* \"eth based/truffle/contracts/FLIR_Contract.sol\":2832:2836  btc8 */\n      sload(0x1f)\n        /* \"eth based/truffle/contracts/FLIR_Contract.sol\":2825:2829  Cimp */\n      dup3\n        /* \"eth based/truffle/contracts/FLIR_Contract.sol\":2825:2836  Cimp * btc8 */\n      tag_193\n      swap2\n      swap1\n      tag_136\n      jump\t// in\n    tag_193:\n        /* \"eth based/truffle/contracts/FLIR_Contract.sol\":2820:2836  Tc = Cimp * btc8 */\n      swap1\n      pop\n        /* \"eth based/truffle/contracts/FLIR_Contract.sol\":2792:2847  if(Cimp > 450){... */\n    tag_192:\n        /* \"eth based/truffle/contracts/FLIR_Contract.sol\":2709:2847  if(Cimp > 350 && Cimp < 451){... */\n    tag_191:\n        /* \"eth based/truffle/contracts/FLIR_Contract.sol\":2626:2847  if(Cimp > 250 && Cimp < 351){... */\n    tag_187:\n        /* \"eth based/truffle/contracts/FLIR_Contract.sol\":1965:2847  if(Cimp < 251){... */\n    tag_183:\n        /* \"eth based/truffle/contracts/FLIR_Contract.sol\":1884:2874  function getConsumerTariff(uint Cimp) public returns (uint Tc){... */\n      swap2\n      swap1\n      pop\n      jump\t// out\n        /* \"eth based/truffle/contracts/FLIR_Contract.sol\":3089:3157  function balCheck() public payable {... */\n    tag_70:\n        /* \"eth based/truffle/contracts/FLIR_Contract.sol\":3141:3150  msg.value */\n      callvalue\n        /* \"eth based/truffle/contracts/FLIR_Contract.sol\":3130:3137  balance */\n      0x16\n      0x00\n        /* \"eth based/truffle/contracts/FLIR_Contract.sol\":3130:3150  balance += msg.value */\n      dup3\n      dup3\n      sload\n      tag_195\n      swap2\n      swap1\n      tag_149\n      jump\t// in\n    tag_195:\n      swap3\n      pop\n      pop\n      dup2\n      swap1\n      sstore\n      pop\n        /* \"eth based/truffle/contracts/FLIR_Contract.sol\":3089:3157  function balCheck() public payable {... */\n      jump\t// out\n        /* \"eth based/truffle/contracts/FLIR_Contract.sol\":1331:1423  function getSellers() public view returns (address[10] memory){... */\n    tag_73:\n        /* \"eth based/truffle/contracts/FLIR_Contract.sol\":1374:1392  address[10] memory */\n      tag_196\n      tag_197\n      jump\t// in\n    tag_196:\n        /* \"eth based/truffle/contracts/FLIR_Contract.sol\":1410:1416  seller */\n      0x02\n        /* \"eth based/truffle/contracts/FLIR_Contract.sol\":1403:1416  return seller */\n      0x0a\n      dup1\n      0x20\n      mul\n      mload(0x40)\n      swap1\n      dup2\n      add\n      0x40\n      mstore\n      dup1\n      swap3\n      swap2\n      swap1\n      dup3\n      0x0a\n      dup1\n      iszero\n      tag_199\n      jumpi\n      0x20\n      mul\n      dup3\n      add\n      swap2\n    tag_200:\n      dup2\n      0x00\n      swap1\n      sload\n      swap1\n      0x0100\n      exp\n      swap1\n      div\n      0xffffffffffffffffffffffffffffffffffffffff\n      and\n      0xffffffffffffffffffffffffffffffffffffffff\n      and\n      dup2\n      mstore\n      0x20\n      add\n      swap1\n      0x01\n      add\n      swap1\n      dup1\n      dup4\n      gt\n      tag_200\n      jumpi\n    tag_199:\n      pop\n      pop\n      pop\n      pop\n      pop\n      swap1\n      pop\n        /* \"eth based/truffle/contracts/FLIR_Contract.sol\":1331:1423  function getSellers() public view returns (address[10] memory){... */\n      swap1\n      jump\t// out\n        /* \"eth based/truffle/contracts/FLIR_Contract.sol\":156:176  address public owner */\n    tag_78:\n      0x00\n      dup1\n      sload\n      swap1\n      0x0100\n      exp\n      swap1\n      div\n      0xffffffffffffffffffffffffffffffffffffffff\n      and\n      dup2\n      jump\t// out\n        /* \"eth based/truffle/contracts/FLIR_Contract.sol\":1136:1157  uint public btc8 = 10 */\n    tag_82:\n      sload(0x1f)\n      dup2\n      jump\t// out\n        /* \"eth based/truffle/contracts/FLIR_Contract.sol\":210:235  address[10] public seller */\n    tag_87:\n      0x02\n      dup2\n      0x0a\n      dup2\n      lt\n      tag_201\n      jumpi\n      0x00\n      dup1\n      revert\n    tag_201:\n      add\n      0x00\n      swap2\n      pop\n      sload\n      swap1\n      0x0100\n      exp\n      swap1\n      div\n      0xffffffffffffffffffffffffffffffffffffffff\n      and\n      dup2\n      jump\t// out\n        /* \"eth based/truffle/contracts/FLIR_Contract.sol\":1084:1104  uint public btc6 = 8 */\n    tag_91:\n      sload(0x1d)\n      dup2\n      jump\t// out\n        /* \"eth based/truffle/contracts/FLIR_Contract.sol\":758:781  uint public balance = 0 */\n    tag_95:\n      sload(0x16)\n      dup2\n      jump\t// out\n        /* \"eth based/truffle/contracts/FLIR_Contract.sol\":954:974  uint public btc1 = 3 */\n    tag_99:\n      sload(0x18)\n      dup2\n      jump\t// out\n        /* \"eth based/truffle/contracts/FLIR_Contract.sol\":2880:3083  function send(address payable _receiver, uint amount) payable public {... */\n    tag_104:\n        /* \"eth based/truffle/contracts/FLIR_Contract.sol\":3033:3039  amount */\n      dup1\n        /* \"eth based/truffle/contracts/FLIR_Contract.sol\":3020:3029  msg.value */\n      callvalue\n        /* \"eth based/truffle/contracts/FLIR_Contract.sol\":3020:3039  msg.value >= amount */\n      lt\n      iszero\n        /* \"eth based/truffle/contracts/FLIR_Contract.sol\":3012:3040  require(msg.value >= amount) */\n      tag_204\n      jumpi\n      0x00\n      dup1\n      revert\n    tag_204:\n        /* \"eth based/truffle/contracts/FLIR_Contract.sol\":3050:3059  _receiver */\n      dup2\n        /* \"eth based/truffle/contracts/FLIR_Contract.sol\":3050:3068  _receiver.transfer */\n      0xffffffffffffffffffffffffffffffffffffffff\n      and\n        /* \"eth based/truffle/contracts/FLIR_Contract.sol\":3050:3076  _receiver.transfer(amount) */\n      0x08fc\n        /* \"eth based/truffle/contracts/FLIR_Contract.sol\":3069:3075  amount */\n      dup3\n        /* \"eth based/truffle/contracts/FLIR_Contract.sol\":3050:3076  _receiver.transfer(amount) */\n      swap1\n      dup2\n      iszero\n      mul\n      swap1\n      mload(0x40)\n      0x00\n      mload(0x40)\n      dup1\n      dup4\n      sub\n      dup2\n      dup6\n      dup9\n      dup9\n      call\n      swap4\n      pop\n      pop\n      pop\n      pop\n      iszero\n      dup1\n      iszero\n      tag_206\n      jumpi\n      returndatasize\n      0x00\n      dup1\n      returndatacopy\n      revert(0x00, returndatasize)\n    tag_206:\n      pop\n        /* \"eth based/truffle/contracts/FLIR_Contract.sol\":2880:3083  function send(address payable _receiver, uint amount) payable public {... */\n      pop\n      pop\n      jump\t// out\n        /* \"eth based/truffle/contracts/FLIR_Contract.sol\":1110:1130  uint public btc7 = 9 */\n    tag_107:\n      sload(0x1e)\n      dup2\n      jump\t// out\n        /* \"eth based/truffle/contracts/FLIR_Contract.sol\":1434:1757  function getnPnCnEV(uint nPget, uint nCget,uint nEVget) public... */\n    tag_113:\n        /* \"eth based/truffle/contracts/FLIR_Contract.sol\":1510:1517  uint nP */\n      0x00\n        /* \"eth based/truffle/contracts/FLIR_Contract.sol\":1518:1525  uint nC */\n      dup1\n        /* \"eth based/truffle/contracts/FLIR_Contract.sol\":1526:1534  uint nEV */\n      0x00\n        /* \"eth based/truffle/contracts/FLIR_Contract.sol\":1559:1564  nPget */\n      dup6\n        /* \"eth based/truffle/contracts/FLIR_Contract.sol\":1554:1564  nP = nPget */\n      swap3\n      pop\n        /* \"eth based/truffle/contracts/FLIR_Contract.sol\":1579:1584  nCget */\n      dup5\n        /* \"eth based/truffle/contracts/FLIR_Contract.sol\":1574:1584  nC = nCget */\n      swap2\n      pop\n        /* \"eth based/truffle/contracts/FLIR_Contract.sol\":1600:1606  nEVget */\n      dup4\n        /* \"eth based/truffle/contracts/FLIR_Contract.sol\":1594:1606  nEV = nEVget */\n      swap1\n      pop\n        /* \"eth based/truffle/contracts/FLIR_Contract.sol\":1434:1757  function getnPnCnEV(uint nPget, uint nCget,uint nEVget) public... */\n      swap4\n      pop\n      swap4\n      pop\n      swap4\n      swap1\n      pop\n      jump\t// out\n        /* \"eth based/truffle/contracts/FLIR_Contract.sol\":241:266  address[10] public buyers */\n    tag_119:\n      0x0c\n      dup2\n      0x0a\n      dup2\n      lt\n      tag_208\n      jumpi\n      0x00\n      dup1\n      revert\n    tag_208:\n      add\n      0x00\n      swap2\n      pop\n      sload\n      swap1\n      0x0100\n      exp\n      swap1\n      div\n      0xffffffffffffffffffffffffffffffffffffffff\n      and\n      dup2\n      jump\t// out\n        /* \"eth based/truffle/contracts/FLIR_Contract.sol\":3163:3298  function getBalance(address _balanceCheck) public returns (uint bal){... */\n    tag_125:\n        /* \"eth based/truffle/contracts/FLIR_Contract.sol\":3222:3230  uint bal */\n      0x00\n        /* \"eth based/truffle/contracts/FLIR_Contract.sol\":3247:3260  _balanceCheck */\n      dup2\n        /* \"eth based/truffle/contracts/FLIR_Contract.sol\":3247:3268  _balanceCheck.balance */\n      0xffffffffffffffffffffffffffffffffffffffff\n      and\n      balance\n        /* \"eth based/truffle/contracts/FLIR_Contract.sol\":3241:3268  bal = _balanceCheck.balance */\n      swap1\n      pop\n        /* \"eth based/truffle/contracts/FLIR_Contract.sol\":3163:3298  function getBalance(address _balanceCheck) public returns (uint bal){... */\n      swap2\n      swap1\n      pop\n      jump\t// out\n    tag_197:\n      mload(0x40)\n      dup1\n      0x0140\n      add\n      0x40\n      mstore\n      dup1\n      0x0a\n      swap1\n      0x20\n      dup3\n      mul\n      dup1\n      calldatasize\n      dup4\n      calldatacopy\n      dup1\n      dup3\n      add\n      swap2\n      pop\n      pop\n      swap1\n      pop\n      pop\n      swap1\n      jump\t// out\n        /* \"#utility.yul\":7:146   */\n    tag_212:\n        /* \"#utility.yul\":53:58   */\n      0x00\n        /* \"#utility.yul\":91:97   */\n      dup2\n        /* \"#utility.yul\":78:98   */\n      calldataload\n        /* \"#utility.yul\":69:98   */\n      swap1\n      pop\n        /* \"#utility.yul\":107:140   */\n      tag_214\n        /* \"#utility.yul\":134:139   */\n      dup2\n        /* \"#utility.yul\":107:140   */\n      tag_215\n      jump\t// in\n    tag_214:\n        /* \"#utility.yul\":7:146   */\n      swap3\n      swap2\n      pop\n      pop\n      jump\t// out\n        /* \"#utility.yul\":152:307   */\n    tag_216:\n        /* \"#utility.yul\":206:211   */\n      0x00\n        /* \"#utility.yul\":244:250   */\n      dup2\n        /* \"#utility.yul\":231:251   */\n      calldataload\n        /* \"#utility.yul\":222:251   */\n      swap1\n      pop\n        /* \"#utility.yul\":260:301   */\n      tag_218\n        /* \"#utility.yul\":295:300   */\n      dup2\n        /* \"#utility.yul\":260:301   */\n      tag_219\n      jump\t// in\n    tag_218:\n        /* \"#utility.yul\":152:307   */\n      swap3\n      swap2\n      pop\n      pop\n      jump\t// out\n        /* \"#utility.yul\":313:452   */\n    tag_220:\n        /* \"#utility.yul\":359:364   */\n      0x00\n        /* \"#utility.yul\":397:403   */\n      dup2\n        /* \"#utility.yul\":384:404   */\n      calldataload\n        /* \"#utility.yul\":375:404   */\n      swap1\n      pop\n        /* \"#utility.yul\":413:446   */\n      tag_222\n        /* \"#utility.yul\":440:445   */\n      dup2\n        /* \"#utility.yul\":413:446   */\n      tag_223\n      jump\t// in\n    tag_222:\n        /* \"#utility.yul\":313:452   */\n      swap3\n      swap2\n      pop\n      pop\n      jump\t// out\n        /* \"#utility.yul\":458:787   */\n    tag_124:\n        /* \"#utility.yul\":517:523   */\n      0x00\n        /* \"#utility.yul\":566:568   */\n      0x20\n        /* \"#utility.yul\":554:563   */\n      dup3\n        /* \"#utility.yul\":545:552   */\n      dup5\n        /* \"#utility.yul\":541:564   */\n      sub\n        /* \"#utility.yul\":537:569   */\n      slt\n        /* \"#utility.yul\":534:653   */\n      iszero\n      tag_225\n      jumpi\n        /* \"#utility.yul\":572:651   */\n      tag_226\n      tag_227\n      jump\t// in\n    tag_226:\n        /* \"#utility.yul\":534:653   */\n    tag_225:\n        /* \"#utility.yul\":692:693   */\n      0x00\n        /* \"#utility.yul\":717:770   */\n      tag_228\n        /* \"#utility.yul\":762:769   */\n      dup5\n        /* \"#utility.yul\":753:759   */\n      dup3\n        /* \"#utility.yul\":742:751   */\n      dup6\n        /* \"#utility.yul\":738:760   */\n      add\n        /* \"#utility.yul\":717:770   */\n      tag_212\n      jump\t// in\n    tag_228:\n        /* \"#utility.yul\":707:770   */\n      swap2\n      pop\n        /* \"#utility.yul\":663:780   */\n      pop\n        /* \"#utility.yul\":458:787   */\n      swap3\n      swap2\n      pop\n      pop\n      jump\t// out\n        /* \"#utility.yul\":793:1283   */\n    tag_103:\n        /* \"#utility.yul\":869:875   */\n      0x00\n        /* \"#utility.yul\":877:883   */\n      dup1\n        /* \"#utility.yul\":926:928   */\n      0x40\n        /* \"#utility.yul\":914:923   */\n      dup4\n        /* \"#utility.yul\":905:912   */\n      dup6\n        /* \"#utility.yul\":901:924   */\n      sub\n        /* \"#utility.yul\":897:929   */\n      slt\n        /* \"#utility.yul\":894:1013   */\n      iszero\n      tag_230\n      jumpi\n        /* \"#utility.yul\":932:1011   */\n      tag_231\n      tag_227\n      jump\t// in\n    tag_231:\n        /* \"#utility.yul\":894:1013   */\n    tag_230:\n        /* \"#utility.yul\":1052:1053   */\n      0x00\n        /* \"#utility.yul\":1077:1138   */\n      tag_232\n        /* \"#utility.yul\":1130:1137   */\n      dup6\n        /* \"#utility.yul\":1121:1127   */\n      dup3\n        /* \"#utility.yul\":1110:1119   */\n      dup7\n        /* \"#utility.yul\":1106:1128   */\n      add\n        /* \"#utility.yul\":1077:1138   */\n      tag_216\n      jump\t// in\n    tag_232:\n        /* \"#utility.yul\":1067:1138   */\n      swap3\n      pop\n        /* \"#utility.yul\":1023:1148   */\n      pop\n        /* \"#utility.yul\":1187:1189   */\n      0x20\n        /* \"#utility.yul\":1213:1266   */\n      tag_233\n        /* \"#utility.yul\":1258:1265   */\n      dup6\n        /* \"#utility.yul\":1249:1255   */\n      dup3\n        /* \"#utility.yul\":1238:1247   */\n      dup7\n        /* \"#utility.yul\":1234:1256   */\n      add\n        /* \"#utility.yul\":1213:1266   */\n      tag_220\n      jump\t// in\n    tag_233:\n        /* \"#utility.yul\":1203:1266   */\n      swap2\n      pop\n        /* \"#utility.yul\":1158:1276   */\n      pop\n        /* \"#utility.yul\":793:1283   */\n      swap3\n      pop\n      swap3\n      swap1\n      pop\n      jump\t// out\n        /* \"#utility.yul\":1289:1618   */\n    tag_51:\n        /* \"#utility.yul\":1348:1354   */\n      0x00\n        /* \"#utility.yul\":1397:1399   */\n      0x20\n        /* \"#utility.yul\":1385:1394   */\n      dup3\n        /* \"#utility.yul\":1376:1383   */\n      dup5\n        /* \"#utility.yul\":1372:1395   */\n      sub\n        /* \"#utility.yul\":1368:1400   */\n      slt\n        /* \"#utility.yul\":1365:1484   */\n      iszero\n      tag_235\n      jumpi\n        /* \"#utility.yul\":1403:1482   */\n      tag_236\n      tag_227\n      jump\t// in\n    tag_236:\n        /* \"#utility.yul\":1365:1484   */\n    tag_235:\n        /* \"#utility.yul\":1523:1524   */\n      0x00\n        /* \"#utility.yul\":1548:1601   */\n      tag_237\n        /* \"#utility.yul\":1593:1600   */\n      dup5\n        /* \"#utility.yul\":1584:1590   */\n      dup3\n        /* \"#utility.yul\":1573:1582   */\n      dup6\n        /* \"#utility.yul\":1569:1591   */\n      add\n        /* \"#utility.yul\":1548:1601   */\n      tag_220\n      jump\t// in\n    tag_237:\n        /* \"#utility.yul\":1538:1601   */\n      swap2\n      pop\n        /* \"#utility.yul\":1494:1611   */\n      pop\n        /* \"#utility.yul\":1289:1618   */\n      swap3\n      swap2\n      pop\n      pop\n      jump\t// out\n        /* \"#utility.yul\":1624:2243   */\n    tag_112:\n        /* \"#utility.yul\":1701:1707   */\n      0x00\n        /* \"#utility.yul\":1709:1715   */\n      dup1\n        /* \"#utility.yul\":1717:1723   */\n      0x00\n        /* \"#utility.yul\":1766:1768   */\n      0x60\n        /* \"#utility.yul\":1754:1763   */\n      dup5\n        /* \"#utility.yul\":1745:1752   */\n      dup7\n        /* \"#utility.yul\":1741:1764   */\n      sub\n        /* \"#utility.yul\":1737:1769   */\n      slt\n        /* \"#utility.yul\":1734:1853   */\n      iszero\n      tag_239\n      jumpi\n        /* \"#utility.yul\":1772:1851   */\n      tag_240\n      tag_227\n      jump\t// in\n    tag_240:\n        /* \"#utility.yul\":1734:1853   */\n    tag_239:\n        /* \"#utility.yul\":1892:1893   */\n      0x00\n        /* \"#utility.yul\":1917:1970   */\n      tag_241\n        /* \"#utility.yul\":1962:1969   */\n      dup7\n        /* \"#utility.yul\":1953:1959   */\n      dup3\n        /* \"#utility.yul\":1942:1951   */\n      dup8\n        /* \"#utility.yul\":1938:1960   */\n      add\n        /* \"#utility.yul\":1917:1970   */\n      tag_220\n      jump\t// in\n    tag_241:\n        /* \"#utility.yul\":1907:1970   */\n      swap4\n      pop\n        /* \"#utility.yul\":1863:1980   */\n      pop\n        /* \"#utility.yul\":2019:2021   */\n      0x20\n        /* \"#utility.yul\":2045:2098   */\n      tag_242\n        /* \"#utility.yul\":2090:2097   */\n      dup7\n        /* \"#utility.yul\":2081:2087   */\n      dup3\n        /* \"#utility.yul\":2070:2079   */\n      dup8\n        /* \"#utility.yul\":2066:2088   */\n      add\n        /* \"#utility.yul\":2045:2098   */\n      tag_220\n      jump\t// in\n    tag_242:\n        /* \"#utility.yul\":2035:2098   */\n      swap3\n      pop\n        /* \"#utility.yul\":1990:2108   */\n      pop\n        /* \"#utility.yul\":2147:2149   */\n      0x40\n        /* \"#utility.yul\":2173:2226   */\n      tag_243\n        /* \"#utility.yul\":2218:2225   */\n      dup7\n        /* \"#utility.yul\":2209:2215   */\n      dup3\n        /* \"#utility.yul\":2198:2207   */\n      dup8\n        /* \"#utility.yul\":2194:2216   */\n      add\n        /* \"#utility.yul\":2173:2226   */\n      tag_220\n      jump\t// in\n    tag_243:\n        /* \"#utility.yul\":2163:2226   */\n      swap2\n      pop\n        /* \"#utility.yul\":2118:2236   */\n      pop\n        /* \"#utility.yul\":1624:2243   */\n      swap3\n      pop\n      swap3\n      pop\n      swap3\n      jump\t// out\n        /* \"#utility.yul\":2249:2428   */\n    tag_244:\n        /* \"#utility.yul\":2318:2328   */\n      0x00\n        /* \"#utility.yul\":2339:2385   */\n      tag_246\n        /* \"#utility.yul\":2381:2384   */\n      dup4\n        /* \"#utility.yul\":2373:2379   */\n      dup4\n        /* \"#utility.yul\":2339:2385   */\n      tag_247\n      jump\t// in\n    tag_246:\n        /* \"#utility.yul\":2417:2421   */\n      0x20\n        /* \"#utility.yul\":2412:2415   */\n      dup4\n        /* \"#utility.yul\":2408:2422   */\n      add\n        /* \"#utility.yul\":2394:2422   */\n      swap1\n      pop\n        /* \"#utility.yul\":2249:2428   */\n      swap3\n      swap2\n      pop\n      pop\n      jump\t// out\n        /* \"#utility.yul\":2434:2542   */\n    tag_247:\n        /* \"#utility.yul\":2511:2535   */\n      tag_249\n        /* \"#utility.yul\":2529:2534   */\n      dup2\n        /* \"#utility.yul\":2511:2535   */\n      tag_250\n      jump\t// in\n    tag_249:\n        /* \"#utility.yul\":2506:2509   */\n      dup3\n        /* \"#utility.yul\":2499:2536   */\n      mstore\n        /* \"#utility.yul\":2434:2542   */\n      pop\n      pop\n      jump\t// out\n        /* \"#utility.yul\":2548:2666   */\n    tag_251:\n        /* \"#utility.yul\":2635:2659   */\n      tag_253\n        /* \"#utility.yul\":2653:2658   */\n      dup2\n        /* \"#utility.yul\":2635:2659   */\n      tag_250\n      jump\t// in\n    tag_253:\n        /* \"#utility.yul\":2630:2633   */\n      dup3\n        /* \"#utility.yul\":2623:2660   */\n      mstore\n        /* \"#utility.yul\":2548:2666   */\n      pop\n      pop\n      jump\t// out\n        /* \"#utility.yul\":2706:3406   */\n    tag_254:\n        /* \"#utility.yul\":2844:2897   */\n      tag_256\n        /* \"#utility.yul\":2891:2896   */\n      dup2\n        /* \"#utility.yul\":2844:2897   */\n      tag_257\n      jump\t// in\n    tag_256:\n        /* \"#utility.yul\":2913:2998   */\n      tag_258\n        /* \"#utility.yul\":2991:2997   */\n      dup2\n        /* \"#utility.yul\":2986:2989   */\n      dup5\n        /* \"#utility.yul\":2913:2998   */\n      tag_259\n      jump\t// in\n    tag_258:\n        /* \"#utility.yul\":2906:2998   */\n      swap3\n      pop\n        /* \"#utility.yul\":3022:3077   */\n      tag_260\n        /* \"#utility.yul\":3071:3076   */\n      dup3\n        /* \"#utility.yul\":3022:3077   */\n      tag_261\n      jump\t// in\n    tag_260:\n        /* \"#utility.yul\":3100:3107   */\n      dup1\n        /* \"#utility.yul\":3131:3132   */\n      0x00\n        /* \"#utility.yul\":3116:3399   */\n    tag_262:\n        /* \"#utility.yul\":3141:3147   */\n      dup4\n        /* \"#utility.yul\":3138:3139   */\n      dup2\n        /* \"#utility.yul\":3135:3148   */\n      lt\n        /* \"#utility.yul\":3116:3399   */\n      iszero\n      tag_264\n      jumpi\n        /* \"#utility.yul\":3217:3223   */\n      dup2\n        /* \"#utility.yul\":3211:3224   */\n      mload\n        /* \"#utility.yul\":3244:3307   */\n      tag_265\n        /* \"#utility.yul\":3303:3306   */\n      dup8\n        /* \"#utility.yul\":3288:3301   */\n      dup3\n        /* \"#utility.yul\":3244:3307   */\n      tag_244\n      jump\t// in\n    tag_265:\n        /* \"#utility.yul\":3237:3307   */\n      swap7\n      pop\n        /* \"#utility.yul\":3330:3389   */\n      tag_266\n        /* \"#utility.yul\":3382:3388   */\n      dup4\n        /* \"#utility.yul\":3330:3389   */\n      tag_267\n      jump\t// in\n    tag_266:\n        /* \"#utility.yul\":3320:3389   */\n      swap3\n      pop\n        /* \"#utility.yul\":3176:3399   */\n      pop\n        /* \"#utility.yul\":3163:3164   */\n      0x01\n        /* \"#utility.yul\":3160:3161   */\n      dup2\n        /* \"#utility.yul\":3156:3165   */\n      add\n        /* \"#utility.yul\":3151:3165   */\n      swap1\n      pop\n        /* \"#utility.yul\":3116:3399   */\n      jump(tag_262)\n    tag_264:\n        /* \"#utility.yul\":3120:3134   */\n      pop\n        /* \"#utility.yul\":2820:3406   */\n      pop\n      pop\n      pop\n        /* \"#utility.yul\":2706:3406   */\n      pop\n      pop\n      jump\t// out\n        /* \"#utility.yul\":3412:3530   */\n    tag_268:\n        /* \"#utility.yul\":3499:3523   */\n      tag_270\n        /* \"#utility.yul\":3517:3522   */\n      dup2\n        /* \"#utility.yul\":3499:3523   */\n      tag_271\n      jump\t// in\n    tag_270:\n        /* \"#utility.yul\":3494:3497   */\n      dup3\n        /* \"#utility.yul\":3487:3524   */\n      mstore\n        /* \"#utility.yul\":3412:3530   */\n      pop\n      pop\n      jump\t// out\n        /* \"#utility.yul\":3536:3758   */\n    tag_58:\n        /* \"#utility.yul\":3629:3633   */\n      0x00\n        /* \"#utility.yul\":3667:3669   */\n      0x20\n        /* \"#utility.yul\":3656:3665   */\n      dup3\n        /* \"#utility.yul\":3652:3670   */\n      add\n        /* \"#utility.yul\":3644:3670   */\n      swap1\n      pop\n        /* \"#utility.yul\":3680:3751   */\n      tag_273\n        /* \"#utility.yul\":3748:3749   */\n      0x00\n        /* \"#utility.yul\":3737:3746   */\n      dup4\n        /* \"#utility.yul\":3733:3750   */\n      add\n        /* \"#utility.yul\":3724:3730   */\n      dup5\n        /* \"#utility.yul\":3680:3751   */\n      tag_251\n      jump\t// in\n    tag_273:\n        /* \"#utility.yul\":3536:3758   */\n      swap3\n      swap2\n      pop\n      pop\n      jump\t// out\n        /* \"#utility.yul\":3764:4083   */\n    tag_75:\n        /* \"#utility.yul\":3905:3909   */\n      0x00\n        /* \"#utility.yul\":3943:3946   */\n      0x0140\n        /* \"#utility.yul\":3932:3941   */\n      dup3\n        /* \"#utility.yul\":3928:3947   */\n      add\n        /* \"#utility.yul\":3920:3947   */\n      swap1\n      pop\n        /* \"#utility.yul\":3957:4076   */\n      tag_275\n        /* \"#utility.yul\":4073:4074   */\n      0x00\n        /* \"#utility.yul\":4062:4071   */\n      dup4\n        /* \"#utility.yul\":4058:4075   */\n      add\n        /* \"#utility.yul\":4049:4055   */\n      dup5\n        /* \"#utility.yul\":3957:4076   */\n      tag_254\n      jump\t// in\n    tag_275:\n        /* \"#utility.yul\":3764:4083   */\n      swap3\n      swap2\n      pop\n      pop\n      jump\t// out\n        /* \"#utility.yul\":4089:4311   */\n    tag_31:\n        /* \"#utility.yul\":4182:4186   */\n      0x00\n        /* \"#utility.yul\":4220:4222   */\n      0x20\n        /* \"#utility.yul\":4209:4218   */\n      dup3\n        /* \"#utility.yul\":4205:4223   */\n      add\n        /* \"#utility.yul\":4197:4223   */\n      swap1\n      pop\n        /* \"#utility.yul\":4233:4304   */\n      tag_277\n        /* \"#utility.yul\":4301:4302   */\n      0x00\n        /* \"#utility.yul\":4290:4299   */\n      dup4\n        /* \"#utility.yul\":4286:4303   */\n      add\n        /* \"#utility.yul\":4277:4283   */\n      dup5\n        /* \"#utility.yul\":4233:4304   */\n      tag_268\n      jump\t// in\n    tag_277:\n        /* \"#utility.yul\":4089:4311   */\n      swap3\n      swap2\n      pop\n      pop\n      jump\t// out\n        /* \"#utility.yul\":4317:4759   */\n    tag_115:\n        /* \"#utility.yul\":4466:4470   */\n      0x00\n        /* \"#utility.yul\":4504:4506   */\n      0x60\n        /* \"#utility.yul\":4493:4502   */\n      dup3\n        /* \"#utility.yul\":4489:4507   */\n      add\n        /* \"#utility.yul\":4481:4507   */\n      swap1\n      pop\n        /* \"#utility.yul\":4517:4588   */\n      tag_279\n        /* \"#utility.yul\":4585:4586   */\n      0x00\n        /* \"#utility.yul\":4574:4583   */\n      dup4\n        /* \"#utility.yul\":4570:4587   */\n      add\n        /* \"#utility.yul\":4561:4567   */\n      dup7\n        /* \"#utility.yul\":4517:4588   */\n      tag_268\n      jump\t// in\n    tag_279:\n        /* \"#utility.yul\":4598:4670   */\n      tag_280\n        /* \"#utility.yul\":4666:4668   */\n      0x20\n        /* \"#utility.yul\":4655:4664   */\n      dup4\n        /* \"#utility.yul\":4651:4669   */\n      add\n        /* \"#utility.yul\":4642:4648   */\n      dup6\n        /* \"#utility.yul\":4598:4670   */\n      tag_268\n      jump\t// in\n    tag_280:\n        /* \"#utility.yul\":4680:4752   */\n      tag_281\n        /* \"#utility.yul\":4748:4750   */\n      0x40\n        /* \"#utility.yul\":4737:4746   */\n      dup4\n        /* \"#utility.yul\":4733:4751   */\n      add\n        /* \"#utility.yul\":4724:4730   */\n      dup5\n        /* \"#utility.yul\":4680:4752   */\n      tag_268\n      jump\t// in\n    tag_281:\n        /* \"#utility.yul\":4317:4759   */\n      swap5\n      swap4\n      pop\n      pop\n      pop\n      pop\n      jump\t// out\n        /* \"#utility.yul\":4846:4945   */\n    tag_261:\n        /* \"#utility.yul\":4912:4916   */\n      0x00\n        /* \"#utility.yul\":4935:4938   */\n      dup2\n        /* \"#utility.yul\":4927:4938   */\n      swap1\n      pop\n        /* \"#utility.yul\":4846:4945   */\n      swap2\n      swap1\n      pop\n      jump\t// out\n        /* \"#utility.yul\":4951:5056   */\n    tag_257:\n        /* \"#utility.yul\":5017:5023   */\n      0x00\n        /* \"#utility.yul\":5045:5049   */\n      0x0a\n        /* \"#utility.yul\":5035:5049   */\n      swap1\n      pop\n        /* \"#utility.yul\":4951:5056   */\n      swap2\n      swap1\n      pop\n      jump\t// out\n        /* \"#utility.yul\":5062:5174   */\n    tag_267:\n        /* \"#utility.yul\":5131:5135   */\n      0x00\n        /* \"#utility.yul\":5163:5167   */\n      0x20\n        /* \"#utility.yul\":5158:5161   */\n      dup3\n        /* \"#utility.yul\":5154:5168   */\n      add\n        /* \"#utility.yul\":5146:5168   */\n      swap1\n      pop\n        /* \"#utility.yul\":5062:5174   */\n      swap2\n      swap1\n      pop\n      jump\t// out\n        /* \"#utility.yul\":5180:5324   */\n    tag_259:\n        /* \"#utility.yul\":5278:5289   */\n      0x00\n        /* \"#utility.yul\":5315:5318   */\n      dup2\n        /* \"#utility.yul\":5300:5318   */\n      swap1\n      pop\n        /* \"#utility.yul\":5180:5324   */\n      swap3\n      swap2\n      pop\n      pop\n      jump\t// out\n        /* \"#utility.yul\":5330:5635   */\n    tag_149:\n        /* \"#utility.yul\":5370:5373   */\n      0x00\n        /* \"#utility.yul\":5389:5409   */\n      tag_289\n        /* \"#utility.yul\":5407:5408   */\n      dup3\n        /* \"#utility.yul\":5389:5409   */\n      tag_271\n      jump\t// in\n    tag_289:\n        /* \"#utility.yul\":5384:5409   */\n      swap2\n      pop\n        /* \"#utility.yul\":5423:5443   */\n      tag_290\n        /* \"#utility.yul\":5441:5442   */\n      dup4\n        /* \"#utility.yul\":5423:5443   */\n      tag_271\n      jump\t// in\n    tag_290:\n        /* \"#utility.yul\":5418:5443   */\n      swap3\n      pop\n        /* \"#utility.yul\":5577:5578   */\n      dup3\n        /* \"#utility.yul\":5509:5575   */\n      0xffffffffffffffffffffffffffffffffffffffffffffffffffffffffffffffff\n        /* \"#utility.yul\":5505:5579   */\n      sub\n        /* \"#utility.yul\":5502:5503   */\n      dup3\n        /* \"#utility.yul\":5499:5580   */\n      gt\n        /* \"#utility.yul\":5496:5603   */\n      iszero\n      tag_291\n      jumpi\n        /* \"#utility.yul\":5583:5601   */\n      tag_292\n      tag_293\n      jump\t// in\n    tag_292:\n        /* \"#utility.yul\":5496:5603   */\n    tag_291:\n        /* \"#utility.yul\":5627:5628   */\n      dup3\n        /* \"#utility.yul\":5624:5625   */\n      dup3\n        /* \"#utility.yul\":5620:5629   */\n      add\n        /* \"#utility.yul\":5613:5629   */\n      swap1\n      pop\n        /* \"#utility.yul\":5330:5635   */\n      swap3\n      swap2\n      pop\n      pop\n      jump\t// out\n        /* \"#utility.yul\":5641:5989   */\n    tag_136:\n        /* \"#utility.yul\":5681:5688   */\n      0x00\n        /* \"#utility.yul\":5704:5724   */\n      tag_295\n        /* \"#utility.yul\":5722:5723   */\n      dup3\n        /* \"#utility.yul\":5704:5724   */\n      tag_271\n      jump\t// in\n    tag_295:\n        /* \"#utility.yul\":5699:5724   */\n      swap2\n      pop\n        /* \"#utility.yul\":5738:5758   */\n      tag_296\n        /* \"#utility.yul\":5756:5757   */\n      dup4\n        /* \"#utility.yul\":5738:5758   */\n      tag_271\n      jump\t// in\n    tag_296:\n        /* \"#utility.yul\":5733:5758   */\n      swap3\n      pop\n        /* \"#utility.yul\":5926:5927   */\n      dup2\n        /* \"#utility.yul\":5858:5924   */\n      0xffffffffffffffffffffffffffffffffffffffffffffffffffffffffffffffff\n        /* \"#utility.yul\":5854:5928   */\n      div\n        /* \"#utility.yul\":5851:5852   */\n      dup4\n        /* \"#utility.yul\":5848:5929   */\n      gt\n        /* \"#utility.yul\":5843:5844   */\n      dup3\n        /* \"#utility.yul\":5836:5845   */\n      iszero\n        /* \"#utility.yul\":5829:5846   */\n      iszero\n        /* \"#utility.yul\":5825:5930   */\n      and\n        /* \"#utility.yul\":5822:5953   */\n      iszero\n      tag_297\n      jumpi\n        /* \"#utility.yul\":5933:5951   */\n      tag_298\n      tag_293\n      jump\t// in\n    tag_298:\n        /* \"#utility.yul\":5822:5953   */\n    tag_297:\n        /* \"#utility.yul\":5981:5982   */\n      dup3\n        /* \"#utility.yul\":5978:5979   */\n      dup3\n        /* \"#utility.yul\":5974:5983   */\n      mul\n        /* \"#utility.yul\":5963:5983   */\n      swap1\n      pop\n        /* \"#utility.yul\":5641:5989   */\n      swap3\n      swap2\n      pop\n      pop\n      jump\t// out\n        /* \"#utility.yul\":5995:6186   */\n    tag_145:\n        /* \"#utility.yul\":6035:6039   */\n      0x00\n        /* \"#utility.yul\":6055:6075   */\n      tag_300\n        /* \"#utility.yul\":6073:6074   */\n      dup3\n        /* \"#utility.yul\":6055:6075   */\n      tag_271\n      jump\t// in\n    tag_300:\n        /* \"#utility.yul\":6050:6075   */\n      swap2\n      pop\n        /* \"#utility.yul\":6089:6109   */\n      tag_301\n        /* \"#utility.yul\":6107:6108   */\n      dup4\n        /* \"#utility.yul\":6089:6109   */\n      tag_271\n      jump\t// in\n    tag_301:\n        /* \"#utility.yul\":6084:6109   */\n      swap3\n      pop\n        /* \"#utility.yul\":6128:6129   */\n      dup3\n        /* \"#utility.yul\":6125:6126   */\n      dup3\n        /* \"#utility.yul\":6122:6130   */\n      lt\n        /* \"#utility.yul\":6119:6153   */\n      iszero\n      tag_302\n      jumpi\n        /* \"#utility.yul\":6133:6151   */\n      tag_303\n      tag_293\n      jump\t// in\n    tag_303:\n        /* \"#utility.yul\":6119:6153   */\n    tag_302:\n        /* \"#utility.yul\":6178:6179   */\n      dup3\n        /* \"#utility.yul\":6175:6176   */\n      dup3\n        /* \"#utility.yul\":6171:6180   */\n      sub\n        /* \"#utility.yul\":6163:6180   */\n      swap1\n      pop\n        /* \"#utility.yul\":5995:6186   */\n      swap3\n      swap2\n      pop\n      pop\n      jump\t// out\n        /* \"#utility.yul\":6192:6288   */\n    tag_250:\n        /* \"#utility.yul\":6229:6236   */\n      0x00\n        /* \"#utility.yul\":6258:6282   */\n      tag_305\n        /* \"#utility.yul\":6276:6281   */\n      dup3\n        /* \"#utility.yul\":6258:6282   */\n      tag_306\n      jump\t// in\n    tag_305:\n        /* \"#utility.yul\":6247:6282   */\n      swap1\n      pop\n        /* \"#utility.yul\":6192:6288   */\n      swap2\n      swap1\n      pop\n      jump\t// out\n        /* \"#utility.yul\":6294:6398   */\n    tag_307:\n        /* \"#utility.yul\":6339:6346   */\n      0x00\n        /* \"#utility.yul\":6368:6392   */\n      tag_309\n        /* \"#utility.yul\":6386:6391   */\n      dup3\n        /* \"#utility.yul\":6368:6392   */\n      tag_306\n      jump\t// in\n    tag_309:\n        /* \"#utility.yul\":6357:6392   */\n      swap1\n      pop\n        /* \"#utility.yul\":6294:6398   */\n      swap2\n      swap1\n      pop\n      jump\t// out\n        /* \"#utility.yul\":6404:6530   */\n    tag_306:\n        /* \"#utility.yul\":6441:6448   */\n      0x00\n        /* \"#utility.yul\":6481:6523   */\n      0xffffffffffffffffffffffffffffffffffffffff\n        /* \"#utility.yul\":6474:6479   */\n      dup3\n        /* \"#utility.yul\":6470:6524   */\n      and\n        /* \"#utility.yul\":6459:6524   */\n      swap1\n      pop\n        /* \"#utility.yul\":6404:6530   */\n      swap2\n      swap1\n      pop\n      jump\t// out\n        /* \"#utility.yul\":6536:6613   */\n    tag_271:\n        /* \"#utility.yul\":6573:6580   */\n      0x00\n        /* \"#utility.yul\":6602:6607   */\n      dup2\n        /* \"#utility.yul\":6591:6607   */\n      swap1\n      pop\n        /* \"#utility.yul\":6536:6613   */\n      swap2\n      swap1\n      pop\n      jump\t// out\n        /* \"#utility.yul\":6619:6799   */\n    tag_293:\n        /* \"#utility.yul\":6667:6744   */\n      0x4e487b7100000000000000000000000000000000000000000000000000000000\n        /* \"#utility.yul\":6664:6665   */\n      0x00\n        /* \"#utility.yul\":6657:6745   */\n      mstore\n        /* \"#utility.yul\":6764:6768   */\n      0x11\n        /* \"#utility.yul\":6761:6762   */\n      0x04\n        /* \"#utility.yul\":6754:6769   */\n      mstore\n        /* \"#utility.yul\":6788:6792   */\n      0x24\n        /* \"#utility.yul\":6785:6786   */\n      0x00\n        /* \"#utility.yul\":6778:6793   */\n      revert\n        /* \"#utility.yul\":6805:6985   */\n    tag_132:\n        /* \"#utility.yul\":6853:6930   */\n      0x4e487b7100000000000000000000000000000000000000000000000000000000\n        /* \"#utility.yul\":6850:6851   */\n      0x00\n        /* \"#utility.yul\":6843:6931   */\n      mstore\n        /* \"#utility.yul\":6950:6954   */\n      0x32\n        /* \"#utility.yul\":6947:6948   */\n      0x04\n        /* \"#utility.yul\":6940:6955   */\n      mstore\n        /* \"#utility.yul\":6974:6978   */\n      0x24\n        /* \"#utility.yul\":6971:6972   */\n      0x00\n        /* \"#utility.yul\":6964:6979   */\n      revert\n        /* \"#utility.yul\":7114:7231   */\n    tag_227:\n        /* \"#utility.yul\":7223:7224   */\n      0x00\n        /* \"#utility.yul\":7220:7221   */\n      dup1\n        /* \"#utility.yul\":7213:7225   */\n      revert\n        /* \"#utility.yul\":7237:7359   */\n    tag_215:\n        /* \"#utility.yul\":7310:7334   */\n      tag_318\n        /* \"#utility.yul\":7328:7333   */\n      dup2\n        /* \"#utility.yul\":7310:7334   */\n      tag_250\n      jump\t// in\n    tag_318:\n        /* \"#utility.yul\":7303:7308   */\n      dup2\n        /* \"#utility.yul\":7300:7335   */\n      eq\n        /* \"#utility.yul\":7290:7353   */\n      tag_319\n      jumpi\n        /* \"#utility.yul\":7349:7350   */\n      0x00\n        /* \"#utility.yul\":7346:7347   */\n      dup1\n        /* \"#utility.yul\":7339:7351   */\n      revert\n        /* \"#utility.yul\":7290:7353   */\n    tag_319:\n        /* \"#utility.yul\":7237:7359   */\n      pop\n      jump\t// out\n        /* \"#utility.yul\":7365:7503   */\n    tag_219:\n        /* \"#utility.yul\":7446:7478   */\n      tag_321\n        /* \"#utility.yul\":7472:7477   */\n      dup2\n        /* \"#utility.yul\":7446:7478   */\n      tag_307\n      jump\t// in\n    tag_321:\n        /* \"#utility.yul\":7439:7444   */\n      dup2\n        /* \"#utility.yul\":7436:7479   */\n      eq\n        /* \"#utility.yul\":7426:7497   */\n      tag_322\n      jumpi\n        /* \"#utility.yul\":7493:7494   */\n      0x00\n        /* \"#utility.yul\":7490:7491   */\n      dup1\n        /* \"#utility.yul\":7483:7495   */\n      revert\n        /* \"#utility.yul\":7426:7497   */\n    tag_322:\n        /* \"#utility.yul\":7365:7503   */\n      pop\n      jump\t// out\n        /* \"#utility.yul\":7509:7631   */\n    tag_223:\n        /* \"#utility.yul\":7582:7606   */\n      tag_324\n        /* \"#utility.yul\":7600:7605   */\n      dup2\n        /* \"#utility.yul\":7582:7606   */\n      tag_271\n      jump\t// in\n    tag_324:\n        /* \"#utility.yul\":7575:7580   */\n      dup2\n        /* \"#utility.yul\":7572:7607   */\n      eq\n        /* \"#utility.yul\":7562:7625   */\n      tag_325\n      jumpi\n        /* \"#utility.yul\":7621:7622   */\n      0x00\n        /* \"#utility.yul\":7618:7619   */\n      dup1\n        /* \"#utility.yul\":7611:7623   */\n      revert\n        /* \"#utility.yul\":7562:7625   */\n    tag_325:\n        /* \"#utility.yul\":7509:7631   */\n      pop\n      jump\t// out\n\n    auxdata: 0xa2646970667358221220171aefe31be3d75c1d66ab1208a840c88183f640490e78faf5e6b51335c38ceb64736f6c63430008070033\n}\n",
				"bytecode": {
					"linkReferences": {},
					"object": "608060405260006016556003601755600360185560046019556005601a556006601b556007601c556008601d556009601e55600a601f5534801561004257600080fd5b50610f14806100526000396000f3fe6080604052600436106101355760003560e01c80638da5cb5b116100ab578063c2c496ec1161006f578063c2c496ec14610411578063d0679d341461043c578063ed2fa5ab14610458578063f02e48c314610483578063f2aa8218146104c2578063f8b2cb4f146104ff57610135565b80638da5cb5b14610328578063a8bdb68b14610353578063aacdfe6f1461037e578063b4ad7fa9146103bb578063b69ef8a8146103e657610135565b8063354f58c0116100fd578063354f58c014610211578063481c6a751461024e5780635c8f6b5614610279578063721028ec146102b65780637c134b14146102f35780637ee454cb146102fd57610135565b80630c03a1a31461013a578063103347e71461016557806320e731a11461019057806328780a44146101bb5780632c9af64c146101e6575b600080fd5b34801561014657600080fd5b5061014f61053c565b60405161015c9190610c85565b60405180910390f35b34801561017157600080fd5b5061017a610542565b6040516101879190610c85565b60405180910390f35b34801561019c57600080fd5b506101a5610548565b6040516101b29190610c85565b60405180910390f35b3480156101c757600080fd5b506101d061054e565b6040516101dd9190610c85565b60405180910390f35b3480156101f257600080fd5b506101fb610554565b6040516102089190610c85565b60405180910390f35b34801561021d57600080fd5b5061023860048036038101906102339190610b32565b61055a565b6040516102459190610c85565b60405180910390f35b34801561025a57600080fd5b506102636105d2565b6040516102709190610c4e565b60405180910390f35b34801561028557600080fd5b506102a0600480360381019061029b9190610b32565b6105f8565b6040516102ad9190610c85565b60405180910390f35b3480156102c257600080fd5b506102dd60048036038101906102d89190610b32565b61060f565b6040516102ea9190610c85565b60405180910390f35b6102fb610889565b005b34801561030957600080fd5b506103126108a4565b60405161031f9190610c69565b60405180910390f35b34801561033457600080fd5b5061033d610925565b60405161034a9190610c4e565b60405180910390f35b34801561035f57600080fd5b50610368610949565b6040516103759190610c85565b60405180910390f35b34801561038a57600080fd5b506103a560048036038101906103a09190610b32565b61094f565b6040516103b29190610c4e565b60405180910390f35b3480156103c757600080fd5b506103d0610985565b6040516103dd9190610c85565b60405180910390f35b3480156103f257600080fd5b506103fb61098b565b6040516104089190610c85565b60405180910390f35b34801561041d57600080fd5b50610426610991565b6040516104339190610c85565b60405180910390f35b61045660048036038101906104519190610af2565b610997565b005b34801561046457600080fd5b5061046d6109ef565b60405161047a9190610c85565b60405180910390f35b34801561048f57600080fd5b506104aa60048036038101906104a59190610b5f565b6109f5565b6040516104b993929190610ca0565b60405180910390f35b3480156104ce57600080fd5b506104e960048036038101906104e49190610b32565b610a0c565b6040516104f69190610c4e565b60405180910390f35b34801561050b57600080fd5b5061052660048036038101906105219190610ac5565b610a42565b6040516105339190610c85565b60405180910390f35b601c5481565b601b5481565b601a5481565b60195481565b60175481565b600080821015801561056d5750600a8211155b61057657600080fd5b33600283600a811061058b5761058a610e65565b5b0160006101000a81548173ffffffffffffffffffffffffffffffffffffffff021916908373ffffffffffffffffffffffffffffffffffffffff160217905550819050919050565b600160009054906101000a900473ffffffffffffffffffffffffffffffffffffffff1681565b6000601754826106089190610d5a565b9050919050565b600060fb82101561080f57603382101561063857601854826106319190610d5a565b905061080a565b6032821180156106485750606582105b156106875760195460328361065d9190610db4565b6106679190610d5a565b60185460326106769190610d5a565b6106809190610d04565b9050610809565b6064821180156106975750609782105b156106ef57601a546032836106ac9190610db4565b6106b69190610d5a565b60195460326106c59190610d5a565b60185460326106d49190610d5a565b6106de9190610d04565b6106e89190610d04565b9050610808565b6096821180156106ff575060c982105b1561077057601b546032836107149190610db4565b61071e9190610d5a565b601a54603261072d9190610d5a565b601954603261073c9190610d5a565b601854603261074b9190610d5a565b6107559190610d04565b61075f9190610d04565b6107699190610d04565b9050610807565b60c882118015610780575060fb82105b1561080657601c546032836107959190610db4565b61079f9190610d5a565b601b5460326107ae9190610d5a565b601a5460326107bd9190610d5a565b60195460326107cc9190610d5a565b60185460326107db9190610d5a565b6107e59190610d04565b6107ef9190610d04565b6107f99190610d04565b6108039190610d04565b90505b5b5b5b5b610884565b60fa82118015610820575061015f82105b1561083a57601d54826108339190610d5a565b9050610883565b61015e8211801561084c57506101c382105b1561086657601e548261085f9190610d5a565b9050610882565b6101c282111561088157601f548261087e9190610d5a565b90505b5b5b5b919050565b346016600082825461089b9190610d04565b92505081905550565b6108ac610a63565b6002600a806020026040519081016040528092919082600a801561091b576020028201915b8160009054906101000a900473ffffffffffffffffffffffffffffffffffffffff1673ffffffffffffffffffffffffffffffffffffffff16815260200190600101908083116108d1575b5050505050905090565b60008054906101000a900473ffffffffffffffffffffffffffffffffffffffff1681565b601f5481565b600281600a811061095f57600080fd5b016000915054906101000a900473ffffffffffffffffffffffffffffffffffffffff1681565b601d5481565b60165481565b60185481565b803410156109a457600080fd5b8173ffffffffffffffffffffffffffffffffffffffff166108fc829081150290604051600060405180830381858888f193505050501580156109ea573d6000803e3d6000fd5b505050565b601e5481565b600080600085925084915083905093509350939050565b600c81600a8110610a1c57600080fd5b016000915054906101000a900473ffffffffffffffffffffffffffffffffffffffff1681565b60008173ffffffffffffffffffffffffffffffffffffffff16319050919050565b604051806101400160405280600a90602082028036833780820191505090505090565b600081359050610a9581610e99565b92915050565b600081359050610aaa81610eb0565b92915050565b600081359050610abf81610ec7565b92915050565b600060208284031215610adb57610ada610e94565b5b6000610ae984828501610a86565b91505092915050565b60008060408385031215610b0957610b08610e94565b5b6000610b1785828601610a9b565b9250506020610b2885828601610ab0565b9150509250929050565b600060208284031215610b4857610b47610e94565b5b6000610b5684828501610ab0565b91505092915050565b600080600060608486031215610b7857610b77610e94565b5b6000610b8686828701610ab0565b9350506020610b9786828701610ab0565b9250506040610ba886828701610ab0565b9150509250925092565b6000610bbe8383610bca565b60208301905092915050565b610bd381610de8565b82525050565b610be281610de8565b82525050565b610bf181610ce1565b610bfb8184610cf9565b9250610c0682610cd7565b8060005b83811015610c37578151610c1e8782610bb2565b9650610c2983610cec565b925050600181019050610c0a565b505050505050565b610c4881610e2c565b82525050565b6000602082019050610c636000830184610bd9565b92915050565b600061014082019050610c7f6000830184610be8565b92915050565b6000602082019050610c9a6000830184610c3f565b92915050565b6000606082019050610cb56000830186610c3f565b610cc26020830185610c3f565b610ccf6040830184610c3f565b949350505050565b6000819050919050565b6000600a9050919050565b6000602082019050919050565b600081905092915050565b6000610d0f82610e2c565b9150610d1a83610e2c565b9250827fffffffffffffffffffffffffffffffffffffffffffffffffffffffffffffffff03821115610d4f57610d4e610e36565b5b828201905092915050565b6000610d6582610e2c565b9150610d7083610e2c565b9250817fffffffffffffffffffffffffffffffffffffffffffffffffffffffffffffffff0483118215151615610da957610da8610e36565b5b828202905092915050565b6000610dbf82610e2c565b9150610dca83610e2c565b925082821015610ddd57610ddc610e36565b5b828203905092915050565b6000610df382610e0c565b9050919050565b6000610e0582610e0c565b9050919050565b600073ffffffffffffffffffffffffffffffffffffffff82169050919050565b6000819050919050565b7f4e487b7100000000000000000000000000000000000000000000000000000000600052601160045260246000fd5b7f4e487b7100000000000000000000000000000000000000000000000000000000600052603260045260246000fd5b600080fd5b610ea281610de8565b8114610ead57600080fd5b50565b610eb981610dfa565b8114610ec457600080fd5b50565b610ed081610e2c565b8114610edb57600080fd5b5056fea2646970667358221220171aefe31be3d75c1d66ab1208a840c88183f640490e78faf5e6b51335c38ceb64736f6c63430008070033",
					"opcodes": "PUSH1 0x80 PUSH1 0x40 MSTORE PUSH1 0x0 PUSH1 0x16 SSTORE PUSH1 0x3 PUSH1 0x17 SSTORE PUSH1 0x3 PUSH1 0x18 SSTORE PUSH1 0x4 PUSH1 0x19 SSTORE PUSH1 0x5 PUSH1 0x1A SSTORE PUSH1 0x6 PUSH1 0x1B SSTORE PUSH1 0x7 PUSH1 0x1C SSTORE PUSH1 0x8 PUSH1 0x1D SSTORE PUSH1 0x9 PUSH1 0x1E SSTORE PUSH1 0xA PUSH1 0x1F SSTORE CALLVALUE DUP1 ISZERO PUSH2 0x42 JUMPI PUSH1 0x0 DUP1 REVERT JUMPDEST POP PUSH2 0xF14 DUP1 PUSH2 0x52 PUSH1 0x0 CODECOPY PUSH1 0x0 RETURN INVALID PUSH1 0x80 PUSH1 0x40 MSTORE PUSH1 0x4 CALLDATASIZE LT PUSH2 0x135 JUMPI PUSH1 0x0 CALLDATALOAD PUSH1 0xE0 SHR DUP1 PUSH4 0x8DA5CB5B GT PUSH2 0xAB JUMPI DUP1 PUSH4 0xC2C496EC GT PUSH2 0x6F JUMPI DUP1 PUSH4 0xC2C496EC EQ PUSH2 0x411 JUMPI DUP1 PUSH4 0xD0679D34 EQ PUSH2 0x43C JUMPI DUP1 PUSH4 0xED2FA5AB EQ PUSH2 0x458 JUMPI DUP1 PUSH4 0xF02E48C3 EQ PUSH2 0x483 JUMPI DUP1 PUSH4 0xF2AA8218 EQ PUSH2 0x4C2 JUMPI DUP1 PUSH4 0xF8B2CB4F EQ PUSH2 0x4FF JUMPI PUSH2 0x135 JUMP JUMPDEST DUP1 PUSH4 0x8DA5CB5B EQ PUSH2 0x328 JUMPI DUP1 PUSH4 0xA8BDB68B EQ PUSH2 0x353 JUMPI DUP1 PUSH4 0xAACDFE6F EQ PUSH2 0x37E JUMPI DUP1 PUSH4 0xB4AD7FA9 EQ PUSH2 0x3BB JUMPI DUP1 PUSH4 0xB69EF8A8 EQ PUSH2 0x3E6 JUMPI PUSH2 0x135 JUMP JUMPDEST DUP1 PUSH4 0x354F58C0 GT PUSH2 0xFD JUMPI DUP1 PUSH4 0x354F58C0 EQ PUSH2 0x211 JUMPI DUP1 PUSH4 0x481C6A75 EQ PUSH2 0x24E JUMPI DUP1 PUSH4 0x5C8F6B56 EQ PUSH2 0x279 JUMPI DUP1 PUSH4 0x721028EC EQ PUSH2 0x2B6 JUMPI DUP1 PUSH4 0x7C134B14 EQ PUSH2 0x2F3 JUMPI DUP1 PUSH4 0x7EE454CB EQ PUSH2 0x2FD JUMPI PUSH2 0x135 JUMP JUMPDEST DUP1 PUSH4 0xC03A1A3 EQ PUSH2 0x13A JUMPI DUP1 PUSH4 0x103347E7 EQ PUSH2 0x165 JUMPI DUP1 PUSH4 0x20E731A1 EQ PUSH2 0x190 JUMPI DUP1 PUSH4 0x28780A44 EQ PUSH2 0x1BB JUMPI DUP1 PUSH4 0x2C9AF64C EQ PUSH2 0x1E6 JUMPI JUMPDEST PUSH1 0x0 DUP1 REVERT JUMPDEST CALLVALUE DUP1 ISZERO PUSH2 0x146 JUMPI PUSH1 0x0 DUP1 REVERT JUMPDEST POP PUSH2 0x14F PUSH2 0x53C JUMP JUMPDEST PUSH1 0x40 MLOAD PUSH2 0x15C SWAP2 SWAP1 PUSH2 0xC85 JUMP JUMPDEST PUSH1 0x40 MLOAD DUP1 SWAP2 SUB SWAP1 RETURN JUMPDEST CALLVALUE DUP1 ISZERO PUSH2 0x171 JUMPI PUSH1 0x0 DUP1 REVERT JUMPDEST POP PUSH2 0x17A PUSH2 0x542 JUMP JUMPDEST PUSH1 0x40 MLOAD PUSH2 0x187 SWAP2 SWAP1 PUSH2 0xC85 JUMP JUMPDEST PUSH1 0x40 MLOAD DUP1 SWAP2 SUB SWAP1 RETURN JUMPDEST CALLVALUE DUP1 ISZERO PUSH2 0x19C JUMPI PUSH1 0x0 DUP1 REVERT JUMPDEST POP PUSH2 0x1A5 PUSH2 0x548 JUMP JUMPDEST PUSH1 0x40 MLOAD PUSH2 0x1B2 SWAP2 SWAP1 PUSH2 0xC85 JUMP JUMPDEST PUSH1 0x40 MLOAD DUP1 SWAP2 SUB SWAP1 RETURN JUMPDEST CALLVALUE DUP1 ISZERO PUSH2 0x1C7 JUMPI PUSH1 0x0 DUP1 REVERT JUMPDEST POP PUSH2 0x1D0 PUSH2 0x54E JUMP JUMPDEST PUSH1 0x40 MLOAD PUSH2 0x1DD SWAP2 SWAP1 PUSH2 0xC85 JUMP JUMPDEST PUSH1 0x40 MLOAD DUP1 SWAP2 SUB SWAP1 RETURN JUMPDEST CALLVALUE DUP1 ISZERO PUSH2 0x1F2 JUMPI PUSH1 0x0 DUP1 REVERT JUMPDEST POP PUSH2 0x1FB PUSH2 0x554 JUMP JUMPDEST PUSH1 0x40 MLOAD PUSH2 0x208 SWAP2 SWAP1 PUSH2 0xC85 JUMP JUMPDEST PUSH1 0x40 MLOAD DUP1 SWAP2 SUB SWAP1 RETURN JUMPDEST CALLVALUE DUP1 ISZERO PUSH2 0x21D JUMPI PUSH1 0x0 DUP1 REVERT JUMPDEST POP PUSH2 0x238 PUSH1 0x4 DUP1 CALLDATASIZE SUB DUP2 ADD SWAP1 PUSH2 0x233 SWAP2 SWAP1 PUSH2 0xB32 JUMP JUMPDEST PUSH2 0x55A JUMP JUMPDEST PUSH1 0x40 MLOAD PUSH2 0x245 SWAP2 SWAP1 PUSH2 0xC85 JUMP JUMPDEST PUSH1 0x40 MLOAD DUP1 SWAP2 SUB SWAP1 RETURN JUMPDEST CALLVALUE DUP1 ISZERO PUSH2 0x25A JUMPI PUSH1 0x0 DUP1 REVERT JUMPDEST POP PUSH2 0x263 PUSH2 0x5D2 JUMP JUMPDEST PUSH1 0x40 MLOAD PUSH2 0x270 SWAP2 SWAP1 PUSH2 0xC4E JUMP JUMPDEST PUSH1 0x40 MLOAD DUP1 SWAP2 SUB SWAP1 RETURN JUMPDEST CALLVALUE DUP1 ISZERO PUSH2 0x285 JUMPI PUSH1 0x0 DUP1 REVERT JUMPDEST POP PUSH2 0x2A0 PUSH1 0x4 DUP1 CALLDATASIZE SUB DUP2 ADD SWAP1 PUSH2 0x29B SWAP2 SWAP1 PUSH2 0xB32 JUMP JUMPDEST PUSH2 0x5F8 JUMP JUMPDEST PUSH1 0x40 MLOAD PUSH2 0x2AD SWAP2 SWAP1 PUSH2 0xC85 JUMP JUMPDEST PUSH1 0x40 MLOAD DUP1 SWAP2 SUB SWAP1 RETURN JUMPDEST CALLVALUE DUP1 ISZERO PUSH2 0x2C2 JUMPI PUSH1 0x0 DUP1 REVERT JUMPDEST POP PUSH2 0x2DD PUSH1 0x4 DUP1 CALLDATASIZE SUB DUP2 ADD SWAP1 PUSH2 0x2D8 SWAP2 SWAP1 PUSH2 0xB32 JUMP JUMPDEST PUSH2 0x60F JUMP JUMPDEST PUSH1 0x40 MLOAD PUSH2 0x2EA SWAP2 SWAP1 PUSH2 0xC85 JUMP JUMPDEST PUSH1 0x40 MLOAD DUP1 SWAP2 SUB SWAP1 RETURN JUMPDEST PUSH2 0x2FB PUSH2 0x889 JUMP JUMPDEST STOP JUMPDEST CALLVALUE DUP1 ISZERO PUSH2 0x309 JUMPI PUSH1 0x0 DUP1 REVERT JUMPDEST POP PUSH2 0x312 PUSH2 0x8A4 JUMP JUMPDEST PUSH1 0x40 MLOAD PUSH2 0x31F SWAP2 SWAP1 PUSH2 0xC69 JUMP JUMPDEST PUSH1 0x40 MLOAD DUP1 SWAP2 SUB SWAP1 RETURN JUMPDEST CALLVALUE DUP1 ISZERO PUSH2 0x334 JUMPI PUSH1 0x0 DUP1 REVERT JUMPDEST POP PUSH2 0x33D PUSH2 0x925 JUMP JUMPDEST PUSH1 0x40 MLOAD PUSH2 0x34A SWAP2 SWAP1 PUSH2 0xC4E JUMP JUMPDEST PUSH1 0x40 MLOAD DUP1 SWAP2 SUB SWAP1 RETURN JUMPDEST CALLVALUE DUP1 ISZERO PUSH2 0x35F JUMPI PUSH1 0x0 DUP1 REVERT JUMPDEST POP PUSH2 0x368 PUSH2 0x949 JUMP JUMPDEST PUSH1 0x40 MLOAD PUSH2 0x375 SWAP2 SWAP1 PUSH2 0xC85 JUMP JUMPDEST PUSH1 0x40 MLOAD DUP1 SWAP2 SUB SWAP1 RETURN JUMPDEST CALLVALUE DUP1 ISZERO PUSH2 0x38A JUMPI PUSH1 0x0 DUP1 REVERT JUMPDEST POP PUSH2 0x3A5 PUSH1 0x4 DUP1 CALLDATASIZE SUB DUP2 ADD SWAP1 PUSH2 0x3A0 SWAP2 SWAP1 PUSH2 0xB32 JUMP JUMPDEST PUSH2 0x94F JUMP JUMPDEST PUSH1 0x40 MLOAD PUSH2 0x3B2 SWAP2 SWAP1 PUSH2 0xC4E JUMP JUMPDEST PUSH1 0x40 MLOAD DUP1 SWAP2 SUB SWAP1 RETURN JUMPDEST CALLVALUE DUP1 ISZERO PUSH2 0x3C7 JUMPI PUSH1 0x0 DUP1 REVERT JUMPDEST POP PUSH2 0x3D0 PUSH2 0x985 JUMP JUMPDEST PUSH1 0x40 MLOAD PUSH2 0x3DD SWAP2 SWAP1 PUSH2 0xC85 JUMP JUMPDEST PUSH1 0x40 MLOAD DUP1 SWAP2 SUB SWAP1 RETURN JUMPDEST CALLVALUE DUP1 ISZERO PUSH2 0x3F2 JUMPI PUSH1 0x0 DUP1 REVERT JUMPDEST POP PUSH2 0x3FB PUSH2 0x98B JUMP JUMPDEST PUSH1 0x40 MLOAD PUSH2 0x408 SWAP2 SWAP1 PUSH2 0xC85 JUMP JUMPDEST PUSH1 0x40 MLOAD DUP1 SWAP2 SUB SWAP1 RETURN JUMPDEST CALLVALUE DUP1 ISZERO PUSH2 0x41D JUMPI PUSH1 0x0 DUP1 REVERT JUMPDEST POP PUSH2 0x426 PUSH2 0x991 JUMP JUMPDEST PUSH1 0x40 MLOAD PUSH2 0x433 SWAP2 SWAP1 PUSH2 0xC85 JUMP JUMPDEST PUSH1 0x40 MLOAD DUP1 SWAP2 SUB SWAP1 RETURN JUMPDEST PUSH2 0x456 PUSH1 0x4 DUP1 CALLDATASIZE SUB DUP2 ADD SWAP1 PUSH2 0x451 SWAP2 SWAP1 PUSH2 0xAF2 JUMP JUMPDEST PUSH2 0x997 JUMP JUMPDEST STOP JUMPDEST CALLVALUE DUP1 ISZERO PUSH2 0x464 JUMPI PUSH1 0x0 DUP1 REVERT JUMPDEST POP PUSH2 0x46D PUSH2 0x9EF JUMP JUMPDEST PUSH1 0x40 MLOAD PUSH2 0x47A SWAP2 SWAP1 PUSH2 0xC85 JUMP JUMPDEST PUSH1 0x40 MLOAD DUP1 SWAP2 SUB SWAP1 RETURN JUMPDEST CALLVALUE DUP1 ISZERO PUSH2 0x48F JUMPI PUSH1 0x0 DUP1 REVERT JUMPDEST POP PUSH2 0x4AA PUSH1 0x4 DUP1 CALLDATASIZE SUB DUP2 ADD SWAP1 PUSH2 0x4A5 SWAP2 SWAP1 PUSH2 0xB5F JUMP JUMPDEST PUSH2 0x9F5 JUMP JUMPDEST PUSH1 0x40 MLOAD PUSH2 0x4B9 SWAP4 SWAP3 SWAP2 SWAP1 PUSH2 0xCA0 JUMP JUMPDEST PUSH1 0x40 MLOAD DUP1 SWAP2 SUB SWAP1 RETURN JUMPDEST CALLVALUE DUP1 ISZERO PUSH2 0x4CE JUMPI PUSH1 0x0 DUP1 REVERT JUMPDEST POP PUSH2 0x4E9 PUSH1 0x4 DUP1 CALLDATASIZE SUB DUP2 ADD SWAP1 PUSH2 0x4E4 SWAP2 SWAP1 PUSH2 0xB32 JUMP JUMPDEST PUSH2 0xA0C JUMP JUMPDEST PUSH1 0x40 MLOAD PUSH2 0x4F6 SWAP2 SWAP1 PUSH2 0xC4E JUMP JUMPDEST PUSH1 0x40 MLOAD DUP1 SWAP2 SUB SWAP1 RETURN JUMPDEST CALLVALUE DUP1 ISZERO PUSH2 0x50B JUMPI PUSH1 0x0 DUP1 REVERT JUMPDEST POP PUSH2 0x526 PUSH1 0x4 DUP1 CALLDATASIZE SUB DUP2 ADD SWAP1 PUSH2 0x521 SWAP2 SWAP1 PUSH2 0xAC5 JUMP JUMPDEST PUSH2 0xA42 JUMP JUMPDEST PUSH1 0x40 MLOAD PUSH2 0x533 SWAP2 SWAP1 PUSH2 0xC85 JUMP JUMPDEST PUSH1 0x40 MLOAD DUP1 SWAP2 SUB SWAP1 RETURN JUMPDEST PUSH1 0x1C SLOAD DUP2 JUMP JUMPDEST PUSH1 0x1B SLOAD DUP2 JUMP JUMPDEST PUSH1 0x1A SLOAD DUP2 JUMP JUMPDEST PUSH1 0x19 SLOAD DUP2 JUMP JUMPDEST PUSH1 0x17 SLOAD DUP2 JUMP JUMPDEST PUSH1 0x0 DUP1 DUP3 LT ISZERO DUP1 ISZERO PUSH2 0x56D JUMPI POP PUSH1 0xA DUP3 GT ISZERO JUMPDEST PUSH2 0x576 JUMPI PUSH1 0x0 DUP1 REVERT JUMPDEST CALLER PUSH1 0x2 DUP4 PUSH1 0xA DUP2 LT PUSH2 0x58B JUMPI PUSH2 0x58A PUSH2 0xE65 JUMP JUMPDEST JUMPDEST ADD PUSH1 0x0 PUSH2 0x100 EXP DUP2 SLOAD DUP2 PUSH20 0xFFFFFFFFFFFFFFFFFFFFFFFFFFFFFFFFFFFFFFFF MUL NOT AND SWAP1 DUP4 PUSH20 0xFFFFFFFFFFFFFFFFFFFFFFFFFFFFFFFFFFFFFFFF AND MUL OR SWAP1 SSTORE POP DUP2 SWAP1 POP SWAP2 SWAP1 POP JUMP JUMPDEST PUSH1 0x1 PUSH1 0x0 SWAP1 SLOAD SWAP1 PUSH2 0x100 EXP SWAP1 DIV PUSH20 0xFFFFFFFFFFFFFFFFFFFFFFFFFFFFFFFFFFFFFFFF AND DUP2 JUMP JUMPDEST PUSH1 0x0 PUSH1 0x17 SLOAD DUP3 PUSH2 0x608 SWAP2 SWAP1 PUSH2 0xD5A JUMP JUMPDEST SWAP1 POP SWAP2 SWAP1 POP JUMP JUMPDEST PUSH1 0x0 PUSH1 0xFB DUP3 LT ISZERO PUSH2 0x80F JUMPI PUSH1 0x33 DUP3 LT ISZERO PUSH2 0x638 JUMPI PUSH1 0x18 SLOAD DUP3 PUSH2 0x631 SWAP2 SWAP1 PUSH2 0xD5A JUMP JUMPDEST SWAP1 POP PUSH2 0x80A JUMP JUMPDEST PUSH1 0x32 DUP3 GT DUP1 ISZERO PUSH2 0x648 JUMPI POP PUSH1 0x65 DUP3 LT JUMPDEST ISZERO PUSH2 0x687 JUMPI PUSH1 0x19 SLOAD PUSH1 0x32 DUP4 PUSH2 0x65D SWAP2 SWAP1 PUSH2 0xDB4 JUMP JUMPDEST PUSH2 0x667 SWAP2 SWAP1 PUSH2 0xD5A JUMP JUMPDEST PUSH1 0x18 SLOAD PUSH1 0x32 PUSH2 0x676 SWAP2 SWAP1 PUSH2 0xD5A JUMP JUMPDEST PUSH2 0x680 SWAP2 SWAP1 PUSH2 0xD04 JUMP JUMPDEST SWAP1 POP PUSH2 0x809 JUMP JUMPDEST PUSH1 0x64 DUP3 GT DUP1 ISZERO PUSH2 0x697 JUMPI POP PUSH1 0x97 DUP3 LT JUMPDEST ISZERO PUSH2 0x6EF JUMPI PUSH1 0x1A SLOAD PUSH1 0x32 DUP4 PUSH2 0x6AC SWAP2 SWAP1 PUSH2 0xDB4 JUMP JUMPDEST PUSH2 0x6B6 SWAP2 SWAP1 PUSH2 0xD5A JUMP JUMPDEST PUSH1 0x19 SLOAD PUSH1 0x32 PUSH2 0x6C5 SWAP2 SWAP1 PUSH2 0xD5A JUMP JUMPDEST PUSH1 0x18 SLOAD PUSH1 0x32 PUSH2 0x6D4 SWAP2 SWAP1 PUSH2 0xD5A JUMP JUMPDEST PUSH2 0x6DE SWAP2 SWAP1 PUSH2 0xD04 JUMP JUMPDEST PUSH2 0x6E8 SWAP2 SWAP1 PUSH2 0xD04 JUMP JUMPDEST SWAP1 POP PUSH2 0x808 JUMP JUMPDEST PUSH1 0x96 DUP3 GT DUP1 ISZERO PUSH2 0x6FF JUMPI POP PUSH1 0xC9 DUP3 LT JUMPDEST ISZERO PUSH2 0x770 JUMPI PUSH1 0x1B SLOAD PUSH1 0x32 DUP4 PUSH2 0x714 SWAP2 SWAP1 PUSH2 0xDB4 JUMP JUMPDEST PUSH2 0x71E SWAP2 SWAP1 PUSH2 0xD5A JUMP JUMPDEST PUSH1 0x1A SLOAD PUSH1 0x32 PUSH2 0x72D SWAP2 SWAP1 PUSH2 0xD5A JUMP JUMPDEST PUSH1 0x19 SLOAD PUSH1 0x32 PUSH2 0x73C SWAP2 SWAP1 PUSH2 0xD5A JUMP JUMPDEST PUSH1 0x18 SLOAD PUSH1 0x32 PUSH2 0x74B SWAP2 SWAP1 PUSH2 0xD5A JUMP JUMPDEST PUSH2 0x755 SWAP2 SWAP1 PUSH2 0xD04 JUMP JUMPDEST PUSH2 0x75F SWAP2 SWAP1 PUSH2 0xD04 JUMP JUMPDEST PUSH2 0x769 SWAP2 SWAP1 PUSH2 0xD04 JUMP JUMPDEST SWAP1 POP PUSH2 0x807 JUMP JUMPDEST PUSH1 0xC8 DUP3 GT DUP1 ISZERO PUSH2 0x780 JUMPI POP PUSH1 0xFB DUP3 LT JUMPDEST ISZERO PUSH2 0x806 JUMPI PUSH1 0x1C SLOAD PUSH1 0x32 DUP4 PUSH2 0x795 SWAP2 SWAP1 PUSH2 0xDB4 JUMP JUMPDEST PUSH2 0x79F SWAP2 SWAP1 PUSH2 0xD5A JUMP JUMPDEST PUSH1 0x1B SLOAD PUSH1 0x32 PUSH2 0x7AE SWAP2 SWAP1 PUSH2 0xD5A JUMP JUMPDEST PUSH1 0x1A SLOAD PUSH1 0x32 PUSH2 0x7BD SWAP2 SWAP1 PUSH2 0xD5A JUMP JUMPDEST PUSH1 0x19 SLOAD PUSH1 0x32 PUSH2 0x7CC SWAP2 SWAP1 PUSH2 0xD5A JUMP JUMPDEST PUSH1 0x18 SLOAD PUSH1 0x32 PUSH2 0x7DB SWAP2 SWAP1 PUSH2 0xD5A JUMP JUMPDEST PUSH2 0x7E5 SWAP2 SWAP1 PUSH2 0xD04 JUMP JUMPDEST PUSH2 0x7EF SWAP2 SWAP1 PUSH2 0xD04 JUMP JUMPDEST PUSH2 0x7F9 SWAP2 SWAP1 PUSH2 0xD04 JUMP JUMPDEST PUSH2 0x803 SWAP2 SWAP1 PUSH2 0xD04 JUMP JUMPDEST SWAP1 POP JUMPDEST JUMPDEST JUMPDEST JUMPDEST JUMPDEST PUSH2 0x884 JUMP JUMPDEST PUSH1 0xFA DUP3 GT DUP1 ISZERO PUSH2 0x820 JUMPI POP PUSH2 0x15F DUP3 LT JUMPDEST ISZERO PUSH2 0x83A JUMPI PUSH1 0x1D SLOAD DUP3 PUSH2 0x833 SWAP2 SWAP1 PUSH2 0xD5A JUMP JUMPDEST SWAP1 POP PUSH2 0x883 JUMP JUMPDEST PUSH2 0x15E DUP3 GT DUP1 ISZERO PUSH2 0x84C JUMPI POP PUSH2 0x1C3 DUP3 LT JUMPDEST ISZERO PUSH2 0x866 JUMPI PUSH1 0x1E SLOAD DUP3 PUSH2 0x85F SWAP2 SWAP1 PUSH2 0xD5A JUMP JUMPDEST SWAP1 POP PUSH2 0x882 JUMP JUMPDEST PUSH2 0x1C2 DUP3 GT ISZERO PUSH2 0x881 JUMPI PUSH1 0x1F SLOAD DUP3 PUSH2 0x87E SWAP2 SWAP1 PUSH2 0xD5A JUMP JUMPDEST SWAP1 POP JUMPDEST JUMPDEST JUMPDEST JUMPDEST SWAP2 SWAP1 POP JUMP JUMPDEST CALLVALUE PUSH1 0x16 PUSH1 0x0 DUP3 DUP3 SLOAD PUSH2 0x89B SWAP2 SWAP1 PUSH2 0xD04 JUMP JUMPDEST SWAP3 POP POP DUP2 SWAP1 SSTORE POP JUMP JUMPDEST PUSH2 0x8AC PUSH2 0xA63 JUMP JUMPDEST PUSH1 0x2 PUSH1 0xA DUP1 PUSH1 0x20 MUL PUSH1 0x40 MLOAD SWAP1 DUP2 ADD PUSH1 0x40 MSTORE DUP1 SWAP3 SWAP2 SWAP1 DUP3 PUSH1 0xA DUP1 ISZERO PUSH2 0x91B JUMPI PUSH1 0x20 MUL DUP3 ADD SWAP2 JUMPDEST DUP2 PUSH1 0x0 SWAP1 SLOAD SWAP1 PUSH2 0x100 EXP SWAP1 DIV PUSH20 0xFFFFFFFFFFFFFFFFFFFFFFFFFFFFFFFFFFFFFFFF AND PUSH20 0xFFFFFFFFFFFFFFFFFFFFFFFFFFFFFFFFFFFFFFFF AND DUP2 MSTORE PUSH1 0x20 ADD SWAP1 PUSH1 0x1 ADD SWAP1 DUP1 DUP4 GT PUSH2 0x8D1 JUMPI JUMPDEST POP POP POP POP POP SWAP1 POP SWAP1 JUMP JUMPDEST PUSH1 0x0 DUP1 SLOAD SWAP1 PUSH2 0x100 EXP SWAP1 DIV PUSH20 0xFFFFFFFFFFFFFFFFFFFFFFFFFFFFFFFFFFFFFFFF AND DUP2 JUMP JUMPDEST PUSH1 0x1F SLOAD DUP2 JUMP JUMPDEST PUSH1 0x2 DUP2 PUSH1 0xA DUP2 LT PUSH2 0x95F JUMPI PUSH1 0x0 DUP1 REVERT JUMPDEST ADD PUSH1 0x0 SWAP2 POP SLOAD SWAP1 PUSH2 0x100 EXP SWAP1 DIV PUSH20 0xFFFFFFFFFFFFFFFFFFFFFFFFFFFFFFFFFFFFFFFF AND DUP2 JUMP JUMPDEST PUSH1 0x1D SLOAD DUP2 JUMP JUMPDEST PUSH1 0x16 SLOAD DUP2 JUMP JUMPDEST PUSH1 0x18 SLOAD DUP2 JUMP JUMPDEST DUP1 CALLVALUE LT ISZERO PUSH2 0x9A4 JUMPI PUSH1 0x0 DUP1 REVERT JUMPDEST DUP2 PUSH20 0xFFFFFFFFFFFFFFFFFFFFFFFFFFFFFFFFFFFFFFFF AND PUSH2 0x8FC DUP3 SWAP1 DUP2 ISZERO MUL SWAP1 PUSH1 0x40 MLOAD PUSH1 0x0 PUSH1 0x40 MLOAD DUP1 DUP4 SUB DUP2 DUP6 DUP9 DUP9 CALL SWAP4 POP POP POP POP ISZERO DUP1 ISZERO PUSH2 0x9EA JUMPI RETURNDATASIZE PUSH1 0x0 DUP1 RETURNDATACOPY RETURNDATASIZE PUSH1 0x0 REVERT JUMPDEST POP POP POP JUMP JUMPDEST PUSH1 0x1E SLOAD DUP2 JUMP JUMPDEST PUSH1 0x0 DUP1 PUSH1 0x0 DUP6 SWAP3 POP DUP5 SWAP2 POP DUP4 SWAP1 POP SWAP4 POP SWAP4 POP SWAP4 SWAP1 POP JUMP JUMPDEST PUSH1 0xC DUP2 PUSH1 0xA DUP2 LT PUSH2 0xA1C JUMPI PUSH1 0x0 DUP1 REVERT JUMPDEST ADD PUSH1 0x0 SWAP2 POP SLOAD SWAP1 PUSH2 0x100 EXP SWAP1 DIV PUSH20 0xFFFFFFFFFFFFFFFFFFFFFFFFFFFFFFFFFFFFFFFF AND DUP2 JUMP JUMPDEST PUSH1 0x0 DUP2 PUSH20 0xFFFFFFFFFFFFFFFFFFFFFFFFFFFFFFFFFFFFFFFF AND BALANCE SWAP1 POP SWAP2 SWAP1 POP JUMP JUMPDEST PUSH1 0x40 MLOAD DUP1 PUSH2 0x140 ADD PUSH1 0x40 MSTORE DUP1 PUSH1 0xA SWAP1 PUSH1 0x20 DUP3 MUL DUP1 CALLDATASIZE DUP4 CALLDATACOPY DUP1 DUP3 ADD SWAP2 POP POP SWAP1 POP POP SWAP1 JUMP JUMPDEST PUSH1 0x0 DUP2 CALLDATALOAD SWAP1 POP PUSH2 0xA95 DUP2 PUSH2 0xE99 JUMP JUMPDEST SWAP3 SWAP2 POP POP JUMP JUMPDEST PUSH1 0x0 DUP2 CALLDATALOAD SWAP1 POP PUSH2 0xAAA DUP2 PUSH2 0xEB0 JUMP JUMPDEST SWAP3 SWAP2 POP POP JUMP JUMPDEST PUSH1 0x0 DUP2 CALLDATALOAD SWAP1 POP PUSH2 0xABF DUP2 PUSH2 0xEC7 JUMP JUMPDEST SWAP3 SWAP2 POP POP JUMP JUMPDEST PUSH1 0x0 PUSH1 0x20 DUP3 DUP5 SUB SLT ISZERO PUSH2 0xADB JUMPI PUSH2 0xADA PUSH2 0xE94 JUMP JUMPDEST JUMPDEST PUSH1 0x0 PUSH2 0xAE9 DUP5 DUP3 DUP6 ADD PUSH2 0xA86 JUMP JUMPDEST SWAP2 POP POP SWAP3 SWAP2 POP POP JUMP JUMPDEST PUSH1 0x0 DUP1 PUSH1 0x40 DUP4 DUP6 SUB SLT ISZERO PUSH2 0xB09 JUMPI PUSH2 0xB08 PUSH2 0xE94 JUMP JUMPDEST JUMPDEST PUSH1 0x0 PUSH2 0xB17 DUP6 DUP3 DUP7 ADD PUSH2 0xA9B JUMP JUMPDEST SWAP3 POP POP PUSH1 0x20 PUSH2 0xB28 DUP6 DUP3 DUP7 ADD PUSH2 0xAB0 JUMP JUMPDEST SWAP2 POP POP SWAP3 POP SWAP3 SWAP1 POP JUMP JUMPDEST PUSH1 0x0 PUSH1 0x20 DUP3 DUP5 SUB SLT ISZERO PUSH2 0xB48 JUMPI PUSH2 0xB47 PUSH2 0xE94 JUMP JUMPDEST JUMPDEST PUSH1 0x0 PUSH2 0xB56 DUP5 DUP3 DUP6 ADD PUSH2 0xAB0 JUMP JUMPDEST SWAP2 POP POP SWAP3 SWAP2 POP POP JUMP JUMPDEST PUSH1 0x0 DUP1 PUSH1 0x0 PUSH1 0x60 DUP5 DUP7 SUB SLT ISZERO PUSH2 0xB78 JUMPI PUSH2 0xB77 PUSH2 0xE94 JUMP JUMPDEST JUMPDEST PUSH1 0x0 PUSH2 0xB86 DUP7 DUP3 DUP8 ADD PUSH2 0xAB0 JUMP JUMPDEST SWAP4 POP POP PUSH1 0x20 PUSH2 0xB97 DUP7 DUP3 DUP8 ADD PUSH2 0xAB0 JUMP JUMPDEST SWAP3 POP POP PUSH1 0x40 PUSH2 0xBA8 DUP7 DUP3 DUP8 ADD PUSH2 0xAB0 JUMP JUMPDEST SWAP2 POP POP SWAP3 POP SWAP3 POP SWAP3 JUMP JUMPDEST PUSH1 0x0 PUSH2 0xBBE DUP4 DUP4 PUSH2 0xBCA JUMP JUMPDEST PUSH1 0x20 DUP4 ADD SWAP1 POP SWAP3 SWAP2 POP POP JUMP JUMPDEST PUSH2 0xBD3 DUP2 PUSH2 0xDE8 JUMP JUMPDEST DUP3 MSTORE POP POP JUMP JUMPDEST PUSH2 0xBE2 DUP2 PUSH2 0xDE8 JUMP JUMPDEST DUP3 MSTORE POP POP JUMP JUMPDEST PUSH2 0xBF1 DUP2 PUSH2 0xCE1 JUMP JUMPDEST PUSH2 0xBFB DUP2 DUP5 PUSH2 0xCF9 JUMP JUMPDEST SWAP3 POP PUSH2 0xC06 DUP3 PUSH2 0xCD7 JUMP JUMPDEST DUP1 PUSH1 0x0 JUMPDEST DUP4 DUP2 LT ISZERO PUSH2 0xC37 JUMPI DUP2 MLOAD PUSH2 0xC1E DUP8 DUP3 PUSH2 0xBB2 JUMP JUMPDEST SWAP7 POP PUSH2 0xC29 DUP4 PUSH2 0xCEC JUMP JUMPDEST SWAP3 POP POP PUSH1 0x1 DUP2 ADD SWAP1 POP PUSH2 0xC0A JUMP JUMPDEST POP POP POP POP POP POP JUMP JUMPDEST PUSH2 0xC48 DUP2 PUSH2 0xE2C JUMP JUMPDEST DUP3 MSTORE POP POP JUMP JUMPDEST PUSH1 0x0 PUSH1 0x20 DUP3 ADD SWAP1 POP PUSH2 0xC63 PUSH1 0x0 DUP4 ADD DUP5 PUSH2 0xBD9 JUMP JUMPDEST SWAP3 SWAP2 POP POP JUMP JUMPDEST PUSH1 0x0 PUSH2 0x140 DUP3 ADD SWAP1 POP PUSH2 0xC7F PUSH1 0x0 DUP4 ADD DUP5 PUSH2 0xBE8 JUMP JUMPDEST SWAP3 SWAP2 POP POP JUMP JUMPDEST PUSH1 0x0 PUSH1 0x20 DUP3 ADD SWAP1 POP PUSH2 0xC9A PUSH1 0x0 DUP4 ADD DUP5 PUSH2 0xC3F JUMP JUMPDEST SWAP3 SWAP2 POP POP JUMP JUMPDEST PUSH1 0x0 PUSH1 0x60 DUP3 ADD SWAP1 POP PUSH2 0xCB5 PUSH1 0x0 DUP4 ADD DUP7 PUSH2 0xC3F JUMP JUMPDEST PUSH2 0xCC2 PUSH1 0x20 DUP4 ADD DUP6 PUSH2 0xC3F JUMP JUMPDEST PUSH2 0xCCF PUSH1 0x40 DUP4 ADD DUP5 PUSH2 0xC3F JUMP JUMPDEST SWAP5 SWAP4 POP POP POP POP JUMP JUMPDEST PUSH1 0x0 DUP2 SWAP1 POP SWAP2 SWAP1 POP JUMP JUMPDEST PUSH1 0x0 PUSH1 0xA SWAP1 POP SWAP2 SWAP1 POP JUMP JUMPDEST PUSH1 0x0 PUSH1 0x20 DUP3 ADD SWAP1 POP SWAP2 SWAP1 POP JUMP JUMPDEST PUSH1 0x0 DUP2 SWAP1 POP SWAP3 SWAP2 POP POP JUMP JUMPDEST PUSH1 0x0 PUSH2 0xD0F DUP3 PUSH2 0xE2C JUMP JUMPDEST SWAP2 POP PUSH2 0xD1A DUP4 PUSH2 0xE2C JUMP JUMPDEST SWAP3 POP DUP3 PUSH32 0xFFFFFFFFFFFFFFFFFFFFFFFFFFFFFFFFFFFFFFFFFFFFFFFFFFFFFFFFFFFFFFFF SUB DUP3 GT ISZERO PUSH2 0xD4F JUMPI PUSH2 0xD4E PUSH2 0xE36 JUMP JUMPDEST JUMPDEST DUP3 DUP3 ADD SWAP1 POP SWAP3 SWAP2 POP POP JUMP JUMPDEST PUSH1 0x0 PUSH2 0xD65 DUP3 PUSH2 0xE2C JUMP JUMPDEST SWAP2 POP PUSH2 0xD70 DUP4 PUSH2 0xE2C JUMP JUMPDEST SWAP3 POP DUP2 PUSH32 0xFFFFFFFFFFFFFFFFFFFFFFFFFFFFFFFFFFFFFFFFFFFFFFFFFFFFFFFFFFFFFFFF DIV DUP4 GT DUP3 ISZERO ISZERO AND ISZERO PUSH2 0xDA9 JUMPI PUSH2 0xDA8 PUSH2 0xE36 JUMP JUMPDEST JUMPDEST DUP3 DUP3 MUL SWAP1 POP SWAP3 SWAP2 POP POP JUMP JUMPDEST PUSH1 0x0 PUSH2 0xDBF DUP3 PUSH2 0xE2C JUMP JUMPDEST SWAP2 POP PUSH2 0xDCA DUP4 PUSH2 0xE2C JUMP JUMPDEST SWAP3 POP DUP3 DUP3 LT ISZERO PUSH2 0xDDD JUMPI PUSH2 0xDDC PUSH2 0xE36 JUMP JUMPDEST JUMPDEST DUP3 DUP3 SUB SWAP1 POP SWAP3 SWAP2 POP POP JUMP JUMPDEST PUSH1 0x0 PUSH2 0xDF3 DUP3 PUSH2 0xE0C JUMP JUMPDEST SWAP1 POP SWAP2 SWAP1 POP JUMP JUMPDEST PUSH1 0x0 PUSH2 0xE05 DUP3 PUSH2 0xE0C JUMP JUMPDEST SWAP1 POP SWAP2 SWAP1 POP JUMP JUMPDEST PUSH1 0x0 PUSH20 0xFFFFFFFFFFFFFFFFFFFFFFFFFFFFFFFFFFFFFFFF DUP3 AND SWAP1 POP SWAP2 SWAP1 POP JUMP JUMPDEST PUSH1 0x0 DUP2 SWAP1 POP SWAP2 SWAP1 POP JUMP JUMPDEST PUSH32 0x4E487B7100000000000000000000000000000000000000000000000000000000 PUSH1 0x0 MSTORE PUSH1 0x11 PUSH1 0x4 MSTORE PUSH1 0x24 PUSH1 0x0 REVERT JUMPDEST PUSH32 0x4E487B7100000000000000000000000000000000000000000000000000000000 PUSH1 0x0 MSTORE PUSH1 0x32 PUSH1 0x4 MSTORE PUSH1 0x24 PUSH1 0x0 REVERT JUMPDEST PUSH1 0x0 DUP1 REVERT JUMPDEST PUSH2 0xEA2 DUP2 PUSH2 0xDE8 JUMP JUMPDEST DUP2 EQ PUSH2 0xEAD JUMPI PUSH1 0x0 DUP1 REVERT JUMPDEST POP JUMP JUMPDEST PUSH2 0xEB9 DUP2 PUSH2 0xDFA JUMP JUMPDEST DUP2 EQ PUSH2 0xEC4 JUMPI PUSH1 0x0 DUP1 REVERT JUMPDEST POP JUMP JUMPDEST PUSH2 0xED0 DUP2 PUSH2 0xE2C JUMP JUMPDEST DUP2 EQ PUSH2 0xEDB JUMPI PUSH1 0x0 DUP1 REVERT JUMPDEST POP JUMP INVALID LOG2 PUSH5 0x6970667358 0x22 SLT KECCAK256 OR BYTE 0xEF 0xE3 SHL 0xE3 0xD7 0x5C SAR PUSH7 0xAB1208A840C881 DUP4 0xF6 BLOCKHASH 0x49 0xE PUSH25 0xFAF5E6B51335C38CEB64736F6C634300080700330000000000 "
				},
				"gasEstimates": {
					"creation": {
						"codeDepositCost": "772000",
						"executionCost": "204765",
						"totalCost": "976765"
					},
					"external": {
						"balCheck()": "infinite",
						"balance()": "2540",
						"btc1()": "2451",
						"btc2()": "2519",
						"btc3()": "2497",
						"btc4()": "2475",
						"btc5()": "2453",
						"btc6()": "2518",
						"btc7()": "2495",
						"btc8()": "2474",
						"btp()": "2541",
						"buyers(uint256)": "2915",
						"getBalance(address)": "3389",
						"getConsumerTariff(uint256)": "infinite",
						"getProsumerTariff(uint256)": "infinite",
						"getSellers()": "infinite",
						"getnPnCnEV(uint256,uint256,uint256)": "infinite",
						"manager()": "2559",
						"owner()": "2534",
						"seller(uint256)": "2872",
						"sellerID(uint256)": "infinite",
						"send(address,uint256)": "infinite"
					}
				},
				"methodIdentifiers": {
					"balCheck()": "7c134b14",
					"balance()": "b69ef8a8",
					"btc1()": "c2c496ec",
					"btc2()": "28780a44",
					"btc3()": "20e731a1",
					"btc4()": "103347e7",
					"btc5()": "0c03a1a3",
					"btc6()": "b4ad7fa9",
					"btc7()": "ed2fa5ab",
					"btc8()": "a8bdb68b",
					"btp()": "2c9af64c",
					"buyers(uint256)": "f2aa8218",
					"getBalance(address)": "f8b2cb4f",
					"getConsumerTariff(uint256)": "721028ec",
					"getProsumerTariff(uint256)": "5c8f6b56",
					"getSellers()": "7ee454cb",
					"getnPnCnEV(uint256,uint256,uint256)": "f02e48c3",
					"manager()": "481c6a75",
					"owner()": "8da5cb5b",
					"seller(uint256)": "aacdfe6f",
					"sellerID(uint256)": "354f58c0",
					"send(address,uint256)": "d0679d34"
				}
			},
			"storageLayout": {
				"storage": [
					{
						"astId": 3,
						"contract": "eth based/truffle/contracts/FLIR_Contract.sol:FLIRContract",
						"label": "owner",
						"offset": 0,
						"slot": "0",
						"type": "t_address"
					},
					{
						"astId": 5,
						"contract": "eth based/truffle/contracts/FLIR_Contract.sol:FLIRContract",
						"label": "manager",
						"offset": 0,
						"slot": "1",
						"type": "t_address"
					},
					{
						"astId": 9,
						"contract": "eth based/truffle/contracts/FLIR_Contract.sol:FLIRContract",
						"label": "seller",
						"offset": 0,
						"slot": "2",
						"type": "t_array(t_address)10_storage"
					},
					{
						"astId": 13,
						"contract": "eth based/truffle/contracts/FLIR_Contract.sol:FLIRContract",
						"label": "buyers",
						"offset": 0,
						"slot": "12",
						"type": "t_array(t_address)10_storage"
					},
					{
						"astId": 16,
						"contract": "eth based/truffle/contracts/FLIR_Contract.sol:FLIRContract",
						"label": "balance",
						"offset": 0,
						"slot": "22",
						"type": "t_uint256"
					},
					{
						"astId": 19,
						"contract": "eth based/truffle/contracts/FLIR_Contract.sol:FLIRContract",
						"label": "btp",
						"offset": 0,
						"slot": "23",
						"type": "t_uint256"
					},
					{
						"astId": 22,
						"contract": "eth based/truffle/contracts/FLIR_Contract.sol:FLIRContract",
						"label": "btc1",
						"offset": 0,
						"slot": "24",
						"type": "t_uint256"
					},
					{
						"astId": 25,
						"contract": "eth based/truffle/contracts/FLIR_Contract.sol:FLIRContract",
						"label": "btc2",
						"offset": 0,
						"slot": "25",
						"type": "t_uint256"
					},
					{
						"astId": 28,
						"contract": "eth based/truffle/contracts/FLIR_Contract.sol:FLIRContract",
						"label": "btc3",
						"offset": 0,
						"slot": "26",
						"type": "t_uint256"
					},
					{
						"astId": 31,
						"contract": "eth based/truffle/contracts/FLIR_Contract.sol:FLIRContract",
						"label": "btc4",
						"offset": 0,
						"slot": "27",
						"type": "t_uint256"
					},
					{
						"astId": 34,
						"contract": "eth based/truffle/contracts/FLIR_Contract.sol:FLIRContract",
						"label": "btc5",
						"offset": 0,
						"slot": "28",
						"type": "t_uint256"
					},
					{
						"astId": 37,
						"contract": "eth based/truffle/contracts/FLIR_Contract.sol:FLIRContract",
						"label": "btc6",
						"offset": 0,
						"slot": "29",
						"type": "t_uint256"
					},
					{
						"astId": 40,
						"contract": "eth based/truffle/contracts/FLIR_Contract.sol:FLIRContract",
						"label": "btc7",
						"offset": 0,
						"slot": "30",
						"type": "t_uint256"
					},
					{
						"astId": 43,
						"contract": "eth based/truffle/contracts/FLIR_Contract.sol:FLIRContract",
						"label": "btc8",
						"offset": 0,
						"slot": "31",
						"type": "t_uint256"
					}
				],
				"types": {
					"t_address": {
						"encoding": "inplace",
						"label": "address",
						"numberOfBytes": "20"
					},
					"t_array(t_address)10_storage": {
						"base": "t_address",
						"encoding": "inplace",
						"label": "address[10]",
						"numberOfBytes": "320"
					},
					"t_uint256": {
						"encoding": "inplace",
						"label": "uint256",
						"numberOfBytes": "32"
					}
				}
			},
			"userdoc": {
				"kind": "user",
				"methods": {},
				"version": 1
			}
		}
	}
}