{
	"eth based/truffle/contracts/FLIR_Contract.sol": {
		"FLIRContract": {
			"abi": [
				{
					"constant": true,
					"inputs": [],
					"name": "btc5",
					"outputs": [
						{
							"name": "",
							"type": "uint256"
						}
					],
					"payable": false,
					"stateMutability": "view",
					"type": "function"
				},
				{
					"constant": true,
					"inputs": [],
					"name": "btc4",
					"outputs": [
						{
							"name": "",
							"type": "uint256"
						}
					],
					"payable": false,
					"stateMutability": "view",
					"type": "function"
				},
				{
					"constant": true,
					"inputs": [],
					"name": "btc3",
					"outputs": [
						{
							"name": "",
							"type": "uint256"
						}
					],
					"payable": false,
					"stateMutability": "view",
					"type": "function"
				},
				{
					"constant": true,
					"inputs": [],
					"name": "btc2",
					"outputs": [
						{
							"name": "",
							"type": "uint256"
						}
					],
					"payable": false,
					"stateMutability": "view",
					"type": "function"
				},
				{
					"constant": true,
					"inputs": [],
					"name": "btp",
					"outputs": [
						{
							"name": "",
							"type": "uint256"
						}
					],
					"payable": false,
					"stateMutability": "view",
					"type": "function"
				},
				{
					"constant": false,
					"inputs": [
						{
							"name": "Pexp",
							"type": "uint256"
						}
					],
					"name": "getProsumerTariff",
					"outputs": [
						{
							"name": "Tp",
							"type": "uint256"
						}
					],
					"payable": false,
					"stateMutability": "nonpayable",
					"type": "function"
				},
				{
					"constant": false,
					"inputs": [
						{
							"name": "Cimp",
							"type": "uint256"
						}
					],
					"name": "getConsumerTariff",
					"outputs": [
						{
							"name": "Tc",
							"type": "uint256"
						}
					],
					"payable": false,
					"stateMutability": "nonpayable",
					"type": "function"
				},
				{
					"constant": false,
					"inputs": [],
					"name": "balCheck",
					"outputs": [],
					"payable": true,
					"stateMutability": "payable",
					"type": "function"
				},
				{
					"constant": true,
					"inputs": [],
					"name": "btc8",
					"outputs": [
						{
							"name": "",
							"type": "uint256"
						}
					],
					"payable": false,
					"stateMutability": "view",
					"type": "function"
				},
				{
					"constant": true,
					"inputs": [],
					"name": "btc6",
					"outputs": [
						{
							"name": "",
							"type": "uint256"
						}
					],
					"payable": false,
					"stateMutability": "view",
					"type": "function"
				},
				{
					"constant": true,
					"inputs": [],
					"name": "balance",
					"outputs": [
						{
							"name": "",
							"type": "uint256"
						}
					],
					"payable": false,
					"stateMutability": "view",
					"type": "function"
				},
				{
					"constant": true,
					"inputs": [],
					"name": "btc1",
					"outputs": [
						{
							"name": "",
							"type": "uint256"
						}
					],
					"payable": false,
					"stateMutability": "view",
					"type": "function"
				},
				{
					"constant": false,
					"inputs": [
						{
							"name": "_receiver",
							"type": "address"
						},
						{
							"name": "amount",
							"type": "uint256"
						}
					],
					"name": "send",
					"outputs": [],
					"payable": true,
					"stateMutability": "payable",
					"type": "function"
				},
				{
					"constant": true,
					"inputs": [],
					"name": "btc7",
					"outputs": [
						{
							"name": "",
							"type": "uint256"
						}
					],
					"payable": false,
					"stateMutability": "view",
					"type": "function"
				},
				{
					"constant": false,
					"inputs": [
						{
							"name": "nPget",
							"type": "uint256"
						},
						{
							"name": "nCget",
							"type": "uint256"
						},
						{
							"name": "nEVget",
							"type": "uint256"
						}
					],
					"name": "getnPnCnEV",
					"outputs": [
						{
							"name": "nP",
							"type": "uint256"
						},
						{
							"name": "nC",
							"type": "uint256"
						},
						{
							"name": "nEV",
							"type": "uint256"
						}
					],
					"payable": false,
					"stateMutability": "nonpayable",
					"type": "function"
				}
			],
			"devdoc": {
				"methods": {}
			},
			"evm": {
				"assembly": "    /* \"eth based/truffle/contracts/FLIR_Contract.sol\":129:3565  contract FLIRContract{... */\n  mstore(0x40, 0x80)\n    /* \"eth based/truffle/contracts/FLIR_Contract.sol\":578:579  0 */\n  0x0\n    /* \"eth based/truffle/contracts/FLIR_Contract.sol\":556:579  uint public balance = 0 */\n  0x2\n  sstore\n    /* \"eth based/truffle/contracts/FLIR_Contract.sol\":705:706  3 */\n  0x3\n    /* \"eth based/truffle/contracts/FLIR_Contract.sol\":687:706  uint public btp = 3 */\n  dup1\n  sstore\n    /* \"eth based/truffle/contracts/FLIR_Contract.sol\":732:733  3 */\n  0x3\n    /* \"eth based/truffle/contracts/FLIR_Contract.sol\":713:733  uint public btc1 = 3 */\n  0x4\n  sstore\n    /* \"eth based/truffle/contracts/FLIR_Contract.sol\":758:759  4 */\n  0x4\n    /* \"eth based/truffle/contracts/FLIR_Contract.sol\":739:759  uint public btc2 = 4 */\n  0x5\n  sstore\n    /* \"eth based/truffle/contracts/FLIR_Contract.sol\":784:785  5 */\n  0x5\n    /* \"eth based/truffle/contracts/FLIR_Contract.sol\":765:785  uint public btc3 = 5 */\n  0x6\n  sstore\n    /* \"eth based/truffle/contracts/FLIR_Contract.sol\":810:811  6 */\n  0x6\n    /* \"eth based/truffle/contracts/FLIR_Contract.sol\":791:811  uint public btc4 = 6 */\n  0x7\n  sstore\n    /* \"eth based/truffle/contracts/FLIR_Contract.sol\":836:837  7 */\n  0x7\n    /* \"eth based/truffle/contracts/FLIR_Contract.sol\":817:837  uint public btc5 = 7 */\n  0x8\n  sstore\n    /* \"eth based/truffle/contracts/FLIR_Contract.sol\":862:863  8 */\n  0x8\n    /* \"eth based/truffle/contracts/FLIR_Contract.sol\":843:863  uint public btc6 = 8 */\n  0x9\n  sstore\n    /* \"eth based/truffle/contracts/FLIR_Contract.sol\":888:889  9 */\n  0x9\n    /* \"eth based/truffle/contracts/FLIR_Contract.sol\":869:889  uint public btc7 = 9 */\n  0xa\n  sstore\n    /* \"eth based/truffle/contracts/FLIR_Contract.sol\":914:916  10 */\n  0xa\n    /* \"eth based/truffle/contracts/FLIR_Contract.sol\":895:916  uint public btc8 = 10 */\n  0xb\n  sstore\n    /* \"eth based/truffle/contracts/FLIR_Contract.sol\":129:3565  contract FLIRContract{... */\n  callvalue\n    /* \"--CODEGEN--\":8:17   */\n  dup1\n    /* \"--CODEGEN--\":5:7   */\n  iszero\n  tag_1\n  jumpi\n    /* \"--CODEGEN--\":30:31   */\n  0x0\n    /* \"--CODEGEN--\":27:28   */\n  dup1\n    /* \"--CODEGEN--\":20:32   */\n  revert\n    /* \"--CODEGEN--\":5:7   */\ntag_1:\n    /* \"eth based/truffle/contracts/FLIR_Contract.sol\":129:3565  contract FLIRContract{... */\n  pop\n  dataSize(sub_0)\n  dup1\n  dataOffset(sub_0)\n  0x0\n  codecopy\n  0x0\n  return\nstop\n\nsub_0: assembly {\n        /* \"eth based/truffle/contracts/FLIR_Contract.sol\":129:3565  contract FLIRContract{... */\n      mstore(0x40, 0x80)\n      jumpi(tag_1, lt(calldatasize, 0x4))\n      calldataload(0x0)\n      0x100000000000000000000000000000000000000000000000000000000\n      swap1\n      div\n      0xffffffff\n      and\n      dup1\n      0xc03a1a3\n      eq\n      tag_2\n      jumpi\n      dup1\n      0x103347e7\n      eq\n      tag_3\n      jumpi\n      dup1\n      0x20e731a1\n      eq\n      tag_4\n      jumpi\n      dup1\n      0x28780a44\n      eq\n      tag_5\n      jumpi\n      dup1\n      0x2c9af64c\n      eq\n      tag_6\n      jumpi\n      dup1\n      0x5c8f6b56\n      eq\n      tag_7\n      jumpi\n      dup1\n      0x721028ec\n      eq\n      tag_8\n      jumpi\n      dup1\n      0x7c134b14\n      eq\n      tag_9\n      jumpi\n      dup1\n      0xa8bdb68b\n      eq\n      tag_10\n      jumpi\n      dup1\n      0xb4ad7fa9\n      eq\n      tag_11\n      jumpi\n      dup1\n      0xb69ef8a8\n      eq\n      tag_12\n      jumpi\n      dup1\n      0xc2c496ec\n      eq\n      tag_13\n      jumpi\n      dup1\n      0xd0679d34\n      eq\n      tag_14\n      jumpi\n      dup1\n      0xed2fa5ab\n      eq\n      tag_15\n      jumpi\n      dup1\n      0xf02e48c3\n      eq\n      tag_16\n      jumpi\n    tag_1:\n      0x0\n      dup1\n      revert\n        /* \"eth based/truffle/contracts/FLIR_Contract.sol\":817:837  uint public btc5 = 7 */\n    tag_2:\n      callvalue\n        /* \"--CODEGEN--\":8:17   */\n      dup1\n        /* \"--CODEGEN--\":5:7   */\n      iszero\n      tag_17\n      jumpi\n        /* \"--CODEGEN--\":30:31   */\n      0x0\n        /* \"--CODEGEN--\":27:28   */\n      dup1\n        /* \"--CODEGEN--\":20:32   */\n      revert\n        /* \"--CODEGEN--\":5:7   */\n    tag_17:\n        /* \"eth based/truffle/contracts/FLIR_Contract.sol\":817:837  uint public btc5 = 7 */\n      pop\n      tag_18\n      jump(tag_19)\n    tag_18:\n      mload(0x40)\n      dup1\n      dup3\n      dup2\n      mstore\n      0x20\n      add\n      swap2\n      pop\n      pop\n      mload(0x40)\n      dup1\n      swap2\n      sub\n      swap1\n      return\n        /* \"eth based/truffle/contracts/FLIR_Contract.sol\":791:811  uint public btc4 = 6 */\n    tag_3:\n      callvalue\n        /* \"--CODEGEN--\":8:17   */\n      dup1\n        /* \"--CODEGEN--\":5:7   */\n      iszero\n      tag_20\n      jumpi\n        /* \"--CODEGEN--\":30:31   */\n      0x0\n        /* \"--CODEGEN--\":27:28   */\n      dup1\n        /* \"--CODEGEN--\":20:32   */\n      revert\n        /* \"--CODEGEN--\":5:7   */\n    tag_20:\n        /* \"eth based/truffle/contracts/FLIR_Contract.sol\":791:811  uint public btc4 = 6 */\n      pop\n      tag_21\n      jump(tag_22)\n    tag_21:\n      mload(0x40)\n      dup1\n      dup3\n      dup2\n      mstore\n      0x20\n      add\n      swap2\n      pop\n      pop\n      mload(0x40)\n      dup1\n      swap2\n      sub\n      swap1\n      return\n        /* \"eth based/truffle/contracts/FLIR_Contract.sol\":765:785  uint public btc3 = 5 */\n    tag_4:\n      callvalue\n        /* \"--CODEGEN--\":8:17   */\n      dup1\n        /* \"--CODEGEN--\":5:7   */\n      iszero\n      tag_23\n      jumpi\n        /* \"--CODEGEN--\":30:31   */\n      0x0\n        /* \"--CODEGEN--\":27:28   */\n      dup1\n        /* \"--CODEGEN--\":20:32   */\n      revert\n        /* \"--CODEGEN--\":5:7   */\n    tag_23:\n        /* \"eth based/truffle/contracts/FLIR_Contract.sol\":765:785  uint public btc3 = 5 */\n      pop\n      tag_24\n      jump(tag_25)\n    tag_24:\n      mload(0x40)\n      dup1\n      dup3\n      dup2\n      mstore\n      0x20\n      add\n      swap2\n      pop\n      pop\n      mload(0x40)\n      dup1\n      swap2\n      sub\n      swap1\n      return\n        /* \"eth based/truffle/contracts/FLIR_Contract.sol\":739:759  uint public btc2 = 4 */\n    tag_5:\n      callvalue\n        /* \"--CODEGEN--\":8:17   */\n      dup1\n        /* \"--CODEGEN--\":5:7   */\n      iszero\n      tag_26\n      jumpi\n        /* \"--CODEGEN--\":30:31   */\n      0x0\n        /* \"--CODEGEN--\":27:28   */\n      dup1\n        /* \"--CODEGEN--\":20:32   */\n      revert\n        /* \"--CODEGEN--\":5:7   */\n    tag_26:\n        /* \"eth based/truffle/contracts/FLIR_Contract.sol\":739:759  uint public btc2 = 4 */\n      pop\n      tag_27\n      jump(tag_28)\n    tag_27:\n      mload(0x40)\n      dup1\n      dup3\n      dup2\n      mstore\n      0x20\n      add\n      swap2\n      pop\n      pop\n      mload(0x40)\n      dup1\n      swap2\n      sub\n      swap1\n      return\n        /* \"eth based/truffle/contracts/FLIR_Contract.sol\":687:706  uint public btp = 3 */\n    tag_6:\n      callvalue\n        /* \"--CODEGEN--\":8:17   */\n      dup1\n        /* \"--CODEGEN--\":5:7   */\n      iszero\n      tag_29\n      jumpi\n        /* \"--CODEGEN--\":30:31   */\n      0x0\n        /* \"--CODEGEN--\":27:28   */\n      dup1\n        /* \"--CODEGEN--\":20:32   */\n      revert\n        /* \"--CODEGEN--\":5:7   */\n    tag_29:\n        /* \"eth based/truffle/contracts/FLIR_Contract.sol\":687:706  uint public btp = 3 */\n      pop\n      tag_30\n      jump(tag_31)\n    tag_30:\n      mload(0x40)\n      dup1\n      dup3\n      dup2\n      mstore\n      0x20\n      add\n      swap2\n      pop\n      pop\n      mload(0x40)\n      dup1\n      swap2\n      sub\n      swap1\n      return\n        /* \"eth based/truffle/contracts/FLIR_Contract.sol\":1259:1374  function getProsumerTariff(uint Pexp) public returns (uint Tp){... */\n    tag_7:\n      callvalue\n        /* \"--CODEGEN--\":8:17   */\n      dup1\n        /* \"--CODEGEN--\":5:7   */\n      iszero\n      tag_32\n      jumpi\n        /* \"--CODEGEN--\":30:31   */\n      0x0\n        /* \"--CODEGEN--\":27:28   */\n      dup1\n        /* \"--CODEGEN--\":20:32   */\n      revert\n        /* \"--CODEGEN--\":5:7   */\n    tag_32:\n        /* \"eth based/truffle/contracts/FLIR_Contract.sol\":1259:1374  function getProsumerTariff(uint Pexp) public returns (uint Tp){... */\n      pop\n      tag_33\n      0x4\n      dup1\n      calldatasize\n      sub\n      dup2\n      add\n      swap1\n      dup1\n      dup1\n      calldataload\n      swap1\n      0x20\n      add\n      swap1\n      swap3\n      swap2\n      swap1\n      pop\n      pop\n      pop\n      jump(tag_34)\n    tag_33:\n      mload(0x40)\n      dup1\n      dup3\n      dup2\n      mstore\n      0x20\n      add\n      swap2\n      pop\n      pop\n      mload(0x40)\n      dup1\n      swap2\n      sub\n      swap1\n      return\n        /* \"eth based/truffle/contracts/FLIR_Contract.sol\":1380:2370  function getConsumerTariff(uint Cimp) public returns (uint Tc){... */\n    tag_8:\n      callvalue\n        /* \"--CODEGEN--\":8:17   */\n      dup1\n        /* \"--CODEGEN--\":5:7   */\n      iszero\n      tag_35\n      jumpi\n        /* \"--CODEGEN--\":30:31   */\n      0x0\n        /* \"--CODEGEN--\":27:28   */\n      dup1\n        /* \"--CODEGEN--\":20:32   */\n      revert\n        /* \"--CODEGEN--\":5:7   */\n    tag_35:\n        /* \"eth based/truffle/contracts/FLIR_Contract.sol\":1380:2370  function getConsumerTariff(uint Cimp) public returns (uint Tc){... */\n      pop\n      tag_36\n      0x4\n      dup1\n      calldatasize\n      sub\n      dup2\n      add\n      swap1\n      dup1\n      dup1\n      calldataload\n      swap1\n      0x20\n      add\n      swap1\n      swap3\n      swap2\n      swap1\n      pop\n      pop\n      pop\n      jump(tag_37)\n    tag_36:\n      mload(0x40)\n      dup1\n      dup3\n      dup2\n      mstore\n      0x20\n      add\n      swap2\n      pop\n      pop\n      mload(0x40)\n      dup1\n      swap2\n      sub\n      swap1\n      return\n        /* \"eth based/truffle/contracts/FLIR_Contract.sol\":2572:2640  function balCheck() public payable {... */\n    tag_9:\n      tag_38\n      jump(tag_39)\n    tag_38:\n      stop\n        /* \"eth based/truffle/contracts/FLIR_Contract.sol\":895:916  uint public btc8 = 10 */\n    tag_10:\n      callvalue\n        /* \"--CODEGEN--\":8:17   */\n      dup1\n        /* \"--CODEGEN--\":5:7   */\n      iszero\n      tag_40\n      jumpi\n        /* \"--CODEGEN--\":30:31   */\n      0x0\n        /* \"--CODEGEN--\":27:28   */\n      dup1\n        /* \"--CODEGEN--\":20:32   */\n      revert\n        /* \"--CODEGEN--\":5:7   */\n    tag_40:\n        /* \"eth based/truffle/contracts/FLIR_Contract.sol\":895:916  uint public btc8 = 10 */\n      pop\n      tag_41\n      jump(tag_42)\n    tag_41:\n      mload(0x40)\n      dup1\n      dup3\n      dup2\n      mstore\n      0x20\n      add\n      swap2\n      pop\n      pop\n      mload(0x40)\n      dup1\n      swap2\n      sub\n      swap1\n      return\n        /* \"eth based/truffle/contracts/FLIR_Contract.sol\":843:863  uint public btc6 = 8 */\n    tag_11:\n      callvalue\n        /* \"--CODEGEN--\":8:17   */\n      dup1\n        /* \"--CODEGEN--\":5:7   */\n      iszero\n      tag_43\n      jumpi\n        /* \"--CODEGEN--\":30:31   */\n      0x0\n        /* \"--CODEGEN--\":27:28   */\n      dup1\n        /* \"--CODEGEN--\":20:32   */\n      revert\n        /* \"--CODEGEN--\":5:7   */\n    tag_43:\n        /* \"eth based/truffle/contracts/FLIR_Contract.sol\":843:863  uint public btc6 = 8 */\n      pop\n      tag_44\n      jump(tag_45)\n    tag_44:\n      mload(0x40)\n      dup1\n      dup3\n      dup2\n      mstore\n      0x20\n      add\n      swap2\n      pop\n      pop\n      mload(0x40)\n      dup1\n      swap2\n      sub\n      swap1\n      return\n        /* \"eth based/truffle/contracts/FLIR_Contract.sol\":556:579  uint public balance = 0 */\n    tag_12:\n      callvalue\n        /* \"--CODEGEN--\":8:17   */\n      dup1\n        /* \"--CODEGEN--\":5:7   */\n      iszero\n      tag_46\n      jumpi\n        /* \"--CODEGEN--\":30:31   */\n      0x0\n        /* \"--CODEGEN--\":27:28   */\n      dup1\n        /* \"--CODEGEN--\":20:32   */\n      revert\n        /* \"--CODEGEN--\":5:7   */\n    tag_46:\n        /* \"eth based/truffle/contracts/FLIR_Contract.sol\":556:579  uint public balance = 0 */\n      pop\n      tag_47\n      jump(tag_48)\n    tag_47:\n      mload(0x40)\n      dup1\n      dup3\n      dup2\n      mstore\n      0x20\n      add\n      swap2\n      pop\n      pop\n      mload(0x40)\n      dup1\n      swap2\n      sub\n      swap1\n      return\n        /* \"eth based/truffle/contracts/FLIR_Contract.sol\":713:733  uint public btc1 = 3 */\n    tag_13:\n      callvalue\n        /* \"--CODEGEN--\":8:17   */\n      dup1\n        /* \"--CODEGEN--\":5:7   */\n      iszero\n      tag_49\n      jumpi\n        /* \"--CODEGEN--\":30:31   */\n      0x0\n        /* \"--CODEGEN--\":27:28   */\n      dup1\n        /* \"--CODEGEN--\":20:32   */\n      revert\n        /* \"--CODEGEN--\":5:7   */\n    tag_49:\n        /* \"eth based/truffle/contracts/FLIR_Contract.sol\":713:733  uint public btc1 = 3 */\n      pop\n      tag_50\n      jump(tag_51)\n    tag_50:\n      mload(0x40)\n      dup1\n      dup3\n      dup2\n      mstore\n      0x20\n      add\n      swap2\n      pop\n      pop\n      mload(0x40)\n      dup1\n      swap2\n      sub\n      swap1\n      return\n        /* \"eth based/truffle/contracts/FLIR_Contract.sol\":2376:2566  function send(address _receiver, uint amount) payable public {... */\n    tag_14:\n      tag_52\n      0x4\n      dup1\n      calldatasize\n      sub\n      dup2\n      add\n      swap1\n      dup1\n      dup1\n      calldataload\n      0xffffffffffffffffffffffffffffffffffffffff\n      and\n      swap1\n      0x20\n      add\n      swap1\n      swap3\n      swap2\n      swap1\n      dup1\n      calldataload\n      swap1\n      0x20\n      add\n      swap1\n      swap3\n      swap2\n      swap1\n      pop\n      pop\n      pop\n      jump(tag_53)\n    tag_52:\n      stop\n        /* \"eth based/truffle/contracts/FLIR_Contract.sol\":869:889  uint public btc7 = 9 */\n    tag_15:\n      callvalue\n        /* \"--CODEGEN--\":8:17   */\n      dup1\n        /* \"--CODEGEN--\":5:7   */\n      iszero\n      tag_54\n      jumpi\n        /* \"--CODEGEN--\":30:31   */\n      0x0\n        /* \"--CODEGEN--\":27:28   */\n      dup1\n        /* \"--CODEGEN--\":20:32   */\n      revert\n        /* \"--CODEGEN--\":5:7   */\n    tag_54:\n        /* \"eth based/truffle/contracts/FLIR_Contract.sol\":869:889  uint public btc7 = 9 */\n      pop\n      tag_55\n      jump(tag_56)\n    tag_55:\n      mload(0x40)\n      dup1\n      dup3\n      dup2\n      mstore\n      0x20\n      add\n      swap2\n      pop\n      pop\n      mload(0x40)\n      dup1\n      swap2\n      sub\n      swap1\n      return\n        /* \"eth based/truffle/contracts/FLIR_Contract.sol\":930:1253  function getnPnCnEV(uint nPget, uint nCget,uint nEVget) public... */\n    tag_16:\n      callvalue\n        /* \"--CODEGEN--\":8:17   */\n      dup1\n        /* \"--CODEGEN--\":5:7   */\n      iszero\n      tag_57\n      jumpi\n        /* \"--CODEGEN--\":30:31   */\n      0x0\n        /* \"--CODEGEN--\":27:28   */\n      dup1\n        /* \"--CODEGEN--\":20:32   */\n      revert\n        /* \"--CODEGEN--\":5:7   */\n    tag_57:\n        /* \"eth based/truffle/contracts/FLIR_Contract.sol\":930:1253  function getnPnCnEV(uint nPget, uint nCget,uint nEVget) public... */\n      pop\n      tag_58\n      0x4\n      dup1\n      calldatasize\n      sub\n      dup2\n      add\n      swap1\n      dup1\n      dup1\n      calldataload\n      swap1\n      0x20\n      add\n      swap1\n      swap3\n      swap2\n      swap1\n      dup1\n      calldataload\n      swap1\n      0x20\n      add\n      swap1\n      swap3\n      swap2\n      swap1\n      dup1\n      calldataload\n      swap1\n      0x20\n      add\n      swap1\n      swap3\n      swap2\n      swap1\n      pop\n      pop\n      pop\n      jump(tag_59)\n    tag_58:\n      mload(0x40)\n      dup1\n      dup5\n      dup2\n      mstore\n      0x20\n      add\n      dup4\n      dup2\n      mstore\n      0x20\n      add\n      dup3\n      dup2\n      mstore\n      0x20\n      add\n      swap4\n      pop\n      pop\n      pop\n      pop\n      mload(0x40)\n      dup1\n      swap2\n      sub\n      swap1\n      return\n        /* \"eth based/truffle/contracts/FLIR_Contract.sol\":817:837  uint public btc5 = 7 */\n    tag_19:\n      sload(0x8)\n      dup2\n      jump\t// out\n        /* \"eth based/truffle/contracts/FLIR_Contract.sol\":791:811  uint public btc4 = 6 */\n    tag_22:\n      sload(0x7)\n      dup2\n      jump\t// out\n        /* \"eth based/truffle/contracts/FLIR_Contract.sol\":765:785  uint public btc3 = 5 */\n    tag_25:\n      sload(0x6)\n      dup2\n      jump\t// out\n        /* \"eth based/truffle/contracts/FLIR_Contract.sol\":739:759  uint public btc2 = 4 */\n    tag_28:\n      sload(0x5)\n      dup2\n      jump\t// out\n        /* \"eth based/truffle/contracts/FLIR_Contract.sol\":687:706  uint public btp = 3 */\n    tag_31:\n      sload(0x3)\n      dup2\n      jump\t// out\n        /* \"eth based/truffle/contracts/FLIR_Contract.sol\":1259:1374  function getProsumerTariff(uint Pexp) public returns (uint Tp){... */\n    tag_34:\n        /* \"eth based/truffle/contracts/FLIR_Contract.sol\":1313:1320  uint Tp */\n      0x0\n        /* \"eth based/truffle/contracts/FLIR_Contract.sol\":1343:1346  btp */\n      sload(0x3)\n        /* \"eth based/truffle/contracts/FLIR_Contract.sol\":1336:1340  Pexp */\n      dup3\n        /* \"eth based/truffle/contracts/FLIR_Contract.sol\":1336:1346  Pexp * btp */\n      mul\n        /* \"eth based/truffle/contracts/FLIR_Contract.sol\":1331:1346  Tp = Pexp * btp */\n      swap1\n      pop\n        /* \"eth based/truffle/contracts/FLIR_Contract.sol\":1364:1366  Tp */\n      dup1\n        /* \"eth based/truffle/contracts/FLIR_Contract.sol\":1356:1367  return (Tp) */\n      swap1\n      pop\n        /* \"eth based/truffle/contracts/FLIR_Contract.sol\":1259:1374  function getProsumerTariff(uint Pexp) public returns (uint Tp){... */\n      swap2\n      swap1\n      pop\n      jump\t// out\n        /* \"eth based/truffle/contracts/FLIR_Contract.sol\":1380:2370  function getConsumerTariff(uint Cimp) public returns (uint Tc){... */\n    tag_37:\n        /* \"eth based/truffle/contracts/FLIR_Contract.sol\":1434:1441  uint Tc */\n      0x0\n        /* \"eth based/truffle/contracts/FLIR_Contract.sol\":1471:1474  251 */\n      0xfb\n        /* \"eth based/truffle/contracts/FLIR_Contract.sol\":1464:1468  Cimp */\n      dup3\n        /* \"eth based/truffle/contracts/FLIR_Contract.sol\":1464:1474  Cimp < 251 */\n      lt\n        /* \"eth based/truffle/contracts/FLIR_Contract.sol\":1461:2343  if(Cimp < 251){... */\n      iszero\n      tag_62\n      jumpi\n        /* \"eth based/truffle/contracts/FLIR_Contract.sol\":1499:1501  51 */\n      0x33\n        /* \"eth based/truffle/contracts/FLIR_Contract.sol\":1492:1496  Cimp */\n      dup3\n        /* \"eth based/truffle/contracts/FLIR_Contract.sol\":1492:1501  Cimp < 51 */\n      lt\n        /* \"eth based/truffle/contracts/FLIR_Contract.sol\":1489:2098  if(Cimp < 51){... */\n      iszero\n      tag_63\n      jumpi\n        /* \"eth based/truffle/contracts/FLIR_Contract.sol\":1532:1536  btc1 */\n      sload(0x4)\n        /* \"eth based/truffle/contracts/FLIR_Contract.sol\":1525:1529  Cimp */\n      dup3\n        /* \"eth based/truffle/contracts/FLIR_Contract.sol\":1525:1536  Cimp * btc1 */\n      mul\n        /* \"eth based/truffle/contracts/FLIR_Contract.sol\":1520:1536  Tc = Cimp * btc1 */\n      swap1\n      pop\n        /* \"eth based/truffle/contracts/FLIR_Contract.sol\":1489:2098  if(Cimp < 51){... */\n      jump(tag_64)\n    tag_63:\n        /* \"eth based/truffle/contracts/FLIR_Contract.sol\":1579:1581  50 */\n      0x32\n        /* \"eth based/truffle/contracts/FLIR_Contract.sol\":1572:1576  Cimp */\n      dup3\n        /* \"eth based/truffle/contracts/FLIR_Contract.sol\":1572:1581  Cimp > 50 */\n      gt\n        /* \"eth based/truffle/contracts/FLIR_Contract.sol\":1572:1595  Cimp > 50 && Cimp < 101 */\n      dup1\n      iszero\n      tag_65\n      jumpi\n      pop\n        /* \"eth based/truffle/contracts/FLIR_Contract.sol\":1592:1595  101 */\n      0x65\n        /* \"eth based/truffle/contracts/FLIR_Contract.sol\":1585:1589  Cimp */\n      dup3\n        /* \"eth based/truffle/contracts/FLIR_Contract.sol\":1585:1595  Cimp < 101 */\n      lt\n        /* \"eth based/truffle/contracts/FLIR_Contract.sol\":1572:1595  Cimp > 50 && Cimp < 101 */\n    tag_65:\n        /* \"eth based/truffle/contracts/FLIR_Contract.sol\":1569:2098  if(Cimp > 50 && Cimp < 101){... */\n      iszero\n      tag_66\n      jumpi\n        /* \"eth based/truffle/contracts/FLIR_Contract.sol\":1646:1650  btc2 */\n      sload(0x5)\n        /* \"eth based/truffle/contracts/FLIR_Contract.sol\":1640:1642  50 */\n      0x32\n        /* \"eth based/truffle/contracts/FLIR_Contract.sol\":1635:1639  Cimp */\n      dup4\n        /* \"eth based/truffle/contracts/FLIR_Contract.sol\":1635:1642  Cimp-50 */\n      sub\n        /* \"eth based/truffle/contracts/FLIR_Contract.sol\":1634:1650  (Cimp-50) * btc2 */\n      mul\n        /* \"eth based/truffle/contracts/FLIR_Contract.sol\":1625:1629  btc1 */\n      sload(0x4)\n        /* \"eth based/truffle/contracts/FLIR_Contract.sol\":1620:1622  50 */\n      0x32\n        /* \"eth based/truffle/contracts/FLIR_Contract.sol\":1620:1629  50 * btc1 */\n      mul\n        /* \"eth based/truffle/contracts/FLIR_Contract.sol\":1619:1651  (50 * btc1) + ((Cimp-50) * btc2) */\n      add\n        /* \"eth based/truffle/contracts/FLIR_Contract.sol\":1614:1651  Tc = (50 * btc1) + ((Cimp-50) * btc2) */\n      swap1\n      pop\n        /* \"eth based/truffle/contracts/FLIR_Contract.sol\":1569:2098  if(Cimp > 50 && Cimp < 101){... */\n      jump(tag_67)\n    tag_66:\n        /* \"eth based/truffle/contracts/FLIR_Contract.sol\":1694:1697  100 */\n      0x64\n        /* \"eth based/truffle/contracts/FLIR_Contract.sol\":1687:1691  Cimp */\n      dup3\n        /* \"eth based/truffle/contracts/FLIR_Contract.sol\":1687:1697  Cimp > 100 */\n      gt\n        /* \"eth based/truffle/contracts/FLIR_Contract.sol\":1687:1711  Cimp > 100 && Cimp < 151 */\n      dup1\n      iszero\n      tag_68\n      jumpi\n      pop\n        /* \"eth based/truffle/contracts/FLIR_Contract.sol\":1708:1711  151 */\n      0x97\n        /* \"eth based/truffle/contracts/FLIR_Contract.sol\":1701:1705  Cimp */\n      dup3\n        /* \"eth based/truffle/contracts/FLIR_Contract.sol\":1701:1711  Cimp < 151 */\n      lt\n        /* \"eth based/truffle/contracts/FLIR_Contract.sol\":1687:1711  Cimp > 100 && Cimp < 151 */\n    tag_68:\n        /* \"eth based/truffle/contracts/FLIR_Contract.sol\":1684:2098  if(Cimp > 100 && Cimp < 151){... */\n      iszero\n      tag_69\n      jumpi\n        /* \"eth based/truffle/contracts/FLIR_Contract.sol\":1776:1780  btc3 */\n      sload(0x6)\n        /* \"eth based/truffle/contracts/FLIR_Contract.sol\":1770:1772  50 */\n      0x32\n        /* \"eth based/truffle/contracts/FLIR_Contract.sol\":1765:1769  Cimp */\n      dup4\n        /* \"eth based/truffle/contracts/FLIR_Contract.sol\":1765:1772  Cimp-50 */\n      sub\n        /* \"eth based/truffle/contracts/FLIR_Contract.sol\":1764:1780  (Cimp-50) * btc3 */\n      mul\n        /* \"eth based/truffle/contracts/FLIR_Contract.sol\":1755:1759  btc2 */\n      sload(0x5)\n        /* \"eth based/truffle/contracts/FLIR_Contract.sol\":1750:1752  50 */\n      0x32\n        /* \"eth based/truffle/contracts/FLIR_Contract.sol\":1750:1759  50 * btc2 */\n      mul\n        /* \"eth based/truffle/contracts/FLIR_Contract.sol\":1741:1745  btc1 */\n      sload(0x4)\n        /* \"eth based/truffle/contracts/FLIR_Contract.sol\":1736:1738  50 */\n      0x32\n        /* \"eth based/truffle/contracts/FLIR_Contract.sol\":1736:1745  50 * btc1 */\n      mul\n        /* \"eth based/truffle/contracts/FLIR_Contract.sol\":1735:1760  (50 * btc1) + (50 * btc2) */\n      add\n        /* \"eth based/truffle/contracts/FLIR_Contract.sol\":1735:1781  (50 * btc1) + (50 * btc2) + ((Cimp-50) * btc3) */\n      add\n        /* \"eth based/truffle/contracts/FLIR_Contract.sol\":1730:1781  Tc = (50 * btc1) + (50 * btc2) + ((Cimp-50) * btc3) */\n      swap1\n      pop\n        /* \"eth based/truffle/contracts/FLIR_Contract.sol\":1684:2098  if(Cimp > 100 && Cimp < 151){... */\n      jump(tag_70)\n    tag_69:\n        /* \"eth based/truffle/contracts/FLIR_Contract.sol\":1824:1827  150 */\n      0x96\n        /* \"eth based/truffle/contracts/FLIR_Contract.sol\":1817:1821  Cimp */\n      dup3\n        /* \"eth based/truffle/contracts/FLIR_Contract.sol\":1817:1827  Cimp > 150 */\n      gt\n        /* \"eth based/truffle/contracts/FLIR_Contract.sol\":1817:1841  Cimp > 150 && Cimp < 201 */\n      dup1\n      iszero\n      tag_71\n      jumpi\n      pop\n        /* \"eth based/truffle/contracts/FLIR_Contract.sol\":1838:1841  201 */\n      0xc9\n        /* \"eth based/truffle/contracts/FLIR_Contract.sol\":1831:1835  Cimp */\n      dup3\n        /* \"eth based/truffle/contracts/FLIR_Contract.sol\":1831:1841  Cimp < 201 */\n      lt\n        /* \"eth based/truffle/contracts/FLIR_Contract.sol\":1817:1841  Cimp > 150 && Cimp < 201 */\n    tag_71:\n        /* \"eth based/truffle/contracts/FLIR_Contract.sol\":1814:2098  if(Cimp > 150 && Cimp < 201){... */\n      iszero\n      tag_72\n      jumpi\n        /* \"eth based/truffle/contracts/FLIR_Contract.sol\":1920:1924  btc4 */\n      sload(0x7)\n        /* \"eth based/truffle/contracts/FLIR_Contract.sol\":1914:1916  50 */\n      0x32\n        /* \"eth based/truffle/contracts/FLIR_Contract.sol\":1909:1913  Cimp */\n      dup4\n        /* \"eth based/truffle/contracts/FLIR_Contract.sol\":1909:1916  Cimp-50 */\n      sub\n        /* \"eth based/truffle/contracts/FLIR_Contract.sol\":1908:1924  (Cimp-50) * btc4 */\n      mul\n        /* \"eth based/truffle/contracts/FLIR_Contract.sol\":1899:1903  btc3 */\n      sload(0x6)\n        /* \"eth based/truffle/contracts/FLIR_Contract.sol\":1894:1896  50 */\n      0x32\n        /* \"eth based/truffle/contracts/FLIR_Contract.sol\":1894:1903  50 * btc3 */\n      mul\n        /* \"eth based/truffle/contracts/FLIR_Contract.sol\":1885:1889  btc2 */\n      sload(0x5)\n        /* \"eth based/truffle/contracts/FLIR_Contract.sol\":1880:1882  50 */\n      0x32\n        /* \"eth based/truffle/contracts/FLIR_Contract.sol\":1880:1889  50 * btc2 */\n      mul\n        /* \"eth based/truffle/contracts/FLIR_Contract.sol\":1871:1875  btc1 */\n      sload(0x4)\n        /* \"eth based/truffle/contracts/FLIR_Contract.sol\":1866:1868  50 */\n      0x32\n        /* \"eth based/truffle/contracts/FLIR_Contract.sol\":1866:1875  50 * btc1 */\n      mul\n        /* \"eth based/truffle/contracts/FLIR_Contract.sol\":1865:1890  (50 * btc1) + (50 * btc2) */\n      add\n        /* \"eth based/truffle/contracts/FLIR_Contract.sol\":1865:1904  (50 * btc1) + (50 * btc2) + (50 * btc3) */\n      add\n        /* \"eth based/truffle/contracts/FLIR_Contract.sol\":1865:1925  (50 * btc1) + (50 * btc2) + (50 * btc3) + ((Cimp-50) * btc4) */\n      add\n        /* \"eth based/truffle/contracts/FLIR_Contract.sol\":1860:1925  Tc = (50 * btc1) + (50 * btc2) + (50 * btc3) + ((Cimp-50) * btc4) */\n      swap1\n      pop\n        /* \"eth based/truffle/contracts/FLIR_Contract.sol\":1814:2098  if(Cimp > 150 && Cimp < 201){... */\n      jump(tag_73)\n    tag_72:\n        /* \"eth based/truffle/contracts/FLIR_Contract.sol\":1968:1971  200 */\n      0xc8\n        /* \"eth based/truffle/contracts/FLIR_Contract.sol\":1961:1965  Cimp */\n      dup3\n        /* \"eth based/truffle/contracts/FLIR_Contract.sol\":1961:1971  Cimp > 200 */\n      gt\n        /* \"eth based/truffle/contracts/FLIR_Contract.sol\":1961:1985  Cimp > 200 && Cimp < 251 */\n      dup1\n      iszero\n      tag_74\n      jumpi\n      pop\n        /* \"eth based/truffle/contracts/FLIR_Contract.sol\":1982:1985  251 */\n      0xfb\n        /* \"eth based/truffle/contracts/FLIR_Contract.sol\":1975:1979  Cimp */\n      dup3\n        /* \"eth based/truffle/contracts/FLIR_Contract.sol\":1975:1985  Cimp < 251 */\n      lt\n        /* \"eth based/truffle/contracts/FLIR_Contract.sol\":1961:1985  Cimp > 200 && Cimp < 251 */\n    tag_74:\n        /* \"eth based/truffle/contracts/FLIR_Contract.sol\":1958:2098  if(Cimp > 200 && Cimp < 251){... */\n      iszero\n      tag_75\n      jumpi\n        /* \"eth based/truffle/contracts/FLIR_Contract.sol\":2078:2082  btc5 */\n      sload(0x8)\n        /* \"eth based/truffle/contracts/FLIR_Contract.sol\":2072:2074  50 */\n      0x32\n        /* \"eth based/truffle/contracts/FLIR_Contract.sol\":2067:2071  Cimp */\n      dup4\n        /* \"eth based/truffle/contracts/FLIR_Contract.sol\":2067:2074  Cimp-50 */\n      sub\n        /* \"eth based/truffle/contracts/FLIR_Contract.sol\":2066:2082  (Cimp-50) * btc5 */\n      mul\n        /* \"eth based/truffle/contracts/FLIR_Contract.sol\":2057:2061  btc4 */\n      sload(0x7)\n        /* \"eth based/truffle/contracts/FLIR_Contract.sol\":2052:2054  50 */\n      0x32\n        /* \"eth based/truffle/contracts/FLIR_Contract.sol\":2052:2061  50 * btc4 */\n      mul\n        /* \"eth based/truffle/contracts/FLIR_Contract.sol\":2043:2047  btc3 */\n      sload(0x6)\n        /* \"eth based/truffle/contracts/FLIR_Contract.sol\":2038:2040  50 */\n      0x32\n        /* \"eth based/truffle/contracts/FLIR_Contract.sol\":2038:2047  50 * btc3 */\n      mul\n        /* \"eth based/truffle/contracts/FLIR_Contract.sol\":2029:2033  btc2 */\n      sload(0x5)\n        /* \"eth based/truffle/contracts/FLIR_Contract.sol\":2024:2026  50 */\n      0x32\n        /* \"eth based/truffle/contracts/FLIR_Contract.sol\":2024:2033  50 * btc2 */\n      mul\n        /* \"eth based/truffle/contracts/FLIR_Contract.sol\":2015:2019  btc1 */\n      sload(0x4)\n        /* \"eth based/truffle/contracts/FLIR_Contract.sol\":2010:2012  50 */\n      0x32\n        /* \"eth based/truffle/contracts/FLIR_Contract.sol\":2010:2019  50 * btc1 */\n      mul\n        /* \"eth based/truffle/contracts/FLIR_Contract.sol\":2009:2034  (50 * btc1) + (50 * btc2) */\n      add\n        /* \"eth based/truffle/contracts/FLIR_Contract.sol\":2009:2048  (50 * btc1) + (50 * btc2) + (50 * btc3) */\n      add\n        /* \"eth based/truffle/contracts/FLIR_Contract.sol\":2009:2062  (50 * btc1) + (50 * btc2) + (50 * btc3) + (50 * btc4) */\n      add\n        /* \"eth based/truffle/contracts/FLIR_Contract.sol\":2009:2083  (50 * btc1) + (50 * btc2) + (50 * btc3) + (50 * btc4) + ((Cimp-50) * btc5) */\n      add\n        /* \"eth based/truffle/contracts/FLIR_Contract.sol\":2004:2083  Tc = (50 * btc1) + (50 * btc2) + (50 * btc3) + (50 * btc4) + ((Cimp-50) * btc5) */\n      swap1\n      pop\n        /* \"eth based/truffle/contracts/FLIR_Contract.sol\":1958:2098  if(Cimp > 200 && Cimp < 251){... */\n    tag_75:\n        /* \"eth based/truffle/contracts/FLIR_Contract.sol\":1814:2098  if(Cimp > 150 && Cimp < 201){... */\n    tag_73:\n        /* \"eth based/truffle/contracts/FLIR_Contract.sol\":1684:2098  if(Cimp > 100 && Cimp < 151){... */\n    tag_70:\n        /* \"eth based/truffle/contracts/FLIR_Contract.sol\":1569:2098  if(Cimp > 50 && Cimp < 101){... */\n    tag_67:\n        /* \"eth based/truffle/contracts/FLIR_Contract.sol\":1489:2098  if(Cimp < 51){... */\n    tag_64:\n        /* \"eth based/truffle/contracts/FLIR_Contract.sol\":1461:2343  if(Cimp < 251){... */\n      jump(tag_76)\n    tag_62:\n        /* \"eth based/truffle/contracts/FLIR_Contract.sol\":2132:2135  250 */\n      0xfa\n        /* \"eth based/truffle/contracts/FLIR_Contract.sol\":2125:2129  Cimp */\n      dup3\n        /* \"eth based/truffle/contracts/FLIR_Contract.sol\":2125:2135  Cimp > 250 */\n      gt\n        /* \"eth based/truffle/contracts/FLIR_Contract.sol\":2125:2149  Cimp > 250 && Cimp < 351 */\n      dup1\n      iszero\n      tag_77\n      jumpi\n      pop\n        /* \"eth based/truffle/contracts/FLIR_Contract.sol\":2146:2149  351 */\n      0x15f\n        /* \"eth based/truffle/contracts/FLIR_Contract.sol\":2139:2143  Cimp */\n      dup3\n        /* \"eth based/truffle/contracts/FLIR_Contract.sol\":2139:2149  Cimp < 351 */\n      lt\n        /* \"eth based/truffle/contracts/FLIR_Contract.sol\":2125:2149  Cimp > 250 && Cimp < 351 */\n    tag_77:\n        /* \"eth based/truffle/contracts/FLIR_Contract.sol\":2122:2343  if(Cimp > 250 && Cimp < 351){... */\n      iszero\n      tag_78\n      jumpi\n        /* \"eth based/truffle/contracts/FLIR_Contract.sol\":2176:2180  btc6 */\n      sload(0x9)\n        /* \"eth based/truffle/contracts/FLIR_Contract.sol\":2169:2173  Cimp */\n      dup3\n        /* \"eth based/truffle/contracts/FLIR_Contract.sol\":2169:2180  Cimp * btc6 */\n      mul\n        /* \"eth based/truffle/contracts/FLIR_Contract.sol\":2164:2180  Tc = Cimp * btc6 */\n      swap1\n      pop\n        /* \"eth based/truffle/contracts/FLIR_Contract.sol\":2122:2343  if(Cimp > 250 && Cimp < 351){... */\n      jump(tag_79)\n    tag_78:\n        /* \"eth based/truffle/contracts/FLIR_Contract.sol\":2215:2218  350 */\n      0x15e\n        /* \"eth based/truffle/contracts/FLIR_Contract.sol\":2208:2212  Cimp */\n      dup3\n        /* \"eth based/truffle/contracts/FLIR_Contract.sol\":2208:2218  Cimp > 350 */\n      gt\n        /* \"eth based/truffle/contracts/FLIR_Contract.sol\":2208:2232  Cimp > 350 && Cimp < 451 */\n      dup1\n      iszero\n      tag_80\n      jumpi\n      pop\n        /* \"eth based/truffle/contracts/FLIR_Contract.sol\":2229:2232  451 */\n      0x1c3\n        /* \"eth based/truffle/contracts/FLIR_Contract.sol\":2222:2226  Cimp */\n      dup3\n        /* \"eth based/truffle/contracts/FLIR_Contract.sol\":2222:2232  Cimp < 451 */\n      lt\n        /* \"eth based/truffle/contracts/FLIR_Contract.sol\":2208:2232  Cimp > 350 && Cimp < 451 */\n    tag_80:\n        /* \"eth based/truffle/contracts/FLIR_Contract.sol\":2205:2343  if(Cimp > 350 && Cimp < 451){... */\n      iszero\n      tag_81\n      jumpi\n        /* \"eth based/truffle/contracts/FLIR_Contract.sol\":2259:2263  btc7 */\n      sload(0xa)\n        /* \"eth based/truffle/contracts/FLIR_Contract.sol\":2252:2256  Cimp */\n      dup3\n        /* \"eth based/truffle/contracts/FLIR_Contract.sol\":2252:2263  Cimp * btc7 */\n      mul\n        /* \"eth based/truffle/contracts/FLIR_Contract.sol\":2247:2263  Tc = Cimp * btc7 */\n      swap1\n      pop\n        /* \"eth based/truffle/contracts/FLIR_Contract.sol\":2205:2343  if(Cimp > 350 && Cimp < 451){... */\n      jump(tag_82)\n    tag_81:\n        /* \"eth based/truffle/contracts/FLIR_Contract.sol\":2298:2301  450 */\n      0x1c2\n        /* \"eth based/truffle/contracts/FLIR_Contract.sol\":2291:2295  Cimp */\n      dup3\n        /* \"eth based/truffle/contracts/FLIR_Contract.sol\":2291:2301  Cimp > 450 */\n      gt\n        /* \"eth based/truffle/contracts/FLIR_Contract.sol\":2288:2343  if(Cimp > 450){... */\n      iszero\n      tag_83\n      jumpi\n        /* \"eth based/truffle/contracts/FLIR_Contract.sol\":2328:2332  btc8 */\n      sload(0xb)\n        /* \"eth based/truffle/contracts/FLIR_Contract.sol\":2321:2325  Cimp */\n      dup3\n        /* \"eth based/truffle/contracts/FLIR_Contract.sol\":2321:2332  Cimp * btc8 */\n      mul\n        /* \"eth based/truffle/contracts/FLIR_Contract.sol\":2316:2332  Tc = Cimp * btc8 */\n      swap1\n      pop\n        /* \"eth based/truffle/contracts/FLIR_Contract.sol\":2288:2343  if(Cimp > 450){... */\n    tag_83:\n        /* \"eth based/truffle/contracts/FLIR_Contract.sol\":2205:2343  if(Cimp > 350 && Cimp < 451){... */\n    tag_82:\n        /* \"eth based/truffle/contracts/FLIR_Contract.sol\":2122:2343  if(Cimp > 250 && Cimp < 351){... */\n    tag_79:\n        /* \"eth based/truffle/contracts/FLIR_Contract.sol\":1461:2343  if(Cimp < 251){... */\n    tag_76:\n        /* \"eth based/truffle/contracts/FLIR_Contract.sol\":2360:2362  Tc */\n      dup1\n        /* \"eth based/truffle/contracts/FLIR_Contract.sol\":2352:2363  return (Tc) */\n      swap1\n      pop\n        /* \"eth based/truffle/contracts/FLIR_Contract.sol\":1380:2370  function getConsumerTariff(uint Cimp) public returns (uint Tc){... */\n      swap2\n      swap1\n      pop\n      jump\t// out\n        /* \"eth based/truffle/contracts/FLIR_Contract.sol\":2572:2640  function balCheck() public payable {... */\n    tag_39:\n        /* \"eth based/truffle/contracts/FLIR_Contract.sol\":2624:2633  msg.value */\n      callvalue\n        /* \"eth based/truffle/contracts/FLIR_Contract.sol\":2613:2620  balance */\n      0x2\n      0x0\n        /* \"eth based/truffle/contracts/FLIR_Contract.sol\":2613:2633  balance += msg.value */\n      dup3\n      dup3\n      sload\n      add\n      swap3\n      pop\n      pop\n      dup2\n      swap1\n      sstore\n      pop\n        /* \"eth based/truffle/contracts/FLIR_Contract.sol\":2572:2640  function balCheck() public payable {... */\n      jump\t// out\n        /* \"eth based/truffle/contracts/FLIR_Contract.sol\":895:916  uint public btc8 = 10 */\n    tag_42:\n      sload(0xb)\n      dup2\n      jump\t// out\n        /* \"eth based/truffle/contracts/FLIR_Contract.sol\":843:863  uint public btc6 = 8 */\n    tag_45:\n      sload(0x9)\n      dup2\n      jump\t// out\n        /* \"eth based/truffle/contracts/FLIR_Contract.sol\":556:579  uint public balance = 0 */\n    tag_48:\n      sload(0x2)\n      dup2\n      jump\t// out\n        /* \"eth based/truffle/contracts/FLIR_Contract.sol\":713:733  uint public btc1 = 3 */\n    tag_51:\n      sload(0x4)\n      dup2\n      jump\t// out\n        /* \"eth based/truffle/contracts/FLIR_Contract.sol\":2376:2566  function send(address _receiver, uint amount) payable public {... */\n    tag_53:\n        /* \"eth based/truffle/contracts/FLIR_Contract.sol\":2517:2523  amount */\n      dup1\n        /* \"eth based/truffle/contracts/FLIR_Contract.sol\":2504:2513  msg.value */\n      callvalue\n        /* \"eth based/truffle/contracts/FLIR_Contract.sol\":2504:2523  msg.value >= amount */\n      lt\n      iszero\n        /* \"eth based/truffle/contracts/FLIR_Contract.sol\":2496:2524  require(msg.value >= amount) */\n      iszero\n      iszero\n      tag_86\n      jumpi\n      0x0\n      dup1\n      revert\n    tag_86:\n        /* \"eth based/truffle/contracts/FLIR_Contract.sol\":2530:2539  _receiver */\n      dup2\n        /* \"eth based/truffle/contracts/FLIR_Contract.sol\":2530:2548  _receiver.transfer */\n      0xffffffffffffffffffffffffffffffffffffffff\n      and\n        /* \"eth based/truffle/contracts/FLIR_Contract.sol\":2530:2559  _receiver.transfer(msg.value) */\n      0x8fc\n        /* \"eth based/truffle/contracts/FLIR_Contract.sol\":2549:2558  msg.value */\n      callvalue\n        /* \"eth based/truffle/contracts/FLIR_Contract.sol\":2530:2559  _receiver.transfer(msg.value) */\n      swap1\n      dup2\n      iszero\n      mul\n      swap1\n      mload(0x40)\n      0x0\n      mload(0x40)\n      dup1\n      dup4\n      sub\n      dup2\n      dup6\n      dup9\n      dup9\n      call\n      swap4\n      pop\n      pop\n      pop\n      pop\n      iszero\n        /* \"--CODEGEN--\":8:17   */\n      dup1\n        /* \"--CODEGEN--\":5:7   */\n      iszero\n      tag_87\n      jumpi\n        /* \"--CODEGEN--\":45:61   */\n      returndatasize\n        /* \"--CODEGEN--\":42:43   */\n      0x0\n        /* \"--CODEGEN--\":39:40   */\n      dup1\n        /* \"--CODEGEN--\":24:62   */\n      returndatacopy\n        /* \"--CODEGEN--\":77:93   */\n      returndatasize\n        /* \"--CODEGEN--\":74:75   */\n      0x0\n        /* \"--CODEGEN--\":67:94   */\n      revert\n        /* \"--CODEGEN--\":5:7   */\n    tag_87:\n        /* \"eth based/truffle/contracts/FLIR_Contract.sol\":2530:2559  _receiver.transfer(msg.value) */\n      pop\n        /* \"eth based/truffle/contracts/FLIR_Contract.sol\":2376:2566  function send(address _receiver, uint amount) payable public {... */\n      pop\n      pop\n      jump\t// out\n        /* \"eth based/truffle/contracts/FLIR_Contract.sol\":869:889  uint public btc7 = 9 */\n    tag_56:\n      sload(0xa)\n      dup2\n      jump\t// out\n        /* \"eth based/truffle/contracts/FLIR_Contract.sol\":930:1253  function getnPnCnEV(uint nPget, uint nCget,uint nEVget) public... */\n    tag_59:\n        /* \"eth based/truffle/contracts/FLIR_Contract.sol\":1006:1013  uint nP */\n      0x0\n        /* \"eth based/truffle/contracts/FLIR_Contract.sol\":1014:1021  uint nC */\n      dup1\n        /* \"eth based/truffle/contracts/FLIR_Contract.sol\":1022:1030  uint nEV */\n      0x0\n        /* \"eth based/truffle/contracts/FLIR_Contract.sol\":1055:1060  nPget */\n      dup6\n        /* \"eth based/truffle/contracts/FLIR_Contract.sol\":1050:1060  nP = nPget */\n      swap3\n      pop\n        /* \"eth based/truffle/contracts/FLIR_Contract.sol\":1075:1080  nCget */\n      dup5\n        /* \"eth based/truffle/contracts/FLIR_Contract.sol\":1070:1080  nC = nCget */\n      swap2\n      pop\n        /* \"eth based/truffle/contracts/FLIR_Contract.sol\":1096:1102  nEVget */\n      dup4\n        /* \"eth based/truffle/contracts/FLIR_Contract.sol\":1090:1102  nEV = nEVget */\n      swap1\n      pop\n        /* \"eth based/truffle/contracts/FLIR_Contract.sol\":1236:1238  nP */\n      dup3\n        /* \"eth based/truffle/contracts/FLIR_Contract.sol\":1239:1241  nC */\n      dup3\n        /* \"eth based/truffle/contracts/FLIR_Contract.sol\":1242:1245  nEV */\n      dup3\n        /* \"eth based/truffle/contracts/FLIR_Contract.sol\":1228:1246  return (nP,nC,nEV) */\n      swap3\n      pop\n      swap3\n      pop\n      swap3\n      pop\n        /* \"eth based/truffle/contracts/FLIR_Contract.sol\":930:1253  function getnPnCnEV(uint nPget, uint nCget,uint nEVget) public... */\n      swap4\n      pop\n      swap4\n      pop\n      swap4\n      swap1\n      pop\n      jump\t// out\n\n    auxdata: 0xa165627a7a72305820f617ce8935432c8dca3f43f855c4f07d32c0979a3a0ce875e5f26caa43f339b90029\n}\n",
				"bytecode": {
					"linkReferences": {},
					"object": "60806040526000600255600380556003600455600460055560056006556006600755600760085560086009556009600a55600a600b5534801561004157600080fd5b5061061f806100516000396000f3006080604052600436106100db576000357c0100000000000000000000000000000000000000000000000000000000900463ffffffff1680630c03a1a3146100e0578063103347e71461010b57806320e731a11461013657806328780a44146101615780632c9af64c1461018c5780635c8f6b56146101b7578063721028ec146101f85780637c134b1414610239578063a8bdb68b14610243578063b4ad7fa91461026e578063b69ef8a814610299578063c2c496ec146102c4578063d0679d34146102ef578063ed2fa5ab1461032f578063f02e48c31461035a575b600080fd5b3480156100ec57600080fd5b506100f56103bd565b6040518082815260200191505060405180910390f35b34801561011757600080fd5b506101206103c3565b6040518082815260200191505060405180910390f35b34801561014257600080fd5b5061014b6103c9565b6040518082815260200191505060405180910390f35b34801561016d57600080fd5b506101766103cf565b6040518082815260200191505060405180910390f35b34801561019857600080fd5b506101a16103d5565b6040518082815260200191505060405180910390f35b3480156101c357600080fd5b506101e2600480360381019080803590602001909291905050506103db565b6040518082815260200191505060405180910390f35b34801561020457600080fd5b50610223600480360381019080803590602001909291905050506103ec565b6040518082815260200191505060405180910390f35b610241610549565b005b34801561024f57600080fd5b5061025861055b565b6040518082815260200191505060405180910390f35b34801561027a57600080fd5b50610283610561565b6040518082815260200191505060405180910390f35b3480156102a557600080fd5b506102ae610567565b6040518082815260200191505060405180910390f35b3480156102d057600080fd5b506102d961056d565b6040518082815260200191505060405180910390f35b61032d600480360381019080803573ffffffffffffffffffffffffffffffffffffffff16906020019092919080359060200190929190505050610573565b005b34801561033b57600080fd5b506103446105cd565b6040518082815260200191505060405180910390f35b34801561036657600080fd5b506103996004803603810190808035906020019092919080359060200190929190803590602001909291905050506105d3565b60405180848152602001838152602001828152602001935050505060405180910390f35b60085481565b60075481565b60065481565b60055481565b60035481565b600060035482029050809050919050565b600060fb8210156104e757603382101561040c57600454820290506104e2565b60328211801561041c5750606582105b156104375760055460328303026004546032020190506104e1565b6064821180156104475750609782105b15610469576006546032830302600554603202600454603202010190506104e0565b609682118015610479575060c982105b156104a257600754603283030260065460320260055460320260045460320201010190506104df565b60c8821180156104b2575060fb82105b156104de5760085460328303026007546032026006546032026005546032026004546032020101010190505b5b5b5b5b610541565b60fa821180156104f8575061015f82105b156105095760095482029050610540565b61015e8211801561051b57506101c382105b1561052c57600a548202905061053f565b6101c282111561053e57600b54820290505b5b5b5b809050919050565b34600260008282540192505081905550565b600b5481565b60095481565b60025481565b60045481565b80341015151561058257600080fd5b8173ffffffffffffffffffffffffffffffffffffffff166108fc349081150290604051600060405180830381858888f193505050501580156105c8573d6000803e3d6000fd5b505050565b600a5481565b6000806000859250849150839050828282925092509250935093509390505600a165627a7a72305820f617ce8935432c8dca3f43f855c4f07d32c0979a3a0ce875e5f26caa43f339b90029",
					"opcodes": "PUSH1 0x80 PUSH1 0x40 MSTORE PUSH1 0x0 PUSH1 0x2 SSTORE PUSH1 0x3 DUP1 SSTORE PUSH1 0x3 PUSH1 0x4 SSTORE PUSH1 0x4 PUSH1 0x5 SSTORE PUSH1 0x5 PUSH1 0x6 SSTORE PUSH1 0x6 PUSH1 0x7 SSTORE PUSH1 0x7 PUSH1 0x8 SSTORE PUSH1 0x8 PUSH1 0x9 SSTORE PUSH1 0x9 PUSH1 0xA SSTORE PUSH1 0xA PUSH1 0xB SSTORE CALLVALUE DUP1 ISZERO PUSH2 0x41 JUMPI PUSH1 0x0 DUP1 REVERT JUMPDEST POP PUSH2 0x61F DUP1 PUSH2 0x51 PUSH1 0x0 CODECOPY PUSH1 0x0 RETURN STOP PUSH1 0x80 PUSH1 0x40 MSTORE PUSH1 0x4 CALLDATASIZE LT PUSH2 0xDB JUMPI PUSH1 0x0 CALLDATALOAD PUSH29 0x100000000000000000000000000000000000000000000000000000000 SWAP1 DIV PUSH4 0xFFFFFFFF AND DUP1 PUSH4 0xC03A1A3 EQ PUSH2 0xE0 JUMPI DUP1 PUSH4 0x103347E7 EQ PUSH2 0x10B JUMPI DUP1 PUSH4 0x20E731A1 EQ PUSH2 0x136 JUMPI DUP1 PUSH4 0x28780A44 EQ PUSH2 0x161 JUMPI DUP1 PUSH4 0x2C9AF64C EQ PUSH2 0x18C JUMPI DUP1 PUSH4 0x5C8F6B56 EQ PUSH2 0x1B7 JUMPI DUP1 PUSH4 0x721028EC EQ PUSH2 0x1F8 JUMPI DUP1 PUSH4 0x7C134B14 EQ PUSH2 0x239 JUMPI DUP1 PUSH4 0xA8BDB68B EQ PUSH2 0x243 JUMPI DUP1 PUSH4 0xB4AD7FA9 EQ PUSH2 0x26E JUMPI DUP1 PUSH4 0xB69EF8A8 EQ PUSH2 0x299 JUMPI DUP1 PUSH4 0xC2C496EC EQ PUSH2 0x2C4 JUMPI DUP1 PUSH4 0xD0679D34 EQ PUSH2 0x2EF JUMPI DUP1 PUSH4 0xED2FA5AB EQ PUSH2 0x32F JUMPI DUP1 PUSH4 0xF02E48C3 EQ PUSH2 0x35A JUMPI JUMPDEST PUSH1 0x0 DUP1 REVERT JUMPDEST CALLVALUE DUP1 ISZERO PUSH2 0xEC JUMPI PUSH1 0x0 DUP1 REVERT JUMPDEST POP PUSH2 0xF5 PUSH2 0x3BD JUMP JUMPDEST PUSH1 0x40 MLOAD DUP1 DUP3 DUP2 MSTORE PUSH1 0x20 ADD SWAP2 POP POP PUSH1 0x40 MLOAD DUP1 SWAP2 SUB SWAP1 RETURN JUMPDEST CALLVALUE DUP1 ISZERO PUSH2 0x117 JUMPI PUSH1 0x0 DUP1 REVERT JUMPDEST POP PUSH2 0x120 PUSH2 0x3C3 JUMP JUMPDEST PUSH1 0x40 MLOAD DUP1 DUP3 DUP2 MSTORE PUSH1 0x20 ADD SWAP2 POP POP PUSH1 0x40 MLOAD DUP1 SWAP2 SUB SWAP1 RETURN JUMPDEST CALLVALUE DUP1 ISZERO PUSH2 0x142 JUMPI PUSH1 0x0 DUP1 REVERT JUMPDEST POP PUSH2 0x14B PUSH2 0x3C9 JUMP JUMPDEST PUSH1 0x40 MLOAD DUP1 DUP3 DUP2 MSTORE PUSH1 0x20 ADD SWAP2 POP POP PUSH1 0x40 MLOAD DUP1 SWAP2 SUB SWAP1 RETURN JUMPDEST CALLVALUE DUP1 ISZERO PUSH2 0x16D JUMPI PUSH1 0x0 DUP1 REVERT JUMPDEST POP PUSH2 0x176 PUSH2 0x3CF JUMP JUMPDEST PUSH1 0x40 MLOAD DUP1 DUP3 DUP2 MSTORE PUSH1 0x20 ADD SWAP2 POP POP PUSH1 0x40 MLOAD DUP1 SWAP2 SUB SWAP1 RETURN JUMPDEST CALLVALUE DUP1 ISZERO PUSH2 0x198 JUMPI PUSH1 0x0 DUP1 REVERT JUMPDEST POP PUSH2 0x1A1 PUSH2 0x3D5 JUMP JUMPDEST PUSH1 0x40 MLOAD DUP1 DUP3 DUP2 MSTORE PUSH1 0x20 ADD SWAP2 POP POP PUSH1 0x40 MLOAD DUP1 SWAP2 SUB SWAP1 RETURN JUMPDEST CALLVALUE DUP1 ISZERO PUSH2 0x1C3 JUMPI PUSH1 0x0 DUP1 REVERT JUMPDEST POP PUSH2 0x1E2 PUSH1 0x4 DUP1 CALLDATASIZE SUB DUP2 ADD SWAP1 DUP1 DUP1 CALLDATALOAD SWAP1 PUSH1 0x20 ADD SWAP1 SWAP3 SWAP2 SWAP1 POP POP POP PUSH2 0x3DB JUMP JUMPDEST PUSH1 0x40 MLOAD DUP1 DUP3 DUP2 MSTORE PUSH1 0x20 ADD SWAP2 POP POP PUSH1 0x40 MLOAD DUP1 SWAP2 SUB SWAP1 RETURN JUMPDEST CALLVALUE DUP1 ISZERO PUSH2 0x204 JUMPI PUSH1 0x0 DUP1 REVERT JUMPDEST POP PUSH2 0x223 PUSH1 0x4 DUP1 CALLDATASIZE SUB DUP2 ADD SWAP1 DUP1 DUP1 CALLDATALOAD SWAP1 PUSH1 0x20 ADD SWAP1 SWAP3 SWAP2 SWAP1 POP POP POP PUSH2 0x3EC JUMP JUMPDEST PUSH1 0x40 MLOAD DUP1 DUP3 DUP2 MSTORE PUSH1 0x20 ADD SWAP2 POP POP PUSH1 0x40 MLOAD DUP1 SWAP2 SUB SWAP1 RETURN JUMPDEST PUSH2 0x241 PUSH2 0x549 JUMP JUMPDEST STOP JUMPDEST CALLVALUE DUP1 ISZERO PUSH2 0x24F JUMPI PUSH1 0x0 DUP1 REVERT JUMPDEST POP PUSH2 0x258 PUSH2 0x55B JUMP JUMPDEST PUSH1 0x40 MLOAD DUP1 DUP3 DUP2 MSTORE PUSH1 0x20 ADD SWAP2 POP POP PUSH1 0x40 MLOAD DUP1 SWAP2 SUB SWAP1 RETURN JUMPDEST CALLVALUE DUP1 ISZERO PUSH2 0x27A JUMPI PUSH1 0x0 DUP1 REVERT JUMPDEST POP PUSH2 0x283 PUSH2 0x561 JUMP JUMPDEST PUSH1 0x40 MLOAD DUP1 DUP3 DUP2 MSTORE PUSH1 0x20 ADD SWAP2 POP POP PUSH1 0x40 MLOAD DUP1 SWAP2 SUB SWAP1 RETURN JUMPDEST CALLVALUE DUP1 ISZERO PUSH2 0x2A5 JUMPI PUSH1 0x0 DUP1 REVERT JUMPDEST POP PUSH2 0x2AE PUSH2 0x567 JUMP JUMPDEST PUSH1 0x40 MLOAD DUP1 DUP3 DUP2 MSTORE PUSH1 0x20 ADD SWAP2 POP POP PUSH1 0x40 MLOAD DUP1 SWAP2 SUB SWAP1 RETURN JUMPDEST CALLVALUE DUP1 ISZERO PUSH2 0x2D0 JUMPI PUSH1 0x0 DUP1 REVERT JUMPDEST POP PUSH2 0x2D9 PUSH2 0x56D JUMP JUMPDEST PUSH1 0x40 MLOAD DUP1 DUP3 DUP2 MSTORE PUSH1 0x20 ADD SWAP2 POP POP PUSH1 0x40 MLOAD DUP1 SWAP2 SUB SWAP1 RETURN JUMPDEST PUSH2 0x32D PUSH1 0x4 DUP1 CALLDATASIZE SUB DUP2 ADD SWAP1 DUP1 DUP1 CALLDATALOAD PUSH20 0xFFFFFFFFFFFFFFFFFFFFFFFFFFFFFFFFFFFFFFFF AND SWAP1 PUSH1 0x20 ADD SWAP1 SWAP3 SWAP2 SWAP1 DUP1 CALLDATALOAD SWAP1 PUSH1 0x20 ADD SWAP1 SWAP3 SWAP2 SWAP1 POP POP POP PUSH2 0x573 JUMP JUMPDEST STOP JUMPDEST CALLVALUE DUP1 ISZERO PUSH2 0x33B JUMPI PUSH1 0x0 DUP1 REVERT JUMPDEST POP PUSH2 0x344 PUSH2 0x5CD JUMP JUMPDEST PUSH1 0x40 MLOAD DUP1 DUP3 DUP2 MSTORE PUSH1 0x20 ADD SWAP2 POP POP PUSH1 0x40 MLOAD DUP1 SWAP2 SUB SWAP1 RETURN JUMPDEST CALLVALUE DUP1 ISZERO PUSH2 0x366 JUMPI PUSH1 0x0 DUP1 REVERT JUMPDEST POP PUSH2 0x399 PUSH1 0x4 DUP1 CALLDATASIZE SUB DUP2 ADD SWAP1 DUP1 DUP1 CALLDATALOAD SWAP1 PUSH1 0x20 ADD SWAP1 SWAP3 SWAP2 SWAP1 DUP1 CALLDATALOAD SWAP1 PUSH1 0x20 ADD SWAP1 SWAP3 SWAP2 SWAP1 DUP1 CALLDATALOAD SWAP1 PUSH1 0x20 ADD SWAP1 SWAP3 SWAP2 SWAP1 POP POP POP PUSH2 0x5D3 JUMP JUMPDEST PUSH1 0x40 MLOAD DUP1 DUP5 DUP2 MSTORE PUSH1 0x20 ADD DUP4 DUP2 MSTORE PUSH1 0x20 ADD DUP3 DUP2 MSTORE PUSH1 0x20 ADD SWAP4 POP POP POP POP PUSH1 0x40 MLOAD DUP1 SWAP2 SUB SWAP1 RETURN JUMPDEST PUSH1 0x8 SLOAD DUP2 JUMP JUMPDEST PUSH1 0x7 SLOAD DUP2 JUMP JUMPDEST PUSH1 0x6 SLOAD DUP2 JUMP JUMPDEST PUSH1 0x5 SLOAD DUP2 JUMP JUMPDEST PUSH1 0x3 SLOAD DUP2 JUMP JUMPDEST PUSH1 0x0 PUSH1 0x3 SLOAD DUP3 MUL SWAP1 POP DUP1 SWAP1 POP SWAP2 SWAP1 POP JUMP JUMPDEST PUSH1 0x0 PUSH1 0xFB DUP3 LT ISZERO PUSH2 0x4E7 JUMPI PUSH1 0x33 DUP3 LT ISZERO PUSH2 0x40C JUMPI PUSH1 0x4 SLOAD DUP3 MUL SWAP1 POP PUSH2 0x4E2 JUMP JUMPDEST PUSH1 0x32 DUP3 GT DUP1 ISZERO PUSH2 0x41C JUMPI POP PUSH1 0x65 DUP3 LT JUMPDEST ISZERO PUSH2 0x437 JUMPI PUSH1 0x5 SLOAD PUSH1 0x32 DUP4 SUB MUL PUSH1 0x4 SLOAD PUSH1 0x32 MUL ADD SWAP1 POP PUSH2 0x4E1 JUMP JUMPDEST PUSH1 0x64 DUP3 GT DUP1 ISZERO PUSH2 0x447 JUMPI POP PUSH1 0x97 DUP3 LT JUMPDEST ISZERO PUSH2 0x469 JUMPI PUSH1 0x6 SLOAD PUSH1 0x32 DUP4 SUB MUL PUSH1 0x5 SLOAD PUSH1 0x32 MUL PUSH1 0x4 SLOAD PUSH1 0x32 MUL ADD ADD SWAP1 POP PUSH2 0x4E0 JUMP JUMPDEST PUSH1 0x96 DUP3 GT DUP1 ISZERO PUSH2 0x479 JUMPI POP PUSH1 0xC9 DUP3 LT JUMPDEST ISZERO PUSH2 0x4A2 JUMPI PUSH1 0x7 SLOAD PUSH1 0x32 DUP4 SUB MUL PUSH1 0x6 SLOAD PUSH1 0x32 MUL PUSH1 0x5 SLOAD PUSH1 0x32 MUL PUSH1 0x4 SLOAD PUSH1 0x32 MUL ADD ADD ADD SWAP1 POP PUSH2 0x4DF JUMP JUMPDEST PUSH1 0xC8 DUP3 GT DUP1 ISZERO PUSH2 0x4B2 JUMPI POP PUSH1 0xFB DUP3 LT JUMPDEST ISZERO PUSH2 0x4DE JUMPI PUSH1 0x8 SLOAD PUSH1 0x32 DUP4 SUB MUL PUSH1 0x7 SLOAD PUSH1 0x32 MUL PUSH1 0x6 SLOAD PUSH1 0x32 MUL PUSH1 0x5 SLOAD PUSH1 0x32 MUL PUSH1 0x4 SLOAD PUSH1 0x32 MUL ADD ADD ADD ADD SWAP1 POP JUMPDEST JUMPDEST JUMPDEST JUMPDEST JUMPDEST PUSH2 0x541 JUMP JUMPDEST PUSH1 0xFA DUP3 GT DUP1 ISZERO PUSH2 0x4F8 JUMPI POP PUSH2 0x15F DUP3 LT JUMPDEST ISZERO PUSH2 0x509 JUMPI PUSH1 0x9 SLOAD DUP3 MUL SWAP1 POP PUSH2 0x540 JUMP JUMPDEST PUSH2 0x15E DUP3 GT DUP1 ISZERO PUSH2 0x51B JUMPI POP PUSH2 0x1C3 DUP3 LT JUMPDEST ISZERO PUSH2 0x52C JUMPI PUSH1 0xA SLOAD DUP3 MUL SWAP1 POP PUSH2 0x53F JUMP JUMPDEST PUSH2 0x1C2 DUP3 GT ISZERO PUSH2 0x53E JUMPI PUSH1 0xB SLOAD DUP3 MUL SWAP1 POP JUMPDEST JUMPDEST JUMPDEST JUMPDEST DUP1 SWAP1 POP SWAP2 SWAP1 POP JUMP JUMPDEST CALLVALUE PUSH1 0x2 PUSH1 0x0 DUP3 DUP3 SLOAD ADD SWAP3 POP POP DUP2 SWAP1 SSTORE POP JUMP JUMPDEST PUSH1 0xB SLOAD DUP2 JUMP JUMPDEST PUSH1 0x9 SLOAD DUP2 JUMP JUMPDEST PUSH1 0x2 SLOAD DUP2 JUMP JUMPDEST PUSH1 0x4 SLOAD DUP2 JUMP JUMPDEST DUP1 CALLVALUE LT ISZERO ISZERO ISZERO PUSH2 0x582 JUMPI PUSH1 0x0 DUP1 REVERT JUMPDEST DUP2 PUSH20 0xFFFFFFFFFFFFFFFFFFFFFFFFFFFFFFFFFFFFFFFF AND PUSH2 0x8FC CALLVALUE SWAP1 DUP2 ISZERO MUL SWAP1 PUSH1 0x40 MLOAD PUSH1 0x0 PUSH1 0x40 MLOAD DUP1 DUP4 SUB DUP2 DUP6 DUP9 DUP9 CALL SWAP4 POP POP POP POP ISZERO DUP1 ISZERO PUSH2 0x5C8 JUMPI RETURNDATASIZE PUSH1 0x0 DUP1 RETURNDATACOPY RETURNDATASIZE PUSH1 0x0 REVERT JUMPDEST POP POP POP JUMP JUMPDEST PUSH1 0xA SLOAD DUP2 JUMP JUMPDEST PUSH1 0x0 DUP1 PUSH1 0x0 DUP6 SWAP3 POP DUP5 SWAP2 POP DUP4 SWAP1 POP DUP3 DUP3 DUP3 SWAP3 POP SWAP3 POP SWAP3 POP SWAP4 POP SWAP4 POP SWAP4 SWAP1 POP JUMP STOP LOG1 PUSH6 0x627A7A723058 KECCAK256 0xf6 OR 0xce DUP10 CALLDATALOAD NUMBER 0x2c DUP14 0xca 0x3f NUMBER 0xf8 SSTORE 0xc4 CREATE PUSH30 0x32C0979A3A0CE875E5F26CAA43F339B90029000000000000000000000000 "
				},
				"gasEstimates": {
					"creation": {
						"codeDepositCost": "313400",
						"executionCost": "185409",
						"totalCost": "498809"
					},
					"external": {
						"balCheck()": "20495",
						"balance()": "614",
						"btc1()": "636",
						"btc2()": "460",
						"btc3()": "438",
						"btc4()": "416",
						"btc5()": "394",
						"btc6()": "592",
						"btc7()": "680",
						"btc8()": "570",
						"btp()": "482",
						"getConsumerTariff(uint256)": "1768",
						"getProsumerTariff(uint256)": "589",
						"getnPnCnEV(uint256,uint256,uint256)": "721",
						"send(address,uint256)": "infinite"
					}
				},
				"methodIdentifiers": {
					"balCheck()": "7c134b14",
					"balance()": "b69ef8a8",
					"btc1()": "c2c496ec",
					"btc2()": "28780a44",
					"btc3()": "20e731a1",
					"btc4()": "103347e7",
					"btc5()": "0c03a1a3",
					"btc6()": "b4ad7fa9",
					"btc7()": "ed2fa5ab",
					"btc8()": "a8bdb68b",
					"btp()": "2c9af64c",
					"getConsumerTariff(uint256)": "721028ec",
					"getProsumerTariff(uint256)": "5c8f6b56",
					"getnPnCnEV(uint256,uint256,uint256)": "f02e48c3",
					"send(address,uint256)": "d0679d34"
				}
			},
			"userdoc": {
				"methods": {}
			}
		}
	}
}