{
	"eth based/truffle/contracts/LedgerBalance.sol": {
		"Updater": {
			"abi": [
				{
					"inputs": [],
					"name": "updateBalance",
					"outputs": [
						{
							"internalType": "uint256",
							"name": "",
							"type": "uint256"
						}
					],
					"stateMutability": "nonpayable",
					"type": "function"
				}
			],
			"devdoc": {
				"kind": "dev",
				"methods": {},
				"version": 1
			},
			"evm": {
				"assembly": "    /* \"eth based/truffle/contracts/LedgerBalance.sol\":229:454  contract Updater {... */\n  mstore(0x40, 0x80)\n  callvalue\n  dup1\n  iszero\n  tag_1\n  jumpi\n  0x00\n  dup1\n  revert\ntag_1:\n  pop\n  dataSize(sub_0)\n  dup1\n  dataOffset(sub_0)\n  0x00\n  codecopy\n  0x00\n  return\nstop\n\nsub_0: assembly {\n        /* \"eth based/truffle/contracts/LedgerBalance.sol\":229:454  contract Updater {... */\n      mstore(0x40, 0x80)\n      callvalue\n      dup1\n      iszero\n      tag_1\n      jumpi\n      0x00\n      dup1\n      revert\n    tag_1:\n      pop\n      jumpi(tag_2, lt(calldatasize, 0x04))\n      shr(0xe0, calldataload(0x00))\n      dup1\n      0xa9559dd7\n      eq\n      tag_3\n      jumpi\n    tag_2:\n      0x00\n      dup1\n      revert\n        /* \"eth based/truffle/contracts/LedgerBalance.sol\":251:452  function updateBalance() public returns (uint) {... */\n    tag_3:\n      tag_4\n      tag_5\n      jump\t// in\n    tag_4:\n      mload(0x40)\n      tag_6\n      swap2\n      swap1\n      tag_7\n      jump\t// in\n    tag_6:\n      mload(0x40)\n      dup1\n      swap2\n      sub\n      swap1\n      return\n    tag_5:\n        /* \"eth based/truffle/contracts/LedgerBalance.sol\":292:296  uint */\n      0x00\n        /* \"eth based/truffle/contracts/LedgerBalance.sol\":306:333  LedgerBalance ledgerBalance */\n      dup1\n        /* \"eth based/truffle/contracts/LedgerBalance.sol\":336:355  new LedgerBalance() */\n      mload(0x40)\n      tag_9\n      swap1\n      tag_10\n      jump\t// in\n    tag_9:\n      mload(0x40)\n      dup1\n      swap2\n      sub\n      swap1\n      0x00\n      create\n      dup1\n      iszero\n      dup1\n      iszero\n      tag_11\n      jumpi\n      returndatasize\n      0x00\n      dup1\n      returndatacopy\n      revert(0x00, returndatasize)\n    tag_11:\n      pop\n        /* \"eth based/truffle/contracts/LedgerBalance.sol\":306:355  LedgerBalance ledgerBalance = new LedgerBalance() */\n      swap1\n      pop\n        /* \"eth based/truffle/contracts/LedgerBalance.sol\":363:376  ledgerBalance */\n      dup1\n        /* \"eth based/truffle/contracts/LedgerBalance.sol\":363:390  ledgerBalance.updateBalance */\n      0xffffffffffffffffffffffffffffffffffffffff\n      and\n      0xba7b37d4\n        /* \"eth based/truffle/contracts/LedgerBalance.sol\":391:393  10 */\n      0x0a\n        /* \"eth based/truffle/contracts/LedgerBalance.sol\":363:394  ledgerBalance.updateBalance(10) */\n      mload(0x40)\n      dup3\n      0xffffffff\n      and\n      0xe0\n      shl\n      dup2\n      mstore\n      0x04\n      add\n      tag_12\n      swap2\n      swap1\n      tag_13\n      jump\t// in\n    tag_12:\n      0x00\n      mload(0x40)\n      dup1\n      dup4\n      sub\n      dup2\n      0x00\n      dup8\n      dup1\n      extcodesize\n      iszero\n      dup1\n      iszero\n      tag_14\n      jumpi\n      0x00\n      dup1\n      revert\n    tag_14:\n      pop\n      gas\n      call\n      iszero\n      dup1\n      iszero\n      tag_16\n      jumpi\n      returndatasize\n      0x00\n      dup1\n      returndatacopy\n      revert(0x00, returndatasize)\n    tag_16:\n      pop\n      pop\n      pop\n      pop\n        /* \"eth based/truffle/contracts/LedgerBalance.sol\":409:422  ledgerBalance */\n      dup1\n        /* \"eth based/truffle/contracts/LedgerBalance.sol\":409:431  ledgerBalance.balances */\n      0xffffffffffffffffffffffffffffffffffffffff\n      and\n      0x27e235e3\n        /* \"eth based/truffle/contracts/LedgerBalance.sol\":440:444  this */\n      address\n        /* \"eth based/truffle/contracts/LedgerBalance.sol\":409:446  ledgerBalance.balances(address(this)) */\n      mload(0x40)\n      dup3\n      0xffffffff\n      and\n      0xe0\n      shl\n      dup2\n      mstore\n      0x04\n      add\n      tag_17\n      swap2\n      swap1\n      tag_18\n      jump\t// in\n    tag_17:\n      0x20\n      mload(0x40)\n      dup1\n      dup4\n      sub\n      dup2\n      dup7\n      dup1\n      extcodesize\n      iszero\n      dup1\n      iszero\n      tag_19\n      jumpi\n      0x00\n      dup1\n      revert\n    tag_19:\n      pop\n      gas\n      staticcall\n      iszero\n      dup1\n      iszero\n      tag_21\n      jumpi\n      returndatasize\n      0x00\n      dup1\n      returndatacopy\n      revert(0x00, returndatasize)\n    tag_21:\n      pop\n      pop\n      pop\n      pop\n      mload(0x40)\n      returndatasize\n      not(0x1f)\n      0x1f\n      dup3\n      add\n      and\n      dup3\n      add\n      dup1\n      0x40\n      mstore\n      pop\n      dup2\n      add\n      swap1\n      tag_22\n      swap2\n      swap1\n      tag_23\n      jump\t// in\n    tag_22:\n        /* \"eth based/truffle/contracts/LedgerBalance.sol\":402:446  return ledgerBalance.balances(address(this)) */\n      swap2\n      pop\n      pop\n        /* \"eth based/truffle/contracts/LedgerBalance.sol\":251:452  function updateBalance() public returns (uint) {... */\n      swap1\n      jump\t// out\n    tag_10:\n      dataSize(sub_0)\n      dup1\n      dataOffset(sub_0)\n      dup4\n      codecopy\n      add\n      swap1\n      jump\t// out\n        /* \"#utility.yul\":7:150   */\n    tag_25:\n        /* \"#utility.yul\":64:69   */\n      0x00\n        /* \"#utility.yul\":95:101   */\n      dup2\n        /* \"#utility.yul\":89:102   */\n      mload\n        /* \"#utility.yul\":80:102   */\n      swap1\n      pop\n        /* \"#utility.yul\":111:144   */\n      tag_27\n        /* \"#utility.yul\":138:143   */\n      dup2\n        /* \"#utility.yul\":111:144   */\n      tag_28\n      jump\t// in\n    tag_27:\n        /* \"#utility.yul\":7:150   */\n      swap3\n      swap2\n      pop\n      pop\n      jump\t// out\n        /* \"#utility.yul\":156:507   */\n    tag_23:\n        /* \"#utility.yul\":226:232   */\n      0x00\n        /* \"#utility.yul\":275:277   */\n      0x20\n        /* \"#utility.yul\":263:272   */\n      dup3\n        /* \"#utility.yul\":254:261   */\n      dup5\n        /* \"#utility.yul\":250:273   */\n      sub\n        /* \"#utility.yul\":246:278   */\n      slt\n        /* \"#utility.yul\":243:362   */\n      iszero\n      tag_30\n      jumpi\n        /* \"#utility.yul\":281:360   */\n      tag_31\n      tag_32\n      jump\t// in\n    tag_31:\n        /* \"#utility.yul\":243:362   */\n    tag_30:\n        /* \"#utility.yul\":401:402   */\n      0x00\n        /* \"#utility.yul\":426:490   */\n      tag_33\n        /* \"#utility.yul\":482:489   */\n      dup5\n        /* \"#utility.yul\":473:479   */\n      dup3\n        /* \"#utility.yul\":462:471   */\n      dup6\n        /* \"#utility.yul\":458:480   */\n      add\n        /* \"#utility.yul\":426:490   */\n      tag_25\n      jump\t// in\n    tag_33:\n        /* \"#utility.yul\":416:490   */\n      swap2\n      pop\n        /* \"#utility.yul\":372:500   */\n      pop\n        /* \"#utility.yul\":156:507   */\n      swap3\n      swap2\n      pop\n      pop\n      jump\t// out\n        /* \"#utility.yul\":513:631   */\n    tag_34:\n        /* \"#utility.yul\":600:624   */\n      tag_36\n        /* \"#utility.yul\":618:623   */\n      dup2\n        /* \"#utility.yul\":600:624   */\n      tag_37\n      jump\t// in\n    tag_36:\n        /* \"#utility.yul\":595:598   */\n      dup3\n        /* \"#utility.yul\":588:625   */\n      mstore\n        /* \"#utility.yul\":513:631   */\n      pop\n      pop\n      jump\t// out\n        /* \"#utility.yul\":637:786   */\n    tag_38:\n        /* \"#utility.yul\":733:779   */\n      tag_40\n        /* \"#utility.yul\":773:778   */\n      dup2\n        /* \"#utility.yul\":733:779   */\n      tag_41\n      jump\t// in\n    tag_40:\n        /* \"#utility.yul\":728:731   */\n      dup3\n        /* \"#utility.yul\":721:780   */\n      mstore\n        /* \"#utility.yul\":637:786   */\n      pop\n      pop\n      jump\t// out\n        /* \"#utility.yul\":792:910   */\n    tag_42:\n        /* \"#utility.yul\":879:903   */\n      tag_44\n        /* \"#utility.yul\":897:902   */\n      dup2\n        /* \"#utility.yul\":879:903   */\n      tag_45\n      jump\t// in\n    tag_44:\n        /* \"#utility.yul\":874:877   */\n      dup3\n        /* \"#utility.yul\":867:904   */\n      mstore\n        /* \"#utility.yul\":792:910   */\n      pop\n      pop\n      jump\t// out\n        /* \"#utility.yul\":916:1138   */\n    tag_18:\n        /* \"#utility.yul\":1009:1013   */\n      0x00\n        /* \"#utility.yul\":1047:1049   */\n      0x20\n        /* \"#utility.yul\":1036:1045   */\n      dup3\n        /* \"#utility.yul\":1032:1050   */\n      add\n        /* \"#utility.yul\":1024:1050   */\n      swap1\n      pop\n        /* \"#utility.yul\":1060:1131   */\n      tag_47\n        /* \"#utility.yul\":1128:1129   */\n      0x00\n        /* \"#utility.yul\":1117:1126   */\n      dup4\n        /* \"#utility.yul\":1113:1130   */\n      add\n        /* \"#utility.yul\":1104:1110   */\n      dup5\n        /* \"#utility.yul\":1060:1131   */\n      tag_34\n      jump\t// in\n    tag_47:\n        /* \"#utility.yul\":916:1138   */\n      swap3\n      swap2\n      pop\n      pop\n      jump\t// out\n        /* \"#utility.yul\":1144:1384   */\n    tag_13:\n        /* \"#utility.yul\":1246:1250   */\n      0x00\n        /* \"#utility.yul\":1284:1286   */\n      0x20\n        /* \"#utility.yul\":1273:1282   */\n      dup3\n        /* \"#utility.yul\":1269:1287   */\n      add\n        /* \"#utility.yul\":1261:1287   */\n      swap1\n      pop\n        /* \"#utility.yul\":1297:1377   */\n      tag_49\n        /* \"#utility.yul\":1374:1375   */\n      0x00\n        /* \"#utility.yul\":1363:1372   */\n      dup4\n        /* \"#utility.yul\":1359:1376   */\n      add\n        /* \"#utility.yul\":1350:1356   */\n      dup5\n        /* \"#utility.yul\":1297:1377   */\n      tag_38\n      jump\t// in\n    tag_49:\n        /* \"#utility.yul\":1144:1384   */\n      swap3\n      swap2\n      pop\n      pop\n      jump\t// out\n        /* \"#utility.yul\":1390:1612   */\n    tag_7:\n        /* \"#utility.yul\":1483:1487   */\n      0x00\n        /* \"#utility.yul\":1521:1523   */\n      0x20\n        /* \"#utility.yul\":1510:1519   */\n      dup3\n        /* \"#utility.yul\":1506:1524   */\n      add\n        /* \"#utility.yul\":1498:1524   */\n      swap1\n      pop\n        /* \"#utility.yul\":1534:1605   */\n      tag_51\n        /* \"#utility.yul\":1602:1603   */\n      0x00\n        /* \"#utility.yul\":1591:1600   */\n      dup4\n        /* \"#utility.yul\":1587:1604   */\n      add\n        /* \"#utility.yul\":1578:1584   */\n      dup5\n        /* \"#utility.yul\":1534:1605   */\n      tag_42\n      jump\t// in\n    tag_51:\n        /* \"#utility.yul\":1390:1612   */\n      swap3\n      swap2\n      pop\n      pop\n      jump\t// out\n        /* \"#utility.yul\":1699:1795   */\n    tag_37:\n        /* \"#utility.yul\":1736:1743   */\n      0x00\n        /* \"#utility.yul\":1765:1789   */\n      tag_55\n        /* \"#utility.yul\":1783:1788   */\n      dup3\n        /* \"#utility.yul\":1765:1789   */\n      tag_56\n      jump\t// in\n    tag_55:\n        /* \"#utility.yul\":1754:1789   */\n      swap1\n      pop\n        /* \"#utility.yul\":1699:1795   */\n      swap2\n      swap1\n      pop\n      jump\t// out\n        /* \"#utility.yul\":1801:1927   */\n    tag_56:\n        /* \"#utility.yul\":1838:1845   */\n      0x00\n        /* \"#utility.yul\":1878:1920   */\n      0xffffffffffffffffffffffffffffffffffffffff\n        /* \"#utility.yul\":1871:1876   */\n      dup3\n        /* \"#utility.yul\":1867:1921   */\n      and\n        /* \"#utility.yul\":1856:1921   */\n      swap1\n      pop\n        /* \"#utility.yul\":1801:1927   */\n      swap2\n      swap1\n      pop\n      jump\t// out\n        /* \"#utility.yul\":1933:2010   */\n    tag_45:\n        /* \"#utility.yul\":1970:1977   */\n      0x00\n        /* \"#utility.yul\":1999:2004   */\n      dup2\n        /* \"#utility.yul\":1988:2004   */\n      swap1\n      pop\n        /* \"#utility.yul\":1933:2010   */\n      swap2\n      swap1\n      pop\n      jump\t// out\n        /* \"#utility.yul\":2016:2138   */\n    tag_41:\n        /* \"#utility.yul\":2075:2084   */\n      0x00\n        /* \"#utility.yul\":2108:2132   */\n      tag_60\n        /* \"#utility.yul\":2126:2131   */\n      dup3\n        /* \"#utility.yul\":2108:2132   */\n      tag_45\n      jump\t// in\n    tag_60:\n        /* \"#utility.yul\":2095:2132   */\n      swap1\n      pop\n        /* \"#utility.yul\":2016:2138   */\n      swap2\n      swap1\n      pop\n      jump\t// out\n        /* \"#utility.yul\":2267:2384   */\n    tag_32:\n        /* \"#utility.yul\":2376:2377   */\n      0x00\n        /* \"#utility.yul\":2373:2374   */\n      dup1\n        /* \"#utility.yul\":2366:2378   */\n      revert\n        /* \"#utility.yul\":2390:2512   */\n    tag_28:\n        /* \"#utility.yul\":2463:2487   */\n      tag_65\n        /* \"#utility.yul\":2481:2486   */\n      dup2\n        /* \"#utility.yul\":2463:2487   */\n      tag_45\n      jump\t// in\n    tag_65:\n        /* \"#utility.yul\":2456:2461   */\n      dup2\n        /* \"#utility.yul\":2453:2488   */\n      eq\n        /* \"#utility.yul\":2443:2506   */\n      tag_66\n      jumpi\n        /* \"#utility.yul\":2502:2503   */\n      0x00\n        /* \"#utility.yul\":2499:2500   */\n      dup1\n        /* \"#utility.yul\":2492:2504   */\n      revert\n        /* \"#utility.yul\":2443:2506   */\n    tag_66:\n        /* \"#utility.yul\":2390:2512   */\n      pop\n      jump\t// out\n    stop\n\n    sub_0: assembly {\n            /* \"eth based/truffle/contracts/LedgerBalance.sol\":58:228  contract LedgerBalance {... */\n          mstore(0x40, 0x80)\n          callvalue\n          dup1\n          iszero\n          tag_1\n          jumpi\n          0x00\n          dup1\n          revert\n        tag_1:\n          pop\n          dataSize(sub_0)\n          dup1\n          dataOffset(sub_0)\n          0x00\n          codecopy\n          0x00\n          return\n        stop\n\n        sub_0: assembly {\n                /* \"eth based/truffle/contracts/LedgerBalance.sol\":58:228  contract LedgerBalance {... */\n              mstore(0x40, 0x80)\n              callvalue\n              dup1\n              iszero\n              tag_1\n              jumpi\n              0x00\n              dup1\n              revert\n            tag_1:\n              pop\n              jumpi(tag_2, lt(calldatasize, 0x04))\n              shr(0xe0, calldataload(0x00))\n              dup1\n              0x27e235e3\n              eq\n              tag_3\n              jumpi\n              dup1\n              0xba7b37d4\n              eq\n              tag_4\n              jumpi\n            tag_2:\n              0x00\n              dup1\n              revert\n                /* \"eth based/truffle/contracts/LedgerBalance.sol\":86:126  mapping(address => uint) public balances */\n            tag_3:\n              tag_5\n              0x04\n              dup1\n              calldatasize\n              sub\n              dup2\n              add\n              swap1\n              tag_6\n              swap2\n              swap1\n              tag_7\n              jump\t// in\n            tag_6:\n              tag_8\n              jump\t// in\n            tag_5:\n              mload(0x40)\n              tag_9\n              swap2\n              swap1\n              tag_10\n              jump\t// in\n            tag_9:\n              mload(0x40)\n              dup1\n              swap2\n              sub\n              swap1\n              return\n                /* \"eth based/truffle/contracts/LedgerBalance.sol\":132:226  function updateBalance(uint newBalance) public {... */\n            tag_4:\n              tag_11\n              0x04\n              dup1\n              calldatasize\n              sub\n              dup2\n              add\n              swap1\n              tag_12\n              swap2\n              swap1\n              tag_13\n              jump\t// in\n            tag_12:\n              tag_14\n              jump\t// in\n            tag_11:\n              stop\n                /* \"eth based/truffle/contracts/LedgerBalance.sol\":86:126  mapping(address => uint) public balances */\n            tag_8:\n              mstore(0x20, 0x00)\n              dup1\n              0x00\n              mstore\n              keccak256(0x00, 0x40)\n              0x00\n              swap2\n              pop\n              swap1\n              pop\n              sload\n              dup2\n              jump\t// out\n                /* \"eth based/truffle/contracts/LedgerBalance.sol\":132:226  function updateBalance(uint newBalance) public {... */\n            tag_14:\n                /* \"eth based/truffle/contracts/LedgerBalance.sol\":210:220  newBalance */\n              dup1\n                /* \"eth based/truffle/contracts/LedgerBalance.sol\":187:195  balances */\n              0x00\n                /* \"eth based/truffle/contracts/LedgerBalance.sol\":187:207  balances[msg.sender] */\n              dup1\n                /* \"eth based/truffle/contracts/LedgerBalance.sol\":196:206  msg.sender */\n              caller\n                /* \"eth based/truffle/contracts/LedgerBalance.sol\":187:207  balances[msg.sender] */\n              0xffffffffffffffffffffffffffffffffffffffff\n              and\n              0xffffffffffffffffffffffffffffffffffffffff\n              and\n              dup2\n              mstore\n              0x20\n              add\n              swap1\n              dup2\n              mstore\n              0x20\n              add\n              0x00\n              keccak256\n                /* \"eth based/truffle/contracts/LedgerBalance.sol\":187:220  balances[msg.sender] = newBalance */\n              dup2\n              swap1\n              sstore\n              pop\n                /* \"eth based/truffle/contracts/LedgerBalance.sol\":132:226  function updateBalance(uint newBalance) public {... */\n              pop\n              jump\t// out\n                /* \"#utility.yul\":7:146   */\n            tag_17:\n                /* \"#utility.yul\":53:58   */\n              0x00\n                /* \"#utility.yul\":91:97   */\n              dup2\n                /* \"#utility.yul\":78:98   */\n              calldataload\n                /* \"#utility.yul\":69:98   */\n              swap1\n              pop\n                /* \"#utility.yul\":107:140   */\n              tag_19\n                /* \"#utility.yul\":134:139   */\n              dup2\n                /* \"#utility.yul\":107:140   */\n              tag_20\n              jump\t// in\n            tag_19:\n                /* \"#utility.yul\":7:146   */\n              swap3\n              swap2\n              pop\n              pop\n              jump\t// out\n                /* \"#utility.yul\":152:291   */\n            tag_21:\n                /* \"#utility.yul\":198:203   */\n              0x00\n                /* \"#utility.yul\":236:242   */\n              dup2\n                /* \"#utility.yul\":223:243   */\n              calldataload\n                /* \"#utility.yul\":214:243   */\n              swap1\n              pop\n                /* \"#utility.yul\":252:285   */\n              tag_23\n                /* \"#utility.yul\":279:284   */\n              dup2\n                /* \"#utility.yul\":252:285   */\n              tag_24\n              jump\t// in\n            tag_23:\n                /* \"#utility.yul\":152:291   */\n              swap3\n              swap2\n              pop\n              pop\n              jump\t// out\n                /* \"#utility.yul\":297:626   */\n            tag_7:\n                /* \"#utility.yul\":356:362   */\n              0x00\n                /* \"#utility.yul\":405:407   */\n              0x20\n                /* \"#utility.yul\":393:402   */\n              dup3\n                /* \"#utility.yul\":384:391   */\n              dup5\n                /* \"#utility.yul\":380:403   */\n              sub\n                /* \"#utility.yul\":376:408   */\n              slt\n                /* \"#utility.yul\":373:492   */\n              iszero\n              tag_26\n              jumpi\n                /* \"#utility.yul\":411:490   */\n              tag_27\n              tag_28\n              jump\t// in\n            tag_27:\n                /* \"#utility.yul\":373:492   */\n            tag_26:\n                /* \"#utility.yul\":531:532   */\n              0x00\n                /* \"#utility.yul\":556:609   */\n              tag_29\n                /* \"#utility.yul\":601:608   */\n              dup5\n                /* \"#utility.yul\":592:598   */\n              dup3\n                /* \"#utility.yul\":581:590   */\n              dup6\n                /* \"#utility.yul\":577:599   */\n              add\n                /* \"#utility.yul\":556:609   */\n              tag_17\n              jump\t// in\n            tag_29:\n                /* \"#utility.yul\":546:609   */\n              swap2\n              pop\n                /* \"#utility.yul\":502:619   */\n              pop\n                /* \"#utility.yul\":297:626   */\n              swap3\n              swap2\n              pop\n              pop\n              jump\t// out\n                /* \"#utility.yul\":632:961   */\n            tag_13:\n                /* \"#utility.yul\":691:697   */\n              0x00\n                /* \"#utility.yul\":740:742   */\n              0x20\n                /* \"#utility.yul\":728:737   */\n              dup3\n                /* \"#utility.yul\":719:726   */\n              dup5\n                /* \"#utility.yul\":715:738   */\n              sub\n                /* \"#utility.yul\":711:743   */\n              slt\n                /* \"#utility.yul\":708:827   */\n              iszero\n              tag_31\n              jumpi\n                /* \"#utility.yul\":746:825   */\n              tag_32\n              tag_28\n              jump\t// in\n            tag_32:\n                /* \"#utility.yul\":708:827   */\n            tag_31:\n                /* \"#utility.yul\":866:867   */\n              0x00\n                /* \"#utility.yul\":891:944   */\n              tag_33\n                /* \"#utility.yul\":936:943   */\n              dup5\n                /* \"#utility.yul\":927:933   */\n              dup3\n                /* \"#utility.yul\":916:925   */\n              dup6\n                /* \"#utility.yul\":912:934   */\n              add\n                /* \"#utility.yul\":891:944   */\n              tag_21\n              jump\t// in\n            tag_33:\n                /* \"#utility.yul\":881:944   */\n              swap2\n              pop\n                /* \"#utility.yul\":837:954   */\n              pop\n                /* \"#utility.yul\":632:961   */\n              swap3\n              swap2\n              pop\n              pop\n              jump\t// out\n                /* \"#utility.yul\":967:1085   */\n            tag_34:\n                /* \"#utility.yul\":1054:1078   */\n              tag_36\n                /* \"#utility.yul\":1072:1077   */\n              dup2\n                /* \"#utility.yul\":1054:1078   */\n              tag_37\n              jump\t// in\n            tag_36:\n                /* \"#utility.yul\":1049:1052   */\n              dup3\n                /* \"#utility.yul\":1042:1079   */\n              mstore\n                /* \"#utility.yul\":967:1085   */\n              pop\n              pop\n              jump\t// out\n                /* \"#utility.yul\":1091:1313   */\n            tag_10:\n                /* \"#utility.yul\":1184:1188   */\n              0x00\n                /* \"#utility.yul\":1222:1224   */\n              0x20\n                /* \"#utility.yul\":1211:1220   */\n              dup3\n                /* \"#utility.yul\":1207:1225   */\n              add\n                /* \"#utility.yul\":1199:1225   */\n              swap1\n              pop\n                /* \"#utility.yul\":1235:1306   */\n              tag_39\n                /* \"#utility.yul\":1303:1304   */\n              0x00\n                /* \"#utility.yul\":1292:1301   */\n              dup4\n                /* \"#utility.yul\":1288:1305   */\n              add\n                /* \"#utility.yul\":1279:1285   */\n              dup5\n                /* \"#utility.yul\":1235:1306   */\n              tag_34\n              jump\t// in\n            tag_39:\n                /* \"#utility.yul\":1091:1313   */\n              swap3\n              swap2\n              pop\n              pop\n              jump\t// out\n                /* \"#utility.yul\":1400:1496   */\n            tag_42:\n                /* \"#utility.yul\":1437:1444   */\n              0x00\n                /* \"#utility.yul\":1466:1490   */\n              tag_44\n                /* \"#utility.yul\":1484:1489   */\n              dup3\n                /* \"#utility.yul\":1466:1490   */\n              tag_45\n              jump\t// in\n            tag_44:\n                /* \"#utility.yul\":1455:1490   */\n              swap1\n              pop\n                /* \"#utility.yul\":1400:1496   */\n              swap2\n              swap1\n              pop\n              jump\t// out\n                /* \"#utility.yul\":1502:1628   */\n            tag_45:\n                /* \"#utility.yul\":1539:1546   */\n              0x00\n                /* \"#utility.yul\":1579:1621   */\n              0xffffffffffffffffffffffffffffffffffffffff\n                /* \"#utility.yul\":1572:1577   */\n              dup3\n                /* \"#utility.yul\":1568:1622   */\n              and\n                /* \"#utility.yul\":1557:1622   */\n              swap1\n              pop\n                /* \"#utility.yul\":1502:1628   */\n              swap2\n              swap1\n              pop\n              jump\t// out\n                /* \"#utility.yul\":1634:1711   */\n            tag_37:\n                /* \"#utility.yul\":1671:1678   */\n              0x00\n                /* \"#utility.yul\":1700:1705   */\n              dup2\n                /* \"#utility.yul\":1689:1705   */\n              swap1\n              pop\n                /* \"#utility.yul\":1634:1711   */\n              swap2\n              swap1\n              pop\n              jump\t// out\n                /* \"#utility.yul\":1840:1957   */\n            tag_28:\n                /* \"#utility.yul\":1949:1950   */\n              0x00\n                /* \"#utility.yul\":1946:1947   */\n              dup1\n                /* \"#utility.yul\":1939:1951   */\n              revert\n                /* \"#utility.yul\":1963:2085   */\n            tag_20:\n                /* \"#utility.yul\":2036:2060   */\n              tag_52\n                /* \"#utility.yul\":2054:2059   */\n              dup2\n                /* \"#utility.yul\":2036:2060   */\n              tag_42\n              jump\t// in\n            tag_52:\n                /* \"#utility.yul\":2029:2034   */\n              dup2\n                /* \"#utility.yul\":2026:2061   */\n              eq\n                /* \"#utility.yul\":2016:2079   */\n              tag_53\n              jumpi\n                /* \"#utility.yul\":2075:2076   */\n              0x00\n                /* \"#utility.yul\":2072:2073   */\n              dup1\n                /* \"#utility.yul\":2065:2077   */\n              revert\n                /* \"#utility.yul\":2016:2079   */\n            tag_53:\n                /* \"#utility.yul\":1963:2085   */\n              pop\n              jump\t// out\n                /* \"#utility.yul\":2091:2213   */\n            tag_24:\n                /* \"#utility.yul\":2164:2188   */\n              tag_55\n                /* \"#utility.yul\":2182:2187   */\n              dup2\n                /* \"#utility.yul\":2164:2188   */\n              tag_37\n              jump\t// in\n            tag_55:\n                /* \"#utility.yul\":2157:2162   */\n              dup2\n                /* \"#utility.yul\":2154:2189   */\n              eq\n                /* \"#utility.yul\":2144:2207   */\n              tag_56\n              jumpi\n                /* \"#utility.yul\":2203:2204   */\n              0x00\n                /* \"#utility.yul\":2200:2201   */\n              dup1\n                /* \"#utility.yul\":2193:2205   */\n              revert\n                /* \"#utility.yul\":2144:2207   */\n            tag_56:\n                /* \"#utility.yul\":2091:2213   */\n              pop\n              jump\t// out\n\n            auxdata: 0xa26469706673582212200bd4842aacf3253fb485f8fe4a04532b77e1c99f772a560d7dca52db75261d9764736f6c63430008070033\n        }\n    }\n\n    auxdata: 0xa2646970667358221220fa0c6e0fe215c12976914943c88126258f64bf974028df0f1159ea4e19eb2f6964736f6c63430008070033\n}\n",
				"bytecode": {
					"linkReferences": {},
					"object": "608060405234801561001057600080fd5b5061053c806100206000396000f3fe608060405234801561001057600080fd5b506004361061002b5760003560e01c8063a9559dd714610030575b600080fd5b61003861004e565b6040516100459190610229565b60405180910390f35b60008060405161005d90610177565b604051809103906000f080158015610079573d6000803e3d6000fd5b5090508073ffffffffffffffffffffffffffffffffffffffff1663ba7b37d4600a6040518263ffffffff1660e01b81526004016100b6919061020e565b600060405180830381600087803b1580156100d057600080fd5b505af11580156100e4573d6000803e3d6000fd5b505050508073ffffffffffffffffffffffffffffffffffffffff166327e235e3306040518263ffffffff1660e01b815260040161012191906101f3565b60206040518083038186803b15801561013957600080fd5b505afa15801561014d573d6000803e3d6000fd5b505050506040513d601f19601f820116820180604052508101906101719190610199565b91505090565b610258806102af83390190565b60008151905061019381610297565b92915050565b6000602082840312156101af576101ae610292565b5b60006101bd84828501610184565b91505092915050565b6101cf81610244565b82525050565b6101de81610280565b82525050565b6101ed81610276565b82525050565b600060208201905061020860008301846101c6565b92915050565b600060208201905061022360008301846101d5565b92915050565b600060208201905061023e60008301846101e4565b92915050565b600061024f82610256565b9050919050565b600073ffffffffffffffffffffffffffffffffffffffff82169050919050565b6000819050919050565b600061028b82610276565b9050919050565b600080fd5b6102a081610276565b81146102ab57600080fd5b5056fe608060405234801561001057600080fd5b50610238806100206000396000f3fe608060405234801561001057600080fd5b50600436106100365760003560e01c806327e235e31461003b578063ba7b37d41461006b575b600080fd5b6100556004803603810190610050919061010f565b610087565b6040516100629190610178565b60405180910390f35b6100856004803603810190610080919061013c565b61009f565b005b60006020528060005260406000206000915090505481565b806000803373ffffffffffffffffffffffffffffffffffffffff1673ffffffffffffffffffffffffffffffffffffffff1681526020019081526020016000208190555050565b6000813590506100f4816101d4565b92915050565b600081359050610109816101eb565b92915050565b600060208284031215610125576101246101cf565b5b6000610133848285016100e5565b91505092915050565b600060208284031215610152576101516101cf565b5b6000610160848285016100fa565b91505092915050565b610172816101c5565b82525050565b600060208201905061018d6000830184610169565b92915050565b600061019e826101a5565b9050919050565b600073ffffffffffffffffffffffffffffffffffffffff82169050919050565b6000819050919050565b600080fd5b6101dd81610193565b81146101e857600080fd5b50565b6101f4816101c5565b81146101ff57600080fd5b5056fea26469706673582212200bd4842aacf3253fb485f8fe4a04532b77e1c99f772a560d7dca52db75261d9764736f6c63430008070033a2646970667358221220fa0c6e0fe215c12976914943c88126258f64bf974028df0f1159ea4e19eb2f6964736f6c63430008070033",
					"opcodes": "PUSH1 0x80 PUSH1 0x40 MSTORE CALLVALUE DUP1 ISZERO PUSH2 0x10 JUMPI PUSH1 0x0 DUP1 REVERT JUMPDEST POP PUSH2 0x53C DUP1 PUSH2 0x20 PUSH1 0x0 CODECOPY PUSH1 0x0 RETURN INVALID PUSH1 0x80 PUSH1 0x40 MSTORE CALLVALUE DUP1 ISZERO PUSH2 0x10 JUMPI PUSH1 0x0 DUP1 REVERT JUMPDEST POP PUSH1 0x4 CALLDATASIZE LT PUSH2 0x2B JUMPI PUSH1 0x0 CALLDATALOAD PUSH1 0xE0 SHR DUP1 PUSH4 0xA9559DD7 EQ PUSH2 0x30 JUMPI JUMPDEST PUSH1 0x0 DUP1 REVERT JUMPDEST PUSH2 0x38 PUSH2 0x4E JUMP JUMPDEST PUSH1 0x40 MLOAD PUSH2 0x45 SWAP2 SWAP1 PUSH2 0x229 JUMP JUMPDEST PUSH1 0x40 MLOAD DUP1 SWAP2 SUB SWAP1 RETURN JUMPDEST PUSH1 0x0 DUP1 PUSH1 0x40 MLOAD PUSH2 0x5D SWAP1 PUSH2 0x177 JUMP JUMPDEST PUSH1 0x40 MLOAD DUP1 SWAP2 SUB SWAP1 PUSH1 0x0 CREATE DUP1 ISZERO DUP1 ISZERO PUSH2 0x79 JUMPI RETURNDATASIZE PUSH1 0x0 DUP1 RETURNDATACOPY RETURNDATASIZE PUSH1 0x0 REVERT JUMPDEST POP SWAP1 POP DUP1 PUSH20 0xFFFFFFFFFFFFFFFFFFFFFFFFFFFFFFFFFFFFFFFF AND PUSH4 0xBA7B37D4 PUSH1 0xA PUSH1 0x40 MLOAD DUP3 PUSH4 0xFFFFFFFF AND PUSH1 0xE0 SHL DUP2 MSTORE PUSH1 0x4 ADD PUSH2 0xB6 SWAP2 SWAP1 PUSH2 0x20E JUMP JUMPDEST PUSH1 0x0 PUSH1 0x40 MLOAD DUP1 DUP4 SUB DUP2 PUSH1 0x0 DUP8 DUP1 EXTCODESIZE ISZERO DUP1 ISZERO PUSH2 0xD0 JUMPI PUSH1 0x0 DUP1 REVERT JUMPDEST POP GAS CALL ISZERO DUP1 ISZERO PUSH2 0xE4 JUMPI RETURNDATASIZE PUSH1 0x0 DUP1 RETURNDATACOPY RETURNDATASIZE PUSH1 0x0 REVERT JUMPDEST POP POP POP POP DUP1 PUSH20 0xFFFFFFFFFFFFFFFFFFFFFFFFFFFFFFFFFFFFFFFF AND PUSH4 0x27E235E3 ADDRESS PUSH1 0x40 MLOAD DUP3 PUSH4 0xFFFFFFFF AND PUSH1 0xE0 SHL DUP2 MSTORE PUSH1 0x4 ADD PUSH2 0x121 SWAP2 SWAP1 PUSH2 0x1F3 JUMP JUMPDEST PUSH1 0x20 PUSH1 0x40 MLOAD DUP1 DUP4 SUB DUP2 DUP7 DUP1 EXTCODESIZE ISZERO DUP1 ISZERO PUSH2 0x139 JUMPI PUSH1 0x0 DUP1 REVERT JUMPDEST POP GAS STATICCALL ISZERO DUP1 ISZERO PUSH2 0x14D JUMPI RETURNDATASIZE PUSH1 0x0 DUP1 RETURNDATACOPY RETURNDATASIZE PUSH1 0x0 REVERT JUMPDEST POP POP POP POP PUSH1 0x40 MLOAD RETURNDATASIZE PUSH1 0x1F NOT PUSH1 0x1F DUP3 ADD AND DUP3 ADD DUP1 PUSH1 0x40 MSTORE POP DUP2 ADD SWAP1 PUSH2 0x171 SWAP2 SWAP1 PUSH2 0x199 JUMP JUMPDEST SWAP2 POP POP SWAP1 JUMP JUMPDEST PUSH2 0x258 DUP1 PUSH2 0x2AF DUP4 CODECOPY ADD SWAP1 JUMP JUMPDEST PUSH1 0x0 DUP2 MLOAD SWAP1 POP PUSH2 0x193 DUP2 PUSH2 0x297 JUMP JUMPDEST SWAP3 SWAP2 POP POP JUMP JUMPDEST PUSH1 0x0 PUSH1 0x20 DUP3 DUP5 SUB SLT ISZERO PUSH2 0x1AF JUMPI PUSH2 0x1AE PUSH2 0x292 JUMP JUMPDEST JUMPDEST PUSH1 0x0 PUSH2 0x1BD DUP5 DUP3 DUP6 ADD PUSH2 0x184 JUMP JUMPDEST SWAP2 POP POP SWAP3 SWAP2 POP POP JUMP JUMPDEST PUSH2 0x1CF DUP2 PUSH2 0x244 JUMP JUMPDEST DUP3 MSTORE POP POP JUMP JUMPDEST PUSH2 0x1DE DUP2 PUSH2 0x280 JUMP JUMPDEST DUP3 MSTORE POP POP JUMP JUMPDEST PUSH2 0x1ED DUP2 PUSH2 0x276 JUMP JUMPDEST DUP3 MSTORE POP POP JUMP JUMPDEST PUSH1 0x0 PUSH1 0x20 DUP3 ADD SWAP1 POP PUSH2 0x208 PUSH1 0x0 DUP4 ADD DUP5 PUSH2 0x1C6 JUMP JUMPDEST SWAP3 SWAP2 POP POP JUMP JUMPDEST PUSH1 0x0 PUSH1 0x20 DUP3 ADD SWAP1 POP PUSH2 0x223 PUSH1 0x0 DUP4 ADD DUP5 PUSH2 0x1D5 JUMP JUMPDEST SWAP3 SWAP2 POP POP JUMP JUMPDEST PUSH1 0x0 PUSH1 0x20 DUP3 ADD SWAP1 POP PUSH2 0x23E PUSH1 0x0 DUP4 ADD DUP5 PUSH2 0x1E4 JUMP JUMPDEST SWAP3 SWAP2 POP POP JUMP JUMPDEST PUSH1 0x0 PUSH2 0x24F DUP3 PUSH2 0x256 JUMP JUMPDEST SWAP1 POP SWAP2 SWAP1 POP JUMP JUMPDEST PUSH1 0x0 PUSH20 0xFFFFFFFFFFFFFFFFFFFFFFFFFFFFFFFFFFFFFFFF DUP3 AND SWAP1 POP SWAP2 SWAP1 POP JUMP JUMPDEST PUSH1 0x0 DUP2 SWAP1 POP SWAP2 SWAP1 POP JUMP JUMPDEST PUSH1 0x0 PUSH2 0x28B DUP3 PUSH2 0x276 JUMP JUMPDEST SWAP1 POP SWAP2 SWAP1 POP JUMP JUMPDEST PUSH1 0x0 DUP1 REVERT JUMPDEST PUSH2 0x2A0 DUP2 PUSH2 0x276 JUMP JUMPDEST DUP2 EQ PUSH2 0x2AB JUMPI PUSH1 0x0 DUP1 REVERT JUMPDEST POP JUMP INVALID PUSH1 0x80 PUSH1 0x40 MSTORE CALLVALUE DUP1 ISZERO PUSH2 0x10 JUMPI PUSH1 0x0 DUP1 REVERT JUMPDEST POP PUSH2 0x238 DUP1 PUSH2 0x20 PUSH1 0x0 CODECOPY PUSH1 0x0 RETURN INVALID PUSH1 0x80 PUSH1 0x40 MSTORE CALLVALUE DUP1 ISZERO PUSH2 0x10 JUMPI PUSH1 0x0 DUP1 REVERT JUMPDEST POP PUSH1 0x4 CALLDATASIZE LT PUSH2 0x36 JUMPI PUSH1 0x0 CALLDATALOAD PUSH1 0xE0 SHR DUP1 PUSH4 0x27E235E3 EQ PUSH2 0x3B JUMPI DUP1 PUSH4 0xBA7B37D4 EQ PUSH2 0x6B JUMPI JUMPDEST PUSH1 0x0 DUP1 REVERT JUMPDEST PUSH2 0x55 PUSH1 0x4 DUP1 CALLDATASIZE SUB DUP2 ADD SWAP1 PUSH2 0x50 SWAP2 SWAP1 PUSH2 0x10F JUMP JUMPDEST PUSH2 0x87 JUMP JUMPDEST PUSH1 0x40 MLOAD PUSH2 0x62 SWAP2 SWAP1 PUSH2 0x178 JUMP JUMPDEST PUSH1 0x40 MLOAD DUP1 SWAP2 SUB SWAP1 RETURN JUMPDEST PUSH2 0x85 PUSH1 0x4 DUP1 CALLDATASIZE SUB DUP2 ADD SWAP1 PUSH2 0x80 SWAP2 SWAP1 PUSH2 0x13C JUMP JUMPDEST PUSH2 0x9F JUMP JUMPDEST STOP JUMPDEST PUSH1 0x0 PUSH1 0x20 MSTORE DUP1 PUSH1 0x0 MSTORE PUSH1 0x40 PUSH1 0x0 KECCAK256 PUSH1 0x0 SWAP2 POP SWAP1 POP SLOAD DUP2 JUMP JUMPDEST DUP1 PUSH1 0x0 DUP1 CALLER PUSH20 0xFFFFFFFFFFFFFFFFFFFFFFFFFFFFFFFFFFFFFFFF AND PUSH20 0xFFFFFFFFFFFFFFFFFFFFFFFFFFFFFFFFFFFFFFFF AND DUP2 MSTORE PUSH1 0x20 ADD SWAP1 DUP2 MSTORE PUSH1 0x20 ADD PUSH1 0x0 KECCAK256 DUP2 SWAP1 SSTORE POP POP JUMP JUMPDEST PUSH1 0x0 DUP2 CALLDATALOAD SWAP1 POP PUSH2 0xF4 DUP2 PUSH2 0x1D4 JUMP JUMPDEST SWAP3 SWAP2 POP POP JUMP JUMPDEST PUSH1 0x0 DUP2 CALLDATALOAD SWAP1 POP PUSH2 0x109 DUP2 PUSH2 0x1EB JUMP JUMPDEST SWAP3 SWAP2 POP POP JUMP JUMPDEST PUSH1 0x0 PUSH1 0x20 DUP3 DUP5 SUB SLT ISZERO PUSH2 0x125 JUMPI PUSH2 0x124 PUSH2 0x1CF JUMP JUMPDEST JUMPDEST PUSH1 0x0 PUSH2 0x133 DUP5 DUP3 DUP6 ADD PUSH2 0xE5 JUMP JUMPDEST SWAP2 POP POP SWAP3 SWAP2 POP POP JUMP JUMPDEST PUSH1 0x0 PUSH1 0x20 DUP3 DUP5 SUB SLT ISZERO PUSH2 0x152 JUMPI PUSH2 0x151 PUSH2 0x1CF JUMP JUMPDEST JUMPDEST PUSH1 0x0 PUSH2 0x160 DUP5 DUP3 DUP6 ADD PUSH2 0xFA JUMP JUMPDEST SWAP2 POP POP SWAP3 SWAP2 POP POP JUMP JUMPDEST PUSH2 0x172 DUP2 PUSH2 0x1C5 JUMP JUMPDEST DUP3 MSTORE POP POP JUMP JUMPDEST PUSH1 0x0 PUSH1 0x20 DUP3 ADD SWAP1 POP PUSH2 0x18D PUSH1 0x0 DUP4 ADD DUP5 PUSH2 0x169 JUMP JUMPDEST SWAP3 SWAP2 POP POP JUMP JUMPDEST PUSH1 0x0 PUSH2 0x19E DUP3 PUSH2 0x1A5 JUMP JUMPDEST SWAP1 POP SWAP2 SWAP1 POP JUMP JUMPDEST PUSH1 0x0 PUSH20 0xFFFFFFFFFFFFFFFFFFFFFFFFFFFFFFFFFFFFFFFF DUP3 AND SWAP1 POP SWAP2 SWAP1 POP JUMP JUMPDEST PUSH1 0x0 DUP2 SWAP1 POP SWAP2 SWAP1 POP JUMP JUMPDEST PUSH1 0x0 DUP1 REVERT JUMPDEST PUSH2 0x1DD DUP2 PUSH2 0x193 JUMP JUMPDEST DUP2 EQ PUSH2 0x1E8 JUMPI PUSH1 0x0 DUP1 REVERT JUMPDEST POP JUMP JUMPDEST PUSH2 0x1F4 DUP2 PUSH2 0x1C5 JUMP JUMPDEST DUP2 EQ PUSH2 0x1FF JUMPI PUSH1 0x0 DUP1 REVERT JUMPDEST POP JUMP INVALID LOG2 PUSH5 0x6970667358 0x22 SLT KECCAK256 SIGNEXTEND 0xD4 DUP5 0x2A 0xAC RETURN 0x25 EXTCODEHASH 0xB4 DUP6 0xF8 INVALID 0x4A DIV MSTORE8 0x2B PUSH24 0xE1C99F772A560D7DCA52DB75261D9764736F6C6343000807 STOP CALLER LOG2 PUSH5 0x6970667358 0x22 SLT KECCAK256 STATICCALL 0xC PUSH15 0xFE215C12976914943C88126258F64 0xBF SWAP8 BLOCKHASH 0x28 0xDF 0xF GT MSIZE 0xEA 0x4E NOT 0xEB 0x2F PUSH10 0x64736F6C634300080700 CALLER "
				},
				"gasEstimates": {
					"creation": {
						"codeDepositCost": "268000",
						"executionCost": "306",
						"totalCost": "268306"
					},
					"external": {
						"updateBalance()": "infinite"
					}
				},
				"methodIdentifiers": {
					"updateBalance()": "a9559dd7"
				}
			},
			"storageLayout": {
				"storage": [],
				"types": null
			},
			"userdoc": {
				"kind": "user",
				"methods": {},
				"version": 1
			}
		}
	}
}