{
	"eth based/truffle/contracts/FLIR_Contract.sol": {
		"FLIRContract": {
			"abi": [
				{
					"inputs": [],
					"stateMutability": "nonpayable",
					"type": "constructor"
				},
				{
					"inputs": [],
					"name": "balCheck",
					"outputs": [],
					"stateMutability": "payable",
					"type": "function"
				},
				{
					"inputs": [],
					"name": "balance",
					"outputs": [
						{
							"internalType": "uint256",
							"name": "",
							"type": "uint256"
						}
					],
					"stateMutability": "view",
					"type": "function"
				},
				{
					"inputs": [],
					"name": "btc1",
					"outputs": [
						{
							"internalType": "uint256",
							"name": "",
							"type": "uint256"
						}
					],
					"stateMutability": "view",
					"type": "function"
				},
				{
					"inputs": [],
					"name": "btc2",
					"outputs": [
						{
							"internalType": "uint256",
							"name": "",
							"type": "uint256"
						}
					],
					"stateMutability": "view",
					"type": "function"
				},
				{
					"inputs": [],
					"name": "btc3",
					"outputs": [
						{
							"internalType": "uint256",
							"name": "",
							"type": "uint256"
						}
					],
					"stateMutability": "view",
					"type": "function"
				},
				{
					"inputs": [],
					"name": "btc4",
					"outputs": [
						{
							"internalType": "uint256",
							"name": "",
							"type": "uint256"
						}
					],
					"stateMutability": "view",
					"type": "function"
				},
				{
					"inputs": [],
					"name": "btc5",
					"outputs": [
						{
							"internalType": "uint256",
							"name": "",
							"type": "uint256"
						}
					],
					"stateMutability": "view",
					"type": "function"
				},
				{
					"inputs": [],
					"name": "btc6",
					"outputs": [
						{
							"internalType": "uint256",
							"name": "",
							"type": "uint256"
						}
					],
					"stateMutability": "view",
					"type": "function"
				},
				{
					"inputs": [],
					"name": "btc7",
					"outputs": [
						{
							"internalType": "uint256",
							"name": "",
							"type": "uint256"
						}
					],
					"stateMutability": "view",
					"type": "function"
				},
				{
					"inputs": [],
					"name": "btc8",
					"outputs": [
						{
							"internalType": "uint256",
							"name": "",
							"type": "uint256"
						}
					],
					"stateMutability": "view",
					"type": "function"
				},
				{
					"inputs": [],
					"name": "btp",
					"outputs": [
						{
							"internalType": "uint256",
							"name": "",
							"type": "uint256"
						}
					],
					"stateMutability": "view",
					"type": "function"
				},
				{
					"inputs": [
						{
							"internalType": "uint256",
							"name": "Cimp",
							"type": "uint256"
						}
					],
					"name": "getConsumerTariff",
					"outputs": [
						{
							"internalType": "uint256",
							"name": "Tc",
							"type": "uint256"
						}
					],
					"stateMutability": "nonpayable",
					"type": "function"
				},
				{
					"inputs": [
						{
							"internalType": "uint256",
							"name": "Pexp",
							"type": "uint256"
						}
					],
					"name": "getProsumerTariff",
					"outputs": [
						{
							"internalType": "uint256",
							"name": "Tp",
							"type": "uint256"
						}
					],
					"stateMutability": "nonpayable",
					"type": "function"
				},
				{
					"inputs": [
						{
							"internalType": "uint256",
							"name": "nPget",
							"type": "uint256"
						},
						{
							"internalType": "uint256",
							"name": "nCget",
							"type": "uint256"
						},
						{
							"internalType": "uint256",
							"name": "nEVget",
							"type": "uint256"
						}
					],
					"name": "getnPnCnEV",
					"outputs": [
						{
							"internalType": "uint256",
							"name": "nP",
							"type": "uint256"
						},
						{
							"internalType": "uint256",
							"name": "nC",
							"type": "uint256"
						},
						{
							"internalType": "uint256",
							"name": "nEV",
							"type": "uint256"
						}
					],
					"stateMutability": "nonpayable",
					"type": "function"
				},
				{
					"inputs": [
						{
							"internalType": "address payable",
							"name": "_receiver",
							"type": "address"
						},
						{
							"internalType": "uint256",
							"name": "amount",
							"type": "uint256"
						}
					],
					"name": "send",
					"outputs": [],
					"stateMutability": "payable",
					"type": "function"
				}
			],
			"devdoc": {
				"kind": "dev",
				"methods": {},
				"version": 1
			},
			"evm": {
				"assembly": "    /* \"eth based/truffle/contracts/FLIR_Contract.sol\":129:3635  contract FLIRContract{... */\n  mstore(0x40, 0x80)\n    /* \"eth based/truffle/contracts/FLIR_Contract.sol\":610:611  0 */\n  0x00\n    /* \"eth based/truffle/contracts/FLIR_Contract.sol\":588:611  uint public balance = 0 */\n  0x01\n  sstore\n    /* \"eth based/truffle/contracts/FLIR_Contract.sol\":767:768  3 */\n  0x03\n    /* \"eth based/truffle/contracts/FLIR_Contract.sol\":749:768  uint public btp = 3 */\n  0x02\n  sstore\n    /* \"eth based/truffle/contracts/FLIR_Contract.sol\":794:795  3 */\n  0x03\n    /* \"eth based/truffle/contracts/FLIR_Contract.sol\":775:795  uint public btc1 = 3 */\n  dup1\n  sstore\n    /* \"eth based/truffle/contracts/FLIR_Contract.sol\":820:821  4 */\n  0x04\n    /* \"eth based/truffle/contracts/FLIR_Contract.sol\":801:821  uint public btc2 = 4 */\n  dup1\n  sstore\n    /* \"eth based/truffle/contracts/FLIR_Contract.sol\":846:847  5 */\n  0x05\n    /* \"eth based/truffle/contracts/FLIR_Contract.sol\":827:847  uint public btc3 = 5 */\n  dup1\n  sstore\n    /* \"eth based/truffle/contracts/FLIR_Contract.sol\":872:873  6 */\n  0x06\n    /* \"eth based/truffle/contracts/FLIR_Contract.sol\":853:873  uint public btc4 = 6 */\n  dup1\n  sstore\n    /* \"eth based/truffle/contracts/FLIR_Contract.sol\":898:899  7 */\n  0x07\n    /* \"eth based/truffle/contracts/FLIR_Contract.sol\":879:899  uint public btc5 = 7 */\n  dup1\n  sstore\n    /* \"eth based/truffle/contracts/FLIR_Contract.sol\":924:925  8 */\n  0x08\n    /* \"eth based/truffle/contracts/FLIR_Contract.sol\":905:925  uint public btc6 = 8 */\n  dup1\n  sstore\n    /* \"eth based/truffle/contracts/FLIR_Contract.sol\":950:951  9 */\n  0x09\n    /* \"eth based/truffle/contracts/FLIR_Contract.sol\":931:951  uint public btc7 = 9 */\n  dup1\n  sstore\n    /* \"eth based/truffle/contracts/FLIR_Contract.sol\":976:978  10 */\n  0x0a\n    /* \"eth based/truffle/contracts/FLIR_Contract.sol\":957:978  uint public btc8 = 10 */\n  dup1\n  sstore\n    /* \"eth based/truffle/contracts/FLIR_Contract.sol\":617:672  constructor() public{... */\n  callvalue\n  dup1\n  iszero\n  tag_1\n  jumpi\n  0x00\n  dup1\n  revert\ntag_1:\n  pop\n    /* \"eth based/truffle/contracts/FLIR_Contract.sol\":655:665  msg.sender */\n  caller\n    /* \"eth based/truffle/contracts/FLIR_Contract.sol\":647:652  owner */\n  0x00\n  dup1\n    /* \"eth based/truffle/contracts/FLIR_Contract.sol\":647:665  owner = msg.sender */\n  0x0100\n  exp\n  dup2\n  sload\n  dup2\n  0xffffffffffffffffffffffffffffffffffffffff\n  mul\n  not\n  and\n  swap1\n  dup4\n  0xffffffffffffffffffffffffffffffffffffffff\n  and\n  mul\n  or\n  swap1\n  sstore\n  pop\n    /* \"eth based/truffle/contracts/FLIR_Contract.sol\":129:3635  contract FLIRContract{... */\n  dataSize(sub_0)\n  dup1\n  dataOffset(sub_0)\n  0x00\n  codecopy\n  0x00\n  return\nstop\n\nsub_0: assembly {\n        /* \"eth based/truffle/contracts/FLIR_Contract.sol\":129:3635  contract FLIRContract{... */\n      mstore(0x40, 0x80)\n      jumpi(tag_1, lt(calldatasize, 0x04))\n      shr(0xe0, calldataload(0x00))\n      dup1\n      0x7c134b14\n      gt\n      tag_17\n      jumpi\n      dup1\n      0xc2c496ec\n      gt\n      tag_18\n      jumpi\n      dup1\n      0xc2c496ec\n      eq\n      tag_13\n      jumpi\n      dup1\n      0xd0679d34\n      eq\n      tag_14\n      jumpi\n      dup1\n      0xed2fa5ab\n      eq\n      tag_15\n      jumpi\n      dup1\n      0xf02e48c3\n      eq\n      tag_16\n      jumpi\n      jump(tag_1)\n    tag_18:\n      dup1\n      0x7c134b14\n      eq\n      tag_9\n      jumpi\n      dup1\n      0xa8bdb68b\n      eq\n      tag_10\n      jumpi\n      dup1\n      0xb4ad7fa9\n      eq\n      tag_11\n      jumpi\n      dup1\n      0xb69ef8a8\n      eq\n      tag_12\n      jumpi\n      jump(tag_1)\n    tag_17:\n      dup1\n      0x28780a44\n      gt\n      tag_19\n      jumpi\n      dup1\n      0x28780a44\n      eq\n      tag_5\n      jumpi\n      dup1\n      0x2c9af64c\n      eq\n      tag_6\n      jumpi\n      dup1\n      0x5c8f6b56\n      eq\n      tag_7\n      jumpi\n      dup1\n      0x721028ec\n      eq\n      tag_8\n      jumpi\n      jump(tag_1)\n    tag_19:\n      dup1\n      0x0c03a1a3\n      eq\n      tag_2\n      jumpi\n      dup1\n      0x103347e7\n      eq\n      tag_3\n      jumpi\n      dup1\n      0x20e731a1\n      eq\n      tag_4\n      jumpi\n    tag_1:\n      0x00\n      dup1\n      revert\n        /* \"eth based/truffle/contracts/FLIR_Contract.sol\":879:899  uint public btc5 = 7 */\n    tag_2:\n      callvalue\n      dup1\n      iszero\n      tag_20\n      jumpi\n      0x00\n      dup1\n      revert\n    tag_20:\n      pop\n      tag_21\n      tag_22\n      jump\t// in\n    tag_21:\n      mload(0x40)\n      tag_23\n      swap2\n      swap1\n      tag_24\n      jump\t// in\n    tag_23:\n      mload(0x40)\n      dup1\n      swap2\n      sub\n      swap1\n      return\n        /* \"eth based/truffle/contracts/FLIR_Contract.sol\":853:873  uint public btc4 = 6 */\n    tag_3:\n      callvalue\n      dup1\n      iszero\n      tag_25\n      jumpi\n      0x00\n      dup1\n      revert\n    tag_25:\n      pop\n      tag_26\n      tag_27\n      jump\t// in\n    tag_26:\n      mload(0x40)\n      tag_28\n      swap2\n      swap1\n      tag_24\n      jump\t// in\n    tag_28:\n      mload(0x40)\n      dup1\n      swap2\n      sub\n      swap1\n      return\n        /* \"eth based/truffle/contracts/FLIR_Contract.sol\":827:847  uint public btc3 = 5 */\n    tag_4:\n      callvalue\n      dup1\n      iszero\n      tag_29\n      jumpi\n      0x00\n      dup1\n      revert\n    tag_29:\n      pop\n      tag_30\n      tag_31\n      jump\t// in\n    tag_30:\n      mload(0x40)\n      tag_32\n      swap2\n      swap1\n      tag_24\n      jump\t// in\n    tag_32:\n      mload(0x40)\n      dup1\n      swap2\n      sub\n      swap1\n      return\n        /* \"eth based/truffle/contracts/FLIR_Contract.sol\":801:821  uint public btc2 = 4 */\n    tag_5:\n      callvalue\n      dup1\n      iszero\n      tag_33\n      jumpi\n      0x00\n      dup1\n      revert\n    tag_33:\n      pop\n      tag_34\n      tag_35\n      jump\t// in\n    tag_34:\n      mload(0x40)\n      tag_36\n      swap2\n      swap1\n      tag_24\n      jump\t// in\n    tag_36:\n      mload(0x40)\n      dup1\n      swap2\n      sub\n      swap1\n      return\n        /* \"eth based/truffle/contracts/FLIR_Contract.sol\":749:768  uint public btp = 3 */\n    tag_6:\n      callvalue\n      dup1\n      iszero\n      tag_37\n      jumpi\n      0x00\n      dup1\n      revert\n    tag_37:\n      pop\n      tag_38\n      tag_39\n      jump\t// in\n    tag_38:\n      mload(0x40)\n      tag_40\n      swap2\n      swap1\n      tag_24\n      jump\t// in\n    tag_40:\n      mload(0x40)\n      dup1\n      swap2\n      sub\n      swap1\n      return\n        /* \"eth based/truffle/contracts/FLIR_Contract.sol\":1321:1436  function getProsumerTariff(uint Pexp) public returns (uint Tp){... */\n    tag_7:\n      callvalue\n      dup1\n      iszero\n      tag_41\n      jumpi\n      0x00\n      dup1\n      revert\n    tag_41:\n      pop\n      tag_42\n      0x04\n      dup1\n      calldatasize\n      sub\n      dup2\n      add\n      swap1\n      tag_43\n      swap2\n      swap1\n      tag_44\n      jump\t// in\n    tag_43:\n      tag_45\n      jump\t// in\n    tag_42:\n      mload(0x40)\n      tag_46\n      swap2\n      swap1\n      tag_24\n      jump\t// in\n    tag_46:\n      mload(0x40)\n      dup1\n      swap2\n      sub\n      swap1\n      return\n        /* \"eth based/truffle/contracts/FLIR_Contract.sol\":1442:2432  function getConsumerTariff(uint Cimp) public returns (uint Tc){... */\n    tag_8:\n      callvalue\n      dup1\n      iszero\n      tag_47\n      jumpi\n      0x00\n      dup1\n      revert\n    tag_47:\n      pop\n      tag_48\n      0x04\n      dup1\n      calldatasize\n      sub\n      dup2\n      add\n      swap1\n      tag_49\n      swap2\n      swap1\n      tag_44\n      jump\t// in\n    tag_49:\n      tag_50\n      jump\t// in\n    tag_48:\n      mload(0x40)\n      tag_51\n      swap2\n      swap1\n      tag_24\n      jump\t// in\n    tag_51:\n      mload(0x40)\n      dup1\n      swap2\n      sub\n      swap1\n      return\n        /* \"eth based/truffle/contracts/FLIR_Contract.sol\":2642:2710  function balCheck() public payable {... */\n    tag_9:\n      tag_52\n      tag_53\n      jump\t// in\n    tag_52:\n      stop\n        /* \"eth based/truffle/contracts/FLIR_Contract.sol\":957:978  uint public btc8 = 10 */\n    tag_10:\n      callvalue\n      dup1\n      iszero\n      tag_54\n      jumpi\n      0x00\n      dup1\n      revert\n    tag_54:\n      pop\n      tag_55\n      tag_56\n      jump\t// in\n    tag_55:\n      mload(0x40)\n      tag_57\n      swap2\n      swap1\n      tag_24\n      jump\t// in\n    tag_57:\n      mload(0x40)\n      dup1\n      swap2\n      sub\n      swap1\n      return\n        /* \"eth based/truffle/contracts/FLIR_Contract.sol\":905:925  uint public btc6 = 8 */\n    tag_11:\n      callvalue\n      dup1\n      iszero\n      tag_58\n      jumpi\n      0x00\n      dup1\n      revert\n    tag_58:\n      pop\n      tag_59\n      tag_60\n      jump\t// in\n    tag_59:\n      mload(0x40)\n      tag_61\n      swap2\n      swap1\n      tag_24\n      jump\t// in\n    tag_61:\n      mload(0x40)\n      dup1\n      swap2\n      sub\n      swap1\n      return\n        /* \"eth based/truffle/contracts/FLIR_Contract.sol\":588:611  uint public balance = 0 */\n    tag_12:\n      callvalue\n      dup1\n      iszero\n      tag_62\n      jumpi\n      0x00\n      dup1\n      revert\n    tag_62:\n      pop\n      tag_63\n      tag_64\n      jump\t// in\n    tag_63:\n      mload(0x40)\n      tag_65\n      swap2\n      swap1\n      tag_24\n      jump\t// in\n    tag_65:\n      mload(0x40)\n      dup1\n      swap2\n      sub\n      swap1\n      return\n        /* \"eth based/truffle/contracts/FLIR_Contract.sol\":775:795  uint public btc1 = 3 */\n    tag_13:\n      callvalue\n      dup1\n      iszero\n      tag_66\n      jumpi\n      0x00\n      dup1\n      revert\n    tag_66:\n      pop\n      tag_67\n      tag_68\n      jump\t// in\n    tag_67:\n      mload(0x40)\n      tag_69\n      swap2\n      swap1\n      tag_24\n      jump\t// in\n    tag_69:\n      mload(0x40)\n      dup1\n      swap2\n      sub\n      swap1\n      return\n        /* \"eth based/truffle/contracts/FLIR_Contract.sol\":2438:2636  function send(address payable _receiver, uint amount) payable public {... */\n    tag_14:\n      tag_70\n      0x04\n      dup1\n      calldatasize\n      sub\n      dup2\n      add\n      swap1\n      tag_71\n      swap2\n      swap1\n      tag_72\n      jump\t// in\n    tag_71:\n      tag_73\n      jump\t// in\n    tag_70:\n      stop\n        /* \"eth based/truffle/contracts/FLIR_Contract.sol\":931:951  uint public btc7 = 9 */\n    tag_15:\n      callvalue\n      dup1\n      iszero\n      tag_74\n      jumpi\n      0x00\n      dup1\n      revert\n    tag_74:\n      pop\n      tag_75\n      tag_76\n      jump\t// in\n    tag_75:\n      mload(0x40)\n      tag_77\n      swap2\n      swap1\n      tag_24\n      jump\t// in\n    tag_77:\n      mload(0x40)\n      dup1\n      swap2\n      sub\n      swap1\n      return\n        /* \"eth based/truffle/contracts/FLIR_Contract.sol\":992:1315  function getnPnCnEV(uint nPget, uint nCget,uint nEVget) public... */\n    tag_16:\n      callvalue\n      dup1\n      iszero\n      tag_78\n      jumpi\n      0x00\n      dup1\n      revert\n    tag_78:\n      pop\n      tag_79\n      0x04\n      dup1\n      calldatasize\n      sub\n      dup2\n      add\n      swap1\n      tag_80\n      swap2\n      swap1\n      tag_81\n      jump\t// in\n    tag_80:\n      tag_82\n      jump\t// in\n    tag_79:\n      mload(0x40)\n      tag_83\n      swap4\n      swap3\n      swap2\n      swap1\n      tag_84\n      jump\t// in\n    tag_83:\n      mload(0x40)\n      dup1\n      swap2\n      sub\n      swap1\n      return\n        /* \"eth based/truffle/contracts/FLIR_Contract.sol\":879:899  uint public btc5 = 7 */\n    tag_22:\n      sload(0x07)\n      dup2\n      jump\t// out\n        /* \"eth based/truffle/contracts/FLIR_Contract.sol\":853:873  uint public btc4 = 6 */\n    tag_27:\n      sload(0x06)\n      dup2\n      jump\t// out\n        /* \"eth based/truffle/contracts/FLIR_Contract.sol\":827:847  uint public btc3 = 5 */\n    tag_31:\n      sload(0x05)\n      dup2\n      jump\t// out\n        /* \"eth based/truffle/contracts/FLIR_Contract.sol\":801:821  uint public btc2 = 4 */\n    tag_35:\n      sload(0x04)\n      dup2\n      jump\t// out\n        /* \"eth based/truffle/contracts/FLIR_Contract.sol\":749:768  uint public btp = 3 */\n    tag_39:\n      sload(0x02)\n      dup2\n      jump\t// out\n        /* \"eth based/truffle/contracts/FLIR_Contract.sol\":1321:1436  function getProsumerTariff(uint Pexp) public returns (uint Tp){... */\n    tag_45:\n        /* \"eth based/truffle/contracts/FLIR_Contract.sol\":1375:1382  uint Tp */\n      0x00\n        /* \"eth based/truffle/contracts/FLIR_Contract.sol\":1405:1408  btp */\n      sload(0x02)\n        /* \"eth based/truffle/contracts/FLIR_Contract.sol\":1398:1402  Pexp */\n      dup3\n        /* \"eth based/truffle/contracts/FLIR_Contract.sol\":1398:1408  Pexp * btp */\n      tag_86\n      swap2\n      swap1\n      tag_87\n      jump\t// in\n    tag_86:\n        /* \"eth based/truffle/contracts/FLIR_Contract.sol\":1393:1408  Tp = Pexp * btp */\n      swap1\n      pop\n        /* \"eth based/truffle/contracts/FLIR_Contract.sol\":1321:1436  function getProsumerTariff(uint Pexp) public returns (uint Tp){... */\n      swap2\n      swap1\n      pop\n      jump\t// out\n        /* \"eth based/truffle/contracts/FLIR_Contract.sol\":1442:2432  function getConsumerTariff(uint Cimp) public returns (uint Tc){... */\n    tag_50:\n        /* \"eth based/truffle/contracts/FLIR_Contract.sol\":1496:1503  uint Tc */\n      0x00\n        /* \"eth based/truffle/contracts/FLIR_Contract.sol\":1533:1536  251 */\n      0xfb\n        /* \"eth based/truffle/contracts/FLIR_Contract.sol\":1526:1530  Cimp */\n      dup3\n        /* \"eth based/truffle/contracts/FLIR_Contract.sol\":1526:1536  Cimp < 251 */\n      lt\n        /* \"eth based/truffle/contracts/FLIR_Contract.sol\":1523:2405  if(Cimp < 251){... */\n      iszero\n      tag_89\n      jumpi\n        /* \"eth based/truffle/contracts/FLIR_Contract.sol\":1561:1563  51 */\n      0x33\n        /* \"eth based/truffle/contracts/FLIR_Contract.sol\":1554:1558  Cimp */\n      dup3\n        /* \"eth based/truffle/contracts/FLIR_Contract.sol\":1554:1563  Cimp < 51 */\n      lt\n        /* \"eth based/truffle/contracts/FLIR_Contract.sol\":1551:2160  if(Cimp < 51){... */\n      iszero\n      tag_90\n      jumpi\n        /* \"eth based/truffle/contracts/FLIR_Contract.sol\":1594:1598  btc1 */\n      sload(0x03)\n        /* \"eth based/truffle/contracts/FLIR_Contract.sol\":1587:1591  Cimp */\n      dup3\n        /* \"eth based/truffle/contracts/FLIR_Contract.sol\":1587:1598  Cimp * btc1 */\n      tag_91\n      swap2\n      swap1\n      tag_87\n      jump\t// in\n    tag_91:\n        /* \"eth based/truffle/contracts/FLIR_Contract.sol\":1582:1598  Tc = Cimp * btc1 */\n      swap1\n      pop\n        /* \"eth based/truffle/contracts/FLIR_Contract.sol\":1551:2160  if(Cimp < 51){... */\n      jump(tag_92)\n    tag_90:\n        /* \"eth based/truffle/contracts/FLIR_Contract.sol\":1641:1643  50 */\n      0x32\n        /* \"eth based/truffle/contracts/FLIR_Contract.sol\":1634:1638  Cimp */\n      dup3\n        /* \"eth based/truffle/contracts/FLIR_Contract.sol\":1634:1643  Cimp > 50 */\n      gt\n        /* \"eth based/truffle/contracts/FLIR_Contract.sol\":1634:1657  Cimp > 50 && Cimp < 101 */\n      dup1\n      iszero\n      tag_93\n      jumpi\n      pop\n        /* \"eth based/truffle/contracts/FLIR_Contract.sol\":1654:1657  101 */\n      0x65\n        /* \"eth based/truffle/contracts/FLIR_Contract.sol\":1647:1651  Cimp */\n      dup3\n        /* \"eth based/truffle/contracts/FLIR_Contract.sol\":1647:1657  Cimp < 101 */\n      lt\n        /* \"eth based/truffle/contracts/FLIR_Contract.sol\":1634:1657  Cimp > 50 && Cimp < 101 */\n    tag_93:\n        /* \"eth based/truffle/contracts/FLIR_Contract.sol\":1631:2160  if(Cimp > 50 && Cimp < 101){... */\n      iszero\n      tag_94\n      jumpi\n        /* \"eth based/truffle/contracts/FLIR_Contract.sol\":1708:1712  btc2 */\n      sload(0x04)\n        /* \"eth based/truffle/contracts/FLIR_Contract.sol\":1702:1704  50 */\n      0x32\n        /* \"eth based/truffle/contracts/FLIR_Contract.sol\":1697:1701  Cimp */\n      dup4\n        /* \"eth based/truffle/contracts/FLIR_Contract.sol\":1697:1704  Cimp-50 */\n      tag_95\n      swap2\n      swap1\n      tag_96\n      jump\t// in\n    tag_95:\n        /* \"eth based/truffle/contracts/FLIR_Contract.sol\":1696:1712  (Cimp-50) * btc2 */\n      tag_97\n      swap2\n      swap1\n      tag_87\n      jump\t// in\n    tag_97:\n        /* \"eth based/truffle/contracts/FLIR_Contract.sol\":1687:1691  btc1 */\n      sload(0x03)\n        /* \"eth based/truffle/contracts/FLIR_Contract.sol\":1682:1684  50 */\n      0x32\n        /* \"eth based/truffle/contracts/FLIR_Contract.sol\":1682:1691  50 * btc1 */\n      tag_98\n      swap2\n      swap1\n      tag_87\n      jump\t// in\n    tag_98:\n        /* \"eth based/truffle/contracts/FLIR_Contract.sol\":1681:1713  (50 * btc1) + ((Cimp-50) * btc2) */\n      tag_99\n      swap2\n      swap1\n      tag_100\n      jump\t// in\n    tag_99:\n        /* \"eth based/truffle/contracts/FLIR_Contract.sol\":1676:1713  Tc = (50 * btc1) + ((Cimp-50) * btc2) */\n      swap1\n      pop\n        /* \"eth based/truffle/contracts/FLIR_Contract.sol\":1631:2160  if(Cimp > 50 && Cimp < 101){... */\n      jump(tag_101)\n    tag_94:\n        /* \"eth based/truffle/contracts/FLIR_Contract.sol\":1756:1759  100 */\n      0x64\n        /* \"eth based/truffle/contracts/FLIR_Contract.sol\":1749:1753  Cimp */\n      dup3\n        /* \"eth based/truffle/contracts/FLIR_Contract.sol\":1749:1759  Cimp > 100 */\n      gt\n        /* \"eth based/truffle/contracts/FLIR_Contract.sol\":1749:1773  Cimp > 100 && Cimp < 151 */\n      dup1\n      iszero\n      tag_102\n      jumpi\n      pop\n        /* \"eth based/truffle/contracts/FLIR_Contract.sol\":1770:1773  151 */\n      0x97\n        /* \"eth based/truffle/contracts/FLIR_Contract.sol\":1763:1767  Cimp */\n      dup3\n        /* \"eth based/truffle/contracts/FLIR_Contract.sol\":1763:1773  Cimp < 151 */\n      lt\n        /* \"eth based/truffle/contracts/FLIR_Contract.sol\":1749:1773  Cimp > 100 && Cimp < 151 */\n    tag_102:\n        /* \"eth based/truffle/contracts/FLIR_Contract.sol\":1746:2160  if(Cimp > 100 && Cimp < 151){... */\n      iszero\n      tag_103\n      jumpi\n        /* \"eth based/truffle/contracts/FLIR_Contract.sol\":1838:1842  btc3 */\n      sload(0x05)\n        /* \"eth based/truffle/contracts/FLIR_Contract.sol\":1832:1834  50 */\n      0x32\n        /* \"eth based/truffle/contracts/FLIR_Contract.sol\":1827:1831  Cimp */\n      dup4\n        /* \"eth based/truffle/contracts/FLIR_Contract.sol\":1827:1834  Cimp-50 */\n      tag_104\n      swap2\n      swap1\n      tag_96\n      jump\t// in\n    tag_104:\n        /* \"eth based/truffle/contracts/FLIR_Contract.sol\":1826:1842  (Cimp-50) * btc3 */\n      tag_105\n      swap2\n      swap1\n      tag_87\n      jump\t// in\n    tag_105:\n        /* \"eth based/truffle/contracts/FLIR_Contract.sol\":1817:1821  btc2 */\n      sload(0x04)\n        /* \"eth based/truffle/contracts/FLIR_Contract.sol\":1812:1814  50 */\n      0x32\n        /* \"eth based/truffle/contracts/FLIR_Contract.sol\":1812:1821  50 * btc2 */\n      tag_106\n      swap2\n      swap1\n      tag_87\n      jump\t// in\n    tag_106:\n        /* \"eth based/truffle/contracts/FLIR_Contract.sol\":1803:1807  btc1 */\n      sload(0x03)\n        /* \"eth based/truffle/contracts/FLIR_Contract.sol\":1798:1800  50 */\n      0x32\n        /* \"eth based/truffle/contracts/FLIR_Contract.sol\":1798:1807  50 * btc1 */\n      tag_107\n      swap2\n      swap1\n      tag_87\n      jump\t// in\n    tag_107:\n        /* \"eth based/truffle/contracts/FLIR_Contract.sol\":1797:1822  (50 * btc1) + (50 * btc2) */\n      tag_108\n      swap2\n      swap1\n      tag_100\n      jump\t// in\n    tag_108:\n        /* \"eth based/truffle/contracts/FLIR_Contract.sol\":1797:1843  (50 * btc1) + (50 * btc2) + ((Cimp-50) * btc3) */\n      tag_109\n      swap2\n      swap1\n      tag_100\n      jump\t// in\n    tag_109:\n        /* \"eth based/truffle/contracts/FLIR_Contract.sol\":1792:1843  Tc = (50 * btc1) + (50 * btc2) + ((Cimp-50) * btc3) */\n      swap1\n      pop\n        /* \"eth based/truffle/contracts/FLIR_Contract.sol\":1746:2160  if(Cimp > 100 && Cimp < 151){... */\n      jump(tag_110)\n    tag_103:\n        /* \"eth based/truffle/contracts/FLIR_Contract.sol\":1886:1889  150 */\n      0x96\n        /* \"eth based/truffle/contracts/FLIR_Contract.sol\":1879:1883  Cimp */\n      dup3\n        /* \"eth based/truffle/contracts/FLIR_Contract.sol\":1879:1889  Cimp > 150 */\n      gt\n        /* \"eth based/truffle/contracts/FLIR_Contract.sol\":1879:1903  Cimp > 150 && Cimp < 201 */\n      dup1\n      iszero\n      tag_111\n      jumpi\n      pop\n        /* \"eth based/truffle/contracts/FLIR_Contract.sol\":1900:1903  201 */\n      0xc9\n        /* \"eth based/truffle/contracts/FLIR_Contract.sol\":1893:1897  Cimp */\n      dup3\n        /* \"eth based/truffle/contracts/FLIR_Contract.sol\":1893:1903  Cimp < 201 */\n      lt\n        /* \"eth based/truffle/contracts/FLIR_Contract.sol\":1879:1903  Cimp > 150 && Cimp < 201 */\n    tag_111:\n        /* \"eth based/truffle/contracts/FLIR_Contract.sol\":1876:2160  if(Cimp > 150 && Cimp < 201){... */\n      iszero\n      tag_112\n      jumpi\n        /* \"eth based/truffle/contracts/FLIR_Contract.sol\":1982:1986  btc4 */\n      sload(0x06)\n        /* \"eth based/truffle/contracts/FLIR_Contract.sol\":1976:1978  50 */\n      0x32\n        /* \"eth based/truffle/contracts/FLIR_Contract.sol\":1971:1975  Cimp */\n      dup4\n        /* \"eth based/truffle/contracts/FLIR_Contract.sol\":1971:1978  Cimp-50 */\n      tag_113\n      swap2\n      swap1\n      tag_96\n      jump\t// in\n    tag_113:\n        /* \"eth based/truffle/contracts/FLIR_Contract.sol\":1970:1986  (Cimp-50) * btc4 */\n      tag_114\n      swap2\n      swap1\n      tag_87\n      jump\t// in\n    tag_114:\n        /* \"eth based/truffle/contracts/FLIR_Contract.sol\":1961:1965  btc3 */\n      sload(0x05)\n        /* \"eth based/truffle/contracts/FLIR_Contract.sol\":1956:1958  50 */\n      0x32\n        /* \"eth based/truffle/contracts/FLIR_Contract.sol\":1956:1965  50 * btc3 */\n      tag_115\n      swap2\n      swap1\n      tag_87\n      jump\t// in\n    tag_115:\n        /* \"eth based/truffle/contracts/FLIR_Contract.sol\":1947:1951  btc2 */\n      sload(0x04)\n        /* \"eth based/truffle/contracts/FLIR_Contract.sol\":1942:1944  50 */\n      0x32\n        /* \"eth based/truffle/contracts/FLIR_Contract.sol\":1942:1951  50 * btc2 */\n      tag_116\n      swap2\n      swap1\n      tag_87\n      jump\t// in\n    tag_116:\n        /* \"eth based/truffle/contracts/FLIR_Contract.sol\":1933:1937  btc1 */\n      sload(0x03)\n        /* \"eth based/truffle/contracts/FLIR_Contract.sol\":1928:1930  50 */\n      0x32\n        /* \"eth based/truffle/contracts/FLIR_Contract.sol\":1928:1937  50 * btc1 */\n      tag_117\n      swap2\n      swap1\n      tag_87\n      jump\t// in\n    tag_117:\n        /* \"eth based/truffle/contracts/FLIR_Contract.sol\":1927:1952  (50 * btc1) + (50 * btc2) */\n      tag_118\n      swap2\n      swap1\n      tag_100\n      jump\t// in\n    tag_118:\n        /* \"eth based/truffle/contracts/FLIR_Contract.sol\":1927:1966  (50 * btc1) + (50 * btc2) + (50 * btc3) */\n      tag_119\n      swap2\n      swap1\n      tag_100\n      jump\t// in\n    tag_119:\n        /* \"eth based/truffle/contracts/FLIR_Contract.sol\":1927:1987  (50 * btc1) + (50 * btc2) + (50 * btc3) + ((Cimp-50) * btc4) */\n      tag_120\n      swap2\n      swap1\n      tag_100\n      jump\t// in\n    tag_120:\n        /* \"eth based/truffle/contracts/FLIR_Contract.sol\":1922:1987  Tc = (50 * btc1) + (50 * btc2) + (50 * btc3) + ((Cimp-50) * btc4) */\n      swap1\n      pop\n        /* \"eth based/truffle/contracts/FLIR_Contract.sol\":1876:2160  if(Cimp > 150 && Cimp < 201){... */\n      jump(tag_121)\n    tag_112:\n        /* \"eth based/truffle/contracts/FLIR_Contract.sol\":2030:2033  200 */\n      0xc8\n        /* \"eth based/truffle/contracts/FLIR_Contract.sol\":2023:2027  Cimp */\n      dup3\n        /* \"eth based/truffle/contracts/FLIR_Contract.sol\":2023:2033  Cimp > 200 */\n      gt\n        /* \"eth based/truffle/contracts/FLIR_Contract.sol\":2023:2047  Cimp > 200 && Cimp < 251 */\n      dup1\n      iszero\n      tag_122\n      jumpi\n      pop\n        /* \"eth based/truffle/contracts/FLIR_Contract.sol\":2044:2047  251 */\n      0xfb\n        /* \"eth based/truffle/contracts/FLIR_Contract.sol\":2037:2041  Cimp */\n      dup3\n        /* \"eth based/truffle/contracts/FLIR_Contract.sol\":2037:2047  Cimp < 251 */\n      lt\n        /* \"eth based/truffle/contracts/FLIR_Contract.sol\":2023:2047  Cimp > 200 && Cimp < 251 */\n    tag_122:\n        /* \"eth based/truffle/contracts/FLIR_Contract.sol\":2020:2160  if(Cimp > 200 && Cimp < 251){... */\n      iszero\n      tag_123\n      jumpi\n        /* \"eth based/truffle/contracts/FLIR_Contract.sol\":2140:2144  btc5 */\n      sload(0x07)\n        /* \"eth based/truffle/contracts/FLIR_Contract.sol\":2134:2136  50 */\n      0x32\n        /* \"eth based/truffle/contracts/FLIR_Contract.sol\":2129:2133  Cimp */\n      dup4\n        /* \"eth based/truffle/contracts/FLIR_Contract.sol\":2129:2136  Cimp-50 */\n      tag_124\n      swap2\n      swap1\n      tag_96\n      jump\t// in\n    tag_124:\n        /* \"eth based/truffle/contracts/FLIR_Contract.sol\":2128:2144  (Cimp-50) * btc5 */\n      tag_125\n      swap2\n      swap1\n      tag_87\n      jump\t// in\n    tag_125:\n        /* \"eth based/truffle/contracts/FLIR_Contract.sol\":2119:2123  btc4 */\n      sload(0x06)\n        /* \"eth based/truffle/contracts/FLIR_Contract.sol\":2114:2116  50 */\n      0x32\n        /* \"eth based/truffle/contracts/FLIR_Contract.sol\":2114:2123  50 * btc4 */\n      tag_126\n      swap2\n      swap1\n      tag_87\n      jump\t// in\n    tag_126:\n        /* \"eth based/truffle/contracts/FLIR_Contract.sol\":2105:2109  btc3 */\n      sload(0x05)\n        /* \"eth based/truffle/contracts/FLIR_Contract.sol\":2100:2102  50 */\n      0x32\n        /* \"eth based/truffle/contracts/FLIR_Contract.sol\":2100:2109  50 * btc3 */\n      tag_127\n      swap2\n      swap1\n      tag_87\n      jump\t// in\n    tag_127:\n        /* \"eth based/truffle/contracts/FLIR_Contract.sol\":2091:2095  btc2 */\n      sload(0x04)\n        /* \"eth based/truffle/contracts/FLIR_Contract.sol\":2086:2088  50 */\n      0x32\n        /* \"eth based/truffle/contracts/FLIR_Contract.sol\":2086:2095  50 * btc2 */\n      tag_128\n      swap2\n      swap1\n      tag_87\n      jump\t// in\n    tag_128:\n        /* \"eth based/truffle/contracts/FLIR_Contract.sol\":2077:2081  btc1 */\n      sload(0x03)\n        /* \"eth based/truffle/contracts/FLIR_Contract.sol\":2072:2074  50 */\n      0x32\n        /* \"eth based/truffle/contracts/FLIR_Contract.sol\":2072:2081  50 * btc1 */\n      tag_129\n      swap2\n      swap1\n      tag_87\n      jump\t// in\n    tag_129:\n        /* \"eth based/truffle/contracts/FLIR_Contract.sol\":2071:2096  (50 * btc1) + (50 * btc2) */\n      tag_130\n      swap2\n      swap1\n      tag_100\n      jump\t// in\n    tag_130:\n        /* \"eth based/truffle/contracts/FLIR_Contract.sol\":2071:2110  (50 * btc1) + (50 * btc2) + (50 * btc3) */\n      tag_131\n      swap2\n      swap1\n      tag_100\n      jump\t// in\n    tag_131:\n        /* \"eth based/truffle/contracts/FLIR_Contract.sol\":2071:2124  (50 * btc1) + (50 * btc2) + (50 * btc3) + (50 * btc4) */\n      tag_132\n      swap2\n      swap1\n      tag_100\n      jump\t// in\n    tag_132:\n        /* \"eth based/truffle/contracts/FLIR_Contract.sol\":2071:2145  (50 * btc1) + (50 * btc2) + (50 * btc3) + (50 * btc4) + ((Cimp-50) * btc5) */\n      tag_133\n      swap2\n      swap1\n      tag_100\n      jump\t// in\n    tag_133:\n        /* \"eth based/truffle/contracts/FLIR_Contract.sol\":2066:2145  Tc = (50 * btc1) + (50 * btc2) + (50 * btc3) + (50 * btc4) + ((Cimp-50) * btc5) */\n      swap1\n      pop\n        /* \"eth based/truffle/contracts/FLIR_Contract.sol\":2020:2160  if(Cimp > 200 && Cimp < 251){... */\n    tag_123:\n        /* \"eth based/truffle/contracts/FLIR_Contract.sol\":1876:2160  if(Cimp > 150 && Cimp < 201){... */\n    tag_121:\n        /* \"eth based/truffle/contracts/FLIR_Contract.sol\":1746:2160  if(Cimp > 100 && Cimp < 151){... */\n    tag_110:\n        /* \"eth based/truffle/contracts/FLIR_Contract.sol\":1631:2160  if(Cimp > 50 && Cimp < 101){... */\n    tag_101:\n        /* \"eth based/truffle/contracts/FLIR_Contract.sol\":1551:2160  if(Cimp < 51){... */\n    tag_92:\n        /* \"eth based/truffle/contracts/FLIR_Contract.sol\":1523:2405  if(Cimp < 251){... */\n      jump(tag_134)\n    tag_89:\n        /* \"eth based/truffle/contracts/FLIR_Contract.sol\":2194:2197  250 */\n      0xfa\n        /* \"eth based/truffle/contracts/FLIR_Contract.sol\":2187:2191  Cimp */\n      dup3\n        /* \"eth based/truffle/contracts/FLIR_Contract.sol\":2187:2197  Cimp > 250 */\n      gt\n        /* \"eth based/truffle/contracts/FLIR_Contract.sol\":2187:2211  Cimp > 250 && Cimp < 351 */\n      dup1\n      iszero\n      tag_135\n      jumpi\n      pop\n        /* \"eth based/truffle/contracts/FLIR_Contract.sol\":2208:2211  351 */\n      0x015f\n        /* \"eth based/truffle/contracts/FLIR_Contract.sol\":2201:2205  Cimp */\n      dup3\n        /* \"eth based/truffle/contracts/FLIR_Contract.sol\":2201:2211  Cimp < 351 */\n      lt\n        /* \"eth based/truffle/contracts/FLIR_Contract.sol\":2187:2211  Cimp > 250 && Cimp < 351 */\n    tag_135:\n        /* \"eth based/truffle/contracts/FLIR_Contract.sol\":2184:2405  if(Cimp > 250 && Cimp < 351){... */\n      iszero\n      tag_136\n      jumpi\n        /* \"eth based/truffle/contracts/FLIR_Contract.sol\":2238:2242  btc6 */\n      sload(0x08)\n        /* \"eth based/truffle/contracts/FLIR_Contract.sol\":2231:2235  Cimp */\n      dup3\n        /* \"eth based/truffle/contracts/FLIR_Contract.sol\":2231:2242  Cimp * btc6 */\n      tag_137\n      swap2\n      swap1\n      tag_87\n      jump\t// in\n    tag_137:\n        /* \"eth based/truffle/contracts/FLIR_Contract.sol\":2226:2242  Tc = Cimp * btc6 */\n      swap1\n      pop\n        /* \"eth based/truffle/contracts/FLIR_Contract.sol\":2184:2405  if(Cimp > 250 && Cimp < 351){... */\n      jump(tag_138)\n    tag_136:\n        /* \"eth based/truffle/contracts/FLIR_Contract.sol\":2277:2280  350 */\n      0x015e\n        /* \"eth based/truffle/contracts/FLIR_Contract.sol\":2270:2274  Cimp */\n      dup3\n        /* \"eth based/truffle/contracts/FLIR_Contract.sol\":2270:2280  Cimp > 350 */\n      gt\n        /* \"eth based/truffle/contracts/FLIR_Contract.sol\":2270:2294  Cimp > 350 && Cimp < 451 */\n      dup1\n      iszero\n      tag_139\n      jumpi\n      pop\n        /* \"eth based/truffle/contracts/FLIR_Contract.sol\":2291:2294  451 */\n      0x01c3\n        /* \"eth based/truffle/contracts/FLIR_Contract.sol\":2284:2288  Cimp */\n      dup3\n        /* \"eth based/truffle/contracts/FLIR_Contract.sol\":2284:2294  Cimp < 451 */\n      lt\n        /* \"eth based/truffle/contracts/FLIR_Contract.sol\":2270:2294  Cimp > 350 && Cimp < 451 */\n    tag_139:\n        /* \"eth based/truffle/contracts/FLIR_Contract.sol\":2267:2405  if(Cimp > 350 && Cimp < 451){... */\n      iszero\n      tag_140\n      jumpi\n        /* \"eth based/truffle/contracts/FLIR_Contract.sol\":2321:2325  btc7 */\n      sload(0x09)\n        /* \"eth based/truffle/contracts/FLIR_Contract.sol\":2314:2318  Cimp */\n      dup3\n        /* \"eth based/truffle/contracts/FLIR_Contract.sol\":2314:2325  Cimp * btc7 */\n      tag_141\n      swap2\n      swap1\n      tag_87\n      jump\t// in\n    tag_141:\n        /* \"eth based/truffle/contracts/FLIR_Contract.sol\":2309:2325  Tc = Cimp * btc7 */\n      swap1\n      pop\n        /* \"eth based/truffle/contracts/FLIR_Contract.sol\":2267:2405  if(Cimp > 350 && Cimp < 451){... */\n      jump(tag_142)\n    tag_140:\n        /* \"eth based/truffle/contracts/FLIR_Contract.sol\":2360:2363  450 */\n      0x01c2\n        /* \"eth based/truffle/contracts/FLIR_Contract.sol\":2353:2357  Cimp */\n      dup3\n        /* \"eth based/truffle/contracts/FLIR_Contract.sol\":2353:2363  Cimp > 450 */\n      gt\n        /* \"eth based/truffle/contracts/FLIR_Contract.sol\":2350:2405  if(Cimp > 450){... */\n      iszero\n      tag_143\n      jumpi\n        /* \"eth based/truffle/contracts/FLIR_Contract.sol\":2390:2394  btc8 */\n      sload(0x0a)\n        /* \"eth based/truffle/contracts/FLIR_Contract.sol\":2383:2387  Cimp */\n      dup3\n        /* \"eth based/truffle/contracts/FLIR_Contract.sol\":2383:2394  Cimp * btc8 */\n      tag_144\n      swap2\n      swap1\n      tag_87\n      jump\t// in\n    tag_144:\n        /* \"eth based/truffle/contracts/FLIR_Contract.sol\":2378:2394  Tc = Cimp * btc8 */\n      swap1\n      pop\n        /* \"eth based/truffle/contracts/FLIR_Contract.sol\":2350:2405  if(Cimp > 450){... */\n    tag_143:\n        /* \"eth based/truffle/contracts/FLIR_Contract.sol\":2267:2405  if(Cimp > 350 && Cimp < 451){... */\n    tag_142:\n        /* \"eth based/truffle/contracts/FLIR_Contract.sol\":2184:2405  if(Cimp > 250 && Cimp < 351){... */\n    tag_138:\n        /* \"eth based/truffle/contracts/FLIR_Contract.sol\":1523:2405  if(Cimp < 251){... */\n    tag_134:\n        /* \"eth based/truffle/contracts/FLIR_Contract.sol\":1442:2432  function getConsumerTariff(uint Cimp) public returns (uint Tc){... */\n      swap2\n      swap1\n      pop\n      jump\t// out\n        /* \"eth based/truffle/contracts/FLIR_Contract.sol\":2642:2710  function balCheck() public payable {... */\n    tag_53:\n        /* \"eth based/truffle/contracts/FLIR_Contract.sol\":2694:2703  msg.value */\n      callvalue\n        /* \"eth based/truffle/contracts/FLIR_Contract.sol\":2683:2690  balance */\n      0x01\n      0x00\n        /* \"eth based/truffle/contracts/FLIR_Contract.sol\":2683:2703  balance += msg.value */\n      dup3\n      dup3\n      sload\n      tag_146\n      swap2\n      swap1\n      tag_100\n      jump\t// in\n    tag_146:\n      swap3\n      pop\n      pop\n      dup2\n      swap1\n      sstore\n      pop\n        /* \"eth based/truffle/contracts/FLIR_Contract.sol\":2642:2710  function balCheck() public payable {... */\n      jump\t// out\n        /* \"eth based/truffle/contracts/FLIR_Contract.sol\":957:978  uint public btc8 = 10 */\n    tag_56:\n      sload(0x0a)\n      dup2\n      jump\t// out\n        /* \"eth based/truffle/contracts/FLIR_Contract.sol\":905:925  uint public btc6 = 8 */\n    tag_60:\n      sload(0x08)\n      dup2\n      jump\t// out\n        /* \"eth based/truffle/contracts/FLIR_Contract.sol\":588:611  uint public balance = 0 */\n    tag_64:\n      sload(0x01)\n      dup2\n      jump\t// out\n        /* \"eth based/truffle/contracts/FLIR_Contract.sol\":775:795  uint public btc1 = 3 */\n    tag_68:\n      sload(0x03)\n      dup2\n      jump\t// out\n        /* \"eth based/truffle/contracts/FLIR_Contract.sol\":2438:2636  function send(address payable _receiver, uint amount) payable public {... */\n    tag_73:\n        /* \"eth based/truffle/contracts/FLIR_Contract.sol\":2603:2612  _receiver */\n      dup2\n        /* \"eth based/truffle/contracts/FLIR_Contract.sol\":2603:2621  _receiver.transfer */\n      0xffffffffffffffffffffffffffffffffffffffff\n      and\n        /* \"eth based/truffle/contracts/FLIR_Contract.sol\":2603:2629  _receiver.transfer(amount) */\n      0x08fc\n        /* \"eth based/truffle/contracts/FLIR_Contract.sol\":2622:2628  amount */\n      dup3\n        /* \"eth based/truffle/contracts/FLIR_Contract.sol\":2603:2629  _receiver.transfer(amount) */\n      swap1\n      dup2\n      iszero\n      mul\n      swap1\n      mload(0x40)\n      0x00\n      mload(0x40)\n      dup1\n      dup4\n      sub\n      dup2\n      dup6\n      dup9\n      dup9\n      call\n      swap4\n      pop\n      pop\n      pop\n      pop\n      iszero\n      dup1\n      iszero\n      tag_149\n      jumpi\n      returndatasize\n      0x00\n      dup1\n      returndatacopy\n      revert(0x00, returndatasize)\n    tag_149:\n      pop\n        /* \"eth based/truffle/contracts/FLIR_Contract.sol\":2438:2636  function send(address payable _receiver, uint amount) payable public {... */\n      pop\n      pop\n      jump\t// out\n        /* \"eth based/truffle/contracts/FLIR_Contract.sol\":931:951  uint public btc7 = 9 */\n    tag_76:\n      sload(0x09)\n      dup2\n      jump\t// out\n        /* \"eth based/truffle/contracts/FLIR_Contract.sol\":992:1315  function getnPnCnEV(uint nPget, uint nCget,uint nEVget) public... */\n    tag_82:\n        /* \"eth based/truffle/contracts/FLIR_Contract.sol\":1068:1075  uint nP */\n      0x00\n        /* \"eth based/truffle/contracts/FLIR_Contract.sol\":1076:1083  uint nC */\n      dup1\n        /* \"eth based/truffle/contracts/FLIR_Contract.sol\":1084:1092  uint nEV */\n      0x00\n        /* \"eth based/truffle/contracts/FLIR_Contract.sol\":1117:1122  nPget */\n      dup6\n        /* \"eth based/truffle/contracts/FLIR_Contract.sol\":1112:1122  nP = nPget */\n      swap3\n      pop\n        /* \"eth based/truffle/contracts/FLIR_Contract.sol\":1137:1142  nCget */\n      dup5\n        /* \"eth based/truffle/contracts/FLIR_Contract.sol\":1132:1142  nC = nCget */\n      swap2\n      pop\n        /* \"eth based/truffle/contracts/FLIR_Contract.sol\":1158:1164  nEVget */\n      dup4\n        /* \"eth based/truffle/contracts/FLIR_Contract.sol\":1152:1164  nEV = nEVget */\n      swap1\n      pop\n        /* \"eth based/truffle/contracts/FLIR_Contract.sol\":992:1315  function getnPnCnEV(uint nPget, uint nCget,uint nEVget) public... */\n      swap4\n      pop\n      swap4\n      pop\n      swap4\n      swap1\n      pop\n      jump\t// out\n        /* \"#utility.yul\":7:162   */\n    tag_152:\n        /* \"#utility.yul\":61:66   */\n      0x00\n        /* \"#utility.yul\":99:105   */\n      dup2\n        /* \"#utility.yul\":86:106   */\n      calldataload\n        /* \"#utility.yul\":77:106   */\n      swap1\n      pop\n        /* \"#utility.yul\":115:156   */\n      tag_154\n        /* \"#utility.yul\":150:155   */\n      dup2\n        /* \"#utility.yul\":115:156   */\n      tag_155\n      jump\t// in\n    tag_154:\n        /* \"#utility.yul\":7:162   */\n      swap3\n      swap2\n      pop\n      pop\n      jump\t// out\n        /* \"#utility.yul\":168:307   */\n    tag_156:\n        /* \"#utility.yul\":214:219   */\n      0x00\n        /* \"#utility.yul\":252:258   */\n      dup2\n        /* \"#utility.yul\":239:259   */\n      calldataload\n        /* \"#utility.yul\":230:259   */\n      swap1\n      pop\n        /* \"#utility.yul\":268:301   */\n      tag_158\n        /* \"#utility.yul\":295:300   */\n      dup2\n        /* \"#utility.yul\":268:301   */\n      tag_159\n      jump\t// in\n    tag_158:\n        /* \"#utility.yul\":168:307   */\n      swap3\n      swap2\n      pop\n      pop\n      jump\t// out\n        /* \"#utility.yul\":313:803   */\n    tag_72:\n        /* \"#utility.yul\":389:395   */\n      0x00\n        /* \"#utility.yul\":397:403   */\n      dup1\n        /* \"#utility.yul\":446:448   */\n      0x40\n        /* \"#utility.yul\":434:443   */\n      dup4\n        /* \"#utility.yul\":425:432   */\n      dup6\n        /* \"#utility.yul\":421:444   */\n      sub\n        /* \"#utility.yul\":417:449   */\n      slt\n        /* \"#utility.yul\":414:533   */\n      iszero\n      tag_161\n      jumpi\n        /* \"#utility.yul\":452:531   */\n      tag_162\n      tag_163\n      jump\t// in\n    tag_162:\n        /* \"#utility.yul\":414:533   */\n    tag_161:\n        /* \"#utility.yul\":572:573   */\n      0x00\n        /* \"#utility.yul\":597:658   */\n      tag_164\n        /* \"#utility.yul\":650:657   */\n      dup6\n        /* \"#utility.yul\":641:647   */\n      dup3\n        /* \"#utility.yul\":630:639   */\n      dup7\n        /* \"#utility.yul\":626:648   */\n      add\n        /* \"#utility.yul\":597:658   */\n      tag_152\n      jump\t// in\n    tag_164:\n        /* \"#utility.yul\":587:658   */\n      swap3\n      pop\n        /* \"#utility.yul\":543:668   */\n      pop\n        /* \"#utility.yul\":707:709   */\n      0x20\n        /* \"#utility.yul\":733:786   */\n      tag_165\n        /* \"#utility.yul\":778:785   */\n      dup6\n        /* \"#utility.yul\":769:775   */\n      dup3\n        /* \"#utility.yul\":758:767   */\n      dup7\n        /* \"#utility.yul\":754:776   */\n      add\n        /* \"#utility.yul\":733:786   */\n      tag_156\n      jump\t// in\n    tag_165:\n        /* \"#utility.yul\":723:786   */\n      swap2\n      pop\n        /* \"#utility.yul\":678:796   */\n      pop\n        /* \"#utility.yul\":313:803   */\n      swap3\n      pop\n      swap3\n      swap1\n      pop\n      jump\t// out\n        /* \"#utility.yul\":809:1138   */\n    tag_44:\n        /* \"#utility.yul\":868:874   */\n      0x00\n        /* \"#utility.yul\":917:919   */\n      0x20\n        /* \"#utility.yul\":905:914   */\n      dup3\n        /* \"#utility.yul\":896:903   */\n      dup5\n        /* \"#utility.yul\":892:915   */\n      sub\n        /* \"#utility.yul\":888:920   */\n      slt\n        /* \"#utility.yul\":885:1004   */\n      iszero\n      tag_167\n      jumpi\n        /* \"#utility.yul\":923:1002   */\n      tag_168\n      tag_163\n      jump\t// in\n    tag_168:\n        /* \"#utility.yul\":885:1004   */\n    tag_167:\n        /* \"#utility.yul\":1043:1044   */\n      0x00\n        /* \"#utility.yul\":1068:1121   */\n      tag_169\n        /* \"#utility.yul\":1113:1120   */\n      dup5\n        /* \"#utility.yul\":1104:1110   */\n      dup3\n        /* \"#utility.yul\":1093:1102   */\n      dup6\n        /* \"#utility.yul\":1089:1111   */\n      add\n        /* \"#utility.yul\":1068:1121   */\n      tag_156\n      jump\t// in\n    tag_169:\n        /* \"#utility.yul\":1058:1121   */\n      swap2\n      pop\n        /* \"#utility.yul\":1014:1131   */\n      pop\n        /* \"#utility.yul\":809:1138   */\n      swap3\n      swap2\n      pop\n      pop\n      jump\t// out\n        /* \"#utility.yul\":1144:1763   */\n    tag_81:\n        /* \"#utility.yul\":1221:1227   */\n      0x00\n        /* \"#utility.yul\":1229:1235   */\n      dup1\n        /* \"#utility.yul\":1237:1243   */\n      0x00\n        /* \"#utility.yul\":1286:1288   */\n      0x60\n        /* \"#utility.yul\":1274:1283   */\n      dup5\n        /* \"#utility.yul\":1265:1272   */\n      dup7\n        /* \"#utility.yul\":1261:1284   */\n      sub\n        /* \"#utility.yul\":1257:1289   */\n      slt\n        /* \"#utility.yul\":1254:1373   */\n      iszero\n      tag_171\n      jumpi\n        /* \"#utility.yul\":1292:1371   */\n      tag_172\n      tag_163\n      jump\t// in\n    tag_172:\n        /* \"#utility.yul\":1254:1373   */\n    tag_171:\n        /* \"#utility.yul\":1412:1413   */\n      0x00\n        /* \"#utility.yul\":1437:1490   */\n      tag_173\n        /* \"#utility.yul\":1482:1489   */\n      dup7\n        /* \"#utility.yul\":1473:1479   */\n      dup3\n        /* \"#utility.yul\":1462:1471   */\n      dup8\n        /* \"#utility.yul\":1458:1480   */\n      add\n        /* \"#utility.yul\":1437:1490   */\n      tag_156\n      jump\t// in\n    tag_173:\n        /* \"#utility.yul\":1427:1490   */\n      swap4\n      pop\n        /* \"#utility.yul\":1383:1500   */\n      pop\n        /* \"#utility.yul\":1539:1541   */\n      0x20\n        /* \"#utility.yul\":1565:1618   */\n      tag_174\n        /* \"#utility.yul\":1610:1617   */\n      dup7\n        /* \"#utility.yul\":1601:1607   */\n      dup3\n        /* \"#utility.yul\":1590:1599   */\n      dup8\n        /* \"#utility.yul\":1586:1608   */\n      add\n        /* \"#utility.yul\":1565:1618   */\n      tag_156\n      jump\t// in\n    tag_174:\n        /* \"#utility.yul\":1555:1618   */\n      swap3\n      pop\n        /* \"#utility.yul\":1510:1628   */\n      pop\n        /* \"#utility.yul\":1667:1669   */\n      0x40\n        /* \"#utility.yul\":1693:1746   */\n      tag_175\n        /* \"#utility.yul\":1738:1745   */\n      dup7\n        /* \"#utility.yul\":1729:1735   */\n      dup3\n        /* \"#utility.yul\":1718:1727   */\n      dup8\n        /* \"#utility.yul\":1714:1736   */\n      add\n        /* \"#utility.yul\":1693:1746   */\n      tag_156\n      jump\t// in\n    tag_175:\n        /* \"#utility.yul\":1683:1746   */\n      swap2\n      pop\n        /* \"#utility.yul\":1638:1756   */\n      pop\n        /* \"#utility.yul\":1144:1763   */\n      swap3\n      pop\n      swap3\n      pop\n      swap3\n      jump\t// out\n        /* \"#utility.yul\":1769:1887   */\n    tag_176:\n        /* \"#utility.yul\":1856:1880   */\n      tag_178\n        /* \"#utility.yul\":1874:1879   */\n      dup2\n        /* \"#utility.yul\":1856:1880   */\n      tag_179\n      jump\t// in\n    tag_178:\n        /* \"#utility.yul\":1851:1854   */\n      dup3\n        /* \"#utility.yul\":1844:1881   */\n      mstore\n        /* \"#utility.yul\":1769:1887   */\n      pop\n      pop\n      jump\t// out\n        /* \"#utility.yul\":1893:2115   */\n    tag_24:\n        /* \"#utility.yul\":1986:1990   */\n      0x00\n        /* \"#utility.yul\":2024:2026   */\n      0x20\n        /* \"#utility.yul\":2013:2022   */\n      dup3\n        /* \"#utility.yul\":2009:2027   */\n      add\n        /* \"#utility.yul\":2001:2027   */\n      swap1\n      pop\n        /* \"#utility.yul\":2037:2108   */\n      tag_181\n        /* \"#utility.yul\":2105:2106   */\n      0x00\n        /* \"#utility.yul\":2094:2103   */\n      dup4\n        /* \"#utility.yul\":2090:2107   */\n      add\n        /* \"#utility.yul\":2081:2087   */\n      dup5\n        /* \"#utility.yul\":2037:2108   */\n      tag_176\n      jump\t// in\n    tag_181:\n        /* \"#utility.yul\":1893:2115   */\n      swap3\n      swap2\n      pop\n      pop\n      jump\t// out\n        /* \"#utility.yul\":2121:2563   */\n    tag_84:\n        /* \"#utility.yul\":2270:2274   */\n      0x00\n        /* \"#utility.yul\":2308:2310   */\n      0x60\n        /* \"#utility.yul\":2297:2306   */\n      dup3\n        /* \"#utility.yul\":2293:2311   */\n      add\n        /* \"#utility.yul\":2285:2311   */\n      swap1\n      pop\n        /* \"#utility.yul\":2321:2392   */\n      tag_183\n        /* \"#utility.yul\":2389:2390   */\n      0x00\n        /* \"#utility.yul\":2378:2387   */\n      dup4\n        /* \"#utility.yul\":2374:2391   */\n      add\n        /* \"#utility.yul\":2365:2371   */\n      dup7\n        /* \"#utility.yul\":2321:2392   */\n      tag_176\n      jump\t// in\n    tag_183:\n        /* \"#utility.yul\":2402:2474   */\n      tag_184\n        /* \"#utility.yul\":2470:2472   */\n      0x20\n        /* \"#utility.yul\":2459:2468   */\n      dup4\n        /* \"#utility.yul\":2455:2473   */\n      add\n        /* \"#utility.yul\":2446:2452   */\n      dup6\n        /* \"#utility.yul\":2402:2474   */\n      tag_176\n      jump\t// in\n    tag_184:\n        /* \"#utility.yul\":2484:2556   */\n      tag_185\n        /* \"#utility.yul\":2552:2554   */\n      0x40\n        /* \"#utility.yul\":2541:2550   */\n      dup4\n        /* \"#utility.yul\":2537:2555   */\n      add\n        /* \"#utility.yul\":2528:2534   */\n      dup5\n        /* \"#utility.yul\":2484:2556   */\n      tag_176\n      jump\t// in\n    tag_185:\n        /* \"#utility.yul\":2121:2563   */\n      swap5\n      swap4\n      pop\n      pop\n      pop\n      pop\n      jump\t// out\n        /* \"#utility.yul\":2650:2955   */\n    tag_100:\n        /* \"#utility.yul\":2690:2693   */\n      0x00\n        /* \"#utility.yul\":2709:2729   */\n      tag_189\n        /* \"#utility.yul\":2727:2728   */\n      dup3\n        /* \"#utility.yul\":2709:2729   */\n      tag_179\n      jump\t// in\n    tag_189:\n        /* \"#utility.yul\":2704:2729   */\n      swap2\n      pop\n        /* \"#utility.yul\":2743:2763   */\n      tag_190\n        /* \"#utility.yul\":2761:2762   */\n      dup4\n        /* \"#utility.yul\":2743:2763   */\n      tag_179\n      jump\t// in\n    tag_190:\n        /* \"#utility.yul\":2738:2763   */\n      swap3\n      pop\n        /* \"#utility.yul\":2897:2898   */\n      dup3\n        /* \"#utility.yul\":2829:2895   */\n      0xffffffffffffffffffffffffffffffffffffffffffffffffffffffffffffffff\n        /* \"#utility.yul\":2825:2899   */\n      sub\n        /* \"#utility.yul\":2822:2823   */\n      dup3\n        /* \"#utility.yul\":2819:2900   */\n      gt\n        /* \"#utility.yul\":2816:2923   */\n      iszero\n      tag_191\n      jumpi\n        /* \"#utility.yul\":2903:2921   */\n      tag_192\n      tag_193\n      jump\t// in\n    tag_192:\n        /* \"#utility.yul\":2816:2923   */\n    tag_191:\n        /* \"#utility.yul\":2947:2948   */\n      dup3\n        /* \"#utility.yul\":2944:2945   */\n      dup3\n        /* \"#utility.yul\":2940:2949   */\n      add\n        /* \"#utility.yul\":2933:2949   */\n      swap1\n      pop\n        /* \"#utility.yul\":2650:2955   */\n      swap3\n      swap2\n      pop\n      pop\n      jump\t// out\n        /* \"#utility.yul\":2961:3309   */\n    tag_87:\n        /* \"#utility.yul\":3001:3008   */\n      0x00\n        /* \"#utility.yul\":3024:3044   */\n      tag_195\n        /* \"#utility.yul\":3042:3043   */\n      dup3\n        /* \"#utility.yul\":3024:3044   */\n      tag_179\n      jump\t// in\n    tag_195:\n        /* \"#utility.yul\":3019:3044   */\n      swap2\n      pop\n        /* \"#utility.yul\":3058:3078   */\n      tag_196\n        /* \"#utility.yul\":3076:3077   */\n      dup4\n        /* \"#utility.yul\":3058:3078   */\n      tag_179\n      jump\t// in\n    tag_196:\n        /* \"#utility.yul\":3053:3078   */\n      swap3\n      pop\n        /* \"#utility.yul\":3246:3247   */\n      dup2\n        /* \"#utility.yul\":3178:3244   */\n      0xffffffffffffffffffffffffffffffffffffffffffffffffffffffffffffffff\n        /* \"#utility.yul\":3174:3248   */\n      div\n        /* \"#utility.yul\":3171:3172   */\n      dup4\n        /* \"#utility.yul\":3168:3249   */\n      gt\n        /* \"#utility.yul\":3163:3164   */\n      dup3\n        /* \"#utility.yul\":3156:3165   */\n      iszero\n        /* \"#utility.yul\":3149:3166   */\n      iszero\n        /* \"#utility.yul\":3145:3250   */\n      and\n        /* \"#utility.yul\":3142:3273   */\n      iszero\n      tag_197\n      jumpi\n        /* \"#utility.yul\":3253:3271   */\n      tag_198\n      tag_193\n      jump\t// in\n    tag_198:\n        /* \"#utility.yul\":3142:3273   */\n    tag_197:\n        /* \"#utility.yul\":3301:3302   */\n      dup3\n        /* \"#utility.yul\":3298:3299   */\n      dup3\n        /* \"#utility.yul\":3294:3303   */\n      mul\n        /* \"#utility.yul\":3283:3303   */\n      swap1\n      pop\n        /* \"#utility.yul\":2961:3309   */\n      swap3\n      swap2\n      pop\n      pop\n      jump\t// out\n        /* \"#utility.yul\":3315:3506   */\n    tag_96:\n        /* \"#utility.yul\":3355:3359   */\n      0x00\n        /* \"#utility.yul\":3375:3395   */\n      tag_200\n        /* \"#utility.yul\":3393:3394   */\n      dup3\n        /* \"#utility.yul\":3375:3395   */\n      tag_179\n      jump\t// in\n    tag_200:\n        /* \"#utility.yul\":3370:3395   */\n      swap2\n      pop\n        /* \"#utility.yul\":3409:3429   */\n      tag_201\n        /* \"#utility.yul\":3427:3428   */\n      dup4\n        /* \"#utility.yul\":3409:3429   */\n      tag_179\n      jump\t// in\n    tag_201:\n        /* \"#utility.yul\":3404:3429   */\n      swap3\n      pop\n        /* \"#utility.yul\":3448:3449   */\n      dup3\n        /* \"#utility.yul\":3445:3446   */\n      dup3\n        /* \"#utility.yul\":3442:3450   */\n      lt\n        /* \"#utility.yul\":3439:3473   */\n      iszero\n      tag_202\n      jumpi\n        /* \"#utility.yul\":3453:3471   */\n      tag_203\n      tag_193\n      jump\t// in\n    tag_203:\n        /* \"#utility.yul\":3439:3473   */\n    tag_202:\n        /* \"#utility.yul\":3498:3499   */\n      dup3\n        /* \"#utility.yul\":3495:3496   */\n      dup3\n        /* \"#utility.yul\":3491:3500   */\n      sub\n        /* \"#utility.yul\":3483:3500   */\n      swap1\n      pop\n        /* \"#utility.yul\":3315:3506   */\n      swap3\n      swap2\n      pop\n      pop\n      jump\t// out\n        /* \"#utility.yul\":3512:3616   */\n    tag_204:\n        /* \"#utility.yul\":3557:3564   */\n      0x00\n        /* \"#utility.yul\":3586:3610   */\n      tag_206\n        /* \"#utility.yul\":3604:3609   */\n      dup3\n        /* \"#utility.yul\":3586:3610   */\n      tag_207\n      jump\t// in\n    tag_206:\n        /* \"#utility.yul\":3575:3610   */\n      swap1\n      pop\n        /* \"#utility.yul\":3512:3616   */\n      swap2\n      swap1\n      pop\n      jump\t// out\n        /* \"#utility.yul\":3622:3748   */\n    tag_207:\n        /* \"#utility.yul\":3659:3666   */\n      0x00\n        /* \"#utility.yul\":3699:3741   */\n      0xffffffffffffffffffffffffffffffffffffffff\n        /* \"#utility.yul\":3692:3697   */\n      dup3\n        /* \"#utility.yul\":3688:3742   */\n      and\n        /* \"#utility.yul\":3677:3742   */\n      swap1\n      pop\n        /* \"#utility.yul\":3622:3748   */\n      swap2\n      swap1\n      pop\n      jump\t// out\n        /* \"#utility.yul\":3754:3831   */\n    tag_179:\n        /* \"#utility.yul\":3791:3798   */\n      0x00\n        /* \"#utility.yul\":3820:3825   */\n      dup2\n        /* \"#utility.yul\":3809:3825   */\n      swap1\n      pop\n        /* \"#utility.yul\":3754:3831   */\n      swap2\n      swap1\n      pop\n      jump\t// out\n        /* \"#utility.yul\":3837:4017   */\n    tag_193:\n        /* \"#utility.yul\":3885:3962   */\n      0x4e487b7100000000000000000000000000000000000000000000000000000000\n        /* \"#utility.yul\":3882:3883   */\n      0x00\n        /* \"#utility.yul\":3875:3963   */\n      mstore\n        /* \"#utility.yul\":3982:3986   */\n      0x11\n        /* \"#utility.yul\":3979:3980   */\n      0x04\n        /* \"#utility.yul\":3972:3987   */\n      mstore\n        /* \"#utility.yul\":4006:4010   */\n      0x24\n        /* \"#utility.yul\":4003:4004   */\n      0x00\n        /* \"#utility.yul\":3996:4011   */\n      revert\n        /* \"#utility.yul\":4146:4263   */\n    tag_163:\n        /* \"#utility.yul\":4255:4256   */\n      0x00\n        /* \"#utility.yul\":4252:4253   */\n      dup1\n        /* \"#utility.yul\":4245:4257   */\n      revert\n        /* \"#utility.yul\":4269:4407   */\n    tag_155:\n        /* \"#utility.yul\":4350:4382   */\n      tag_215\n        /* \"#utility.yul\":4376:4381   */\n      dup2\n        /* \"#utility.yul\":4350:4382   */\n      tag_204\n      jump\t// in\n    tag_215:\n        /* \"#utility.yul\":4343:4348   */\n      dup2\n        /* \"#utility.yul\":4340:4383   */\n      eq\n        /* \"#utility.yul\":4330:4401   */\n      tag_216\n      jumpi\n        /* \"#utility.yul\":4397:4398   */\n      0x00\n        /* \"#utility.yul\":4394:4395   */\n      dup1\n        /* \"#utility.yul\":4387:4399   */\n      revert\n        /* \"#utility.yul\":4330:4401   */\n    tag_216:\n        /* \"#utility.yul\":4269:4407   */\n      pop\n      jump\t// out\n        /* \"#utility.yul\":4413:4535   */\n    tag_159:\n        /* \"#utility.yul\":4486:4510   */\n      tag_218\n        /* \"#utility.yul\":4504:4509   */\n      dup2\n        /* \"#utility.yul\":4486:4510   */\n      tag_179\n      jump\t// in\n    tag_218:\n        /* \"#utility.yul\":4479:4484   */\n      dup2\n        /* \"#utility.yul\":4476:4511   */\n      eq\n        /* \"#utility.yul\":4466:4529   */\n      tag_219\n      jumpi\n        /* \"#utility.yul\":4525:4526   */\n      0x00\n        /* \"#utility.yul\":4522:4523   */\n      dup1\n        /* \"#utility.yul\":4515:4527   */\n      revert\n        /* \"#utility.yul\":4466:4529   */\n    tag_219:\n        /* \"#utility.yul\":4413:4535   */\n      pop\n      jump\t// out\n\n    auxdata: 0xa2646970667358221220b9d945ff8c62baff436e3095434d62b783dadfed9e6b44aff5341603ab8b4d2564736f6c63430008070033\n}\n",
				"bytecode": {
					"linkReferences": {},
					"object": "60806040526000600155600360025560038055600480556005805560068055600780556008805560098055600a805534801561003a57600080fd5b50336000806101000a81548173ffffffffffffffffffffffffffffffffffffffff021916908373ffffffffffffffffffffffffffffffffffffffff1602179055506109c78061008a6000396000f3fe6080604052600436106100e85760003560e01c80637c134b141161008a578063c2c496ec11610059578063c2c496ec146102c9578063d0679d34146102f4578063ed2fa5ab14610310578063f02e48c31461033b576100e8565b80637c134b141461023e578063a8bdb68b14610248578063b4ad7fa914610273578063b69ef8a81461029e576100e8565b806328780a44116100c657806328780a441461016e5780632c9af64c146101995780635c8f6b56146101c4578063721028ec14610201576100e8565b80630c03a1a3146100ed578063103347e71461011857806320e731a114610143575b600080fd5b3480156100f957600080fd5b5061010261037a565b60405161010f91906107bd565b60405180910390f35b34801561012457600080fd5b5061012d610380565b60405161013a91906107bd565b60405180910390f35b34801561014f57600080fd5b50610158610386565b60405161016591906107bd565b60405180910390f35b34801561017a57600080fd5b5061018361038c565b60405161019091906107bd565b60405180910390f35b3480156101a557600080fd5b506101ae610392565b6040516101bb91906107bd565b60405180910390f35b3480156101d057600080fd5b506101eb60048036038101906101e6919061072e565b610398565b6040516101f891906107bd565b60405180910390f35b34801561020d57600080fd5b506102286004803603810190610223919061072e565b6103af565b60405161023591906107bd565b60405180910390f35b610246610629565b005b34801561025457600080fd5b5061025d610644565b60405161026a91906107bd565b60405180910390f35b34801561027f57600080fd5b5061028861064a565b60405161029591906107bd565b60405180910390f35b3480156102aa57600080fd5b506102b3610650565b6040516102c091906107bd565b60405180910390f35b3480156102d557600080fd5b506102de610656565b6040516102eb91906107bd565b60405180910390f35b61030e600480360381019061030991906106ee565b61065c565b005b34801561031c57600080fd5b506103256106a7565b60405161033291906107bd565b60405180910390f35b34801561034757600080fd5b50610362600480360381019061035d919061075b565b6106ad565b604051610371939291906107d8565b60405180910390f35b60075481565b60065481565b60055481565b60045481565b60025481565b6000600254826103a89190610865565b9050919050565b600060fb8210156105af5760338210156103d857600354826103d19190610865565b90506105aa565b6032821180156103e85750606582105b15610427576004546032836103fd91906108bf565b6104079190610865565b60035460326104169190610865565b610420919061080f565b90506105a9565b6064821180156104375750609782105b1561048f5760055460328361044c91906108bf565b6104569190610865565b60045460326104659190610865565b60035460326104749190610865565b61047e919061080f565b610488919061080f565b90506105a8565b60968211801561049f575060c982105b15610510576006546032836104b491906108bf565b6104be9190610865565b60055460326104cd9190610865565b60045460326104dc9190610865565b60035460326104eb9190610865565b6104f5919061080f565b6104ff919061080f565b610509919061080f565b90506105a7565b60c882118015610520575060fb82105b156105a65760075460328361053591906108bf565b61053f9190610865565b600654603261054e9190610865565b600554603261055d9190610865565b600454603261056c9190610865565b600354603261057b9190610865565b610585919061080f565b61058f919061080f565b610599919061080f565b6105a3919061080f565b90505b5b5b5b5b610624565b60fa821180156105c0575061015f82105b156105da57600854826105d39190610865565b9050610623565b61015e821180156105ec57506101c382105b1561060657600954826105ff9190610865565b9050610622565b6101c282111561062157600a548261061e9190610865565b90505b5b5b5b919050565b346001600082825461063b919061080f565b92505081905550565b600a5481565b60085481565b60015481565b60035481565b8173ffffffffffffffffffffffffffffffffffffffff166108fc829081150290604051600060405180830381858888f193505050501580156106a2573d6000803e3d6000fd5b505050565b60095481565b600080600085925084915083905093509350939050565b6000813590506106d381610963565b92915050565b6000813590506106e88161097a565b92915050565b600080604083850312156107055761070461095e565b5b6000610713858286016106c4565b9250506020610724858286016106d9565b9150509250929050565b6000602082840312156107445761074361095e565b5b6000610752848285016106d9565b91505092915050565b6000806000606084860312156107745761077361095e565b5b6000610782868287016106d9565b9350506020610793868287016106d9565b92505060406107a4868287016106d9565b9150509250925092565b6107b781610925565b82525050565b60006020820190506107d260008301846107ae565b92915050565b60006060820190506107ed60008301866107ae565b6107fa60208301856107ae565b61080760408301846107ae565b949350505050565b600061081a82610925565b915061082583610925565b9250827fffffffffffffffffffffffffffffffffffffffffffffffffffffffffffffffff0382111561085a5761085961092f565b5b828201905092915050565b600061087082610925565b915061087b83610925565b9250817fffffffffffffffffffffffffffffffffffffffffffffffffffffffffffffffff04831182151516156108b4576108b361092f565b5b828202905092915050565b60006108ca82610925565b91506108d583610925565b9250828210156108e8576108e761092f565b5b828203905092915050565b60006108fe82610905565b9050919050565b600073ffffffffffffffffffffffffffffffffffffffff82169050919050565b6000819050919050565b7f4e487b7100000000000000000000000000000000000000000000000000000000600052601160045260246000fd5b600080fd5b61096c816108f3565b811461097757600080fd5b50565b61098381610925565b811461098e57600080fd5b5056fea2646970667358221220b9d945ff8c62baff436e3095434d62b783dadfed9e6b44aff5341603ab8b4d2564736f6c63430008070033",
					"opcodes": "PUSH1 0x80 PUSH1 0x40 MSTORE PUSH1 0x0 PUSH1 0x1 SSTORE PUSH1 0x3 PUSH1 0x2 SSTORE PUSH1 0x3 DUP1 SSTORE PUSH1 0x4 DUP1 SSTORE PUSH1 0x5 DUP1 SSTORE PUSH1 0x6 DUP1 SSTORE PUSH1 0x7 DUP1 SSTORE PUSH1 0x8 DUP1 SSTORE PUSH1 0x9 DUP1 SSTORE PUSH1 0xA DUP1 SSTORE CALLVALUE DUP1 ISZERO PUSH2 0x3A JUMPI PUSH1 0x0 DUP1 REVERT JUMPDEST POP CALLER PUSH1 0x0 DUP1 PUSH2 0x100 EXP DUP2 SLOAD DUP2 PUSH20 0xFFFFFFFFFFFFFFFFFFFFFFFFFFFFFFFFFFFFFFFF MUL NOT AND SWAP1 DUP4 PUSH20 0xFFFFFFFFFFFFFFFFFFFFFFFFFFFFFFFFFFFFFFFF AND MUL OR SWAP1 SSTORE POP PUSH2 0x9C7 DUP1 PUSH2 0x8A PUSH1 0x0 CODECOPY PUSH1 0x0 RETURN INVALID PUSH1 0x80 PUSH1 0x40 MSTORE PUSH1 0x4 CALLDATASIZE LT PUSH2 0xE8 JUMPI PUSH1 0x0 CALLDATALOAD PUSH1 0xE0 SHR DUP1 PUSH4 0x7C134B14 GT PUSH2 0x8A JUMPI DUP1 PUSH4 0xC2C496EC GT PUSH2 0x59 JUMPI DUP1 PUSH4 0xC2C496EC EQ PUSH2 0x2C9 JUMPI DUP1 PUSH4 0xD0679D34 EQ PUSH2 0x2F4 JUMPI DUP1 PUSH4 0xED2FA5AB EQ PUSH2 0x310 JUMPI DUP1 PUSH4 0xF02E48C3 EQ PUSH2 0x33B JUMPI PUSH2 0xE8 JUMP JUMPDEST DUP1 PUSH4 0x7C134B14 EQ PUSH2 0x23E JUMPI DUP1 PUSH4 0xA8BDB68B EQ PUSH2 0x248 JUMPI DUP1 PUSH4 0xB4AD7FA9 EQ PUSH2 0x273 JUMPI DUP1 PUSH4 0xB69EF8A8 EQ PUSH2 0x29E JUMPI PUSH2 0xE8 JUMP JUMPDEST DUP1 PUSH4 0x28780A44 GT PUSH2 0xC6 JUMPI DUP1 PUSH4 0x28780A44 EQ PUSH2 0x16E JUMPI DUP1 PUSH4 0x2C9AF64C EQ PUSH2 0x199 JUMPI DUP1 PUSH4 0x5C8F6B56 EQ PUSH2 0x1C4 JUMPI DUP1 PUSH4 0x721028EC EQ PUSH2 0x201 JUMPI PUSH2 0xE8 JUMP JUMPDEST DUP1 PUSH4 0xC03A1A3 EQ PUSH2 0xED JUMPI DUP1 PUSH4 0x103347E7 EQ PUSH2 0x118 JUMPI DUP1 PUSH4 0x20E731A1 EQ PUSH2 0x143 JUMPI JUMPDEST PUSH1 0x0 DUP1 REVERT JUMPDEST CALLVALUE DUP1 ISZERO PUSH2 0xF9 JUMPI PUSH1 0x0 DUP1 REVERT JUMPDEST POP PUSH2 0x102 PUSH2 0x37A JUMP JUMPDEST PUSH1 0x40 MLOAD PUSH2 0x10F SWAP2 SWAP1 PUSH2 0x7BD JUMP JUMPDEST PUSH1 0x40 MLOAD DUP1 SWAP2 SUB SWAP1 RETURN JUMPDEST CALLVALUE DUP1 ISZERO PUSH2 0x124 JUMPI PUSH1 0x0 DUP1 REVERT JUMPDEST POP PUSH2 0x12D PUSH2 0x380 JUMP JUMPDEST PUSH1 0x40 MLOAD PUSH2 0x13A SWAP2 SWAP1 PUSH2 0x7BD JUMP JUMPDEST PUSH1 0x40 MLOAD DUP1 SWAP2 SUB SWAP1 RETURN JUMPDEST CALLVALUE DUP1 ISZERO PUSH2 0x14F JUMPI PUSH1 0x0 DUP1 REVERT JUMPDEST POP PUSH2 0x158 PUSH2 0x386 JUMP JUMPDEST PUSH1 0x40 MLOAD PUSH2 0x165 SWAP2 SWAP1 PUSH2 0x7BD JUMP JUMPDEST PUSH1 0x40 MLOAD DUP1 SWAP2 SUB SWAP1 RETURN JUMPDEST CALLVALUE DUP1 ISZERO PUSH2 0x17A JUMPI PUSH1 0x0 DUP1 REVERT JUMPDEST POP PUSH2 0x183 PUSH2 0x38C JUMP JUMPDEST PUSH1 0x40 MLOAD PUSH2 0x190 SWAP2 SWAP1 PUSH2 0x7BD JUMP JUMPDEST PUSH1 0x40 MLOAD DUP1 SWAP2 SUB SWAP1 RETURN JUMPDEST CALLVALUE DUP1 ISZERO PUSH2 0x1A5 JUMPI PUSH1 0x0 DUP1 REVERT JUMPDEST POP PUSH2 0x1AE PUSH2 0x392 JUMP JUMPDEST PUSH1 0x40 MLOAD PUSH2 0x1BB SWAP2 SWAP1 PUSH2 0x7BD JUMP JUMPDEST PUSH1 0x40 MLOAD DUP1 SWAP2 SUB SWAP1 RETURN JUMPDEST CALLVALUE DUP1 ISZERO PUSH2 0x1D0 JUMPI PUSH1 0x0 DUP1 REVERT JUMPDEST POP PUSH2 0x1EB PUSH1 0x4 DUP1 CALLDATASIZE SUB DUP2 ADD SWAP1 PUSH2 0x1E6 SWAP2 SWAP1 PUSH2 0x72E JUMP JUMPDEST PUSH2 0x398 JUMP JUMPDEST PUSH1 0x40 MLOAD PUSH2 0x1F8 SWAP2 SWAP1 PUSH2 0x7BD JUMP JUMPDEST PUSH1 0x40 MLOAD DUP1 SWAP2 SUB SWAP1 RETURN JUMPDEST CALLVALUE DUP1 ISZERO PUSH2 0x20D JUMPI PUSH1 0x0 DUP1 REVERT JUMPDEST POP PUSH2 0x228 PUSH1 0x4 DUP1 CALLDATASIZE SUB DUP2 ADD SWAP1 PUSH2 0x223 SWAP2 SWAP1 PUSH2 0x72E JUMP JUMPDEST PUSH2 0x3AF JUMP JUMPDEST PUSH1 0x40 MLOAD PUSH2 0x235 SWAP2 SWAP1 PUSH2 0x7BD JUMP JUMPDEST PUSH1 0x40 MLOAD DUP1 SWAP2 SUB SWAP1 RETURN JUMPDEST PUSH2 0x246 PUSH2 0x629 JUMP JUMPDEST STOP JUMPDEST CALLVALUE DUP1 ISZERO PUSH2 0x254 JUMPI PUSH1 0x0 DUP1 REVERT JUMPDEST POP PUSH2 0x25D PUSH2 0x644 JUMP JUMPDEST PUSH1 0x40 MLOAD PUSH2 0x26A SWAP2 SWAP1 PUSH2 0x7BD JUMP JUMPDEST PUSH1 0x40 MLOAD DUP1 SWAP2 SUB SWAP1 RETURN JUMPDEST CALLVALUE DUP1 ISZERO PUSH2 0x27F JUMPI PUSH1 0x0 DUP1 REVERT JUMPDEST POP PUSH2 0x288 PUSH2 0x64A JUMP JUMPDEST PUSH1 0x40 MLOAD PUSH2 0x295 SWAP2 SWAP1 PUSH2 0x7BD JUMP JUMPDEST PUSH1 0x40 MLOAD DUP1 SWAP2 SUB SWAP1 RETURN JUMPDEST CALLVALUE DUP1 ISZERO PUSH2 0x2AA JUMPI PUSH1 0x0 DUP1 REVERT JUMPDEST POP PUSH2 0x2B3 PUSH2 0x650 JUMP JUMPDEST PUSH1 0x40 MLOAD PUSH2 0x2C0 SWAP2 SWAP1 PUSH2 0x7BD JUMP JUMPDEST PUSH1 0x40 MLOAD DUP1 SWAP2 SUB SWAP1 RETURN JUMPDEST CALLVALUE DUP1 ISZERO PUSH2 0x2D5 JUMPI PUSH1 0x0 DUP1 REVERT JUMPDEST POP PUSH2 0x2DE PUSH2 0x656 JUMP JUMPDEST PUSH1 0x40 MLOAD PUSH2 0x2EB SWAP2 SWAP1 PUSH2 0x7BD JUMP JUMPDEST PUSH1 0x40 MLOAD DUP1 SWAP2 SUB SWAP1 RETURN JUMPDEST PUSH2 0x30E PUSH1 0x4 DUP1 CALLDATASIZE SUB DUP2 ADD SWAP1 PUSH2 0x309 SWAP2 SWAP1 PUSH2 0x6EE JUMP JUMPDEST PUSH2 0x65C JUMP JUMPDEST STOP JUMPDEST CALLVALUE DUP1 ISZERO PUSH2 0x31C JUMPI PUSH1 0x0 DUP1 REVERT JUMPDEST POP PUSH2 0x325 PUSH2 0x6A7 JUMP JUMPDEST PUSH1 0x40 MLOAD PUSH2 0x332 SWAP2 SWAP1 PUSH2 0x7BD JUMP JUMPDEST PUSH1 0x40 MLOAD DUP1 SWAP2 SUB SWAP1 RETURN JUMPDEST CALLVALUE DUP1 ISZERO PUSH2 0x347 JUMPI PUSH1 0x0 DUP1 REVERT JUMPDEST POP PUSH2 0x362 PUSH1 0x4 DUP1 CALLDATASIZE SUB DUP2 ADD SWAP1 PUSH2 0x35D SWAP2 SWAP1 PUSH2 0x75B JUMP JUMPDEST PUSH2 0x6AD JUMP JUMPDEST PUSH1 0x40 MLOAD PUSH2 0x371 SWAP4 SWAP3 SWAP2 SWAP1 PUSH2 0x7D8 JUMP JUMPDEST PUSH1 0x40 MLOAD DUP1 SWAP2 SUB SWAP1 RETURN JUMPDEST PUSH1 0x7 SLOAD DUP2 JUMP JUMPDEST PUSH1 0x6 SLOAD DUP2 JUMP JUMPDEST PUSH1 0x5 SLOAD DUP2 JUMP JUMPDEST PUSH1 0x4 SLOAD DUP2 JUMP JUMPDEST PUSH1 0x2 SLOAD DUP2 JUMP JUMPDEST PUSH1 0x0 PUSH1 0x2 SLOAD DUP3 PUSH2 0x3A8 SWAP2 SWAP1 PUSH2 0x865 JUMP JUMPDEST SWAP1 POP SWAP2 SWAP1 POP JUMP JUMPDEST PUSH1 0x0 PUSH1 0xFB DUP3 LT ISZERO PUSH2 0x5AF JUMPI PUSH1 0x33 DUP3 LT ISZERO PUSH2 0x3D8 JUMPI PUSH1 0x3 SLOAD DUP3 PUSH2 0x3D1 SWAP2 SWAP1 PUSH2 0x865 JUMP JUMPDEST SWAP1 POP PUSH2 0x5AA JUMP JUMPDEST PUSH1 0x32 DUP3 GT DUP1 ISZERO PUSH2 0x3E8 JUMPI POP PUSH1 0x65 DUP3 LT JUMPDEST ISZERO PUSH2 0x427 JUMPI PUSH1 0x4 SLOAD PUSH1 0x32 DUP4 PUSH2 0x3FD SWAP2 SWAP1 PUSH2 0x8BF JUMP JUMPDEST PUSH2 0x407 SWAP2 SWAP1 PUSH2 0x865 JUMP JUMPDEST PUSH1 0x3 SLOAD PUSH1 0x32 PUSH2 0x416 SWAP2 SWAP1 PUSH2 0x865 JUMP JUMPDEST PUSH2 0x420 SWAP2 SWAP1 PUSH2 0x80F JUMP JUMPDEST SWAP1 POP PUSH2 0x5A9 JUMP JUMPDEST PUSH1 0x64 DUP3 GT DUP1 ISZERO PUSH2 0x437 JUMPI POP PUSH1 0x97 DUP3 LT JUMPDEST ISZERO PUSH2 0x48F JUMPI PUSH1 0x5 SLOAD PUSH1 0x32 DUP4 PUSH2 0x44C SWAP2 SWAP1 PUSH2 0x8BF JUMP JUMPDEST PUSH2 0x456 SWAP2 SWAP1 PUSH2 0x865 JUMP JUMPDEST PUSH1 0x4 SLOAD PUSH1 0x32 PUSH2 0x465 SWAP2 SWAP1 PUSH2 0x865 JUMP JUMPDEST PUSH1 0x3 SLOAD PUSH1 0x32 PUSH2 0x474 SWAP2 SWAP1 PUSH2 0x865 JUMP JUMPDEST PUSH2 0x47E SWAP2 SWAP1 PUSH2 0x80F JUMP JUMPDEST PUSH2 0x488 SWAP2 SWAP1 PUSH2 0x80F JUMP JUMPDEST SWAP1 POP PUSH2 0x5A8 JUMP JUMPDEST PUSH1 0x96 DUP3 GT DUP1 ISZERO PUSH2 0x49F JUMPI POP PUSH1 0xC9 DUP3 LT JUMPDEST ISZERO PUSH2 0x510 JUMPI PUSH1 0x6 SLOAD PUSH1 0x32 DUP4 PUSH2 0x4B4 SWAP2 SWAP1 PUSH2 0x8BF JUMP JUMPDEST PUSH2 0x4BE SWAP2 SWAP1 PUSH2 0x865 JUMP JUMPDEST PUSH1 0x5 SLOAD PUSH1 0x32 PUSH2 0x4CD SWAP2 SWAP1 PUSH2 0x865 JUMP JUMPDEST PUSH1 0x4 SLOAD PUSH1 0x32 PUSH2 0x4DC SWAP2 SWAP1 PUSH2 0x865 JUMP JUMPDEST PUSH1 0x3 SLOAD PUSH1 0x32 PUSH2 0x4EB SWAP2 SWAP1 PUSH2 0x865 JUMP JUMPDEST PUSH2 0x4F5 SWAP2 SWAP1 PUSH2 0x80F JUMP JUMPDEST PUSH2 0x4FF SWAP2 SWAP1 PUSH2 0x80F JUMP JUMPDEST PUSH2 0x509 SWAP2 SWAP1 PUSH2 0x80F JUMP JUMPDEST SWAP1 POP PUSH2 0x5A7 JUMP JUMPDEST PUSH1 0xC8 DUP3 GT DUP1 ISZERO PUSH2 0x520 JUMPI POP PUSH1 0xFB DUP3 LT JUMPDEST ISZERO PUSH2 0x5A6 JUMPI PUSH1 0x7 SLOAD PUSH1 0x32 DUP4 PUSH2 0x535 SWAP2 SWAP1 PUSH2 0x8BF JUMP JUMPDEST PUSH2 0x53F SWAP2 SWAP1 PUSH2 0x865 JUMP JUMPDEST PUSH1 0x6 SLOAD PUSH1 0x32 PUSH2 0x54E SWAP2 SWAP1 PUSH2 0x865 JUMP JUMPDEST PUSH1 0x5 SLOAD PUSH1 0x32 PUSH2 0x55D SWAP2 SWAP1 PUSH2 0x865 JUMP JUMPDEST PUSH1 0x4 SLOAD PUSH1 0x32 PUSH2 0x56C SWAP2 SWAP1 PUSH2 0x865 JUMP JUMPDEST PUSH1 0x3 SLOAD PUSH1 0x32 PUSH2 0x57B SWAP2 SWAP1 PUSH2 0x865 JUMP JUMPDEST PUSH2 0x585 SWAP2 SWAP1 PUSH2 0x80F JUMP JUMPDEST PUSH2 0x58F SWAP2 SWAP1 PUSH2 0x80F JUMP JUMPDEST PUSH2 0x599 SWAP2 SWAP1 PUSH2 0x80F JUMP JUMPDEST PUSH2 0x5A3 SWAP2 SWAP1 PUSH2 0x80F JUMP JUMPDEST SWAP1 POP JUMPDEST JUMPDEST JUMPDEST JUMPDEST JUMPDEST PUSH2 0x624 JUMP JUMPDEST PUSH1 0xFA DUP3 GT DUP1 ISZERO PUSH2 0x5C0 JUMPI POP PUSH2 0x15F DUP3 LT JUMPDEST ISZERO PUSH2 0x5DA JUMPI PUSH1 0x8 SLOAD DUP3 PUSH2 0x5D3 SWAP2 SWAP1 PUSH2 0x865 JUMP JUMPDEST SWAP1 POP PUSH2 0x623 JUMP JUMPDEST PUSH2 0x15E DUP3 GT DUP1 ISZERO PUSH2 0x5EC JUMPI POP PUSH2 0x1C3 DUP3 LT JUMPDEST ISZERO PUSH2 0x606 JUMPI PUSH1 0x9 SLOAD DUP3 PUSH2 0x5FF SWAP2 SWAP1 PUSH2 0x865 JUMP JUMPDEST SWAP1 POP PUSH2 0x622 JUMP JUMPDEST PUSH2 0x1C2 DUP3 GT ISZERO PUSH2 0x621 JUMPI PUSH1 0xA SLOAD DUP3 PUSH2 0x61E SWAP2 SWAP1 PUSH2 0x865 JUMP JUMPDEST SWAP1 POP JUMPDEST JUMPDEST JUMPDEST JUMPDEST SWAP2 SWAP1 POP JUMP JUMPDEST CALLVALUE PUSH1 0x1 PUSH1 0x0 DUP3 DUP3 SLOAD PUSH2 0x63B SWAP2 SWAP1 PUSH2 0x80F JUMP JUMPDEST SWAP3 POP POP DUP2 SWAP1 SSTORE POP JUMP JUMPDEST PUSH1 0xA SLOAD DUP2 JUMP JUMPDEST PUSH1 0x8 SLOAD DUP2 JUMP JUMPDEST PUSH1 0x1 SLOAD DUP2 JUMP JUMPDEST PUSH1 0x3 SLOAD DUP2 JUMP JUMPDEST DUP2 PUSH20 0xFFFFFFFFFFFFFFFFFFFFFFFFFFFFFFFFFFFFFFFF AND PUSH2 0x8FC DUP3 SWAP1 DUP2 ISZERO MUL SWAP1 PUSH1 0x40 MLOAD PUSH1 0x0 PUSH1 0x40 MLOAD DUP1 DUP4 SUB DUP2 DUP6 DUP9 DUP9 CALL SWAP4 POP POP POP POP ISZERO DUP1 ISZERO PUSH2 0x6A2 JUMPI RETURNDATASIZE PUSH1 0x0 DUP1 RETURNDATACOPY RETURNDATASIZE PUSH1 0x0 REVERT JUMPDEST POP POP POP JUMP JUMPDEST PUSH1 0x9 SLOAD DUP2 JUMP JUMPDEST PUSH1 0x0 DUP1 PUSH1 0x0 DUP6 SWAP3 POP DUP5 SWAP2 POP DUP4 SWAP1 POP SWAP4 POP SWAP4 POP SWAP4 SWAP1 POP JUMP JUMPDEST PUSH1 0x0 DUP2 CALLDATALOAD SWAP1 POP PUSH2 0x6D3 DUP2 PUSH2 0x963 JUMP JUMPDEST SWAP3 SWAP2 POP POP JUMP JUMPDEST PUSH1 0x0 DUP2 CALLDATALOAD SWAP1 POP PUSH2 0x6E8 DUP2 PUSH2 0x97A JUMP JUMPDEST SWAP3 SWAP2 POP POP JUMP JUMPDEST PUSH1 0x0 DUP1 PUSH1 0x40 DUP4 DUP6 SUB SLT ISZERO PUSH2 0x705 JUMPI PUSH2 0x704 PUSH2 0x95E JUMP JUMPDEST JUMPDEST PUSH1 0x0 PUSH2 0x713 DUP6 DUP3 DUP7 ADD PUSH2 0x6C4 JUMP JUMPDEST SWAP3 POP POP PUSH1 0x20 PUSH2 0x724 DUP6 DUP3 DUP7 ADD PUSH2 0x6D9 JUMP JUMPDEST SWAP2 POP POP SWAP3 POP SWAP3 SWAP1 POP JUMP JUMPDEST PUSH1 0x0 PUSH1 0x20 DUP3 DUP5 SUB SLT ISZERO PUSH2 0x744 JUMPI PUSH2 0x743 PUSH2 0x95E JUMP JUMPDEST JUMPDEST PUSH1 0x0 PUSH2 0x752 DUP5 DUP3 DUP6 ADD PUSH2 0x6D9 JUMP JUMPDEST SWAP2 POP POP SWAP3 SWAP2 POP POP JUMP JUMPDEST PUSH1 0x0 DUP1 PUSH1 0x0 PUSH1 0x60 DUP5 DUP7 SUB SLT ISZERO PUSH2 0x774 JUMPI PUSH2 0x773 PUSH2 0x95E JUMP JUMPDEST JUMPDEST PUSH1 0x0 PUSH2 0x782 DUP7 DUP3 DUP8 ADD PUSH2 0x6D9 JUMP JUMPDEST SWAP4 POP POP PUSH1 0x20 PUSH2 0x793 DUP7 DUP3 DUP8 ADD PUSH2 0x6D9 JUMP JUMPDEST SWAP3 POP POP PUSH1 0x40 PUSH2 0x7A4 DUP7 DUP3 DUP8 ADD PUSH2 0x6D9 JUMP JUMPDEST SWAP2 POP POP SWAP3 POP SWAP3 POP SWAP3 JUMP JUMPDEST PUSH2 0x7B7 DUP2 PUSH2 0x925 JUMP JUMPDEST DUP3 MSTORE POP POP JUMP JUMPDEST PUSH1 0x0 PUSH1 0x20 DUP3 ADD SWAP1 POP PUSH2 0x7D2 PUSH1 0x0 DUP4 ADD DUP5 PUSH2 0x7AE JUMP JUMPDEST SWAP3 SWAP2 POP POP JUMP JUMPDEST PUSH1 0x0 PUSH1 0x60 DUP3 ADD SWAP1 POP PUSH2 0x7ED PUSH1 0x0 DUP4 ADD DUP7 PUSH2 0x7AE JUMP JUMPDEST PUSH2 0x7FA PUSH1 0x20 DUP4 ADD DUP6 PUSH2 0x7AE JUMP JUMPDEST PUSH2 0x807 PUSH1 0x40 DUP4 ADD DUP5 PUSH2 0x7AE JUMP JUMPDEST SWAP5 SWAP4 POP POP POP POP JUMP JUMPDEST PUSH1 0x0 PUSH2 0x81A DUP3 PUSH2 0x925 JUMP JUMPDEST SWAP2 POP PUSH2 0x825 DUP4 PUSH2 0x925 JUMP JUMPDEST SWAP3 POP DUP3 PUSH32 0xFFFFFFFFFFFFFFFFFFFFFFFFFFFFFFFFFFFFFFFFFFFFFFFFFFFFFFFFFFFFFFFF SUB DUP3 GT ISZERO PUSH2 0x85A JUMPI PUSH2 0x859 PUSH2 0x92F JUMP JUMPDEST JUMPDEST DUP3 DUP3 ADD SWAP1 POP SWAP3 SWAP2 POP POP JUMP JUMPDEST PUSH1 0x0 PUSH2 0x870 DUP3 PUSH2 0x925 JUMP JUMPDEST SWAP2 POP PUSH2 0x87B DUP4 PUSH2 0x925 JUMP JUMPDEST SWAP3 POP DUP2 PUSH32 0xFFFFFFFFFFFFFFFFFFFFFFFFFFFFFFFFFFFFFFFFFFFFFFFFFFFFFFFFFFFFFFFF DIV DUP4 GT DUP3 ISZERO ISZERO AND ISZERO PUSH2 0x8B4 JUMPI PUSH2 0x8B3 PUSH2 0x92F JUMP JUMPDEST JUMPDEST DUP3 DUP3 MUL SWAP1 POP SWAP3 SWAP2 POP POP JUMP JUMPDEST PUSH1 0x0 PUSH2 0x8CA DUP3 PUSH2 0x925 JUMP JUMPDEST SWAP2 POP PUSH2 0x8D5 DUP4 PUSH2 0x925 JUMP JUMPDEST SWAP3 POP DUP3 DUP3 LT ISZERO PUSH2 0x8E8 JUMPI PUSH2 0x8E7 PUSH2 0x92F JUMP JUMPDEST JUMPDEST DUP3 DUP3 SUB SWAP1 POP SWAP3 SWAP2 POP POP JUMP JUMPDEST PUSH1 0x0 PUSH2 0x8FE DUP3 PUSH2 0x905 JUMP JUMPDEST SWAP1 POP SWAP2 SWAP1 POP JUMP JUMPDEST PUSH1 0x0 PUSH20 0xFFFFFFFFFFFFFFFFFFFFFFFFFFFFFFFFFFFFFFFF DUP3 AND SWAP1 POP SWAP2 SWAP1 POP JUMP JUMPDEST PUSH1 0x0 DUP2 SWAP1 POP SWAP2 SWAP1 POP JUMP JUMPDEST PUSH32 0x4E487B7100000000000000000000000000000000000000000000000000000000 PUSH1 0x0 MSTORE PUSH1 0x11 PUSH1 0x4 MSTORE PUSH1 0x24 PUSH1 0x0 REVERT JUMPDEST PUSH1 0x0 DUP1 REVERT JUMPDEST PUSH2 0x96C DUP2 PUSH2 0x8F3 JUMP JUMPDEST DUP2 EQ PUSH2 0x977 JUMPI PUSH1 0x0 DUP1 REVERT JUMPDEST POP JUMP JUMPDEST PUSH2 0x983 DUP2 PUSH2 0x925 JUMP JUMPDEST DUP2 EQ PUSH2 0x98E JUMPI PUSH1 0x0 DUP1 REVERT JUMPDEST POP JUMP INVALID LOG2 PUSH5 0x6970667358 0x22 SLT KECCAK256 0xB9 0xD9 GASLIMIT SELFDESTRUCT DUP13 PUSH3 0xBAFF43 PUSH15 0x3095434D62B783DADFED9E6B44AFF5 CALLVALUE AND SUB 0xAB DUP12 0x4D 0x25 PUSH5 0x736F6C6343 STOP ADDMOD SMOD STOP CALLER "
				},
				"gasEstimates": {
					"creation": {
						"codeDepositCost": "500600",
						"executionCost": "228763",
						"totalCost": "729363"
					},
					"external": {
						"balCheck()": "infinite",
						"balance()": "2518",
						"btc1()": "2451",
						"btc2()": "2452",
						"btc3()": "2497",
						"btc4()": "2475",
						"btc5()": "2453",
						"btc6()": "2496",
						"btc7()": "2495",
						"btc8()": "2474",
						"btp()": "2474",
						"getConsumerTariff(uint256)": "infinite",
						"getProsumerTariff(uint256)": "infinite",
						"getnPnCnEV(uint256,uint256,uint256)": "infinite",
						"send(address,uint256)": "infinite"
					}
				},
				"methodIdentifiers": {
					"balCheck()": "7c134b14",
					"balance()": "b69ef8a8",
					"btc1()": "c2c496ec",
					"btc2()": "28780a44",
					"btc3()": "20e731a1",
					"btc4()": "103347e7",
					"btc5()": "0c03a1a3",
					"btc6()": "b4ad7fa9",
					"btc7()": "ed2fa5ab",
					"btc8()": "a8bdb68b",
					"btp()": "2c9af64c",
					"getConsumerTariff(uint256)": "721028ec",
					"getProsumerTariff(uint256)": "5c8f6b56",
					"getnPnCnEV(uint256,uint256,uint256)": "f02e48c3",
					"send(address,uint256)": "d0679d34"
				}
			},
			"storageLayout": {
				"storage": [
					{
						"astId": 3,
						"contract": "eth based/truffle/contracts/FLIR_Contract.sol:FLIRContract",
						"label": "owner",
						"offset": 0,
						"slot": "0",
						"type": "t_address"
					},
					{
						"astId": 11,
						"contract": "eth based/truffle/contracts/FLIR_Contract.sol:FLIRContract",
						"label": "balance",
						"offset": 0,
						"slot": "1",
						"type": "t_uint256"
					},
					{
						"astId": 23,
						"contract": "eth based/truffle/contracts/FLIR_Contract.sol:FLIRContract",
						"label": "btp",
						"offset": 0,
						"slot": "2",
						"type": "t_uint256"
					},
					{
						"astId": 26,
						"contract": "eth based/truffle/contracts/FLIR_Contract.sol:FLIRContract",
						"label": "btc1",
						"offset": 0,
						"slot": "3",
						"type": "t_uint256"
					},
					{
						"astId": 29,
						"contract": "eth based/truffle/contracts/FLIR_Contract.sol:FLIRContract",
						"label": "btc2",
						"offset": 0,
						"slot": "4",
						"type": "t_uint256"
					},
					{
						"astId": 32,
						"contract": "eth based/truffle/contracts/FLIR_Contract.sol:FLIRContract",
						"label": "btc3",
						"offset": 0,
						"slot": "5",
						"type": "t_uint256"
					},
					{
						"astId": 35,
						"contract": "eth based/truffle/contracts/FLIR_Contract.sol:FLIRContract",
						"label": "btc4",
						"offset": 0,
						"slot": "6",
						"type": "t_uint256"
					},
					{
						"astId": 38,
						"contract": "eth based/truffle/contracts/FLIR_Contract.sol:FLIRContract",
						"label": "btc5",
						"offset": 0,
						"slot": "7",
						"type": "t_uint256"
					},
					{
						"astId": 41,
						"contract": "eth based/truffle/contracts/FLIR_Contract.sol:FLIRContract",
						"label": "btc6",
						"offset": 0,
						"slot": "8",
						"type": "t_uint256"
					},
					{
						"astId": 44,
						"contract": "eth based/truffle/contracts/FLIR_Contract.sol:FLIRContract",
						"label": "btc7",
						"offset": 0,
						"slot": "9",
						"type": "t_uint256"
					},
					{
						"astId": 47,
						"contract": "eth based/truffle/contracts/FLIR_Contract.sol:FLIRContract",
						"label": "btc8",
						"offset": 0,
						"slot": "10",
						"type": "t_uint256"
					}
				],
				"types": {
					"t_address": {
						"encoding": "inplace",
						"label": "address",
						"numberOfBytes": "20"
					},
					"t_uint256": {
						"encoding": "inplace",
						"label": "uint256",
						"numberOfBytes": "32"
					}
				}
			},
			"userdoc": {
				"kind": "user",
				"methods": {},
				"version": 1
			}
		}
	}
}