{
	"eth based/truffle/contracts/FLIR_Contract.sol": {
		"FLIRContract": {
			"abi": [
				{
					"inputs": [],
					"name": "btc1",
					"outputs": [
						{
							"internalType": "uint256",
							"name": "",
							"type": "uint256"
						}
					],
					"stateMutability": "view",
					"type": "function"
				},
				{
					"inputs": [],
					"name": "btc2",
					"outputs": [
						{
							"internalType": "uint256",
							"name": "",
							"type": "uint256"
						}
					],
					"stateMutability": "view",
					"type": "function"
				},
				{
					"inputs": [],
					"name": "btc3",
					"outputs": [
						{
							"internalType": "uint256",
							"name": "",
							"type": "uint256"
						}
					],
					"stateMutability": "view",
					"type": "function"
				},
				{
					"inputs": [],
					"name": "btc4",
					"outputs": [
						{
							"internalType": "uint256",
							"name": "",
							"type": "uint256"
						}
					],
					"stateMutability": "view",
					"type": "function"
				},
				{
					"inputs": [],
					"name": "btc5",
					"outputs": [
						{
							"internalType": "uint256",
							"name": "",
							"type": "uint256"
						}
					],
					"stateMutability": "view",
					"type": "function"
				},
				{
					"inputs": [],
					"name": "btc6",
					"outputs": [
						{
							"internalType": "uint256",
							"name": "",
							"type": "uint256"
						}
					],
					"stateMutability": "view",
					"type": "function"
				},
				{
					"inputs": [],
					"name": "btc7",
					"outputs": [
						{
							"internalType": "uint256",
							"name": "",
							"type": "uint256"
						}
					],
					"stateMutability": "view",
					"type": "function"
				},
				{
					"inputs": [],
					"name": "btc8",
					"outputs": [
						{
							"internalType": "uint256",
							"name": "",
							"type": "uint256"
						}
					],
					"stateMutability": "view",
					"type": "function"
				},
				{
					"inputs": [],
					"name": "btp",
					"outputs": [
						{
							"internalType": "uint256",
							"name": "",
							"type": "uint256"
						}
					],
					"stateMutability": "view",
					"type": "function"
				},
				{
					"inputs": [
						{
							"internalType": "uint256",
							"name": "nPget",
							"type": "uint256"
						},
						{
							"internalType": "uint256",
							"name": "nCget",
							"type": "uint256"
						},
						{
							"internalType": "uint256",
							"name": "nEVget",
							"type": "uint256"
						}
					],
					"name": "getnPnCnEV",
					"outputs": [],
					"stateMutability": "nonpayable",
					"type": "function"
				},
				{
					"inputs": [],
					"name": "nC",
					"outputs": [
						{
							"internalType": "uint256",
							"name": "",
							"type": "uint256"
						}
					],
					"stateMutability": "view",
					"type": "function"
				},
				{
					"inputs": [],
					"name": "nEV",
					"outputs": [
						{
							"internalType": "uint256",
							"name": "",
							"type": "uint256"
						}
					],
					"stateMutability": "view",
					"type": "function"
				},
				{
					"inputs": [],
					"name": "nP",
					"outputs": [
						{
							"internalType": "uint256",
							"name": "",
							"type": "uint256"
						}
					],
					"stateMutability": "view",
					"type": "function"
				}
			],
			"devdoc": {
				"kind": "dev",
				"methods": {},
				"version": 1
			},
			"evm": {
				"assembly": "    /* \"eth based/truffle/contracts/FLIR_Contract.sol\":128:1872  contract FLIRContract{... */\n  mstore(0x40, 0x80)\n    /* \"eth based/truffle/contracts/FLIR_Contract.sol\":449:450  3 */\n  0x03\n    /* \"eth based/truffle/contracts/FLIR_Contract.sol\":431:450  uint public btp = 3 */\n  0x05\n  sstore\n    /* \"eth based/truffle/contracts/FLIR_Contract.sol\":476:477  3 */\n  0x03\n    /* \"eth based/truffle/contracts/FLIR_Contract.sol\":457:477  uint public btc1 = 3 */\n  0x06\n  sstore\n    /* \"eth based/truffle/contracts/FLIR_Contract.sol\":502:503  4 */\n  0x04\n    /* \"eth based/truffle/contracts/FLIR_Contract.sol\":483:503  uint public btc2 = 4 */\n  0x07\n  sstore\n    /* \"eth based/truffle/contracts/FLIR_Contract.sol\":528:529  5 */\n  0x05\n    /* \"eth based/truffle/contracts/FLIR_Contract.sol\":509:529  uint public btc3 = 5 */\n  0x08\n  sstore\n    /* \"eth based/truffle/contracts/FLIR_Contract.sol\":554:555  6 */\n  0x06\n    /* \"eth based/truffle/contracts/FLIR_Contract.sol\":535:555  uint public btc4 = 6 */\n  0x09\n  sstore\n    /* \"eth based/truffle/contracts/FLIR_Contract.sol\":580:581  7 */\n  0x07\n    /* \"eth based/truffle/contracts/FLIR_Contract.sol\":561:581  uint public btc5 = 7 */\n  0x0a\n  sstore\n    /* \"eth based/truffle/contracts/FLIR_Contract.sol\":606:607  8 */\n  0x08\n    /* \"eth based/truffle/contracts/FLIR_Contract.sol\":587:607  uint public btc6 = 8 */\n  0x0b\n  sstore\n    /* \"eth based/truffle/contracts/FLIR_Contract.sol\":632:633  9 */\n  0x09\n    /* \"eth based/truffle/contracts/FLIR_Contract.sol\":613:633  uint public btc7 = 9 */\n  0x0c\n  sstore\n    /* \"eth based/truffle/contracts/FLIR_Contract.sol\":658:660  10 */\n  0x0a\n    /* \"eth based/truffle/contracts/FLIR_Contract.sol\":639:660  uint public btc8 = 10 */\n  0x0d\n  sstore\n    /* \"eth based/truffle/contracts/FLIR_Contract.sol\":128:1872  contract FLIRContract{... */\n  callvalue\n  dup1\n  iszero\n  tag_1\n  jumpi\n  0x00\n  dup1\n  revert\ntag_1:\n  pop\n  dataSize(sub_0)\n  dup1\n  dataOffset(sub_0)\n  0x00\n  codecopy\n  0x00\n  return\nstop\n\nsub_0: assembly {\n        /* \"eth based/truffle/contracts/FLIR_Contract.sol\":128:1872  contract FLIRContract{... */\n      mstore(0x40, 0x80)\n      callvalue\n      dup1\n      iszero\n      tag_1\n      jumpi\n      0x00\n      dup1\n      revert\n    tag_1:\n      pop\n      jumpi(tag_2, lt(calldatasize, 0x04))\n      shr(0xe0, calldataload(0x00))\n      dup1\n      0x5b6e3cf0\n      gt\n      tag_16\n      jumpi\n      dup1\n      0xb4ad7fa9\n      gt\n      tag_17\n      jumpi\n      dup1\n      0xb4ad7fa9\n      eq\n      tag_12\n      jumpi\n      dup1\n      0xc2c496ec\n      eq\n      tag_13\n      jumpi\n      dup1\n      0xed2fa5ab\n      eq\n      tag_14\n      jumpi\n      dup1\n      0xf02e48c3\n      eq\n      tag_15\n      jumpi\n      jump(tag_2)\n    tag_17:\n      dup1\n      0x5b6e3cf0\n      eq\n      tag_9\n      jumpi\n      dup1\n      0x7c3084cc\n      eq\n      tag_10\n      jumpi\n      dup1\n      0xa8bdb68b\n      eq\n      tag_11\n      jumpi\n      jump(tag_2)\n    tag_16:\n      dup1\n      0x03100155\n      eq\n      tag_3\n      jumpi\n      dup1\n      0x0c03a1a3\n      eq\n      tag_4\n      jumpi\n      dup1\n      0x103347e7\n      eq\n      tag_5\n      jumpi\n      dup1\n      0x20e731a1\n      eq\n      tag_6\n      jumpi\n      dup1\n      0x28780a44\n      eq\n      tag_7\n      jumpi\n      dup1\n      0x2c9af64c\n      eq\n      tag_8\n      jumpi\n    tag_2:\n      0x00\n      dup1\n      revert\n        /* \"eth based/truffle/contracts/FLIR_Contract.sol\":389:403  uint public nC */\n    tag_3:\n      tag_18\n      tag_19\n      jump\t// in\n    tag_18:\n      mload(0x40)\n      tag_20\n      swap2\n      swap1\n      tag_21\n      jump\t// in\n    tag_20:\n      mload(0x40)\n      dup1\n      swap2\n      sub\n      swap1\n      return\n        /* \"eth based/truffle/contracts/FLIR_Contract.sol\":561:581  uint public btc5 = 7 */\n    tag_4:\n      tag_22\n      tag_23\n      jump\t// in\n    tag_22:\n      mload(0x40)\n      tag_24\n      swap2\n      swap1\n      tag_21\n      jump\t// in\n    tag_24:\n      mload(0x40)\n      dup1\n      swap2\n      sub\n      swap1\n      return\n        /* \"eth based/truffle/contracts/FLIR_Contract.sol\":535:555  uint public btc4 = 6 */\n    tag_5:\n      tag_25\n      tag_26\n      jump\t// in\n    tag_25:\n      mload(0x40)\n      tag_27\n      swap2\n      swap1\n      tag_21\n      jump\t// in\n    tag_27:\n      mload(0x40)\n      dup1\n      swap2\n      sub\n      swap1\n      return\n        /* \"eth based/truffle/contracts/FLIR_Contract.sol\":509:529  uint public btc3 = 5 */\n    tag_6:\n      tag_28\n      tag_29\n      jump\t// in\n    tag_28:\n      mload(0x40)\n      tag_30\n      swap2\n      swap1\n      tag_21\n      jump\t// in\n    tag_30:\n      mload(0x40)\n      dup1\n      swap2\n      sub\n      swap1\n      return\n        /* \"eth based/truffle/contracts/FLIR_Contract.sol\":483:503  uint public btc2 = 4 */\n    tag_7:\n      tag_31\n      tag_32\n      jump\t// in\n    tag_31:\n      mload(0x40)\n      tag_33\n      swap2\n      swap1\n      tag_21\n      jump\t// in\n    tag_33:\n      mload(0x40)\n      dup1\n      swap2\n      sub\n      swap1\n      return\n        /* \"eth based/truffle/contracts/FLIR_Contract.sol\":431:450  uint public btp = 3 */\n    tag_8:\n      tag_34\n      tag_35\n      jump\t// in\n    tag_34:\n      mload(0x40)\n      tag_36\n      swap2\n      swap1\n      tag_21\n      jump\t// in\n    tag_36:\n      mload(0x40)\n      dup1\n      swap2\n      sub\n      swap1\n      return\n        /* \"eth based/truffle/contracts/FLIR_Contract.sol\":369:383  uint public nP */\n    tag_9:\n      tag_37\n      tag_38\n      jump\t// in\n    tag_37:\n      mload(0x40)\n      tag_39\n      swap2\n      swap1\n      tag_21\n      jump\t// in\n    tag_39:\n      mload(0x40)\n      dup1\n      swap2\n      sub\n      swap1\n      return\n        /* \"eth based/truffle/contracts/FLIR_Contract.sol\":409:424  uint public nEV */\n    tag_10:\n      tag_40\n      tag_41\n      jump\t// in\n    tag_40:\n      mload(0x40)\n      tag_42\n      swap2\n      swap1\n      tag_21\n      jump\t// in\n    tag_42:\n      mload(0x40)\n      dup1\n      swap2\n      sub\n      swap1\n      return\n        /* \"eth based/truffle/contracts/FLIR_Contract.sol\":639:660  uint public btc8 = 10 */\n    tag_11:\n      tag_43\n      tag_44\n      jump\t// in\n    tag_43:\n      mload(0x40)\n      tag_45\n      swap2\n      swap1\n      tag_21\n      jump\t// in\n    tag_45:\n      mload(0x40)\n      dup1\n      swap2\n      sub\n      swap1\n      return\n        /* \"eth based/truffle/contracts/FLIR_Contract.sol\":587:607  uint public btc6 = 8 */\n    tag_12:\n      tag_46\n      tag_47\n      jump\t// in\n    tag_46:\n      mload(0x40)\n      tag_48\n      swap2\n      swap1\n      tag_21\n      jump\t// in\n    tag_48:\n      mload(0x40)\n      dup1\n      swap2\n      sub\n      swap1\n      return\n        /* \"eth based/truffle/contracts/FLIR_Contract.sol\":457:477  uint public btc1 = 3 */\n    tag_13:\n      tag_49\n      tag_50\n      jump\t// in\n    tag_49:\n      mload(0x40)\n      tag_51\n      swap2\n      swap1\n      tag_21\n      jump\t// in\n    tag_51:\n      mload(0x40)\n      dup1\n      swap2\n      sub\n      swap1\n      return\n        /* \"eth based/truffle/contracts/FLIR_Contract.sol\":613:633  uint public btc7 = 9 */\n    tag_14:\n      tag_52\n      tag_53\n      jump\t// in\n    tag_52:\n      mload(0x40)\n      tag_54\n      swap2\n      swap1\n      tag_21\n      jump\t// in\n    tag_54:\n      mload(0x40)\n      dup1\n      swap2\n      sub\n      swap1\n      return\n        /* \"eth based/truffle/contracts/FLIR_Contract.sol\":673:949  function getnPnCnEV(uint nPget, uint nCget,uint nEVget) public{... */\n    tag_15:\n      tag_55\n      0x04\n      dup1\n      calldatasize\n      sub\n      dup2\n      add\n      swap1\n      tag_56\n      swap2\n      swap1\n      tag_57\n      jump\t// in\n    tag_56:\n      tag_58\n      jump\t// in\n    tag_55:\n      stop\n        /* \"eth based/truffle/contracts/FLIR_Contract.sol\":389:403  uint public nC */\n    tag_19:\n      sload(0x03)\n      dup2\n      jump\t// out\n        /* \"eth based/truffle/contracts/FLIR_Contract.sol\":561:581  uint public btc5 = 7 */\n    tag_23:\n      sload(0x0a)\n      dup2\n      jump\t// out\n        /* \"eth based/truffle/contracts/FLIR_Contract.sol\":535:555  uint public btc4 = 6 */\n    tag_26:\n      sload(0x09)\n      dup2\n      jump\t// out\n        /* \"eth based/truffle/contracts/FLIR_Contract.sol\":509:529  uint public btc3 = 5 */\n    tag_29:\n      sload(0x08)\n      dup2\n      jump\t// out\n        /* \"eth based/truffle/contracts/FLIR_Contract.sol\":483:503  uint public btc2 = 4 */\n    tag_32:\n      sload(0x07)\n      dup2\n      jump\t// out\n        /* \"eth based/truffle/contracts/FLIR_Contract.sol\":431:450  uint public btp = 3 */\n    tag_35:\n      sload(0x05)\n      dup2\n      jump\t// out\n        /* \"eth based/truffle/contracts/FLIR_Contract.sol\":369:383  uint public nP */\n    tag_38:\n      sload(0x02)\n      dup2\n      jump\t// out\n        /* \"eth based/truffle/contracts/FLIR_Contract.sol\":409:424  uint public nEV */\n    tag_41:\n      sload(0x04)\n      dup2\n      jump\t// out\n        /* \"eth based/truffle/contracts/FLIR_Contract.sol\":639:660  uint public btc8 = 10 */\n    tag_44:\n      sload(0x0d)\n      dup2\n      jump\t// out\n        /* \"eth based/truffle/contracts/FLIR_Contract.sol\":587:607  uint public btc6 = 8 */\n    tag_47:\n      sload(0x0b)\n      dup2\n      jump\t// out\n        /* \"eth based/truffle/contracts/FLIR_Contract.sol\":457:477  uint public btc1 = 3 */\n    tag_50:\n      sload(0x06)\n      dup2\n      jump\t// out\n        /* \"eth based/truffle/contracts/FLIR_Contract.sol\":613:633  uint public btc7 = 9 */\n    tag_53:\n      sload(0x0c)\n      dup2\n      jump\t// out\n        /* \"eth based/truffle/contracts/FLIR_Contract.sol\":673:949  function getnPnCnEV(uint nPget, uint nCget,uint nEVget) public{... */\n    tag_58:\n        /* \"eth based/truffle/contracts/FLIR_Contract.sol\":759:764  nPget */\n      dup3\n        /* \"eth based/truffle/contracts/FLIR_Contract.sol\":754:756  nP */\n      0x02\n        /* \"eth based/truffle/contracts/FLIR_Contract.sol\":754:764  nP = nPget */\n      dup2\n      swap1\n      sstore\n      pop\n        /* \"eth based/truffle/contracts/FLIR_Contract.sol\":779:784  nCget */\n      dup2\n        /* \"eth based/truffle/contracts/FLIR_Contract.sol\":774:776  nC */\n      0x03\n        /* \"eth based/truffle/contracts/FLIR_Contract.sol\":774:784  nC = nCget */\n      dup2\n      swap1\n      sstore\n      pop\n        /* \"eth based/truffle/contracts/FLIR_Contract.sol\":800:806  nEVget */\n      dup1\n        /* \"eth based/truffle/contracts/FLIR_Contract.sol\":794:797  nEV */\n      0x04\n        /* \"eth based/truffle/contracts/FLIR_Contract.sol\":794:806  nEV = nEVget */\n      dup2\n      swap1\n      sstore\n      pop\n        /* \"eth based/truffle/contracts/FLIR_Contract.sol\":816:841  console.log(\"NP = %s\",nP) */\n      tag_60\n      mload(0x40)\n      dup1\n      0x40\n      add\n      0x40\n      mstore\n      dup1\n      0x07\n      dup2\n      mstore\n      0x20\n      add\n      0x4e50203d20257300000000000000000000000000000000000000000000000000\n      dup2\n      mstore\n      pop\n        /* \"eth based/truffle/contracts/FLIR_Contract.sol\":838:840  nP */\n      sload(0x02)\n        /* \"eth based/truffle/contracts/FLIR_Contract.sol\":816:827  console.log */\n      tag_61\n        /* \"eth based/truffle/contracts/FLIR_Contract.sol\":816:841  console.log(\"NP = %s\",nP) */\n      jump\t// in\n    tag_60:\n        /* \"eth based/truffle/contracts/FLIR_Contract.sol\":851:876  console.log(\"NC = %s\",nC) */\n      tag_62\n      mload(0x40)\n      dup1\n      0x40\n      add\n      0x40\n      mstore\n      dup1\n      0x07\n      dup2\n      mstore\n      0x20\n      add\n      0x4e43203d20257300000000000000000000000000000000000000000000000000\n      dup2\n      mstore\n      pop\n        /* \"eth based/truffle/contracts/FLIR_Contract.sol\":873:875  nC */\n      sload(0x03)\n        /* \"eth based/truffle/contracts/FLIR_Contract.sol\":851:862  console.log */\n      tag_61\n        /* \"eth based/truffle/contracts/FLIR_Contract.sol\":851:876  console.log(\"NC = %s\",nC) */\n      jump\t// in\n    tag_62:\n        /* \"eth based/truffle/contracts/FLIR_Contract.sol\":886:913  console.log(\"NEV = %s\",nEV) */\n      tag_63\n      mload(0x40)\n      dup1\n      0x40\n      add\n      0x40\n      mstore\n      dup1\n      0x08\n      dup2\n      mstore\n      0x20\n      add\n      0x4e4556203d202573000000000000000000000000000000000000000000000000\n      dup2\n      mstore\n      pop\n        /* \"eth based/truffle/contracts/FLIR_Contract.sol\":909:912  nEV */\n      sload(0x04)\n        /* \"eth based/truffle/contracts/FLIR_Contract.sol\":886:897  console.log */\n      tag_61\n        /* \"eth based/truffle/contracts/FLIR_Contract.sol\":886:913  console.log(\"NEV = %s\",nEV) */\n      jump\t// in\n    tag_63:\n        /* \"eth based/truffle/contracts/FLIR_Contract.sol\":673:949  function getnPnCnEV(uint nPget, uint nCget,uint nEVget) public{... */\n      pop\n      pop\n      pop\n      jump\t// out\n        /* \"hardhat/console.sol\":5888:6018  function log(string memory p0, uint p1) internal view {... */\n    tag_61:\n        /* \"hardhat/console.sol\":5946:6014  _sendLogPayload(abi.encodeWithSignature(\"log(string,uint)\", p0, p1)) */\n      tag_65\n        /* \"hardhat/console.sol\":6006:6008  p0 */\n      dup3\n        /* \"hardhat/console.sol\":6010:6012  p1 */\n      dup3\n        /* \"hardhat/console.sol\":5962:6013  abi.encodeWithSignature(\"log(string,uint)\", p0, p1) */\n      add(0x24, mload(0x40))\n      tag_66\n      swap3\n      swap2\n      swap1\n      tag_67\n      jump\t// in\n    tag_66:\n      mload(0x40)\n      0x20\n      dup2\n      dup4\n      sub\n      sub\n      dup2\n      mstore\n      swap1\n      0x40\n      mstore\n      and(not(0xffffffffffffffffffffffffffffffffffffffffffffffffffffffff), 0x9710a9d000000000000000000000000000000000000000000000000000000000)\n      0x20\n      dup3\n      add\n      dup1\n      mload\n      0xffffffffffffffffffffffffffffffffffffffffffffffffffffffff\n      dup4\n      dup2\n      dup4\n      and\n      or\n      dup4\n      mstore\n      pop\n      pop\n      pop\n      pop\n        /* \"hardhat/console.sol\":5946:5961  _sendLogPayload */\n      tag_68\n        /* \"hardhat/console.sol\":5946:6014  _sendLogPayload(abi.encodeWithSignature(\"log(string,uint)\", p0, p1)) */\n      jump\t// in\n    tag_65:\n        /* \"hardhat/console.sol\":5888:6018  function log(string memory p0, uint p1) internal view {... */\n      pop\n      pop\n      jump\t// out\n        /* \"hardhat/console.sol\":176:464  function _sendLogPayload(bytes memory payload) private view {... */\n    tag_68:\n        /* \"hardhat/console.sol\":240:261  uint256 payloadLength */\n      0x00\n        /* \"hardhat/console.sol\":264:271  payload */\n      dup2\n        /* \"hardhat/console.sol\":264:278  payload.length */\n      mload\n        /* \"hardhat/console.sol\":240:278  uint256 payloadLength = payload.length */\n      swap1\n      pop\n        /* \"hardhat/console.sol\":282:304  address consoleAddress */\n      0x00\n        /* \"hardhat/console.sol\":129:171  0x000000000000000000636F6e736F6c652e6c6f67 */\n      0x636f6e736f6c652e6c6f67\n        /* \"hardhat/console.sol\":282:322  address consoleAddress = CONSOLE_ADDRESS */\n      swap1\n      pop\n        /* \"hardhat/console.sol\":373:375  32 */\n      0x20\n        /* \"hardhat/console.sol\":364:371  payload */\n      dup4\n        /* \"hardhat/console.sol\":360:376  add(payload, 32) */\n      add\n        /* \"hardhat/console.sol\":455:456  0 */\n      0x00\n        /* \"hardhat/console.sol\":452:453  0 */\n      dup1\n        /* \"hardhat/console.sol\":437:450  payloadLength */\n      dup5\n        /* \"hardhat/console.sol\":423:435  payloadStart */\n      dup4\n        /* \"hardhat/console.sol\":407:421  consoleAddress */\n      dup6\n        /* \"hardhat/console.sol\":400:405  gas() */\n      gas\n        /* \"hardhat/console.sol\":389:457  staticcall(gas(), consoleAddress, payloadStart, payloadLength, 0, 0) */\n      staticcall\n        /* \"hardhat/console.sol\":335:461  {... */\n      pop\n      pop\n      pop\n      pop\n        /* \"hardhat/console.sol\":176:464  function _sendLogPayload(bytes memory payload) private view {... */\n      pop\n      jump\t// out\n        /* \"#utility.yul\":7:146   */\n    tag_71:\n        /* \"#utility.yul\":53:58   */\n      0x00\n        /* \"#utility.yul\":91:97   */\n      dup2\n        /* \"#utility.yul\":78:98   */\n      calldataload\n        /* \"#utility.yul\":69:98   */\n      swap1\n      pop\n        /* \"#utility.yul\":107:140   */\n      tag_73\n        /* \"#utility.yul\":134:139   */\n      dup2\n        /* \"#utility.yul\":107:140   */\n      tag_74\n      jump\t// in\n    tag_73:\n        /* \"#utility.yul\":7:146   */\n      swap3\n      swap2\n      pop\n      pop\n      jump\t// out\n        /* \"#utility.yul\":152:771   */\n    tag_57:\n        /* \"#utility.yul\":229:235   */\n      0x00\n        /* \"#utility.yul\":237:243   */\n      dup1\n        /* \"#utility.yul\":245:251   */\n      0x00\n        /* \"#utility.yul\":294:296   */\n      0x60\n        /* \"#utility.yul\":282:291   */\n      dup5\n        /* \"#utility.yul\":273:280   */\n      dup7\n        /* \"#utility.yul\":269:292   */\n      sub\n        /* \"#utility.yul\":265:297   */\n      slt\n        /* \"#utility.yul\":262:381   */\n      iszero\n      tag_76\n      jumpi\n        /* \"#utility.yul\":300:379   */\n      tag_77\n      tag_78\n      jump\t// in\n    tag_77:\n        /* \"#utility.yul\":262:381   */\n    tag_76:\n        /* \"#utility.yul\":420:421   */\n      0x00\n        /* \"#utility.yul\":445:498   */\n      tag_79\n        /* \"#utility.yul\":490:497   */\n      dup7\n        /* \"#utility.yul\":481:487   */\n      dup3\n        /* \"#utility.yul\":470:479   */\n      dup8\n        /* \"#utility.yul\":466:488   */\n      add\n        /* \"#utility.yul\":445:498   */\n      tag_71\n      jump\t// in\n    tag_79:\n        /* \"#utility.yul\":435:498   */\n      swap4\n      pop\n        /* \"#utility.yul\":391:508   */\n      pop\n        /* \"#utility.yul\":547:549   */\n      0x20\n        /* \"#utility.yul\":573:626   */\n      tag_80\n        /* \"#utility.yul\":618:625   */\n      dup7\n        /* \"#utility.yul\":609:615   */\n      dup3\n        /* \"#utility.yul\":598:607   */\n      dup8\n        /* \"#utility.yul\":594:616   */\n      add\n        /* \"#utility.yul\":573:626   */\n      tag_71\n      jump\t// in\n    tag_80:\n        /* \"#utility.yul\":563:626   */\n      swap3\n      pop\n        /* \"#utility.yul\":518:636   */\n      pop\n        /* \"#utility.yul\":675:677   */\n      0x40\n        /* \"#utility.yul\":701:754   */\n      tag_81\n        /* \"#utility.yul\":746:753   */\n      dup7\n        /* \"#utility.yul\":737:743   */\n      dup3\n        /* \"#utility.yul\":726:735   */\n      dup8\n        /* \"#utility.yul\":722:744   */\n      add\n        /* \"#utility.yul\":701:754   */\n      tag_71\n      jump\t// in\n    tag_81:\n        /* \"#utility.yul\":691:754   */\n      swap2\n      pop\n        /* \"#utility.yul\":646:764   */\n      pop\n        /* \"#utility.yul\":152:771   */\n      swap3\n      pop\n      swap3\n      pop\n      swap3\n      jump\t// out\n        /* \"#utility.yul\":777:1141   */\n    tag_82:\n        /* \"#utility.yul\":865:868   */\n      0x00\n        /* \"#utility.yul\":893:932   */\n      tag_84\n        /* \"#utility.yul\":926:931   */\n      dup3\n        /* \"#utility.yul\":893:932   */\n      tag_85\n      jump\t// in\n    tag_84:\n        /* \"#utility.yul\":948:1019   */\n      tag_86\n        /* \"#utility.yul\":1012:1018   */\n      dup2\n        /* \"#utility.yul\":1007:1010   */\n      dup6\n        /* \"#utility.yul\":948:1019   */\n      tag_87\n      jump\t// in\n    tag_86:\n        /* \"#utility.yul\":941:1019   */\n      swap4\n      pop\n        /* \"#utility.yul\":1028:1080   */\n      tag_88\n        /* \"#utility.yul\":1073:1079   */\n      dup2\n        /* \"#utility.yul\":1068:1071   */\n      dup6\n        /* \"#utility.yul\":1061:1065   */\n      0x20\n        /* \"#utility.yul\":1054:1059   */\n      dup7\n        /* \"#utility.yul\":1050:1066   */\n      add\n        /* \"#utility.yul\":1028:1080   */\n      tag_89\n      jump\t// in\n    tag_88:\n        /* \"#utility.yul\":1105:1134   */\n      tag_90\n        /* \"#utility.yul\":1127:1133   */\n      dup2\n        /* \"#utility.yul\":1105:1134   */\n      tag_91\n      jump\t// in\n    tag_90:\n        /* \"#utility.yul\":1100:1103   */\n      dup5\n        /* \"#utility.yul\":1096:1135   */\n      add\n        /* \"#utility.yul\":1089:1135   */\n      swap2\n      pop\n        /* \"#utility.yul\":869:1141   */\n      pop\n        /* \"#utility.yul\":777:1141   */\n      swap3\n      swap2\n      pop\n      pop\n      jump\t// out\n        /* \"#utility.yul\":1147:1265   */\n    tag_92:\n        /* \"#utility.yul\":1234:1258   */\n      tag_94\n        /* \"#utility.yul\":1252:1257   */\n      dup2\n        /* \"#utility.yul\":1234:1258   */\n      tag_95\n      jump\t// in\n    tag_94:\n        /* \"#utility.yul\":1229:1232   */\n      dup3\n        /* \"#utility.yul\":1222:1259   */\n      mstore\n        /* \"#utility.yul\":1147:1265   */\n      pop\n      pop\n      jump\t// out\n        /* \"#utility.yul\":1271:1694   */\n    tag_67:\n        /* \"#utility.yul\":1412:1416   */\n      0x00\n        /* \"#utility.yul\":1450:1452   */\n      0x40\n        /* \"#utility.yul\":1439:1448   */\n      dup3\n        /* \"#utility.yul\":1435:1453   */\n      add\n        /* \"#utility.yul\":1427:1453   */\n      swap1\n      pop\n        /* \"#utility.yul\":1499:1508   */\n      dup2\n        /* \"#utility.yul\":1493:1497   */\n      dup2\n        /* \"#utility.yul\":1489:1509   */\n      sub\n        /* \"#utility.yul\":1485:1486   */\n      0x00\n        /* \"#utility.yul\":1474:1483   */\n      dup4\n        /* \"#utility.yul\":1470:1487   */\n      add\n        /* \"#utility.yul\":1463:1510   */\n      mstore\n        /* \"#utility.yul\":1527:1605   */\n      tag_97\n        /* \"#utility.yul\":1600:1604   */\n      dup2\n        /* \"#utility.yul\":1591:1597   */\n      dup6\n        /* \"#utility.yul\":1527:1605   */\n      tag_82\n      jump\t// in\n    tag_97:\n        /* \"#utility.yul\":1519:1605   */\n      swap1\n      pop\n        /* \"#utility.yul\":1615:1687   */\n      tag_98\n        /* \"#utility.yul\":1683:1685   */\n      0x20\n        /* \"#utility.yul\":1672:1681   */\n      dup4\n        /* \"#utility.yul\":1668:1686   */\n      add\n        /* \"#utility.yul\":1659:1665   */\n      dup5\n        /* \"#utility.yul\":1615:1687   */\n      tag_92\n      jump\t// in\n    tag_98:\n        /* \"#utility.yul\":1271:1694   */\n      swap4\n      swap3\n      pop\n      pop\n      pop\n      jump\t// out\n        /* \"#utility.yul\":1700:1922   */\n    tag_21:\n        /* \"#utility.yul\":1793:1797   */\n      0x00\n        /* \"#utility.yul\":1831:1833   */\n      0x20\n        /* \"#utility.yul\":1820:1829   */\n      dup3\n        /* \"#utility.yul\":1816:1834   */\n      add\n        /* \"#utility.yul\":1808:1834   */\n      swap1\n      pop\n        /* \"#utility.yul\":1844:1915   */\n      tag_100\n        /* \"#utility.yul\":1912:1913   */\n      0x00\n        /* \"#utility.yul\":1901:1910   */\n      dup4\n        /* \"#utility.yul\":1897:1914   */\n      add\n        /* \"#utility.yul\":1888:1894   */\n      dup5\n        /* \"#utility.yul\":1844:1915   */\n      tag_92\n      jump\t// in\n    tag_100:\n        /* \"#utility.yul\":1700:1922   */\n      swap3\n      swap2\n      pop\n      pop\n      jump\t// out\n        /* \"#utility.yul\":2009:2108   */\n    tag_85:\n        /* \"#utility.yul\":2061:2067   */\n      0x00\n        /* \"#utility.yul\":2095:2100   */\n      dup2\n        /* \"#utility.yul\":2089:2101   */\n      mload\n        /* \"#utility.yul\":2079:2101   */\n      swap1\n      pop\n        /* \"#utility.yul\":2009:2108   */\n      swap2\n      swap1\n      pop\n      jump\t// out\n        /* \"#utility.yul\":2114:2283   */\n    tag_87:\n        /* \"#utility.yul\":2198:2209   */\n      0x00\n        /* \"#utility.yul\":2232:2238   */\n      dup3\n        /* \"#utility.yul\":2227:2230   */\n      dup3\n        /* \"#utility.yul\":2220:2239   */\n      mstore\n        /* \"#utility.yul\":2272:2276   */\n      0x20\n        /* \"#utility.yul\":2267:2270   */\n      dup3\n        /* \"#utility.yul\":2263:2277   */\n      add\n        /* \"#utility.yul\":2248:2277   */\n      swap1\n      pop\n        /* \"#utility.yul\":2114:2283   */\n      swap3\n      swap2\n      pop\n      pop\n      jump\t// out\n        /* \"#utility.yul\":2289:2366   */\n    tag_95:\n        /* \"#utility.yul\":2326:2333   */\n      0x00\n        /* \"#utility.yul\":2355:2360   */\n      dup2\n        /* \"#utility.yul\":2344:2360   */\n      swap1\n      pop\n        /* \"#utility.yul\":2289:2366   */\n      swap2\n      swap1\n      pop\n      jump\t// out\n        /* \"#utility.yul\":2372:2679   */\n    tag_89:\n        /* \"#utility.yul\":2440:2441   */\n      0x00\n        /* \"#utility.yul\":2450:2563   */\n    tag_107:\n        /* \"#utility.yul\":2464:2470   */\n      dup4\n        /* \"#utility.yul\":2461:2462   */\n      dup2\n        /* \"#utility.yul\":2458:2471   */\n      lt\n        /* \"#utility.yul\":2450:2563   */\n      iszero\n      tag_109\n      jumpi\n        /* \"#utility.yul\":2549:2550   */\n      dup1\n        /* \"#utility.yul\":2544:2547   */\n      dup3\n        /* \"#utility.yul\":2540:2551   */\n      add\n        /* \"#utility.yul\":2534:2552   */\n      mload\n        /* \"#utility.yul\":2530:2531   */\n      dup2\n        /* \"#utility.yul\":2525:2528   */\n      dup5\n        /* \"#utility.yul\":2521:2532   */\n      add\n        /* \"#utility.yul\":2514:2553   */\n      mstore\n        /* \"#utility.yul\":2486:2488   */\n      0x20\n        /* \"#utility.yul\":2483:2484   */\n      dup2\n        /* \"#utility.yul\":2479:2489   */\n      add\n        /* \"#utility.yul\":2474:2489   */\n      swap1\n      pop\n        /* \"#utility.yul\":2450:2563   */\n      jump(tag_107)\n    tag_109:\n        /* \"#utility.yul\":2581:2587   */\n      dup4\n        /* \"#utility.yul\":2578:2579   */\n      dup2\n        /* \"#utility.yul\":2575:2588   */\n      gt\n        /* \"#utility.yul\":2572:2673   */\n      iszero\n      tag_110\n      jumpi\n        /* \"#utility.yul\":2661:2662   */\n      0x00\n        /* \"#utility.yul\":2652:2658   */\n      dup5\n        /* \"#utility.yul\":2647:2650   */\n      dup5\n        /* \"#utility.yul\":2643:2659   */\n      add\n        /* \"#utility.yul\":2636:2663   */\n      mstore\n        /* \"#utility.yul\":2572:2673   */\n    tag_110:\n        /* \"#utility.yul\":2421:2679   */\n      pop\n        /* \"#utility.yul\":2372:2679   */\n      pop\n      pop\n      pop\n      jump\t// out\n        /* \"#utility.yul\":2808:2925   */\n    tag_78:\n        /* \"#utility.yul\":2917:2918   */\n      0x00\n        /* \"#utility.yul\":2914:2915   */\n      dup1\n        /* \"#utility.yul\":2907:2919   */\n      revert\n        /* \"#utility.yul\":2931:3033   */\n    tag_91:\n        /* \"#utility.yul\":2972:2978   */\n      0x00\n        /* \"#utility.yul\":3023:3025   */\n      0x1f\n        /* \"#utility.yul\":3019:3026   */\n      not\n        /* \"#utility.yul\":3014:3016   */\n      0x1f\n        /* \"#utility.yul\":3007:3012   */\n      dup4\n        /* \"#utility.yul\":3003:3017   */\n      add\n        /* \"#utility.yul\":2999:3027   */\n      and\n        /* \"#utility.yul\":2989:3027   */\n      swap1\n      pop\n        /* \"#utility.yul\":2931:3033   */\n      swap2\n      swap1\n      pop\n      jump\t// out\n        /* \"#utility.yul\":3039:3161   */\n    tag_74:\n        /* \"#utility.yul\":3112:3136   */\n      tag_116\n        /* \"#utility.yul\":3130:3135   */\n      dup2\n        /* \"#utility.yul\":3112:3136   */\n      tag_95\n      jump\t// in\n    tag_116:\n        /* \"#utility.yul\":3105:3110   */\n      dup2\n        /* \"#utility.yul\":3102:3137   */\n      eq\n        /* \"#utility.yul\":3092:3155   */\n      tag_117\n      jumpi\n        /* \"#utility.yul\":3151:3152   */\n      0x00\n        /* \"#utility.yul\":3148:3149   */\n      dup1\n        /* \"#utility.yul\":3141:3153   */\n      revert\n        /* \"#utility.yul\":3092:3155   */\n    tag_117:\n        /* \"#utility.yul\":3039:3161   */\n      pop\n      jump\t// out\n\n    auxdata: 0xa2646970667358221220b86c95189d34ce1e5a3a9a2cb868484225a4e11b8827406432246f7b7577923a64736f6c63430008070033\n}\n",
				"bytecode": {
					"linkReferences": {},
					"object": "6080604052600360055560036006556004600755600560085560066009556007600a556008600b556009600c55600a600d5534801561003d57600080fd5b506105f98061004d6000396000f3fe608060405234801561001057600080fd5b50600436106100cf5760003560e01c80635b6e3cf01161008c578063b4ad7fa911610066578063b4ad7fa9146101e2578063c2c496ec14610200578063ed2fa5ab1461021e578063f02e48c31461023c576100cf565b80635b6e3cf0146101885780637c3084cc146101a6578063a8bdb68b146101c4576100cf565b806303100155146100d45780630c03a1a3146100f2578063103347e71461011057806320e731a11461012e57806328780a441461014c5780632c9af64c1461016a575b600080fd5b6100dc610258565b6040516100e99190610522565b60405180910390f35b6100fa61025e565b6040516101079190610522565b60405180910390f35b610118610264565b6040516101259190610522565b60405180910390f35b61013661026a565b6040516101439190610522565b60405180910390f35b610154610270565b6040516101619190610522565b60405180910390f35b610172610276565b60405161017f9190610522565b60405180910390f35b61019061027c565b60405161019d9190610522565b60405180910390f35b6101ae610282565b6040516101bb9190610522565b60405180910390f35b6101cc610288565b6040516101d99190610522565b60405180910390f35b6101ea61028e565b6040516101f79190610522565b60405180910390f35b610208610294565b6040516102159190610522565b60405180910390f35b61022661029a565b6040516102339190610522565b60405180910390f35b61025660048036038101906102519190610457565b6102a0565b005b60035481565b600a5481565b60095481565b60085481565b60075481565b60055481565b60025481565b60045481565b600d5481565b600b5481565b60065481565b600c5481565b8260028190555081600381905550806004819055506102f66040518060400160405280600781526020017f4e50203d2025730000000000000000000000000000000000000000000000000081525060025461037d565b6103376040518060400160405280600781526020017f4e43203d2025730000000000000000000000000000000000000000000000000081525060035461037d565b6103786040518060400160405280600881526020017f4e4556203d20257300000000000000000000000000000000000000000000000081525060045461037d565b505050565b61041582826040516024016103939291906104f2565b6040516020818303038152906040527f9710a9d0000000000000000000000000000000000000000000000000000000007bffffffffffffffffffffffffffffffffffffffffffffffffffffffff19166020820180517bffffffffffffffffffffffffffffffffffffffffffffffffffffffff8381831617835250505050610419565b5050565b60008151905060006a636f6e736f6c652e6c6f679050602083016000808483855afa5050505050565b600081359050610451816105ac565b92915050565b6000806000606084860312156104705761046f610596565b5b600061047e86828701610442565b935050602061048f86828701610442565b92505060406104a086828701610442565b9150509250925092565b60006104b58261053d565b6104bf8185610548565b93506104cf818560208601610563565b6104d88161059b565b840191505092915050565b6104ec81610559565b82525050565b6000604082019050818103600083015261050c81856104aa565b905061051b60208301846104e3565b9392505050565b600060208201905061053760008301846104e3565b92915050565b600081519050919050565b600082825260208201905092915050565b6000819050919050565b60005b83811015610581578082015181840152602081019050610566565b83811115610590576000848401525b50505050565b600080fd5b6000601f19601f8301169050919050565b6105b581610559565b81146105c057600080fd5b5056fea2646970667358221220b86c95189d34ce1e5a3a9a2cb868484225a4e11b8827406432246f7b7577923a64736f6c63430008070033",
					"opcodes": "PUSH1 0x80 PUSH1 0x40 MSTORE PUSH1 0x3 PUSH1 0x5 SSTORE PUSH1 0x3 PUSH1 0x6 SSTORE PUSH1 0x4 PUSH1 0x7 SSTORE PUSH1 0x5 PUSH1 0x8 SSTORE PUSH1 0x6 PUSH1 0x9 SSTORE PUSH1 0x7 PUSH1 0xA SSTORE PUSH1 0x8 PUSH1 0xB SSTORE PUSH1 0x9 PUSH1 0xC SSTORE PUSH1 0xA PUSH1 0xD SSTORE CALLVALUE DUP1 ISZERO PUSH2 0x3D JUMPI PUSH1 0x0 DUP1 REVERT JUMPDEST POP PUSH2 0x5F9 DUP1 PUSH2 0x4D PUSH1 0x0 CODECOPY PUSH1 0x0 RETURN INVALID PUSH1 0x80 PUSH1 0x40 MSTORE CALLVALUE DUP1 ISZERO PUSH2 0x10 JUMPI PUSH1 0x0 DUP1 REVERT JUMPDEST POP PUSH1 0x4 CALLDATASIZE LT PUSH2 0xCF JUMPI PUSH1 0x0 CALLDATALOAD PUSH1 0xE0 SHR DUP1 PUSH4 0x5B6E3CF0 GT PUSH2 0x8C JUMPI DUP1 PUSH4 0xB4AD7FA9 GT PUSH2 0x66 JUMPI DUP1 PUSH4 0xB4AD7FA9 EQ PUSH2 0x1E2 JUMPI DUP1 PUSH4 0xC2C496EC EQ PUSH2 0x200 JUMPI DUP1 PUSH4 0xED2FA5AB EQ PUSH2 0x21E JUMPI DUP1 PUSH4 0xF02E48C3 EQ PUSH2 0x23C JUMPI PUSH2 0xCF JUMP JUMPDEST DUP1 PUSH4 0x5B6E3CF0 EQ PUSH2 0x188 JUMPI DUP1 PUSH4 0x7C3084CC EQ PUSH2 0x1A6 JUMPI DUP1 PUSH4 0xA8BDB68B EQ PUSH2 0x1C4 JUMPI PUSH2 0xCF JUMP JUMPDEST DUP1 PUSH4 0x3100155 EQ PUSH2 0xD4 JUMPI DUP1 PUSH4 0xC03A1A3 EQ PUSH2 0xF2 JUMPI DUP1 PUSH4 0x103347E7 EQ PUSH2 0x110 JUMPI DUP1 PUSH4 0x20E731A1 EQ PUSH2 0x12E JUMPI DUP1 PUSH4 0x28780A44 EQ PUSH2 0x14C JUMPI DUP1 PUSH4 0x2C9AF64C EQ PUSH2 0x16A JUMPI JUMPDEST PUSH1 0x0 DUP1 REVERT JUMPDEST PUSH2 0xDC PUSH2 0x258 JUMP JUMPDEST PUSH1 0x40 MLOAD PUSH2 0xE9 SWAP2 SWAP1 PUSH2 0x522 JUMP JUMPDEST PUSH1 0x40 MLOAD DUP1 SWAP2 SUB SWAP1 RETURN JUMPDEST PUSH2 0xFA PUSH2 0x25E JUMP JUMPDEST PUSH1 0x40 MLOAD PUSH2 0x107 SWAP2 SWAP1 PUSH2 0x522 JUMP JUMPDEST PUSH1 0x40 MLOAD DUP1 SWAP2 SUB SWAP1 RETURN JUMPDEST PUSH2 0x118 PUSH2 0x264 JUMP JUMPDEST PUSH1 0x40 MLOAD PUSH2 0x125 SWAP2 SWAP1 PUSH2 0x522 JUMP JUMPDEST PUSH1 0x40 MLOAD DUP1 SWAP2 SUB SWAP1 RETURN JUMPDEST PUSH2 0x136 PUSH2 0x26A JUMP JUMPDEST PUSH1 0x40 MLOAD PUSH2 0x143 SWAP2 SWAP1 PUSH2 0x522 JUMP JUMPDEST PUSH1 0x40 MLOAD DUP1 SWAP2 SUB SWAP1 RETURN JUMPDEST PUSH2 0x154 PUSH2 0x270 JUMP JUMPDEST PUSH1 0x40 MLOAD PUSH2 0x161 SWAP2 SWAP1 PUSH2 0x522 JUMP JUMPDEST PUSH1 0x40 MLOAD DUP1 SWAP2 SUB SWAP1 RETURN JUMPDEST PUSH2 0x172 PUSH2 0x276 JUMP JUMPDEST PUSH1 0x40 MLOAD PUSH2 0x17F SWAP2 SWAP1 PUSH2 0x522 JUMP JUMPDEST PUSH1 0x40 MLOAD DUP1 SWAP2 SUB SWAP1 RETURN JUMPDEST PUSH2 0x190 PUSH2 0x27C JUMP JUMPDEST PUSH1 0x40 MLOAD PUSH2 0x19D SWAP2 SWAP1 PUSH2 0x522 JUMP JUMPDEST PUSH1 0x40 MLOAD DUP1 SWAP2 SUB SWAP1 RETURN JUMPDEST PUSH2 0x1AE PUSH2 0x282 JUMP JUMPDEST PUSH1 0x40 MLOAD PUSH2 0x1BB SWAP2 SWAP1 PUSH2 0x522 JUMP JUMPDEST PUSH1 0x40 MLOAD DUP1 SWAP2 SUB SWAP1 RETURN JUMPDEST PUSH2 0x1CC PUSH2 0x288 JUMP JUMPDEST PUSH1 0x40 MLOAD PUSH2 0x1D9 SWAP2 SWAP1 PUSH2 0x522 JUMP JUMPDEST PUSH1 0x40 MLOAD DUP1 SWAP2 SUB SWAP1 RETURN JUMPDEST PUSH2 0x1EA PUSH2 0x28E JUMP JUMPDEST PUSH1 0x40 MLOAD PUSH2 0x1F7 SWAP2 SWAP1 PUSH2 0x522 JUMP JUMPDEST PUSH1 0x40 MLOAD DUP1 SWAP2 SUB SWAP1 RETURN JUMPDEST PUSH2 0x208 PUSH2 0x294 JUMP JUMPDEST PUSH1 0x40 MLOAD PUSH2 0x215 SWAP2 SWAP1 PUSH2 0x522 JUMP JUMPDEST PUSH1 0x40 MLOAD DUP1 SWAP2 SUB SWAP1 RETURN JUMPDEST PUSH2 0x226 PUSH2 0x29A JUMP JUMPDEST PUSH1 0x40 MLOAD PUSH2 0x233 SWAP2 SWAP1 PUSH2 0x522 JUMP JUMPDEST PUSH1 0x40 MLOAD DUP1 SWAP2 SUB SWAP1 RETURN JUMPDEST PUSH2 0x256 PUSH1 0x4 DUP1 CALLDATASIZE SUB DUP2 ADD SWAP1 PUSH2 0x251 SWAP2 SWAP1 PUSH2 0x457 JUMP JUMPDEST PUSH2 0x2A0 JUMP JUMPDEST STOP JUMPDEST PUSH1 0x3 SLOAD DUP2 JUMP JUMPDEST PUSH1 0xA SLOAD DUP2 JUMP JUMPDEST PUSH1 0x9 SLOAD DUP2 JUMP JUMPDEST PUSH1 0x8 SLOAD DUP2 JUMP JUMPDEST PUSH1 0x7 SLOAD DUP2 JUMP JUMPDEST PUSH1 0x5 SLOAD DUP2 JUMP JUMPDEST PUSH1 0x2 SLOAD DUP2 JUMP JUMPDEST PUSH1 0x4 SLOAD DUP2 JUMP JUMPDEST PUSH1 0xD SLOAD DUP2 JUMP JUMPDEST PUSH1 0xB SLOAD DUP2 JUMP JUMPDEST PUSH1 0x6 SLOAD DUP2 JUMP JUMPDEST PUSH1 0xC SLOAD DUP2 JUMP JUMPDEST DUP3 PUSH1 0x2 DUP2 SWAP1 SSTORE POP DUP2 PUSH1 0x3 DUP2 SWAP1 SSTORE POP DUP1 PUSH1 0x4 DUP2 SWAP1 SSTORE POP PUSH2 0x2F6 PUSH1 0x40 MLOAD DUP1 PUSH1 0x40 ADD PUSH1 0x40 MSTORE DUP1 PUSH1 0x7 DUP2 MSTORE PUSH1 0x20 ADD PUSH32 0x4E50203D20257300000000000000000000000000000000000000000000000000 DUP2 MSTORE POP PUSH1 0x2 SLOAD PUSH2 0x37D JUMP JUMPDEST PUSH2 0x337 PUSH1 0x40 MLOAD DUP1 PUSH1 0x40 ADD PUSH1 0x40 MSTORE DUP1 PUSH1 0x7 DUP2 MSTORE PUSH1 0x20 ADD PUSH32 0x4E43203D20257300000000000000000000000000000000000000000000000000 DUP2 MSTORE POP PUSH1 0x3 SLOAD PUSH2 0x37D JUMP JUMPDEST PUSH2 0x378 PUSH1 0x40 MLOAD DUP1 PUSH1 0x40 ADD PUSH1 0x40 MSTORE DUP1 PUSH1 0x8 DUP2 MSTORE PUSH1 0x20 ADD PUSH32 0x4E4556203D202573000000000000000000000000000000000000000000000000 DUP2 MSTORE POP PUSH1 0x4 SLOAD PUSH2 0x37D JUMP JUMPDEST POP POP POP JUMP JUMPDEST PUSH2 0x415 DUP3 DUP3 PUSH1 0x40 MLOAD PUSH1 0x24 ADD PUSH2 0x393 SWAP3 SWAP2 SWAP1 PUSH2 0x4F2 JUMP JUMPDEST PUSH1 0x40 MLOAD PUSH1 0x20 DUP2 DUP4 SUB SUB DUP2 MSTORE SWAP1 PUSH1 0x40 MSTORE PUSH32 0x9710A9D000000000000000000000000000000000000000000000000000000000 PUSH28 0xFFFFFFFFFFFFFFFFFFFFFFFFFFFFFFFFFFFFFFFFFFFFFFFFFFFFFFFF NOT AND PUSH1 0x20 DUP3 ADD DUP1 MLOAD PUSH28 0xFFFFFFFFFFFFFFFFFFFFFFFFFFFFFFFFFFFFFFFFFFFFFFFFFFFFFFFF DUP4 DUP2 DUP4 AND OR DUP4 MSTORE POP POP POP POP PUSH2 0x419 JUMP JUMPDEST POP POP JUMP JUMPDEST PUSH1 0x0 DUP2 MLOAD SWAP1 POP PUSH1 0x0 PUSH11 0x636F6E736F6C652E6C6F67 SWAP1 POP PUSH1 0x20 DUP4 ADD PUSH1 0x0 DUP1 DUP5 DUP4 DUP6 GAS STATICCALL POP POP POP POP POP JUMP JUMPDEST PUSH1 0x0 DUP2 CALLDATALOAD SWAP1 POP PUSH2 0x451 DUP2 PUSH2 0x5AC JUMP JUMPDEST SWAP3 SWAP2 POP POP JUMP JUMPDEST PUSH1 0x0 DUP1 PUSH1 0x0 PUSH1 0x60 DUP5 DUP7 SUB SLT ISZERO PUSH2 0x470 JUMPI PUSH2 0x46F PUSH2 0x596 JUMP JUMPDEST JUMPDEST PUSH1 0x0 PUSH2 0x47E DUP7 DUP3 DUP8 ADD PUSH2 0x442 JUMP JUMPDEST SWAP4 POP POP PUSH1 0x20 PUSH2 0x48F DUP7 DUP3 DUP8 ADD PUSH2 0x442 JUMP JUMPDEST SWAP3 POP POP PUSH1 0x40 PUSH2 0x4A0 DUP7 DUP3 DUP8 ADD PUSH2 0x442 JUMP JUMPDEST SWAP2 POP POP SWAP3 POP SWAP3 POP SWAP3 JUMP JUMPDEST PUSH1 0x0 PUSH2 0x4B5 DUP3 PUSH2 0x53D JUMP JUMPDEST PUSH2 0x4BF DUP2 DUP6 PUSH2 0x548 JUMP JUMPDEST SWAP4 POP PUSH2 0x4CF DUP2 DUP6 PUSH1 0x20 DUP7 ADD PUSH2 0x563 JUMP JUMPDEST PUSH2 0x4D8 DUP2 PUSH2 0x59B JUMP JUMPDEST DUP5 ADD SWAP2 POP POP SWAP3 SWAP2 POP POP JUMP JUMPDEST PUSH2 0x4EC DUP2 PUSH2 0x559 JUMP JUMPDEST DUP3 MSTORE POP POP JUMP JUMPDEST PUSH1 0x0 PUSH1 0x40 DUP3 ADD SWAP1 POP DUP2 DUP2 SUB PUSH1 0x0 DUP4 ADD MSTORE PUSH2 0x50C DUP2 DUP6 PUSH2 0x4AA JUMP JUMPDEST SWAP1 POP PUSH2 0x51B PUSH1 0x20 DUP4 ADD DUP5 PUSH2 0x4E3 JUMP JUMPDEST SWAP4 SWAP3 POP POP POP JUMP JUMPDEST PUSH1 0x0 PUSH1 0x20 DUP3 ADD SWAP1 POP PUSH2 0x537 PUSH1 0x0 DUP4 ADD DUP5 PUSH2 0x4E3 JUMP JUMPDEST SWAP3 SWAP2 POP POP JUMP JUMPDEST PUSH1 0x0 DUP2 MLOAD SWAP1 POP SWAP2 SWAP1 POP JUMP JUMPDEST PUSH1 0x0 DUP3 DUP3 MSTORE PUSH1 0x20 DUP3 ADD SWAP1 POP SWAP3 SWAP2 POP POP JUMP JUMPDEST PUSH1 0x0 DUP2 SWAP1 POP SWAP2 SWAP1 POP JUMP JUMPDEST PUSH1 0x0 JUMPDEST DUP4 DUP2 LT ISZERO PUSH2 0x581 JUMPI DUP1 DUP3 ADD MLOAD DUP2 DUP5 ADD MSTORE PUSH1 0x20 DUP2 ADD SWAP1 POP PUSH2 0x566 JUMP JUMPDEST DUP4 DUP2 GT ISZERO PUSH2 0x590 JUMPI PUSH1 0x0 DUP5 DUP5 ADD MSTORE JUMPDEST POP POP POP POP JUMP JUMPDEST PUSH1 0x0 DUP1 REVERT JUMPDEST PUSH1 0x0 PUSH1 0x1F NOT PUSH1 0x1F DUP4 ADD AND SWAP1 POP SWAP2 SWAP1 POP JUMP JUMPDEST PUSH2 0x5B5 DUP2 PUSH2 0x559 JUMP JUMPDEST DUP2 EQ PUSH2 0x5C0 JUMPI PUSH1 0x0 DUP1 REVERT JUMPDEST POP JUMP INVALID LOG2 PUSH5 0x6970667358 0x22 SLT KECCAK256 0xB8 PUSH13 0x95189D34CE1E5A3A9A2CB86848 TIMESTAMP 0x25 LOG4 0xE1 SHL DUP9 0x27 BLOCKHASH PUSH5 0x32246F7B75 PUSH24 0x923A64736F6C634300080700330000000000000000000000 "
				},
				"gasEstimates": {
					"creation": {
						"codeDepositCost": "305800",
						"executionCost": "199297",
						"totalCost": "505097"
					},
					"external": {
						"btc1()": "2473",
						"btc2()": "2518",
						"btc3()": "2496",
						"btc4()": "2474",
						"btc5()": "2452",
						"btc6()": "2451",
						"btc7()": "2495",
						"btc8()": "2496",
						"btp()": "2540",
						"getnPnCnEV(uint256,uint256,uint256)": "infinite",
						"nC()": "2430",
						"nEV()": "2474",
						"nP()": "2452"
					}
				},
				"methodIdentifiers": {
					"btc1()": "c2c496ec",
					"btc2()": "28780a44",
					"btc3()": "20e731a1",
					"btc4()": "103347e7",
					"btc5()": "0c03a1a3",
					"btc6()": "b4ad7fa9",
					"btc7()": "ed2fa5ab",
					"btc8()": "a8bdb68b",
					"btp()": "2c9af64c",
					"getnPnCnEV(uint256,uint256,uint256)": "f02e48c3",
					"nC()": "03100155",
					"nEV()": "7c3084cc",
					"nP()": "5b6e3cf0"
				}
			},
			"storageLayout": {
				"storage": [
					{
						"astId": 5,
						"contract": "eth based/truffle/contracts/FLIR_Contract.sol:FLIRContract",
						"label": "balaces",
						"offset": 0,
						"slot": "0",
						"type": "t_mapping(t_address,t_uint256)"
					},
					{
						"astId": 10,
						"contract": "eth based/truffle/contracts/FLIR_Contract.sol:FLIRContract",
						"label": "roles",
						"offset": 0,
						"slot": "1",
						"type": "t_mapping(t_address,t_enum(role)15)"
					},
					{
						"astId": 17,
						"contract": "eth based/truffle/contracts/FLIR_Contract.sol:FLIRContract",
						"label": "nP",
						"offset": 0,
						"slot": "2",
						"type": "t_uint256"
					},
					{
						"astId": 19,
						"contract": "eth based/truffle/contracts/FLIR_Contract.sol:FLIRContract",
						"label": "nC",
						"offset": 0,
						"slot": "3",
						"type": "t_uint256"
					},
					{
						"astId": 21,
						"contract": "eth based/truffle/contracts/FLIR_Contract.sol:FLIRContract",
						"label": "nEV",
						"offset": 0,
						"slot": "4",
						"type": "t_uint256"
					},
					{
						"astId": 24,
						"contract": "eth based/truffle/contracts/FLIR_Contract.sol:FLIRContract",
						"label": "btp",
						"offset": 0,
						"slot": "5",
						"type": "t_uint256"
					},
					{
						"astId": 27,
						"contract": "eth based/truffle/contracts/FLIR_Contract.sol:FLIRContract",
						"label": "btc1",
						"offset": 0,
						"slot": "6",
						"type": "t_uint256"
					},
					{
						"astId": 30,
						"contract": "eth based/truffle/contracts/FLIR_Contract.sol:FLIRContract",
						"label": "btc2",
						"offset": 0,
						"slot": "7",
						"type": "t_uint256"
					},
					{
						"astId": 33,
						"contract": "eth based/truffle/contracts/FLIR_Contract.sol:FLIRContract",
						"label": "btc3",
						"offset": 0,
						"slot": "8",
						"type": "t_uint256"
					},
					{
						"astId": 36,
						"contract": "eth based/truffle/contracts/FLIR_Contract.sol:FLIRContract",
						"label": "btc4",
						"offset": 0,
						"slot": "9",
						"type": "t_uint256"
					},
					{
						"astId": 39,
						"contract": "eth based/truffle/contracts/FLIR_Contract.sol:FLIRContract",
						"label": "btc5",
						"offset": 0,
						"slot": "10",
						"type": "t_uint256"
					},
					{
						"astId": 42,
						"contract": "eth based/truffle/contracts/FLIR_Contract.sol:FLIRContract",
						"label": "btc6",
						"offset": 0,
						"slot": "11",
						"type": "t_uint256"
					},
					{
						"astId": 45,
						"contract": "eth based/truffle/contracts/FLIR_Contract.sol:FLIRContract",
						"label": "btc7",
						"offset": 0,
						"slot": "12",
						"type": "t_uint256"
					},
					{
						"astId": 48,
						"contract": "eth based/truffle/contracts/FLIR_Contract.sol:FLIRContract",
						"label": "btc8",
						"offset": 0,
						"slot": "13",
						"type": "t_uint256"
					}
				],
				"types": {
					"t_address": {
						"encoding": "inplace",
						"label": "address",
						"numberOfBytes": "20"
					},
					"t_enum(role)15": {
						"encoding": "inplace",
						"label": "enum FLIRContract.role",
						"numberOfBytes": "1"
					},
					"t_mapping(t_address,t_enum(role)15)": {
						"encoding": "mapping",
						"key": "t_address",
						"label": "mapping(address => enum FLIRContract.role)",
						"numberOfBytes": "32",
						"value": "t_enum(role)15"
					},
					"t_mapping(t_address,t_uint256)": {
						"encoding": "mapping",
						"key": "t_address",
						"label": "mapping(address => uint256)",
						"numberOfBytes": "32",
						"value": "t_uint256"
					},
					"t_uint256": {
						"encoding": "inplace",
						"label": "uint256",
						"numberOfBytes": "32"
					}
				}
			},
			"userdoc": {
				"kind": "user",
				"methods": {},
				"version": 1
			}
		}
	}
}