{
	"eth based/truffle/contracts/FLIR_Contract.sol": {
		"FLIRContract": {
			"abi": [
				{
					"inputs": [],
					"name": "balCheck",
					"outputs": [],
					"stateMutability": "payable",
					"type": "function"
				},
				{
					"inputs": [],
					"name": "balance",
					"outputs": [
						{
							"internalType": "uint256",
							"name": "",
							"type": "uint256"
						}
					],
					"stateMutability": "view",
					"type": "function"
				},
				{
					"inputs": [],
					"name": "btc1",
					"outputs": [
						{
							"internalType": "uint256",
							"name": "",
							"type": "uint256"
						}
					],
					"stateMutability": "view",
					"type": "function"
				},
				{
					"inputs": [],
					"name": "btc2",
					"outputs": [
						{
							"internalType": "uint256",
							"name": "",
							"type": "uint256"
						}
					],
					"stateMutability": "view",
					"type": "function"
				},
				{
					"inputs": [],
					"name": "btc3",
					"outputs": [
						{
							"internalType": "uint256",
							"name": "",
							"type": "uint256"
						}
					],
					"stateMutability": "view",
					"type": "function"
				},
				{
					"inputs": [],
					"name": "btc4",
					"outputs": [
						{
							"internalType": "uint256",
							"name": "",
							"type": "uint256"
						}
					],
					"stateMutability": "view",
					"type": "function"
				},
				{
					"inputs": [],
					"name": "btc5",
					"outputs": [
						{
							"internalType": "uint256",
							"name": "",
							"type": "uint256"
						}
					],
					"stateMutability": "view",
					"type": "function"
				},
				{
					"inputs": [],
					"name": "btc6",
					"outputs": [
						{
							"internalType": "uint256",
							"name": "",
							"type": "uint256"
						}
					],
					"stateMutability": "view",
					"type": "function"
				},
				{
					"inputs": [],
					"name": "btc7",
					"outputs": [
						{
							"internalType": "uint256",
							"name": "",
							"type": "uint256"
						}
					],
					"stateMutability": "view",
					"type": "function"
				},
				{
					"inputs": [],
					"name": "btc8",
					"outputs": [
						{
							"internalType": "uint256",
							"name": "",
							"type": "uint256"
						}
					],
					"stateMutability": "view",
					"type": "function"
				},
				{
					"inputs": [],
					"name": "btp",
					"outputs": [
						{
							"internalType": "uint256",
							"name": "",
							"type": "uint256"
						}
					],
					"stateMutability": "view",
					"type": "function"
				},
				{
					"inputs": [
						{
							"internalType": "uint256",
							"name": "",
							"type": "uint256"
						}
					],
					"name": "buyers",
					"outputs": [
						{
							"internalType": "address",
							"name": "",
							"type": "address"
						}
					],
					"stateMutability": "view",
					"type": "function"
				},
				{
					"inputs": [
						{
							"internalType": "address",
							"name": "_balanceCheck",
							"type": "address"
						}
					],
					"name": "getBalance",
					"outputs": [
						{
							"internalType": "uint256",
							"name": "bal",
							"type": "uint256"
						}
					],
					"stateMutability": "nonpayable",
					"type": "function"
				},
				{
					"inputs": [
						{
							"internalType": "uint256",
							"name": "Cimp",
							"type": "uint256"
						}
					],
					"name": "getConsumerTariff",
					"outputs": [
						{
							"internalType": "uint256",
							"name": "Tc",
							"type": "uint256"
						}
					],
					"stateMutability": "nonpayable",
					"type": "function"
				},
				{
					"inputs": [
						{
							"internalType": "uint256",
							"name": "Pexp",
							"type": "uint256"
						}
					],
					"name": "getProsumerTariff",
					"outputs": [
						{
							"internalType": "uint256",
							"name": "Tp",
							"type": "uint256"
						}
					],
					"stateMutability": "nonpayable",
					"type": "function"
				},
				{
					"inputs": [
						{
							"internalType": "uint256",
							"name": "nPget",
							"type": "uint256"
						},
						{
							"internalType": "uint256",
							"name": "nCget",
							"type": "uint256"
						},
						{
							"internalType": "uint256",
							"name": "nEVget",
							"type": "uint256"
						}
					],
					"name": "getnPnCnEV",
					"outputs": [
						{
							"internalType": "uint256",
							"name": "nP",
							"type": "uint256"
						},
						{
							"internalType": "uint256",
							"name": "nC",
							"type": "uint256"
						},
						{
							"internalType": "uint256",
							"name": "nEV",
							"type": "uint256"
						}
					],
					"stateMutability": "nonpayable",
					"type": "function"
				},
				{
					"inputs": [],
					"name": "manager",
					"outputs": [
						{
							"internalType": "address",
							"name": "",
							"type": "address"
						}
					],
					"stateMutability": "view",
					"type": "function"
				},
				{
					"inputs": [],
					"name": "owner",
					"outputs": [
						{
							"internalType": "address",
							"name": "",
							"type": "address"
						}
					],
					"stateMutability": "view",
					"type": "function"
				},
				{
					"inputs": [
						{
							"internalType": "uint256",
							"name": "",
							"type": "uint256"
						}
					],
					"name": "seller",
					"outputs": [
						{
							"internalType": "address",
							"name": "",
							"type": "address"
						}
					],
					"stateMutability": "view",
					"type": "function"
				},
				{
					"inputs": [
						{
							"internalType": "uint256",
							"name": "nPget",
							"type": "uint256"
						}
					],
					"name": "sellerID",
					"outputs": [
						{
							"internalType": "uint256",
							"name": "",
							"type": "uint256"
						}
					],
					"stateMutability": "nonpayable",
					"type": "function"
				},
				{
					"inputs": [
						{
							"internalType": "address payable",
							"name": "_receiver",
							"type": "address"
						},
						{
							"internalType": "uint256",
							"name": "amount",
							"type": "uint256"
						}
					],
					"name": "send",
					"outputs": [],
					"stateMutability": "payable",
					"type": "function"
				}
			],
			"devdoc": {
				"kind": "dev",
				"methods": {},
				"version": 1
			},
			"evm": {
				"assembly": "    /* \"eth based/truffle/contracts/FLIR_Contract.sol\":129:4133  contract FLIRContract{... */\n  mstore(0x40, 0x80)\n    /* \"eth based/truffle/contracts/FLIR_Contract.sol\":780:781  0 */\n  0x00\n    /* \"eth based/truffle/contracts/FLIR_Contract.sol\":758:781  uint public balance = 0 */\n  0x16\n  sstore\n    /* \"eth based/truffle/contracts/FLIR_Contract.sol\":946:947  3 */\n  0x03\n    /* \"eth based/truffle/contracts/FLIR_Contract.sol\":928:947  uint public btp = 3 */\n  0x17\n  sstore\n    /* \"eth based/truffle/contracts/FLIR_Contract.sol\":973:974  3 */\n  0x03\n    /* \"eth based/truffle/contracts/FLIR_Contract.sol\":954:974  uint public btc1 = 3 */\n  0x18\n  sstore\n    /* \"eth based/truffle/contracts/FLIR_Contract.sol\":999:1000  4 */\n  0x04\n    /* \"eth based/truffle/contracts/FLIR_Contract.sol\":980:1000  uint public btc2 = 4 */\n  0x19\n  sstore\n    /* \"eth based/truffle/contracts/FLIR_Contract.sol\":1025:1026  5 */\n  0x05\n    /* \"eth based/truffle/contracts/FLIR_Contract.sol\":1006:1026  uint public btc3 = 5 */\n  0x1a\n  sstore\n    /* \"eth based/truffle/contracts/FLIR_Contract.sol\":1051:1052  6 */\n  0x06\n    /* \"eth based/truffle/contracts/FLIR_Contract.sol\":1032:1052  uint public btc4 = 6 */\n  0x1b\n  sstore\n    /* \"eth based/truffle/contracts/FLIR_Contract.sol\":1077:1078  7 */\n  0x07\n    /* \"eth based/truffle/contracts/FLIR_Contract.sol\":1058:1078  uint public btc5 = 7 */\n  0x1c\n  sstore\n    /* \"eth based/truffle/contracts/FLIR_Contract.sol\":1103:1104  8 */\n  0x08\n    /* \"eth based/truffle/contracts/FLIR_Contract.sol\":1084:1104  uint public btc6 = 8 */\n  0x1d\n  sstore\n    /* \"eth based/truffle/contracts/FLIR_Contract.sol\":1129:1130  9 */\n  0x09\n    /* \"eth based/truffle/contracts/FLIR_Contract.sol\":1110:1130  uint public btc7 = 9 */\n  0x1e\n  sstore\n    /* \"eth based/truffle/contracts/FLIR_Contract.sol\":1155:1157  10 */\n  0x0a\n    /* \"eth based/truffle/contracts/FLIR_Contract.sol\":1136:1157  uint public btc8 = 10 */\n  0x1f\n  sstore\n    /* \"eth based/truffle/contracts/FLIR_Contract.sol\":129:4133  contract FLIRContract{... */\n  callvalue\n  dup1\n  iszero\n  tag_1\n  jumpi\n  0x00\n  dup1\n  revert\ntag_1:\n  pop\n  dataSize(sub_0)\n  dup1\n  dataOffset(sub_0)\n  0x00\n  codecopy\n  0x00\n  return\nstop\n\nsub_0: assembly {\n        /* \"eth based/truffle/contracts/FLIR_Contract.sol\":129:4133  contract FLIRContract{... */\n      mstore(0x40, 0x80)\n      jumpi(tag_1, lt(calldatasize, 0x04))\n      shr(0xe0, calldataload(0x00))\n      dup1\n      0x8da5cb5b\n      gt\n      tag_23\n      jumpi\n      dup1\n      0xc2c496ec\n      gt\n      tag_24\n      jumpi\n      dup1\n      0xc2c496ec\n      eq\n      tag_17\n      jumpi\n      dup1\n      0xd0679d34\n      eq\n      tag_18\n      jumpi\n      dup1\n      0xed2fa5ab\n      eq\n      tag_19\n      jumpi\n      dup1\n      0xf02e48c3\n      eq\n      tag_20\n      jumpi\n      dup1\n      0xf2aa8218\n      eq\n      tag_21\n      jumpi\n      dup1\n      0xf8b2cb4f\n      eq\n      tag_22\n      jumpi\n      jump(tag_1)\n    tag_24:\n      dup1\n      0x8da5cb5b\n      eq\n      tag_12\n      jumpi\n      dup1\n      0xa8bdb68b\n      eq\n      tag_13\n      jumpi\n      dup1\n      0xaacdfe6f\n      eq\n      tag_14\n      jumpi\n      dup1\n      0xb4ad7fa9\n      eq\n      tag_15\n      jumpi\n      dup1\n      0xb69ef8a8\n      eq\n      tag_16\n      jumpi\n      jump(tag_1)\n    tag_23:\n      dup1\n      0x354f58c0\n      gt\n      tag_25\n      jumpi\n      dup1\n      0x354f58c0\n      eq\n      tag_7\n      jumpi\n      dup1\n      0x481c6a75\n      eq\n      tag_8\n      jumpi\n      dup1\n      0x5c8f6b56\n      eq\n      tag_9\n      jumpi\n      dup1\n      0x721028ec\n      eq\n      tag_10\n      jumpi\n      dup1\n      0x7c134b14\n      eq\n      tag_11\n      jumpi\n      jump(tag_1)\n    tag_25:\n      dup1\n      0x0c03a1a3\n      eq\n      tag_2\n      jumpi\n      dup1\n      0x103347e7\n      eq\n      tag_3\n      jumpi\n      dup1\n      0x20e731a1\n      eq\n      tag_4\n      jumpi\n      dup1\n      0x28780a44\n      eq\n      tag_5\n      jumpi\n      dup1\n      0x2c9af64c\n      eq\n      tag_6\n      jumpi\n    tag_1:\n      0x00\n      dup1\n      revert\n        /* \"eth based/truffle/contracts/FLIR_Contract.sol\":1058:1078  uint public btc5 = 7 */\n    tag_2:\n      callvalue\n      dup1\n      iszero\n      tag_26\n      jumpi\n      0x00\n      dup1\n      revert\n    tag_26:\n      pop\n      tag_27\n      tag_28\n      jump\t// in\n    tag_27:\n      mload(0x40)\n      tag_29\n      swap2\n      swap1\n      tag_30\n      jump\t// in\n    tag_29:\n      mload(0x40)\n      dup1\n      swap2\n      sub\n      swap1\n      return\n        /* \"eth based/truffle/contracts/FLIR_Contract.sol\":1032:1052  uint public btc4 = 6 */\n    tag_3:\n      callvalue\n      dup1\n      iszero\n      tag_31\n      jumpi\n      0x00\n      dup1\n      revert\n    tag_31:\n      pop\n      tag_32\n      tag_33\n      jump\t// in\n    tag_32:\n      mload(0x40)\n      tag_34\n      swap2\n      swap1\n      tag_30\n      jump\t// in\n    tag_34:\n      mload(0x40)\n      dup1\n      swap2\n      sub\n      swap1\n      return\n        /* \"eth based/truffle/contracts/FLIR_Contract.sol\":1006:1026  uint public btc3 = 5 */\n    tag_4:\n      callvalue\n      dup1\n      iszero\n      tag_35\n      jumpi\n      0x00\n      dup1\n      revert\n    tag_35:\n      pop\n      tag_36\n      tag_37\n      jump\t// in\n    tag_36:\n      mload(0x40)\n      tag_38\n      swap2\n      swap1\n      tag_30\n      jump\t// in\n    tag_38:\n      mload(0x40)\n      dup1\n      swap2\n      sub\n      swap1\n      return\n        /* \"eth based/truffle/contracts/FLIR_Contract.sol\":980:1000  uint public btc2 = 4 */\n    tag_5:\n      callvalue\n      dup1\n      iszero\n      tag_39\n      jumpi\n      0x00\n      dup1\n      revert\n    tag_39:\n      pop\n      tag_40\n      tag_41\n      jump\t// in\n    tag_40:\n      mload(0x40)\n      tag_42\n      swap2\n      swap1\n      tag_30\n      jump\t// in\n    tag_42:\n      mload(0x40)\n      dup1\n      swap2\n      sub\n      swap1\n      return\n        /* \"eth based/truffle/contracts/FLIR_Contract.sol\":928:947  uint public btp = 3 */\n    tag_6:\n      callvalue\n      dup1\n      iszero\n      tag_43\n      jumpi\n      0x00\n      dup1\n      revert\n    tag_43:\n      pop\n      tag_44\n      tag_45\n      jump\t// in\n    tag_44:\n      mload(0x40)\n      tag_46\n      swap2\n      swap1\n      tag_30\n      jump\t// in\n    tag_46:\n      mload(0x40)\n      dup1\n      swap2\n      sub\n      swap1\n      return\n        /* \"eth based/truffle/contracts/FLIR_Contract.sol\":1164:1334  function sellerID(uint nPget) public returns (uint) {... */\n    tag_7:\n      callvalue\n      dup1\n      iszero\n      tag_47\n      jumpi\n      0x00\n      dup1\n      revert\n    tag_47:\n      pop\n      tag_48\n      0x04\n      dup1\n      calldatasize\n      sub\n      dup2\n      add\n      swap1\n      tag_49\n      swap2\n      swap1\n      tag_50\n      jump\t// in\n    tag_49:\n      tag_51\n      jump\t// in\n    tag_48:\n      mload(0x40)\n      tag_52\n      swap2\n      swap1\n      tag_30\n      jump\t// in\n    tag_52:\n      mload(0x40)\n      dup1\n      swap2\n      sub\n      swap1\n      return\n        /* \"eth based/truffle/contracts/FLIR_Contract.sol\":182:204  address public manager */\n    tag_8:\n      callvalue\n      dup1\n      iszero\n      tag_53\n      jumpi\n      0x00\n      dup1\n      revert\n    tag_53:\n      pop\n      tag_54\n      tag_55\n      jump\t// in\n    tag_54:\n      mload(0x40)\n      tag_56\n      swap2\n      swap1\n      tag_57\n      jump\t// in\n    tag_56:\n      mload(0x40)\n      dup1\n      swap2\n      sub\n      swap1\n      return\n        /* \"eth based/truffle/contracts/FLIR_Contract.sol\":1674:1789  function getProsumerTariff(uint Pexp) public returns (uint Tp){... */\n    tag_9:\n      callvalue\n      dup1\n      iszero\n      tag_58\n      jumpi\n      0x00\n      dup1\n      revert\n    tag_58:\n      pop\n      tag_59\n      0x04\n      dup1\n      calldatasize\n      sub\n      dup2\n      add\n      swap1\n      tag_60\n      swap2\n      swap1\n      tag_50\n      jump\t// in\n    tag_60:\n      tag_61\n      jump\t// in\n    tag_59:\n      mload(0x40)\n      tag_62\n      swap2\n      swap1\n      tag_30\n      jump\t// in\n    tag_62:\n      mload(0x40)\n      dup1\n      swap2\n      sub\n      swap1\n      return\n        /* \"eth based/truffle/contracts/FLIR_Contract.sol\":1795:2785  function getConsumerTariff(uint Cimp) public returns (uint Tc){... */\n    tag_10:\n      callvalue\n      dup1\n      iszero\n      tag_63\n      jumpi\n      0x00\n      dup1\n      revert\n    tag_63:\n      pop\n      tag_64\n      0x04\n      dup1\n      calldatasize\n      sub\n      dup2\n      add\n      swap1\n      tag_65\n      swap2\n      swap1\n      tag_50\n      jump\t// in\n    tag_65:\n      tag_66\n      jump\t// in\n    tag_64:\n      mload(0x40)\n      tag_67\n      swap2\n      swap1\n      tag_30\n      jump\t// in\n    tag_67:\n      mload(0x40)\n      dup1\n      swap2\n      sub\n      swap1\n      return\n        /* \"eth based/truffle/contracts/FLIR_Contract.sol\":3000:3068  function balCheck() public payable {... */\n    tag_11:\n      tag_68\n      tag_69\n      jump\t// in\n    tag_68:\n      stop\n        /* \"eth based/truffle/contracts/FLIR_Contract.sol\":156:176  address public owner */\n    tag_12:\n      callvalue\n      dup1\n      iszero\n      tag_70\n      jumpi\n      0x00\n      dup1\n      revert\n    tag_70:\n      pop\n      tag_71\n      tag_72\n      jump\t// in\n    tag_71:\n      mload(0x40)\n      tag_73\n      swap2\n      swap1\n      tag_57\n      jump\t// in\n    tag_73:\n      mload(0x40)\n      dup1\n      swap2\n      sub\n      swap1\n      return\n        /* \"eth based/truffle/contracts/FLIR_Contract.sol\":1136:1157  uint public btc8 = 10 */\n    tag_13:\n      callvalue\n      dup1\n      iszero\n      tag_74\n      jumpi\n      0x00\n      dup1\n      revert\n    tag_74:\n      pop\n      tag_75\n      tag_76\n      jump\t// in\n    tag_75:\n      mload(0x40)\n      tag_77\n      swap2\n      swap1\n      tag_30\n      jump\t// in\n    tag_77:\n      mload(0x40)\n      dup1\n      swap2\n      sub\n      swap1\n      return\n        /* \"eth based/truffle/contracts/FLIR_Contract.sol\":210:235  address[10] public seller */\n    tag_14:\n      callvalue\n      dup1\n      iszero\n      tag_78\n      jumpi\n      0x00\n      dup1\n      revert\n    tag_78:\n      pop\n      tag_79\n      0x04\n      dup1\n      calldatasize\n      sub\n      dup2\n      add\n      swap1\n      tag_80\n      swap2\n      swap1\n      tag_50\n      jump\t// in\n    tag_80:\n      tag_81\n      jump\t// in\n    tag_79:\n      mload(0x40)\n      tag_82\n      swap2\n      swap1\n      tag_57\n      jump\t// in\n    tag_82:\n      mload(0x40)\n      dup1\n      swap2\n      sub\n      swap1\n      return\n        /* \"eth based/truffle/contracts/FLIR_Contract.sol\":1084:1104  uint public btc6 = 8 */\n    tag_15:\n      callvalue\n      dup1\n      iszero\n      tag_83\n      jumpi\n      0x00\n      dup1\n      revert\n    tag_83:\n      pop\n      tag_84\n      tag_85\n      jump\t// in\n    tag_84:\n      mload(0x40)\n      tag_86\n      swap2\n      swap1\n      tag_30\n      jump\t// in\n    tag_86:\n      mload(0x40)\n      dup1\n      swap2\n      sub\n      swap1\n      return\n        /* \"eth based/truffle/contracts/FLIR_Contract.sol\":758:781  uint public balance = 0 */\n    tag_16:\n      callvalue\n      dup1\n      iszero\n      tag_87\n      jumpi\n      0x00\n      dup1\n      revert\n    tag_87:\n      pop\n      tag_88\n      tag_89\n      jump\t// in\n    tag_88:\n      mload(0x40)\n      tag_90\n      swap2\n      swap1\n      tag_30\n      jump\t// in\n    tag_90:\n      mload(0x40)\n      dup1\n      swap2\n      sub\n      swap1\n      return\n        /* \"eth based/truffle/contracts/FLIR_Contract.sol\":954:974  uint public btc1 = 3 */\n    tag_17:\n      callvalue\n      dup1\n      iszero\n      tag_91\n      jumpi\n      0x00\n      dup1\n      revert\n    tag_91:\n      pop\n      tag_92\n      tag_93\n      jump\t// in\n    tag_92:\n      mload(0x40)\n      tag_94\n      swap2\n      swap1\n      tag_30\n      jump\t// in\n    tag_94:\n      mload(0x40)\n      dup1\n      swap2\n      sub\n      swap1\n      return\n        /* \"eth based/truffle/contracts/FLIR_Contract.sol\":2791:2994  function send(address payable _receiver, uint amount) payable public {... */\n    tag_18:\n      tag_95\n      0x04\n      dup1\n      calldatasize\n      sub\n      dup2\n      add\n      swap1\n      tag_96\n      swap2\n      swap1\n      tag_97\n      jump\t// in\n    tag_96:\n      tag_98\n      jump\t// in\n    tag_95:\n      stop\n        /* \"eth based/truffle/contracts/FLIR_Contract.sol\":1110:1130  uint public btc7 = 9 */\n    tag_19:\n      callvalue\n      dup1\n      iszero\n      tag_99\n      jumpi\n      0x00\n      dup1\n      revert\n    tag_99:\n      pop\n      tag_100\n      tag_101\n      jump\t// in\n    tag_100:\n      mload(0x40)\n      tag_102\n      swap2\n      swap1\n      tag_30\n      jump\t// in\n    tag_102:\n      mload(0x40)\n      dup1\n      swap2\n      sub\n      swap1\n      return\n        /* \"eth based/truffle/contracts/FLIR_Contract.sol\":1345:1668  function getnPnCnEV(uint nPget, uint nCget,uint nEVget) public... */\n    tag_20:\n      callvalue\n      dup1\n      iszero\n      tag_103\n      jumpi\n      0x00\n      dup1\n      revert\n    tag_103:\n      pop\n      tag_104\n      0x04\n      dup1\n      calldatasize\n      sub\n      dup2\n      add\n      swap1\n      tag_105\n      swap2\n      swap1\n      tag_106\n      jump\t// in\n    tag_105:\n      tag_107\n      jump\t// in\n    tag_104:\n      mload(0x40)\n      tag_108\n      swap4\n      swap3\n      swap2\n      swap1\n      tag_109\n      jump\t// in\n    tag_108:\n      mload(0x40)\n      dup1\n      swap2\n      sub\n      swap1\n      return\n        /* \"eth based/truffle/contracts/FLIR_Contract.sol\":241:266  address[10] public buyers */\n    tag_21:\n      callvalue\n      dup1\n      iszero\n      tag_110\n      jumpi\n      0x00\n      dup1\n      revert\n    tag_110:\n      pop\n      tag_111\n      0x04\n      dup1\n      calldatasize\n      sub\n      dup2\n      add\n      swap1\n      tag_112\n      swap2\n      swap1\n      tag_50\n      jump\t// in\n    tag_112:\n      tag_113\n      jump\t// in\n    tag_111:\n      mload(0x40)\n      tag_114\n      swap2\n      swap1\n      tag_57\n      jump\t// in\n    tag_114:\n      mload(0x40)\n      dup1\n      swap2\n      sub\n      swap1\n      return\n        /* \"eth based/truffle/contracts/FLIR_Contract.sol\":3074:3209  function getBalance(address _balanceCheck) public returns (uint bal){... */\n    tag_22:\n      callvalue\n      dup1\n      iszero\n      tag_115\n      jumpi\n      0x00\n      dup1\n      revert\n    tag_115:\n      pop\n      tag_116\n      0x04\n      dup1\n      calldatasize\n      sub\n      dup2\n      add\n      swap1\n      tag_117\n      swap2\n      swap1\n      tag_118\n      jump\t// in\n    tag_117:\n      tag_119\n      jump\t// in\n    tag_116:\n      mload(0x40)\n      tag_120\n      swap2\n      swap1\n      tag_30\n      jump\t// in\n    tag_120:\n      mload(0x40)\n      dup1\n      swap2\n      sub\n      swap1\n      return\n        /* \"eth based/truffle/contracts/FLIR_Contract.sol\":1058:1078  uint public btc5 = 7 */\n    tag_28:\n      sload(0x1c)\n      dup2\n      jump\t// out\n        /* \"eth based/truffle/contracts/FLIR_Contract.sol\":1032:1052  uint public btc4 = 6 */\n    tag_33:\n      sload(0x1b)\n      dup2\n      jump\t// out\n        /* \"eth based/truffle/contracts/FLIR_Contract.sol\":1006:1026  uint public btc3 = 5 */\n    tag_37:\n      sload(0x1a)\n      dup2\n      jump\t// out\n        /* \"eth based/truffle/contracts/FLIR_Contract.sol\":980:1000  uint public btc2 = 4 */\n    tag_41:\n      sload(0x19)\n      dup2\n      jump\t// out\n        /* \"eth based/truffle/contracts/FLIR_Contract.sol\":928:947  uint public btp = 3 */\n    tag_45:\n      sload(0x17)\n      dup2\n      jump\t// out\n        /* \"eth based/truffle/contracts/FLIR_Contract.sol\":1164:1334  function sellerID(uint nPget) public returns (uint) {... */\n    tag_51:\n        /* \"eth based/truffle/contracts/FLIR_Contract.sol\":1210:1214  uint */\n      0x00\n        /* \"eth based/truffle/contracts/FLIR_Contract.sol\":1295:1305  msg.sender */\n      caller\n        /* \"eth based/truffle/contracts/FLIR_Contract.sol\":1279:1285  seller */\n      0x02\n        /* \"eth based/truffle/contracts/FLIR_Contract.sol\":1286:1291  nPget */\n      dup4\n        /* \"eth based/truffle/contracts/FLIR_Contract.sol\":1279:1292  seller[nPget] */\n      0x0a\n      dup2\n      lt\n      tag_122\n      jumpi\n      tag_123\n      tag_124\n      jump\t// in\n    tag_123:\n    tag_122:\n      add\n      0x00\n        /* \"eth based/truffle/contracts/FLIR_Contract.sol\":1279:1305  seller[nPget] = msg.sender */\n      0x0100\n      exp\n      dup2\n      sload\n      dup2\n      0xffffffffffffffffffffffffffffffffffffffff\n      mul\n      not\n      and\n      swap1\n      dup4\n      0xffffffffffffffffffffffffffffffffffffffff\n      and\n      mul\n      or\n      swap1\n      sstore\n      pop\n        /* \"eth based/truffle/contracts/FLIR_Contract.sol\":1322:1327  nPget */\n      dup2\n        /* \"eth based/truffle/contracts/FLIR_Contract.sol\":1315:1327  return nPget */\n      swap1\n      pop\n        /* \"eth based/truffle/contracts/FLIR_Contract.sol\":1164:1334  function sellerID(uint nPget) public returns (uint) {... */\n      swap2\n      swap1\n      pop\n      jump\t// out\n        /* \"eth based/truffle/contracts/FLIR_Contract.sol\":182:204  address public manager */\n    tag_55:\n      0x01\n      0x00\n      swap1\n      sload\n      swap1\n      0x0100\n      exp\n      swap1\n      div\n      0xffffffffffffffffffffffffffffffffffffffff\n      and\n      dup2\n      jump\t// out\n        /* \"eth based/truffle/contracts/FLIR_Contract.sol\":1674:1789  function getProsumerTariff(uint Pexp) public returns (uint Tp){... */\n    tag_61:\n        /* \"eth based/truffle/contracts/FLIR_Contract.sol\":1728:1735  uint Tp */\n      0x00\n        /* \"eth based/truffle/contracts/FLIR_Contract.sol\":1758:1761  btp */\n      sload(0x17)\n        /* \"eth based/truffle/contracts/FLIR_Contract.sol\":1751:1755  Pexp */\n      dup3\n        /* \"eth based/truffle/contracts/FLIR_Contract.sol\":1751:1761  Pexp * btp */\n      tag_127\n      swap2\n      swap1\n      tag_128\n      jump\t// in\n    tag_127:\n        /* \"eth based/truffle/contracts/FLIR_Contract.sol\":1746:1761  Tp = Pexp * btp */\n      swap1\n      pop\n        /* \"eth based/truffle/contracts/FLIR_Contract.sol\":1674:1789  function getProsumerTariff(uint Pexp) public returns (uint Tp){... */\n      swap2\n      swap1\n      pop\n      jump\t// out\n        /* \"eth based/truffle/contracts/FLIR_Contract.sol\":1795:2785  function getConsumerTariff(uint Cimp) public returns (uint Tc){... */\n    tag_66:\n        /* \"eth based/truffle/contracts/FLIR_Contract.sol\":1849:1856  uint Tc */\n      0x00\n        /* \"eth based/truffle/contracts/FLIR_Contract.sol\":1886:1889  251 */\n      0xfb\n        /* \"eth based/truffle/contracts/FLIR_Contract.sol\":1879:1883  Cimp */\n      dup3\n        /* \"eth based/truffle/contracts/FLIR_Contract.sol\":1879:1889  Cimp < 251 */\n      lt\n        /* \"eth based/truffle/contracts/FLIR_Contract.sol\":1876:2758  if(Cimp < 251){... */\n      iszero\n      tag_130\n      jumpi\n        /* \"eth based/truffle/contracts/FLIR_Contract.sol\":1914:1916  51 */\n      0x33\n        /* \"eth based/truffle/contracts/FLIR_Contract.sol\":1907:1911  Cimp */\n      dup3\n        /* \"eth based/truffle/contracts/FLIR_Contract.sol\":1907:1916  Cimp < 51 */\n      lt\n        /* \"eth based/truffle/contracts/FLIR_Contract.sol\":1904:2513  if(Cimp < 51){... */\n      iszero\n      tag_131\n      jumpi\n        /* \"eth based/truffle/contracts/FLIR_Contract.sol\":1947:1951  btc1 */\n      sload(0x18)\n        /* \"eth based/truffle/contracts/FLIR_Contract.sol\":1940:1944  Cimp */\n      dup3\n        /* \"eth based/truffle/contracts/FLIR_Contract.sol\":1940:1951  Cimp * btc1 */\n      tag_132\n      swap2\n      swap1\n      tag_128\n      jump\t// in\n    tag_132:\n        /* \"eth based/truffle/contracts/FLIR_Contract.sol\":1935:1951  Tc = Cimp * btc1 */\n      swap1\n      pop\n        /* \"eth based/truffle/contracts/FLIR_Contract.sol\":1904:2513  if(Cimp < 51){... */\n      jump(tag_133)\n    tag_131:\n        /* \"eth based/truffle/contracts/FLIR_Contract.sol\":1994:1996  50 */\n      0x32\n        /* \"eth based/truffle/contracts/FLIR_Contract.sol\":1987:1991  Cimp */\n      dup3\n        /* \"eth based/truffle/contracts/FLIR_Contract.sol\":1987:1996  Cimp > 50 */\n      gt\n        /* \"eth based/truffle/contracts/FLIR_Contract.sol\":1987:2010  Cimp > 50 && Cimp < 101 */\n      dup1\n      iszero\n      tag_134\n      jumpi\n      pop\n        /* \"eth based/truffle/contracts/FLIR_Contract.sol\":2007:2010  101 */\n      0x65\n        /* \"eth based/truffle/contracts/FLIR_Contract.sol\":2000:2004  Cimp */\n      dup3\n        /* \"eth based/truffle/contracts/FLIR_Contract.sol\":2000:2010  Cimp < 101 */\n      lt\n        /* \"eth based/truffle/contracts/FLIR_Contract.sol\":1987:2010  Cimp > 50 && Cimp < 101 */\n    tag_134:\n        /* \"eth based/truffle/contracts/FLIR_Contract.sol\":1984:2513  if(Cimp > 50 && Cimp < 101){... */\n      iszero\n      tag_135\n      jumpi\n        /* \"eth based/truffle/contracts/FLIR_Contract.sol\":2061:2065  btc2 */\n      sload(0x19)\n        /* \"eth based/truffle/contracts/FLIR_Contract.sol\":2055:2057  50 */\n      0x32\n        /* \"eth based/truffle/contracts/FLIR_Contract.sol\":2050:2054  Cimp */\n      dup4\n        /* \"eth based/truffle/contracts/FLIR_Contract.sol\":2050:2057  Cimp-50 */\n      tag_136\n      swap2\n      swap1\n      tag_137\n      jump\t// in\n    tag_136:\n        /* \"eth based/truffle/contracts/FLIR_Contract.sol\":2049:2065  (Cimp-50) * btc2 */\n      tag_138\n      swap2\n      swap1\n      tag_128\n      jump\t// in\n    tag_138:\n        /* \"eth based/truffle/contracts/FLIR_Contract.sol\":2040:2044  btc1 */\n      sload(0x18)\n        /* \"eth based/truffle/contracts/FLIR_Contract.sol\":2035:2037  50 */\n      0x32\n        /* \"eth based/truffle/contracts/FLIR_Contract.sol\":2035:2044  50 * btc1 */\n      tag_139\n      swap2\n      swap1\n      tag_128\n      jump\t// in\n    tag_139:\n        /* \"eth based/truffle/contracts/FLIR_Contract.sol\":2034:2066  (50 * btc1) + ((Cimp-50) * btc2) */\n      tag_140\n      swap2\n      swap1\n      tag_141\n      jump\t// in\n    tag_140:\n        /* \"eth based/truffle/contracts/FLIR_Contract.sol\":2029:2066  Tc = (50 * btc1) + ((Cimp-50) * btc2) */\n      swap1\n      pop\n        /* \"eth based/truffle/contracts/FLIR_Contract.sol\":1984:2513  if(Cimp > 50 && Cimp < 101){... */\n      jump(tag_142)\n    tag_135:\n        /* \"eth based/truffle/contracts/FLIR_Contract.sol\":2109:2112  100 */\n      0x64\n        /* \"eth based/truffle/contracts/FLIR_Contract.sol\":2102:2106  Cimp */\n      dup3\n        /* \"eth based/truffle/contracts/FLIR_Contract.sol\":2102:2112  Cimp > 100 */\n      gt\n        /* \"eth based/truffle/contracts/FLIR_Contract.sol\":2102:2126  Cimp > 100 && Cimp < 151 */\n      dup1\n      iszero\n      tag_143\n      jumpi\n      pop\n        /* \"eth based/truffle/contracts/FLIR_Contract.sol\":2123:2126  151 */\n      0x97\n        /* \"eth based/truffle/contracts/FLIR_Contract.sol\":2116:2120  Cimp */\n      dup3\n        /* \"eth based/truffle/contracts/FLIR_Contract.sol\":2116:2126  Cimp < 151 */\n      lt\n        /* \"eth based/truffle/contracts/FLIR_Contract.sol\":2102:2126  Cimp > 100 && Cimp < 151 */\n    tag_143:\n        /* \"eth based/truffle/contracts/FLIR_Contract.sol\":2099:2513  if(Cimp > 100 && Cimp < 151){... */\n      iszero\n      tag_144\n      jumpi\n        /* \"eth based/truffle/contracts/FLIR_Contract.sol\":2191:2195  btc3 */\n      sload(0x1a)\n        /* \"eth based/truffle/contracts/FLIR_Contract.sol\":2185:2187  50 */\n      0x32\n        /* \"eth based/truffle/contracts/FLIR_Contract.sol\":2180:2184  Cimp */\n      dup4\n        /* \"eth based/truffle/contracts/FLIR_Contract.sol\":2180:2187  Cimp-50 */\n      tag_145\n      swap2\n      swap1\n      tag_137\n      jump\t// in\n    tag_145:\n        /* \"eth based/truffle/contracts/FLIR_Contract.sol\":2179:2195  (Cimp-50) * btc3 */\n      tag_146\n      swap2\n      swap1\n      tag_128\n      jump\t// in\n    tag_146:\n        /* \"eth based/truffle/contracts/FLIR_Contract.sol\":2170:2174  btc2 */\n      sload(0x19)\n        /* \"eth based/truffle/contracts/FLIR_Contract.sol\":2165:2167  50 */\n      0x32\n        /* \"eth based/truffle/contracts/FLIR_Contract.sol\":2165:2174  50 * btc2 */\n      tag_147\n      swap2\n      swap1\n      tag_128\n      jump\t// in\n    tag_147:\n        /* \"eth based/truffle/contracts/FLIR_Contract.sol\":2156:2160  btc1 */\n      sload(0x18)\n        /* \"eth based/truffle/contracts/FLIR_Contract.sol\":2151:2153  50 */\n      0x32\n        /* \"eth based/truffle/contracts/FLIR_Contract.sol\":2151:2160  50 * btc1 */\n      tag_148\n      swap2\n      swap1\n      tag_128\n      jump\t// in\n    tag_148:\n        /* \"eth based/truffle/contracts/FLIR_Contract.sol\":2150:2175  (50 * btc1) + (50 * btc2) */\n      tag_149\n      swap2\n      swap1\n      tag_141\n      jump\t// in\n    tag_149:\n        /* \"eth based/truffle/contracts/FLIR_Contract.sol\":2150:2196  (50 * btc1) + (50 * btc2) + ((Cimp-50) * btc3) */\n      tag_150\n      swap2\n      swap1\n      tag_141\n      jump\t// in\n    tag_150:\n        /* \"eth based/truffle/contracts/FLIR_Contract.sol\":2145:2196  Tc = (50 * btc1) + (50 * btc2) + ((Cimp-50) * btc3) */\n      swap1\n      pop\n        /* \"eth based/truffle/contracts/FLIR_Contract.sol\":2099:2513  if(Cimp > 100 && Cimp < 151){... */\n      jump(tag_151)\n    tag_144:\n        /* \"eth based/truffle/contracts/FLIR_Contract.sol\":2239:2242  150 */\n      0x96\n        /* \"eth based/truffle/contracts/FLIR_Contract.sol\":2232:2236  Cimp */\n      dup3\n        /* \"eth based/truffle/contracts/FLIR_Contract.sol\":2232:2242  Cimp > 150 */\n      gt\n        /* \"eth based/truffle/contracts/FLIR_Contract.sol\":2232:2256  Cimp > 150 && Cimp < 201 */\n      dup1\n      iszero\n      tag_152\n      jumpi\n      pop\n        /* \"eth based/truffle/contracts/FLIR_Contract.sol\":2253:2256  201 */\n      0xc9\n        /* \"eth based/truffle/contracts/FLIR_Contract.sol\":2246:2250  Cimp */\n      dup3\n        /* \"eth based/truffle/contracts/FLIR_Contract.sol\":2246:2256  Cimp < 201 */\n      lt\n        /* \"eth based/truffle/contracts/FLIR_Contract.sol\":2232:2256  Cimp > 150 && Cimp < 201 */\n    tag_152:\n        /* \"eth based/truffle/contracts/FLIR_Contract.sol\":2229:2513  if(Cimp > 150 && Cimp < 201){... */\n      iszero\n      tag_153\n      jumpi\n        /* \"eth based/truffle/contracts/FLIR_Contract.sol\":2335:2339  btc4 */\n      sload(0x1b)\n        /* \"eth based/truffle/contracts/FLIR_Contract.sol\":2329:2331  50 */\n      0x32\n        /* \"eth based/truffle/contracts/FLIR_Contract.sol\":2324:2328  Cimp */\n      dup4\n        /* \"eth based/truffle/contracts/FLIR_Contract.sol\":2324:2331  Cimp-50 */\n      tag_154\n      swap2\n      swap1\n      tag_137\n      jump\t// in\n    tag_154:\n        /* \"eth based/truffle/contracts/FLIR_Contract.sol\":2323:2339  (Cimp-50) * btc4 */\n      tag_155\n      swap2\n      swap1\n      tag_128\n      jump\t// in\n    tag_155:\n        /* \"eth based/truffle/contracts/FLIR_Contract.sol\":2314:2318  btc3 */\n      sload(0x1a)\n        /* \"eth based/truffle/contracts/FLIR_Contract.sol\":2309:2311  50 */\n      0x32\n        /* \"eth based/truffle/contracts/FLIR_Contract.sol\":2309:2318  50 * btc3 */\n      tag_156\n      swap2\n      swap1\n      tag_128\n      jump\t// in\n    tag_156:\n        /* \"eth based/truffle/contracts/FLIR_Contract.sol\":2300:2304  btc2 */\n      sload(0x19)\n        /* \"eth based/truffle/contracts/FLIR_Contract.sol\":2295:2297  50 */\n      0x32\n        /* \"eth based/truffle/contracts/FLIR_Contract.sol\":2295:2304  50 * btc2 */\n      tag_157\n      swap2\n      swap1\n      tag_128\n      jump\t// in\n    tag_157:\n        /* \"eth based/truffle/contracts/FLIR_Contract.sol\":2286:2290  btc1 */\n      sload(0x18)\n        /* \"eth based/truffle/contracts/FLIR_Contract.sol\":2281:2283  50 */\n      0x32\n        /* \"eth based/truffle/contracts/FLIR_Contract.sol\":2281:2290  50 * btc1 */\n      tag_158\n      swap2\n      swap1\n      tag_128\n      jump\t// in\n    tag_158:\n        /* \"eth based/truffle/contracts/FLIR_Contract.sol\":2280:2305  (50 * btc1) + (50 * btc2) */\n      tag_159\n      swap2\n      swap1\n      tag_141\n      jump\t// in\n    tag_159:\n        /* \"eth based/truffle/contracts/FLIR_Contract.sol\":2280:2319  (50 * btc1) + (50 * btc2) + (50 * btc3) */\n      tag_160\n      swap2\n      swap1\n      tag_141\n      jump\t// in\n    tag_160:\n        /* \"eth based/truffle/contracts/FLIR_Contract.sol\":2280:2340  (50 * btc1) + (50 * btc2) + (50 * btc3) + ((Cimp-50) * btc4) */\n      tag_161\n      swap2\n      swap1\n      tag_141\n      jump\t// in\n    tag_161:\n        /* \"eth based/truffle/contracts/FLIR_Contract.sol\":2275:2340  Tc = (50 * btc1) + (50 * btc2) + (50 * btc3) + ((Cimp-50) * btc4) */\n      swap1\n      pop\n        /* \"eth based/truffle/contracts/FLIR_Contract.sol\":2229:2513  if(Cimp > 150 && Cimp < 201){... */\n      jump(tag_162)\n    tag_153:\n        /* \"eth based/truffle/contracts/FLIR_Contract.sol\":2383:2386  200 */\n      0xc8\n        /* \"eth based/truffle/contracts/FLIR_Contract.sol\":2376:2380  Cimp */\n      dup3\n        /* \"eth based/truffle/contracts/FLIR_Contract.sol\":2376:2386  Cimp > 200 */\n      gt\n        /* \"eth based/truffle/contracts/FLIR_Contract.sol\":2376:2400  Cimp > 200 && Cimp < 251 */\n      dup1\n      iszero\n      tag_163\n      jumpi\n      pop\n        /* \"eth based/truffle/contracts/FLIR_Contract.sol\":2397:2400  251 */\n      0xfb\n        /* \"eth based/truffle/contracts/FLIR_Contract.sol\":2390:2394  Cimp */\n      dup3\n        /* \"eth based/truffle/contracts/FLIR_Contract.sol\":2390:2400  Cimp < 251 */\n      lt\n        /* \"eth based/truffle/contracts/FLIR_Contract.sol\":2376:2400  Cimp > 200 && Cimp < 251 */\n    tag_163:\n        /* \"eth based/truffle/contracts/FLIR_Contract.sol\":2373:2513  if(Cimp > 200 && Cimp < 251){... */\n      iszero\n      tag_164\n      jumpi\n        /* \"eth based/truffle/contracts/FLIR_Contract.sol\":2493:2497  btc5 */\n      sload(0x1c)\n        /* \"eth based/truffle/contracts/FLIR_Contract.sol\":2487:2489  50 */\n      0x32\n        /* \"eth based/truffle/contracts/FLIR_Contract.sol\":2482:2486  Cimp */\n      dup4\n        /* \"eth based/truffle/contracts/FLIR_Contract.sol\":2482:2489  Cimp-50 */\n      tag_165\n      swap2\n      swap1\n      tag_137\n      jump\t// in\n    tag_165:\n        /* \"eth based/truffle/contracts/FLIR_Contract.sol\":2481:2497  (Cimp-50) * btc5 */\n      tag_166\n      swap2\n      swap1\n      tag_128\n      jump\t// in\n    tag_166:\n        /* \"eth based/truffle/contracts/FLIR_Contract.sol\":2472:2476  btc4 */\n      sload(0x1b)\n        /* \"eth based/truffle/contracts/FLIR_Contract.sol\":2467:2469  50 */\n      0x32\n        /* \"eth based/truffle/contracts/FLIR_Contract.sol\":2467:2476  50 * btc4 */\n      tag_167\n      swap2\n      swap1\n      tag_128\n      jump\t// in\n    tag_167:\n        /* \"eth based/truffle/contracts/FLIR_Contract.sol\":2458:2462  btc3 */\n      sload(0x1a)\n        /* \"eth based/truffle/contracts/FLIR_Contract.sol\":2453:2455  50 */\n      0x32\n        /* \"eth based/truffle/contracts/FLIR_Contract.sol\":2453:2462  50 * btc3 */\n      tag_168\n      swap2\n      swap1\n      tag_128\n      jump\t// in\n    tag_168:\n        /* \"eth based/truffle/contracts/FLIR_Contract.sol\":2444:2448  btc2 */\n      sload(0x19)\n        /* \"eth based/truffle/contracts/FLIR_Contract.sol\":2439:2441  50 */\n      0x32\n        /* \"eth based/truffle/contracts/FLIR_Contract.sol\":2439:2448  50 * btc2 */\n      tag_169\n      swap2\n      swap1\n      tag_128\n      jump\t// in\n    tag_169:\n        /* \"eth based/truffle/contracts/FLIR_Contract.sol\":2430:2434  btc1 */\n      sload(0x18)\n        /* \"eth based/truffle/contracts/FLIR_Contract.sol\":2425:2427  50 */\n      0x32\n        /* \"eth based/truffle/contracts/FLIR_Contract.sol\":2425:2434  50 * btc1 */\n      tag_170\n      swap2\n      swap1\n      tag_128\n      jump\t// in\n    tag_170:\n        /* \"eth based/truffle/contracts/FLIR_Contract.sol\":2424:2449  (50 * btc1) + (50 * btc2) */\n      tag_171\n      swap2\n      swap1\n      tag_141\n      jump\t// in\n    tag_171:\n        /* \"eth based/truffle/contracts/FLIR_Contract.sol\":2424:2463  (50 * btc1) + (50 * btc2) + (50 * btc3) */\n      tag_172\n      swap2\n      swap1\n      tag_141\n      jump\t// in\n    tag_172:\n        /* \"eth based/truffle/contracts/FLIR_Contract.sol\":2424:2477  (50 * btc1) + (50 * btc2) + (50 * btc3) + (50 * btc4) */\n      tag_173\n      swap2\n      swap1\n      tag_141\n      jump\t// in\n    tag_173:\n        /* \"eth based/truffle/contracts/FLIR_Contract.sol\":2424:2498  (50 * btc1) + (50 * btc2) + (50 * btc3) + (50 * btc4) + ((Cimp-50) * btc5) */\n      tag_174\n      swap2\n      swap1\n      tag_141\n      jump\t// in\n    tag_174:\n        /* \"eth based/truffle/contracts/FLIR_Contract.sol\":2419:2498  Tc = (50 * btc1) + (50 * btc2) + (50 * btc3) + (50 * btc4) + ((Cimp-50) * btc5) */\n      swap1\n      pop\n        /* \"eth based/truffle/contracts/FLIR_Contract.sol\":2373:2513  if(Cimp > 200 && Cimp < 251){... */\n    tag_164:\n        /* \"eth based/truffle/contracts/FLIR_Contract.sol\":2229:2513  if(Cimp > 150 && Cimp < 201){... */\n    tag_162:\n        /* \"eth based/truffle/contracts/FLIR_Contract.sol\":2099:2513  if(Cimp > 100 && Cimp < 151){... */\n    tag_151:\n        /* \"eth based/truffle/contracts/FLIR_Contract.sol\":1984:2513  if(Cimp > 50 && Cimp < 101){... */\n    tag_142:\n        /* \"eth based/truffle/contracts/FLIR_Contract.sol\":1904:2513  if(Cimp < 51){... */\n    tag_133:\n        /* \"eth based/truffle/contracts/FLIR_Contract.sol\":1876:2758  if(Cimp < 251){... */\n      jump(tag_175)\n    tag_130:\n        /* \"eth based/truffle/contracts/FLIR_Contract.sol\":2547:2550  250 */\n      0xfa\n        /* \"eth based/truffle/contracts/FLIR_Contract.sol\":2540:2544  Cimp */\n      dup3\n        /* \"eth based/truffle/contracts/FLIR_Contract.sol\":2540:2550  Cimp > 250 */\n      gt\n        /* \"eth based/truffle/contracts/FLIR_Contract.sol\":2540:2564  Cimp > 250 && Cimp < 351 */\n      dup1\n      iszero\n      tag_176\n      jumpi\n      pop\n        /* \"eth based/truffle/contracts/FLIR_Contract.sol\":2561:2564  351 */\n      0x015f\n        /* \"eth based/truffle/contracts/FLIR_Contract.sol\":2554:2558  Cimp */\n      dup3\n        /* \"eth based/truffle/contracts/FLIR_Contract.sol\":2554:2564  Cimp < 351 */\n      lt\n        /* \"eth based/truffle/contracts/FLIR_Contract.sol\":2540:2564  Cimp > 250 && Cimp < 351 */\n    tag_176:\n        /* \"eth based/truffle/contracts/FLIR_Contract.sol\":2537:2758  if(Cimp > 250 && Cimp < 351){... */\n      iszero\n      tag_177\n      jumpi\n        /* \"eth based/truffle/contracts/FLIR_Contract.sol\":2591:2595  btc6 */\n      sload(0x1d)\n        /* \"eth based/truffle/contracts/FLIR_Contract.sol\":2584:2588  Cimp */\n      dup3\n        /* \"eth based/truffle/contracts/FLIR_Contract.sol\":2584:2595  Cimp * btc6 */\n      tag_178\n      swap2\n      swap1\n      tag_128\n      jump\t// in\n    tag_178:\n        /* \"eth based/truffle/contracts/FLIR_Contract.sol\":2579:2595  Tc = Cimp * btc6 */\n      swap1\n      pop\n        /* \"eth based/truffle/contracts/FLIR_Contract.sol\":2537:2758  if(Cimp > 250 && Cimp < 351){... */\n      jump(tag_179)\n    tag_177:\n        /* \"eth based/truffle/contracts/FLIR_Contract.sol\":2630:2633  350 */\n      0x015e\n        /* \"eth based/truffle/contracts/FLIR_Contract.sol\":2623:2627  Cimp */\n      dup3\n        /* \"eth based/truffle/contracts/FLIR_Contract.sol\":2623:2633  Cimp > 350 */\n      gt\n        /* \"eth based/truffle/contracts/FLIR_Contract.sol\":2623:2647  Cimp > 350 && Cimp < 451 */\n      dup1\n      iszero\n      tag_180\n      jumpi\n      pop\n        /* \"eth based/truffle/contracts/FLIR_Contract.sol\":2644:2647  451 */\n      0x01c3\n        /* \"eth based/truffle/contracts/FLIR_Contract.sol\":2637:2641  Cimp */\n      dup3\n        /* \"eth based/truffle/contracts/FLIR_Contract.sol\":2637:2647  Cimp < 451 */\n      lt\n        /* \"eth based/truffle/contracts/FLIR_Contract.sol\":2623:2647  Cimp > 350 && Cimp < 451 */\n    tag_180:\n        /* \"eth based/truffle/contracts/FLIR_Contract.sol\":2620:2758  if(Cimp > 350 && Cimp < 451){... */\n      iszero\n      tag_181\n      jumpi\n        /* \"eth based/truffle/contracts/FLIR_Contract.sol\":2674:2678  btc7 */\n      sload(0x1e)\n        /* \"eth based/truffle/contracts/FLIR_Contract.sol\":2667:2671  Cimp */\n      dup3\n        /* \"eth based/truffle/contracts/FLIR_Contract.sol\":2667:2678  Cimp * btc7 */\n      tag_182\n      swap2\n      swap1\n      tag_128\n      jump\t// in\n    tag_182:\n        /* \"eth based/truffle/contracts/FLIR_Contract.sol\":2662:2678  Tc = Cimp * btc7 */\n      swap1\n      pop\n        /* \"eth based/truffle/contracts/FLIR_Contract.sol\":2620:2758  if(Cimp > 350 && Cimp < 451){... */\n      jump(tag_183)\n    tag_181:\n        /* \"eth based/truffle/contracts/FLIR_Contract.sol\":2713:2716  450 */\n      0x01c2\n        /* \"eth based/truffle/contracts/FLIR_Contract.sol\":2706:2710  Cimp */\n      dup3\n        /* \"eth based/truffle/contracts/FLIR_Contract.sol\":2706:2716  Cimp > 450 */\n      gt\n        /* \"eth based/truffle/contracts/FLIR_Contract.sol\":2703:2758  if(Cimp > 450){... */\n      iszero\n      tag_184\n      jumpi\n        /* \"eth based/truffle/contracts/FLIR_Contract.sol\":2743:2747  btc8 */\n      sload(0x1f)\n        /* \"eth based/truffle/contracts/FLIR_Contract.sol\":2736:2740  Cimp */\n      dup3\n        /* \"eth based/truffle/contracts/FLIR_Contract.sol\":2736:2747  Cimp * btc8 */\n      tag_185\n      swap2\n      swap1\n      tag_128\n      jump\t// in\n    tag_185:\n        /* \"eth based/truffle/contracts/FLIR_Contract.sol\":2731:2747  Tc = Cimp * btc8 */\n      swap1\n      pop\n        /* \"eth based/truffle/contracts/FLIR_Contract.sol\":2703:2758  if(Cimp > 450){... */\n    tag_184:\n        /* \"eth based/truffle/contracts/FLIR_Contract.sol\":2620:2758  if(Cimp > 350 && Cimp < 451){... */\n    tag_183:\n        /* \"eth based/truffle/contracts/FLIR_Contract.sol\":2537:2758  if(Cimp > 250 && Cimp < 351){... */\n    tag_179:\n        /* \"eth based/truffle/contracts/FLIR_Contract.sol\":1876:2758  if(Cimp < 251){... */\n    tag_175:\n        /* \"eth based/truffle/contracts/FLIR_Contract.sol\":1795:2785  function getConsumerTariff(uint Cimp) public returns (uint Tc){... */\n      swap2\n      swap1\n      pop\n      jump\t// out\n        /* \"eth based/truffle/contracts/FLIR_Contract.sol\":3000:3068  function balCheck() public payable {... */\n    tag_69:\n        /* \"eth based/truffle/contracts/FLIR_Contract.sol\":3052:3061  msg.value */\n      callvalue\n        /* \"eth based/truffle/contracts/FLIR_Contract.sol\":3041:3048  balance */\n      0x16\n      0x00\n        /* \"eth based/truffle/contracts/FLIR_Contract.sol\":3041:3061  balance += msg.value */\n      dup3\n      dup3\n      sload\n      tag_187\n      swap2\n      swap1\n      tag_141\n      jump\t// in\n    tag_187:\n      swap3\n      pop\n      pop\n      dup2\n      swap1\n      sstore\n      pop\n        /* \"eth based/truffle/contracts/FLIR_Contract.sol\":3000:3068  function balCheck() public payable {... */\n      jump\t// out\n        /* \"eth based/truffle/contracts/FLIR_Contract.sol\":156:176  address public owner */\n    tag_72:\n      0x00\n      dup1\n      sload\n      swap1\n      0x0100\n      exp\n      swap1\n      div\n      0xffffffffffffffffffffffffffffffffffffffff\n      and\n      dup2\n      jump\t// out\n        /* \"eth based/truffle/contracts/FLIR_Contract.sol\":1136:1157  uint public btc8 = 10 */\n    tag_76:\n      sload(0x1f)\n      dup2\n      jump\t// out\n        /* \"eth based/truffle/contracts/FLIR_Contract.sol\":210:235  address[10] public seller */\n    tag_81:\n      0x02\n      dup2\n      0x0a\n      dup2\n      lt\n      tag_188\n      jumpi\n      0x00\n      dup1\n      revert\n    tag_188:\n      add\n      0x00\n      swap2\n      pop\n      sload\n      swap1\n      0x0100\n      exp\n      swap1\n      div\n      0xffffffffffffffffffffffffffffffffffffffff\n      and\n      dup2\n      jump\t// out\n        /* \"eth based/truffle/contracts/FLIR_Contract.sol\":1084:1104  uint public btc6 = 8 */\n    tag_85:\n      sload(0x1d)\n      dup2\n      jump\t// out\n        /* \"eth based/truffle/contracts/FLIR_Contract.sol\":758:781  uint public balance = 0 */\n    tag_89:\n      sload(0x16)\n      dup2\n      jump\t// out\n        /* \"eth based/truffle/contracts/FLIR_Contract.sol\":954:974  uint public btc1 = 3 */\n    tag_93:\n      sload(0x18)\n      dup2\n      jump\t// out\n        /* \"eth based/truffle/contracts/FLIR_Contract.sol\":2791:2994  function send(address payable _receiver, uint amount) payable public {... */\n    tag_98:\n        /* \"eth based/truffle/contracts/FLIR_Contract.sol\":2944:2950  amount */\n      dup1\n        /* \"eth based/truffle/contracts/FLIR_Contract.sol\":2931:2940  msg.value */\n      callvalue\n        /* \"eth based/truffle/contracts/FLIR_Contract.sol\":2931:2950  msg.value >= amount */\n      lt\n      iszero\n        /* \"eth based/truffle/contracts/FLIR_Contract.sol\":2923:2951  require(msg.value >= amount) */\n      tag_191\n      jumpi\n      0x00\n      dup1\n      revert\n    tag_191:\n        /* \"eth based/truffle/contracts/FLIR_Contract.sol\":2961:2970  _receiver */\n      dup2\n        /* \"eth based/truffle/contracts/FLIR_Contract.sol\":2961:2979  _receiver.transfer */\n      0xffffffffffffffffffffffffffffffffffffffff\n      and\n        /* \"eth based/truffle/contracts/FLIR_Contract.sol\":2961:2987  _receiver.transfer(amount) */\n      0x08fc\n        /* \"eth based/truffle/contracts/FLIR_Contract.sol\":2980:2986  amount */\n      dup3\n        /* \"eth based/truffle/contracts/FLIR_Contract.sol\":2961:2987  _receiver.transfer(amount) */\n      swap1\n      dup2\n      iszero\n      mul\n      swap1\n      mload(0x40)\n      0x00\n      mload(0x40)\n      dup1\n      dup4\n      sub\n      dup2\n      dup6\n      dup9\n      dup9\n      call\n      swap4\n      pop\n      pop\n      pop\n      pop\n      iszero\n      dup1\n      iszero\n      tag_193\n      jumpi\n      returndatasize\n      0x00\n      dup1\n      returndatacopy\n      revert(0x00, returndatasize)\n    tag_193:\n      pop\n        /* \"eth based/truffle/contracts/FLIR_Contract.sol\":2791:2994  function send(address payable _receiver, uint amount) payable public {... */\n      pop\n      pop\n      jump\t// out\n        /* \"eth based/truffle/contracts/FLIR_Contract.sol\":1110:1130  uint public btc7 = 9 */\n    tag_101:\n      sload(0x1e)\n      dup2\n      jump\t// out\n        /* \"eth based/truffle/contracts/FLIR_Contract.sol\":1345:1668  function getnPnCnEV(uint nPget, uint nCget,uint nEVget) public... */\n    tag_107:\n        /* \"eth based/truffle/contracts/FLIR_Contract.sol\":1421:1428  uint nP */\n      0x00\n        /* \"eth based/truffle/contracts/FLIR_Contract.sol\":1429:1436  uint nC */\n      dup1\n        /* \"eth based/truffle/contracts/FLIR_Contract.sol\":1437:1445  uint nEV */\n      0x00\n        /* \"eth based/truffle/contracts/FLIR_Contract.sol\":1470:1475  nPget */\n      dup6\n        /* \"eth based/truffle/contracts/FLIR_Contract.sol\":1465:1475  nP = nPget */\n      swap3\n      pop\n        /* \"eth based/truffle/contracts/FLIR_Contract.sol\":1490:1495  nCget */\n      dup5\n        /* \"eth based/truffle/contracts/FLIR_Contract.sol\":1485:1495  nC = nCget */\n      swap2\n      pop\n        /* \"eth based/truffle/contracts/FLIR_Contract.sol\":1511:1517  nEVget */\n      dup4\n        /* \"eth based/truffle/contracts/FLIR_Contract.sol\":1505:1517  nEV = nEVget */\n      swap1\n      pop\n        /* \"eth based/truffle/contracts/FLIR_Contract.sol\":1345:1668  function getnPnCnEV(uint nPget, uint nCget,uint nEVget) public... */\n      swap4\n      pop\n      swap4\n      pop\n      swap4\n      swap1\n      pop\n      jump\t// out\n        /* \"eth based/truffle/contracts/FLIR_Contract.sol\":241:266  address[10] public buyers */\n    tag_113:\n      0x0c\n      dup2\n      0x0a\n      dup2\n      lt\n      tag_195\n      jumpi\n      0x00\n      dup1\n      revert\n    tag_195:\n      add\n      0x00\n      swap2\n      pop\n      sload\n      swap1\n      0x0100\n      exp\n      swap1\n      div\n      0xffffffffffffffffffffffffffffffffffffffff\n      and\n      dup2\n      jump\t// out\n        /* \"eth based/truffle/contracts/FLIR_Contract.sol\":3074:3209  function getBalance(address _balanceCheck) public returns (uint bal){... */\n    tag_119:\n        /* \"eth based/truffle/contracts/FLIR_Contract.sol\":3133:3141  uint bal */\n      0x00\n        /* \"eth based/truffle/contracts/FLIR_Contract.sol\":3158:3171  _balanceCheck */\n      dup2\n        /* \"eth based/truffle/contracts/FLIR_Contract.sol\":3158:3179  _balanceCheck.balance */\n      0xffffffffffffffffffffffffffffffffffffffff\n      and\n      balance\n        /* \"eth based/truffle/contracts/FLIR_Contract.sol\":3152:3179  bal = _balanceCheck.balance */\n      swap1\n      pop\n        /* \"eth based/truffle/contracts/FLIR_Contract.sol\":3074:3209  function getBalance(address _balanceCheck) public returns (uint bal){... */\n      swap2\n      swap1\n      pop\n      jump\t// out\n        /* \"#utility.yul\":7:146   */\n    tag_199:\n        /* \"#utility.yul\":53:58   */\n      0x00\n        /* \"#utility.yul\":91:97   */\n      dup2\n        /* \"#utility.yul\":78:98   */\n      calldataload\n        /* \"#utility.yul\":69:98   */\n      swap1\n      pop\n        /* \"#utility.yul\":107:140   */\n      tag_201\n        /* \"#utility.yul\":134:139   */\n      dup2\n        /* \"#utility.yul\":107:140   */\n      tag_202\n      jump\t// in\n    tag_201:\n        /* \"#utility.yul\":7:146   */\n      swap3\n      swap2\n      pop\n      pop\n      jump\t// out\n        /* \"#utility.yul\":152:307   */\n    tag_203:\n        /* \"#utility.yul\":206:211   */\n      0x00\n        /* \"#utility.yul\":244:250   */\n      dup2\n        /* \"#utility.yul\":231:251   */\n      calldataload\n        /* \"#utility.yul\":222:251   */\n      swap1\n      pop\n        /* \"#utility.yul\":260:301   */\n      tag_205\n        /* \"#utility.yul\":295:300   */\n      dup2\n        /* \"#utility.yul\":260:301   */\n      tag_206\n      jump\t// in\n    tag_205:\n        /* \"#utility.yul\":152:307   */\n      swap3\n      swap2\n      pop\n      pop\n      jump\t// out\n        /* \"#utility.yul\":313:452   */\n    tag_207:\n        /* \"#utility.yul\":359:364   */\n      0x00\n        /* \"#utility.yul\":397:403   */\n      dup2\n        /* \"#utility.yul\":384:404   */\n      calldataload\n        /* \"#utility.yul\":375:404   */\n      swap1\n      pop\n        /* \"#utility.yul\":413:446   */\n      tag_209\n        /* \"#utility.yul\":440:445   */\n      dup2\n        /* \"#utility.yul\":413:446   */\n      tag_210\n      jump\t// in\n    tag_209:\n        /* \"#utility.yul\":313:452   */\n      swap3\n      swap2\n      pop\n      pop\n      jump\t// out\n        /* \"#utility.yul\":458:787   */\n    tag_118:\n        /* \"#utility.yul\":517:523   */\n      0x00\n        /* \"#utility.yul\":566:568   */\n      0x20\n        /* \"#utility.yul\":554:563   */\n      dup3\n        /* \"#utility.yul\":545:552   */\n      dup5\n        /* \"#utility.yul\":541:564   */\n      sub\n        /* \"#utility.yul\":537:569   */\n      slt\n        /* \"#utility.yul\":534:653   */\n      iszero\n      tag_212\n      jumpi\n        /* \"#utility.yul\":572:651   */\n      tag_213\n      tag_214\n      jump\t// in\n    tag_213:\n        /* \"#utility.yul\":534:653   */\n    tag_212:\n        /* \"#utility.yul\":692:693   */\n      0x00\n        /* \"#utility.yul\":717:770   */\n      tag_215\n        /* \"#utility.yul\":762:769   */\n      dup5\n        /* \"#utility.yul\":753:759   */\n      dup3\n        /* \"#utility.yul\":742:751   */\n      dup6\n        /* \"#utility.yul\":738:760   */\n      add\n        /* \"#utility.yul\":717:770   */\n      tag_199\n      jump\t// in\n    tag_215:\n        /* \"#utility.yul\":707:770   */\n      swap2\n      pop\n        /* \"#utility.yul\":663:780   */\n      pop\n        /* \"#utility.yul\":458:787   */\n      swap3\n      swap2\n      pop\n      pop\n      jump\t// out\n        /* \"#utility.yul\":793:1283   */\n    tag_97:\n        /* \"#utility.yul\":869:875   */\n      0x00\n        /* \"#utility.yul\":877:883   */\n      dup1\n        /* \"#utility.yul\":926:928   */\n      0x40\n        /* \"#utility.yul\":914:923   */\n      dup4\n        /* \"#utility.yul\":905:912   */\n      dup6\n        /* \"#utility.yul\":901:924   */\n      sub\n        /* \"#utility.yul\":897:929   */\n      slt\n        /* \"#utility.yul\":894:1013   */\n      iszero\n      tag_217\n      jumpi\n        /* \"#utility.yul\":932:1011   */\n      tag_218\n      tag_214\n      jump\t// in\n    tag_218:\n        /* \"#utility.yul\":894:1013   */\n    tag_217:\n        /* \"#utility.yul\":1052:1053   */\n      0x00\n        /* \"#utility.yul\":1077:1138   */\n      tag_219\n        /* \"#utility.yul\":1130:1137   */\n      dup6\n        /* \"#utility.yul\":1121:1127   */\n      dup3\n        /* \"#utility.yul\":1110:1119   */\n      dup7\n        /* \"#utility.yul\":1106:1128   */\n      add\n        /* \"#utility.yul\":1077:1138   */\n      tag_203\n      jump\t// in\n    tag_219:\n        /* \"#utility.yul\":1067:1138   */\n      swap3\n      pop\n        /* \"#utility.yul\":1023:1148   */\n      pop\n        /* \"#utility.yul\":1187:1189   */\n      0x20\n        /* \"#utility.yul\":1213:1266   */\n      tag_220\n        /* \"#utility.yul\":1258:1265   */\n      dup6\n        /* \"#utility.yul\":1249:1255   */\n      dup3\n        /* \"#utility.yul\":1238:1247   */\n      dup7\n        /* \"#utility.yul\":1234:1256   */\n      add\n        /* \"#utility.yul\":1213:1266   */\n      tag_207\n      jump\t// in\n    tag_220:\n        /* \"#utility.yul\":1203:1266   */\n      swap2\n      pop\n        /* \"#utility.yul\":1158:1276   */\n      pop\n        /* \"#utility.yul\":793:1283   */\n      swap3\n      pop\n      swap3\n      swap1\n      pop\n      jump\t// out\n        /* \"#utility.yul\":1289:1618   */\n    tag_50:\n        /* \"#utility.yul\":1348:1354   */\n      0x00\n        /* \"#utility.yul\":1397:1399   */\n      0x20\n        /* \"#utility.yul\":1385:1394   */\n      dup3\n        /* \"#utility.yul\":1376:1383   */\n      dup5\n        /* \"#utility.yul\":1372:1395   */\n      sub\n        /* \"#utility.yul\":1368:1400   */\n      slt\n        /* \"#utility.yul\":1365:1484   */\n      iszero\n      tag_222\n      jumpi\n        /* \"#utility.yul\":1403:1482   */\n      tag_223\n      tag_214\n      jump\t// in\n    tag_223:\n        /* \"#utility.yul\":1365:1484   */\n    tag_222:\n        /* \"#utility.yul\":1523:1524   */\n      0x00\n        /* \"#utility.yul\":1548:1601   */\n      tag_224\n        /* \"#utility.yul\":1593:1600   */\n      dup5\n        /* \"#utility.yul\":1584:1590   */\n      dup3\n        /* \"#utility.yul\":1573:1582   */\n      dup6\n        /* \"#utility.yul\":1569:1591   */\n      add\n        /* \"#utility.yul\":1548:1601   */\n      tag_207\n      jump\t// in\n    tag_224:\n        /* \"#utility.yul\":1538:1601   */\n      swap2\n      pop\n        /* \"#utility.yul\":1494:1611   */\n      pop\n        /* \"#utility.yul\":1289:1618   */\n      swap3\n      swap2\n      pop\n      pop\n      jump\t// out\n        /* \"#utility.yul\":1624:2243   */\n    tag_106:\n        /* \"#utility.yul\":1701:1707   */\n      0x00\n        /* \"#utility.yul\":1709:1715   */\n      dup1\n        /* \"#utility.yul\":1717:1723   */\n      0x00\n        /* \"#utility.yul\":1766:1768   */\n      0x60\n        /* \"#utility.yul\":1754:1763   */\n      dup5\n        /* \"#utility.yul\":1745:1752   */\n      dup7\n        /* \"#utility.yul\":1741:1764   */\n      sub\n        /* \"#utility.yul\":1737:1769   */\n      slt\n        /* \"#utility.yul\":1734:1853   */\n      iszero\n      tag_226\n      jumpi\n        /* \"#utility.yul\":1772:1851   */\n      tag_227\n      tag_214\n      jump\t// in\n    tag_227:\n        /* \"#utility.yul\":1734:1853   */\n    tag_226:\n        /* \"#utility.yul\":1892:1893   */\n      0x00\n        /* \"#utility.yul\":1917:1970   */\n      tag_228\n        /* \"#utility.yul\":1962:1969   */\n      dup7\n        /* \"#utility.yul\":1953:1959   */\n      dup3\n        /* \"#utility.yul\":1942:1951   */\n      dup8\n        /* \"#utility.yul\":1938:1960   */\n      add\n        /* \"#utility.yul\":1917:1970   */\n      tag_207\n      jump\t// in\n    tag_228:\n        /* \"#utility.yul\":1907:1970   */\n      swap4\n      pop\n        /* \"#utility.yul\":1863:1980   */\n      pop\n        /* \"#utility.yul\":2019:2021   */\n      0x20\n        /* \"#utility.yul\":2045:2098   */\n      tag_229\n        /* \"#utility.yul\":2090:2097   */\n      dup7\n        /* \"#utility.yul\":2081:2087   */\n      dup3\n        /* \"#utility.yul\":2070:2079   */\n      dup8\n        /* \"#utility.yul\":2066:2088   */\n      add\n        /* \"#utility.yul\":2045:2098   */\n      tag_207\n      jump\t// in\n    tag_229:\n        /* \"#utility.yul\":2035:2098   */\n      swap3\n      pop\n        /* \"#utility.yul\":1990:2108   */\n      pop\n        /* \"#utility.yul\":2147:2149   */\n      0x40\n        /* \"#utility.yul\":2173:2226   */\n      tag_230\n        /* \"#utility.yul\":2218:2225   */\n      dup7\n        /* \"#utility.yul\":2209:2215   */\n      dup3\n        /* \"#utility.yul\":2198:2207   */\n      dup8\n        /* \"#utility.yul\":2194:2216   */\n      add\n        /* \"#utility.yul\":2173:2226   */\n      tag_207\n      jump\t// in\n    tag_230:\n        /* \"#utility.yul\":2163:2226   */\n      swap2\n      pop\n        /* \"#utility.yul\":2118:2236   */\n      pop\n        /* \"#utility.yul\":1624:2243   */\n      swap3\n      pop\n      swap3\n      pop\n      swap3\n      jump\t// out\n        /* \"#utility.yul\":2249:2367   */\n    tag_231:\n        /* \"#utility.yul\":2336:2360   */\n      tag_233\n        /* \"#utility.yul\":2354:2359   */\n      dup2\n        /* \"#utility.yul\":2336:2360   */\n      tag_234\n      jump\t// in\n    tag_233:\n        /* \"#utility.yul\":2331:2334   */\n      dup3\n        /* \"#utility.yul\":2324:2361   */\n      mstore\n        /* \"#utility.yul\":2249:2367   */\n      pop\n      pop\n      jump\t// out\n        /* \"#utility.yul\":2373:2491   */\n    tag_235:\n        /* \"#utility.yul\":2460:2484   */\n      tag_237\n        /* \"#utility.yul\":2478:2483   */\n      dup2\n        /* \"#utility.yul\":2460:2484   */\n      tag_238\n      jump\t// in\n    tag_237:\n        /* \"#utility.yul\":2455:2458   */\n      dup3\n        /* \"#utility.yul\":2448:2485   */\n      mstore\n        /* \"#utility.yul\":2373:2491   */\n      pop\n      pop\n      jump\t// out\n        /* \"#utility.yul\":2497:2719   */\n    tag_57:\n        /* \"#utility.yul\":2590:2594   */\n      0x00\n        /* \"#utility.yul\":2628:2630   */\n      0x20\n        /* \"#utility.yul\":2617:2626   */\n      dup3\n        /* \"#utility.yul\":2613:2631   */\n      add\n        /* \"#utility.yul\":2605:2631   */\n      swap1\n      pop\n        /* \"#utility.yul\":2641:2712   */\n      tag_240\n        /* \"#utility.yul\":2709:2710   */\n      0x00\n        /* \"#utility.yul\":2698:2707   */\n      dup4\n        /* \"#utility.yul\":2694:2711   */\n      add\n        /* \"#utility.yul\":2685:2691   */\n      dup5\n        /* \"#utility.yul\":2641:2712   */\n      tag_231\n      jump\t// in\n    tag_240:\n        /* \"#utility.yul\":2497:2719   */\n      swap3\n      swap2\n      pop\n      pop\n      jump\t// out\n        /* \"#utility.yul\":2725:2947   */\n    tag_30:\n        /* \"#utility.yul\":2818:2822   */\n      0x00\n        /* \"#utility.yul\":2856:2858   */\n      0x20\n        /* \"#utility.yul\":2845:2854   */\n      dup3\n        /* \"#utility.yul\":2841:2859   */\n      add\n        /* \"#utility.yul\":2833:2859   */\n      swap1\n      pop\n        /* \"#utility.yul\":2869:2940   */\n      tag_242\n        /* \"#utility.yul\":2937:2938   */\n      0x00\n        /* \"#utility.yul\":2926:2935   */\n      dup4\n        /* \"#utility.yul\":2922:2939   */\n      add\n        /* \"#utility.yul\":2913:2919   */\n      dup5\n        /* \"#utility.yul\":2869:2940   */\n      tag_235\n      jump\t// in\n    tag_242:\n        /* \"#utility.yul\":2725:2947   */\n      swap3\n      swap2\n      pop\n      pop\n      jump\t// out\n        /* \"#utility.yul\":2953:3395   */\n    tag_109:\n        /* \"#utility.yul\":3102:3106   */\n      0x00\n        /* \"#utility.yul\":3140:3142   */\n      0x60\n        /* \"#utility.yul\":3129:3138   */\n      dup3\n        /* \"#utility.yul\":3125:3143   */\n      add\n        /* \"#utility.yul\":3117:3143   */\n      swap1\n      pop\n        /* \"#utility.yul\":3153:3224   */\n      tag_244\n        /* \"#utility.yul\":3221:3222   */\n      0x00\n        /* \"#utility.yul\":3210:3219   */\n      dup4\n        /* \"#utility.yul\":3206:3223   */\n      add\n        /* \"#utility.yul\":3197:3203   */\n      dup7\n        /* \"#utility.yul\":3153:3224   */\n      tag_235\n      jump\t// in\n    tag_244:\n        /* \"#utility.yul\":3234:3306   */\n      tag_245\n        /* \"#utility.yul\":3302:3304   */\n      0x20\n        /* \"#utility.yul\":3291:3300   */\n      dup4\n        /* \"#utility.yul\":3287:3305   */\n      add\n        /* \"#utility.yul\":3278:3284   */\n      dup6\n        /* \"#utility.yul\":3234:3306   */\n      tag_235\n      jump\t// in\n    tag_245:\n        /* \"#utility.yul\":3316:3388   */\n      tag_246\n        /* \"#utility.yul\":3384:3386   */\n      0x40\n        /* \"#utility.yul\":3373:3382   */\n      dup4\n        /* \"#utility.yul\":3369:3387   */\n      add\n        /* \"#utility.yul\":3360:3366   */\n      dup5\n        /* \"#utility.yul\":3316:3388   */\n      tag_235\n      jump\t// in\n    tag_246:\n        /* \"#utility.yul\":2953:3395   */\n      swap5\n      swap4\n      pop\n      pop\n      pop\n      pop\n      jump\t// out\n        /* \"#utility.yul\":3482:3787   */\n    tag_141:\n        /* \"#utility.yul\":3522:3525   */\n      0x00\n        /* \"#utility.yul\":3541:3561   */\n      tag_250\n        /* \"#utility.yul\":3559:3560   */\n      dup3\n        /* \"#utility.yul\":3541:3561   */\n      tag_238\n      jump\t// in\n    tag_250:\n        /* \"#utility.yul\":3536:3561   */\n      swap2\n      pop\n        /* \"#utility.yul\":3575:3595   */\n      tag_251\n        /* \"#utility.yul\":3593:3594   */\n      dup4\n        /* \"#utility.yul\":3575:3595   */\n      tag_238\n      jump\t// in\n    tag_251:\n        /* \"#utility.yul\":3570:3595   */\n      swap3\n      pop\n        /* \"#utility.yul\":3729:3730   */\n      dup3\n        /* \"#utility.yul\":3661:3727   */\n      0xffffffffffffffffffffffffffffffffffffffffffffffffffffffffffffffff\n        /* \"#utility.yul\":3657:3731   */\n      sub\n        /* \"#utility.yul\":3654:3655   */\n      dup3\n        /* \"#utility.yul\":3651:3732   */\n      gt\n        /* \"#utility.yul\":3648:3755   */\n      iszero\n      tag_252\n      jumpi\n        /* \"#utility.yul\":3735:3753   */\n      tag_253\n      tag_254\n      jump\t// in\n    tag_253:\n        /* \"#utility.yul\":3648:3755   */\n    tag_252:\n        /* \"#utility.yul\":3779:3780   */\n      dup3\n        /* \"#utility.yul\":3776:3777   */\n      dup3\n        /* \"#utility.yul\":3772:3781   */\n      add\n        /* \"#utility.yul\":3765:3781   */\n      swap1\n      pop\n        /* \"#utility.yul\":3482:3787   */\n      swap3\n      swap2\n      pop\n      pop\n      jump\t// out\n        /* \"#utility.yul\":3793:4141   */\n    tag_128:\n        /* \"#utility.yul\":3833:3840   */\n      0x00\n        /* \"#utility.yul\":3856:3876   */\n      tag_256\n        /* \"#utility.yul\":3874:3875   */\n      dup3\n        /* \"#utility.yul\":3856:3876   */\n      tag_238\n      jump\t// in\n    tag_256:\n        /* \"#utility.yul\":3851:3876   */\n      swap2\n      pop\n        /* \"#utility.yul\":3890:3910   */\n      tag_257\n        /* \"#utility.yul\":3908:3909   */\n      dup4\n        /* \"#utility.yul\":3890:3910   */\n      tag_238\n      jump\t// in\n    tag_257:\n        /* \"#utility.yul\":3885:3910   */\n      swap3\n      pop\n        /* \"#utility.yul\":4078:4079   */\n      dup2\n        /* \"#utility.yul\":4010:4076   */\n      0xffffffffffffffffffffffffffffffffffffffffffffffffffffffffffffffff\n        /* \"#utility.yul\":4006:4080   */\n      div\n        /* \"#utility.yul\":4003:4004   */\n      dup4\n        /* \"#utility.yul\":4000:4081   */\n      gt\n        /* \"#utility.yul\":3995:3996   */\n      dup3\n        /* \"#utility.yul\":3988:3997   */\n      iszero\n        /* \"#utility.yul\":3981:3998   */\n      iszero\n        /* \"#utility.yul\":3977:4082   */\n      and\n        /* \"#utility.yul\":3974:4105   */\n      iszero\n      tag_258\n      jumpi\n        /* \"#utility.yul\":4085:4103   */\n      tag_259\n      tag_254\n      jump\t// in\n    tag_259:\n        /* \"#utility.yul\":3974:4105   */\n    tag_258:\n        /* \"#utility.yul\":4133:4134   */\n      dup3\n        /* \"#utility.yul\":4130:4131   */\n      dup3\n        /* \"#utility.yul\":4126:4135   */\n      mul\n        /* \"#utility.yul\":4115:4135   */\n      swap1\n      pop\n        /* \"#utility.yul\":3793:4141   */\n      swap3\n      swap2\n      pop\n      pop\n      jump\t// out\n        /* \"#utility.yul\":4147:4338   */\n    tag_137:\n        /* \"#utility.yul\":4187:4191   */\n      0x00\n        /* \"#utility.yul\":4207:4227   */\n      tag_261\n        /* \"#utility.yul\":4225:4226   */\n      dup3\n        /* \"#utility.yul\":4207:4227   */\n      tag_238\n      jump\t// in\n    tag_261:\n        /* \"#utility.yul\":4202:4227   */\n      swap2\n      pop\n        /* \"#utility.yul\":4241:4261   */\n      tag_262\n        /* \"#utility.yul\":4259:4260   */\n      dup4\n        /* \"#utility.yul\":4241:4261   */\n      tag_238\n      jump\t// in\n    tag_262:\n        /* \"#utility.yul\":4236:4261   */\n      swap3\n      pop\n        /* \"#utility.yul\":4280:4281   */\n      dup3\n        /* \"#utility.yul\":4277:4278   */\n      dup3\n        /* \"#utility.yul\":4274:4282   */\n      lt\n        /* \"#utility.yul\":4271:4305   */\n      iszero\n      tag_263\n      jumpi\n        /* \"#utility.yul\":4285:4303   */\n      tag_264\n      tag_254\n      jump\t// in\n    tag_264:\n        /* \"#utility.yul\":4271:4305   */\n    tag_263:\n        /* \"#utility.yul\":4330:4331   */\n      dup3\n        /* \"#utility.yul\":4327:4328   */\n      dup3\n        /* \"#utility.yul\":4323:4332   */\n      sub\n        /* \"#utility.yul\":4315:4332   */\n      swap1\n      pop\n        /* \"#utility.yul\":4147:4338   */\n      swap3\n      swap2\n      pop\n      pop\n      jump\t// out\n        /* \"#utility.yul\":4344:4440   */\n    tag_234:\n        /* \"#utility.yul\":4381:4388   */\n      0x00\n        /* \"#utility.yul\":4410:4434   */\n      tag_266\n        /* \"#utility.yul\":4428:4433   */\n      dup3\n        /* \"#utility.yul\":4410:4434   */\n      tag_267\n      jump\t// in\n    tag_266:\n        /* \"#utility.yul\":4399:4434   */\n      swap1\n      pop\n        /* \"#utility.yul\":4344:4440   */\n      swap2\n      swap1\n      pop\n      jump\t// out\n        /* \"#utility.yul\":4446:4550   */\n    tag_268:\n        /* \"#utility.yul\":4491:4498   */\n      0x00\n        /* \"#utility.yul\":4520:4544   */\n      tag_270\n        /* \"#utility.yul\":4538:4543   */\n      dup3\n        /* \"#utility.yul\":4520:4544   */\n      tag_267\n      jump\t// in\n    tag_270:\n        /* \"#utility.yul\":4509:4544   */\n      swap1\n      pop\n        /* \"#utility.yul\":4446:4550   */\n      swap2\n      swap1\n      pop\n      jump\t// out\n        /* \"#utility.yul\":4556:4682   */\n    tag_267:\n        /* \"#utility.yul\":4593:4600   */\n      0x00\n        /* \"#utility.yul\":4633:4675   */\n      0xffffffffffffffffffffffffffffffffffffffff\n        /* \"#utility.yul\":4626:4631   */\n      dup3\n        /* \"#utility.yul\":4622:4676   */\n      and\n        /* \"#utility.yul\":4611:4676   */\n      swap1\n      pop\n        /* \"#utility.yul\":4556:4682   */\n      swap2\n      swap1\n      pop\n      jump\t// out\n        /* \"#utility.yul\":4688:4765   */\n    tag_238:\n        /* \"#utility.yul\":4725:4732   */\n      0x00\n        /* \"#utility.yul\":4754:4759   */\n      dup2\n        /* \"#utility.yul\":4743:4759   */\n      swap1\n      pop\n        /* \"#utility.yul\":4688:4765   */\n      swap2\n      swap1\n      pop\n      jump\t// out\n        /* \"#utility.yul\":4771:4951   */\n    tag_254:\n        /* \"#utility.yul\":4819:4896   */\n      0x4e487b7100000000000000000000000000000000000000000000000000000000\n        /* \"#utility.yul\":4816:4817   */\n      0x00\n        /* \"#utility.yul\":4809:4897   */\n      mstore\n        /* \"#utility.yul\":4916:4920   */\n      0x11\n        /* \"#utility.yul\":4913:4914   */\n      0x04\n        /* \"#utility.yul\":4906:4921   */\n      mstore\n        /* \"#utility.yul\":4940:4944   */\n      0x24\n        /* \"#utility.yul\":4937:4938   */\n      0x00\n        /* \"#utility.yul\":4930:4945   */\n      revert\n        /* \"#utility.yul\":4957:5137   */\n    tag_124:\n        /* \"#utility.yul\":5005:5082   */\n      0x4e487b7100000000000000000000000000000000000000000000000000000000\n        /* \"#utility.yul\":5002:5003   */\n      0x00\n        /* \"#utility.yul\":4995:5083   */\n      mstore\n        /* \"#utility.yul\":5102:5106   */\n      0x32\n        /* \"#utility.yul\":5099:5100   */\n      0x04\n        /* \"#utility.yul\":5092:5107   */\n      mstore\n        /* \"#utility.yul\":5126:5130   */\n      0x24\n        /* \"#utility.yul\":5123:5124   */\n      0x00\n        /* \"#utility.yul\":5116:5131   */\n      revert\n        /* \"#utility.yul\":5266:5383   */\n    tag_214:\n        /* \"#utility.yul\":5375:5376   */\n      0x00\n        /* \"#utility.yul\":5372:5373   */\n      dup1\n        /* \"#utility.yul\":5365:5377   */\n      revert\n        /* \"#utility.yul\":5389:5511   */\n    tag_202:\n        /* \"#utility.yul\":5462:5486   */\n      tag_279\n        /* \"#utility.yul\":5480:5485   */\n      dup2\n        /* \"#utility.yul\":5462:5486   */\n      tag_234\n      jump\t// in\n    tag_279:\n        /* \"#utility.yul\":5455:5460   */\n      dup2\n        /* \"#utility.yul\":5452:5487   */\n      eq\n        /* \"#utility.yul\":5442:5505   */\n      tag_280\n      jumpi\n        /* \"#utility.yul\":5501:5502   */\n      0x00\n        /* \"#utility.yul\":5498:5499   */\n      dup1\n        /* \"#utility.yul\":5491:5503   */\n      revert\n        /* \"#utility.yul\":5442:5505   */\n    tag_280:\n        /* \"#utility.yul\":5389:5511   */\n      pop\n      jump\t// out\n        /* \"#utility.yul\":5517:5655   */\n    tag_206:\n        /* \"#utility.yul\":5598:5630   */\n      tag_282\n        /* \"#utility.yul\":5624:5629   */\n      dup2\n        /* \"#utility.yul\":5598:5630   */\n      tag_268\n      jump\t// in\n    tag_282:\n        /* \"#utility.yul\":5591:5596   */\n      dup2\n        /* \"#utility.yul\":5588:5631   */\n      eq\n        /* \"#utility.yul\":5578:5649   */\n      tag_283\n      jumpi\n        /* \"#utility.yul\":5645:5646   */\n      0x00\n        /* \"#utility.yul\":5642:5643   */\n      dup1\n        /* \"#utility.yul\":5635:5647   */\n      revert\n        /* \"#utility.yul\":5578:5649   */\n    tag_283:\n        /* \"#utility.yul\":5517:5655   */\n      pop\n      jump\t// out\n        /* \"#utility.yul\":5661:5783   */\n    tag_210:\n        /* \"#utility.yul\":5734:5758   */\n      tag_285\n        /* \"#utility.yul\":5752:5757   */\n      dup2\n        /* \"#utility.yul\":5734:5758   */\n      tag_238\n      jump\t// in\n    tag_285:\n        /* \"#utility.yul\":5727:5732   */\n      dup2\n        /* \"#utility.yul\":5724:5759   */\n      eq\n        /* \"#utility.yul\":5714:5777   */\n      tag_286\n      jumpi\n        /* \"#utility.yul\":5773:5774   */\n      0x00\n        /* \"#utility.yul\":5770:5771   */\n      dup1\n        /* \"#utility.yul\":5763:5775   */\n      revert\n        /* \"#utility.yul\":5714:5777   */\n    tag_286:\n        /* \"#utility.yul\":5661:5783   */\n      pop\n      jump\t// out\n\n    auxdata: 0xa2646970667358221220622e80bb4259d8447e2e18ac5dd1fb70db0791d983ed2636b7b131b10877008a64736f6c63430008070033\n}\n",
				"bytecode": {
					"linkReferences": {},
					"object": "608060405260006016556003601755600360185560046019556005601a556006601b556007601c556008601d556009601e55600a601f5534801561004257600080fd5b50610d59806100526000396000f3fe60806040526004361061012a5760003560e01c80638da5cb5b116100ab578063c2c496ec1161006f578063c2c496ec146103db578063d0679d3414610406578063ed2fa5ab14610422578063f02e48c31461044d578063f2aa82181461048c578063f8b2cb4f146104c95761012a565b80638da5cb5b146102f2578063a8bdb68b1461031d578063aacdfe6f14610348578063b4ad7fa914610385578063b69ef8a8146103b05761012a565b8063354f58c0116100f2578063354f58c014610206578063481c6a75146102435780635c8f6b561461026e578063721028ec146102ab5780637c134b14146102e85761012a565b80630c03a1a31461012f578063103347e71461015a57806320e731a11461018557806328780a44146101b05780632c9af64c146101db575b600080fd5b34801561013b57600080fd5b50610144610506565b6040516101519190610af7565b60405180910390f35b34801561016657600080fd5b5061016f61050c565b60405161017c9190610af7565b60405180910390f35b34801561019157600080fd5b5061019a610512565b6040516101a79190610af7565b60405180910390f35b3480156101bc57600080fd5b506101c5610518565b6040516101d29190610af7565b60405180910390f35b3480156101e757600080fd5b506101f061051e565b6040516101fd9190610af7565b60405180910390f35b34801561021257600080fd5b5061022d60048036038101906102289190610a3e565b610524565b60405161023a9190610af7565b60405180910390f35b34801561024f57600080fd5b50610258610582565b6040516102659190610adc565b60405180910390f35b34801561027a57600080fd5b5061029560048036038101906102909190610a3e565b6105a8565b6040516102a29190610af7565b60405180910390f35b3480156102b757600080fd5b506102d260048036038101906102cd9190610a3e565b6105bf565b6040516102df9190610af7565b60405180910390f35b6102f0610839565b005b3480156102fe57600080fd5b50610307610854565b6040516103149190610adc565b60405180910390f35b34801561032957600080fd5b50610332610878565b60405161033f9190610af7565b60405180910390f35b34801561035457600080fd5b5061036f600480360381019061036a9190610a3e565b61087e565b60405161037c9190610adc565b60405180910390f35b34801561039157600080fd5b5061039a6108b4565b6040516103a79190610af7565b60405180910390f35b3480156103bc57600080fd5b506103c56108ba565b6040516103d29190610af7565b60405180910390f35b3480156103e757600080fd5b506103f06108c0565b6040516103fd9190610af7565b60405180910390f35b610420600480360381019061041b91906109fe565b6108c6565b005b34801561042e57600080fd5b5061043761091e565b6040516104449190610af7565b60405180910390f35b34801561045957600080fd5b50610474600480360381019061046f9190610a6b565b610924565b60405161048393929190610b12565b60405180910390f35b34801561049857600080fd5b506104b360048036038101906104ae9190610a3e565b61093b565b6040516104c09190610adc565b60405180910390f35b3480156104d557600080fd5b506104f060048036038101906104eb91906109d1565b610971565b6040516104fd9190610af7565b60405180910390f35b601c5481565b601b5481565b601a5481565b60195481565b60175481565b600033600283600a811061053b5761053a610caa565b5b0160006101000a81548173ffffffffffffffffffffffffffffffffffffffff021916908373ffffffffffffffffffffffffffffffffffffffff160217905550819050919050565b600160009054906101000a900473ffffffffffffffffffffffffffffffffffffffff1681565b6000601754826105b89190610b9f565b9050919050565b600060fb8210156107bf5760338210156105e857601854826105e19190610b9f565b90506107ba565b6032821180156105f85750606582105b156106375760195460328361060d9190610bf9565b6106179190610b9f565b60185460326106269190610b9f565b6106309190610b49565b90506107b9565b6064821180156106475750609782105b1561069f57601a5460328361065c9190610bf9565b6106669190610b9f565b60195460326106759190610b9f565b60185460326106849190610b9f565b61068e9190610b49565b6106989190610b49565b90506107b8565b6096821180156106af575060c982105b1561072057601b546032836106c49190610bf9565b6106ce9190610b9f565b601a5460326106dd9190610b9f565b60195460326106ec9190610b9f565b60185460326106fb9190610b9f565b6107059190610b49565b61070f9190610b49565b6107199190610b49565b90506107b7565b60c882118015610730575060fb82105b156107b657601c546032836107459190610bf9565b61074f9190610b9f565b601b54603261075e9190610b9f565b601a54603261076d9190610b9f565b601954603261077c9190610b9f565b601854603261078b9190610b9f565b6107959190610b49565b61079f9190610b49565b6107a99190610b49565b6107b39190610b49565b90505b5b5b5b5b610834565b60fa821180156107d0575061015f82105b156107ea57601d54826107e39190610b9f565b9050610833565b61015e821180156107fc57506101c382105b1561081657601e548261080f9190610b9f565b9050610832565b6101c282111561083157601f548261082e9190610b9f565b90505b5b5b5b919050565b346016600082825461084b9190610b49565b92505081905550565b60008054906101000a900473ffffffffffffffffffffffffffffffffffffffff1681565b601f5481565b600281600a811061088e57600080fd5b016000915054906101000a900473ffffffffffffffffffffffffffffffffffffffff1681565b601d5481565b60165481565b60185481565b803410156108d357600080fd5b8173ffffffffffffffffffffffffffffffffffffffff166108fc829081150290604051600060405180830381858888f19350505050158015610919573d6000803e3d6000fd5b505050565b601e5481565b600080600085925084915083905093509350939050565b600c81600a811061094b57600080fd5b016000915054906101000a900473ffffffffffffffffffffffffffffffffffffffff1681565b60008173ffffffffffffffffffffffffffffffffffffffff16319050919050565b6000813590506109a181610cde565b92915050565b6000813590506109b681610cf5565b92915050565b6000813590506109cb81610d0c565b92915050565b6000602082840312156109e7576109e6610cd9565b5b60006109f584828501610992565b91505092915050565b60008060408385031215610a1557610a14610cd9565b5b6000610a23858286016109a7565b9250506020610a34858286016109bc565b9150509250929050565b600060208284031215610a5457610a53610cd9565b5b6000610a62848285016109bc565b91505092915050565b600080600060608486031215610a8457610a83610cd9565b5b6000610a92868287016109bc565b9350506020610aa3868287016109bc565b9250506040610ab4868287016109bc565b9150509250925092565b610ac781610c2d565b82525050565b610ad681610c71565b82525050565b6000602082019050610af16000830184610abe565b92915050565b6000602082019050610b0c6000830184610acd565b92915050565b6000606082019050610b276000830186610acd565b610b346020830185610acd565b610b416040830184610acd565b949350505050565b6000610b5482610c71565b9150610b5f83610c71565b9250827fffffffffffffffffffffffffffffffffffffffffffffffffffffffffffffffff03821115610b9457610b93610c7b565b5b828201905092915050565b6000610baa82610c71565b9150610bb583610c71565b9250817fffffffffffffffffffffffffffffffffffffffffffffffffffffffffffffffff0483118215151615610bee57610bed610c7b565b5b828202905092915050565b6000610c0482610c71565b9150610c0f83610c71565b925082821015610c2257610c21610c7b565b5b828203905092915050565b6000610c3882610c51565b9050919050565b6000610c4a82610c51565b9050919050565b600073ffffffffffffffffffffffffffffffffffffffff82169050919050565b6000819050919050565b7f4e487b7100000000000000000000000000000000000000000000000000000000600052601160045260246000fd5b7f4e487b7100000000000000000000000000000000000000000000000000000000600052603260045260246000fd5b600080fd5b610ce781610c2d565b8114610cf257600080fd5b50565b610cfe81610c3f565b8114610d0957600080fd5b50565b610d1581610c71565b8114610d2057600080fd5b5056fea2646970667358221220622e80bb4259d8447e2e18ac5dd1fb70db0791d983ed2636b7b131b10877008a64736f6c63430008070033",
					"opcodes": "PUSH1 0x80 PUSH1 0x40 MSTORE PUSH1 0x0 PUSH1 0x16 SSTORE PUSH1 0x3 PUSH1 0x17 SSTORE PUSH1 0x3 PUSH1 0x18 SSTORE PUSH1 0x4 PUSH1 0x19 SSTORE PUSH1 0x5 PUSH1 0x1A SSTORE PUSH1 0x6 PUSH1 0x1B SSTORE PUSH1 0x7 PUSH1 0x1C SSTORE PUSH1 0x8 PUSH1 0x1D SSTORE PUSH1 0x9 PUSH1 0x1E SSTORE PUSH1 0xA PUSH1 0x1F SSTORE CALLVALUE DUP1 ISZERO PUSH2 0x42 JUMPI PUSH1 0x0 DUP1 REVERT JUMPDEST POP PUSH2 0xD59 DUP1 PUSH2 0x52 PUSH1 0x0 CODECOPY PUSH1 0x0 RETURN INVALID PUSH1 0x80 PUSH1 0x40 MSTORE PUSH1 0x4 CALLDATASIZE LT PUSH2 0x12A JUMPI PUSH1 0x0 CALLDATALOAD PUSH1 0xE0 SHR DUP1 PUSH4 0x8DA5CB5B GT PUSH2 0xAB JUMPI DUP1 PUSH4 0xC2C496EC GT PUSH2 0x6F JUMPI DUP1 PUSH4 0xC2C496EC EQ PUSH2 0x3DB JUMPI DUP1 PUSH4 0xD0679D34 EQ PUSH2 0x406 JUMPI DUP1 PUSH4 0xED2FA5AB EQ PUSH2 0x422 JUMPI DUP1 PUSH4 0xF02E48C3 EQ PUSH2 0x44D JUMPI DUP1 PUSH4 0xF2AA8218 EQ PUSH2 0x48C JUMPI DUP1 PUSH4 0xF8B2CB4F EQ PUSH2 0x4C9 JUMPI PUSH2 0x12A JUMP JUMPDEST DUP1 PUSH4 0x8DA5CB5B EQ PUSH2 0x2F2 JUMPI DUP1 PUSH4 0xA8BDB68B EQ PUSH2 0x31D JUMPI DUP1 PUSH4 0xAACDFE6F EQ PUSH2 0x348 JUMPI DUP1 PUSH4 0xB4AD7FA9 EQ PUSH2 0x385 JUMPI DUP1 PUSH4 0xB69EF8A8 EQ PUSH2 0x3B0 JUMPI PUSH2 0x12A JUMP JUMPDEST DUP1 PUSH4 0x354F58C0 GT PUSH2 0xF2 JUMPI DUP1 PUSH4 0x354F58C0 EQ PUSH2 0x206 JUMPI DUP1 PUSH4 0x481C6A75 EQ PUSH2 0x243 JUMPI DUP1 PUSH4 0x5C8F6B56 EQ PUSH2 0x26E JUMPI DUP1 PUSH4 0x721028EC EQ PUSH2 0x2AB JUMPI DUP1 PUSH4 0x7C134B14 EQ PUSH2 0x2E8 JUMPI PUSH2 0x12A JUMP JUMPDEST DUP1 PUSH4 0xC03A1A3 EQ PUSH2 0x12F JUMPI DUP1 PUSH4 0x103347E7 EQ PUSH2 0x15A JUMPI DUP1 PUSH4 0x20E731A1 EQ PUSH2 0x185 JUMPI DUP1 PUSH4 0x28780A44 EQ PUSH2 0x1B0 JUMPI DUP1 PUSH4 0x2C9AF64C EQ PUSH2 0x1DB JUMPI JUMPDEST PUSH1 0x0 DUP1 REVERT JUMPDEST CALLVALUE DUP1 ISZERO PUSH2 0x13B JUMPI PUSH1 0x0 DUP1 REVERT JUMPDEST POP PUSH2 0x144 PUSH2 0x506 JUMP JUMPDEST PUSH1 0x40 MLOAD PUSH2 0x151 SWAP2 SWAP1 PUSH2 0xAF7 JUMP JUMPDEST PUSH1 0x40 MLOAD DUP1 SWAP2 SUB SWAP1 RETURN JUMPDEST CALLVALUE DUP1 ISZERO PUSH2 0x166 JUMPI PUSH1 0x0 DUP1 REVERT JUMPDEST POP PUSH2 0x16F PUSH2 0x50C JUMP JUMPDEST PUSH1 0x40 MLOAD PUSH2 0x17C SWAP2 SWAP1 PUSH2 0xAF7 JUMP JUMPDEST PUSH1 0x40 MLOAD DUP1 SWAP2 SUB SWAP1 RETURN JUMPDEST CALLVALUE DUP1 ISZERO PUSH2 0x191 JUMPI PUSH1 0x0 DUP1 REVERT JUMPDEST POP PUSH2 0x19A PUSH2 0x512 JUMP JUMPDEST PUSH1 0x40 MLOAD PUSH2 0x1A7 SWAP2 SWAP1 PUSH2 0xAF7 JUMP JUMPDEST PUSH1 0x40 MLOAD DUP1 SWAP2 SUB SWAP1 RETURN JUMPDEST CALLVALUE DUP1 ISZERO PUSH2 0x1BC JUMPI PUSH1 0x0 DUP1 REVERT JUMPDEST POP PUSH2 0x1C5 PUSH2 0x518 JUMP JUMPDEST PUSH1 0x40 MLOAD PUSH2 0x1D2 SWAP2 SWAP1 PUSH2 0xAF7 JUMP JUMPDEST PUSH1 0x40 MLOAD DUP1 SWAP2 SUB SWAP1 RETURN JUMPDEST CALLVALUE DUP1 ISZERO PUSH2 0x1E7 JUMPI PUSH1 0x0 DUP1 REVERT JUMPDEST POP PUSH2 0x1F0 PUSH2 0x51E JUMP JUMPDEST PUSH1 0x40 MLOAD PUSH2 0x1FD SWAP2 SWAP1 PUSH2 0xAF7 JUMP JUMPDEST PUSH1 0x40 MLOAD DUP1 SWAP2 SUB SWAP1 RETURN JUMPDEST CALLVALUE DUP1 ISZERO PUSH2 0x212 JUMPI PUSH1 0x0 DUP1 REVERT JUMPDEST POP PUSH2 0x22D PUSH1 0x4 DUP1 CALLDATASIZE SUB DUP2 ADD SWAP1 PUSH2 0x228 SWAP2 SWAP1 PUSH2 0xA3E JUMP JUMPDEST PUSH2 0x524 JUMP JUMPDEST PUSH1 0x40 MLOAD PUSH2 0x23A SWAP2 SWAP1 PUSH2 0xAF7 JUMP JUMPDEST PUSH1 0x40 MLOAD DUP1 SWAP2 SUB SWAP1 RETURN JUMPDEST CALLVALUE DUP1 ISZERO PUSH2 0x24F JUMPI PUSH1 0x0 DUP1 REVERT JUMPDEST POP PUSH2 0x258 PUSH2 0x582 JUMP JUMPDEST PUSH1 0x40 MLOAD PUSH2 0x265 SWAP2 SWAP1 PUSH2 0xADC JUMP JUMPDEST PUSH1 0x40 MLOAD DUP1 SWAP2 SUB SWAP1 RETURN JUMPDEST CALLVALUE DUP1 ISZERO PUSH2 0x27A JUMPI PUSH1 0x0 DUP1 REVERT JUMPDEST POP PUSH2 0x295 PUSH1 0x4 DUP1 CALLDATASIZE SUB DUP2 ADD SWAP1 PUSH2 0x290 SWAP2 SWAP1 PUSH2 0xA3E JUMP JUMPDEST PUSH2 0x5A8 JUMP JUMPDEST PUSH1 0x40 MLOAD PUSH2 0x2A2 SWAP2 SWAP1 PUSH2 0xAF7 JUMP JUMPDEST PUSH1 0x40 MLOAD DUP1 SWAP2 SUB SWAP1 RETURN JUMPDEST CALLVALUE DUP1 ISZERO PUSH2 0x2B7 JUMPI PUSH1 0x0 DUP1 REVERT JUMPDEST POP PUSH2 0x2D2 PUSH1 0x4 DUP1 CALLDATASIZE SUB DUP2 ADD SWAP1 PUSH2 0x2CD SWAP2 SWAP1 PUSH2 0xA3E JUMP JUMPDEST PUSH2 0x5BF JUMP JUMPDEST PUSH1 0x40 MLOAD PUSH2 0x2DF SWAP2 SWAP1 PUSH2 0xAF7 JUMP JUMPDEST PUSH1 0x40 MLOAD DUP1 SWAP2 SUB SWAP1 RETURN JUMPDEST PUSH2 0x2F0 PUSH2 0x839 JUMP JUMPDEST STOP JUMPDEST CALLVALUE DUP1 ISZERO PUSH2 0x2FE JUMPI PUSH1 0x0 DUP1 REVERT JUMPDEST POP PUSH2 0x307 PUSH2 0x854 JUMP JUMPDEST PUSH1 0x40 MLOAD PUSH2 0x314 SWAP2 SWAP1 PUSH2 0xADC JUMP JUMPDEST PUSH1 0x40 MLOAD DUP1 SWAP2 SUB SWAP1 RETURN JUMPDEST CALLVALUE DUP1 ISZERO PUSH2 0x329 JUMPI PUSH1 0x0 DUP1 REVERT JUMPDEST POP PUSH2 0x332 PUSH2 0x878 JUMP JUMPDEST PUSH1 0x40 MLOAD PUSH2 0x33F SWAP2 SWAP1 PUSH2 0xAF7 JUMP JUMPDEST PUSH1 0x40 MLOAD DUP1 SWAP2 SUB SWAP1 RETURN JUMPDEST CALLVALUE DUP1 ISZERO PUSH2 0x354 JUMPI PUSH1 0x0 DUP1 REVERT JUMPDEST POP PUSH2 0x36F PUSH1 0x4 DUP1 CALLDATASIZE SUB DUP2 ADD SWAP1 PUSH2 0x36A SWAP2 SWAP1 PUSH2 0xA3E JUMP JUMPDEST PUSH2 0x87E JUMP JUMPDEST PUSH1 0x40 MLOAD PUSH2 0x37C SWAP2 SWAP1 PUSH2 0xADC JUMP JUMPDEST PUSH1 0x40 MLOAD DUP1 SWAP2 SUB SWAP1 RETURN JUMPDEST CALLVALUE DUP1 ISZERO PUSH2 0x391 JUMPI PUSH1 0x0 DUP1 REVERT JUMPDEST POP PUSH2 0x39A PUSH2 0x8B4 JUMP JUMPDEST PUSH1 0x40 MLOAD PUSH2 0x3A7 SWAP2 SWAP1 PUSH2 0xAF7 JUMP JUMPDEST PUSH1 0x40 MLOAD DUP1 SWAP2 SUB SWAP1 RETURN JUMPDEST CALLVALUE DUP1 ISZERO PUSH2 0x3BC JUMPI PUSH1 0x0 DUP1 REVERT JUMPDEST POP PUSH2 0x3C5 PUSH2 0x8BA JUMP JUMPDEST PUSH1 0x40 MLOAD PUSH2 0x3D2 SWAP2 SWAP1 PUSH2 0xAF7 JUMP JUMPDEST PUSH1 0x40 MLOAD DUP1 SWAP2 SUB SWAP1 RETURN JUMPDEST CALLVALUE DUP1 ISZERO PUSH2 0x3E7 JUMPI PUSH1 0x0 DUP1 REVERT JUMPDEST POP PUSH2 0x3F0 PUSH2 0x8C0 JUMP JUMPDEST PUSH1 0x40 MLOAD PUSH2 0x3FD SWAP2 SWAP1 PUSH2 0xAF7 JUMP JUMPDEST PUSH1 0x40 MLOAD DUP1 SWAP2 SUB SWAP1 RETURN JUMPDEST PUSH2 0x420 PUSH1 0x4 DUP1 CALLDATASIZE SUB DUP2 ADD SWAP1 PUSH2 0x41B SWAP2 SWAP1 PUSH2 0x9FE JUMP JUMPDEST PUSH2 0x8C6 JUMP JUMPDEST STOP JUMPDEST CALLVALUE DUP1 ISZERO PUSH2 0x42E JUMPI PUSH1 0x0 DUP1 REVERT JUMPDEST POP PUSH2 0x437 PUSH2 0x91E JUMP JUMPDEST PUSH1 0x40 MLOAD PUSH2 0x444 SWAP2 SWAP1 PUSH2 0xAF7 JUMP JUMPDEST PUSH1 0x40 MLOAD DUP1 SWAP2 SUB SWAP1 RETURN JUMPDEST CALLVALUE DUP1 ISZERO PUSH2 0x459 JUMPI PUSH1 0x0 DUP1 REVERT JUMPDEST POP PUSH2 0x474 PUSH1 0x4 DUP1 CALLDATASIZE SUB DUP2 ADD SWAP1 PUSH2 0x46F SWAP2 SWAP1 PUSH2 0xA6B JUMP JUMPDEST PUSH2 0x924 JUMP JUMPDEST PUSH1 0x40 MLOAD PUSH2 0x483 SWAP4 SWAP3 SWAP2 SWAP1 PUSH2 0xB12 JUMP JUMPDEST PUSH1 0x40 MLOAD DUP1 SWAP2 SUB SWAP1 RETURN JUMPDEST CALLVALUE DUP1 ISZERO PUSH2 0x498 JUMPI PUSH1 0x0 DUP1 REVERT JUMPDEST POP PUSH2 0x4B3 PUSH1 0x4 DUP1 CALLDATASIZE SUB DUP2 ADD SWAP1 PUSH2 0x4AE SWAP2 SWAP1 PUSH2 0xA3E JUMP JUMPDEST PUSH2 0x93B JUMP JUMPDEST PUSH1 0x40 MLOAD PUSH2 0x4C0 SWAP2 SWAP1 PUSH2 0xADC JUMP JUMPDEST PUSH1 0x40 MLOAD DUP1 SWAP2 SUB SWAP1 RETURN JUMPDEST CALLVALUE DUP1 ISZERO PUSH2 0x4D5 JUMPI PUSH1 0x0 DUP1 REVERT JUMPDEST POP PUSH2 0x4F0 PUSH1 0x4 DUP1 CALLDATASIZE SUB DUP2 ADD SWAP1 PUSH2 0x4EB SWAP2 SWAP1 PUSH2 0x9D1 JUMP JUMPDEST PUSH2 0x971 JUMP JUMPDEST PUSH1 0x40 MLOAD PUSH2 0x4FD SWAP2 SWAP1 PUSH2 0xAF7 JUMP JUMPDEST PUSH1 0x40 MLOAD DUP1 SWAP2 SUB SWAP1 RETURN JUMPDEST PUSH1 0x1C SLOAD DUP2 JUMP JUMPDEST PUSH1 0x1B SLOAD DUP2 JUMP JUMPDEST PUSH1 0x1A SLOAD DUP2 JUMP JUMPDEST PUSH1 0x19 SLOAD DUP2 JUMP JUMPDEST PUSH1 0x17 SLOAD DUP2 JUMP JUMPDEST PUSH1 0x0 CALLER PUSH1 0x2 DUP4 PUSH1 0xA DUP2 LT PUSH2 0x53B JUMPI PUSH2 0x53A PUSH2 0xCAA JUMP JUMPDEST JUMPDEST ADD PUSH1 0x0 PUSH2 0x100 EXP DUP2 SLOAD DUP2 PUSH20 0xFFFFFFFFFFFFFFFFFFFFFFFFFFFFFFFFFFFFFFFF MUL NOT AND SWAP1 DUP4 PUSH20 0xFFFFFFFFFFFFFFFFFFFFFFFFFFFFFFFFFFFFFFFF AND MUL OR SWAP1 SSTORE POP DUP2 SWAP1 POP SWAP2 SWAP1 POP JUMP JUMPDEST PUSH1 0x1 PUSH1 0x0 SWAP1 SLOAD SWAP1 PUSH2 0x100 EXP SWAP1 DIV PUSH20 0xFFFFFFFFFFFFFFFFFFFFFFFFFFFFFFFFFFFFFFFF AND DUP2 JUMP JUMPDEST PUSH1 0x0 PUSH1 0x17 SLOAD DUP3 PUSH2 0x5B8 SWAP2 SWAP1 PUSH2 0xB9F JUMP JUMPDEST SWAP1 POP SWAP2 SWAP1 POP JUMP JUMPDEST PUSH1 0x0 PUSH1 0xFB DUP3 LT ISZERO PUSH2 0x7BF JUMPI PUSH1 0x33 DUP3 LT ISZERO PUSH2 0x5E8 JUMPI PUSH1 0x18 SLOAD DUP3 PUSH2 0x5E1 SWAP2 SWAP1 PUSH2 0xB9F JUMP JUMPDEST SWAP1 POP PUSH2 0x7BA JUMP JUMPDEST PUSH1 0x32 DUP3 GT DUP1 ISZERO PUSH2 0x5F8 JUMPI POP PUSH1 0x65 DUP3 LT JUMPDEST ISZERO PUSH2 0x637 JUMPI PUSH1 0x19 SLOAD PUSH1 0x32 DUP4 PUSH2 0x60D SWAP2 SWAP1 PUSH2 0xBF9 JUMP JUMPDEST PUSH2 0x617 SWAP2 SWAP1 PUSH2 0xB9F JUMP JUMPDEST PUSH1 0x18 SLOAD PUSH1 0x32 PUSH2 0x626 SWAP2 SWAP1 PUSH2 0xB9F JUMP JUMPDEST PUSH2 0x630 SWAP2 SWAP1 PUSH2 0xB49 JUMP JUMPDEST SWAP1 POP PUSH2 0x7B9 JUMP JUMPDEST PUSH1 0x64 DUP3 GT DUP1 ISZERO PUSH2 0x647 JUMPI POP PUSH1 0x97 DUP3 LT JUMPDEST ISZERO PUSH2 0x69F JUMPI PUSH1 0x1A SLOAD PUSH1 0x32 DUP4 PUSH2 0x65C SWAP2 SWAP1 PUSH2 0xBF9 JUMP JUMPDEST PUSH2 0x666 SWAP2 SWAP1 PUSH2 0xB9F JUMP JUMPDEST PUSH1 0x19 SLOAD PUSH1 0x32 PUSH2 0x675 SWAP2 SWAP1 PUSH2 0xB9F JUMP JUMPDEST PUSH1 0x18 SLOAD PUSH1 0x32 PUSH2 0x684 SWAP2 SWAP1 PUSH2 0xB9F JUMP JUMPDEST PUSH2 0x68E SWAP2 SWAP1 PUSH2 0xB49 JUMP JUMPDEST PUSH2 0x698 SWAP2 SWAP1 PUSH2 0xB49 JUMP JUMPDEST SWAP1 POP PUSH2 0x7B8 JUMP JUMPDEST PUSH1 0x96 DUP3 GT DUP1 ISZERO PUSH2 0x6AF JUMPI POP PUSH1 0xC9 DUP3 LT JUMPDEST ISZERO PUSH2 0x720 JUMPI PUSH1 0x1B SLOAD PUSH1 0x32 DUP4 PUSH2 0x6C4 SWAP2 SWAP1 PUSH2 0xBF9 JUMP JUMPDEST PUSH2 0x6CE SWAP2 SWAP1 PUSH2 0xB9F JUMP JUMPDEST PUSH1 0x1A SLOAD PUSH1 0x32 PUSH2 0x6DD SWAP2 SWAP1 PUSH2 0xB9F JUMP JUMPDEST PUSH1 0x19 SLOAD PUSH1 0x32 PUSH2 0x6EC SWAP2 SWAP1 PUSH2 0xB9F JUMP JUMPDEST PUSH1 0x18 SLOAD PUSH1 0x32 PUSH2 0x6FB SWAP2 SWAP1 PUSH2 0xB9F JUMP JUMPDEST PUSH2 0x705 SWAP2 SWAP1 PUSH2 0xB49 JUMP JUMPDEST PUSH2 0x70F SWAP2 SWAP1 PUSH2 0xB49 JUMP JUMPDEST PUSH2 0x719 SWAP2 SWAP1 PUSH2 0xB49 JUMP JUMPDEST SWAP1 POP PUSH2 0x7B7 JUMP JUMPDEST PUSH1 0xC8 DUP3 GT DUP1 ISZERO PUSH2 0x730 JUMPI POP PUSH1 0xFB DUP3 LT JUMPDEST ISZERO PUSH2 0x7B6 JUMPI PUSH1 0x1C SLOAD PUSH1 0x32 DUP4 PUSH2 0x745 SWAP2 SWAP1 PUSH2 0xBF9 JUMP JUMPDEST PUSH2 0x74F SWAP2 SWAP1 PUSH2 0xB9F JUMP JUMPDEST PUSH1 0x1B SLOAD PUSH1 0x32 PUSH2 0x75E SWAP2 SWAP1 PUSH2 0xB9F JUMP JUMPDEST PUSH1 0x1A SLOAD PUSH1 0x32 PUSH2 0x76D SWAP2 SWAP1 PUSH2 0xB9F JUMP JUMPDEST PUSH1 0x19 SLOAD PUSH1 0x32 PUSH2 0x77C SWAP2 SWAP1 PUSH2 0xB9F JUMP JUMPDEST PUSH1 0x18 SLOAD PUSH1 0x32 PUSH2 0x78B SWAP2 SWAP1 PUSH2 0xB9F JUMP JUMPDEST PUSH2 0x795 SWAP2 SWAP1 PUSH2 0xB49 JUMP JUMPDEST PUSH2 0x79F SWAP2 SWAP1 PUSH2 0xB49 JUMP JUMPDEST PUSH2 0x7A9 SWAP2 SWAP1 PUSH2 0xB49 JUMP JUMPDEST PUSH2 0x7B3 SWAP2 SWAP1 PUSH2 0xB49 JUMP JUMPDEST SWAP1 POP JUMPDEST JUMPDEST JUMPDEST JUMPDEST JUMPDEST PUSH2 0x834 JUMP JUMPDEST PUSH1 0xFA DUP3 GT DUP1 ISZERO PUSH2 0x7D0 JUMPI POP PUSH2 0x15F DUP3 LT JUMPDEST ISZERO PUSH2 0x7EA JUMPI PUSH1 0x1D SLOAD DUP3 PUSH2 0x7E3 SWAP2 SWAP1 PUSH2 0xB9F JUMP JUMPDEST SWAP1 POP PUSH2 0x833 JUMP JUMPDEST PUSH2 0x15E DUP3 GT DUP1 ISZERO PUSH2 0x7FC JUMPI POP PUSH2 0x1C3 DUP3 LT JUMPDEST ISZERO PUSH2 0x816 JUMPI PUSH1 0x1E SLOAD DUP3 PUSH2 0x80F SWAP2 SWAP1 PUSH2 0xB9F JUMP JUMPDEST SWAP1 POP PUSH2 0x832 JUMP JUMPDEST PUSH2 0x1C2 DUP3 GT ISZERO PUSH2 0x831 JUMPI PUSH1 0x1F SLOAD DUP3 PUSH2 0x82E SWAP2 SWAP1 PUSH2 0xB9F JUMP JUMPDEST SWAP1 POP JUMPDEST JUMPDEST JUMPDEST JUMPDEST SWAP2 SWAP1 POP JUMP JUMPDEST CALLVALUE PUSH1 0x16 PUSH1 0x0 DUP3 DUP3 SLOAD PUSH2 0x84B SWAP2 SWAP1 PUSH2 0xB49 JUMP JUMPDEST SWAP3 POP POP DUP2 SWAP1 SSTORE POP JUMP JUMPDEST PUSH1 0x0 DUP1 SLOAD SWAP1 PUSH2 0x100 EXP SWAP1 DIV PUSH20 0xFFFFFFFFFFFFFFFFFFFFFFFFFFFFFFFFFFFFFFFF AND DUP2 JUMP JUMPDEST PUSH1 0x1F SLOAD DUP2 JUMP JUMPDEST PUSH1 0x2 DUP2 PUSH1 0xA DUP2 LT PUSH2 0x88E JUMPI PUSH1 0x0 DUP1 REVERT JUMPDEST ADD PUSH1 0x0 SWAP2 POP SLOAD SWAP1 PUSH2 0x100 EXP SWAP1 DIV PUSH20 0xFFFFFFFFFFFFFFFFFFFFFFFFFFFFFFFFFFFFFFFF AND DUP2 JUMP JUMPDEST PUSH1 0x1D SLOAD DUP2 JUMP JUMPDEST PUSH1 0x16 SLOAD DUP2 JUMP JUMPDEST PUSH1 0x18 SLOAD DUP2 JUMP JUMPDEST DUP1 CALLVALUE LT ISZERO PUSH2 0x8D3 JUMPI PUSH1 0x0 DUP1 REVERT JUMPDEST DUP2 PUSH20 0xFFFFFFFFFFFFFFFFFFFFFFFFFFFFFFFFFFFFFFFF AND PUSH2 0x8FC DUP3 SWAP1 DUP2 ISZERO MUL SWAP1 PUSH1 0x40 MLOAD PUSH1 0x0 PUSH1 0x40 MLOAD DUP1 DUP4 SUB DUP2 DUP6 DUP9 DUP9 CALL SWAP4 POP POP POP POP ISZERO DUP1 ISZERO PUSH2 0x919 JUMPI RETURNDATASIZE PUSH1 0x0 DUP1 RETURNDATACOPY RETURNDATASIZE PUSH1 0x0 REVERT JUMPDEST POP POP POP JUMP JUMPDEST PUSH1 0x1E SLOAD DUP2 JUMP JUMPDEST PUSH1 0x0 DUP1 PUSH1 0x0 DUP6 SWAP3 POP DUP5 SWAP2 POP DUP4 SWAP1 POP SWAP4 POP SWAP4 POP SWAP4 SWAP1 POP JUMP JUMPDEST PUSH1 0xC DUP2 PUSH1 0xA DUP2 LT PUSH2 0x94B JUMPI PUSH1 0x0 DUP1 REVERT JUMPDEST ADD PUSH1 0x0 SWAP2 POP SLOAD SWAP1 PUSH2 0x100 EXP SWAP1 DIV PUSH20 0xFFFFFFFFFFFFFFFFFFFFFFFFFFFFFFFFFFFFFFFF AND DUP2 JUMP JUMPDEST PUSH1 0x0 DUP2 PUSH20 0xFFFFFFFFFFFFFFFFFFFFFFFFFFFFFFFFFFFFFFFF AND BALANCE SWAP1 POP SWAP2 SWAP1 POP JUMP JUMPDEST PUSH1 0x0 DUP2 CALLDATALOAD SWAP1 POP PUSH2 0x9A1 DUP2 PUSH2 0xCDE JUMP JUMPDEST SWAP3 SWAP2 POP POP JUMP JUMPDEST PUSH1 0x0 DUP2 CALLDATALOAD SWAP1 POP PUSH2 0x9B6 DUP2 PUSH2 0xCF5 JUMP JUMPDEST SWAP3 SWAP2 POP POP JUMP JUMPDEST PUSH1 0x0 DUP2 CALLDATALOAD SWAP1 POP PUSH2 0x9CB DUP2 PUSH2 0xD0C JUMP JUMPDEST SWAP3 SWAP2 POP POP JUMP JUMPDEST PUSH1 0x0 PUSH1 0x20 DUP3 DUP5 SUB SLT ISZERO PUSH2 0x9E7 JUMPI PUSH2 0x9E6 PUSH2 0xCD9 JUMP JUMPDEST JUMPDEST PUSH1 0x0 PUSH2 0x9F5 DUP5 DUP3 DUP6 ADD PUSH2 0x992 JUMP JUMPDEST SWAP2 POP POP SWAP3 SWAP2 POP POP JUMP JUMPDEST PUSH1 0x0 DUP1 PUSH1 0x40 DUP4 DUP6 SUB SLT ISZERO PUSH2 0xA15 JUMPI PUSH2 0xA14 PUSH2 0xCD9 JUMP JUMPDEST JUMPDEST PUSH1 0x0 PUSH2 0xA23 DUP6 DUP3 DUP7 ADD PUSH2 0x9A7 JUMP JUMPDEST SWAP3 POP POP PUSH1 0x20 PUSH2 0xA34 DUP6 DUP3 DUP7 ADD PUSH2 0x9BC JUMP JUMPDEST SWAP2 POP POP SWAP3 POP SWAP3 SWAP1 POP JUMP JUMPDEST PUSH1 0x0 PUSH1 0x20 DUP3 DUP5 SUB SLT ISZERO PUSH2 0xA54 JUMPI PUSH2 0xA53 PUSH2 0xCD9 JUMP JUMPDEST JUMPDEST PUSH1 0x0 PUSH2 0xA62 DUP5 DUP3 DUP6 ADD PUSH2 0x9BC JUMP JUMPDEST SWAP2 POP POP SWAP3 SWAP2 POP POP JUMP JUMPDEST PUSH1 0x0 DUP1 PUSH1 0x0 PUSH1 0x60 DUP5 DUP7 SUB SLT ISZERO PUSH2 0xA84 JUMPI PUSH2 0xA83 PUSH2 0xCD9 JUMP JUMPDEST JUMPDEST PUSH1 0x0 PUSH2 0xA92 DUP7 DUP3 DUP8 ADD PUSH2 0x9BC JUMP JUMPDEST SWAP4 POP POP PUSH1 0x20 PUSH2 0xAA3 DUP7 DUP3 DUP8 ADD PUSH2 0x9BC JUMP JUMPDEST SWAP3 POP POP PUSH1 0x40 PUSH2 0xAB4 DUP7 DUP3 DUP8 ADD PUSH2 0x9BC JUMP JUMPDEST SWAP2 POP POP SWAP3 POP SWAP3 POP SWAP3 JUMP JUMPDEST PUSH2 0xAC7 DUP2 PUSH2 0xC2D JUMP JUMPDEST DUP3 MSTORE POP POP JUMP JUMPDEST PUSH2 0xAD6 DUP2 PUSH2 0xC71 JUMP JUMPDEST DUP3 MSTORE POP POP JUMP JUMPDEST PUSH1 0x0 PUSH1 0x20 DUP3 ADD SWAP1 POP PUSH2 0xAF1 PUSH1 0x0 DUP4 ADD DUP5 PUSH2 0xABE JUMP JUMPDEST SWAP3 SWAP2 POP POP JUMP JUMPDEST PUSH1 0x0 PUSH1 0x20 DUP3 ADD SWAP1 POP PUSH2 0xB0C PUSH1 0x0 DUP4 ADD DUP5 PUSH2 0xACD JUMP JUMPDEST SWAP3 SWAP2 POP POP JUMP JUMPDEST PUSH1 0x0 PUSH1 0x60 DUP3 ADD SWAP1 POP PUSH2 0xB27 PUSH1 0x0 DUP4 ADD DUP7 PUSH2 0xACD JUMP JUMPDEST PUSH2 0xB34 PUSH1 0x20 DUP4 ADD DUP6 PUSH2 0xACD JUMP JUMPDEST PUSH2 0xB41 PUSH1 0x40 DUP4 ADD DUP5 PUSH2 0xACD JUMP JUMPDEST SWAP5 SWAP4 POP POP POP POP JUMP JUMPDEST PUSH1 0x0 PUSH2 0xB54 DUP3 PUSH2 0xC71 JUMP JUMPDEST SWAP2 POP PUSH2 0xB5F DUP4 PUSH2 0xC71 JUMP JUMPDEST SWAP3 POP DUP3 PUSH32 0xFFFFFFFFFFFFFFFFFFFFFFFFFFFFFFFFFFFFFFFFFFFFFFFFFFFFFFFFFFFFFFFF SUB DUP3 GT ISZERO PUSH2 0xB94 JUMPI PUSH2 0xB93 PUSH2 0xC7B JUMP JUMPDEST JUMPDEST DUP3 DUP3 ADD SWAP1 POP SWAP3 SWAP2 POP POP JUMP JUMPDEST PUSH1 0x0 PUSH2 0xBAA DUP3 PUSH2 0xC71 JUMP JUMPDEST SWAP2 POP PUSH2 0xBB5 DUP4 PUSH2 0xC71 JUMP JUMPDEST SWAP3 POP DUP2 PUSH32 0xFFFFFFFFFFFFFFFFFFFFFFFFFFFFFFFFFFFFFFFFFFFFFFFFFFFFFFFFFFFFFFFF DIV DUP4 GT DUP3 ISZERO ISZERO AND ISZERO PUSH2 0xBEE JUMPI PUSH2 0xBED PUSH2 0xC7B JUMP JUMPDEST JUMPDEST DUP3 DUP3 MUL SWAP1 POP SWAP3 SWAP2 POP POP JUMP JUMPDEST PUSH1 0x0 PUSH2 0xC04 DUP3 PUSH2 0xC71 JUMP JUMPDEST SWAP2 POP PUSH2 0xC0F DUP4 PUSH2 0xC71 JUMP JUMPDEST SWAP3 POP DUP3 DUP3 LT ISZERO PUSH2 0xC22 JUMPI PUSH2 0xC21 PUSH2 0xC7B JUMP JUMPDEST JUMPDEST DUP3 DUP3 SUB SWAP1 POP SWAP3 SWAP2 POP POP JUMP JUMPDEST PUSH1 0x0 PUSH2 0xC38 DUP3 PUSH2 0xC51 JUMP JUMPDEST SWAP1 POP SWAP2 SWAP1 POP JUMP JUMPDEST PUSH1 0x0 PUSH2 0xC4A DUP3 PUSH2 0xC51 JUMP JUMPDEST SWAP1 POP SWAP2 SWAP1 POP JUMP JUMPDEST PUSH1 0x0 PUSH20 0xFFFFFFFFFFFFFFFFFFFFFFFFFFFFFFFFFFFFFFFF DUP3 AND SWAP1 POP SWAP2 SWAP1 POP JUMP JUMPDEST PUSH1 0x0 DUP2 SWAP1 POP SWAP2 SWAP1 POP JUMP JUMPDEST PUSH32 0x4E487B7100000000000000000000000000000000000000000000000000000000 PUSH1 0x0 MSTORE PUSH1 0x11 PUSH1 0x4 MSTORE PUSH1 0x24 PUSH1 0x0 REVERT JUMPDEST PUSH32 0x4E487B7100000000000000000000000000000000000000000000000000000000 PUSH1 0x0 MSTORE PUSH1 0x32 PUSH1 0x4 MSTORE PUSH1 0x24 PUSH1 0x0 REVERT JUMPDEST PUSH1 0x0 DUP1 REVERT JUMPDEST PUSH2 0xCE7 DUP2 PUSH2 0xC2D JUMP JUMPDEST DUP2 EQ PUSH2 0xCF2 JUMPI PUSH1 0x0 DUP1 REVERT JUMPDEST POP JUMP JUMPDEST PUSH2 0xCFE DUP2 PUSH2 0xC3F JUMP JUMPDEST DUP2 EQ PUSH2 0xD09 JUMPI PUSH1 0x0 DUP1 REVERT JUMPDEST POP JUMP JUMPDEST PUSH2 0xD15 DUP2 PUSH2 0xC71 JUMP JUMPDEST DUP2 EQ PUSH2 0xD20 JUMPI PUSH1 0x0 DUP1 REVERT JUMPDEST POP JUMP INVALID LOG2 PUSH5 0x6970667358 0x22 SLT KECCAK256 PUSH3 0x2E80BB TIMESTAMP MSIZE 0xD8 DIFFICULTY PUSH31 0x2E18AC5DD1FB70DB0791D983ED2636B7B131B10877008A64736F6C63430008 SMOD STOP CALLER "
				},
				"gasEstimates": {
					"creation": {
						"codeDepositCost": "683400",
						"executionCost": "204675",
						"totalCost": "888075"
					},
					"external": {
						"balCheck()": "infinite",
						"balance()": "2540",
						"btc1()": "2451",
						"btc2()": "2519",
						"btc3()": "2497",
						"btc4()": "2475",
						"btc5()": "2453",
						"btc6()": "2518",
						"btc7()": "2495",
						"btc8()": "2474",
						"btp()": "2541",
						"buyers(uint256)": "2915",
						"getBalance(address)": "3389",
						"getConsumerTariff(uint256)": "infinite",
						"getProsumerTariff(uint256)": "infinite",
						"getnPnCnEV(uint256,uint256,uint256)": "infinite",
						"manager()": "2559",
						"owner()": "2534",
						"seller(uint256)": "2872",
						"sellerID(uint256)": "infinite",
						"send(address,uint256)": "infinite"
					}
				},
				"methodIdentifiers": {
					"balCheck()": "7c134b14",
					"balance()": "b69ef8a8",
					"btc1()": "c2c496ec",
					"btc2()": "28780a44",
					"btc3()": "20e731a1",
					"btc4()": "103347e7",
					"btc5()": "0c03a1a3",
					"btc6()": "b4ad7fa9",
					"btc7()": "ed2fa5ab",
					"btc8()": "a8bdb68b",
					"btp()": "2c9af64c",
					"buyers(uint256)": "f2aa8218",
					"getBalance(address)": "f8b2cb4f",
					"getConsumerTariff(uint256)": "721028ec",
					"getProsumerTariff(uint256)": "5c8f6b56",
					"getnPnCnEV(uint256,uint256,uint256)": "f02e48c3",
					"manager()": "481c6a75",
					"owner()": "8da5cb5b",
					"seller(uint256)": "aacdfe6f",
					"sellerID(uint256)": "354f58c0",
					"send(address,uint256)": "d0679d34"
				}
			},
			"storageLayout": {
				"storage": [
					{
						"astId": 3,
						"contract": "eth based/truffle/contracts/FLIR_Contract.sol:FLIRContract",
						"label": "owner",
						"offset": 0,
						"slot": "0",
						"type": "t_address"
					},
					{
						"astId": 5,
						"contract": "eth based/truffle/contracts/FLIR_Contract.sol:FLIRContract",
						"label": "manager",
						"offset": 0,
						"slot": "1",
						"type": "t_address"
					},
					{
						"astId": 9,
						"contract": "eth based/truffle/contracts/FLIR_Contract.sol:FLIRContract",
						"label": "seller",
						"offset": 0,
						"slot": "2",
						"type": "t_array(t_address)10_storage"
					},
					{
						"astId": 13,
						"contract": "eth based/truffle/contracts/FLIR_Contract.sol:FLIRContract",
						"label": "buyers",
						"offset": 0,
						"slot": "12",
						"type": "t_array(t_address)10_storage"
					},
					{
						"astId": 16,
						"contract": "eth based/truffle/contracts/FLIR_Contract.sol:FLIRContract",
						"label": "balance",
						"offset": 0,
						"slot": "22",
						"type": "t_uint256"
					},
					{
						"astId": 19,
						"contract": "eth based/truffle/contracts/FLIR_Contract.sol:FLIRContract",
						"label": "btp",
						"offset": 0,
						"slot": "23",
						"type": "t_uint256"
					},
					{
						"astId": 22,
						"contract": "eth based/truffle/contracts/FLIR_Contract.sol:FLIRContract",
						"label": "btc1",
						"offset": 0,
						"slot": "24",
						"type": "t_uint256"
					},
					{
						"astId": 25,
						"contract": "eth based/truffle/contracts/FLIR_Contract.sol:FLIRContract",
						"label": "btc2",
						"offset": 0,
						"slot": "25",
						"type": "t_uint256"
					},
					{
						"astId": 28,
						"contract": "eth based/truffle/contracts/FLIR_Contract.sol:FLIRContract",
						"label": "btc3",
						"offset": 0,
						"slot": "26",
						"type": "t_uint256"
					},
					{
						"astId": 31,
						"contract": "eth based/truffle/contracts/FLIR_Contract.sol:FLIRContract",
						"label": "btc4",
						"offset": 0,
						"slot": "27",
						"type": "t_uint256"
					},
					{
						"astId": 34,
						"contract": "eth based/truffle/contracts/FLIR_Contract.sol:FLIRContract",
						"label": "btc5",
						"offset": 0,
						"slot": "28",
						"type": "t_uint256"
					},
					{
						"astId": 37,
						"contract": "eth based/truffle/contracts/FLIR_Contract.sol:FLIRContract",
						"label": "btc6",
						"offset": 0,
						"slot": "29",
						"type": "t_uint256"
					},
					{
						"astId": 40,
						"contract": "eth based/truffle/contracts/FLIR_Contract.sol:FLIRContract",
						"label": "btc7",
						"offset": 0,
						"slot": "30",
						"type": "t_uint256"
					},
					{
						"astId": 43,
						"contract": "eth based/truffle/contracts/FLIR_Contract.sol:FLIRContract",
						"label": "btc8",
						"offset": 0,
						"slot": "31",
						"type": "t_uint256"
					}
				],
				"types": {
					"t_address": {
						"encoding": "inplace",
						"label": "address",
						"numberOfBytes": "20"
					},
					"t_array(t_address)10_storage": {
						"base": "t_address",
						"encoding": "inplace",
						"label": "address[10]",
						"numberOfBytes": "320"
					},
					"t_uint256": {
						"encoding": "inplace",
						"label": "uint256",
						"numberOfBytes": "32"
					}
				}
			},
			"userdoc": {
				"kind": "user",
				"methods": {},
				"version": 1
			}
		}
	}
}