{
	"eth based/truffle/contracts/FLIR_Contract.sol": {
		"FLIRContract": {
			"abi": [
				{
					"inputs": [],
					"stateMutability": "nonpayable",
					"type": "constructor"
				},
				{
					"inputs": [],
					"name": "balCheck",
					"outputs": [],
					"stateMutability": "payable",
					"type": "function"
				},
				{
					"inputs": [],
					"name": "balance",
					"outputs": [
						{
							"internalType": "uint256",
							"name": "",
							"type": "uint256"
						}
					],
					"stateMutability": "view",
					"type": "function"
				},
				{
					"inputs": [],
					"name": "btc1",
					"outputs": [
						{
							"internalType": "uint256",
							"name": "",
							"type": "uint256"
						}
					],
					"stateMutability": "view",
					"type": "function"
				},
				{
					"inputs": [],
					"name": "btc2",
					"outputs": [
						{
							"internalType": "uint256",
							"name": "",
							"type": "uint256"
						}
					],
					"stateMutability": "view",
					"type": "function"
				},
				{
					"inputs": [],
					"name": "btc3",
					"outputs": [
						{
							"internalType": "uint256",
							"name": "",
							"type": "uint256"
						}
					],
					"stateMutability": "view",
					"type": "function"
				},
				{
					"inputs": [],
					"name": "btc4",
					"outputs": [
						{
							"internalType": "uint256",
							"name": "",
							"type": "uint256"
						}
					],
					"stateMutability": "view",
					"type": "function"
				},
				{
					"inputs": [],
					"name": "btc5",
					"outputs": [
						{
							"internalType": "uint256",
							"name": "",
							"type": "uint256"
						}
					],
					"stateMutability": "view",
					"type": "function"
				},
				{
					"inputs": [],
					"name": "btc6",
					"outputs": [
						{
							"internalType": "uint256",
							"name": "",
							"type": "uint256"
						}
					],
					"stateMutability": "view",
					"type": "function"
				},
				{
					"inputs": [],
					"name": "btc7",
					"outputs": [
						{
							"internalType": "uint256",
							"name": "",
							"type": "uint256"
						}
					],
					"stateMutability": "view",
					"type": "function"
				},
				{
					"inputs": [],
					"name": "btc8",
					"outputs": [
						{
							"internalType": "uint256",
							"name": "",
							"type": "uint256"
						}
					],
					"stateMutability": "view",
					"type": "function"
				},
				{
					"inputs": [],
					"name": "btp",
					"outputs": [
						{
							"internalType": "uint256",
							"name": "",
							"type": "uint256"
						}
					],
					"stateMutability": "view",
					"type": "function"
				},
				{
					"inputs": [
						{
							"internalType": "address",
							"name": "_balanceCheck",
							"type": "address"
						}
					],
					"name": "getBalance",
					"outputs": [
						{
							"internalType": "uint256",
							"name": "bal",
							"type": "uint256"
						}
					],
					"stateMutability": "nonpayable",
					"type": "function"
				},
				{
					"inputs": [
						{
							"internalType": "uint256",
							"name": "Cimp",
							"type": "uint256"
						}
					],
					"name": "getConsumerTariff",
					"outputs": [
						{
							"internalType": "uint256",
							"name": "Tc",
							"type": "uint256"
						}
					],
					"stateMutability": "nonpayable",
					"type": "function"
				},
				{
					"inputs": [
						{
							"internalType": "uint256",
							"name": "Pexp",
							"type": "uint256"
						}
					],
					"name": "getProsumerTariff",
					"outputs": [
						{
							"internalType": "uint256",
							"name": "Tp",
							"type": "uint256"
						}
					],
					"stateMutability": "nonpayable",
					"type": "function"
				},
				{
					"inputs": [
						{
							"internalType": "uint256",
							"name": "nPget",
							"type": "uint256"
						},
						{
							"internalType": "uint256",
							"name": "nCget",
							"type": "uint256"
						},
						{
							"internalType": "uint256",
							"name": "nEVget",
							"type": "uint256"
						}
					],
					"name": "getnPnCnEV",
					"outputs": [
						{
							"internalType": "uint256",
							"name": "nP",
							"type": "uint256"
						},
						{
							"internalType": "uint256",
							"name": "nC",
							"type": "uint256"
						},
						{
							"internalType": "uint256",
							"name": "nEV",
							"type": "uint256"
						}
					],
					"stateMutability": "nonpayable",
					"type": "function"
				},
				{
					"inputs": [],
					"name": "manager",
					"outputs": [
						{
							"internalType": "address",
							"name": "",
							"type": "address"
						}
					],
					"stateMutability": "view",
					"type": "function"
				},
				{
					"inputs": [],
					"name": "seller",
					"outputs": [
						{
							"internalType": "address",
							"name": "",
							"type": "address"
						}
					],
					"stateMutability": "view",
					"type": "function"
				},
				{
					"inputs": [
						{
							"internalType": "address payable",
							"name": "_receiver",
							"type": "address"
						},
						{
							"internalType": "uint256",
							"name": "amount",
							"type": "uint256"
						}
					],
					"name": "send",
					"outputs": [],
					"stateMutability": "payable",
					"type": "function"
				}
			],
			"devdoc": {
				"kind": "dev",
				"methods": {},
				"version": 1
			},
			"evm": {
				"assembly": "    /* \"eth based/truffle/contracts/FLIR_Contract.sol\":129:3903  contract FLIRContract{... */\n  mstore(0x40, 0x80)\n    /* \"eth based/truffle/contracts/FLIR_Contract.sol\":738:739  0 */\n  0x00\n    /* \"eth based/truffle/contracts/FLIR_Contract.sol\":716:739  uint public balance = 0 */\n  0x03\n  sstore\n    /* \"eth based/truffle/contracts/FLIR_Contract.sol\":895:896  3 */\n  0x03\n    /* \"eth based/truffle/contracts/FLIR_Contract.sol\":877:896  uint public btp = 3 */\n  0x04\n  sstore\n    /* \"eth based/truffle/contracts/FLIR_Contract.sol\":922:923  3 */\n  0x03\n    /* \"eth based/truffle/contracts/FLIR_Contract.sol\":903:923  uint public btc1 = 3 */\n  0x05\n  sstore\n    /* \"eth based/truffle/contracts/FLIR_Contract.sol\":948:949  4 */\n  0x04\n    /* \"eth based/truffle/contracts/FLIR_Contract.sol\":929:949  uint public btc2 = 4 */\n  0x06\n  sstore\n    /* \"eth based/truffle/contracts/FLIR_Contract.sol\":974:975  5 */\n  0x05\n    /* \"eth based/truffle/contracts/FLIR_Contract.sol\":955:975  uint public btc3 = 5 */\n  0x07\n  sstore\n    /* \"eth based/truffle/contracts/FLIR_Contract.sol\":1000:1001  6 */\n  0x06\n    /* \"eth based/truffle/contracts/FLIR_Contract.sol\":981:1001  uint public btc4 = 6 */\n  0x08\n  sstore\n    /* \"eth based/truffle/contracts/FLIR_Contract.sol\":1026:1027  7 */\n  0x07\n    /* \"eth based/truffle/contracts/FLIR_Contract.sol\":1007:1027  uint public btc5 = 7 */\n  0x09\n  sstore\n    /* \"eth based/truffle/contracts/FLIR_Contract.sol\":1052:1053  8 */\n  0x08\n    /* \"eth based/truffle/contracts/FLIR_Contract.sol\":1033:1053  uint public btc6 = 8 */\n  0x0a\n  sstore\n    /* \"eth based/truffle/contracts/FLIR_Contract.sol\":1078:1079  9 */\n  0x09\n    /* \"eth based/truffle/contracts/FLIR_Contract.sol\":1059:1079  uint public btc7 = 9 */\n  0x0b\n  sstore\n    /* \"eth based/truffle/contracts/FLIR_Contract.sol\":1104:1106  10 */\n  0x0a\n    /* \"eth based/truffle/contracts/FLIR_Contract.sol\":1085:1106  uint public btc8 = 10 */\n  0x0c\n  sstore\n    /* \"eth based/truffle/contracts/FLIR_Contract.sol\":745:800  constructor() public{... */\n  callvalue\n  dup1\n  iszero\n  tag_1\n  jumpi\n  0x00\n  dup1\n  revert\ntag_1:\n  pop\n    /* \"eth based/truffle/contracts/FLIR_Contract.sol\":783:793  msg.sender */\n  caller\n    /* \"eth based/truffle/contracts/FLIR_Contract.sol\":775:780  owner */\n  0x00\n  dup1\n    /* \"eth based/truffle/contracts/FLIR_Contract.sol\":775:793  owner = msg.sender */\n  0x0100\n  exp\n  dup2\n  sload\n  dup2\n  0xffffffffffffffffffffffffffffffffffffffff\n  mul\n  not\n  and\n  swap1\n  dup4\n  0xffffffffffffffffffffffffffffffffffffffff\n  and\n  mul\n  or\n  swap1\n  sstore\n  pop\n    /* \"eth based/truffle/contracts/FLIR_Contract.sol\":129:3903  contract FLIRContract{... */\n  dataSize(sub_0)\n  dup1\n  dataOffset(sub_0)\n  0x00\n  codecopy\n  0x00\n  return\nstop\n\nsub_0: assembly {\n        /* \"eth based/truffle/contracts/FLIR_Contract.sol\":129:3903  contract FLIRContract{... */\n      mstore(0x40, 0x80)\n      jumpi(tag_1, lt(calldatasize, 0x04))\n      shr(0xe0, calldataload(0x00))\n      dup1\n      0x7c134b14\n      gt\n      tag_20\n      jumpi\n      dup1\n      0xc2c496ec\n      gt\n      tag_21\n      jumpi\n      dup1\n      0xc2c496ec\n      eq\n      tag_15\n      jumpi\n      dup1\n      0xd0679d34\n      eq\n      tag_16\n      jumpi\n      dup1\n      0xed2fa5ab\n      eq\n      tag_17\n      jumpi\n      dup1\n      0xf02e48c3\n      eq\n      tag_18\n      jumpi\n      dup1\n      0xf8b2cb4f\n      eq\n      tag_19\n      jumpi\n      jump(tag_1)\n    tag_21:\n      dup1\n      0x7c134b14\n      eq\n      tag_11\n      jumpi\n      dup1\n      0xa8bdb68b\n      eq\n      tag_12\n      jumpi\n      dup1\n      0xb4ad7fa9\n      eq\n      tag_13\n      jumpi\n      dup1\n      0xb69ef8a8\n      eq\n      tag_14\n      jumpi\n      jump(tag_1)\n    tag_20:\n      dup1\n      0x28780a44\n      gt\n      tag_22\n      jumpi\n      dup1\n      0x28780a44\n      eq\n      tag_6\n      jumpi\n      dup1\n      0x2c9af64c\n      eq\n      tag_7\n      jumpi\n      dup1\n      0x481c6a75\n      eq\n      tag_8\n      jumpi\n      dup1\n      0x5c8f6b56\n      eq\n      tag_9\n      jumpi\n      dup1\n      0x721028ec\n      eq\n      tag_10\n      jumpi\n      jump(tag_1)\n    tag_22:\n      dup1\n      0x08551a53\n      eq\n      tag_2\n      jumpi\n      dup1\n      0x0c03a1a3\n      eq\n      tag_3\n      jumpi\n      dup1\n      0x103347e7\n      eq\n      tag_4\n      jumpi\n      dup1\n      0x20e731a1\n      eq\n      tag_5\n      jumpi\n    tag_1:\n      0x00\n      dup1\n      revert\n        /* \"eth based/truffle/contracts/FLIR_Contract.sol\":203:224  address public seller */\n    tag_2:\n      callvalue\n      dup1\n      iszero\n      tag_23\n      jumpi\n      0x00\n      dup1\n      revert\n    tag_23:\n      pop\n      tag_24\n      tag_25\n      jump\t// in\n    tag_24:\n      mload(0x40)\n      tag_26\n      swap2\n      swap1\n      tag_27\n      jump\t// in\n    tag_26:\n      mload(0x40)\n      dup1\n      swap2\n      sub\n      swap1\n      return\n        /* \"eth based/truffle/contracts/FLIR_Contract.sol\":1007:1027  uint public btc5 = 7 */\n    tag_3:\n      callvalue\n      dup1\n      iszero\n      tag_28\n      jumpi\n      0x00\n      dup1\n      revert\n    tag_28:\n      pop\n      tag_29\n      tag_30\n      jump\t// in\n    tag_29:\n      mload(0x40)\n      tag_31\n      swap2\n      swap1\n      tag_32\n      jump\t// in\n    tag_31:\n      mload(0x40)\n      dup1\n      swap2\n      sub\n      swap1\n      return\n        /* \"eth based/truffle/contracts/FLIR_Contract.sol\":981:1001  uint public btc4 = 6 */\n    tag_4:\n      callvalue\n      dup1\n      iszero\n      tag_33\n      jumpi\n      0x00\n      dup1\n      revert\n    tag_33:\n      pop\n      tag_34\n      tag_35\n      jump\t// in\n    tag_34:\n      mload(0x40)\n      tag_36\n      swap2\n      swap1\n      tag_32\n      jump\t// in\n    tag_36:\n      mload(0x40)\n      dup1\n      swap2\n      sub\n      swap1\n      return\n        /* \"eth based/truffle/contracts/FLIR_Contract.sol\":955:975  uint public btc3 = 5 */\n    tag_5:\n      callvalue\n      dup1\n      iszero\n      tag_37\n      jumpi\n      0x00\n      dup1\n      revert\n    tag_37:\n      pop\n      tag_38\n      tag_39\n      jump\t// in\n    tag_38:\n      mload(0x40)\n      tag_40\n      swap2\n      swap1\n      tag_32\n      jump\t// in\n    tag_40:\n      mload(0x40)\n      dup1\n      swap2\n      sub\n      swap1\n      return\n        /* \"eth based/truffle/contracts/FLIR_Contract.sol\":929:949  uint public btc2 = 4 */\n    tag_6:\n      callvalue\n      dup1\n      iszero\n      tag_41\n      jumpi\n      0x00\n      dup1\n      revert\n    tag_41:\n      pop\n      tag_42\n      tag_43\n      jump\t// in\n    tag_42:\n      mload(0x40)\n      tag_44\n      swap2\n      swap1\n      tag_32\n      jump\t// in\n    tag_44:\n      mload(0x40)\n      dup1\n      swap2\n      sub\n      swap1\n      return\n        /* \"eth based/truffle/contracts/FLIR_Contract.sol\":877:896  uint public btp = 3 */\n    tag_7:\n      callvalue\n      dup1\n      iszero\n      tag_45\n      jumpi\n      0x00\n      dup1\n      revert\n    tag_45:\n      pop\n      tag_46\n      tag_47\n      jump\t// in\n    tag_46:\n      mload(0x40)\n      tag_48\n      swap2\n      swap1\n      tag_32\n      jump\t// in\n    tag_48:\n      mload(0x40)\n      dup1\n      swap2\n      sub\n      swap1\n      return\n        /* \"eth based/truffle/contracts/FLIR_Contract.sol\":175:197  address public manager */\n    tag_8:\n      callvalue\n      dup1\n      iszero\n      tag_49\n      jumpi\n      0x00\n      dup1\n      revert\n    tag_49:\n      pop\n      tag_50\n      tag_51\n      jump\t// in\n    tag_50:\n      mload(0x40)\n      tag_52\n      swap2\n      swap1\n      tag_27\n      jump\t// in\n    tag_52:\n      mload(0x40)\n      dup1\n      swap2\n      sub\n      swap1\n      return\n        /* \"eth based/truffle/contracts/FLIR_Contract.sol\":1449:1564  function getProsumerTariff(uint Pexp) public returns (uint Tp){... */\n    tag_9:\n      callvalue\n      dup1\n      iszero\n      tag_53\n      jumpi\n      0x00\n      dup1\n      revert\n    tag_53:\n      pop\n      tag_54\n      0x04\n      dup1\n      calldatasize\n      sub\n      dup2\n      add\n      swap1\n      tag_55\n      swap2\n      swap1\n      tag_56\n      jump\t// in\n    tag_55:\n      tag_57\n      jump\t// in\n    tag_54:\n      mload(0x40)\n      tag_58\n      swap2\n      swap1\n      tag_32\n      jump\t// in\n    tag_58:\n      mload(0x40)\n      dup1\n      swap2\n      sub\n      swap1\n      return\n        /* \"eth based/truffle/contracts/FLIR_Contract.sol\":1570:2560  function getConsumerTariff(uint Cimp) public returns (uint Tc){... */\n    tag_10:\n      callvalue\n      dup1\n      iszero\n      tag_59\n      jumpi\n      0x00\n      dup1\n      revert\n    tag_59:\n      pop\n      tag_60\n      0x04\n      dup1\n      calldatasize\n      sub\n      dup2\n      add\n      swap1\n      tag_61\n      swap2\n      swap1\n      tag_56\n      jump\t// in\n    tag_61:\n      tag_62\n      jump\t// in\n    tag_60:\n      mload(0x40)\n      tag_63\n      swap2\n      swap1\n      tag_32\n      jump\t// in\n    tag_63:\n      mload(0x40)\n      dup1\n      swap2\n      sub\n      swap1\n      return\n        /* \"eth based/truffle/contracts/FLIR_Contract.sol\":2770:2838  function balCheck() public payable {... */\n    tag_11:\n      tag_64\n      tag_65\n      jump\t// in\n    tag_64:\n      stop\n        /* \"eth based/truffle/contracts/FLIR_Contract.sol\":1085:1106  uint public btc8 = 10 */\n    tag_12:\n      callvalue\n      dup1\n      iszero\n      tag_66\n      jumpi\n      0x00\n      dup1\n      revert\n    tag_66:\n      pop\n      tag_67\n      tag_68\n      jump\t// in\n    tag_67:\n      mload(0x40)\n      tag_69\n      swap2\n      swap1\n      tag_32\n      jump\t// in\n    tag_69:\n      mload(0x40)\n      dup1\n      swap2\n      sub\n      swap1\n      return\n        /* \"eth based/truffle/contracts/FLIR_Contract.sol\":1033:1053  uint public btc6 = 8 */\n    tag_13:\n      callvalue\n      dup1\n      iszero\n      tag_70\n      jumpi\n      0x00\n      dup1\n      revert\n    tag_70:\n      pop\n      tag_71\n      tag_72\n      jump\t// in\n    tag_71:\n      mload(0x40)\n      tag_73\n      swap2\n      swap1\n      tag_32\n      jump\t// in\n    tag_73:\n      mload(0x40)\n      dup1\n      swap2\n      sub\n      swap1\n      return\n        /* \"eth based/truffle/contracts/FLIR_Contract.sol\":716:739  uint public balance = 0 */\n    tag_14:\n      callvalue\n      dup1\n      iszero\n      tag_74\n      jumpi\n      0x00\n      dup1\n      revert\n    tag_74:\n      pop\n      tag_75\n      tag_76\n      jump\t// in\n    tag_75:\n      mload(0x40)\n      tag_77\n      swap2\n      swap1\n      tag_32\n      jump\t// in\n    tag_77:\n      mload(0x40)\n      dup1\n      swap2\n      sub\n      swap1\n      return\n        /* \"eth based/truffle/contracts/FLIR_Contract.sol\":903:923  uint public btc1 = 3 */\n    tag_15:\n      callvalue\n      dup1\n      iszero\n      tag_78\n      jumpi\n      0x00\n      dup1\n      revert\n    tag_78:\n      pop\n      tag_79\n      tag_80\n      jump\t// in\n    tag_79:\n      mload(0x40)\n      tag_81\n      swap2\n      swap1\n      tag_32\n      jump\t// in\n    tag_81:\n      mload(0x40)\n      dup1\n      swap2\n      sub\n      swap1\n      return\n        /* \"eth based/truffle/contracts/FLIR_Contract.sol\":2566:2764  function send(address payable _receiver, uint amount) payable public {... */\n    tag_16:\n      tag_82\n      0x04\n      dup1\n      calldatasize\n      sub\n      dup2\n      add\n      swap1\n      tag_83\n      swap2\n      swap1\n      tag_84\n      jump\t// in\n    tag_83:\n      tag_85\n      jump\t// in\n    tag_82:\n      stop\n        /* \"eth based/truffle/contracts/FLIR_Contract.sol\":1059:1079  uint public btc7 = 9 */\n    tag_17:\n      callvalue\n      dup1\n      iszero\n      tag_86\n      jumpi\n      0x00\n      dup1\n      revert\n    tag_86:\n      pop\n      tag_87\n      tag_88\n      jump\t// in\n    tag_87:\n      mload(0x40)\n      tag_89\n      swap2\n      swap1\n      tag_32\n      jump\t// in\n    tag_89:\n      mload(0x40)\n      dup1\n      swap2\n      sub\n      swap1\n      return\n        /* \"eth based/truffle/contracts/FLIR_Contract.sol\":1120:1443  function getnPnCnEV(uint nPget, uint nCget,uint nEVget) public... */\n    tag_18:\n      callvalue\n      dup1\n      iszero\n      tag_90\n      jumpi\n      0x00\n      dup1\n      revert\n    tag_90:\n      pop\n      tag_91\n      0x04\n      dup1\n      calldatasize\n      sub\n      dup2\n      add\n      swap1\n      tag_92\n      swap2\n      swap1\n      tag_93\n      jump\t// in\n    tag_92:\n      tag_94\n      jump\t// in\n    tag_91:\n      mload(0x40)\n      tag_95\n      swap4\n      swap3\n      swap2\n      swap1\n      tag_96\n      jump\t// in\n    tag_95:\n      mload(0x40)\n      dup1\n      swap2\n      sub\n      swap1\n      return\n        /* \"eth based/truffle/contracts/FLIR_Contract.sol\":2844:2979  function getBalance(address _balanceCheck) public returns (uint bal){... */\n    tag_19:\n      callvalue\n      dup1\n      iszero\n      tag_97\n      jumpi\n      0x00\n      dup1\n      revert\n    tag_97:\n      pop\n      tag_98\n      0x04\n      dup1\n      calldatasize\n      sub\n      dup2\n      add\n      swap1\n      tag_99\n      swap2\n      swap1\n      tag_100\n      jump\t// in\n    tag_99:\n      tag_101\n      jump\t// in\n    tag_98:\n      mload(0x40)\n      tag_102\n      swap2\n      swap1\n      tag_32\n      jump\t// in\n    tag_102:\n      mload(0x40)\n      dup1\n      swap2\n      sub\n      swap1\n      return\n        /* \"eth based/truffle/contracts/FLIR_Contract.sol\":203:224  address public seller */\n    tag_25:\n      0x02\n      0x00\n      swap1\n      sload\n      swap1\n      0x0100\n      exp\n      swap1\n      div\n      0xffffffffffffffffffffffffffffffffffffffff\n      and\n      dup2\n      jump\t// out\n        /* \"eth based/truffle/contracts/FLIR_Contract.sol\":1007:1027  uint public btc5 = 7 */\n    tag_30:\n      sload(0x09)\n      dup2\n      jump\t// out\n        /* \"eth based/truffle/contracts/FLIR_Contract.sol\":981:1001  uint public btc4 = 6 */\n    tag_35:\n      sload(0x08)\n      dup2\n      jump\t// out\n        /* \"eth based/truffle/contracts/FLIR_Contract.sol\":955:975  uint public btc3 = 5 */\n    tag_39:\n      sload(0x07)\n      dup2\n      jump\t// out\n        /* \"eth based/truffle/contracts/FLIR_Contract.sol\":929:949  uint public btc2 = 4 */\n    tag_43:\n      sload(0x06)\n      dup2\n      jump\t// out\n        /* \"eth based/truffle/contracts/FLIR_Contract.sol\":877:896  uint public btp = 3 */\n    tag_47:\n      sload(0x04)\n      dup2\n      jump\t// out\n        /* \"eth based/truffle/contracts/FLIR_Contract.sol\":175:197  address public manager */\n    tag_51:\n      0x01\n      0x00\n      swap1\n      sload\n      swap1\n      0x0100\n      exp\n      swap1\n      div\n      0xffffffffffffffffffffffffffffffffffffffff\n      and\n      dup2\n      jump\t// out\n        /* \"eth based/truffle/contracts/FLIR_Contract.sol\":1449:1564  function getProsumerTariff(uint Pexp) public returns (uint Tp){... */\n    tag_57:\n        /* \"eth based/truffle/contracts/FLIR_Contract.sol\":1503:1510  uint Tp */\n      0x00\n        /* \"eth based/truffle/contracts/FLIR_Contract.sol\":1533:1536  btp */\n      sload(0x04)\n        /* \"eth based/truffle/contracts/FLIR_Contract.sol\":1526:1530  Pexp */\n      dup3\n        /* \"eth based/truffle/contracts/FLIR_Contract.sol\":1526:1536  Pexp * btp */\n      tag_104\n      swap2\n      swap1\n      tag_105\n      jump\t// in\n    tag_104:\n        /* \"eth based/truffle/contracts/FLIR_Contract.sol\":1521:1536  Tp = Pexp * btp */\n      swap1\n      pop\n        /* \"eth based/truffle/contracts/FLIR_Contract.sol\":1449:1564  function getProsumerTariff(uint Pexp) public returns (uint Tp){... */\n      swap2\n      swap1\n      pop\n      jump\t// out\n        /* \"eth based/truffle/contracts/FLIR_Contract.sol\":1570:2560  function getConsumerTariff(uint Cimp) public returns (uint Tc){... */\n    tag_62:\n        /* \"eth based/truffle/contracts/FLIR_Contract.sol\":1624:1631  uint Tc */\n      0x00\n        /* \"eth based/truffle/contracts/FLIR_Contract.sol\":1661:1664  251 */\n      0xfb\n        /* \"eth based/truffle/contracts/FLIR_Contract.sol\":1654:1658  Cimp */\n      dup3\n        /* \"eth based/truffle/contracts/FLIR_Contract.sol\":1654:1664  Cimp < 251 */\n      lt\n        /* \"eth based/truffle/contracts/FLIR_Contract.sol\":1651:2533  if(Cimp < 251){... */\n      iszero\n      tag_107\n      jumpi\n        /* \"eth based/truffle/contracts/FLIR_Contract.sol\":1689:1691  51 */\n      0x33\n        /* \"eth based/truffle/contracts/FLIR_Contract.sol\":1682:1686  Cimp */\n      dup3\n        /* \"eth based/truffle/contracts/FLIR_Contract.sol\":1682:1691  Cimp < 51 */\n      lt\n        /* \"eth based/truffle/contracts/FLIR_Contract.sol\":1679:2288  if(Cimp < 51){... */\n      iszero\n      tag_108\n      jumpi\n        /* \"eth based/truffle/contracts/FLIR_Contract.sol\":1722:1726  btc1 */\n      sload(0x05)\n        /* \"eth based/truffle/contracts/FLIR_Contract.sol\":1715:1719  Cimp */\n      dup3\n        /* \"eth based/truffle/contracts/FLIR_Contract.sol\":1715:1726  Cimp * btc1 */\n      tag_109\n      swap2\n      swap1\n      tag_105\n      jump\t// in\n    tag_109:\n        /* \"eth based/truffle/contracts/FLIR_Contract.sol\":1710:1726  Tc = Cimp * btc1 */\n      swap1\n      pop\n        /* \"eth based/truffle/contracts/FLIR_Contract.sol\":1679:2288  if(Cimp < 51){... */\n      jump(tag_110)\n    tag_108:\n        /* \"eth based/truffle/contracts/FLIR_Contract.sol\":1769:1771  50 */\n      0x32\n        /* \"eth based/truffle/contracts/FLIR_Contract.sol\":1762:1766  Cimp */\n      dup3\n        /* \"eth based/truffle/contracts/FLIR_Contract.sol\":1762:1771  Cimp > 50 */\n      gt\n        /* \"eth based/truffle/contracts/FLIR_Contract.sol\":1762:1785  Cimp > 50 && Cimp < 101 */\n      dup1\n      iszero\n      tag_111\n      jumpi\n      pop\n        /* \"eth based/truffle/contracts/FLIR_Contract.sol\":1782:1785  101 */\n      0x65\n        /* \"eth based/truffle/contracts/FLIR_Contract.sol\":1775:1779  Cimp */\n      dup3\n        /* \"eth based/truffle/contracts/FLIR_Contract.sol\":1775:1785  Cimp < 101 */\n      lt\n        /* \"eth based/truffle/contracts/FLIR_Contract.sol\":1762:1785  Cimp > 50 && Cimp < 101 */\n    tag_111:\n        /* \"eth based/truffle/contracts/FLIR_Contract.sol\":1759:2288  if(Cimp > 50 && Cimp < 101){... */\n      iszero\n      tag_112\n      jumpi\n        /* \"eth based/truffle/contracts/FLIR_Contract.sol\":1836:1840  btc2 */\n      sload(0x06)\n        /* \"eth based/truffle/contracts/FLIR_Contract.sol\":1830:1832  50 */\n      0x32\n        /* \"eth based/truffle/contracts/FLIR_Contract.sol\":1825:1829  Cimp */\n      dup4\n        /* \"eth based/truffle/contracts/FLIR_Contract.sol\":1825:1832  Cimp-50 */\n      tag_113\n      swap2\n      swap1\n      tag_114\n      jump\t// in\n    tag_113:\n        /* \"eth based/truffle/contracts/FLIR_Contract.sol\":1824:1840  (Cimp-50) * btc2 */\n      tag_115\n      swap2\n      swap1\n      tag_105\n      jump\t// in\n    tag_115:\n        /* \"eth based/truffle/contracts/FLIR_Contract.sol\":1815:1819  btc1 */\n      sload(0x05)\n        /* \"eth based/truffle/contracts/FLIR_Contract.sol\":1810:1812  50 */\n      0x32\n        /* \"eth based/truffle/contracts/FLIR_Contract.sol\":1810:1819  50 * btc1 */\n      tag_116\n      swap2\n      swap1\n      tag_105\n      jump\t// in\n    tag_116:\n        /* \"eth based/truffle/contracts/FLIR_Contract.sol\":1809:1841  (50 * btc1) + ((Cimp-50) * btc2) */\n      tag_117\n      swap2\n      swap1\n      tag_118\n      jump\t// in\n    tag_117:\n        /* \"eth based/truffle/contracts/FLIR_Contract.sol\":1804:1841  Tc = (50 * btc1) + ((Cimp-50) * btc2) */\n      swap1\n      pop\n        /* \"eth based/truffle/contracts/FLIR_Contract.sol\":1759:2288  if(Cimp > 50 && Cimp < 101){... */\n      jump(tag_119)\n    tag_112:\n        /* \"eth based/truffle/contracts/FLIR_Contract.sol\":1884:1887  100 */\n      0x64\n        /* \"eth based/truffle/contracts/FLIR_Contract.sol\":1877:1881  Cimp */\n      dup3\n        /* \"eth based/truffle/contracts/FLIR_Contract.sol\":1877:1887  Cimp > 100 */\n      gt\n        /* \"eth based/truffle/contracts/FLIR_Contract.sol\":1877:1901  Cimp > 100 && Cimp < 151 */\n      dup1\n      iszero\n      tag_120\n      jumpi\n      pop\n        /* \"eth based/truffle/contracts/FLIR_Contract.sol\":1898:1901  151 */\n      0x97\n        /* \"eth based/truffle/contracts/FLIR_Contract.sol\":1891:1895  Cimp */\n      dup3\n        /* \"eth based/truffle/contracts/FLIR_Contract.sol\":1891:1901  Cimp < 151 */\n      lt\n        /* \"eth based/truffle/contracts/FLIR_Contract.sol\":1877:1901  Cimp > 100 && Cimp < 151 */\n    tag_120:\n        /* \"eth based/truffle/contracts/FLIR_Contract.sol\":1874:2288  if(Cimp > 100 && Cimp < 151){... */\n      iszero\n      tag_121\n      jumpi\n        /* \"eth based/truffle/contracts/FLIR_Contract.sol\":1966:1970  btc3 */\n      sload(0x07)\n        /* \"eth based/truffle/contracts/FLIR_Contract.sol\":1960:1962  50 */\n      0x32\n        /* \"eth based/truffle/contracts/FLIR_Contract.sol\":1955:1959  Cimp */\n      dup4\n        /* \"eth based/truffle/contracts/FLIR_Contract.sol\":1955:1962  Cimp-50 */\n      tag_122\n      swap2\n      swap1\n      tag_114\n      jump\t// in\n    tag_122:\n        /* \"eth based/truffle/contracts/FLIR_Contract.sol\":1954:1970  (Cimp-50) * btc3 */\n      tag_123\n      swap2\n      swap1\n      tag_105\n      jump\t// in\n    tag_123:\n        /* \"eth based/truffle/contracts/FLIR_Contract.sol\":1945:1949  btc2 */\n      sload(0x06)\n        /* \"eth based/truffle/contracts/FLIR_Contract.sol\":1940:1942  50 */\n      0x32\n        /* \"eth based/truffle/contracts/FLIR_Contract.sol\":1940:1949  50 * btc2 */\n      tag_124\n      swap2\n      swap1\n      tag_105\n      jump\t// in\n    tag_124:\n        /* \"eth based/truffle/contracts/FLIR_Contract.sol\":1931:1935  btc1 */\n      sload(0x05)\n        /* \"eth based/truffle/contracts/FLIR_Contract.sol\":1926:1928  50 */\n      0x32\n        /* \"eth based/truffle/contracts/FLIR_Contract.sol\":1926:1935  50 * btc1 */\n      tag_125\n      swap2\n      swap1\n      tag_105\n      jump\t// in\n    tag_125:\n        /* \"eth based/truffle/contracts/FLIR_Contract.sol\":1925:1950  (50 * btc1) + (50 * btc2) */\n      tag_126\n      swap2\n      swap1\n      tag_118\n      jump\t// in\n    tag_126:\n        /* \"eth based/truffle/contracts/FLIR_Contract.sol\":1925:1971  (50 * btc1) + (50 * btc2) + ((Cimp-50) * btc3) */\n      tag_127\n      swap2\n      swap1\n      tag_118\n      jump\t// in\n    tag_127:\n        /* \"eth based/truffle/contracts/FLIR_Contract.sol\":1920:1971  Tc = (50 * btc1) + (50 * btc2) + ((Cimp-50) * btc3) */\n      swap1\n      pop\n        /* \"eth based/truffle/contracts/FLIR_Contract.sol\":1874:2288  if(Cimp > 100 && Cimp < 151){... */\n      jump(tag_128)\n    tag_121:\n        /* \"eth based/truffle/contracts/FLIR_Contract.sol\":2014:2017  150 */\n      0x96\n        /* \"eth based/truffle/contracts/FLIR_Contract.sol\":2007:2011  Cimp */\n      dup3\n        /* \"eth based/truffle/contracts/FLIR_Contract.sol\":2007:2017  Cimp > 150 */\n      gt\n        /* \"eth based/truffle/contracts/FLIR_Contract.sol\":2007:2031  Cimp > 150 && Cimp < 201 */\n      dup1\n      iszero\n      tag_129\n      jumpi\n      pop\n        /* \"eth based/truffle/contracts/FLIR_Contract.sol\":2028:2031  201 */\n      0xc9\n        /* \"eth based/truffle/contracts/FLIR_Contract.sol\":2021:2025  Cimp */\n      dup3\n        /* \"eth based/truffle/contracts/FLIR_Contract.sol\":2021:2031  Cimp < 201 */\n      lt\n        /* \"eth based/truffle/contracts/FLIR_Contract.sol\":2007:2031  Cimp > 150 && Cimp < 201 */\n    tag_129:\n        /* \"eth based/truffle/contracts/FLIR_Contract.sol\":2004:2288  if(Cimp > 150 && Cimp < 201){... */\n      iszero\n      tag_130\n      jumpi\n        /* \"eth based/truffle/contracts/FLIR_Contract.sol\":2110:2114  btc4 */\n      sload(0x08)\n        /* \"eth based/truffle/contracts/FLIR_Contract.sol\":2104:2106  50 */\n      0x32\n        /* \"eth based/truffle/contracts/FLIR_Contract.sol\":2099:2103  Cimp */\n      dup4\n        /* \"eth based/truffle/contracts/FLIR_Contract.sol\":2099:2106  Cimp-50 */\n      tag_131\n      swap2\n      swap1\n      tag_114\n      jump\t// in\n    tag_131:\n        /* \"eth based/truffle/contracts/FLIR_Contract.sol\":2098:2114  (Cimp-50) * btc4 */\n      tag_132\n      swap2\n      swap1\n      tag_105\n      jump\t// in\n    tag_132:\n        /* \"eth based/truffle/contracts/FLIR_Contract.sol\":2089:2093  btc3 */\n      sload(0x07)\n        /* \"eth based/truffle/contracts/FLIR_Contract.sol\":2084:2086  50 */\n      0x32\n        /* \"eth based/truffle/contracts/FLIR_Contract.sol\":2084:2093  50 * btc3 */\n      tag_133\n      swap2\n      swap1\n      tag_105\n      jump\t// in\n    tag_133:\n        /* \"eth based/truffle/contracts/FLIR_Contract.sol\":2075:2079  btc2 */\n      sload(0x06)\n        /* \"eth based/truffle/contracts/FLIR_Contract.sol\":2070:2072  50 */\n      0x32\n        /* \"eth based/truffle/contracts/FLIR_Contract.sol\":2070:2079  50 * btc2 */\n      tag_134\n      swap2\n      swap1\n      tag_105\n      jump\t// in\n    tag_134:\n        /* \"eth based/truffle/contracts/FLIR_Contract.sol\":2061:2065  btc1 */\n      sload(0x05)\n        /* \"eth based/truffle/contracts/FLIR_Contract.sol\":2056:2058  50 */\n      0x32\n        /* \"eth based/truffle/contracts/FLIR_Contract.sol\":2056:2065  50 * btc1 */\n      tag_135\n      swap2\n      swap1\n      tag_105\n      jump\t// in\n    tag_135:\n        /* \"eth based/truffle/contracts/FLIR_Contract.sol\":2055:2080  (50 * btc1) + (50 * btc2) */\n      tag_136\n      swap2\n      swap1\n      tag_118\n      jump\t// in\n    tag_136:\n        /* \"eth based/truffle/contracts/FLIR_Contract.sol\":2055:2094  (50 * btc1) + (50 * btc2) + (50 * btc3) */\n      tag_137\n      swap2\n      swap1\n      tag_118\n      jump\t// in\n    tag_137:\n        /* \"eth based/truffle/contracts/FLIR_Contract.sol\":2055:2115  (50 * btc1) + (50 * btc2) + (50 * btc3) + ((Cimp-50) * btc4) */\n      tag_138\n      swap2\n      swap1\n      tag_118\n      jump\t// in\n    tag_138:\n        /* \"eth based/truffle/contracts/FLIR_Contract.sol\":2050:2115  Tc = (50 * btc1) + (50 * btc2) + (50 * btc3) + ((Cimp-50) * btc4) */\n      swap1\n      pop\n        /* \"eth based/truffle/contracts/FLIR_Contract.sol\":2004:2288  if(Cimp > 150 && Cimp < 201){... */\n      jump(tag_139)\n    tag_130:\n        /* \"eth based/truffle/contracts/FLIR_Contract.sol\":2158:2161  200 */\n      0xc8\n        /* \"eth based/truffle/contracts/FLIR_Contract.sol\":2151:2155  Cimp */\n      dup3\n        /* \"eth based/truffle/contracts/FLIR_Contract.sol\":2151:2161  Cimp > 200 */\n      gt\n        /* \"eth based/truffle/contracts/FLIR_Contract.sol\":2151:2175  Cimp > 200 && Cimp < 251 */\n      dup1\n      iszero\n      tag_140\n      jumpi\n      pop\n        /* \"eth based/truffle/contracts/FLIR_Contract.sol\":2172:2175  251 */\n      0xfb\n        /* \"eth based/truffle/contracts/FLIR_Contract.sol\":2165:2169  Cimp */\n      dup3\n        /* \"eth based/truffle/contracts/FLIR_Contract.sol\":2165:2175  Cimp < 251 */\n      lt\n        /* \"eth based/truffle/contracts/FLIR_Contract.sol\":2151:2175  Cimp > 200 && Cimp < 251 */\n    tag_140:\n        /* \"eth based/truffle/contracts/FLIR_Contract.sol\":2148:2288  if(Cimp > 200 && Cimp < 251){... */\n      iszero\n      tag_141\n      jumpi\n        /* \"eth based/truffle/contracts/FLIR_Contract.sol\":2268:2272  btc5 */\n      sload(0x09)\n        /* \"eth based/truffle/contracts/FLIR_Contract.sol\":2262:2264  50 */\n      0x32\n        /* \"eth based/truffle/contracts/FLIR_Contract.sol\":2257:2261  Cimp */\n      dup4\n        /* \"eth based/truffle/contracts/FLIR_Contract.sol\":2257:2264  Cimp-50 */\n      tag_142\n      swap2\n      swap1\n      tag_114\n      jump\t// in\n    tag_142:\n        /* \"eth based/truffle/contracts/FLIR_Contract.sol\":2256:2272  (Cimp-50) * btc5 */\n      tag_143\n      swap2\n      swap1\n      tag_105\n      jump\t// in\n    tag_143:\n        /* \"eth based/truffle/contracts/FLIR_Contract.sol\":2247:2251  btc4 */\n      sload(0x08)\n        /* \"eth based/truffle/contracts/FLIR_Contract.sol\":2242:2244  50 */\n      0x32\n        /* \"eth based/truffle/contracts/FLIR_Contract.sol\":2242:2251  50 * btc4 */\n      tag_144\n      swap2\n      swap1\n      tag_105\n      jump\t// in\n    tag_144:\n        /* \"eth based/truffle/contracts/FLIR_Contract.sol\":2233:2237  btc3 */\n      sload(0x07)\n        /* \"eth based/truffle/contracts/FLIR_Contract.sol\":2228:2230  50 */\n      0x32\n        /* \"eth based/truffle/contracts/FLIR_Contract.sol\":2228:2237  50 * btc3 */\n      tag_145\n      swap2\n      swap1\n      tag_105\n      jump\t// in\n    tag_145:\n        /* \"eth based/truffle/contracts/FLIR_Contract.sol\":2219:2223  btc2 */\n      sload(0x06)\n        /* \"eth based/truffle/contracts/FLIR_Contract.sol\":2214:2216  50 */\n      0x32\n        /* \"eth based/truffle/contracts/FLIR_Contract.sol\":2214:2223  50 * btc2 */\n      tag_146\n      swap2\n      swap1\n      tag_105\n      jump\t// in\n    tag_146:\n        /* \"eth based/truffle/contracts/FLIR_Contract.sol\":2205:2209  btc1 */\n      sload(0x05)\n        /* \"eth based/truffle/contracts/FLIR_Contract.sol\":2200:2202  50 */\n      0x32\n        /* \"eth based/truffle/contracts/FLIR_Contract.sol\":2200:2209  50 * btc1 */\n      tag_147\n      swap2\n      swap1\n      tag_105\n      jump\t// in\n    tag_147:\n        /* \"eth based/truffle/contracts/FLIR_Contract.sol\":2199:2224  (50 * btc1) + (50 * btc2) */\n      tag_148\n      swap2\n      swap1\n      tag_118\n      jump\t// in\n    tag_148:\n        /* \"eth based/truffle/contracts/FLIR_Contract.sol\":2199:2238  (50 * btc1) + (50 * btc2) + (50 * btc3) */\n      tag_149\n      swap2\n      swap1\n      tag_118\n      jump\t// in\n    tag_149:\n        /* \"eth based/truffle/contracts/FLIR_Contract.sol\":2199:2252  (50 * btc1) + (50 * btc2) + (50 * btc3) + (50 * btc4) */\n      tag_150\n      swap2\n      swap1\n      tag_118\n      jump\t// in\n    tag_150:\n        /* \"eth based/truffle/contracts/FLIR_Contract.sol\":2199:2273  (50 * btc1) + (50 * btc2) + (50 * btc3) + (50 * btc4) + ((Cimp-50) * btc5) */\n      tag_151\n      swap2\n      swap1\n      tag_118\n      jump\t// in\n    tag_151:\n        /* \"eth based/truffle/contracts/FLIR_Contract.sol\":2194:2273  Tc = (50 * btc1) + (50 * btc2) + (50 * btc3) + (50 * btc4) + ((Cimp-50) * btc5) */\n      swap1\n      pop\n        /* \"eth based/truffle/contracts/FLIR_Contract.sol\":2148:2288  if(Cimp > 200 && Cimp < 251){... */\n    tag_141:\n        /* \"eth based/truffle/contracts/FLIR_Contract.sol\":2004:2288  if(Cimp > 150 && Cimp < 201){... */\n    tag_139:\n        /* \"eth based/truffle/contracts/FLIR_Contract.sol\":1874:2288  if(Cimp > 100 && Cimp < 151){... */\n    tag_128:\n        /* \"eth based/truffle/contracts/FLIR_Contract.sol\":1759:2288  if(Cimp > 50 && Cimp < 101){... */\n    tag_119:\n        /* \"eth based/truffle/contracts/FLIR_Contract.sol\":1679:2288  if(Cimp < 51){... */\n    tag_110:\n        /* \"eth based/truffle/contracts/FLIR_Contract.sol\":1651:2533  if(Cimp < 251){... */\n      jump(tag_152)\n    tag_107:\n        /* \"eth based/truffle/contracts/FLIR_Contract.sol\":2322:2325  250 */\n      0xfa\n        /* \"eth based/truffle/contracts/FLIR_Contract.sol\":2315:2319  Cimp */\n      dup3\n        /* \"eth based/truffle/contracts/FLIR_Contract.sol\":2315:2325  Cimp > 250 */\n      gt\n        /* \"eth based/truffle/contracts/FLIR_Contract.sol\":2315:2339  Cimp > 250 && Cimp < 351 */\n      dup1\n      iszero\n      tag_153\n      jumpi\n      pop\n        /* \"eth based/truffle/contracts/FLIR_Contract.sol\":2336:2339  351 */\n      0x015f\n        /* \"eth based/truffle/contracts/FLIR_Contract.sol\":2329:2333  Cimp */\n      dup3\n        /* \"eth based/truffle/contracts/FLIR_Contract.sol\":2329:2339  Cimp < 351 */\n      lt\n        /* \"eth based/truffle/contracts/FLIR_Contract.sol\":2315:2339  Cimp > 250 && Cimp < 351 */\n    tag_153:\n        /* \"eth based/truffle/contracts/FLIR_Contract.sol\":2312:2533  if(Cimp > 250 && Cimp < 351){... */\n      iszero\n      tag_154\n      jumpi\n        /* \"eth based/truffle/contracts/FLIR_Contract.sol\":2366:2370  btc6 */\n      sload(0x0a)\n        /* \"eth based/truffle/contracts/FLIR_Contract.sol\":2359:2363  Cimp */\n      dup3\n        /* \"eth based/truffle/contracts/FLIR_Contract.sol\":2359:2370  Cimp * btc6 */\n      tag_155\n      swap2\n      swap1\n      tag_105\n      jump\t// in\n    tag_155:\n        /* \"eth based/truffle/contracts/FLIR_Contract.sol\":2354:2370  Tc = Cimp * btc6 */\n      swap1\n      pop\n        /* \"eth based/truffle/contracts/FLIR_Contract.sol\":2312:2533  if(Cimp > 250 && Cimp < 351){... */\n      jump(tag_156)\n    tag_154:\n        /* \"eth based/truffle/contracts/FLIR_Contract.sol\":2405:2408  350 */\n      0x015e\n        /* \"eth based/truffle/contracts/FLIR_Contract.sol\":2398:2402  Cimp */\n      dup3\n        /* \"eth based/truffle/contracts/FLIR_Contract.sol\":2398:2408  Cimp > 350 */\n      gt\n        /* \"eth based/truffle/contracts/FLIR_Contract.sol\":2398:2422  Cimp > 350 && Cimp < 451 */\n      dup1\n      iszero\n      tag_157\n      jumpi\n      pop\n        /* \"eth based/truffle/contracts/FLIR_Contract.sol\":2419:2422  451 */\n      0x01c3\n        /* \"eth based/truffle/contracts/FLIR_Contract.sol\":2412:2416  Cimp */\n      dup3\n        /* \"eth based/truffle/contracts/FLIR_Contract.sol\":2412:2422  Cimp < 451 */\n      lt\n        /* \"eth based/truffle/contracts/FLIR_Contract.sol\":2398:2422  Cimp > 350 && Cimp < 451 */\n    tag_157:\n        /* \"eth based/truffle/contracts/FLIR_Contract.sol\":2395:2533  if(Cimp > 350 && Cimp < 451){... */\n      iszero\n      tag_158\n      jumpi\n        /* \"eth based/truffle/contracts/FLIR_Contract.sol\":2449:2453  btc7 */\n      sload(0x0b)\n        /* \"eth based/truffle/contracts/FLIR_Contract.sol\":2442:2446  Cimp */\n      dup3\n        /* \"eth based/truffle/contracts/FLIR_Contract.sol\":2442:2453  Cimp * btc7 */\n      tag_159\n      swap2\n      swap1\n      tag_105\n      jump\t// in\n    tag_159:\n        /* \"eth based/truffle/contracts/FLIR_Contract.sol\":2437:2453  Tc = Cimp * btc7 */\n      swap1\n      pop\n        /* \"eth based/truffle/contracts/FLIR_Contract.sol\":2395:2533  if(Cimp > 350 && Cimp < 451){... */\n      jump(tag_160)\n    tag_158:\n        /* \"eth based/truffle/contracts/FLIR_Contract.sol\":2488:2491  450 */\n      0x01c2\n        /* \"eth based/truffle/contracts/FLIR_Contract.sol\":2481:2485  Cimp */\n      dup3\n        /* \"eth based/truffle/contracts/FLIR_Contract.sol\":2481:2491  Cimp > 450 */\n      gt\n        /* \"eth based/truffle/contracts/FLIR_Contract.sol\":2478:2533  if(Cimp > 450){... */\n      iszero\n      tag_161\n      jumpi\n        /* \"eth based/truffle/contracts/FLIR_Contract.sol\":2518:2522  btc8 */\n      sload(0x0c)\n        /* \"eth based/truffle/contracts/FLIR_Contract.sol\":2511:2515  Cimp */\n      dup3\n        /* \"eth based/truffle/contracts/FLIR_Contract.sol\":2511:2522  Cimp * btc8 */\n      tag_162\n      swap2\n      swap1\n      tag_105\n      jump\t// in\n    tag_162:\n        /* \"eth based/truffle/contracts/FLIR_Contract.sol\":2506:2522  Tc = Cimp * btc8 */\n      swap1\n      pop\n        /* \"eth based/truffle/contracts/FLIR_Contract.sol\":2478:2533  if(Cimp > 450){... */\n    tag_161:\n        /* \"eth based/truffle/contracts/FLIR_Contract.sol\":2395:2533  if(Cimp > 350 && Cimp < 451){... */\n    tag_160:\n        /* \"eth based/truffle/contracts/FLIR_Contract.sol\":2312:2533  if(Cimp > 250 && Cimp < 351){... */\n    tag_156:\n        /* \"eth based/truffle/contracts/FLIR_Contract.sol\":1651:2533  if(Cimp < 251){... */\n    tag_152:\n        /* \"eth based/truffle/contracts/FLIR_Contract.sol\":1570:2560  function getConsumerTariff(uint Cimp) public returns (uint Tc){... */\n      swap2\n      swap1\n      pop\n      jump\t// out\n        /* \"eth based/truffle/contracts/FLIR_Contract.sol\":2770:2838  function balCheck() public payable {... */\n    tag_65:\n        /* \"eth based/truffle/contracts/FLIR_Contract.sol\":2822:2831  msg.value */\n      callvalue\n        /* \"eth based/truffle/contracts/FLIR_Contract.sol\":2811:2818  balance */\n      0x03\n      0x00\n        /* \"eth based/truffle/contracts/FLIR_Contract.sol\":2811:2831  balance += msg.value */\n      dup3\n      dup3\n      sload\n      tag_164\n      swap2\n      swap1\n      tag_118\n      jump\t// in\n    tag_164:\n      swap3\n      pop\n      pop\n      dup2\n      swap1\n      sstore\n      pop\n        /* \"eth based/truffle/contracts/FLIR_Contract.sol\":2770:2838  function balCheck() public payable {... */\n      jump\t// out\n        /* \"eth based/truffle/contracts/FLIR_Contract.sol\":1085:1106  uint public btc8 = 10 */\n    tag_68:\n      sload(0x0c)\n      dup2\n      jump\t// out\n        /* \"eth based/truffle/contracts/FLIR_Contract.sol\":1033:1053  uint public btc6 = 8 */\n    tag_72:\n      sload(0x0a)\n      dup2\n      jump\t// out\n        /* \"eth based/truffle/contracts/FLIR_Contract.sol\":716:739  uint public balance = 0 */\n    tag_76:\n      sload(0x03)\n      dup2\n      jump\t// out\n        /* \"eth based/truffle/contracts/FLIR_Contract.sol\":903:923  uint public btc1 = 3 */\n    tag_80:\n      sload(0x05)\n      dup2\n      jump\t// out\n        /* \"eth based/truffle/contracts/FLIR_Contract.sol\":2566:2764  function send(address payable _receiver, uint amount) payable public {... */\n    tag_85:\n        /* \"eth based/truffle/contracts/FLIR_Contract.sol\":2731:2740  _receiver */\n      dup2\n        /* \"eth based/truffle/contracts/FLIR_Contract.sol\":2731:2749  _receiver.transfer */\n      0xffffffffffffffffffffffffffffffffffffffff\n      and\n        /* \"eth based/truffle/contracts/FLIR_Contract.sol\":2731:2757  _receiver.transfer(amount) */\n      0x08fc\n        /* \"eth based/truffle/contracts/FLIR_Contract.sol\":2750:2756  amount */\n      dup3\n        /* \"eth based/truffle/contracts/FLIR_Contract.sol\":2731:2757  _receiver.transfer(amount) */\n      swap1\n      dup2\n      iszero\n      mul\n      swap1\n      mload(0x40)\n      0x00\n      mload(0x40)\n      dup1\n      dup4\n      sub\n      dup2\n      dup6\n      dup9\n      dup9\n      call\n      swap4\n      pop\n      pop\n      pop\n      pop\n      iszero\n      dup1\n      iszero\n      tag_167\n      jumpi\n      returndatasize\n      0x00\n      dup1\n      returndatacopy\n      revert(0x00, returndatasize)\n    tag_167:\n      pop\n        /* \"eth based/truffle/contracts/FLIR_Contract.sol\":2566:2764  function send(address payable _receiver, uint amount) payable public {... */\n      pop\n      pop\n      jump\t// out\n        /* \"eth based/truffle/contracts/FLIR_Contract.sol\":1059:1079  uint public btc7 = 9 */\n    tag_88:\n      sload(0x0b)\n      dup2\n      jump\t// out\n        /* \"eth based/truffle/contracts/FLIR_Contract.sol\":1120:1443  function getnPnCnEV(uint nPget, uint nCget,uint nEVget) public... */\n    tag_94:\n        /* \"eth based/truffle/contracts/FLIR_Contract.sol\":1196:1203  uint nP */\n      0x00\n        /* \"eth based/truffle/contracts/FLIR_Contract.sol\":1204:1211  uint nC */\n      dup1\n        /* \"eth based/truffle/contracts/FLIR_Contract.sol\":1212:1220  uint nEV */\n      0x00\n        /* \"eth based/truffle/contracts/FLIR_Contract.sol\":1245:1250  nPget */\n      dup6\n        /* \"eth based/truffle/contracts/FLIR_Contract.sol\":1240:1250  nP = nPget */\n      swap3\n      pop\n        /* \"eth based/truffle/contracts/FLIR_Contract.sol\":1265:1270  nCget */\n      dup5\n        /* \"eth based/truffle/contracts/FLIR_Contract.sol\":1260:1270  nC = nCget */\n      swap2\n      pop\n        /* \"eth based/truffle/contracts/FLIR_Contract.sol\":1286:1292  nEVget */\n      dup4\n        /* \"eth based/truffle/contracts/FLIR_Contract.sol\":1280:1292  nEV = nEVget */\n      swap1\n      pop\n        /* \"eth based/truffle/contracts/FLIR_Contract.sol\":1120:1443  function getnPnCnEV(uint nPget, uint nCget,uint nEVget) public... */\n      swap4\n      pop\n      swap4\n      pop\n      swap4\n      swap1\n      pop\n      jump\t// out\n        /* \"eth based/truffle/contracts/FLIR_Contract.sol\":2844:2979  function getBalance(address _balanceCheck) public returns (uint bal){... */\n    tag_101:\n        /* \"eth based/truffle/contracts/FLIR_Contract.sol\":2903:2911  uint bal */\n      0x00\n        /* \"eth based/truffle/contracts/FLIR_Contract.sol\":2928:2941  _balanceCheck */\n      dup2\n        /* \"eth based/truffle/contracts/FLIR_Contract.sol\":2928:2949  _balanceCheck.balance */\n      0xffffffffffffffffffffffffffffffffffffffff\n      and\n      balance\n        /* \"eth based/truffle/contracts/FLIR_Contract.sol\":2922:2949  bal = _balanceCheck.balance */\n      swap1\n      pop\n        /* \"eth based/truffle/contracts/FLIR_Contract.sol\":2844:2979  function getBalance(address _balanceCheck) public returns (uint bal){... */\n      swap2\n      swap1\n      pop\n      jump\t// out\n        /* \"#utility.yul\":7:146   */\n    tag_171:\n        /* \"#utility.yul\":53:58   */\n      0x00\n        /* \"#utility.yul\":91:97   */\n      dup2\n        /* \"#utility.yul\":78:98   */\n      calldataload\n        /* \"#utility.yul\":69:98   */\n      swap1\n      pop\n        /* \"#utility.yul\":107:140   */\n      tag_173\n        /* \"#utility.yul\":134:139   */\n      dup2\n        /* \"#utility.yul\":107:140   */\n      tag_174\n      jump\t// in\n    tag_173:\n        /* \"#utility.yul\":7:146   */\n      swap3\n      swap2\n      pop\n      pop\n      jump\t// out\n        /* \"#utility.yul\":152:307   */\n    tag_175:\n        /* \"#utility.yul\":206:211   */\n      0x00\n        /* \"#utility.yul\":244:250   */\n      dup2\n        /* \"#utility.yul\":231:251   */\n      calldataload\n        /* \"#utility.yul\":222:251   */\n      swap1\n      pop\n        /* \"#utility.yul\":260:301   */\n      tag_177\n        /* \"#utility.yul\":295:300   */\n      dup2\n        /* \"#utility.yul\":260:301   */\n      tag_178\n      jump\t// in\n    tag_177:\n        /* \"#utility.yul\":152:307   */\n      swap3\n      swap2\n      pop\n      pop\n      jump\t// out\n        /* \"#utility.yul\":313:452   */\n    tag_179:\n        /* \"#utility.yul\":359:364   */\n      0x00\n        /* \"#utility.yul\":397:403   */\n      dup2\n        /* \"#utility.yul\":384:404   */\n      calldataload\n        /* \"#utility.yul\":375:404   */\n      swap1\n      pop\n        /* \"#utility.yul\":413:446   */\n      tag_181\n        /* \"#utility.yul\":440:445   */\n      dup2\n        /* \"#utility.yul\":413:446   */\n      tag_182\n      jump\t// in\n    tag_181:\n        /* \"#utility.yul\":313:452   */\n      swap3\n      swap2\n      pop\n      pop\n      jump\t// out\n        /* \"#utility.yul\":458:787   */\n    tag_100:\n        /* \"#utility.yul\":517:523   */\n      0x00\n        /* \"#utility.yul\":566:568   */\n      0x20\n        /* \"#utility.yul\":554:563   */\n      dup3\n        /* \"#utility.yul\":545:552   */\n      dup5\n        /* \"#utility.yul\":541:564   */\n      sub\n        /* \"#utility.yul\":537:569   */\n      slt\n        /* \"#utility.yul\":534:653   */\n      iszero\n      tag_184\n      jumpi\n        /* \"#utility.yul\":572:651   */\n      tag_185\n      tag_186\n      jump\t// in\n    tag_185:\n        /* \"#utility.yul\":534:653   */\n    tag_184:\n        /* \"#utility.yul\":692:693   */\n      0x00\n        /* \"#utility.yul\":717:770   */\n      tag_187\n        /* \"#utility.yul\":762:769   */\n      dup5\n        /* \"#utility.yul\":753:759   */\n      dup3\n        /* \"#utility.yul\":742:751   */\n      dup6\n        /* \"#utility.yul\":738:760   */\n      add\n        /* \"#utility.yul\":717:770   */\n      tag_171\n      jump\t// in\n    tag_187:\n        /* \"#utility.yul\":707:770   */\n      swap2\n      pop\n        /* \"#utility.yul\":663:780   */\n      pop\n        /* \"#utility.yul\":458:787   */\n      swap3\n      swap2\n      pop\n      pop\n      jump\t// out\n        /* \"#utility.yul\":793:1283   */\n    tag_84:\n        /* \"#utility.yul\":869:875   */\n      0x00\n        /* \"#utility.yul\":877:883   */\n      dup1\n        /* \"#utility.yul\":926:928   */\n      0x40\n        /* \"#utility.yul\":914:923   */\n      dup4\n        /* \"#utility.yul\":905:912   */\n      dup6\n        /* \"#utility.yul\":901:924   */\n      sub\n        /* \"#utility.yul\":897:929   */\n      slt\n        /* \"#utility.yul\":894:1013   */\n      iszero\n      tag_189\n      jumpi\n        /* \"#utility.yul\":932:1011   */\n      tag_190\n      tag_186\n      jump\t// in\n    tag_190:\n        /* \"#utility.yul\":894:1013   */\n    tag_189:\n        /* \"#utility.yul\":1052:1053   */\n      0x00\n        /* \"#utility.yul\":1077:1138   */\n      tag_191\n        /* \"#utility.yul\":1130:1137   */\n      dup6\n        /* \"#utility.yul\":1121:1127   */\n      dup3\n        /* \"#utility.yul\":1110:1119   */\n      dup7\n        /* \"#utility.yul\":1106:1128   */\n      add\n        /* \"#utility.yul\":1077:1138   */\n      tag_175\n      jump\t// in\n    tag_191:\n        /* \"#utility.yul\":1067:1138   */\n      swap3\n      pop\n        /* \"#utility.yul\":1023:1148   */\n      pop\n        /* \"#utility.yul\":1187:1189   */\n      0x20\n        /* \"#utility.yul\":1213:1266   */\n      tag_192\n        /* \"#utility.yul\":1258:1265   */\n      dup6\n        /* \"#utility.yul\":1249:1255   */\n      dup3\n        /* \"#utility.yul\":1238:1247   */\n      dup7\n        /* \"#utility.yul\":1234:1256   */\n      add\n        /* \"#utility.yul\":1213:1266   */\n      tag_179\n      jump\t// in\n    tag_192:\n        /* \"#utility.yul\":1203:1266   */\n      swap2\n      pop\n        /* \"#utility.yul\":1158:1276   */\n      pop\n        /* \"#utility.yul\":793:1283   */\n      swap3\n      pop\n      swap3\n      swap1\n      pop\n      jump\t// out\n        /* \"#utility.yul\":1289:1618   */\n    tag_56:\n        /* \"#utility.yul\":1348:1354   */\n      0x00\n        /* \"#utility.yul\":1397:1399   */\n      0x20\n        /* \"#utility.yul\":1385:1394   */\n      dup3\n        /* \"#utility.yul\":1376:1383   */\n      dup5\n        /* \"#utility.yul\":1372:1395   */\n      sub\n        /* \"#utility.yul\":1368:1400   */\n      slt\n        /* \"#utility.yul\":1365:1484   */\n      iszero\n      tag_194\n      jumpi\n        /* \"#utility.yul\":1403:1482   */\n      tag_195\n      tag_186\n      jump\t// in\n    tag_195:\n        /* \"#utility.yul\":1365:1484   */\n    tag_194:\n        /* \"#utility.yul\":1523:1524   */\n      0x00\n        /* \"#utility.yul\":1548:1601   */\n      tag_196\n        /* \"#utility.yul\":1593:1600   */\n      dup5\n        /* \"#utility.yul\":1584:1590   */\n      dup3\n        /* \"#utility.yul\":1573:1582   */\n      dup6\n        /* \"#utility.yul\":1569:1591   */\n      add\n        /* \"#utility.yul\":1548:1601   */\n      tag_179\n      jump\t// in\n    tag_196:\n        /* \"#utility.yul\":1538:1601   */\n      swap2\n      pop\n        /* \"#utility.yul\":1494:1611   */\n      pop\n        /* \"#utility.yul\":1289:1618   */\n      swap3\n      swap2\n      pop\n      pop\n      jump\t// out\n        /* \"#utility.yul\":1624:2243   */\n    tag_93:\n        /* \"#utility.yul\":1701:1707   */\n      0x00\n        /* \"#utility.yul\":1709:1715   */\n      dup1\n        /* \"#utility.yul\":1717:1723   */\n      0x00\n        /* \"#utility.yul\":1766:1768   */\n      0x60\n        /* \"#utility.yul\":1754:1763   */\n      dup5\n        /* \"#utility.yul\":1745:1752   */\n      dup7\n        /* \"#utility.yul\":1741:1764   */\n      sub\n        /* \"#utility.yul\":1737:1769   */\n      slt\n        /* \"#utility.yul\":1734:1853   */\n      iszero\n      tag_198\n      jumpi\n        /* \"#utility.yul\":1772:1851   */\n      tag_199\n      tag_186\n      jump\t// in\n    tag_199:\n        /* \"#utility.yul\":1734:1853   */\n    tag_198:\n        /* \"#utility.yul\":1892:1893   */\n      0x00\n        /* \"#utility.yul\":1917:1970   */\n      tag_200\n        /* \"#utility.yul\":1962:1969   */\n      dup7\n        /* \"#utility.yul\":1953:1959   */\n      dup3\n        /* \"#utility.yul\":1942:1951   */\n      dup8\n        /* \"#utility.yul\":1938:1960   */\n      add\n        /* \"#utility.yul\":1917:1970   */\n      tag_179\n      jump\t// in\n    tag_200:\n        /* \"#utility.yul\":1907:1970   */\n      swap4\n      pop\n        /* \"#utility.yul\":1863:1980   */\n      pop\n        /* \"#utility.yul\":2019:2021   */\n      0x20\n        /* \"#utility.yul\":2045:2098   */\n      tag_201\n        /* \"#utility.yul\":2090:2097   */\n      dup7\n        /* \"#utility.yul\":2081:2087   */\n      dup3\n        /* \"#utility.yul\":2070:2079   */\n      dup8\n        /* \"#utility.yul\":2066:2088   */\n      add\n        /* \"#utility.yul\":2045:2098   */\n      tag_179\n      jump\t// in\n    tag_201:\n        /* \"#utility.yul\":2035:2098   */\n      swap3\n      pop\n        /* \"#utility.yul\":1990:2108   */\n      pop\n        /* \"#utility.yul\":2147:2149   */\n      0x40\n        /* \"#utility.yul\":2173:2226   */\n      tag_202\n        /* \"#utility.yul\":2218:2225   */\n      dup7\n        /* \"#utility.yul\":2209:2215   */\n      dup3\n        /* \"#utility.yul\":2198:2207   */\n      dup8\n        /* \"#utility.yul\":2194:2216   */\n      add\n        /* \"#utility.yul\":2173:2226   */\n      tag_179\n      jump\t// in\n    tag_202:\n        /* \"#utility.yul\":2163:2226   */\n      swap2\n      pop\n        /* \"#utility.yul\":2118:2236   */\n      pop\n        /* \"#utility.yul\":1624:2243   */\n      swap3\n      pop\n      swap3\n      pop\n      swap3\n      jump\t// out\n        /* \"#utility.yul\":2249:2367   */\n    tag_203:\n        /* \"#utility.yul\":2336:2360   */\n      tag_205\n        /* \"#utility.yul\":2354:2359   */\n      dup2\n        /* \"#utility.yul\":2336:2360   */\n      tag_206\n      jump\t// in\n    tag_205:\n        /* \"#utility.yul\":2331:2334   */\n      dup3\n        /* \"#utility.yul\":2324:2361   */\n      mstore\n        /* \"#utility.yul\":2249:2367   */\n      pop\n      pop\n      jump\t// out\n        /* \"#utility.yul\":2373:2491   */\n    tag_207:\n        /* \"#utility.yul\":2460:2484   */\n      tag_209\n        /* \"#utility.yul\":2478:2483   */\n      dup2\n        /* \"#utility.yul\":2460:2484   */\n      tag_210\n      jump\t// in\n    tag_209:\n        /* \"#utility.yul\":2455:2458   */\n      dup3\n        /* \"#utility.yul\":2448:2485   */\n      mstore\n        /* \"#utility.yul\":2373:2491   */\n      pop\n      pop\n      jump\t// out\n        /* \"#utility.yul\":2497:2719   */\n    tag_27:\n        /* \"#utility.yul\":2590:2594   */\n      0x00\n        /* \"#utility.yul\":2628:2630   */\n      0x20\n        /* \"#utility.yul\":2617:2626   */\n      dup3\n        /* \"#utility.yul\":2613:2631   */\n      add\n        /* \"#utility.yul\":2605:2631   */\n      swap1\n      pop\n        /* \"#utility.yul\":2641:2712   */\n      tag_212\n        /* \"#utility.yul\":2709:2710   */\n      0x00\n        /* \"#utility.yul\":2698:2707   */\n      dup4\n        /* \"#utility.yul\":2694:2711   */\n      add\n        /* \"#utility.yul\":2685:2691   */\n      dup5\n        /* \"#utility.yul\":2641:2712   */\n      tag_203\n      jump\t// in\n    tag_212:\n        /* \"#utility.yul\":2497:2719   */\n      swap3\n      swap2\n      pop\n      pop\n      jump\t// out\n        /* \"#utility.yul\":2725:2947   */\n    tag_32:\n        /* \"#utility.yul\":2818:2822   */\n      0x00\n        /* \"#utility.yul\":2856:2858   */\n      0x20\n        /* \"#utility.yul\":2845:2854   */\n      dup3\n        /* \"#utility.yul\":2841:2859   */\n      add\n        /* \"#utility.yul\":2833:2859   */\n      swap1\n      pop\n        /* \"#utility.yul\":2869:2940   */\n      tag_214\n        /* \"#utility.yul\":2937:2938   */\n      0x00\n        /* \"#utility.yul\":2926:2935   */\n      dup4\n        /* \"#utility.yul\":2922:2939   */\n      add\n        /* \"#utility.yul\":2913:2919   */\n      dup5\n        /* \"#utility.yul\":2869:2940   */\n      tag_207\n      jump\t// in\n    tag_214:\n        /* \"#utility.yul\":2725:2947   */\n      swap3\n      swap2\n      pop\n      pop\n      jump\t// out\n        /* \"#utility.yul\":2953:3395   */\n    tag_96:\n        /* \"#utility.yul\":3102:3106   */\n      0x00\n        /* \"#utility.yul\":3140:3142   */\n      0x60\n        /* \"#utility.yul\":3129:3138   */\n      dup3\n        /* \"#utility.yul\":3125:3143   */\n      add\n        /* \"#utility.yul\":3117:3143   */\n      swap1\n      pop\n        /* \"#utility.yul\":3153:3224   */\n      tag_216\n        /* \"#utility.yul\":3221:3222   */\n      0x00\n        /* \"#utility.yul\":3210:3219   */\n      dup4\n        /* \"#utility.yul\":3206:3223   */\n      add\n        /* \"#utility.yul\":3197:3203   */\n      dup7\n        /* \"#utility.yul\":3153:3224   */\n      tag_207\n      jump\t// in\n    tag_216:\n        /* \"#utility.yul\":3234:3306   */\n      tag_217\n        /* \"#utility.yul\":3302:3304   */\n      0x20\n        /* \"#utility.yul\":3291:3300   */\n      dup4\n        /* \"#utility.yul\":3287:3305   */\n      add\n        /* \"#utility.yul\":3278:3284   */\n      dup6\n        /* \"#utility.yul\":3234:3306   */\n      tag_207\n      jump\t// in\n    tag_217:\n        /* \"#utility.yul\":3316:3388   */\n      tag_218\n        /* \"#utility.yul\":3384:3386   */\n      0x40\n        /* \"#utility.yul\":3373:3382   */\n      dup4\n        /* \"#utility.yul\":3369:3387   */\n      add\n        /* \"#utility.yul\":3360:3366   */\n      dup5\n        /* \"#utility.yul\":3316:3388   */\n      tag_207\n      jump\t// in\n    tag_218:\n        /* \"#utility.yul\":2953:3395   */\n      swap5\n      swap4\n      pop\n      pop\n      pop\n      pop\n      jump\t// out\n        /* \"#utility.yul\":3482:3787   */\n    tag_118:\n        /* \"#utility.yul\":3522:3525   */\n      0x00\n        /* \"#utility.yul\":3541:3561   */\n      tag_222\n        /* \"#utility.yul\":3559:3560   */\n      dup3\n        /* \"#utility.yul\":3541:3561   */\n      tag_210\n      jump\t// in\n    tag_222:\n        /* \"#utility.yul\":3536:3561   */\n      swap2\n      pop\n        /* \"#utility.yul\":3575:3595   */\n      tag_223\n        /* \"#utility.yul\":3593:3594   */\n      dup4\n        /* \"#utility.yul\":3575:3595   */\n      tag_210\n      jump\t// in\n    tag_223:\n        /* \"#utility.yul\":3570:3595   */\n      swap3\n      pop\n        /* \"#utility.yul\":3729:3730   */\n      dup3\n        /* \"#utility.yul\":3661:3727   */\n      0xffffffffffffffffffffffffffffffffffffffffffffffffffffffffffffffff\n        /* \"#utility.yul\":3657:3731   */\n      sub\n        /* \"#utility.yul\":3654:3655   */\n      dup3\n        /* \"#utility.yul\":3651:3732   */\n      gt\n        /* \"#utility.yul\":3648:3755   */\n      iszero\n      tag_224\n      jumpi\n        /* \"#utility.yul\":3735:3753   */\n      tag_225\n      tag_226\n      jump\t// in\n    tag_225:\n        /* \"#utility.yul\":3648:3755   */\n    tag_224:\n        /* \"#utility.yul\":3779:3780   */\n      dup3\n        /* \"#utility.yul\":3776:3777   */\n      dup3\n        /* \"#utility.yul\":3772:3781   */\n      add\n        /* \"#utility.yul\":3765:3781   */\n      swap1\n      pop\n        /* \"#utility.yul\":3482:3787   */\n      swap3\n      swap2\n      pop\n      pop\n      jump\t// out\n        /* \"#utility.yul\":3793:4141   */\n    tag_105:\n        /* \"#utility.yul\":3833:3840   */\n      0x00\n        /* \"#utility.yul\":3856:3876   */\n      tag_228\n        /* \"#utility.yul\":3874:3875   */\n      dup3\n        /* \"#utility.yul\":3856:3876   */\n      tag_210\n      jump\t// in\n    tag_228:\n        /* \"#utility.yul\":3851:3876   */\n      swap2\n      pop\n        /* \"#utility.yul\":3890:3910   */\n      tag_229\n        /* \"#utility.yul\":3908:3909   */\n      dup4\n        /* \"#utility.yul\":3890:3910   */\n      tag_210\n      jump\t// in\n    tag_229:\n        /* \"#utility.yul\":3885:3910   */\n      swap3\n      pop\n        /* \"#utility.yul\":4078:4079   */\n      dup2\n        /* \"#utility.yul\":4010:4076   */\n      0xffffffffffffffffffffffffffffffffffffffffffffffffffffffffffffffff\n        /* \"#utility.yul\":4006:4080   */\n      div\n        /* \"#utility.yul\":4003:4004   */\n      dup4\n        /* \"#utility.yul\":4000:4081   */\n      gt\n        /* \"#utility.yul\":3995:3996   */\n      dup3\n        /* \"#utility.yul\":3988:3997   */\n      iszero\n        /* \"#utility.yul\":3981:3998   */\n      iszero\n        /* \"#utility.yul\":3977:4082   */\n      and\n        /* \"#utility.yul\":3974:4105   */\n      iszero\n      tag_230\n      jumpi\n        /* \"#utility.yul\":4085:4103   */\n      tag_231\n      tag_226\n      jump\t// in\n    tag_231:\n        /* \"#utility.yul\":3974:4105   */\n    tag_230:\n        /* \"#utility.yul\":4133:4134   */\n      dup3\n        /* \"#utility.yul\":4130:4131   */\n      dup3\n        /* \"#utility.yul\":4126:4135   */\n      mul\n        /* \"#utility.yul\":4115:4135   */\n      swap1\n      pop\n        /* \"#utility.yul\":3793:4141   */\n      swap3\n      swap2\n      pop\n      pop\n      jump\t// out\n        /* \"#utility.yul\":4147:4338   */\n    tag_114:\n        /* \"#utility.yul\":4187:4191   */\n      0x00\n        /* \"#utility.yul\":4207:4227   */\n      tag_233\n        /* \"#utility.yul\":4225:4226   */\n      dup3\n        /* \"#utility.yul\":4207:4227   */\n      tag_210\n      jump\t// in\n    tag_233:\n        /* \"#utility.yul\":4202:4227   */\n      swap2\n      pop\n        /* \"#utility.yul\":4241:4261   */\n      tag_234\n        /* \"#utility.yul\":4259:4260   */\n      dup4\n        /* \"#utility.yul\":4241:4261   */\n      tag_210\n      jump\t// in\n    tag_234:\n        /* \"#utility.yul\":4236:4261   */\n      swap3\n      pop\n        /* \"#utility.yul\":4280:4281   */\n      dup3\n        /* \"#utility.yul\":4277:4278   */\n      dup3\n        /* \"#utility.yul\":4274:4282   */\n      lt\n        /* \"#utility.yul\":4271:4305   */\n      iszero\n      tag_235\n      jumpi\n        /* \"#utility.yul\":4285:4303   */\n      tag_236\n      tag_226\n      jump\t// in\n    tag_236:\n        /* \"#utility.yul\":4271:4305   */\n    tag_235:\n        /* \"#utility.yul\":4330:4331   */\n      dup3\n        /* \"#utility.yul\":4327:4328   */\n      dup3\n        /* \"#utility.yul\":4323:4332   */\n      sub\n        /* \"#utility.yul\":4315:4332   */\n      swap1\n      pop\n        /* \"#utility.yul\":4147:4338   */\n      swap3\n      swap2\n      pop\n      pop\n      jump\t// out\n        /* \"#utility.yul\":4344:4440   */\n    tag_206:\n        /* \"#utility.yul\":4381:4388   */\n      0x00\n        /* \"#utility.yul\":4410:4434   */\n      tag_238\n        /* \"#utility.yul\":4428:4433   */\n      dup3\n        /* \"#utility.yul\":4410:4434   */\n      tag_239\n      jump\t// in\n    tag_238:\n        /* \"#utility.yul\":4399:4434   */\n      swap1\n      pop\n        /* \"#utility.yul\":4344:4440   */\n      swap2\n      swap1\n      pop\n      jump\t// out\n        /* \"#utility.yul\":4446:4550   */\n    tag_240:\n        /* \"#utility.yul\":4491:4498   */\n      0x00\n        /* \"#utility.yul\":4520:4544   */\n      tag_242\n        /* \"#utility.yul\":4538:4543   */\n      dup3\n        /* \"#utility.yul\":4520:4544   */\n      tag_239\n      jump\t// in\n    tag_242:\n        /* \"#utility.yul\":4509:4544   */\n      swap1\n      pop\n        /* \"#utility.yul\":4446:4550   */\n      swap2\n      swap1\n      pop\n      jump\t// out\n        /* \"#utility.yul\":4556:4682   */\n    tag_239:\n        /* \"#utility.yul\":4593:4600   */\n      0x00\n        /* \"#utility.yul\":4633:4675   */\n      0xffffffffffffffffffffffffffffffffffffffff\n        /* \"#utility.yul\":4626:4631   */\n      dup3\n        /* \"#utility.yul\":4622:4676   */\n      and\n        /* \"#utility.yul\":4611:4676   */\n      swap1\n      pop\n        /* \"#utility.yul\":4556:4682   */\n      swap2\n      swap1\n      pop\n      jump\t// out\n        /* \"#utility.yul\":4688:4765   */\n    tag_210:\n        /* \"#utility.yul\":4725:4732   */\n      0x00\n        /* \"#utility.yul\":4754:4759   */\n      dup2\n        /* \"#utility.yul\":4743:4759   */\n      swap1\n      pop\n        /* \"#utility.yul\":4688:4765   */\n      swap2\n      swap1\n      pop\n      jump\t// out\n        /* \"#utility.yul\":4771:4951   */\n    tag_226:\n        /* \"#utility.yul\":4819:4896   */\n      0x4e487b7100000000000000000000000000000000000000000000000000000000\n        /* \"#utility.yul\":4816:4817   */\n      0x00\n        /* \"#utility.yul\":4809:4897   */\n      mstore\n        /* \"#utility.yul\":4916:4920   */\n      0x11\n        /* \"#utility.yul\":4913:4914   */\n      0x04\n        /* \"#utility.yul\":4906:4921   */\n      mstore\n        /* \"#utility.yul\":4940:4944   */\n      0x24\n        /* \"#utility.yul\":4937:4938   */\n      0x00\n        /* \"#utility.yul\":4930:4945   */\n      revert\n        /* \"#utility.yul\":5080:5197   */\n    tag_186:\n        /* \"#utility.yul\":5189:5190   */\n      0x00\n        /* \"#utility.yul\":5186:5187   */\n      dup1\n        /* \"#utility.yul\":5179:5191   */\n      revert\n        /* \"#utility.yul\":5203:5325   */\n    tag_174:\n        /* \"#utility.yul\":5276:5300   */\n      tag_250\n        /* \"#utility.yul\":5294:5299   */\n      dup2\n        /* \"#utility.yul\":5276:5300   */\n      tag_206\n      jump\t// in\n    tag_250:\n        /* \"#utility.yul\":5269:5274   */\n      dup2\n        /* \"#utility.yul\":5266:5301   */\n      eq\n        /* \"#utility.yul\":5256:5319   */\n      tag_251\n      jumpi\n        /* \"#utility.yul\":5315:5316   */\n      0x00\n        /* \"#utility.yul\":5312:5313   */\n      dup1\n        /* \"#utility.yul\":5305:5317   */\n      revert\n        /* \"#utility.yul\":5256:5319   */\n    tag_251:\n        /* \"#utility.yul\":5203:5325   */\n      pop\n      jump\t// out\n        /* \"#utility.yul\":5331:5469   */\n    tag_178:\n        /* \"#utility.yul\":5412:5444   */\n      tag_253\n        /* \"#utility.yul\":5438:5443   */\n      dup2\n        /* \"#utility.yul\":5412:5444   */\n      tag_240\n      jump\t// in\n    tag_253:\n        /* \"#utility.yul\":5405:5410   */\n      dup2\n        /* \"#utility.yul\":5402:5445   */\n      eq\n        /* \"#utility.yul\":5392:5463   */\n      tag_254\n      jumpi\n        /* \"#utility.yul\":5459:5460   */\n      0x00\n        /* \"#utility.yul\":5456:5457   */\n      dup1\n        /* \"#utility.yul\":5449:5461   */\n      revert\n        /* \"#utility.yul\":5392:5463   */\n    tag_254:\n        /* \"#utility.yul\":5331:5469   */\n      pop\n      jump\t// out\n        /* \"#utility.yul\":5475:5597   */\n    tag_182:\n        /* \"#utility.yul\":5548:5572   */\n      tag_256\n        /* \"#utility.yul\":5566:5571   */\n      dup2\n        /* \"#utility.yul\":5548:5572   */\n      tag_210\n      jump\t// in\n    tag_256:\n        /* \"#utility.yul\":5541:5546   */\n      dup2\n        /* \"#utility.yul\":5538:5573   */\n      eq\n        /* \"#utility.yul\":5528:5591   */\n      tag_257\n      jumpi\n        /* \"#utility.yul\":5587:5588   */\n      0x00\n        /* \"#utility.yul\":5584:5585   */\n      dup1\n        /* \"#utility.yul\":5577:5589   */\n      revert\n        /* \"#utility.yul\":5528:5591   */\n    tag_257:\n        /* \"#utility.yul\":5475:5597   */\n      pop\n      jump\t// out\n\n    auxdata: 0xa2646970667358221220d0fdaa7b014ec9b4a2da2dad97a3ea07495f5a7582d81c9737e341b522ea625064736f6c63430008070033\n}\n",
				"bytecode": {
					"linkReferences": {},
					"object": "608060405260006003556003600455600360055560046006556005600755600660085560076009556008600a556009600b55600a600c5534801561004257600080fd5b50336000806101000a81548173ffffffffffffffffffffffffffffffffffffffff021916908373ffffffffffffffffffffffffffffffffffffffff160217905550610b7d806100926000396000f3fe6080604052600436106101095760003560e01c80637c134b1411610095578063c2c496ec11610064578063c2c496ec14610340578063d0679d341461036b578063ed2fa5ab14610387578063f02e48c3146103b2578063f8b2cb4f146103f157610109565b80637c134b14146102b5578063a8bdb68b146102bf578063b4ad7fa9146102ea578063b69ef8a81461031557610109565b806328780a44116100dc57806328780a44146101ba5780632c9af64c146101e5578063481c6a75146102105780635c8f6b561461023b578063721028ec1461027857610109565b806308551a531461010e5780630c03a1a314610139578063103347e71461016457806320e731a11461018f575b600080fd5b34801561011a57600080fd5b5061012361042e565b604051610130919061092f565b60405180910390f35b34801561014557600080fd5b5061014e610454565b60405161015b919061094a565b60405180910390f35b34801561017057600080fd5b5061017961045a565b604051610186919061094a565b60405180910390f35b34801561019b57600080fd5b506101a4610460565b6040516101b1919061094a565b60405180910390f35b3480156101c657600080fd5b506101cf610466565b6040516101dc919061094a565b60405180910390f35b3480156101f157600080fd5b506101fa61046c565b604051610207919061094a565b60405180910390f35b34801561021c57600080fd5b50610225610472565b604051610232919061092f565b60405180910390f35b34801561024757600080fd5b50610262600480360381019061025d9190610891565b610498565b60405161026f919061094a565b60405180910390f35b34801561028457600080fd5b5061029f600480360381019061029a9190610891565b6104af565b6040516102ac919061094a565b60405180910390f35b6102bd610729565b005b3480156102cb57600080fd5b506102d4610744565b6040516102e1919061094a565b60405180910390f35b3480156102f657600080fd5b506102ff61074a565b60405161030c919061094a565b60405180910390f35b34801561032157600080fd5b5061032a610750565b604051610337919061094a565b60405180910390f35b34801561034c57600080fd5b50610355610756565b604051610362919061094a565b60405180910390f35b61038560048036038101906103809190610851565b61075c565b005b34801561039357600080fd5b5061039c6107a7565b6040516103a9919061094a565b60405180910390f35b3480156103be57600080fd5b506103d960048036038101906103d491906108be565b6107ad565b6040516103e893929190610965565b60405180910390f35b3480156103fd57600080fd5b5061041860048036038101906104139190610824565b6107c4565b604051610425919061094a565b60405180910390f35b600260009054906101000a900473ffffffffffffffffffffffffffffffffffffffff1681565b60095481565b60085481565b60075481565b60065481565b60045481565b600160009054906101000a900473ffffffffffffffffffffffffffffffffffffffff1681565b6000600454826104a891906109f2565b9050919050565b600060fb8210156106af5760338210156104d857600554826104d191906109f2565b90506106aa565b6032821180156104e85750606582105b15610527576006546032836104fd9190610a4c565b61050791906109f2565b600554603261051691906109f2565b610520919061099c565b90506106a9565b6064821180156105375750609782105b1561058f5760075460328361054c9190610a4c565b61055691906109f2565b600654603261056591906109f2565b600554603261057491906109f2565b61057e919061099c565b610588919061099c565b90506106a8565b60968211801561059f575060c982105b15610610576008546032836105b49190610a4c565b6105be91906109f2565b60075460326105cd91906109f2565b60065460326105dc91906109f2565b60055460326105eb91906109f2565b6105f5919061099c565b6105ff919061099c565b610609919061099c565b90506106a7565b60c882118015610620575060fb82105b156106a6576009546032836106359190610a4c565b61063f91906109f2565b600854603261064e91906109f2565b600754603261065d91906109f2565b600654603261066c91906109f2565b600554603261067b91906109f2565b610685919061099c565b61068f919061099c565b610699919061099c565b6106a3919061099c565b90505b5b5b5b5b610724565b60fa821180156106c0575061015f82105b156106da57600a54826106d391906109f2565b9050610723565b61015e821180156106ec57506101c382105b1561070657600b54826106ff91906109f2565b9050610722565b6101c282111561072157600c548261071e91906109f2565b90505b5b5b5b919050565b346003600082825461073b919061099c565b92505081905550565b600c5481565b600a5481565b60035481565b60055481565b8173ffffffffffffffffffffffffffffffffffffffff166108fc829081150290604051600060405180830381858888f193505050501580156107a2573d6000803e3d6000fd5b505050565b600b5481565b600080600085925084915083905093509350939050565b60008173ffffffffffffffffffffffffffffffffffffffff16319050919050565b6000813590506107f481610b02565b92915050565b60008135905061080981610b19565b92915050565b60008135905061081e81610b30565b92915050565b60006020828403121561083a57610839610afd565b5b6000610848848285016107e5565b91505092915050565b6000806040838503121561086857610867610afd565b5b6000610876858286016107fa565b92505060206108878582860161080f565b9150509250929050565b6000602082840312156108a7576108a6610afd565b5b60006108b58482850161080f565b91505092915050565b6000806000606084860312156108d7576108d6610afd565b5b60006108e58682870161080f565b93505060206108f68682870161080f565b92505060406109078682870161080f565b9150509250925092565b61091a81610a80565b82525050565b61092981610ac4565b82525050565b60006020820190506109446000830184610911565b92915050565b600060208201905061095f6000830184610920565b92915050565b600060608201905061097a6000830186610920565b6109876020830185610920565b6109946040830184610920565b949350505050565b60006109a782610ac4565b91506109b283610ac4565b9250827fffffffffffffffffffffffffffffffffffffffffffffffffffffffffffffffff038211156109e7576109e6610ace565b5b828201905092915050565b60006109fd82610ac4565b9150610a0883610ac4565b9250817fffffffffffffffffffffffffffffffffffffffffffffffffffffffffffffffff0483118215151615610a4157610a40610ace565b5b828202905092915050565b6000610a5782610ac4565b9150610a6283610ac4565b925082821015610a7557610a74610ace565b5b828203905092915050565b6000610a8b82610aa4565b9050919050565b6000610a9d82610aa4565b9050919050565b600073ffffffffffffffffffffffffffffffffffffffff82169050919050565b6000819050919050565b7f4e487b7100000000000000000000000000000000000000000000000000000000600052601160045260246000fd5b600080fd5b610b0b81610a80565b8114610b1657600080fd5b50565b610b2281610a92565b8114610b2d57600080fd5b50565b610b3981610ac4565b8114610b4457600080fd5b5056fea2646970667358221220d0fdaa7b014ec9b4a2da2dad97a3ea07495f5a7582d81c9737e341b522ea625064736f6c63430008070033",
					"opcodes": "PUSH1 0x80 PUSH1 0x40 MSTORE PUSH1 0x0 PUSH1 0x3 SSTORE PUSH1 0x3 PUSH1 0x4 SSTORE PUSH1 0x3 PUSH1 0x5 SSTORE PUSH1 0x4 PUSH1 0x6 SSTORE PUSH1 0x5 PUSH1 0x7 SSTORE PUSH1 0x6 PUSH1 0x8 SSTORE PUSH1 0x7 PUSH1 0x9 SSTORE PUSH1 0x8 PUSH1 0xA SSTORE PUSH1 0x9 PUSH1 0xB SSTORE PUSH1 0xA PUSH1 0xC SSTORE CALLVALUE DUP1 ISZERO PUSH2 0x42 JUMPI PUSH1 0x0 DUP1 REVERT JUMPDEST POP CALLER PUSH1 0x0 DUP1 PUSH2 0x100 EXP DUP2 SLOAD DUP2 PUSH20 0xFFFFFFFFFFFFFFFFFFFFFFFFFFFFFFFFFFFFFFFF MUL NOT AND SWAP1 DUP4 PUSH20 0xFFFFFFFFFFFFFFFFFFFFFFFFFFFFFFFFFFFFFFFF AND MUL OR SWAP1 SSTORE POP PUSH2 0xB7D DUP1 PUSH2 0x92 PUSH1 0x0 CODECOPY PUSH1 0x0 RETURN INVALID PUSH1 0x80 PUSH1 0x40 MSTORE PUSH1 0x4 CALLDATASIZE LT PUSH2 0x109 JUMPI PUSH1 0x0 CALLDATALOAD PUSH1 0xE0 SHR DUP1 PUSH4 0x7C134B14 GT PUSH2 0x95 JUMPI DUP1 PUSH4 0xC2C496EC GT PUSH2 0x64 JUMPI DUP1 PUSH4 0xC2C496EC EQ PUSH2 0x340 JUMPI DUP1 PUSH4 0xD0679D34 EQ PUSH2 0x36B JUMPI DUP1 PUSH4 0xED2FA5AB EQ PUSH2 0x387 JUMPI DUP1 PUSH4 0xF02E48C3 EQ PUSH2 0x3B2 JUMPI DUP1 PUSH4 0xF8B2CB4F EQ PUSH2 0x3F1 JUMPI PUSH2 0x109 JUMP JUMPDEST DUP1 PUSH4 0x7C134B14 EQ PUSH2 0x2B5 JUMPI DUP1 PUSH4 0xA8BDB68B EQ PUSH2 0x2BF JUMPI DUP1 PUSH4 0xB4AD7FA9 EQ PUSH2 0x2EA JUMPI DUP1 PUSH4 0xB69EF8A8 EQ PUSH2 0x315 JUMPI PUSH2 0x109 JUMP JUMPDEST DUP1 PUSH4 0x28780A44 GT PUSH2 0xDC JUMPI DUP1 PUSH4 0x28780A44 EQ PUSH2 0x1BA JUMPI DUP1 PUSH4 0x2C9AF64C EQ PUSH2 0x1E5 JUMPI DUP1 PUSH4 0x481C6A75 EQ PUSH2 0x210 JUMPI DUP1 PUSH4 0x5C8F6B56 EQ PUSH2 0x23B JUMPI DUP1 PUSH4 0x721028EC EQ PUSH2 0x278 JUMPI PUSH2 0x109 JUMP JUMPDEST DUP1 PUSH4 0x8551A53 EQ PUSH2 0x10E JUMPI DUP1 PUSH4 0xC03A1A3 EQ PUSH2 0x139 JUMPI DUP1 PUSH4 0x103347E7 EQ PUSH2 0x164 JUMPI DUP1 PUSH4 0x20E731A1 EQ PUSH2 0x18F JUMPI JUMPDEST PUSH1 0x0 DUP1 REVERT JUMPDEST CALLVALUE DUP1 ISZERO PUSH2 0x11A JUMPI PUSH1 0x0 DUP1 REVERT JUMPDEST POP PUSH2 0x123 PUSH2 0x42E JUMP JUMPDEST PUSH1 0x40 MLOAD PUSH2 0x130 SWAP2 SWAP1 PUSH2 0x92F JUMP JUMPDEST PUSH1 0x40 MLOAD DUP1 SWAP2 SUB SWAP1 RETURN JUMPDEST CALLVALUE DUP1 ISZERO PUSH2 0x145 JUMPI PUSH1 0x0 DUP1 REVERT JUMPDEST POP PUSH2 0x14E PUSH2 0x454 JUMP JUMPDEST PUSH1 0x40 MLOAD PUSH2 0x15B SWAP2 SWAP1 PUSH2 0x94A JUMP JUMPDEST PUSH1 0x40 MLOAD DUP1 SWAP2 SUB SWAP1 RETURN JUMPDEST CALLVALUE DUP1 ISZERO PUSH2 0x170 JUMPI PUSH1 0x0 DUP1 REVERT JUMPDEST POP PUSH2 0x179 PUSH2 0x45A JUMP JUMPDEST PUSH1 0x40 MLOAD PUSH2 0x186 SWAP2 SWAP1 PUSH2 0x94A JUMP JUMPDEST PUSH1 0x40 MLOAD DUP1 SWAP2 SUB SWAP1 RETURN JUMPDEST CALLVALUE DUP1 ISZERO PUSH2 0x19B JUMPI PUSH1 0x0 DUP1 REVERT JUMPDEST POP PUSH2 0x1A4 PUSH2 0x460 JUMP JUMPDEST PUSH1 0x40 MLOAD PUSH2 0x1B1 SWAP2 SWAP1 PUSH2 0x94A JUMP JUMPDEST PUSH1 0x40 MLOAD DUP1 SWAP2 SUB SWAP1 RETURN JUMPDEST CALLVALUE DUP1 ISZERO PUSH2 0x1C6 JUMPI PUSH1 0x0 DUP1 REVERT JUMPDEST POP PUSH2 0x1CF PUSH2 0x466 JUMP JUMPDEST PUSH1 0x40 MLOAD PUSH2 0x1DC SWAP2 SWAP1 PUSH2 0x94A JUMP JUMPDEST PUSH1 0x40 MLOAD DUP1 SWAP2 SUB SWAP1 RETURN JUMPDEST CALLVALUE DUP1 ISZERO PUSH2 0x1F1 JUMPI PUSH1 0x0 DUP1 REVERT JUMPDEST POP PUSH2 0x1FA PUSH2 0x46C JUMP JUMPDEST PUSH1 0x40 MLOAD PUSH2 0x207 SWAP2 SWAP1 PUSH2 0x94A JUMP JUMPDEST PUSH1 0x40 MLOAD DUP1 SWAP2 SUB SWAP1 RETURN JUMPDEST CALLVALUE DUP1 ISZERO PUSH2 0x21C JUMPI PUSH1 0x0 DUP1 REVERT JUMPDEST POP PUSH2 0x225 PUSH2 0x472 JUMP JUMPDEST PUSH1 0x40 MLOAD PUSH2 0x232 SWAP2 SWAP1 PUSH2 0x92F JUMP JUMPDEST PUSH1 0x40 MLOAD DUP1 SWAP2 SUB SWAP1 RETURN JUMPDEST CALLVALUE DUP1 ISZERO PUSH2 0x247 JUMPI PUSH1 0x0 DUP1 REVERT JUMPDEST POP PUSH2 0x262 PUSH1 0x4 DUP1 CALLDATASIZE SUB DUP2 ADD SWAP1 PUSH2 0x25D SWAP2 SWAP1 PUSH2 0x891 JUMP JUMPDEST PUSH2 0x498 JUMP JUMPDEST PUSH1 0x40 MLOAD PUSH2 0x26F SWAP2 SWAP1 PUSH2 0x94A JUMP JUMPDEST PUSH1 0x40 MLOAD DUP1 SWAP2 SUB SWAP1 RETURN JUMPDEST CALLVALUE DUP1 ISZERO PUSH2 0x284 JUMPI PUSH1 0x0 DUP1 REVERT JUMPDEST POP PUSH2 0x29F PUSH1 0x4 DUP1 CALLDATASIZE SUB DUP2 ADD SWAP1 PUSH2 0x29A SWAP2 SWAP1 PUSH2 0x891 JUMP JUMPDEST PUSH2 0x4AF JUMP JUMPDEST PUSH1 0x40 MLOAD PUSH2 0x2AC SWAP2 SWAP1 PUSH2 0x94A JUMP JUMPDEST PUSH1 0x40 MLOAD DUP1 SWAP2 SUB SWAP1 RETURN JUMPDEST PUSH2 0x2BD PUSH2 0x729 JUMP JUMPDEST STOP JUMPDEST CALLVALUE DUP1 ISZERO PUSH2 0x2CB JUMPI PUSH1 0x0 DUP1 REVERT JUMPDEST POP PUSH2 0x2D4 PUSH2 0x744 JUMP JUMPDEST PUSH1 0x40 MLOAD PUSH2 0x2E1 SWAP2 SWAP1 PUSH2 0x94A JUMP JUMPDEST PUSH1 0x40 MLOAD DUP1 SWAP2 SUB SWAP1 RETURN JUMPDEST CALLVALUE DUP1 ISZERO PUSH2 0x2F6 JUMPI PUSH1 0x0 DUP1 REVERT JUMPDEST POP PUSH2 0x2FF PUSH2 0x74A JUMP JUMPDEST PUSH1 0x40 MLOAD PUSH2 0x30C SWAP2 SWAP1 PUSH2 0x94A JUMP JUMPDEST PUSH1 0x40 MLOAD DUP1 SWAP2 SUB SWAP1 RETURN JUMPDEST CALLVALUE DUP1 ISZERO PUSH2 0x321 JUMPI PUSH1 0x0 DUP1 REVERT JUMPDEST POP PUSH2 0x32A PUSH2 0x750 JUMP JUMPDEST PUSH1 0x40 MLOAD PUSH2 0x337 SWAP2 SWAP1 PUSH2 0x94A JUMP JUMPDEST PUSH1 0x40 MLOAD DUP1 SWAP2 SUB SWAP1 RETURN JUMPDEST CALLVALUE DUP1 ISZERO PUSH2 0x34C JUMPI PUSH1 0x0 DUP1 REVERT JUMPDEST POP PUSH2 0x355 PUSH2 0x756 JUMP JUMPDEST PUSH1 0x40 MLOAD PUSH2 0x362 SWAP2 SWAP1 PUSH2 0x94A JUMP JUMPDEST PUSH1 0x40 MLOAD DUP1 SWAP2 SUB SWAP1 RETURN JUMPDEST PUSH2 0x385 PUSH1 0x4 DUP1 CALLDATASIZE SUB DUP2 ADD SWAP1 PUSH2 0x380 SWAP2 SWAP1 PUSH2 0x851 JUMP JUMPDEST PUSH2 0x75C JUMP JUMPDEST STOP JUMPDEST CALLVALUE DUP1 ISZERO PUSH2 0x393 JUMPI PUSH1 0x0 DUP1 REVERT JUMPDEST POP PUSH2 0x39C PUSH2 0x7A7 JUMP JUMPDEST PUSH1 0x40 MLOAD PUSH2 0x3A9 SWAP2 SWAP1 PUSH2 0x94A JUMP JUMPDEST PUSH1 0x40 MLOAD DUP1 SWAP2 SUB SWAP1 RETURN JUMPDEST CALLVALUE DUP1 ISZERO PUSH2 0x3BE JUMPI PUSH1 0x0 DUP1 REVERT JUMPDEST POP PUSH2 0x3D9 PUSH1 0x4 DUP1 CALLDATASIZE SUB DUP2 ADD SWAP1 PUSH2 0x3D4 SWAP2 SWAP1 PUSH2 0x8BE JUMP JUMPDEST PUSH2 0x7AD JUMP JUMPDEST PUSH1 0x40 MLOAD PUSH2 0x3E8 SWAP4 SWAP3 SWAP2 SWAP1 PUSH2 0x965 JUMP JUMPDEST PUSH1 0x40 MLOAD DUP1 SWAP2 SUB SWAP1 RETURN JUMPDEST CALLVALUE DUP1 ISZERO PUSH2 0x3FD JUMPI PUSH1 0x0 DUP1 REVERT JUMPDEST POP PUSH2 0x418 PUSH1 0x4 DUP1 CALLDATASIZE SUB DUP2 ADD SWAP1 PUSH2 0x413 SWAP2 SWAP1 PUSH2 0x824 JUMP JUMPDEST PUSH2 0x7C4 JUMP JUMPDEST PUSH1 0x40 MLOAD PUSH2 0x425 SWAP2 SWAP1 PUSH2 0x94A JUMP JUMPDEST PUSH1 0x40 MLOAD DUP1 SWAP2 SUB SWAP1 RETURN JUMPDEST PUSH1 0x2 PUSH1 0x0 SWAP1 SLOAD SWAP1 PUSH2 0x100 EXP SWAP1 DIV PUSH20 0xFFFFFFFFFFFFFFFFFFFFFFFFFFFFFFFFFFFFFFFF AND DUP2 JUMP JUMPDEST PUSH1 0x9 SLOAD DUP2 JUMP JUMPDEST PUSH1 0x8 SLOAD DUP2 JUMP JUMPDEST PUSH1 0x7 SLOAD DUP2 JUMP JUMPDEST PUSH1 0x6 SLOAD DUP2 JUMP JUMPDEST PUSH1 0x4 SLOAD DUP2 JUMP JUMPDEST PUSH1 0x1 PUSH1 0x0 SWAP1 SLOAD SWAP1 PUSH2 0x100 EXP SWAP1 DIV PUSH20 0xFFFFFFFFFFFFFFFFFFFFFFFFFFFFFFFFFFFFFFFF AND DUP2 JUMP JUMPDEST PUSH1 0x0 PUSH1 0x4 SLOAD DUP3 PUSH2 0x4A8 SWAP2 SWAP1 PUSH2 0x9F2 JUMP JUMPDEST SWAP1 POP SWAP2 SWAP1 POP JUMP JUMPDEST PUSH1 0x0 PUSH1 0xFB DUP3 LT ISZERO PUSH2 0x6AF JUMPI PUSH1 0x33 DUP3 LT ISZERO PUSH2 0x4D8 JUMPI PUSH1 0x5 SLOAD DUP3 PUSH2 0x4D1 SWAP2 SWAP1 PUSH2 0x9F2 JUMP JUMPDEST SWAP1 POP PUSH2 0x6AA JUMP JUMPDEST PUSH1 0x32 DUP3 GT DUP1 ISZERO PUSH2 0x4E8 JUMPI POP PUSH1 0x65 DUP3 LT JUMPDEST ISZERO PUSH2 0x527 JUMPI PUSH1 0x6 SLOAD PUSH1 0x32 DUP4 PUSH2 0x4FD SWAP2 SWAP1 PUSH2 0xA4C JUMP JUMPDEST PUSH2 0x507 SWAP2 SWAP1 PUSH2 0x9F2 JUMP JUMPDEST PUSH1 0x5 SLOAD PUSH1 0x32 PUSH2 0x516 SWAP2 SWAP1 PUSH2 0x9F2 JUMP JUMPDEST PUSH2 0x520 SWAP2 SWAP1 PUSH2 0x99C JUMP JUMPDEST SWAP1 POP PUSH2 0x6A9 JUMP JUMPDEST PUSH1 0x64 DUP3 GT DUP1 ISZERO PUSH2 0x537 JUMPI POP PUSH1 0x97 DUP3 LT JUMPDEST ISZERO PUSH2 0x58F JUMPI PUSH1 0x7 SLOAD PUSH1 0x32 DUP4 PUSH2 0x54C SWAP2 SWAP1 PUSH2 0xA4C JUMP JUMPDEST PUSH2 0x556 SWAP2 SWAP1 PUSH2 0x9F2 JUMP JUMPDEST PUSH1 0x6 SLOAD PUSH1 0x32 PUSH2 0x565 SWAP2 SWAP1 PUSH2 0x9F2 JUMP JUMPDEST PUSH1 0x5 SLOAD PUSH1 0x32 PUSH2 0x574 SWAP2 SWAP1 PUSH2 0x9F2 JUMP JUMPDEST PUSH2 0x57E SWAP2 SWAP1 PUSH2 0x99C JUMP JUMPDEST PUSH2 0x588 SWAP2 SWAP1 PUSH2 0x99C JUMP JUMPDEST SWAP1 POP PUSH2 0x6A8 JUMP JUMPDEST PUSH1 0x96 DUP3 GT DUP1 ISZERO PUSH2 0x59F JUMPI POP PUSH1 0xC9 DUP3 LT JUMPDEST ISZERO PUSH2 0x610 JUMPI PUSH1 0x8 SLOAD PUSH1 0x32 DUP4 PUSH2 0x5B4 SWAP2 SWAP1 PUSH2 0xA4C JUMP JUMPDEST PUSH2 0x5BE SWAP2 SWAP1 PUSH2 0x9F2 JUMP JUMPDEST PUSH1 0x7 SLOAD PUSH1 0x32 PUSH2 0x5CD SWAP2 SWAP1 PUSH2 0x9F2 JUMP JUMPDEST PUSH1 0x6 SLOAD PUSH1 0x32 PUSH2 0x5DC SWAP2 SWAP1 PUSH2 0x9F2 JUMP JUMPDEST PUSH1 0x5 SLOAD PUSH1 0x32 PUSH2 0x5EB SWAP2 SWAP1 PUSH2 0x9F2 JUMP JUMPDEST PUSH2 0x5F5 SWAP2 SWAP1 PUSH2 0x99C JUMP JUMPDEST PUSH2 0x5FF SWAP2 SWAP1 PUSH2 0x99C JUMP JUMPDEST PUSH2 0x609 SWAP2 SWAP1 PUSH2 0x99C JUMP JUMPDEST SWAP1 POP PUSH2 0x6A7 JUMP JUMPDEST PUSH1 0xC8 DUP3 GT DUP1 ISZERO PUSH2 0x620 JUMPI POP PUSH1 0xFB DUP3 LT JUMPDEST ISZERO PUSH2 0x6A6 JUMPI PUSH1 0x9 SLOAD PUSH1 0x32 DUP4 PUSH2 0x635 SWAP2 SWAP1 PUSH2 0xA4C JUMP JUMPDEST PUSH2 0x63F SWAP2 SWAP1 PUSH2 0x9F2 JUMP JUMPDEST PUSH1 0x8 SLOAD PUSH1 0x32 PUSH2 0x64E SWAP2 SWAP1 PUSH2 0x9F2 JUMP JUMPDEST PUSH1 0x7 SLOAD PUSH1 0x32 PUSH2 0x65D SWAP2 SWAP1 PUSH2 0x9F2 JUMP JUMPDEST PUSH1 0x6 SLOAD PUSH1 0x32 PUSH2 0x66C SWAP2 SWAP1 PUSH2 0x9F2 JUMP JUMPDEST PUSH1 0x5 SLOAD PUSH1 0x32 PUSH2 0x67B SWAP2 SWAP1 PUSH2 0x9F2 JUMP JUMPDEST PUSH2 0x685 SWAP2 SWAP1 PUSH2 0x99C JUMP JUMPDEST PUSH2 0x68F SWAP2 SWAP1 PUSH2 0x99C JUMP JUMPDEST PUSH2 0x699 SWAP2 SWAP1 PUSH2 0x99C JUMP JUMPDEST PUSH2 0x6A3 SWAP2 SWAP1 PUSH2 0x99C JUMP JUMPDEST SWAP1 POP JUMPDEST JUMPDEST JUMPDEST JUMPDEST JUMPDEST PUSH2 0x724 JUMP JUMPDEST PUSH1 0xFA DUP3 GT DUP1 ISZERO PUSH2 0x6C0 JUMPI POP PUSH2 0x15F DUP3 LT JUMPDEST ISZERO PUSH2 0x6DA JUMPI PUSH1 0xA SLOAD DUP3 PUSH2 0x6D3 SWAP2 SWAP1 PUSH2 0x9F2 JUMP JUMPDEST SWAP1 POP PUSH2 0x723 JUMP JUMPDEST PUSH2 0x15E DUP3 GT DUP1 ISZERO PUSH2 0x6EC JUMPI POP PUSH2 0x1C3 DUP3 LT JUMPDEST ISZERO PUSH2 0x706 JUMPI PUSH1 0xB SLOAD DUP3 PUSH2 0x6FF SWAP2 SWAP1 PUSH2 0x9F2 JUMP JUMPDEST SWAP1 POP PUSH2 0x722 JUMP JUMPDEST PUSH2 0x1C2 DUP3 GT ISZERO PUSH2 0x721 JUMPI PUSH1 0xC SLOAD DUP3 PUSH2 0x71E SWAP2 SWAP1 PUSH2 0x9F2 JUMP JUMPDEST SWAP1 POP JUMPDEST JUMPDEST JUMPDEST JUMPDEST SWAP2 SWAP1 POP JUMP JUMPDEST CALLVALUE PUSH1 0x3 PUSH1 0x0 DUP3 DUP3 SLOAD PUSH2 0x73B SWAP2 SWAP1 PUSH2 0x99C JUMP JUMPDEST SWAP3 POP POP DUP2 SWAP1 SSTORE POP JUMP JUMPDEST PUSH1 0xC SLOAD DUP2 JUMP JUMPDEST PUSH1 0xA SLOAD DUP2 JUMP JUMPDEST PUSH1 0x3 SLOAD DUP2 JUMP JUMPDEST PUSH1 0x5 SLOAD DUP2 JUMP JUMPDEST DUP2 PUSH20 0xFFFFFFFFFFFFFFFFFFFFFFFFFFFFFFFFFFFFFFFF AND PUSH2 0x8FC DUP3 SWAP1 DUP2 ISZERO MUL SWAP1 PUSH1 0x40 MLOAD PUSH1 0x0 PUSH1 0x40 MLOAD DUP1 DUP4 SUB DUP2 DUP6 DUP9 DUP9 CALL SWAP4 POP POP POP POP ISZERO DUP1 ISZERO PUSH2 0x7A2 JUMPI RETURNDATASIZE PUSH1 0x0 DUP1 RETURNDATACOPY RETURNDATASIZE PUSH1 0x0 REVERT JUMPDEST POP POP POP JUMP JUMPDEST PUSH1 0xB SLOAD DUP2 JUMP JUMPDEST PUSH1 0x0 DUP1 PUSH1 0x0 DUP6 SWAP3 POP DUP5 SWAP2 POP DUP4 SWAP1 POP SWAP4 POP SWAP4 POP SWAP4 SWAP1 POP JUMP JUMPDEST PUSH1 0x0 DUP2 PUSH20 0xFFFFFFFFFFFFFFFFFFFFFFFFFFFFFFFFFFFFFFFF AND BALANCE SWAP1 POP SWAP2 SWAP1 POP JUMP JUMPDEST PUSH1 0x0 DUP2 CALLDATALOAD SWAP1 POP PUSH2 0x7F4 DUP2 PUSH2 0xB02 JUMP JUMPDEST SWAP3 SWAP2 POP POP JUMP JUMPDEST PUSH1 0x0 DUP2 CALLDATALOAD SWAP1 POP PUSH2 0x809 DUP2 PUSH2 0xB19 JUMP JUMPDEST SWAP3 SWAP2 POP POP JUMP JUMPDEST PUSH1 0x0 DUP2 CALLDATALOAD SWAP1 POP PUSH2 0x81E DUP2 PUSH2 0xB30 JUMP JUMPDEST SWAP3 SWAP2 POP POP JUMP JUMPDEST PUSH1 0x0 PUSH1 0x20 DUP3 DUP5 SUB SLT ISZERO PUSH2 0x83A JUMPI PUSH2 0x839 PUSH2 0xAFD JUMP JUMPDEST JUMPDEST PUSH1 0x0 PUSH2 0x848 DUP5 DUP3 DUP6 ADD PUSH2 0x7E5 JUMP JUMPDEST SWAP2 POP POP SWAP3 SWAP2 POP POP JUMP JUMPDEST PUSH1 0x0 DUP1 PUSH1 0x40 DUP4 DUP6 SUB SLT ISZERO PUSH2 0x868 JUMPI PUSH2 0x867 PUSH2 0xAFD JUMP JUMPDEST JUMPDEST PUSH1 0x0 PUSH2 0x876 DUP6 DUP3 DUP7 ADD PUSH2 0x7FA JUMP JUMPDEST SWAP3 POP POP PUSH1 0x20 PUSH2 0x887 DUP6 DUP3 DUP7 ADD PUSH2 0x80F JUMP JUMPDEST SWAP2 POP POP SWAP3 POP SWAP3 SWAP1 POP JUMP JUMPDEST PUSH1 0x0 PUSH1 0x20 DUP3 DUP5 SUB SLT ISZERO PUSH2 0x8A7 JUMPI PUSH2 0x8A6 PUSH2 0xAFD JUMP JUMPDEST JUMPDEST PUSH1 0x0 PUSH2 0x8B5 DUP5 DUP3 DUP6 ADD PUSH2 0x80F JUMP JUMPDEST SWAP2 POP POP SWAP3 SWAP2 POP POP JUMP JUMPDEST PUSH1 0x0 DUP1 PUSH1 0x0 PUSH1 0x60 DUP5 DUP7 SUB SLT ISZERO PUSH2 0x8D7 JUMPI PUSH2 0x8D6 PUSH2 0xAFD JUMP JUMPDEST JUMPDEST PUSH1 0x0 PUSH2 0x8E5 DUP7 DUP3 DUP8 ADD PUSH2 0x80F JUMP JUMPDEST SWAP4 POP POP PUSH1 0x20 PUSH2 0x8F6 DUP7 DUP3 DUP8 ADD PUSH2 0x80F JUMP JUMPDEST SWAP3 POP POP PUSH1 0x40 PUSH2 0x907 DUP7 DUP3 DUP8 ADD PUSH2 0x80F JUMP JUMPDEST SWAP2 POP POP SWAP3 POP SWAP3 POP SWAP3 JUMP JUMPDEST PUSH2 0x91A DUP2 PUSH2 0xA80 JUMP JUMPDEST DUP3 MSTORE POP POP JUMP JUMPDEST PUSH2 0x929 DUP2 PUSH2 0xAC4 JUMP JUMPDEST DUP3 MSTORE POP POP JUMP JUMPDEST PUSH1 0x0 PUSH1 0x20 DUP3 ADD SWAP1 POP PUSH2 0x944 PUSH1 0x0 DUP4 ADD DUP5 PUSH2 0x911 JUMP JUMPDEST SWAP3 SWAP2 POP POP JUMP JUMPDEST PUSH1 0x0 PUSH1 0x20 DUP3 ADD SWAP1 POP PUSH2 0x95F PUSH1 0x0 DUP4 ADD DUP5 PUSH2 0x920 JUMP JUMPDEST SWAP3 SWAP2 POP POP JUMP JUMPDEST PUSH1 0x0 PUSH1 0x60 DUP3 ADD SWAP1 POP PUSH2 0x97A PUSH1 0x0 DUP4 ADD DUP7 PUSH2 0x920 JUMP JUMPDEST PUSH2 0x987 PUSH1 0x20 DUP4 ADD DUP6 PUSH2 0x920 JUMP JUMPDEST PUSH2 0x994 PUSH1 0x40 DUP4 ADD DUP5 PUSH2 0x920 JUMP JUMPDEST SWAP5 SWAP4 POP POP POP POP JUMP JUMPDEST PUSH1 0x0 PUSH2 0x9A7 DUP3 PUSH2 0xAC4 JUMP JUMPDEST SWAP2 POP PUSH2 0x9B2 DUP4 PUSH2 0xAC4 JUMP JUMPDEST SWAP3 POP DUP3 PUSH32 0xFFFFFFFFFFFFFFFFFFFFFFFFFFFFFFFFFFFFFFFFFFFFFFFFFFFFFFFFFFFFFFFF SUB DUP3 GT ISZERO PUSH2 0x9E7 JUMPI PUSH2 0x9E6 PUSH2 0xACE JUMP JUMPDEST JUMPDEST DUP3 DUP3 ADD SWAP1 POP SWAP3 SWAP2 POP POP JUMP JUMPDEST PUSH1 0x0 PUSH2 0x9FD DUP3 PUSH2 0xAC4 JUMP JUMPDEST SWAP2 POP PUSH2 0xA08 DUP4 PUSH2 0xAC4 JUMP JUMPDEST SWAP3 POP DUP2 PUSH32 0xFFFFFFFFFFFFFFFFFFFFFFFFFFFFFFFFFFFFFFFFFFFFFFFFFFFFFFFFFFFFFFFF DIV DUP4 GT DUP3 ISZERO ISZERO AND ISZERO PUSH2 0xA41 JUMPI PUSH2 0xA40 PUSH2 0xACE JUMP JUMPDEST JUMPDEST DUP3 DUP3 MUL SWAP1 POP SWAP3 SWAP2 POP POP JUMP JUMPDEST PUSH1 0x0 PUSH2 0xA57 DUP3 PUSH2 0xAC4 JUMP JUMPDEST SWAP2 POP PUSH2 0xA62 DUP4 PUSH2 0xAC4 JUMP JUMPDEST SWAP3 POP DUP3 DUP3 LT ISZERO PUSH2 0xA75 JUMPI PUSH2 0xA74 PUSH2 0xACE JUMP JUMPDEST JUMPDEST DUP3 DUP3 SUB SWAP1 POP SWAP3 SWAP2 POP POP JUMP JUMPDEST PUSH1 0x0 PUSH2 0xA8B DUP3 PUSH2 0xAA4 JUMP JUMPDEST SWAP1 POP SWAP2 SWAP1 POP JUMP JUMPDEST PUSH1 0x0 PUSH2 0xA9D DUP3 PUSH2 0xAA4 JUMP JUMPDEST SWAP1 POP SWAP2 SWAP1 POP JUMP JUMPDEST PUSH1 0x0 PUSH20 0xFFFFFFFFFFFFFFFFFFFFFFFFFFFFFFFFFFFFFFFF DUP3 AND SWAP1 POP SWAP2 SWAP1 POP JUMP JUMPDEST PUSH1 0x0 DUP2 SWAP1 POP SWAP2 SWAP1 POP JUMP JUMPDEST PUSH32 0x4E487B7100000000000000000000000000000000000000000000000000000000 PUSH1 0x0 MSTORE PUSH1 0x11 PUSH1 0x4 MSTORE PUSH1 0x24 PUSH1 0x0 REVERT JUMPDEST PUSH1 0x0 DUP1 REVERT JUMPDEST PUSH2 0xB0B DUP2 PUSH2 0xA80 JUMP JUMPDEST DUP2 EQ PUSH2 0xB16 JUMPI PUSH1 0x0 DUP1 REVERT JUMPDEST POP JUMP JUMPDEST PUSH2 0xB22 DUP2 PUSH2 0xA92 JUMP JUMPDEST DUP2 EQ PUSH2 0xB2D JUMPI PUSH1 0x0 DUP1 REVERT JUMPDEST POP JUMP JUMPDEST PUSH2 0xB39 DUP2 PUSH2 0xAC4 JUMP JUMPDEST DUP2 EQ PUSH2 0xB44 JUMPI PUSH1 0x0 DUP1 REVERT JUMPDEST POP JUMP INVALID LOG2 PUSH5 0x6970667358 0x22 SLT KECCAK256 0xD0 REVERT 0xAA PUSH28 0x14EC9B4A2DA2DAD97A3EA07495F5A7582D81C9737E341B522EA6250 PUSH5 0x736F6C6343 STOP ADDMOD SMOD STOP CALLER "
				},
				"gasEstimates": {
					"creation": {
						"codeDepositCost": "588200",
						"executionCost": "228845",
						"totalCost": "817045"
					},
					"external": {
						"balCheck()": "infinite",
						"balance()": "2518",
						"btc1()": "2451",
						"btc2()": "2452",
						"btc3()": "2519",
						"btc4()": "2497",
						"btc5()": "2475",
						"btc6()": "2496",
						"btc7()": "2495",
						"btc8()": "2474",
						"btp()": "2474",
						"getBalance(address)": "3367",
						"getConsumerTariff(uint256)": "infinite",
						"getProsumerTariff(uint256)": "infinite",
						"getnPnCnEV(uint256,uint256,uint256)": "infinite",
						"manager()": "2581",
						"seller()": "2538",
						"send(address,uint256)": "infinite"
					}
				},
				"methodIdentifiers": {
					"balCheck()": "7c134b14",
					"balance()": "b69ef8a8",
					"btc1()": "c2c496ec",
					"btc2()": "28780a44",
					"btc3()": "20e731a1",
					"btc4()": "103347e7",
					"btc5()": "0c03a1a3",
					"btc6()": "b4ad7fa9",
					"btc7()": "ed2fa5ab",
					"btc8()": "a8bdb68b",
					"btp()": "2c9af64c",
					"getBalance(address)": "f8b2cb4f",
					"getConsumerTariff(uint256)": "721028ec",
					"getProsumerTariff(uint256)": "5c8f6b56",
					"getnPnCnEV(uint256,uint256,uint256)": "f02e48c3",
					"manager()": "481c6a75",
					"seller()": "08551a53",
					"send(address,uint256)": "d0679d34"
				}
			},
			"storageLayout": {
				"storage": [
					{
						"astId": 3,
						"contract": "eth based/truffle/contracts/FLIR_Contract.sol:FLIRContract",
						"label": "owner",
						"offset": 0,
						"slot": "0",
						"type": "t_address"
					},
					{
						"astId": 5,
						"contract": "eth based/truffle/contracts/FLIR_Contract.sol:FLIRContract",
						"label": "manager",
						"offset": 0,
						"slot": "1",
						"type": "t_address"
					},
					{
						"astId": 7,
						"contract": "eth based/truffle/contracts/FLIR_Contract.sol:FLIRContract",
						"label": "seller",
						"offset": 0,
						"slot": "2",
						"type": "t_address"
					},
					{
						"astId": 10,
						"contract": "eth based/truffle/contracts/FLIR_Contract.sol:FLIRContract",
						"label": "balance",
						"offset": 0,
						"slot": "3",
						"type": "t_uint256"
					},
					{
						"astId": 22,
						"contract": "eth based/truffle/contracts/FLIR_Contract.sol:FLIRContract",
						"label": "btp",
						"offset": 0,
						"slot": "4",
						"type": "t_uint256"
					},
					{
						"astId": 25,
						"contract": "eth based/truffle/contracts/FLIR_Contract.sol:FLIRContract",
						"label": "btc1",
						"offset": 0,
						"slot": "5",
						"type": "t_uint256"
					},
					{
						"astId": 28,
						"contract": "eth based/truffle/contracts/FLIR_Contract.sol:FLIRContract",
						"label": "btc2",
						"offset": 0,
						"slot": "6",
						"type": "t_uint256"
					},
					{
						"astId": 31,
						"contract": "eth based/truffle/contracts/FLIR_Contract.sol:FLIRContract",
						"label": "btc3",
						"offset": 0,
						"slot": "7",
						"type": "t_uint256"
					},
					{
						"astId": 34,
						"contract": "eth based/truffle/contracts/FLIR_Contract.sol:FLIRContract",
						"label": "btc4",
						"offset": 0,
						"slot": "8",
						"type": "t_uint256"
					},
					{
						"astId": 37,
						"contract": "eth based/truffle/contracts/FLIR_Contract.sol:FLIRContract",
						"label": "btc5",
						"offset": 0,
						"slot": "9",
						"type": "t_uint256"
					},
					{
						"astId": 40,
						"contract": "eth based/truffle/contracts/FLIR_Contract.sol:FLIRContract",
						"label": "btc6",
						"offset": 0,
						"slot": "10",
						"type": "t_uint256"
					},
					{
						"astId": 43,
						"contract": "eth based/truffle/contracts/FLIR_Contract.sol:FLIRContract",
						"label": "btc7",
						"offset": 0,
						"slot": "11",
						"type": "t_uint256"
					},
					{
						"astId": 46,
						"contract": "eth based/truffle/contracts/FLIR_Contract.sol:FLIRContract",
						"label": "btc8",
						"offset": 0,
						"slot": "12",
						"type": "t_uint256"
					}
				],
				"types": {
					"t_address": {
						"encoding": "inplace",
						"label": "address",
						"numberOfBytes": "20"
					},
					"t_uint256": {
						"encoding": "inplace",
						"label": "uint256",
						"numberOfBytes": "32"
					}
				}
			},
			"userdoc": {
				"kind": "user",
				"methods": {},
				"version": 1
			}
		}
	}
}