{
	"contracts/FLIR_Contract.sol": {
		"FLIRContract": {
			"abi": [
				{
					"inputs": [],
					"name": "balCheck",
					"outputs": [],
					"stateMutability": "payable",
					"type": "function"
				},
				{
					"inputs": [],
					"name": "balance",
					"outputs": [
						{
							"internalType": "uint256",
							"name": "",
							"type": "uint256"
						}
					],
					"stateMutability": "view",
					"type": "function"
				},
				{
					"inputs": [],
					"name": "btc1",
					"outputs": [
						{
							"internalType": "uint256",
							"name": "",
							"type": "uint256"
						}
					],
					"stateMutability": "view",
					"type": "function"
				},
				{
					"inputs": [],
					"name": "btc2",
					"outputs": [
						{
							"internalType": "uint256",
							"name": "",
							"type": "uint256"
						}
					],
					"stateMutability": "view",
					"type": "function"
				},
				{
					"inputs": [],
					"name": "btc3",
					"outputs": [
						{
							"internalType": "uint256",
							"name": "",
							"type": "uint256"
						}
					],
					"stateMutability": "view",
					"type": "function"
				},
				{
					"inputs": [],
					"name": "btc4",
					"outputs": [
						{
							"internalType": "uint256",
							"name": "",
							"type": "uint256"
						}
					],
					"stateMutability": "view",
					"type": "function"
				},
				{
					"inputs": [],
					"name": "btc5",
					"outputs": [
						{
							"internalType": "uint256",
							"name": "",
							"type": "uint256"
						}
					],
					"stateMutability": "view",
					"type": "function"
				},
				{
					"inputs": [],
					"name": "btc6",
					"outputs": [
						{
							"internalType": "uint256",
							"name": "",
							"type": "uint256"
						}
					],
					"stateMutability": "view",
					"type": "function"
				},
				{
					"inputs": [],
					"name": "btc7",
					"outputs": [
						{
							"internalType": "uint256",
							"name": "",
							"type": "uint256"
						}
					],
					"stateMutability": "view",
					"type": "function"
				},
				{
					"inputs": [],
					"name": "btc8",
					"outputs": [
						{
							"internalType": "uint256",
							"name": "",
							"type": "uint256"
						}
					],
					"stateMutability": "view",
					"type": "function"
				},
				{
					"inputs": [],
					"name": "btp",
					"outputs": [
						{
							"internalType": "uint256",
							"name": "",
							"type": "uint256"
						}
					],
					"stateMutability": "view",
					"type": "function"
				},
				{
					"inputs": [
						{
							"internalType": "uint256",
							"name": "",
							"type": "uint256"
						}
					],
					"name": "buyers",
					"outputs": [
						{
							"internalType": "address",
							"name": "",
							"type": "address"
						}
					],
					"stateMutability": "view",
					"type": "function"
				},
				{
					"inputs": [
						{
							"internalType": "address",
							"name": "_balanceCheck",
							"type": "address"
						}
					],
					"name": "getBalance",
					"outputs": [
						{
							"internalType": "uint256",
							"name": "bal",
							"type": "uint256"
						}
					],
					"stateMutability": "nonpayable",
					"type": "function"
				},
				{
					"inputs": [
						{
							"internalType": "uint256",
							"name": "Cimp",
							"type": "uint256"
						}
					],
					"name": "getConsumerTariff",
					"outputs": [
						{
							"internalType": "uint256",
							"name": "Tc",
							"type": "uint256"
						}
					],
					"stateMutability": "nonpayable",
					"type": "function"
				},
				{
					"inputs": [
						{
							"internalType": "uint256",
							"name": "Pexp",
							"type": "uint256"
						}
					],
					"name": "getProsumerTariff",
					"outputs": [
						{
							"internalType": "uint256",
							"name": "Tp",
							"type": "uint256"
						}
					],
					"stateMutability": "nonpayable",
					"type": "function"
				},
				{
					"inputs": [
						{
							"internalType": "uint256",
							"name": "nPget",
							"type": "uint256"
						},
						{
							"internalType": "uint256",
							"name": "nCget",
							"type": "uint256"
						},
						{
							"internalType": "uint256",
							"name": "nEVget",
							"type": "uint256"
						}
					],
					"name": "getnPnCnEV",
					"outputs": [
						{
							"internalType": "uint256",
							"name": "nP",
							"type": "uint256"
						},
						{
							"internalType": "uint256",
							"name": "nC",
							"type": "uint256"
						},
						{
							"internalType": "uint256",
							"name": "nEV",
							"type": "uint256"
						}
					],
					"stateMutability": "pure",
					"type": "function"
				},
				{
					"inputs": [],
					"name": "manager",
					"outputs": [
						{
							"internalType": "address",
							"name": "",
							"type": "address"
						}
					],
					"stateMutability": "view",
					"type": "function"
				},
				{
					"inputs": [],
					"name": "owner",
					"outputs": [
						{
							"internalType": "address",
							"name": "",
							"type": "address"
						}
					],
					"stateMutability": "view",
					"type": "function"
				},
				{
					"inputs": [
						{
							"internalType": "uint256",
							"name": "",
							"type": "uint256"
						}
					],
					"name": "seller",
					"outputs": [
						{
							"internalType": "address",
							"name": "",
							"type": "address"
						}
					],
					"stateMutability": "view",
					"type": "function"
				},
				{
					"inputs": [
						{
							"internalType": "address payable",
							"name": "_receiver",
							"type": "address"
						},
						{
							"internalType": "uint256",
							"name": "amount",
							"type": "uint256"
						}
					],
					"name": "send",
					"outputs": [],
					"stateMutability": "payable",
					"type": "function"
				}
			],
			"devdoc": {
				"kind": "dev",
				"methods": {},
				"version": 1
			},
			"evm": {
				"assembly": "    /* \"contracts/FLIR_Contract.sol\":129:3957  contract FLIRContract{... */\n  mstore(0x40, 0x80)\n    /* \"contracts/FLIR_Contract.sol\":780:781  0 */\n  0x00\n    /* \"contracts/FLIR_Contract.sol\":758:781  uint public balance = 0 */\n  0x22\n  sstore\n    /* \"contracts/FLIR_Contract.sol\":946:947  3 */\n  0x03\n    /* \"contracts/FLIR_Contract.sol\":928:947  uint public btp = 3 */\n  0x23\n  sstore\n    /* \"contracts/FLIR_Contract.sol\":973:974  3 */\n  0x03\n    /* \"contracts/FLIR_Contract.sol\":954:974  uint public btc1 = 3 */\n  0x24\n  sstore\n    /* \"contracts/FLIR_Contract.sol\":999:1000  4 */\n  0x04\n    /* \"contracts/FLIR_Contract.sol\":980:1000  uint public btc2 = 4 */\n  0x25\n  sstore\n    /* \"contracts/FLIR_Contract.sol\":1025:1026  5 */\n  0x05\n    /* \"contracts/FLIR_Contract.sol\":1006:1026  uint public btc3 = 5 */\n  0x26\n  sstore\n    /* \"contracts/FLIR_Contract.sol\":1051:1052  6 */\n  0x06\n    /* \"contracts/FLIR_Contract.sol\":1032:1052  uint public btc4 = 6 */\n  0x27\n  sstore\n    /* \"contracts/FLIR_Contract.sol\":1077:1078  7 */\n  0x07\n    /* \"contracts/FLIR_Contract.sol\":1058:1078  uint public btc5 = 7 */\n  0x28\n  sstore\n    /* \"contracts/FLIR_Contract.sol\":1103:1104  8 */\n  0x08\n    /* \"contracts/FLIR_Contract.sol\":1084:1104  uint public btc6 = 8 */\n  0x29\n  sstore\n    /* \"contracts/FLIR_Contract.sol\":1129:1130  9 */\n  0x09\n    /* \"contracts/FLIR_Contract.sol\":1110:1130  uint public btc7 = 9 */\n  0x2a\n  sstore\n    /* \"contracts/FLIR_Contract.sol\":1155:1157  10 */\n  0x0a\n    /* \"contracts/FLIR_Contract.sol\":1136:1157  uint public btc8 = 10 */\n  0x2b\n  sstore\n    /* \"contracts/FLIR_Contract.sol\":129:3957  contract FLIRContract{... */\n  callvalue\n  dup1\n  iszero\n  tag_1\n  jumpi\n  0x00\n  dup1\n  revert\ntag_1:\n  pop\n  dataSize(sub_0)\n  dup1\n  dataOffset(sub_0)\n  0x00\n  codecopy\n  0x00\n  return\nstop\n\nsub_0: assembly {\n        /* \"contracts/FLIR_Contract.sol\":129:3957  contract FLIRContract{... */\n      mstore(0x40, 0x80)\n      jumpi(tag_1, lt(calldatasize, 0x04))\n      shr(0xe0, calldataload(0x00))\n      dup1\n      0xa8bdb68b\n      gt\n      tag_22\n      jumpi\n      dup1\n      0xd0679d34\n      gt\n      tag_23\n      jumpi\n      dup1\n      0xd0679d34\n      eq\n      tag_17\n      jumpi\n      dup1\n      0xed2fa5ab\n      eq\n      tag_18\n      jumpi\n      dup1\n      0xf02e48c3\n      eq\n      tag_19\n      jumpi\n      dup1\n      0xf2aa8218\n      eq\n      tag_20\n      jumpi\n      dup1\n      0xf8b2cb4f\n      eq\n      tag_21\n      jumpi\n      jump(tag_1)\n    tag_23:\n      dup1\n      0xa8bdb68b\n      eq\n      tag_12\n      jumpi\n      dup1\n      0xaacdfe6f\n      eq\n      tag_13\n      jumpi\n      dup1\n      0xb4ad7fa9\n      eq\n      tag_14\n      jumpi\n      dup1\n      0xb69ef8a8\n      eq\n      tag_15\n      jumpi\n      dup1\n      0xc2c496ec\n      eq\n      tag_16\n      jumpi\n      jump(tag_1)\n    tag_22:\n      dup1\n      0x481c6a75\n      gt\n      tag_24\n      jumpi\n      dup1\n      0x481c6a75\n      eq\n      tag_7\n      jumpi\n      dup1\n      0x5c8f6b56\n      eq\n      tag_8\n      jumpi\n      dup1\n      0x721028ec\n      eq\n      tag_9\n      jumpi\n      dup1\n      0x7c134b14\n      eq\n      tag_10\n      jumpi\n      dup1\n      0x8da5cb5b\n      eq\n      tag_11\n      jumpi\n      jump(tag_1)\n    tag_24:\n      dup1\n      0x0c03a1a3\n      eq\n      tag_2\n      jumpi\n      dup1\n      0x103347e7\n      eq\n      tag_3\n      jumpi\n      dup1\n      0x20e731a1\n      eq\n      tag_4\n      jumpi\n      dup1\n      0x28780a44\n      eq\n      tag_5\n      jumpi\n      dup1\n      0x2c9af64c\n      eq\n      tag_6\n      jumpi\n    tag_1:\n      0x00\n      dup1\n      revert\n        /* \"contracts/FLIR_Contract.sol\":1058:1078  uint public btc5 = 7 */\n    tag_2:\n      callvalue\n      dup1\n      iszero\n      tag_25\n      jumpi\n      0x00\n      dup1\n      revert\n    tag_25:\n      pop\n      tag_26\n      tag_27\n      jump\t// in\n    tag_26:\n      mload(0x40)\n      tag_28\n      swap2\n      swap1\n      tag_29\n      jump\t// in\n    tag_28:\n      mload(0x40)\n      dup1\n      swap2\n      sub\n      swap1\n      return\n        /* \"contracts/FLIR_Contract.sol\":1032:1052  uint public btc4 = 6 */\n    tag_3:\n      callvalue\n      dup1\n      iszero\n      tag_30\n      jumpi\n      0x00\n      dup1\n      revert\n    tag_30:\n      pop\n      tag_31\n      tag_32\n      jump\t// in\n    tag_31:\n      mload(0x40)\n      tag_33\n      swap2\n      swap1\n      tag_29\n      jump\t// in\n    tag_33:\n      mload(0x40)\n      dup1\n      swap2\n      sub\n      swap1\n      return\n        /* \"contracts/FLIR_Contract.sol\":1006:1026  uint public btc3 = 5 */\n    tag_4:\n      callvalue\n      dup1\n      iszero\n      tag_34\n      jumpi\n      0x00\n      dup1\n      revert\n    tag_34:\n      pop\n      tag_35\n      tag_36\n      jump\t// in\n    tag_35:\n      mload(0x40)\n      tag_37\n      swap2\n      swap1\n      tag_29\n      jump\t// in\n    tag_37:\n      mload(0x40)\n      dup1\n      swap2\n      sub\n      swap1\n      return\n        /* \"contracts/FLIR_Contract.sol\":980:1000  uint public btc2 = 4 */\n    tag_5:\n      callvalue\n      dup1\n      iszero\n      tag_38\n      jumpi\n      0x00\n      dup1\n      revert\n    tag_38:\n      pop\n      tag_39\n      tag_40\n      jump\t// in\n    tag_39:\n      mload(0x40)\n      tag_41\n      swap2\n      swap1\n      tag_29\n      jump\t// in\n    tag_41:\n      mload(0x40)\n      dup1\n      swap2\n      sub\n      swap1\n      return\n        /* \"contracts/FLIR_Contract.sol\":928:947  uint public btp = 3 */\n    tag_6:\n      callvalue\n      dup1\n      iszero\n      tag_42\n      jumpi\n      0x00\n      dup1\n      revert\n    tag_42:\n      pop\n      tag_43\n      tag_44\n      jump\t// in\n    tag_43:\n      mload(0x40)\n      tag_45\n      swap2\n      swap1\n      tag_29\n      jump\t// in\n    tag_45:\n      mload(0x40)\n      dup1\n      swap2\n      sub\n      swap1\n      return\n        /* \"contracts/FLIR_Contract.sol\":182:204  address public manager */\n    tag_7:\n      callvalue\n      dup1\n      iszero\n      tag_46\n      jumpi\n      0x00\n      dup1\n      revert\n    tag_46:\n      pop\n      tag_47\n      tag_48\n      jump\t// in\n    tag_47:\n      mload(0x40)\n      tag_49\n      swap2\n      swap1\n      tag_50\n      jump\t// in\n    tag_49:\n      mload(0x40)\n      dup1\n      swap2\n      sub\n      swap1\n      return\n        /* \"contracts/FLIR_Contract.sol\":1498:1613  function getProsumerTariff(uint Pexp) public returns (uint Tp){... */\n    tag_8:\n      callvalue\n      dup1\n      iszero\n      tag_51\n      jumpi\n      0x00\n      dup1\n      revert\n    tag_51:\n      pop\n      tag_52\n      0x04\n      dup1\n      calldatasize\n      sub\n      dup2\n      add\n      swap1\n      tag_53\n      swap2\n      swap1\n      tag_54\n      jump\t// in\n    tag_53:\n      tag_55\n      jump\t// in\n    tag_52:\n      mload(0x40)\n      tag_56\n      swap2\n      swap1\n      tag_29\n      jump\t// in\n    tag_56:\n      mload(0x40)\n      dup1\n      swap2\n      sub\n      swap1\n      return\n        /* \"contracts/FLIR_Contract.sol\":1619:2609  function getConsumerTariff(uint Cimp) public returns (uint Tc){... */\n    tag_9:\n      callvalue\n      dup1\n      iszero\n      tag_57\n      jumpi\n      0x00\n      dup1\n      revert\n    tag_57:\n      pop\n      tag_58\n      0x04\n      dup1\n      calldatasize\n      sub\n      dup2\n      add\n      swap1\n      tag_59\n      swap2\n      swap1\n      tag_54\n      jump\t// in\n    tag_59:\n      tag_60\n      jump\t// in\n    tag_58:\n      mload(0x40)\n      tag_61\n      swap2\n      swap1\n      tag_29\n      jump\t// in\n    tag_61:\n      mload(0x40)\n      dup1\n      swap2\n      sub\n      swap1\n      return\n        /* \"contracts/FLIR_Contract.sol\":2824:2892  function balCheck() public payable {... */\n    tag_10:\n      tag_62\n      tag_63\n      jump\t// in\n    tag_62:\n      stop\n        /* \"contracts/FLIR_Contract.sol\":156:176  address public owner */\n    tag_11:\n      callvalue\n      dup1\n      iszero\n      tag_64\n      jumpi\n      0x00\n      dup1\n      revert\n    tag_64:\n      pop\n      tag_65\n      tag_66\n      jump\t// in\n    tag_65:\n      mload(0x40)\n      tag_67\n      swap2\n      swap1\n      tag_50\n      jump\t// in\n    tag_67:\n      mload(0x40)\n      dup1\n      swap2\n      sub\n      swap1\n      return\n        /* \"contracts/FLIR_Contract.sol\":1136:1157  uint public btc8 = 10 */\n    tag_12:\n      callvalue\n      dup1\n      iszero\n      tag_68\n      jumpi\n      0x00\n      dup1\n      revert\n    tag_68:\n      pop\n      tag_69\n      tag_70\n      jump\t// in\n    tag_69:\n      mload(0x40)\n      tag_71\n      swap2\n      swap1\n      tag_29\n      jump\t// in\n    tag_71:\n      mload(0x40)\n      dup1\n      swap2\n      sub\n      swap1\n      return\n        /* \"contracts/FLIR_Contract.sol\":210:235  address[16] public seller */\n    tag_13:\n      callvalue\n      dup1\n      iszero\n      tag_72\n      jumpi\n      0x00\n      dup1\n      revert\n    tag_72:\n      pop\n      tag_73\n      0x04\n      dup1\n      calldatasize\n      sub\n      dup2\n      add\n      swap1\n      tag_74\n      swap2\n      swap1\n      tag_54\n      jump\t// in\n    tag_74:\n      tag_75\n      jump\t// in\n    tag_73:\n      mload(0x40)\n      tag_76\n      swap2\n      swap1\n      tag_50\n      jump\t// in\n    tag_76:\n      mload(0x40)\n      dup1\n      swap2\n      sub\n      swap1\n      return\n        /* \"contracts/FLIR_Contract.sol\":1084:1104  uint public btc6 = 8 */\n    tag_14:\n      callvalue\n      dup1\n      iszero\n      tag_77\n      jumpi\n      0x00\n      dup1\n      revert\n    tag_77:\n      pop\n      tag_78\n      tag_79\n      jump\t// in\n    tag_78:\n      mload(0x40)\n      tag_80\n      swap2\n      swap1\n      tag_29\n      jump\t// in\n    tag_80:\n      mload(0x40)\n      dup1\n      swap2\n      sub\n      swap1\n      return\n        /* \"contracts/FLIR_Contract.sol\":758:781  uint public balance = 0 */\n    tag_15:\n      callvalue\n      dup1\n      iszero\n      tag_81\n      jumpi\n      0x00\n      dup1\n      revert\n    tag_81:\n      pop\n      tag_82\n      tag_83\n      jump\t// in\n    tag_82:\n      mload(0x40)\n      tag_84\n      swap2\n      swap1\n      tag_29\n      jump\t// in\n    tag_84:\n      mload(0x40)\n      dup1\n      swap2\n      sub\n      swap1\n      return\n        /* \"contracts/FLIR_Contract.sol\":954:974  uint public btc1 = 3 */\n    tag_16:\n      callvalue\n      dup1\n      iszero\n      tag_85\n      jumpi\n      0x00\n      dup1\n      revert\n    tag_85:\n      pop\n      tag_86\n      tag_87\n      jump\t// in\n    tag_86:\n      mload(0x40)\n      tag_88\n      swap2\n      swap1\n      tag_29\n      jump\t// in\n    tag_88:\n      mload(0x40)\n      dup1\n      swap2\n      sub\n      swap1\n      return\n        /* \"contracts/FLIR_Contract.sol\":2615:2818  function send(address payable _receiver, uint amount) payable public {... */\n    tag_17:\n      tag_89\n      0x04\n      dup1\n      calldatasize\n      sub\n      dup2\n      add\n      swap1\n      tag_90\n      swap2\n      swap1\n      tag_91\n      jump\t// in\n    tag_90:\n      tag_92\n      jump\t// in\n    tag_89:\n      stop\n        /* \"contracts/FLIR_Contract.sol\":1110:1130  uint public btc7 = 9 */\n    tag_18:\n      callvalue\n      dup1\n      iszero\n      tag_93\n      jumpi\n      0x00\n      dup1\n      revert\n    tag_93:\n      pop\n      tag_94\n      tag_95\n      jump\t// in\n    tag_94:\n      mload(0x40)\n      tag_96\n      swap2\n      swap1\n      tag_29\n      jump\t// in\n    tag_96:\n      mload(0x40)\n      dup1\n      swap2\n      sub\n      swap1\n      return\n        /* \"contracts/FLIR_Contract.sol\":1164:1492  function getnPnCnEV(uint nPget, uint nCget,uint nEVget) public pure... */\n    tag_19:\n      callvalue\n      dup1\n      iszero\n      tag_97\n      jumpi\n      0x00\n      dup1\n      revert\n    tag_97:\n      pop\n      tag_98\n      0x04\n      dup1\n      calldatasize\n      sub\n      dup2\n      add\n      swap1\n      tag_99\n      swap2\n      swap1\n      tag_100\n      jump\t// in\n    tag_99:\n      tag_101\n      jump\t// in\n    tag_98:\n      mload(0x40)\n      tag_102\n      swap4\n      swap3\n      swap2\n      swap1\n      tag_103\n      jump\t// in\n    tag_102:\n      mload(0x40)\n      dup1\n      swap2\n      sub\n      swap1\n      return\n        /* \"contracts/FLIR_Contract.sol\":241:266  address[16] public buyers */\n    tag_20:\n      callvalue\n      dup1\n      iszero\n      tag_104\n      jumpi\n      0x00\n      dup1\n      revert\n    tag_104:\n      pop\n      tag_105\n      0x04\n      dup1\n      calldatasize\n      sub\n      dup2\n      add\n      swap1\n      tag_106\n      swap2\n      swap1\n      tag_54\n      jump\t// in\n    tag_106:\n      tag_107\n      jump\t// in\n    tag_105:\n      mload(0x40)\n      tag_108\n      swap2\n      swap1\n      tag_50\n      jump\t// in\n    tag_108:\n      mload(0x40)\n      dup1\n      swap2\n      sub\n      swap1\n      return\n        /* \"contracts/FLIR_Contract.sol\":2898:3033  function getBalance(address _balanceCheck) public returns (uint bal){... */\n    tag_21:\n      callvalue\n      dup1\n      iszero\n      tag_109\n      jumpi\n      0x00\n      dup1\n      revert\n    tag_109:\n      pop\n      tag_110\n      0x04\n      dup1\n      calldatasize\n      sub\n      dup2\n      add\n      swap1\n      tag_111\n      swap2\n      swap1\n      tag_112\n      jump\t// in\n    tag_111:\n      tag_113\n      jump\t// in\n    tag_110:\n      mload(0x40)\n      tag_114\n      swap2\n      swap1\n      tag_29\n      jump\t// in\n    tag_114:\n      mload(0x40)\n      dup1\n      swap2\n      sub\n      swap1\n      return\n        /* \"contracts/FLIR_Contract.sol\":1058:1078  uint public btc5 = 7 */\n    tag_27:\n      sload(0x28)\n      dup2\n      jump\t// out\n        /* \"contracts/FLIR_Contract.sol\":1032:1052  uint public btc4 = 6 */\n    tag_32:\n      sload(0x27)\n      dup2\n      jump\t// out\n        /* \"contracts/FLIR_Contract.sol\":1006:1026  uint public btc3 = 5 */\n    tag_36:\n      sload(0x26)\n      dup2\n      jump\t// out\n        /* \"contracts/FLIR_Contract.sol\":980:1000  uint public btc2 = 4 */\n    tag_40:\n      sload(0x25)\n      dup2\n      jump\t// out\n        /* \"contracts/FLIR_Contract.sol\":928:947  uint public btp = 3 */\n    tag_44:\n      sload(0x23)\n      dup2\n      jump\t// out\n        /* \"contracts/FLIR_Contract.sol\":182:204  address public manager */\n    tag_48:\n      0x01\n      0x00\n      swap1\n      sload\n      swap1\n      0x0100\n      exp\n      swap1\n      div\n      0xffffffffffffffffffffffffffffffffffffffff\n      and\n      dup2\n      jump\t// out\n        /* \"contracts/FLIR_Contract.sol\":1498:1613  function getProsumerTariff(uint Pexp) public returns (uint Tp){... */\n    tag_55:\n        /* \"contracts/FLIR_Contract.sol\":1552:1559  uint Tp */\n      0x00\n        /* \"contracts/FLIR_Contract.sol\":1582:1585  btp */\n      sload(0x23)\n        /* \"contracts/FLIR_Contract.sol\":1575:1579  Pexp */\n      dup3\n        /* \"contracts/FLIR_Contract.sol\":1575:1585  Pexp * btp */\n      tag_116\n      swap2\n      swap1\n      tag_117\n      jump\t// in\n    tag_116:\n        /* \"contracts/FLIR_Contract.sol\":1570:1585  Tp = Pexp * btp */\n      swap1\n      pop\n        /* \"contracts/FLIR_Contract.sol\":1498:1613  function getProsumerTariff(uint Pexp) public returns (uint Tp){... */\n      swap2\n      swap1\n      pop\n      jump\t// out\n        /* \"contracts/FLIR_Contract.sol\":1619:2609  function getConsumerTariff(uint Cimp) public returns (uint Tc){... */\n    tag_60:\n        /* \"contracts/FLIR_Contract.sol\":1673:1680  uint Tc */\n      0x00\n        /* \"contracts/FLIR_Contract.sol\":1710:1713  251 */\n      0xfb\n        /* \"contracts/FLIR_Contract.sol\":1703:1707  Cimp */\n      dup3\n        /* \"contracts/FLIR_Contract.sol\":1703:1713  Cimp < 251 */\n      lt\n        /* \"contracts/FLIR_Contract.sol\":1700:2582  if(Cimp < 251){... */\n      iszero\n      tag_119\n      jumpi\n        /* \"contracts/FLIR_Contract.sol\":1738:1740  51 */\n      0x33\n        /* \"contracts/FLIR_Contract.sol\":1731:1735  Cimp */\n      dup3\n        /* \"contracts/FLIR_Contract.sol\":1731:1740  Cimp < 51 */\n      lt\n        /* \"contracts/FLIR_Contract.sol\":1728:2337  if(Cimp < 51){... */\n      iszero\n      tag_120\n      jumpi\n        /* \"contracts/FLIR_Contract.sol\":1771:1775  btc1 */\n      sload(0x24)\n        /* \"contracts/FLIR_Contract.sol\":1764:1768  Cimp */\n      dup3\n        /* \"contracts/FLIR_Contract.sol\":1764:1775  Cimp * btc1 */\n      tag_121\n      swap2\n      swap1\n      tag_117\n      jump\t// in\n    tag_121:\n        /* \"contracts/FLIR_Contract.sol\":1759:1775  Tc = Cimp * btc1 */\n      swap1\n      pop\n        /* \"contracts/FLIR_Contract.sol\":1728:2337  if(Cimp < 51){... */\n      jump(tag_122)\n    tag_120:\n        /* \"contracts/FLIR_Contract.sol\":1818:1820  50 */\n      0x32\n        /* \"contracts/FLIR_Contract.sol\":1811:1815  Cimp */\n      dup3\n        /* \"contracts/FLIR_Contract.sol\":1811:1820  Cimp > 50 */\n      gt\n        /* \"contracts/FLIR_Contract.sol\":1811:1834  Cimp > 50 && Cimp < 101 */\n      dup1\n      iszero\n      tag_123\n      jumpi\n      pop\n        /* \"contracts/FLIR_Contract.sol\":1831:1834  101 */\n      0x65\n        /* \"contracts/FLIR_Contract.sol\":1824:1828  Cimp */\n      dup3\n        /* \"contracts/FLIR_Contract.sol\":1824:1834  Cimp < 101 */\n      lt\n        /* \"contracts/FLIR_Contract.sol\":1811:1834  Cimp > 50 && Cimp < 101 */\n    tag_123:\n        /* \"contracts/FLIR_Contract.sol\":1808:2337  if(Cimp > 50 && Cimp < 101){... */\n      iszero\n      tag_124\n      jumpi\n        /* \"contracts/FLIR_Contract.sol\":1885:1889  btc2 */\n      sload(0x25)\n        /* \"contracts/FLIR_Contract.sol\":1879:1881  50 */\n      0x32\n        /* \"contracts/FLIR_Contract.sol\":1874:1878  Cimp */\n      dup4\n        /* \"contracts/FLIR_Contract.sol\":1874:1881  Cimp-50 */\n      tag_125\n      swap2\n      swap1\n      tag_126\n      jump\t// in\n    tag_125:\n        /* \"contracts/FLIR_Contract.sol\":1873:1889  (Cimp-50) * btc2 */\n      tag_127\n      swap2\n      swap1\n      tag_117\n      jump\t// in\n    tag_127:\n        /* \"contracts/FLIR_Contract.sol\":1864:1868  btc1 */\n      sload(0x24)\n        /* \"contracts/FLIR_Contract.sol\":1859:1861  50 */\n      0x32\n        /* \"contracts/FLIR_Contract.sol\":1859:1868  50 * btc1 */\n      tag_128\n      swap2\n      swap1\n      tag_117\n      jump\t// in\n    tag_128:\n        /* \"contracts/FLIR_Contract.sol\":1858:1890  (50 * btc1) + ((Cimp-50) * btc2) */\n      tag_129\n      swap2\n      swap1\n      tag_130\n      jump\t// in\n    tag_129:\n        /* \"contracts/FLIR_Contract.sol\":1853:1890  Tc = (50 * btc1) + ((Cimp-50) * btc2) */\n      swap1\n      pop\n        /* \"contracts/FLIR_Contract.sol\":1808:2337  if(Cimp > 50 && Cimp < 101){... */\n      jump(tag_131)\n    tag_124:\n        /* \"contracts/FLIR_Contract.sol\":1933:1936  100 */\n      0x64\n        /* \"contracts/FLIR_Contract.sol\":1926:1930  Cimp */\n      dup3\n        /* \"contracts/FLIR_Contract.sol\":1926:1936  Cimp > 100 */\n      gt\n        /* \"contracts/FLIR_Contract.sol\":1926:1950  Cimp > 100 && Cimp < 151 */\n      dup1\n      iszero\n      tag_132\n      jumpi\n      pop\n        /* \"contracts/FLIR_Contract.sol\":1947:1950  151 */\n      0x97\n        /* \"contracts/FLIR_Contract.sol\":1940:1944  Cimp */\n      dup3\n        /* \"contracts/FLIR_Contract.sol\":1940:1950  Cimp < 151 */\n      lt\n        /* \"contracts/FLIR_Contract.sol\":1926:1950  Cimp > 100 && Cimp < 151 */\n    tag_132:\n        /* \"contracts/FLIR_Contract.sol\":1923:2337  if(Cimp > 100 && Cimp < 151){... */\n      iszero\n      tag_133\n      jumpi\n        /* \"contracts/FLIR_Contract.sol\":2015:2019  btc3 */\n      sload(0x26)\n        /* \"contracts/FLIR_Contract.sol\":2009:2011  50 */\n      0x32\n        /* \"contracts/FLIR_Contract.sol\":2004:2008  Cimp */\n      dup4\n        /* \"contracts/FLIR_Contract.sol\":2004:2011  Cimp-50 */\n      tag_134\n      swap2\n      swap1\n      tag_126\n      jump\t// in\n    tag_134:\n        /* \"contracts/FLIR_Contract.sol\":2003:2019  (Cimp-50) * btc3 */\n      tag_135\n      swap2\n      swap1\n      tag_117\n      jump\t// in\n    tag_135:\n        /* \"contracts/FLIR_Contract.sol\":1994:1998  btc2 */\n      sload(0x25)\n        /* \"contracts/FLIR_Contract.sol\":1989:1991  50 */\n      0x32\n        /* \"contracts/FLIR_Contract.sol\":1989:1998  50 * btc2 */\n      tag_136\n      swap2\n      swap1\n      tag_117\n      jump\t// in\n    tag_136:\n        /* \"contracts/FLIR_Contract.sol\":1980:1984  btc1 */\n      sload(0x24)\n        /* \"contracts/FLIR_Contract.sol\":1975:1977  50 */\n      0x32\n        /* \"contracts/FLIR_Contract.sol\":1975:1984  50 * btc1 */\n      tag_137\n      swap2\n      swap1\n      tag_117\n      jump\t// in\n    tag_137:\n        /* \"contracts/FLIR_Contract.sol\":1974:1999  (50 * btc1) + (50 * btc2) */\n      tag_138\n      swap2\n      swap1\n      tag_130\n      jump\t// in\n    tag_138:\n        /* \"contracts/FLIR_Contract.sol\":1974:2020  (50 * btc1) + (50 * btc2) + ((Cimp-50) * btc3) */\n      tag_139\n      swap2\n      swap1\n      tag_130\n      jump\t// in\n    tag_139:\n        /* \"contracts/FLIR_Contract.sol\":1969:2020  Tc = (50 * btc1) + (50 * btc2) + ((Cimp-50) * btc3) */\n      swap1\n      pop\n        /* \"contracts/FLIR_Contract.sol\":1923:2337  if(Cimp > 100 && Cimp < 151){... */\n      jump(tag_140)\n    tag_133:\n        /* \"contracts/FLIR_Contract.sol\":2063:2066  150 */\n      0x96\n        /* \"contracts/FLIR_Contract.sol\":2056:2060  Cimp */\n      dup3\n        /* \"contracts/FLIR_Contract.sol\":2056:2066  Cimp > 150 */\n      gt\n        /* \"contracts/FLIR_Contract.sol\":2056:2080  Cimp > 150 && Cimp < 201 */\n      dup1\n      iszero\n      tag_141\n      jumpi\n      pop\n        /* \"contracts/FLIR_Contract.sol\":2077:2080  201 */\n      0xc9\n        /* \"contracts/FLIR_Contract.sol\":2070:2074  Cimp */\n      dup3\n        /* \"contracts/FLIR_Contract.sol\":2070:2080  Cimp < 201 */\n      lt\n        /* \"contracts/FLIR_Contract.sol\":2056:2080  Cimp > 150 && Cimp < 201 */\n    tag_141:\n        /* \"contracts/FLIR_Contract.sol\":2053:2337  if(Cimp > 150 && Cimp < 201){... */\n      iszero\n      tag_142\n      jumpi\n        /* \"contracts/FLIR_Contract.sol\":2159:2163  btc4 */\n      sload(0x27)\n        /* \"contracts/FLIR_Contract.sol\":2153:2155  50 */\n      0x32\n        /* \"contracts/FLIR_Contract.sol\":2148:2152  Cimp */\n      dup4\n        /* \"contracts/FLIR_Contract.sol\":2148:2155  Cimp-50 */\n      tag_143\n      swap2\n      swap1\n      tag_126\n      jump\t// in\n    tag_143:\n        /* \"contracts/FLIR_Contract.sol\":2147:2163  (Cimp-50) * btc4 */\n      tag_144\n      swap2\n      swap1\n      tag_117\n      jump\t// in\n    tag_144:\n        /* \"contracts/FLIR_Contract.sol\":2138:2142  btc3 */\n      sload(0x26)\n        /* \"contracts/FLIR_Contract.sol\":2133:2135  50 */\n      0x32\n        /* \"contracts/FLIR_Contract.sol\":2133:2142  50 * btc3 */\n      tag_145\n      swap2\n      swap1\n      tag_117\n      jump\t// in\n    tag_145:\n        /* \"contracts/FLIR_Contract.sol\":2124:2128  btc2 */\n      sload(0x25)\n        /* \"contracts/FLIR_Contract.sol\":2119:2121  50 */\n      0x32\n        /* \"contracts/FLIR_Contract.sol\":2119:2128  50 * btc2 */\n      tag_146\n      swap2\n      swap1\n      tag_117\n      jump\t// in\n    tag_146:\n        /* \"contracts/FLIR_Contract.sol\":2110:2114  btc1 */\n      sload(0x24)\n        /* \"contracts/FLIR_Contract.sol\":2105:2107  50 */\n      0x32\n        /* \"contracts/FLIR_Contract.sol\":2105:2114  50 * btc1 */\n      tag_147\n      swap2\n      swap1\n      tag_117\n      jump\t// in\n    tag_147:\n        /* \"contracts/FLIR_Contract.sol\":2104:2129  (50 * btc1) + (50 * btc2) */\n      tag_148\n      swap2\n      swap1\n      tag_130\n      jump\t// in\n    tag_148:\n        /* \"contracts/FLIR_Contract.sol\":2104:2143  (50 * btc1) + (50 * btc2) + (50 * btc3) */\n      tag_149\n      swap2\n      swap1\n      tag_130\n      jump\t// in\n    tag_149:\n        /* \"contracts/FLIR_Contract.sol\":2104:2164  (50 * btc1) + (50 * btc2) + (50 * btc3) + ((Cimp-50) * btc4) */\n      tag_150\n      swap2\n      swap1\n      tag_130\n      jump\t// in\n    tag_150:\n        /* \"contracts/FLIR_Contract.sol\":2099:2164  Tc = (50 * btc1) + (50 * btc2) + (50 * btc3) + ((Cimp-50) * btc4) */\n      swap1\n      pop\n        /* \"contracts/FLIR_Contract.sol\":2053:2337  if(Cimp > 150 && Cimp < 201){... */\n      jump(tag_151)\n    tag_142:\n        /* \"contracts/FLIR_Contract.sol\":2207:2210  200 */\n      0xc8\n        /* \"contracts/FLIR_Contract.sol\":2200:2204  Cimp */\n      dup3\n        /* \"contracts/FLIR_Contract.sol\":2200:2210  Cimp > 200 */\n      gt\n        /* \"contracts/FLIR_Contract.sol\":2200:2224  Cimp > 200 && Cimp < 251 */\n      dup1\n      iszero\n      tag_152\n      jumpi\n      pop\n        /* \"contracts/FLIR_Contract.sol\":2221:2224  251 */\n      0xfb\n        /* \"contracts/FLIR_Contract.sol\":2214:2218  Cimp */\n      dup3\n        /* \"contracts/FLIR_Contract.sol\":2214:2224  Cimp < 251 */\n      lt\n        /* \"contracts/FLIR_Contract.sol\":2200:2224  Cimp > 200 && Cimp < 251 */\n    tag_152:\n        /* \"contracts/FLIR_Contract.sol\":2197:2337  if(Cimp > 200 && Cimp < 251){... */\n      iszero\n      tag_153\n      jumpi\n        /* \"contracts/FLIR_Contract.sol\":2317:2321  btc5 */\n      sload(0x28)\n        /* \"contracts/FLIR_Contract.sol\":2311:2313  50 */\n      0x32\n        /* \"contracts/FLIR_Contract.sol\":2306:2310  Cimp */\n      dup4\n        /* \"contracts/FLIR_Contract.sol\":2306:2313  Cimp-50 */\n      tag_154\n      swap2\n      swap1\n      tag_126\n      jump\t// in\n    tag_154:\n        /* \"contracts/FLIR_Contract.sol\":2305:2321  (Cimp-50) * btc5 */\n      tag_155\n      swap2\n      swap1\n      tag_117\n      jump\t// in\n    tag_155:\n        /* \"contracts/FLIR_Contract.sol\":2296:2300  btc4 */\n      sload(0x27)\n        /* \"contracts/FLIR_Contract.sol\":2291:2293  50 */\n      0x32\n        /* \"contracts/FLIR_Contract.sol\":2291:2300  50 * btc4 */\n      tag_156\n      swap2\n      swap1\n      tag_117\n      jump\t// in\n    tag_156:\n        /* \"contracts/FLIR_Contract.sol\":2282:2286  btc3 */\n      sload(0x26)\n        /* \"contracts/FLIR_Contract.sol\":2277:2279  50 */\n      0x32\n        /* \"contracts/FLIR_Contract.sol\":2277:2286  50 * btc3 */\n      tag_157\n      swap2\n      swap1\n      tag_117\n      jump\t// in\n    tag_157:\n        /* \"contracts/FLIR_Contract.sol\":2268:2272  btc2 */\n      sload(0x25)\n        /* \"contracts/FLIR_Contract.sol\":2263:2265  50 */\n      0x32\n        /* \"contracts/FLIR_Contract.sol\":2263:2272  50 * btc2 */\n      tag_158\n      swap2\n      swap1\n      tag_117\n      jump\t// in\n    tag_158:\n        /* \"contracts/FLIR_Contract.sol\":2254:2258  btc1 */\n      sload(0x24)\n        /* \"contracts/FLIR_Contract.sol\":2249:2251  50 */\n      0x32\n        /* \"contracts/FLIR_Contract.sol\":2249:2258  50 * btc1 */\n      tag_159\n      swap2\n      swap1\n      tag_117\n      jump\t// in\n    tag_159:\n        /* \"contracts/FLIR_Contract.sol\":2248:2273  (50 * btc1) + (50 * btc2) */\n      tag_160\n      swap2\n      swap1\n      tag_130\n      jump\t// in\n    tag_160:\n        /* \"contracts/FLIR_Contract.sol\":2248:2287  (50 * btc1) + (50 * btc2) + (50 * btc3) */\n      tag_161\n      swap2\n      swap1\n      tag_130\n      jump\t// in\n    tag_161:\n        /* \"contracts/FLIR_Contract.sol\":2248:2301  (50 * btc1) + (50 * btc2) + (50 * btc3) + (50 * btc4) */\n      tag_162\n      swap2\n      swap1\n      tag_130\n      jump\t// in\n    tag_162:\n        /* \"contracts/FLIR_Contract.sol\":2248:2322  (50 * btc1) + (50 * btc2) + (50 * btc3) + (50 * btc4) + ((Cimp-50) * btc5) */\n      tag_163\n      swap2\n      swap1\n      tag_130\n      jump\t// in\n    tag_163:\n        /* \"contracts/FLIR_Contract.sol\":2243:2322  Tc = (50 * btc1) + (50 * btc2) + (50 * btc3) + (50 * btc4) + ((Cimp-50) * btc5) */\n      swap1\n      pop\n        /* \"contracts/FLIR_Contract.sol\":2197:2337  if(Cimp > 200 && Cimp < 251){... */\n    tag_153:\n        /* \"contracts/FLIR_Contract.sol\":2053:2337  if(Cimp > 150 && Cimp < 201){... */\n    tag_151:\n        /* \"contracts/FLIR_Contract.sol\":1923:2337  if(Cimp > 100 && Cimp < 151){... */\n    tag_140:\n        /* \"contracts/FLIR_Contract.sol\":1808:2337  if(Cimp > 50 && Cimp < 101){... */\n    tag_131:\n        /* \"contracts/FLIR_Contract.sol\":1728:2337  if(Cimp < 51){... */\n    tag_122:\n        /* \"contracts/FLIR_Contract.sol\":1700:2582  if(Cimp < 251){... */\n      jump(tag_164)\n    tag_119:\n        /* \"contracts/FLIR_Contract.sol\":2371:2374  250 */\n      0xfa\n        /* \"contracts/FLIR_Contract.sol\":2364:2368  Cimp */\n      dup3\n        /* \"contracts/FLIR_Contract.sol\":2364:2374  Cimp > 250 */\n      gt\n        /* \"contracts/FLIR_Contract.sol\":2364:2388  Cimp > 250 && Cimp < 351 */\n      dup1\n      iszero\n      tag_165\n      jumpi\n      pop\n        /* \"contracts/FLIR_Contract.sol\":2385:2388  351 */\n      0x015f\n        /* \"contracts/FLIR_Contract.sol\":2378:2382  Cimp */\n      dup3\n        /* \"contracts/FLIR_Contract.sol\":2378:2388  Cimp < 351 */\n      lt\n        /* \"contracts/FLIR_Contract.sol\":2364:2388  Cimp > 250 && Cimp < 351 */\n    tag_165:\n        /* \"contracts/FLIR_Contract.sol\":2361:2582  if(Cimp > 250 && Cimp < 351){... */\n      iszero\n      tag_166\n      jumpi\n        /* \"contracts/FLIR_Contract.sol\":2415:2419  btc6 */\n      sload(0x29)\n        /* \"contracts/FLIR_Contract.sol\":2408:2412  Cimp */\n      dup3\n        /* \"contracts/FLIR_Contract.sol\":2408:2419  Cimp * btc6 */\n      tag_167\n      swap2\n      swap1\n      tag_117\n      jump\t// in\n    tag_167:\n        /* \"contracts/FLIR_Contract.sol\":2403:2419  Tc = Cimp * btc6 */\n      swap1\n      pop\n        /* \"contracts/FLIR_Contract.sol\":2361:2582  if(Cimp > 250 && Cimp < 351){... */\n      jump(tag_168)\n    tag_166:\n        /* \"contracts/FLIR_Contract.sol\":2454:2457  350 */\n      0x015e\n        /* \"contracts/FLIR_Contract.sol\":2447:2451  Cimp */\n      dup3\n        /* \"contracts/FLIR_Contract.sol\":2447:2457  Cimp > 350 */\n      gt\n        /* \"contracts/FLIR_Contract.sol\":2447:2471  Cimp > 350 && Cimp < 451 */\n      dup1\n      iszero\n      tag_169\n      jumpi\n      pop\n        /* \"contracts/FLIR_Contract.sol\":2468:2471  451 */\n      0x01c3\n        /* \"contracts/FLIR_Contract.sol\":2461:2465  Cimp */\n      dup3\n        /* \"contracts/FLIR_Contract.sol\":2461:2471  Cimp < 451 */\n      lt\n        /* \"contracts/FLIR_Contract.sol\":2447:2471  Cimp > 350 && Cimp < 451 */\n    tag_169:\n        /* \"contracts/FLIR_Contract.sol\":2444:2582  if(Cimp > 350 && Cimp < 451){... */\n      iszero\n      tag_170\n      jumpi\n        /* \"contracts/FLIR_Contract.sol\":2498:2502  btc7 */\n      sload(0x2a)\n        /* \"contracts/FLIR_Contract.sol\":2491:2495  Cimp */\n      dup3\n        /* \"contracts/FLIR_Contract.sol\":2491:2502  Cimp * btc7 */\n      tag_171\n      swap2\n      swap1\n      tag_117\n      jump\t// in\n    tag_171:\n        /* \"contracts/FLIR_Contract.sol\":2486:2502  Tc = Cimp * btc7 */\n      swap1\n      pop\n        /* \"contracts/FLIR_Contract.sol\":2444:2582  if(Cimp > 350 && Cimp < 451){... */\n      jump(tag_172)\n    tag_170:\n        /* \"contracts/FLIR_Contract.sol\":2537:2540  450 */\n      0x01c2\n        /* \"contracts/FLIR_Contract.sol\":2530:2534  Cimp */\n      dup3\n        /* \"contracts/FLIR_Contract.sol\":2530:2540  Cimp > 450 */\n      gt\n        /* \"contracts/FLIR_Contract.sol\":2527:2582  if(Cimp > 450){... */\n      iszero\n      tag_173\n      jumpi\n        /* \"contracts/FLIR_Contract.sol\":2567:2571  btc8 */\n      sload(0x2b)\n        /* \"contracts/FLIR_Contract.sol\":2560:2564  Cimp */\n      dup3\n        /* \"contracts/FLIR_Contract.sol\":2560:2571  Cimp * btc8 */\n      tag_174\n      swap2\n      swap1\n      tag_117\n      jump\t// in\n    tag_174:\n        /* \"contracts/FLIR_Contract.sol\":2555:2571  Tc = Cimp * btc8 */\n      swap1\n      pop\n        /* \"contracts/FLIR_Contract.sol\":2527:2582  if(Cimp > 450){... */\n    tag_173:\n        /* \"contracts/FLIR_Contract.sol\":2444:2582  if(Cimp > 350 && Cimp < 451){... */\n    tag_172:\n        /* \"contracts/FLIR_Contract.sol\":2361:2582  if(Cimp > 250 && Cimp < 351){... */\n    tag_168:\n        /* \"contracts/FLIR_Contract.sol\":1700:2582  if(Cimp < 251){... */\n    tag_164:\n        /* \"contracts/FLIR_Contract.sol\":1619:2609  function getConsumerTariff(uint Cimp) public returns (uint Tc){... */\n      swap2\n      swap1\n      pop\n      jump\t// out\n        /* \"contracts/FLIR_Contract.sol\":2824:2892  function balCheck() public payable {... */\n    tag_63:\n        /* \"contracts/FLIR_Contract.sol\":2876:2885  msg.value */\n      callvalue\n        /* \"contracts/FLIR_Contract.sol\":2865:2872  balance */\n      0x22\n      0x00\n        /* \"contracts/FLIR_Contract.sol\":2865:2885  balance += msg.value */\n      dup3\n      dup3\n      sload\n      tag_176\n      swap2\n      swap1\n      tag_130\n      jump\t// in\n    tag_176:\n      swap3\n      pop\n      pop\n      dup2\n      swap1\n      sstore\n      pop\n        /* \"contracts/FLIR_Contract.sol\":2824:2892  function balCheck() public payable {... */\n      jump\t// out\n        /* \"contracts/FLIR_Contract.sol\":156:176  address public owner */\n    tag_66:\n      0x00\n      dup1\n      sload\n      swap1\n      0x0100\n      exp\n      swap1\n      div\n      0xffffffffffffffffffffffffffffffffffffffff\n      and\n      dup2\n      jump\t// out\n        /* \"contracts/FLIR_Contract.sol\":1136:1157  uint public btc8 = 10 */\n    tag_70:\n      sload(0x2b)\n      dup2\n      jump\t// out\n        /* \"contracts/FLIR_Contract.sol\":210:235  address[16] public seller */\n    tag_75:\n      0x02\n      dup2\n      0x10\n      dup2\n      lt\n      tag_177\n      jumpi\n      0x00\n      dup1\n      revert\n    tag_177:\n      add\n      0x00\n      swap2\n      pop\n      sload\n      swap1\n      0x0100\n      exp\n      swap1\n      div\n      0xffffffffffffffffffffffffffffffffffffffff\n      and\n      dup2\n      jump\t// out\n        /* \"contracts/FLIR_Contract.sol\":1084:1104  uint public btc6 = 8 */\n    tag_79:\n      sload(0x29)\n      dup2\n      jump\t// out\n        /* \"contracts/FLIR_Contract.sol\":758:781  uint public balance = 0 */\n    tag_83:\n      sload(0x22)\n      dup2\n      jump\t// out\n        /* \"contracts/FLIR_Contract.sol\":954:974  uint public btc1 = 3 */\n    tag_87:\n      sload(0x24)\n      dup2\n      jump\t// out\n        /* \"contracts/FLIR_Contract.sol\":2615:2818  function send(address payable _receiver, uint amount) payable public {... */\n    tag_92:\n        /* \"contracts/FLIR_Contract.sol\":2768:2774  amount */\n      dup1\n        /* \"contracts/FLIR_Contract.sol\":2755:2764  msg.value */\n      callvalue\n        /* \"contracts/FLIR_Contract.sol\":2755:2774  msg.value >= amount */\n      lt\n      iszero\n        /* \"contracts/FLIR_Contract.sol\":2747:2775  require(msg.value >= amount) */\n      tag_180\n      jumpi\n      0x00\n      dup1\n      revert\n    tag_180:\n        /* \"contracts/FLIR_Contract.sol\":2785:2794  _receiver */\n      dup2\n        /* \"contracts/FLIR_Contract.sol\":2785:2803  _receiver.transfer */\n      0xffffffffffffffffffffffffffffffffffffffff\n      and\n        /* \"contracts/FLIR_Contract.sol\":2785:2811  _receiver.transfer(amount) */\n      0x08fc\n        /* \"contracts/FLIR_Contract.sol\":2804:2810  amount */\n      dup3\n        /* \"contracts/FLIR_Contract.sol\":2785:2811  _receiver.transfer(amount) */\n      swap1\n      dup2\n      iszero\n      mul\n      swap1\n      mload(0x40)\n      0x00\n      mload(0x40)\n      dup1\n      dup4\n      sub\n      dup2\n      dup6\n      dup9\n      dup9\n      call\n      swap4\n      pop\n      pop\n      pop\n      pop\n      iszero\n      dup1\n      iszero\n      tag_182\n      jumpi\n      returndatasize\n      0x00\n      dup1\n      returndatacopy\n      revert(0x00, returndatasize)\n    tag_182:\n      pop\n        /* \"contracts/FLIR_Contract.sol\":2615:2818  function send(address payable _receiver, uint amount) payable public {... */\n      pop\n      pop\n      jump\t// out\n        /* \"contracts/FLIR_Contract.sol\":1110:1130  uint public btc7 = 9 */\n    tag_95:\n      sload(0x2a)\n      dup2\n      jump\t// out\n        /* \"contracts/FLIR_Contract.sol\":1164:1492  function getnPnCnEV(uint nPget, uint nCget,uint nEVget) public pure... */\n    tag_101:\n        /* \"contracts/FLIR_Contract.sol\":1245:1252  uint nP */\n      0x00\n        /* \"contracts/FLIR_Contract.sol\":1253:1260  uint nC */\n      dup1\n        /* \"contracts/FLIR_Contract.sol\":1261:1269  uint nEV */\n      0x00\n        /* \"contracts/FLIR_Contract.sol\":1294:1299  nPget */\n      dup6\n        /* \"contracts/FLIR_Contract.sol\":1289:1299  nP = nPget */\n      swap3\n      pop\n        /* \"contracts/FLIR_Contract.sol\":1314:1319  nCget */\n      dup5\n        /* \"contracts/FLIR_Contract.sol\":1309:1319  nC = nCget */\n      swap2\n      pop\n        /* \"contracts/FLIR_Contract.sol\":1335:1341  nEVget */\n      dup4\n        /* \"contracts/FLIR_Contract.sol\":1329:1341  nEV = nEVget */\n      swap1\n      pop\n        /* \"contracts/FLIR_Contract.sol\":1164:1492  function getnPnCnEV(uint nPget, uint nCget,uint nEVget) public pure... */\n      swap4\n      pop\n      swap4\n      pop\n      swap4\n      swap1\n      pop\n      jump\t// out\n        /* \"contracts/FLIR_Contract.sol\":241:266  address[16] public buyers */\n    tag_107:\n      0x12\n      dup2\n      0x10\n      dup2\n      lt\n      tag_184\n      jumpi\n      0x00\n      dup1\n      revert\n    tag_184:\n      add\n      0x00\n      swap2\n      pop\n      sload\n      swap1\n      0x0100\n      exp\n      swap1\n      div\n      0xffffffffffffffffffffffffffffffffffffffff\n      and\n      dup2\n      jump\t// out\n        /* \"contracts/FLIR_Contract.sol\":2898:3033  function getBalance(address _balanceCheck) public returns (uint bal){... */\n    tag_113:\n        /* \"contracts/FLIR_Contract.sol\":2957:2965  uint bal */\n      0x00\n        /* \"contracts/FLIR_Contract.sol\":2982:2995  _balanceCheck */\n      dup2\n        /* \"contracts/FLIR_Contract.sol\":2982:3003  _balanceCheck.balance */\n      0xffffffffffffffffffffffffffffffffffffffff\n      and\n      balance\n        /* \"contracts/FLIR_Contract.sol\":2976:3003  bal = _balanceCheck.balance */\n      swap1\n      pop\n        /* \"contracts/FLIR_Contract.sol\":2898:3033  function getBalance(address _balanceCheck) public returns (uint bal){... */\n      swap2\n      swap1\n      pop\n      jump\t// out\n        /* \"#utility.yul\":7:146   */\n    tag_188:\n        /* \"#utility.yul\":53:58   */\n      0x00\n        /* \"#utility.yul\":91:97   */\n      dup2\n        /* \"#utility.yul\":78:98   */\n      calldataload\n        /* \"#utility.yul\":69:98   */\n      swap1\n      pop\n        /* \"#utility.yul\":107:140   */\n      tag_190\n        /* \"#utility.yul\":134:139   */\n      dup2\n        /* \"#utility.yul\":107:140   */\n      tag_191\n      jump\t// in\n    tag_190:\n        /* \"#utility.yul\":7:146   */\n      swap3\n      swap2\n      pop\n      pop\n      jump\t// out\n        /* \"#utility.yul\":152:307   */\n    tag_192:\n        /* \"#utility.yul\":206:211   */\n      0x00\n        /* \"#utility.yul\":244:250   */\n      dup2\n        /* \"#utility.yul\":231:251   */\n      calldataload\n        /* \"#utility.yul\":222:251   */\n      swap1\n      pop\n        /* \"#utility.yul\":260:301   */\n      tag_194\n        /* \"#utility.yul\":295:300   */\n      dup2\n        /* \"#utility.yul\":260:301   */\n      tag_195\n      jump\t// in\n    tag_194:\n        /* \"#utility.yul\":152:307   */\n      swap3\n      swap2\n      pop\n      pop\n      jump\t// out\n        /* \"#utility.yul\":313:452   */\n    tag_196:\n        /* \"#utility.yul\":359:364   */\n      0x00\n        /* \"#utility.yul\":397:403   */\n      dup2\n        /* \"#utility.yul\":384:404   */\n      calldataload\n        /* \"#utility.yul\":375:404   */\n      swap1\n      pop\n        /* \"#utility.yul\":413:446   */\n      tag_198\n        /* \"#utility.yul\":440:445   */\n      dup2\n        /* \"#utility.yul\":413:446   */\n      tag_199\n      jump\t// in\n    tag_198:\n        /* \"#utility.yul\":313:452   */\n      swap3\n      swap2\n      pop\n      pop\n      jump\t// out\n        /* \"#utility.yul\":458:787   */\n    tag_112:\n        /* \"#utility.yul\":517:523   */\n      0x00\n        /* \"#utility.yul\":566:568   */\n      0x20\n        /* \"#utility.yul\":554:563   */\n      dup3\n        /* \"#utility.yul\":545:552   */\n      dup5\n        /* \"#utility.yul\":541:564   */\n      sub\n        /* \"#utility.yul\":537:569   */\n      slt\n        /* \"#utility.yul\":534:653   */\n      iszero\n      tag_201\n      jumpi\n        /* \"#utility.yul\":572:651   */\n      tag_202\n      tag_203\n      jump\t// in\n    tag_202:\n        /* \"#utility.yul\":534:653   */\n    tag_201:\n        /* \"#utility.yul\":692:693   */\n      0x00\n        /* \"#utility.yul\":717:770   */\n      tag_204\n        /* \"#utility.yul\":762:769   */\n      dup5\n        /* \"#utility.yul\":753:759   */\n      dup3\n        /* \"#utility.yul\":742:751   */\n      dup6\n        /* \"#utility.yul\":738:760   */\n      add\n        /* \"#utility.yul\":717:770   */\n      tag_188\n      jump\t// in\n    tag_204:\n        /* \"#utility.yul\":707:770   */\n      swap2\n      pop\n        /* \"#utility.yul\":663:780   */\n      pop\n        /* \"#utility.yul\":458:787   */\n      swap3\n      swap2\n      pop\n      pop\n      jump\t// out\n        /* \"#utility.yul\":793:1283   */\n    tag_91:\n        /* \"#utility.yul\":869:875   */\n      0x00\n        /* \"#utility.yul\":877:883   */\n      dup1\n        /* \"#utility.yul\":926:928   */\n      0x40\n        /* \"#utility.yul\":914:923   */\n      dup4\n        /* \"#utility.yul\":905:912   */\n      dup6\n        /* \"#utility.yul\":901:924   */\n      sub\n        /* \"#utility.yul\":897:929   */\n      slt\n        /* \"#utility.yul\":894:1013   */\n      iszero\n      tag_206\n      jumpi\n        /* \"#utility.yul\":932:1011   */\n      tag_207\n      tag_203\n      jump\t// in\n    tag_207:\n        /* \"#utility.yul\":894:1013   */\n    tag_206:\n        /* \"#utility.yul\":1052:1053   */\n      0x00\n        /* \"#utility.yul\":1077:1138   */\n      tag_208\n        /* \"#utility.yul\":1130:1137   */\n      dup6\n        /* \"#utility.yul\":1121:1127   */\n      dup3\n        /* \"#utility.yul\":1110:1119   */\n      dup7\n        /* \"#utility.yul\":1106:1128   */\n      add\n        /* \"#utility.yul\":1077:1138   */\n      tag_192\n      jump\t// in\n    tag_208:\n        /* \"#utility.yul\":1067:1138   */\n      swap3\n      pop\n        /* \"#utility.yul\":1023:1148   */\n      pop\n        /* \"#utility.yul\":1187:1189   */\n      0x20\n        /* \"#utility.yul\":1213:1266   */\n      tag_209\n        /* \"#utility.yul\":1258:1265   */\n      dup6\n        /* \"#utility.yul\":1249:1255   */\n      dup3\n        /* \"#utility.yul\":1238:1247   */\n      dup7\n        /* \"#utility.yul\":1234:1256   */\n      add\n        /* \"#utility.yul\":1213:1266   */\n      tag_196\n      jump\t// in\n    tag_209:\n        /* \"#utility.yul\":1203:1266   */\n      swap2\n      pop\n        /* \"#utility.yul\":1158:1276   */\n      pop\n        /* \"#utility.yul\":793:1283   */\n      swap3\n      pop\n      swap3\n      swap1\n      pop\n      jump\t// out\n        /* \"#utility.yul\":1289:1618   */\n    tag_54:\n        /* \"#utility.yul\":1348:1354   */\n      0x00\n        /* \"#utility.yul\":1397:1399   */\n      0x20\n        /* \"#utility.yul\":1385:1394   */\n      dup3\n        /* \"#utility.yul\":1376:1383   */\n      dup5\n        /* \"#utility.yul\":1372:1395   */\n      sub\n        /* \"#utility.yul\":1368:1400   */\n      slt\n        /* \"#utility.yul\":1365:1484   */\n      iszero\n      tag_211\n      jumpi\n        /* \"#utility.yul\":1403:1482   */\n      tag_212\n      tag_203\n      jump\t// in\n    tag_212:\n        /* \"#utility.yul\":1365:1484   */\n    tag_211:\n        /* \"#utility.yul\":1523:1524   */\n      0x00\n        /* \"#utility.yul\":1548:1601   */\n      tag_213\n        /* \"#utility.yul\":1593:1600   */\n      dup5\n        /* \"#utility.yul\":1584:1590   */\n      dup3\n        /* \"#utility.yul\":1573:1582   */\n      dup6\n        /* \"#utility.yul\":1569:1591   */\n      add\n        /* \"#utility.yul\":1548:1601   */\n      tag_196\n      jump\t// in\n    tag_213:\n        /* \"#utility.yul\":1538:1601   */\n      swap2\n      pop\n        /* \"#utility.yul\":1494:1611   */\n      pop\n        /* \"#utility.yul\":1289:1618   */\n      swap3\n      swap2\n      pop\n      pop\n      jump\t// out\n        /* \"#utility.yul\":1624:2243   */\n    tag_100:\n        /* \"#utility.yul\":1701:1707   */\n      0x00\n        /* \"#utility.yul\":1709:1715   */\n      dup1\n        /* \"#utility.yul\":1717:1723   */\n      0x00\n        /* \"#utility.yul\":1766:1768   */\n      0x60\n        /* \"#utility.yul\":1754:1763   */\n      dup5\n        /* \"#utility.yul\":1745:1752   */\n      dup7\n        /* \"#utility.yul\":1741:1764   */\n      sub\n        /* \"#utility.yul\":1737:1769   */\n      slt\n        /* \"#utility.yul\":1734:1853   */\n      iszero\n      tag_215\n      jumpi\n        /* \"#utility.yul\":1772:1851   */\n      tag_216\n      tag_203\n      jump\t// in\n    tag_216:\n        /* \"#utility.yul\":1734:1853   */\n    tag_215:\n        /* \"#utility.yul\":1892:1893   */\n      0x00\n        /* \"#utility.yul\":1917:1970   */\n      tag_217\n        /* \"#utility.yul\":1962:1969   */\n      dup7\n        /* \"#utility.yul\":1953:1959   */\n      dup3\n        /* \"#utility.yul\":1942:1951   */\n      dup8\n        /* \"#utility.yul\":1938:1960   */\n      add\n        /* \"#utility.yul\":1917:1970   */\n      tag_196\n      jump\t// in\n    tag_217:\n        /* \"#utility.yul\":1907:1970   */\n      swap4\n      pop\n        /* \"#utility.yul\":1863:1980   */\n      pop\n        /* \"#utility.yul\":2019:2021   */\n      0x20\n        /* \"#utility.yul\":2045:2098   */\n      tag_218\n        /* \"#utility.yul\":2090:2097   */\n      dup7\n        /* \"#utility.yul\":2081:2087   */\n      dup3\n        /* \"#utility.yul\":2070:2079   */\n      dup8\n        /* \"#utility.yul\":2066:2088   */\n      add\n        /* \"#utility.yul\":2045:2098   */\n      tag_196\n      jump\t// in\n    tag_218:\n        /* \"#utility.yul\":2035:2098   */\n      swap3\n      pop\n        /* \"#utility.yul\":1990:2108   */\n      pop\n        /* \"#utility.yul\":2147:2149   */\n      0x40\n        /* \"#utility.yul\":2173:2226   */\n      tag_219\n        /* \"#utility.yul\":2218:2225   */\n      dup7\n        /* \"#utility.yul\":2209:2215   */\n      dup3\n        /* \"#utility.yul\":2198:2207   */\n      dup8\n        /* \"#utility.yul\":2194:2216   */\n      add\n        /* \"#utility.yul\":2173:2226   */\n      tag_196\n      jump\t// in\n    tag_219:\n        /* \"#utility.yul\":2163:2226   */\n      swap2\n      pop\n        /* \"#utility.yul\":2118:2236   */\n      pop\n        /* \"#utility.yul\":1624:2243   */\n      swap3\n      pop\n      swap3\n      pop\n      swap3\n      jump\t// out\n        /* \"#utility.yul\":2249:2367   */\n    tag_220:\n        /* \"#utility.yul\":2336:2360   */\n      tag_222\n        /* \"#utility.yul\":2354:2359   */\n      dup2\n        /* \"#utility.yul\":2336:2360   */\n      tag_223\n      jump\t// in\n    tag_222:\n        /* \"#utility.yul\":2331:2334   */\n      dup3\n        /* \"#utility.yul\":2324:2361   */\n      mstore\n        /* \"#utility.yul\":2249:2367   */\n      pop\n      pop\n      jump\t// out\n        /* \"#utility.yul\":2373:2491   */\n    tag_224:\n        /* \"#utility.yul\":2460:2484   */\n      tag_226\n        /* \"#utility.yul\":2478:2483   */\n      dup2\n        /* \"#utility.yul\":2460:2484   */\n      tag_227\n      jump\t// in\n    tag_226:\n        /* \"#utility.yul\":2455:2458   */\n      dup3\n        /* \"#utility.yul\":2448:2485   */\n      mstore\n        /* \"#utility.yul\":2373:2491   */\n      pop\n      pop\n      jump\t// out\n        /* \"#utility.yul\":2497:2719   */\n    tag_50:\n        /* \"#utility.yul\":2590:2594   */\n      0x00\n        /* \"#utility.yul\":2628:2630   */\n      0x20\n        /* \"#utility.yul\":2617:2626   */\n      dup3\n        /* \"#utility.yul\":2613:2631   */\n      add\n        /* \"#utility.yul\":2605:2631   */\n      swap1\n      pop\n        /* \"#utility.yul\":2641:2712   */\n      tag_229\n        /* \"#utility.yul\":2709:2710   */\n      0x00\n        /* \"#utility.yul\":2698:2707   */\n      dup4\n        /* \"#utility.yul\":2694:2711   */\n      add\n        /* \"#utility.yul\":2685:2691   */\n      dup5\n        /* \"#utility.yul\":2641:2712   */\n      tag_220\n      jump\t// in\n    tag_229:\n        /* \"#utility.yul\":2497:2719   */\n      swap3\n      swap2\n      pop\n      pop\n      jump\t// out\n        /* \"#utility.yul\":2725:2947   */\n    tag_29:\n        /* \"#utility.yul\":2818:2822   */\n      0x00\n        /* \"#utility.yul\":2856:2858   */\n      0x20\n        /* \"#utility.yul\":2845:2854   */\n      dup3\n        /* \"#utility.yul\":2841:2859   */\n      add\n        /* \"#utility.yul\":2833:2859   */\n      swap1\n      pop\n        /* \"#utility.yul\":2869:2940   */\n      tag_231\n        /* \"#utility.yul\":2937:2938   */\n      0x00\n        /* \"#utility.yul\":2926:2935   */\n      dup4\n        /* \"#utility.yul\":2922:2939   */\n      add\n        /* \"#utility.yul\":2913:2919   */\n      dup5\n        /* \"#utility.yul\":2869:2940   */\n      tag_224\n      jump\t// in\n    tag_231:\n        /* \"#utility.yul\":2725:2947   */\n      swap3\n      swap2\n      pop\n      pop\n      jump\t// out\n        /* \"#utility.yul\":2953:3395   */\n    tag_103:\n        /* \"#utility.yul\":3102:3106   */\n      0x00\n        /* \"#utility.yul\":3140:3142   */\n      0x60\n        /* \"#utility.yul\":3129:3138   */\n      dup3\n        /* \"#utility.yul\":3125:3143   */\n      add\n        /* \"#utility.yul\":3117:3143   */\n      swap1\n      pop\n        /* \"#utility.yul\":3153:3224   */\n      tag_233\n        /* \"#utility.yul\":3221:3222   */\n      0x00\n        /* \"#utility.yul\":3210:3219   */\n      dup4\n        /* \"#utility.yul\":3206:3223   */\n      add\n        /* \"#utility.yul\":3197:3203   */\n      dup7\n        /* \"#utility.yul\":3153:3224   */\n      tag_224\n      jump\t// in\n    tag_233:\n        /* \"#utility.yul\":3234:3306   */\n      tag_234\n        /* \"#utility.yul\":3302:3304   */\n      0x20\n        /* \"#utility.yul\":3291:3300   */\n      dup4\n        /* \"#utility.yul\":3287:3305   */\n      add\n        /* \"#utility.yul\":3278:3284   */\n      dup6\n        /* \"#utility.yul\":3234:3306   */\n      tag_224\n      jump\t// in\n    tag_234:\n        /* \"#utility.yul\":3316:3388   */\n      tag_235\n        /* \"#utility.yul\":3384:3386   */\n      0x40\n        /* \"#utility.yul\":3373:3382   */\n      dup4\n        /* \"#utility.yul\":3369:3387   */\n      add\n        /* \"#utility.yul\":3360:3366   */\n      dup5\n        /* \"#utility.yul\":3316:3388   */\n      tag_224\n      jump\t// in\n    tag_235:\n        /* \"#utility.yul\":2953:3395   */\n      swap5\n      swap4\n      pop\n      pop\n      pop\n      pop\n      jump\t// out\n        /* \"#utility.yul\":3482:3787   */\n    tag_130:\n        /* \"#utility.yul\":3522:3525   */\n      0x00\n        /* \"#utility.yul\":3541:3561   */\n      tag_239\n        /* \"#utility.yul\":3559:3560   */\n      dup3\n        /* \"#utility.yul\":3541:3561   */\n      tag_227\n      jump\t// in\n    tag_239:\n        /* \"#utility.yul\":3536:3561   */\n      swap2\n      pop\n        /* \"#utility.yul\":3575:3595   */\n      tag_240\n        /* \"#utility.yul\":3593:3594   */\n      dup4\n        /* \"#utility.yul\":3575:3595   */\n      tag_227\n      jump\t// in\n    tag_240:\n        /* \"#utility.yul\":3570:3595   */\n      swap3\n      pop\n        /* \"#utility.yul\":3729:3730   */\n      dup3\n        /* \"#utility.yul\":3661:3727   */\n      0xffffffffffffffffffffffffffffffffffffffffffffffffffffffffffffffff\n        /* \"#utility.yul\":3657:3731   */\n      sub\n        /* \"#utility.yul\":3654:3655   */\n      dup3\n        /* \"#utility.yul\":3651:3732   */\n      gt\n        /* \"#utility.yul\":3648:3755   */\n      iszero\n      tag_241\n      jumpi\n        /* \"#utility.yul\":3735:3753   */\n      tag_242\n      tag_243\n      jump\t// in\n    tag_242:\n        /* \"#utility.yul\":3648:3755   */\n    tag_241:\n        /* \"#utility.yul\":3779:3780   */\n      dup3\n        /* \"#utility.yul\":3776:3777   */\n      dup3\n        /* \"#utility.yul\":3772:3781   */\n      add\n        /* \"#utility.yul\":3765:3781   */\n      swap1\n      pop\n        /* \"#utility.yul\":3482:3787   */\n      swap3\n      swap2\n      pop\n      pop\n      jump\t// out\n        /* \"#utility.yul\":3793:4141   */\n    tag_117:\n        /* \"#utility.yul\":3833:3840   */\n      0x00\n        /* \"#utility.yul\":3856:3876   */\n      tag_245\n        /* \"#utility.yul\":3874:3875   */\n      dup3\n        /* \"#utility.yul\":3856:3876   */\n      tag_227\n      jump\t// in\n    tag_245:\n        /* \"#utility.yul\":3851:3876   */\n      swap2\n      pop\n        /* \"#utility.yul\":3890:3910   */\n      tag_246\n        /* \"#utility.yul\":3908:3909   */\n      dup4\n        /* \"#utility.yul\":3890:3910   */\n      tag_227\n      jump\t// in\n    tag_246:\n        /* \"#utility.yul\":3885:3910   */\n      swap3\n      pop\n        /* \"#utility.yul\":4078:4079   */\n      dup2\n        /* \"#utility.yul\":4010:4076   */\n      0xffffffffffffffffffffffffffffffffffffffffffffffffffffffffffffffff\n        /* \"#utility.yul\":4006:4080   */\n      div\n        /* \"#utility.yul\":4003:4004   */\n      dup4\n        /* \"#utility.yul\":4000:4081   */\n      gt\n        /* \"#utility.yul\":3995:3996   */\n      dup3\n        /* \"#utility.yul\":3988:3997   */\n      iszero\n        /* \"#utility.yul\":3981:3998   */\n      iszero\n        /* \"#utility.yul\":3977:4082   */\n      and\n        /* \"#utility.yul\":3974:4105   */\n      iszero\n      tag_247\n      jumpi\n        /* \"#utility.yul\":4085:4103   */\n      tag_248\n      tag_243\n      jump\t// in\n    tag_248:\n        /* \"#utility.yul\":3974:4105   */\n    tag_247:\n        /* \"#utility.yul\":4133:4134   */\n      dup3\n        /* \"#utility.yul\":4130:4131   */\n      dup3\n        /* \"#utility.yul\":4126:4135   */\n      mul\n        /* \"#utility.yul\":4115:4135   */\n      swap1\n      pop\n        /* \"#utility.yul\":3793:4141   */\n      swap3\n      swap2\n      pop\n      pop\n      jump\t// out\n        /* \"#utility.yul\":4147:4338   */\n    tag_126:\n        /* \"#utility.yul\":4187:4191   */\n      0x00\n        /* \"#utility.yul\":4207:4227   */\n      tag_250\n        /* \"#utility.yul\":4225:4226   */\n      dup3\n        /* \"#utility.yul\":4207:4227   */\n      tag_227\n      jump\t// in\n    tag_250:\n        /* \"#utility.yul\":4202:4227   */\n      swap2\n      pop\n        /* \"#utility.yul\":4241:4261   */\n      tag_251\n        /* \"#utility.yul\":4259:4260   */\n      dup4\n        /* \"#utility.yul\":4241:4261   */\n      tag_227\n      jump\t// in\n    tag_251:\n        /* \"#utility.yul\":4236:4261   */\n      swap3\n      pop\n        /* \"#utility.yul\":4280:4281   */\n      dup3\n        /* \"#utility.yul\":4277:4278   */\n      dup3\n        /* \"#utility.yul\":4274:4282   */\n      lt\n        /* \"#utility.yul\":4271:4305   */\n      iszero\n      tag_252\n      jumpi\n        /* \"#utility.yul\":4285:4303   */\n      tag_253\n      tag_243\n      jump\t// in\n    tag_253:\n        /* \"#utility.yul\":4271:4305   */\n    tag_252:\n        /* \"#utility.yul\":4330:4331   */\n      dup3\n        /* \"#utility.yul\":4327:4328   */\n      dup3\n        /* \"#utility.yul\":4323:4332   */\n      sub\n        /* \"#utility.yul\":4315:4332   */\n      swap1\n      pop\n        /* \"#utility.yul\":4147:4338   */\n      swap3\n      swap2\n      pop\n      pop\n      jump\t// out\n        /* \"#utility.yul\":4344:4440   */\n    tag_223:\n        /* \"#utility.yul\":4381:4388   */\n      0x00\n        /* \"#utility.yul\":4410:4434   */\n      tag_255\n        /* \"#utility.yul\":4428:4433   */\n      dup3\n        /* \"#utility.yul\":4410:4434   */\n      tag_256\n      jump\t// in\n    tag_255:\n        /* \"#utility.yul\":4399:4434   */\n      swap1\n      pop\n        /* \"#utility.yul\":4344:4440   */\n      swap2\n      swap1\n      pop\n      jump\t// out\n        /* \"#utility.yul\":4446:4550   */\n    tag_257:\n        /* \"#utility.yul\":4491:4498   */\n      0x00\n        /* \"#utility.yul\":4520:4544   */\n      tag_259\n        /* \"#utility.yul\":4538:4543   */\n      dup3\n        /* \"#utility.yul\":4520:4544   */\n      tag_256\n      jump\t// in\n    tag_259:\n        /* \"#utility.yul\":4509:4544   */\n      swap1\n      pop\n        /* \"#utility.yul\":4446:4550   */\n      swap2\n      swap1\n      pop\n      jump\t// out\n        /* \"#utility.yul\":4556:4682   */\n    tag_256:\n        /* \"#utility.yul\":4593:4600   */\n      0x00\n        /* \"#utility.yul\":4633:4675   */\n      0xffffffffffffffffffffffffffffffffffffffff\n        /* \"#utility.yul\":4626:4631   */\n      dup3\n        /* \"#utility.yul\":4622:4676   */\n      and\n        /* \"#utility.yul\":4611:4676   */\n      swap1\n      pop\n        /* \"#utility.yul\":4556:4682   */\n      swap2\n      swap1\n      pop\n      jump\t// out\n        /* \"#utility.yul\":4688:4765   */\n    tag_227:\n        /* \"#utility.yul\":4725:4732   */\n      0x00\n        /* \"#utility.yul\":4754:4759   */\n      dup2\n        /* \"#utility.yul\":4743:4759   */\n      swap1\n      pop\n        /* \"#utility.yul\":4688:4765   */\n      swap2\n      swap1\n      pop\n      jump\t// out\n        /* \"#utility.yul\":4771:4951   */\n    tag_243:\n        /* \"#utility.yul\":4819:4896   */\n      0x4e487b7100000000000000000000000000000000000000000000000000000000\n        /* \"#utility.yul\":4816:4817   */\n      0x00\n        /* \"#utility.yul\":4809:4897   */\n      mstore\n        /* \"#utility.yul\":4916:4920   */\n      0x11\n        /* \"#utility.yul\":4913:4914   */\n      0x04\n        /* \"#utility.yul\":4906:4921   */\n      mstore\n        /* \"#utility.yul\":4940:4944   */\n      0x24\n        /* \"#utility.yul\":4937:4938   */\n      0x00\n        /* \"#utility.yul\":4930:4945   */\n      revert\n        /* \"#utility.yul\":5080:5197   */\n    tag_203:\n        /* \"#utility.yul\":5189:5190   */\n      0x00\n        /* \"#utility.yul\":5186:5187   */\n      dup1\n        /* \"#utility.yul\":5179:5191   */\n      revert\n        /* \"#utility.yul\":5203:5325   */\n    tag_191:\n        /* \"#utility.yul\":5276:5300   */\n      tag_267\n        /* \"#utility.yul\":5294:5299   */\n      dup2\n        /* \"#utility.yul\":5276:5300   */\n      tag_223\n      jump\t// in\n    tag_267:\n        /* \"#utility.yul\":5269:5274   */\n      dup2\n        /* \"#utility.yul\":5266:5301   */\n      eq\n        /* \"#utility.yul\":5256:5319   */\n      tag_268\n      jumpi\n        /* \"#utility.yul\":5315:5316   */\n      0x00\n        /* \"#utility.yul\":5312:5313   */\n      dup1\n        /* \"#utility.yul\":5305:5317   */\n      revert\n        /* \"#utility.yul\":5256:5319   */\n    tag_268:\n        /* \"#utility.yul\":5203:5325   */\n      pop\n      jump\t// out\n        /* \"#utility.yul\":5331:5469   */\n    tag_195:\n        /* \"#utility.yul\":5412:5444   */\n      tag_270\n        /* \"#utility.yul\":5438:5443   */\n      dup2\n        /* \"#utility.yul\":5412:5444   */\n      tag_257\n      jump\t// in\n    tag_270:\n        /* \"#utility.yul\":5405:5410   */\n      dup2\n        /* \"#utility.yul\":5402:5445   */\n      eq\n        /* \"#utility.yul\":5392:5463   */\n      tag_271\n      jumpi\n        /* \"#utility.yul\":5459:5460   */\n      0x00\n        /* \"#utility.yul\":5456:5457   */\n      dup1\n        /* \"#utility.yul\":5449:5461   */\n      revert\n        /* \"#utility.yul\":5392:5463   */\n    tag_271:\n        /* \"#utility.yul\":5331:5469   */\n      pop\n      jump\t// out\n        /* \"#utility.yul\":5475:5597   */\n    tag_199:\n        /* \"#utility.yul\":5548:5572   */\n      tag_273\n        /* \"#utility.yul\":5566:5571   */\n      dup2\n        /* \"#utility.yul\":5548:5572   */\n      tag_227\n      jump\t// in\n    tag_273:\n        /* \"#utility.yul\":5541:5546   */\n      dup2\n        /* \"#utility.yul\":5538:5573   */\n      eq\n        /* \"#utility.yul\":5528:5591   */\n      tag_274\n      jumpi\n        /* \"#utility.yul\":5587:5588   */\n      0x00\n        /* \"#utility.yul\":5584:5585   */\n      dup1\n        /* \"#utility.yul\":5577:5589   */\n      revert\n        /* \"#utility.yul\":5528:5591   */\n    tag_274:\n        /* \"#utility.yul\":5475:5597   */\n      pop\n      jump\t// out\n\n    auxdata: 0xa26469706673582212203abff8564ef5eba13e5d16bd1d22f0fdaa1819411c522e6792ba826f14a96abb64736f6c63430008070033\n}\n",
				"bytecode": {
					"linkReferences": {},
					"object": "6080604052600060225560036023556003602455600460255560056026556006602755600760285560086029556009602a55600a602b5534801561004257600080fd5b50610c84806100526000396000f3fe60806040526004361061011f5760003560e01c8063a8bdb68b116100a0578063d0679d3411610064578063d0679d34146103be578063ed2fa5ab146103da578063f02e48c314610405578063f2aa821814610444578063f8b2cb4f146104815761011f565b8063a8bdb68b146102d5578063aacdfe6f14610300578063b4ad7fa91461033d578063b69ef8a814610368578063c2c496ec146103935761011f565b8063481c6a75116100e7578063481c6a75146101fb5780635c8f6b5614610226578063721028ec146102635780637c134b14146102a05780638da5cb5b146102aa5761011f565b80630c03a1a314610124578063103347e71461014f57806320e731a11461017a57806328780a44146101a55780632c9af64c146101d0575b600080fd5b34801561013057600080fd5b506101396104be565b6040516101469190610a51565b60405180910390f35b34801561015b57600080fd5b506101646104c4565b6040516101719190610a51565b60405180910390f35b34801561018657600080fd5b5061018f6104ca565b60405161019c9190610a51565b60405180910390f35b3480156101b157600080fd5b506101ba6104d0565b6040516101c79190610a51565b60405180910390f35b3480156101dc57600080fd5b506101e56104d6565b6040516101f29190610a51565b60405180910390f35b34801561020757600080fd5b506102106104dc565b60405161021d9190610a36565b60405180910390f35b34801561023257600080fd5b5061024d60048036038101906102489190610998565b610502565b60405161025a9190610a51565b60405180910390f35b34801561026f57600080fd5b5061028a60048036038101906102859190610998565b610519565b6040516102979190610a51565b60405180910390f35b6102a8610793565b005b3480156102b657600080fd5b506102bf6107ae565b6040516102cc9190610a36565b60405180910390f35b3480156102e157600080fd5b506102ea6107d2565b6040516102f79190610a51565b60405180910390f35b34801561030c57600080fd5b5061032760048036038101906103229190610998565b6107d8565b6040516103349190610a36565b60405180910390f35b34801561034957600080fd5b5061035261080e565b60405161035f9190610a51565b60405180910390f35b34801561037457600080fd5b5061037d610814565b60405161038a9190610a51565b60405180910390f35b34801561039f57600080fd5b506103a861081a565b6040516103b59190610a51565b60405180910390f35b6103d860048036038101906103d39190610958565b610820565b005b3480156103e657600080fd5b506103ef610878565b6040516103fc9190610a51565b60405180910390f35b34801561041157600080fd5b5061042c600480360381019061042791906109c5565b61087e565b60405161043b93929190610a6c565b60405180910390f35b34801561045057600080fd5b5061046b60048036038101906104669190610998565b610895565b6040516104789190610a36565b60405180910390f35b34801561048d57600080fd5b506104a860048036038101906104a3919061092b565b6108cb565b6040516104b59190610a51565b60405180910390f35b60285481565b60275481565b60265481565b60255481565b60235481565b600160009054906101000a900473ffffffffffffffffffffffffffffffffffffffff1681565b6000602354826105129190610af9565b9050919050565b600060fb821015610719576033821015610542576024548261053b9190610af9565b9050610714565b6032821180156105525750606582105b15610591576025546032836105679190610b53565b6105719190610af9565b60245460326105809190610af9565b61058a9190610aa3565b9050610713565b6064821180156105a15750609782105b156105f9576026546032836105b69190610b53565b6105c09190610af9565b60255460326105cf9190610af9565b60245460326105de9190610af9565b6105e89190610aa3565b6105f29190610aa3565b9050610712565b609682118015610609575060c982105b1561067a5760275460328361061e9190610b53565b6106289190610af9565b60265460326106379190610af9565b60255460326106469190610af9565b60245460326106559190610af9565b61065f9190610aa3565b6106699190610aa3565b6106739190610aa3565b9050610711565b60c88211801561068a575060fb82105b156107105760285460328361069f9190610b53565b6106a99190610af9565b60275460326106b89190610af9565b60265460326106c79190610af9565b60255460326106d69190610af9565b60245460326106e59190610af9565b6106ef9190610aa3565b6106f99190610aa3565b6107039190610aa3565b61070d9190610aa3565b90505b5b5b5b5b61078e565b60fa8211801561072a575061015f82105b15610744576029548261073d9190610af9565b905061078d565b61015e8211801561075657506101c382105b1561077057602a54826107699190610af9565b905061078c565b6101c282111561078b57602b54826107889190610af9565b90505b5b5b5b919050565b34602260008282546107a59190610aa3565b92505081905550565b60008054906101000a900473ffffffffffffffffffffffffffffffffffffffff1681565b602b5481565b600281601081106107e857600080fd5b016000915054906101000a900473ffffffffffffffffffffffffffffffffffffffff1681565b60295481565b60225481565b60245481565b8034101561082d57600080fd5b8173ffffffffffffffffffffffffffffffffffffffff166108fc829081150290604051600060405180830381858888f19350505050158015610873573d6000803e3d6000fd5b505050565b602a5481565b600080600085925084915083905093509350939050565b601281601081106108a557600080fd5b016000915054906101000a900473ffffffffffffffffffffffffffffffffffffffff1681565b60008173ffffffffffffffffffffffffffffffffffffffff16319050919050565b6000813590506108fb81610c09565b92915050565b60008135905061091081610c20565b92915050565b60008135905061092581610c37565b92915050565b60006020828403121561094157610940610c04565b5b600061094f848285016108ec565b91505092915050565b6000806040838503121561096f5761096e610c04565b5b600061097d85828601610901565b925050602061098e85828601610916565b9150509250929050565b6000602082840312156109ae576109ad610c04565b5b60006109bc84828501610916565b91505092915050565b6000806000606084860312156109de576109dd610c04565b5b60006109ec86828701610916565b93505060206109fd86828701610916565b9250506040610a0e86828701610916565b9150509250925092565b610a2181610b87565b82525050565b610a3081610bcb565b82525050565b6000602082019050610a4b6000830184610a18565b92915050565b6000602082019050610a666000830184610a27565b92915050565b6000606082019050610a816000830186610a27565b610a8e6020830185610a27565b610a9b6040830184610a27565b949350505050565b6000610aae82610bcb565b9150610ab983610bcb565b9250827fffffffffffffffffffffffffffffffffffffffffffffffffffffffffffffffff03821115610aee57610aed610bd5565b5b828201905092915050565b6000610b0482610bcb565b9150610b0f83610bcb565b9250817fffffffffffffffffffffffffffffffffffffffffffffffffffffffffffffffff0483118215151615610b4857610b47610bd5565b5b828202905092915050565b6000610b5e82610bcb565b9150610b6983610bcb565b925082821015610b7c57610b7b610bd5565b5b828203905092915050565b6000610b9282610bab565b9050919050565b6000610ba482610bab565b9050919050565b600073ffffffffffffffffffffffffffffffffffffffff82169050919050565b6000819050919050565b7f4e487b7100000000000000000000000000000000000000000000000000000000600052601160045260246000fd5b600080fd5b610c1281610b87565b8114610c1d57600080fd5b50565b610c2981610b99565b8114610c3457600080fd5b50565b610c4081610bcb565b8114610c4b57600080fd5b5056fea26469706673582212203abff8564ef5eba13e5d16bd1d22f0fdaa1819411c522e6792ba826f14a96abb64736f6c63430008070033",
					"opcodes": "PUSH1 0x80 PUSH1 0x40 MSTORE PUSH1 0x0 PUSH1 0x22 SSTORE PUSH1 0x3 PUSH1 0x23 SSTORE PUSH1 0x3 PUSH1 0x24 SSTORE PUSH1 0x4 PUSH1 0x25 SSTORE PUSH1 0x5 PUSH1 0x26 SSTORE PUSH1 0x6 PUSH1 0x27 SSTORE PUSH1 0x7 PUSH1 0x28 SSTORE PUSH1 0x8 PUSH1 0x29 SSTORE PUSH1 0x9 PUSH1 0x2A SSTORE PUSH1 0xA PUSH1 0x2B SSTORE CALLVALUE DUP1 ISZERO PUSH2 0x42 JUMPI PUSH1 0x0 DUP1 REVERT JUMPDEST POP PUSH2 0xC84 DUP1 PUSH2 0x52 PUSH1 0x0 CODECOPY PUSH1 0x0 RETURN INVALID PUSH1 0x80 PUSH1 0x40 MSTORE PUSH1 0x4 CALLDATASIZE LT PUSH2 0x11F JUMPI PUSH1 0x0 CALLDATALOAD PUSH1 0xE0 SHR DUP1 PUSH4 0xA8BDB68B GT PUSH2 0xA0 JUMPI DUP1 PUSH4 0xD0679D34 GT PUSH2 0x64 JUMPI DUP1 PUSH4 0xD0679D34 EQ PUSH2 0x3BE JUMPI DUP1 PUSH4 0xED2FA5AB EQ PUSH2 0x3DA JUMPI DUP1 PUSH4 0xF02E48C3 EQ PUSH2 0x405 JUMPI DUP1 PUSH4 0xF2AA8218 EQ PUSH2 0x444 JUMPI DUP1 PUSH4 0xF8B2CB4F EQ PUSH2 0x481 JUMPI PUSH2 0x11F JUMP JUMPDEST DUP1 PUSH4 0xA8BDB68B EQ PUSH2 0x2D5 JUMPI DUP1 PUSH4 0xAACDFE6F EQ PUSH2 0x300 JUMPI DUP1 PUSH4 0xB4AD7FA9 EQ PUSH2 0x33D JUMPI DUP1 PUSH4 0xB69EF8A8 EQ PUSH2 0x368 JUMPI DUP1 PUSH4 0xC2C496EC EQ PUSH2 0x393 JUMPI PUSH2 0x11F JUMP JUMPDEST DUP1 PUSH4 0x481C6A75 GT PUSH2 0xE7 JUMPI DUP1 PUSH4 0x481C6A75 EQ PUSH2 0x1FB JUMPI DUP1 PUSH4 0x5C8F6B56 EQ PUSH2 0x226 JUMPI DUP1 PUSH4 0x721028EC EQ PUSH2 0x263 JUMPI DUP1 PUSH4 0x7C134B14 EQ PUSH2 0x2A0 JUMPI DUP1 PUSH4 0x8DA5CB5B EQ PUSH2 0x2AA JUMPI PUSH2 0x11F JUMP JUMPDEST DUP1 PUSH4 0xC03A1A3 EQ PUSH2 0x124 JUMPI DUP1 PUSH4 0x103347E7 EQ PUSH2 0x14F JUMPI DUP1 PUSH4 0x20E731A1 EQ PUSH2 0x17A JUMPI DUP1 PUSH4 0x28780A44 EQ PUSH2 0x1A5 JUMPI DUP1 PUSH4 0x2C9AF64C EQ PUSH2 0x1D0 JUMPI JUMPDEST PUSH1 0x0 DUP1 REVERT JUMPDEST CALLVALUE DUP1 ISZERO PUSH2 0x130 JUMPI PUSH1 0x0 DUP1 REVERT JUMPDEST POP PUSH2 0x139 PUSH2 0x4BE JUMP JUMPDEST PUSH1 0x40 MLOAD PUSH2 0x146 SWAP2 SWAP1 PUSH2 0xA51 JUMP JUMPDEST PUSH1 0x40 MLOAD DUP1 SWAP2 SUB SWAP1 RETURN JUMPDEST CALLVALUE DUP1 ISZERO PUSH2 0x15B JUMPI PUSH1 0x0 DUP1 REVERT JUMPDEST POP PUSH2 0x164 PUSH2 0x4C4 JUMP JUMPDEST PUSH1 0x40 MLOAD PUSH2 0x171 SWAP2 SWAP1 PUSH2 0xA51 JUMP JUMPDEST PUSH1 0x40 MLOAD DUP1 SWAP2 SUB SWAP1 RETURN JUMPDEST CALLVALUE DUP1 ISZERO PUSH2 0x186 JUMPI PUSH1 0x0 DUP1 REVERT JUMPDEST POP PUSH2 0x18F PUSH2 0x4CA JUMP JUMPDEST PUSH1 0x40 MLOAD PUSH2 0x19C SWAP2 SWAP1 PUSH2 0xA51 JUMP JUMPDEST PUSH1 0x40 MLOAD DUP1 SWAP2 SUB SWAP1 RETURN JUMPDEST CALLVALUE DUP1 ISZERO PUSH2 0x1B1 JUMPI PUSH1 0x0 DUP1 REVERT JUMPDEST POP PUSH2 0x1BA PUSH2 0x4D0 JUMP JUMPDEST PUSH1 0x40 MLOAD PUSH2 0x1C7 SWAP2 SWAP1 PUSH2 0xA51 JUMP JUMPDEST PUSH1 0x40 MLOAD DUP1 SWAP2 SUB SWAP1 RETURN JUMPDEST CALLVALUE DUP1 ISZERO PUSH2 0x1DC JUMPI PUSH1 0x0 DUP1 REVERT JUMPDEST POP PUSH2 0x1E5 PUSH2 0x4D6 JUMP JUMPDEST PUSH1 0x40 MLOAD PUSH2 0x1F2 SWAP2 SWAP1 PUSH2 0xA51 JUMP JUMPDEST PUSH1 0x40 MLOAD DUP1 SWAP2 SUB SWAP1 RETURN JUMPDEST CALLVALUE DUP1 ISZERO PUSH2 0x207 JUMPI PUSH1 0x0 DUP1 REVERT JUMPDEST POP PUSH2 0x210 PUSH2 0x4DC JUMP JUMPDEST PUSH1 0x40 MLOAD PUSH2 0x21D SWAP2 SWAP1 PUSH2 0xA36 JUMP JUMPDEST PUSH1 0x40 MLOAD DUP1 SWAP2 SUB SWAP1 RETURN JUMPDEST CALLVALUE DUP1 ISZERO PUSH2 0x232 JUMPI PUSH1 0x0 DUP1 REVERT JUMPDEST POP PUSH2 0x24D PUSH1 0x4 DUP1 CALLDATASIZE SUB DUP2 ADD SWAP1 PUSH2 0x248 SWAP2 SWAP1 PUSH2 0x998 JUMP JUMPDEST PUSH2 0x502 JUMP JUMPDEST PUSH1 0x40 MLOAD PUSH2 0x25A SWAP2 SWAP1 PUSH2 0xA51 JUMP JUMPDEST PUSH1 0x40 MLOAD DUP1 SWAP2 SUB SWAP1 RETURN JUMPDEST CALLVALUE DUP1 ISZERO PUSH2 0x26F JUMPI PUSH1 0x0 DUP1 REVERT JUMPDEST POP PUSH2 0x28A PUSH1 0x4 DUP1 CALLDATASIZE SUB DUP2 ADD SWAP1 PUSH2 0x285 SWAP2 SWAP1 PUSH2 0x998 JUMP JUMPDEST PUSH2 0x519 JUMP JUMPDEST PUSH1 0x40 MLOAD PUSH2 0x297 SWAP2 SWAP1 PUSH2 0xA51 JUMP JUMPDEST PUSH1 0x40 MLOAD DUP1 SWAP2 SUB SWAP1 RETURN JUMPDEST PUSH2 0x2A8 PUSH2 0x793 JUMP JUMPDEST STOP JUMPDEST CALLVALUE DUP1 ISZERO PUSH2 0x2B6 JUMPI PUSH1 0x0 DUP1 REVERT JUMPDEST POP PUSH2 0x2BF PUSH2 0x7AE JUMP JUMPDEST PUSH1 0x40 MLOAD PUSH2 0x2CC SWAP2 SWAP1 PUSH2 0xA36 JUMP JUMPDEST PUSH1 0x40 MLOAD DUP1 SWAP2 SUB SWAP1 RETURN JUMPDEST CALLVALUE DUP1 ISZERO PUSH2 0x2E1 JUMPI PUSH1 0x0 DUP1 REVERT JUMPDEST POP PUSH2 0x2EA PUSH2 0x7D2 JUMP JUMPDEST PUSH1 0x40 MLOAD PUSH2 0x2F7 SWAP2 SWAP1 PUSH2 0xA51 JUMP JUMPDEST PUSH1 0x40 MLOAD DUP1 SWAP2 SUB SWAP1 RETURN JUMPDEST CALLVALUE DUP1 ISZERO PUSH2 0x30C JUMPI PUSH1 0x0 DUP1 REVERT JUMPDEST POP PUSH2 0x327 PUSH1 0x4 DUP1 CALLDATASIZE SUB DUP2 ADD SWAP1 PUSH2 0x322 SWAP2 SWAP1 PUSH2 0x998 JUMP JUMPDEST PUSH2 0x7D8 JUMP JUMPDEST PUSH1 0x40 MLOAD PUSH2 0x334 SWAP2 SWAP1 PUSH2 0xA36 JUMP JUMPDEST PUSH1 0x40 MLOAD DUP1 SWAP2 SUB SWAP1 RETURN JUMPDEST CALLVALUE DUP1 ISZERO PUSH2 0x349 JUMPI PUSH1 0x0 DUP1 REVERT JUMPDEST POP PUSH2 0x352 PUSH2 0x80E JUMP JUMPDEST PUSH1 0x40 MLOAD PUSH2 0x35F SWAP2 SWAP1 PUSH2 0xA51 JUMP JUMPDEST PUSH1 0x40 MLOAD DUP1 SWAP2 SUB SWAP1 RETURN JUMPDEST CALLVALUE DUP1 ISZERO PUSH2 0x374 JUMPI PUSH1 0x0 DUP1 REVERT JUMPDEST POP PUSH2 0x37D PUSH2 0x814 JUMP JUMPDEST PUSH1 0x40 MLOAD PUSH2 0x38A SWAP2 SWAP1 PUSH2 0xA51 JUMP JUMPDEST PUSH1 0x40 MLOAD DUP1 SWAP2 SUB SWAP1 RETURN JUMPDEST CALLVALUE DUP1 ISZERO PUSH2 0x39F JUMPI PUSH1 0x0 DUP1 REVERT JUMPDEST POP PUSH2 0x3A8 PUSH2 0x81A JUMP JUMPDEST PUSH1 0x40 MLOAD PUSH2 0x3B5 SWAP2 SWAP1 PUSH2 0xA51 JUMP JUMPDEST PUSH1 0x40 MLOAD DUP1 SWAP2 SUB SWAP1 RETURN JUMPDEST PUSH2 0x3D8 PUSH1 0x4 DUP1 CALLDATASIZE SUB DUP2 ADD SWAP1 PUSH2 0x3D3 SWAP2 SWAP1 PUSH2 0x958 JUMP JUMPDEST PUSH2 0x820 JUMP JUMPDEST STOP JUMPDEST CALLVALUE DUP1 ISZERO PUSH2 0x3E6 JUMPI PUSH1 0x0 DUP1 REVERT JUMPDEST POP PUSH2 0x3EF PUSH2 0x878 JUMP JUMPDEST PUSH1 0x40 MLOAD PUSH2 0x3FC SWAP2 SWAP1 PUSH2 0xA51 JUMP JUMPDEST PUSH1 0x40 MLOAD DUP1 SWAP2 SUB SWAP1 RETURN JUMPDEST CALLVALUE DUP1 ISZERO PUSH2 0x411 JUMPI PUSH1 0x0 DUP1 REVERT JUMPDEST POP PUSH2 0x42C PUSH1 0x4 DUP1 CALLDATASIZE SUB DUP2 ADD SWAP1 PUSH2 0x427 SWAP2 SWAP1 PUSH2 0x9C5 JUMP JUMPDEST PUSH2 0x87E JUMP JUMPDEST PUSH1 0x40 MLOAD PUSH2 0x43B SWAP4 SWAP3 SWAP2 SWAP1 PUSH2 0xA6C JUMP JUMPDEST PUSH1 0x40 MLOAD DUP1 SWAP2 SUB SWAP1 RETURN JUMPDEST CALLVALUE DUP1 ISZERO PUSH2 0x450 JUMPI PUSH1 0x0 DUP1 REVERT JUMPDEST POP PUSH2 0x46B PUSH1 0x4 DUP1 CALLDATASIZE SUB DUP2 ADD SWAP1 PUSH2 0x466 SWAP2 SWAP1 PUSH2 0x998 JUMP JUMPDEST PUSH2 0x895 JUMP JUMPDEST PUSH1 0x40 MLOAD PUSH2 0x478 SWAP2 SWAP1 PUSH2 0xA36 JUMP JUMPDEST PUSH1 0x40 MLOAD DUP1 SWAP2 SUB SWAP1 RETURN JUMPDEST CALLVALUE DUP1 ISZERO PUSH2 0x48D JUMPI PUSH1 0x0 DUP1 REVERT JUMPDEST POP PUSH2 0x4A8 PUSH1 0x4 DUP1 CALLDATASIZE SUB DUP2 ADD SWAP1 PUSH2 0x4A3 SWAP2 SWAP1 PUSH2 0x92B JUMP JUMPDEST PUSH2 0x8CB JUMP JUMPDEST PUSH1 0x40 MLOAD PUSH2 0x4B5 SWAP2 SWAP1 PUSH2 0xA51 JUMP JUMPDEST PUSH1 0x40 MLOAD DUP1 SWAP2 SUB SWAP1 RETURN JUMPDEST PUSH1 0x28 SLOAD DUP2 JUMP JUMPDEST PUSH1 0x27 SLOAD DUP2 JUMP JUMPDEST PUSH1 0x26 SLOAD DUP2 JUMP JUMPDEST PUSH1 0x25 SLOAD DUP2 JUMP JUMPDEST PUSH1 0x23 SLOAD DUP2 JUMP JUMPDEST PUSH1 0x1 PUSH1 0x0 SWAP1 SLOAD SWAP1 PUSH2 0x100 EXP SWAP1 DIV PUSH20 0xFFFFFFFFFFFFFFFFFFFFFFFFFFFFFFFFFFFFFFFF AND DUP2 JUMP JUMPDEST PUSH1 0x0 PUSH1 0x23 SLOAD DUP3 PUSH2 0x512 SWAP2 SWAP1 PUSH2 0xAF9 JUMP JUMPDEST SWAP1 POP SWAP2 SWAP1 POP JUMP JUMPDEST PUSH1 0x0 PUSH1 0xFB DUP3 LT ISZERO PUSH2 0x719 JUMPI PUSH1 0x33 DUP3 LT ISZERO PUSH2 0x542 JUMPI PUSH1 0x24 SLOAD DUP3 PUSH2 0x53B SWAP2 SWAP1 PUSH2 0xAF9 JUMP JUMPDEST SWAP1 POP PUSH2 0x714 JUMP JUMPDEST PUSH1 0x32 DUP3 GT DUP1 ISZERO PUSH2 0x552 JUMPI POP PUSH1 0x65 DUP3 LT JUMPDEST ISZERO PUSH2 0x591 JUMPI PUSH1 0x25 SLOAD PUSH1 0x32 DUP4 PUSH2 0x567 SWAP2 SWAP1 PUSH2 0xB53 JUMP JUMPDEST PUSH2 0x571 SWAP2 SWAP1 PUSH2 0xAF9 JUMP JUMPDEST PUSH1 0x24 SLOAD PUSH1 0x32 PUSH2 0x580 SWAP2 SWAP1 PUSH2 0xAF9 JUMP JUMPDEST PUSH2 0x58A SWAP2 SWAP1 PUSH2 0xAA3 JUMP JUMPDEST SWAP1 POP PUSH2 0x713 JUMP JUMPDEST PUSH1 0x64 DUP3 GT DUP1 ISZERO PUSH2 0x5A1 JUMPI POP PUSH1 0x97 DUP3 LT JUMPDEST ISZERO PUSH2 0x5F9 JUMPI PUSH1 0x26 SLOAD PUSH1 0x32 DUP4 PUSH2 0x5B6 SWAP2 SWAP1 PUSH2 0xB53 JUMP JUMPDEST PUSH2 0x5C0 SWAP2 SWAP1 PUSH2 0xAF9 JUMP JUMPDEST PUSH1 0x25 SLOAD PUSH1 0x32 PUSH2 0x5CF SWAP2 SWAP1 PUSH2 0xAF9 JUMP JUMPDEST PUSH1 0x24 SLOAD PUSH1 0x32 PUSH2 0x5DE SWAP2 SWAP1 PUSH2 0xAF9 JUMP JUMPDEST PUSH2 0x5E8 SWAP2 SWAP1 PUSH2 0xAA3 JUMP JUMPDEST PUSH2 0x5F2 SWAP2 SWAP1 PUSH2 0xAA3 JUMP JUMPDEST SWAP1 POP PUSH2 0x712 JUMP JUMPDEST PUSH1 0x96 DUP3 GT DUP1 ISZERO PUSH2 0x609 JUMPI POP PUSH1 0xC9 DUP3 LT JUMPDEST ISZERO PUSH2 0x67A JUMPI PUSH1 0x27 SLOAD PUSH1 0x32 DUP4 PUSH2 0x61E SWAP2 SWAP1 PUSH2 0xB53 JUMP JUMPDEST PUSH2 0x628 SWAP2 SWAP1 PUSH2 0xAF9 JUMP JUMPDEST PUSH1 0x26 SLOAD PUSH1 0x32 PUSH2 0x637 SWAP2 SWAP1 PUSH2 0xAF9 JUMP JUMPDEST PUSH1 0x25 SLOAD PUSH1 0x32 PUSH2 0x646 SWAP2 SWAP1 PUSH2 0xAF9 JUMP JUMPDEST PUSH1 0x24 SLOAD PUSH1 0x32 PUSH2 0x655 SWAP2 SWAP1 PUSH2 0xAF9 JUMP JUMPDEST PUSH2 0x65F SWAP2 SWAP1 PUSH2 0xAA3 JUMP JUMPDEST PUSH2 0x669 SWAP2 SWAP1 PUSH2 0xAA3 JUMP JUMPDEST PUSH2 0x673 SWAP2 SWAP1 PUSH2 0xAA3 JUMP JUMPDEST SWAP1 POP PUSH2 0x711 JUMP JUMPDEST PUSH1 0xC8 DUP3 GT DUP1 ISZERO PUSH2 0x68A JUMPI POP PUSH1 0xFB DUP3 LT JUMPDEST ISZERO PUSH2 0x710 JUMPI PUSH1 0x28 SLOAD PUSH1 0x32 DUP4 PUSH2 0x69F SWAP2 SWAP1 PUSH2 0xB53 JUMP JUMPDEST PUSH2 0x6A9 SWAP2 SWAP1 PUSH2 0xAF9 JUMP JUMPDEST PUSH1 0x27 SLOAD PUSH1 0x32 PUSH2 0x6B8 SWAP2 SWAP1 PUSH2 0xAF9 JUMP JUMPDEST PUSH1 0x26 SLOAD PUSH1 0x32 PUSH2 0x6C7 SWAP2 SWAP1 PUSH2 0xAF9 JUMP JUMPDEST PUSH1 0x25 SLOAD PUSH1 0x32 PUSH2 0x6D6 SWAP2 SWAP1 PUSH2 0xAF9 JUMP JUMPDEST PUSH1 0x24 SLOAD PUSH1 0x32 PUSH2 0x6E5 SWAP2 SWAP1 PUSH2 0xAF9 JUMP JUMPDEST PUSH2 0x6EF SWAP2 SWAP1 PUSH2 0xAA3 JUMP JUMPDEST PUSH2 0x6F9 SWAP2 SWAP1 PUSH2 0xAA3 JUMP JUMPDEST PUSH2 0x703 SWAP2 SWAP1 PUSH2 0xAA3 JUMP JUMPDEST PUSH2 0x70D SWAP2 SWAP1 PUSH2 0xAA3 JUMP JUMPDEST SWAP1 POP JUMPDEST JUMPDEST JUMPDEST JUMPDEST JUMPDEST PUSH2 0x78E JUMP JUMPDEST PUSH1 0xFA DUP3 GT DUP1 ISZERO PUSH2 0x72A JUMPI POP PUSH2 0x15F DUP3 LT JUMPDEST ISZERO PUSH2 0x744 JUMPI PUSH1 0x29 SLOAD DUP3 PUSH2 0x73D SWAP2 SWAP1 PUSH2 0xAF9 JUMP JUMPDEST SWAP1 POP PUSH2 0x78D JUMP JUMPDEST PUSH2 0x15E DUP3 GT DUP1 ISZERO PUSH2 0x756 JUMPI POP PUSH2 0x1C3 DUP3 LT JUMPDEST ISZERO PUSH2 0x770 JUMPI PUSH1 0x2A SLOAD DUP3 PUSH2 0x769 SWAP2 SWAP1 PUSH2 0xAF9 JUMP JUMPDEST SWAP1 POP PUSH2 0x78C JUMP JUMPDEST PUSH2 0x1C2 DUP3 GT ISZERO PUSH2 0x78B JUMPI PUSH1 0x2B SLOAD DUP3 PUSH2 0x788 SWAP2 SWAP1 PUSH2 0xAF9 JUMP JUMPDEST SWAP1 POP JUMPDEST JUMPDEST JUMPDEST JUMPDEST SWAP2 SWAP1 POP JUMP JUMPDEST CALLVALUE PUSH1 0x22 PUSH1 0x0 DUP3 DUP3 SLOAD PUSH2 0x7A5 SWAP2 SWAP1 PUSH2 0xAA3 JUMP JUMPDEST SWAP3 POP POP DUP2 SWAP1 SSTORE POP JUMP JUMPDEST PUSH1 0x0 DUP1 SLOAD SWAP1 PUSH2 0x100 EXP SWAP1 DIV PUSH20 0xFFFFFFFFFFFFFFFFFFFFFFFFFFFFFFFFFFFFFFFF AND DUP2 JUMP JUMPDEST PUSH1 0x2B SLOAD DUP2 JUMP JUMPDEST PUSH1 0x2 DUP2 PUSH1 0x10 DUP2 LT PUSH2 0x7E8 JUMPI PUSH1 0x0 DUP1 REVERT JUMPDEST ADD PUSH1 0x0 SWAP2 POP SLOAD SWAP1 PUSH2 0x100 EXP SWAP1 DIV PUSH20 0xFFFFFFFFFFFFFFFFFFFFFFFFFFFFFFFFFFFFFFFF AND DUP2 JUMP JUMPDEST PUSH1 0x29 SLOAD DUP2 JUMP JUMPDEST PUSH1 0x22 SLOAD DUP2 JUMP JUMPDEST PUSH1 0x24 SLOAD DUP2 JUMP JUMPDEST DUP1 CALLVALUE LT ISZERO PUSH2 0x82D JUMPI PUSH1 0x0 DUP1 REVERT JUMPDEST DUP2 PUSH20 0xFFFFFFFFFFFFFFFFFFFFFFFFFFFFFFFFFFFFFFFF AND PUSH2 0x8FC DUP3 SWAP1 DUP2 ISZERO MUL SWAP1 PUSH1 0x40 MLOAD PUSH1 0x0 PUSH1 0x40 MLOAD DUP1 DUP4 SUB DUP2 DUP6 DUP9 DUP9 CALL SWAP4 POP POP POP POP ISZERO DUP1 ISZERO PUSH2 0x873 JUMPI RETURNDATASIZE PUSH1 0x0 DUP1 RETURNDATACOPY RETURNDATASIZE PUSH1 0x0 REVERT JUMPDEST POP POP POP JUMP JUMPDEST PUSH1 0x2A SLOAD DUP2 JUMP JUMPDEST PUSH1 0x0 DUP1 PUSH1 0x0 DUP6 SWAP3 POP DUP5 SWAP2 POP DUP4 SWAP1 POP SWAP4 POP SWAP4 POP SWAP4 SWAP1 POP JUMP JUMPDEST PUSH1 0x12 DUP2 PUSH1 0x10 DUP2 LT PUSH2 0x8A5 JUMPI PUSH1 0x0 DUP1 REVERT JUMPDEST ADD PUSH1 0x0 SWAP2 POP SLOAD SWAP1 PUSH2 0x100 EXP SWAP1 DIV PUSH20 0xFFFFFFFFFFFFFFFFFFFFFFFFFFFFFFFFFFFFFFFF AND DUP2 JUMP JUMPDEST PUSH1 0x0 DUP2 PUSH20 0xFFFFFFFFFFFFFFFFFFFFFFFFFFFFFFFFFFFFFFFF AND BALANCE SWAP1 POP SWAP2 SWAP1 POP JUMP JUMPDEST PUSH1 0x0 DUP2 CALLDATALOAD SWAP1 POP PUSH2 0x8FB DUP2 PUSH2 0xC09 JUMP JUMPDEST SWAP3 SWAP2 POP POP JUMP JUMPDEST PUSH1 0x0 DUP2 CALLDATALOAD SWAP1 POP PUSH2 0x910 DUP2 PUSH2 0xC20 JUMP JUMPDEST SWAP3 SWAP2 POP POP JUMP JUMPDEST PUSH1 0x0 DUP2 CALLDATALOAD SWAP1 POP PUSH2 0x925 DUP2 PUSH2 0xC37 JUMP JUMPDEST SWAP3 SWAP2 POP POP JUMP JUMPDEST PUSH1 0x0 PUSH1 0x20 DUP3 DUP5 SUB SLT ISZERO PUSH2 0x941 JUMPI PUSH2 0x940 PUSH2 0xC04 JUMP JUMPDEST JUMPDEST PUSH1 0x0 PUSH2 0x94F DUP5 DUP3 DUP6 ADD PUSH2 0x8EC JUMP JUMPDEST SWAP2 POP POP SWAP3 SWAP2 POP POP JUMP JUMPDEST PUSH1 0x0 DUP1 PUSH1 0x40 DUP4 DUP6 SUB SLT ISZERO PUSH2 0x96F JUMPI PUSH2 0x96E PUSH2 0xC04 JUMP JUMPDEST JUMPDEST PUSH1 0x0 PUSH2 0x97D DUP6 DUP3 DUP7 ADD PUSH2 0x901 JUMP JUMPDEST SWAP3 POP POP PUSH1 0x20 PUSH2 0x98E DUP6 DUP3 DUP7 ADD PUSH2 0x916 JUMP JUMPDEST SWAP2 POP POP SWAP3 POP SWAP3 SWAP1 POP JUMP JUMPDEST PUSH1 0x0 PUSH1 0x20 DUP3 DUP5 SUB SLT ISZERO PUSH2 0x9AE JUMPI PUSH2 0x9AD PUSH2 0xC04 JUMP JUMPDEST JUMPDEST PUSH1 0x0 PUSH2 0x9BC DUP5 DUP3 DUP6 ADD PUSH2 0x916 JUMP JUMPDEST SWAP2 POP POP SWAP3 SWAP2 POP POP JUMP JUMPDEST PUSH1 0x0 DUP1 PUSH1 0x0 PUSH1 0x60 DUP5 DUP7 SUB SLT ISZERO PUSH2 0x9DE JUMPI PUSH2 0x9DD PUSH2 0xC04 JUMP JUMPDEST JUMPDEST PUSH1 0x0 PUSH2 0x9EC DUP7 DUP3 DUP8 ADD PUSH2 0x916 JUMP JUMPDEST SWAP4 POP POP PUSH1 0x20 PUSH2 0x9FD DUP7 DUP3 DUP8 ADD PUSH2 0x916 JUMP JUMPDEST SWAP3 POP POP PUSH1 0x40 PUSH2 0xA0E DUP7 DUP3 DUP8 ADD PUSH2 0x916 JUMP JUMPDEST SWAP2 POP POP SWAP3 POP SWAP3 POP SWAP3 JUMP JUMPDEST PUSH2 0xA21 DUP2 PUSH2 0xB87 JUMP JUMPDEST DUP3 MSTORE POP POP JUMP JUMPDEST PUSH2 0xA30 DUP2 PUSH2 0xBCB JUMP JUMPDEST DUP3 MSTORE POP POP JUMP JUMPDEST PUSH1 0x0 PUSH1 0x20 DUP3 ADD SWAP1 POP PUSH2 0xA4B PUSH1 0x0 DUP4 ADD DUP5 PUSH2 0xA18 JUMP JUMPDEST SWAP3 SWAP2 POP POP JUMP JUMPDEST PUSH1 0x0 PUSH1 0x20 DUP3 ADD SWAP1 POP PUSH2 0xA66 PUSH1 0x0 DUP4 ADD DUP5 PUSH2 0xA27 JUMP JUMPDEST SWAP3 SWAP2 POP POP JUMP JUMPDEST PUSH1 0x0 PUSH1 0x60 DUP3 ADD SWAP1 POP PUSH2 0xA81 PUSH1 0x0 DUP4 ADD DUP7 PUSH2 0xA27 JUMP JUMPDEST PUSH2 0xA8E PUSH1 0x20 DUP4 ADD DUP6 PUSH2 0xA27 JUMP JUMPDEST PUSH2 0xA9B PUSH1 0x40 DUP4 ADD DUP5 PUSH2 0xA27 JUMP JUMPDEST SWAP5 SWAP4 POP POP POP POP JUMP JUMPDEST PUSH1 0x0 PUSH2 0xAAE DUP3 PUSH2 0xBCB JUMP JUMPDEST SWAP2 POP PUSH2 0xAB9 DUP4 PUSH2 0xBCB JUMP JUMPDEST SWAP3 POP DUP3 PUSH32 0xFFFFFFFFFFFFFFFFFFFFFFFFFFFFFFFFFFFFFFFFFFFFFFFFFFFFFFFFFFFFFFFF SUB DUP3 GT ISZERO PUSH2 0xAEE JUMPI PUSH2 0xAED PUSH2 0xBD5 JUMP JUMPDEST JUMPDEST DUP3 DUP3 ADD SWAP1 POP SWAP3 SWAP2 POP POP JUMP JUMPDEST PUSH1 0x0 PUSH2 0xB04 DUP3 PUSH2 0xBCB JUMP JUMPDEST SWAP2 POP PUSH2 0xB0F DUP4 PUSH2 0xBCB JUMP JUMPDEST SWAP3 POP DUP2 PUSH32 0xFFFFFFFFFFFFFFFFFFFFFFFFFFFFFFFFFFFFFFFFFFFFFFFFFFFFFFFFFFFFFFFF DIV DUP4 GT DUP3 ISZERO ISZERO AND ISZERO PUSH2 0xB48 JUMPI PUSH2 0xB47 PUSH2 0xBD5 JUMP JUMPDEST JUMPDEST DUP3 DUP3 MUL SWAP1 POP SWAP3 SWAP2 POP POP JUMP JUMPDEST PUSH1 0x0 PUSH2 0xB5E DUP3 PUSH2 0xBCB JUMP JUMPDEST SWAP2 POP PUSH2 0xB69 DUP4 PUSH2 0xBCB JUMP JUMPDEST SWAP3 POP DUP3 DUP3 LT ISZERO PUSH2 0xB7C JUMPI PUSH2 0xB7B PUSH2 0xBD5 JUMP JUMPDEST JUMPDEST DUP3 DUP3 SUB SWAP1 POP SWAP3 SWAP2 POP POP JUMP JUMPDEST PUSH1 0x0 PUSH2 0xB92 DUP3 PUSH2 0xBAB JUMP JUMPDEST SWAP1 POP SWAP2 SWAP1 POP JUMP JUMPDEST PUSH1 0x0 PUSH2 0xBA4 DUP3 PUSH2 0xBAB JUMP JUMPDEST SWAP1 POP SWAP2 SWAP1 POP JUMP JUMPDEST PUSH1 0x0 PUSH20 0xFFFFFFFFFFFFFFFFFFFFFFFFFFFFFFFFFFFFFFFF DUP3 AND SWAP1 POP SWAP2 SWAP1 POP JUMP JUMPDEST PUSH1 0x0 DUP2 SWAP1 POP SWAP2 SWAP1 POP JUMP JUMPDEST PUSH32 0x4E487B7100000000000000000000000000000000000000000000000000000000 PUSH1 0x0 MSTORE PUSH1 0x11 PUSH1 0x4 MSTORE PUSH1 0x24 PUSH1 0x0 REVERT JUMPDEST PUSH1 0x0 DUP1 REVERT JUMPDEST PUSH2 0xC12 DUP2 PUSH2 0xB87 JUMP JUMPDEST DUP2 EQ PUSH2 0xC1D JUMPI PUSH1 0x0 DUP1 REVERT JUMPDEST POP JUMP JUMPDEST PUSH2 0xC29 DUP2 PUSH2 0xB99 JUMP JUMPDEST DUP2 EQ PUSH2 0xC34 JUMPI PUSH1 0x0 DUP1 REVERT JUMPDEST POP JUMP JUMPDEST PUSH2 0xC40 DUP2 PUSH2 0xBCB JUMP JUMPDEST DUP2 EQ PUSH2 0xC4B JUMPI PUSH1 0x0 DUP1 REVERT JUMPDEST POP JUMP INVALID LOG2 PUSH5 0x6970667358 0x22 SLT KECCAK256 GASPRICE 0xBF 0xF8 JUMP 0x4E CREATE2 0xEB LOG1 RETURNDATACOPY 0x5D AND 0xBD SAR 0x22 CREATE REVERT 0xAA XOR NOT COINBASE SHR MSTORE 0x2E PUSH8 0x92BA826F14A96ABB PUSH5 0x736F6C6343 STOP ADDMOD SMOD STOP CALLER "
				},
				"gasEstimates": {
					"creation": {
						"codeDepositCost": "640800",
						"executionCost": "204636",
						"totalCost": "845436"
					},
					"external": {
						"balCheck()": "infinite",
						"balance()": "2518",
						"btc1()": "2540",
						"btc2()": "2519",
						"btc3()": "2497",
						"btc4()": "2475",
						"btc5()": "2453",
						"btc6()": "2496",
						"btc7()": "2473",
						"btc8()": "2452",
						"btp()": "2541",
						"buyers(uint256)": "2893",
						"getBalance(address)": "3367",
						"getConsumerTariff(uint256)": "infinite",
						"getProsumerTariff(uint256)": "infinite",
						"getnPnCnEV(uint256,uint256,uint256)": "infinite",
						"manager()": "2537",
						"owner()": "2622",
						"seller(uint256)": "2850",
						"send(address,uint256)": "infinite"
					}
				},
				"methodIdentifiers": {
					"balCheck()": "7c134b14",
					"balance()": "b69ef8a8",
					"btc1()": "c2c496ec",
					"btc2()": "28780a44",
					"btc3()": "20e731a1",
					"btc4()": "103347e7",
					"btc5()": "0c03a1a3",
					"btc6()": "b4ad7fa9",
					"btc7()": "ed2fa5ab",
					"btc8()": "a8bdb68b",
					"btp()": "2c9af64c",
					"buyers(uint256)": "f2aa8218",
					"getBalance(address)": "f8b2cb4f",
					"getConsumerTariff(uint256)": "721028ec",
					"getProsumerTariff(uint256)": "5c8f6b56",
					"getnPnCnEV(uint256,uint256,uint256)": "f02e48c3",
					"manager()": "481c6a75",
					"owner()": "8da5cb5b",
					"seller(uint256)": "aacdfe6f",
					"send(address,uint256)": "d0679d34"
				}
			},
			"storageLayout": {
				"storage": [
					{
						"astId": 3,
						"contract": "contracts/FLIR_Contract.sol:FLIRContract",
						"label": "owner",
						"offset": 0,
						"slot": "0",
						"type": "t_address"
					},
					{
						"astId": 5,
						"contract": "contracts/FLIR_Contract.sol:FLIRContract",
						"label": "manager",
						"offset": 0,
						"slot": "1",
						"type": "t_address"
					},
					{
						"astId": 9,
						"contract": "contracts/FLIR_Contract.sol:FLIRContract",
						"label": "seller",
						"offset": 0,
						"slot": "2",
						"type": "t_array(t_address)16_storage"
					},
					{
						"astId": 13,
						"contract": "contracts/FLIR_Contract.sol:FLIRContract",
						"label": "buyers",
						"offset": 0,
						"slot": "18",
						"type": "t_array(t_address)16_storage"
					},
					{
						"astId": 16,
						"contract": "contracts/FLIR_Contract.sol:FLIRContract",
						"label": "balance",
						"offset": 0,
						"slot": "34",
						"type": "t_uint256"
					},
					{
						"astId": 19,
						"contract": "contracts/FLIR_Contract.sol:FLIRContract",
						"label": "btp",
						"offset": 0,
						"slot": "35",
						"type": "t_uint256"
					},
					{
						"astId": 22,
						"contract": "contracts/FLIR_Contract.sol:FLIRContract",
						"label": "btc1",
						"offset": 0,
						"slot": "36",
						"type": "t_uint256"
					},
					{
						"astId": 25,
						"contract": "contracts/FLIR_Contract.sol:FLIRContract",
						"label": "btc2",
						"offset": 0,
						"slot": "37",
						"type": "t_uint256"
					},
					{
						"astId": 28,
						"contract": "contracts/FLIR_Contract.sol:FLIRContract",
						"label": "btc3",
						"offset": 0,
						"slot": "38",
						"type": "t_uint256"
					},
					{
						"astId": 31,
						"contract": "contracts/FLIR_Contract.sol:FLIRContract",
						"label": "btc4",
						"offset": 0,
						"slot": "39",
						"type": "t_uint256"
					},
					{
						"astId": 34,
						"contract": "contracts/FLIR_Contract.sol:FLIRContract",
						"label": "btc5",
						"offset": 0,
						"slot": "40",
						"type": "t_uint256"
					},
					{
						"astId": 37,
						"contract": "contracts/FLIR_Contract.sol:FLIRContract",
						"label": "btc6",
						"offset": 0,
						"slot": "41",
						"type": "t_uint256"
					},
					{
						"astId": 40,
						"contract": "contracts/FLIR_Contract.sol:FLIRContract",
						"label": "btc7",
						"offset": 0,
						"slot": "42",
						"type": "t_uint256"
					},
					{
						"astId": 43,
						"contract": "contracts/FLIR_Contract.sol:FLIRContract",
						"label": "btc8",
						"offset": 0,
						"slot": "43",
						"type": "t_uint256"
					}
				],
				"types": {
					"t_address": {
						"encoding": "inplace",
						"label": "address",
						"numberOfBytes": "20"
					},
					"t_array(t_address)16_storage": {
						"base": "t_address",
						"encoding": "inplace",
						"label": "address[16]",
						"numberOfBytes": "512"
					},
					"t_uint256": {
						"encoding": "inplace",
						"label": "uint256",
						"numberOfBytes": "32"
					}
				}
			},
			"userdoc": {
				"kind": "user",
				"methods": {},
				"version": 1
			}
		}
	}
}