{
	"eth based/truffle/contracts/FLIR_Contract.sol": {
		"FLIRContract": {
			"abi": [
				{
					"inputs": [],
					"stateMutability": "nonpayable",
					"type": "constructor"
				},
				{
					"inputs": [],
					"name": "balCheck",
					"outputs": [],
					"stateMutability": "payable",
					"type": "function"
				},
				{
					"inputs": [],
					"name": "balance",
					"outputs": [
						{
							"internalType": "uint256",
							"name": "",
							"type": "uint256"
						}
					],
					"stateMutability": "view",
					"type": "function"
				},
				{
					"inputs": [
						{
							"internalType": "address",
							"name": "",
							"type": "address"
						}
					],
					"name": "balances",
					"outputs": [
						{
							"internalType": "uint256",
							"name": "",
							"type": "uint256"
						}
					],
					"stateMutability": "view",
					"type": "function"
				},
				{
					"inputs": [],
					"name": "btc1",
					"outputs": [
						{
							"internalType": "uint256",
							"name": "",
							"type": "uint256"
						}
					],
					"stateMutability": "view",
					"type": "function"
				},
				{
					"inputs": [],
					"name": "btc2",
					"outputs": [
						{
							"internalType": "uint256",
							"name": "",
							"type": "uint256"
						}
					],
					"stateMutability": "view",
					"type": "function"
				},
				{
					"inputs": [],
					"name": "btc3",
					"outputs": [
						{
							"internalType": "uint256",
							"name": "",
							"type": "uint256"
						}
					],
					"stateMutability": "view",
					"type": "function"
				},
				{
					"inputs": [],
					"name": "btc4",
					"outputs": [
						{
							"internalType": "uint256",
							"name": "",
							"type": "uint256"
						}
					],
					"stateMutability": "view",
					"type": "function"
				},
				{
					"inputs": [],
					"name": "btc5",
					"outputs": [
						{
							"internalType": "uint256",
							"name": "",
							"type": "uint256"
						}
					],
					"stateMutability": "view",
					"type": "function"
				},
				{
					"inputs": [],
					"name": "btc6",
					"outputs": [
						{
							"internalType": "uint256",
							"name": "",
							"type": "uint256"
						}
					],
					"stateMutability": "view",
					"type": "function"
				},
				{
					"inputs": [],
					"name": "btc7",
					"outputs": [
						{
							"internalType": "uint256",
							"name": "",
							"type": "uint256"
						}
					],
					"stateMutability": "view",
					"type": "function"
				},
				{
					"inputs": [],
					"name": "btc8",
					"outputs": [
						{
							"internalType": "uint256",
							"name": "",
							"type": "uint256"
						}
					],
					"stateMutability": "view",
					"type": "function"
				},
				{
					"inputs": [],
					"name": "btp",
					"outputs": [
						{
							"internalType": "uint256",
							"name": "",
							"type": "uint256"
						}
					],
					"stateMutability": "view",
					"type": "function"
				},
				{
					"inputs": [
						{
							"internalType": "address",
							"name": "_balanceCheck",
							"type": "address"
						}
					],
					"name": "getBalance",
					"outputs": [
						{
							"internalType": "uint256",
							"name": "bal",
							"type": "uint256"
						}
					],
					"stateMutability": "nonpayable",
					"type": "function"
				},
				{
					"inputs": [
						{
							"internalType": "uint256",
							"name": "Cimp",
							"type": "uint256"
						}
					],
					"name": "getConsumerTariff",
					"outputs": [
						{
							"internalType": "uint256",
							"name": "Tc",
							"type": "uint256"
						}
					],
					"stateMutability": "nonpayable",
					"type": "function"
				},
				{
					"inputs": [
						{
							"internalType": "uint256",
							"name": "Pexp",
							"type": "uint256"
						}
					],
					"name": "getProsumerTariff",
					"outputs": [
						{
							"internalType": "uint256",
							"name": "Tp",
							"type": "uint256"
						}
					],
					"stateMutability": "nonpayable",
					"type": "function"
				},
				{
					"inputs": [
						{
							"internalType": "uint256",
							"name": "nPget",
							"type": "uint256"
						},
						{
							"internalType": "uint256",
							"name": "nCget",
							"type": "uint256"
						},
						{
							"internalType": "uint256",
							"name": "nEVget",
							"type": "uint256"
						}
					],
					"name": "getnPnCnEV",
					"outputs": [
						{
							"internalType": "uint256",
							"name": "nP",
							"type": "uint256"
						},
						{
							"internalType": "uint256",
							"name": "nC",
							"type": "uint256"
						},
						{
							"internalType": "uint256",
							"name": "nEV",
							"type": "uint256"
						}
					],
					"stateMutability": "nonpayable",
					"type": "function"
				},
				{
					"inputs": [
						{
							"internalType": "address payable",
							"name": "_receiver",
							"type": "address"
						},
						{
							"internalType": "uint256",
							"name": "amount",
							"type": "uint256"
						}
					],
					"name": "send",
					"outputs": [],
					"stateMutability": "payable",
					"type": "function"
				}
			],
			"devdoc": {
				"kind": "dev",
				"methods": {},
				"version": 1
			},
			"evm": {
				"assembly": "    /* \"eth based/truffle/contracts/FLIR_Contract.sol\":129:3800  contract FLIRContract{... */\n  mstore(0x40, 0x80)\n    /* \"eth based/truffle/contracts/FLIR_Contract.sol\":656:657  0 */\n  0x00\n    /* \"eth based/truffle/contracts/FLIR_Contract.sol\":634:657  uint public balance = 0 */\n  0x02\n  sstore\n    /* \"eth based/truffle/contracts/FLIR_Contract.sol\":813:814  3 */\n  0x03\n    /* \"eth based/truffle/contracts/FLIR_Contract.sol\":795:814  uint public btp = 3 */\n  dup1\n  sstore\n    /* \"eth based/truffle/contracts/FLIR_Contract.sol\":840:841  3 */\n  0x03\n    /* \"eth based/truffle/contracts/FLIR_Contract.sol\":821:841  uint public btc1 = 3 */\n  0x04\n  sstore\n    /* \"eth based/truffle/contracts/FLIR_Contract.sol\":866:867  4 */\n  0x04\n    /* \"eth based/truffle/contracts/FLIR_Contract.sol\":847:867  uint public btc2 = 4 */\n  0x05\n  sstore\n    /* \"eth based/truffle/contracts/FLIR_Contract.sol\":892:893  5 */\n  0x05\n    /* \"eth based/truffle/contracts/FLIR_Contract.sol\":873:893  uint public btc3 = 5 */\n  0x06\n  sstore\n    /* \"eth based/truffle/contracts/FLIR_Contract.sol\":918:919  6 */\n  0x06\n    /* \"eth based/truffle/contracts/FLIR_Contract.sol\":899:919  uint public btc4 = 6 */\n  0x07\n  sstore\n    /* \"eth based/truffle/contracts/FLIR_Contract.sol\":944:945  7 */\n  0x07\n    /* \"eth based/truffle/contracts/FLIR_Contract.sol\":925:945  uint public btc5 = 7 */\n  0x08\n  sstore\n    /* \"eth based/truffle/contracts/FLIR_Contract.sol\":970:971  8 */\n  0x08\n    /* \"eth based/truffle/contracts/FLIR_Contract.sol\":951:971  uint public btc6 = 8 */\n  0x09\n  sstore\n    /* \"eth based/truffle/contracts/FLIR_Contract.sol\":996:997  9 */\n  0x09\n    /* \"eth based/truffle/contracts/FLIR_Contract.sol\":977:997  uint public btc7 = 9 */\n  0x0a\n  sstore\n    /* \"eth based/truffle/contracts/FLIR_Contract.sol\":1022:1024  10 */\n  0x0a\n    /* \"eth based/truffle/contracts/FLIR_Contract.sol\":1003:1024  uint public btc8 = 10 */\n  0x0b\n  sstore\n    /* \"eth based/truffle/contracts/FLIR_Contract.sol\":663:718  constructor() public{... */\n  callvalue\n  dup1\n  iszero\n  tag_1\n  jumpi\n  0x00\n  dup1\n  revert\ntag_1:\n  pop\n    /* \"eth based/truffle/contracts/FLIR_Contract.sol\":701:711  msg.sender */\n  caller\n    /* \"eth based/truffle/contracts/FLIR_Contract.sol\":693:698  owner */\n  0x00\n  dup1\n    /* \"eth based/truffle/contracts/FLIR_Contract.sol\":693:711  owner = msg.sender */\n  0x0100\n  exp\n  dup2\n  sload\n  dup2\n  0xffffffffffffffffffffffffffffffffffffffff\n  mul\n  not\n  and\n  swap1\n  dup4\n  0xffffffffffffffffffffffffffffffffffffffff\n  and\n  mul\n  or\n  swap1\n  sstore\n  pop\n    /* \"eth based/truffle/contracts/FLIR_Contract.sol\":129:3800  contract FLIRContract{... */\n  dataSize(sub_0)\n  dup1\n  dataOffset(sub_0)\n  0x00\n  codecopy\n  0x00\n  return\nstop\n\nsub_0: assembly {\n        /* \"eth based/truffle/contracts/FLIR_Contract.sol\":129:3800  contract FLIRContract{... */\n      mstore(0x40, 0x80)\n      jumpi(tag_1, lt(calldatasize, 0x04))\n      shr(0xe0, calldataload(0x00))\n      dup1\n      0x7c134b14\n      gt\n      tag_19\n      jumpi\n      dup1\n      0xc2c496ec\n      gt\n      tag_20\n      jumpi\n      dup1\n      0xc2c496ec\n      eq\n      tag_14\n      jumpi\n      dup1\n      0xd0679d34\n      eq\n      tag_15\n      jumpi\n      dup1\n      0xed2fa5ab\n      eq\n      tag_16\n      jumpi\n      dup1\n      0xf02e48c3\n      eq\n      tag_17\n      jumpi\n      dup1\n      0xf8b2cb4f\n      eq\n      tag_18\n      jumpi\n      jump(tag_1)\n    tag_20:\n      dup1\n      0x7c134b14\n      eq\n      tag_10\n      jumpi\n      dup1\n      0xa8bdb68b\n      eq\n      tag_11\n      jumpi\n      dup1\n      0xb4ad7fa9\n      eq\n      tag_12\n      jumpi\n      dup1\n      0xb69ef8a8\n      eq\n      tag_13\n      jumpi\n      jump(tag_1)\n    tag_19:\n      dup1\n      0x28780a44\n      gt\n      tag_21\n      jumpi\n      dup1\n      0x28780a44\n      eq\n      tag_6\n      jumpi\n      dup1\n      0x2c9af64c\n      eq\n      tag_7\n      jumpi\n      dup1\n      0x5c8f6b56\n      eq\n      tag_8\n      jumpi\n      dup1\n      0x721028ec\n      eq\n      tag_9\n      jumpi\n      jump(tag_1)\n    tag_21:\n      dup1\n      0x0c03a1a3\n      eq\n      tag_2\n      jumpi\n      dup1\n      0x103347e7\n      eq\n      tag_3\n      jumpi\n      dup1\n      0x20e731a1\n      eq\n      tag_4\n      jumpi\n      dup1\n      0x27e235e3\n      eq\n      tag_5\n      jumpi\n    tag_1:\n      0x00\n      dup1\n      revert\n        /* \"eth based/truffle/contracts/FLIR_Contract.sol\":925:945  uint public btc5 = 7 */\n    tag_2:\n      callvalue\n      dup1\n      iszero\n      tag_22\n      jumpi\n      0x00\n      dup1\n      revert\n    tag_22:\n      pop\n      tag_23\n      tag_24\n      jump\t// in\n    tag_23:\n      mload(0x40)\n      tag_25\n      swap2\n      swap1\n      tag_26\n      jump\t// in\n    tag_25:\n      mload(0x40)\n      dup1\n      swap2\n      sub\n      swap1\n      return\n        /* \"eth based/truffle/contracts/FLIR_Contract.sol\":899:919  uint public btc4 = 6 */\n    tag_3:\n      callvalue\n      dup1\n      iszero\n      tag_27\n      jumpi\n      0x00\n      dup1\n      revert\n    tag_27:\n      pop\n      tag_28\n      tag_29\n      jump\t// in\n    tag_28:\n      mload(0x40)\n      tag_30\n      swap2\n      swap1\n      tag_26\n      jump\t// in\n    tag_30:\n      mload(0x40)\n      dup1\n      swap2\n      sub\n      swap1\n      return\n        /* \"eth based/truffle/contracts/FLIR_Contract.sol\":873:893  uint public btc3 = 5 */\n    tag_4:\n      callvalue\n      dup1\n      iszero\n      tag_31\n      jumpi\n      0x00\n      dup1\n      revert\n    tag_31:\n      pop\n      tag_32\n      tag_33\n      jump\t// in\n    tag_32:\n      mload(0x40)\n      tag_34\n      swap2\n      swap1\n      tag_26\n      jump\t// in\n    tag_34:\n      mload(0x40)\n      dup1\n      swap2\n      sub\n      swap1\n      return\n        /* \"eth based/truffle/contracts/FLIR_Contract.sol\":175:215  mapping(address => uint) public balances */\n    tag_5:\n      callvalue\n      dup1\n      iszero\n      tag_35\n      jumpi\n      0x00\n      dup1\n      revert\n    tag_35:\n      pop\n      tag_36\n      0x04\n      dup1\n      calldatasize\n      sub\n      dup2\n      add\n      swap1\n      tag_37\n      swap2\n      swap1\n      tag_38\n      jump\t// in\n    tag_37:\n      tag_39\n      jump\t// in\n    tag_36:\n      mload(0x40)\n      tag_40\n      swap2\n      swap1\n      tag_26\n      jump\t// in\n    tag_40:\n      mload(0x40)\n      dup1\n      swap2\n      sub\n      swap1\n      return\n        /* \"eth based/truffle/contracts/FLIR_Contract.sol\":847:867  uint public btc2 = 4 */\n    tag_6:\n      callvalue\n      dup1\n      iszero\n      tag_41\n      jumpi\n      0x00\n      dup1\n      revert\n    tag_41:\n      pop\n      tag_42\n      tag_43\n      jump\t// in\n    tag_42:\n      mload(0x40)\n      tag_44\n      swap2\n      swap1\n      tag_26\n      jump\t// in\n    tag_44:\n      mload(0x40)\n      dup1\n      swap2\n      sub\n      swap1\n      return\n        /* \"eth based/truffle/contracts/FLIR_Contract.sol\":795:814  uint public btp = 3 */\n    tag_7:\n      callvalue\n      dup1\n      iszero\n      tag_45\n      jumpi\n      0x00\n      dup1\n      revert\n    tag_45:\n      pop\n      tag_46\n      tag_47\n      jump\t// in\n    tag_46:\n      mload(0x40)\n      tag_48\n      swap2\n      swap1\n      tag_26\n      jump\t// in\n    tag_48:\n      mload(0x40)\n      dup1\n      swap2\n      sub\n      swap1\n      return\n        /* \"eth based/truffle/contracts/FLIR_Contract.sol\":1367:1482  function getProsumerTariff(uint Pexp) public returns (uint Tp){... */\n    tag_8:\n      callvalue\n      dup1\n      iszero\n      tag_49\n      jumpi\n      0x00\n      dup1\n      revert\n    tag_49:\n      pop\n      tag_50\n      0x04\n      dup1\n      calldatasize\n      sub\n      dup2\n      add\n      swap1\n      tag_51\n      swap2\n      swap1\n      tag_52\n      jump\t// in\n    tag_51:\n      tag_53\n      jump\t// in\n    tag_50:\n      mload(0x40)\n      tag_54\n      swap2\n      swap1\n      tag_26\n      jump\t// in\n    tag_54:\n      mload(0x40)\n      dup1\n      swap2\n      sub\n      swap1\n      return\n        /* \"eth based/truffle/contracts/FLIR_Contract.sol\":1488:2478  function getConsumerTariff(uint Cimp) public returns (uint Tc){... */\n    tag_9:\n      callvalue\n      dup1\n      iszero\n      tag_55\n      jumpi\n      0x00\n      dup1\n      revert\n    tag_55:\n      pop\n      tag_56\n      0x04\n      dup1\n      calldatasize\n      sub\n      dup2\n      add\n      swap1\n      tag_57\n      swap2\n      swap1\n      tag_52\n      jump\t// in\n    tag_57:\n      tag_58\n      jump\t// in\n    tag_56:\n      mload(0x40)\n      tag_59\n      swap2\n      swap1\n      tag_26\n      jump\t// in\n    tag_59:\n      mload(0x40)\n      dup1\n      swap2\n      sub\n      swap1\n      return\n        /* \"eth based/truffle/contracts/FLIR_Contract.sol\":2688:2756  function balCheck() public payable {... */\n    tag_10:\n      tag_60\n      tag_61\n      jump\t// in\n    tag_60:\n      stop\n        /* \"eth based/truffle/contracts/FLIR_Contract.sol\":1003:1024  uint public btc8 = 10 */\n    tag_11:\n      callvalue\n      dup1\n      iszero\n      tag_62\n      jumpi\n      0x00\n      dup1\n      revert\n    tag_62:\n      pop\n      tag_63\n      tag_64\n      jump\t// in\n    tag_63:\n      mload(0x40)\n      tag_65\n      swap2\n      swap1\n      tag_26\n      jump\t// in\n    tag_65:\n      mload(0x40)\n      dup1\n      swap2\n      sub\n      swap1\n      return\n        /* \"eth based/truffle/contracts/FLIR_Contract.sol\":951:971  uint public btc6 = 8 */\n    tag_12:\n      callvalue\n      dup1\n      iszero\n      tag_66\n      jumpi\n      0x00\n      dup1\n      revert\n    tag_66:\n      pop\n      tag_67\n      tag_68\n      jump\t// in\n    tag_67:\n      mload(0x40)\n      tag_69\n      swap2\n      swap1\n      tag_26\n      jump\t// in\n    tag_69:\n      mload(0x40)\n      dup1\n      swap2\n      sub\n      swap1\n      return\n        /* \"eth based/truffle/contracts/FLIR_Contract.sol\":634:657  uint public balance = 0 */\n    tag_13:\n      callvalue\n      dup1\n      iszero\n      tag_70\n      jumpi\n      0x00\n      dup1\n      revert\n    tag_70:\n      pop\n      tag_71\n      tag_72\n      jump\t// in\n    tag_71:\n      mload(0x40)\n      tag_73\n      swap2\n      swap1\n      tag_26\n      jump\t// in\n    tag_73:\n      mload(0x40)\n      dup1\n      swap2\n      sub\n      swap1\n      return\n        /* \"eth based/truffle/contracts/FLIR_Contract.sol\":821:841  uint public btc1 = 3 */\n    tag_14:\n      callvalue\n      dup1\n      iszero\n      tag_74\n      jumpi\n      0x00\n      dup1\n      revert\n    tag_74:\n      pop\n      tag_75\n      tag_76\n      jump\t// in\n    tag_75:\n      mload(0x40)\n      tag_77\n      swap2\n      swap1\n      tag_26\n      jump\t// in\n    tag_77:\n      mload(0x40)\n      dup1\n      swap2\n      sub\n      swap1\n      return\n        /* \"eth based/truffle/contracts/FLIR_Contract.sol\":2484:2682  function send(address payable _receiver, uint amount) payable public {... */\n    tag_15:\n      tag_78\n      0x04\n      dup1\n      calldatasize\n      sub\n      dup2\n      add\n      swap1\n      tag_79\n      swap2\n      swap1\n      tag_80\n      jump\t// in\n    tag_79:\n      tag_81\n      jump\t// in\n    tag_78:\n      stop\n        /* \"eth based/truffle/contracts/FLIR_Contract.sol\":977:997  uint public btc7 = 9 */\n    tag_16:\n      callvalue\n      dup1\n      iszero\n      tag_82\n      jumpi\n      0x00\n      dup1\n      revert\n    tag_82:\n      pop\n      tag_83\n      tag_84\n      jump\t// in\n    tag_83:\n      mload(0x40)\n      tag_85\n      swap2\n      swap1\n      tag_26\n      jump\t// in\n    tag_85:\n      mload(0x40)\n      dup1\n      swap2\n      sub\n      swap1\n      return\n        /* \"eth based/truffle/contracts/FLIR_Contract.sol\":1038:1361  function getnPnCnEV(uint nPget, uint nCget,uint nEVget) public... */\n    tag_17:\n      callvalue\n      dup1\n      iszero\n      tag_86\n      jumpi\n      0x00\n      dup1\n      revert\n    tag_86:\n      pop\n      tag_87\n      0x04\n      dup1\n      calldatasize\n      sub\n      dup2\n      add\n      swap1\n      tag_88\n      swap2\n      swap1\n      tag_89\n      jump\t// in\n    tag_88:\n      tag_90\n      jump\t// in\n    tag_87:\n      mload(0x40)\n      tag_91\n      swap4\n      swap3\n      swap2\n      swap1\n      tag_92\n      jump\t// in\n    tag_91:\n      mload(0x40)\n      dup1\n      swap2\n      sub\n      swap1\n      return\n        /* \"eth based/truffle/contracts/FLIR_Contract.sol\":2762:2876  function getBalance(address _balanceCheck) public returns (uint bal){... */\n    tag_18:\n      callvalue\n      dup1\n      iszero\n      tag_93\n      jumpi\n      0x00\n      dup1\n      revert\n    tag_93:\n      pop\n      tag_94\n      0x04\n      dup1\n      calldatasize\n      sub\n      dup2\n      add\n      swap1\n      tag_95\n      swap2\n      swap1\n      tag_38\n      jump\t// in\n    tag_95:\n      tag_96\n      jump\t// in\n    tag_94:\n      mload(0x40)\n      tag_97\n      swap2\n      swap1\n      tag_26\n      jump\t// in\n    tag_97:\n      mload(0x40)\n      dup1\n      swap2\n      sub\n      swap1\n      return\n        /* \"eth based/truffle/contracts/FLIR_Contract.sol\":925:945  uint public btc5 = 7 */\n    tag_24:\n      sload(0x08)\n      dup2\n      jump\t// out\n        /* \"eth based/truffle/contracts/FLIR_Contract.sol\":899:919  uint public btc4 = 6 */\n    tag_29:\n      sload(0x07)\n      dup2\n      jump\t// out\n        /* \"eth based/truffle/contracts/FLIR_Contract.sol\":873:893  uint public btc3 = 5 */\n    tag_33:\n      sload(0x06)\n      dup2\n      jump\t// out\n        /* \"eth based/truffle/contracts/FLIR_Contract.sol\":175:215  mapping(address => uint) public balances */\n    tag_39:\n      mstore(0x20, 0x01)\n      dup1\n      0x00\n      mstore\n      keccak256(0x00, 0x40)\n      0x00\n      swap2\n      pop\n      swap1\n      pop\n      sload\n      dup2\n      jump\t// out\n        /* \"eth based/truffle/contracts/FLIR_Contract.sol\":847:867  uint public btc2 = 4 */\n    tag_43:\n      sload(0x05)\n      dup2\n      jump\t// out\n        /* \"eth based/truffle/contracts/FLIR_Contract.sol\":795:814  uint public btp = 3 */\n    tag_47:\n      sload(0x03)\n      dup2\n      jump\t// out\n        /* \"eth based/truffle/contracts/FLIR_Contract.sol\":1367:1482  function getProsumerTariff(uint Pexp) public returns (uint Tp){... */\n    tag_53:\n        /* \"eth based/truffle/contracts/FLIR_Contract.sol\":1421:1428  uint Tp */\n      0x00\n        /* \"eth based/truffle/contracts/FLIR_Contract.sol\":1451:1454  btp */\n      sload(0x03)\n        /* \"eth based/truffle/contracts/FLIR_Contract.sol\":1444:1448  Pexp */\n      dup3\n        /* \"eth based/truffle/contracts/FLIR_Contract.sol\":1444:1454  Pexp * btp */\n      tag_99\n      swap2\n      swap1\n      tag_100\n      jump\t// in\n    tag_99:\n        /* \"eth based/truffle/contracts/FLIR_Contract.sol\":1439:1454  Tp = Pexp * btp */\n      swap1\n      pop\n        /* \"eth based/truffle/contracts/FLIR_Contract.sol\":1367:1482  function getProsumerTariff(uint Pexp) public returns (uint Tp){... */\n      swap2\n      swap1\n      pop\n      jump\t// out\n        /* \"eth based/truffle/contracts/FLIR_Contract.sol\":1488:2478  function getConsumerTariff(uint Cimp) public returns (uint Tc){... */\n    tag_58:\n        /* \"eth based/truffle/contracts/FLIR_Contract.sol\":1542:1549  uint Tc */\n      0x00\n        /* \"eth based/truffle/contracts/FLIR_Contract.sol\":1579:1582  251 */\n      0xfb\n        /* \"eth based/truffle/contracts/FLIR_Contract.sol\":1572:1576  Cimp */\n      dup3\n        /* \"eth based/truffle/contracts/FLIR_Contract.sol\":1572:1582  Cimp < 251 */\n      lt\n        /* \"eth based/truffle/contracts/FLIR_Contract.sol\":1569:2451  if(Cimp < 251){... */\n      iszero\n      tag_102\n      jumpi\n        /* \"eth based/truffle/contracts/FLIR_Contract.sol\":1607:1609  51 */\n      0x33\n        /* \"eth based/truffle/contracts/FLIR_Contract.sol\":1600:1604  Cimp */\n      dup3\n        /* \"eth based/truffle/contracts/FLIR_Contract.sol\":1600:1609  Cimp < 51 */\n      lt\n        /* \"eth based/truffle/contracts/FLIR_Contract.sol\":1597:2206  if(Cimp < 51){... */\n      iszero\n      tag_103\n      jumpi\n        /* \"eth based/truffle/contracts/FLIR_Contract.sol\":1640:1644  btc1 */\n      sload(0x04)\n        /* \"eth based/truffle/contracts/FLIR_Contract.sol\":1633:1637  Cimp */\n      dup3\n        /* \"eth based/truffle/contracts/FLIR_Contract.sol\":1633:1644  Cimp * btc1 */\n      tag_104\n      swap2\n      swap1\n      tag_100\n      jump\t// in\n    tag_104:\n        /* \"eth based/truffle/contracts/FLIR_Contract.sol\":1628:1644  Tc = Cimp * btc1 */\n      swap1\n      pop\n        /* \"eth based/truffle/contracts/FLIR_Contract.sol\":1597:2206  if(Cimp < 51){... */\n      jump(tag_105)\n    tag_103:\n        /* \"eth based/truffle/contracts/FLIR_Contract.sol\":1687:1689  50 */\n      0x32\n        /* \"eth based/truffle/contracts/FLIR_Contract.sol\":1680:1684  Cimp */\n      dup3\n        /* \"eth based/truffle/contracts/FLIR_Contract.sol\":1680:1689  Cimp > 50 */\n      gt\n        /* \"eth based/truffle/contracts/FLIR_Contract.sol\":1680:1703  Cimp > 50 && Cimp < 101 */\n      dup1\n      iszero\n      tag_106\n      jumpi\n      pop\n        /* \"eth based/truffle/contracts/FLIR_Contract.sol\":1700:1703  101 */\n      0x65\n        /* \"eth based/truffle/contracts/FLIR_Contract.sol\":1693:1697  Cimp */\n      dup3\n        /* \"eth based/truffle/contracts/FLIR_Contract.sol\":1693:1703  Cimp < 101 */\n      lt\n        /* \"eth based/truffle/contracts/FLIR_Contract.sol\":1680:1703  Cimp > 50 && Cimp < 101 */\n    tag_106:\n        /* \"eth based/truffle/contracts/FLIR_Contract.sol\":1677:2206  if(Cimp > 50 && Cimp < 101){... */\n      iszero\n      tag_107\n      jumpi\n        /* \"eth based/truffle/contracts/FLIR_Contract.sol\":1754:1758  btc2 */\n      sload(0x05)\n        /* \"eth based/truffle/contracts/FLIR_Contract.sol\":1748:1750  50 */\n      0x32\n        /* \"eth based/truffle/contracts/FLIR_Contract.sol\":1743:1747  Cimp */\n      dup4\n        /* \"eth based/truffle/contracts/FLIR_Contract.sol\":1743:1750  Cimp-50 */\n      tag_108\n      swap2\n      swap1\n      tag_109\n      jump\t// in\n    tag_108:\n        /* \"eth based/truffle/contracts/FLIR_Contract.sol\":1742:1758  (Cimp-50) * btc2 */\n      tag_110\n      swap2\n      swap1\n      tag_100\n      jump\t// in\n    tag_110:\n        /* \"eth based/truffle/contracts/FLIR_Contract.sol\":1733:1737  btc1 */\n      sload(0x04)\n        /* \"eth based/truffle/contracts/FLIR_Contract.sol\":1728:1730  50 */\n      0x32\n        /* \"eth based/truffle/contracts/FLIR_Contract.sol\":1728:1737  50 * btc1 */\n      tag_111\n      swap2\n      swap1\n      tag_100\n      jump\t// in\n    tag_111:\n        /* \"eth based/truffle/contracts/FLIR_Contract.sol\":1727:1759  (50 * btc1) + ((Cimp-50) * btc2) */\n      tag_112\n      swap2\n      swap1\n      tag_113\n      jump\t// in\n    tag_112:\n        /* \"eth based/truffle/contracts/FLIR_Contract.sol\":1722:1759  Tc = (50 * btc1) + ((Cimp-50) * btc2) */\n      swap1\n      pop\n        /* \"eth based/truffle/contracts/FLIR_Contract.sol\":1677:2206  if(Cimp > 50 && Cimp < 101){... */\n      jump(tag_114)\n    tag_107:\n        /* \"eth based/truffle/contracts/FLIR_Contract.sol\":1802:1805  100 */\n      0x64\n        /* \"eth based/truffle/contracts/FLIR_Contract.sol\":1795:1799  Cimp */\n      dup3\n        /* \"eth based/truffle/contracts/FLIR_Contract.sol\":1795:1805  Cimp > 100 */\n      gt\n        /* \"eth based/truffle/contracts/FLIR_Contract.sol\":1795:1819  Cimp > 100 && Cimp < 151 */\n      dup1\n      iszero\n      tag_115\n      jumpi\n      pop\n        /* \"eth based/truffle/contracts/FLIR_Contract.sol\":1816:1819  151 */\n      0x97\n        /* \"eth based/truffle/contracts/FLIR_Contract.sol\":1809:1813  Cimp */\n      dup3\n        /* \"eth based/truffle/contracts/FLIR_Contract.sol\":1809:1819  Cimp < 151 */\n      lt\n        /* \"eth based/truffle/contracts/FLIR_Contract.sol\":1795:1819  Cimp > 100 && Cimp < 151 */\n    tag_115:\n        /* \"eth based/truffle/contracts/FLIR_Contract.sol\":1792:2206  if(Cimp > 100 && Cimp < 151){... */\n      iszero\n      tag_116\n      jumpi\n        /* \"eth based/truffle/contracts/FLIR_Contract.sol\":1884:1888  btc3 */\n      sload(0x06)\n        /* \"eth based/truffle/contracts/FLIR_Contract.sol\":1878:1880  50 */\n      0x32\n        /* \"eth based/truffle/contracts/FLIR_Contract.sol\":1873:1877  Cimp */\n      dup4\n        /* \"eth based/truffle/contracts/FLIR_Contract.sol\":1873:1880  Cimp-50 */\n      tag_117\n      swap2\n      swap1\n      tag_109\n      jump\t// in\n    tag_117:\n        /* \"eth based/truffle/contracts/FLIR_Contract.sol\":1872:1888  (Cimp-50) * btc3 */\n      tag_118\n      swap2\n      swap1\n      tag_100\n      jump\t// in\n    tag_118:\n        /* \"eth based/truffle/contracts/FLIR_Contract.sol\":1863:1867  btc2 */\n      sload(0x05)\n        /* \"eth based/truffle/contracts/FLIR_Contract.sol\":1858:1860  50 */\n      0x32\n        /* \"eth based/truffle/contracts/FLIR_Contract.sol\":1858:1867  50 * btc2 */\n      tag_119\n      swap2\n      swap1\n      tag_100\n      jump\t// in\n    tag_119:\n        /* \"eth based/truffle/contracts/FLIR_Contract.sol\":1849:1853  btc1 */\n      sload(0x04)\n        /* \"eth based/truffle/contracts/FLIR_Contract.sol\":1844:1846  50 */\n      0x32\n        /* \"eth based/truffle/contracts/FLIR_Contract.sol\":1844:1853  50 * btc1 */\n      tag_120\n      swap2\n      swap1\n      tag_100\n      jump\t// in\n    tag_120:\n        /* \"eth based/truffle/contracts/FLIR_Contract.sol\":1843:1868  (50 * btc1) + (50 * btc2) */\n      tag_121\n      swap2\n      swap1\n      tag_113\n      jump\t// in\n    tag_121:\n        /* \"eth based/truffle/contracts/FLIR_Contract.sol\":1843:1889  (50 * btc1) + (50 * btc2) + ((Cimp-50) * btc3) */\n      tag_122\n      swap2\n      swap1\n      tag_113\n      jump\t// in\n    tag_122:\n        /* \"eth based/truffle/contracts/FLIR_Contract.sol\":1838:1889  Tc = (50 * btc1) + (50 * btc2) + ((Cimp-50) * btc3) */\n      swap1\n      pop\n        /* \"eth based/truffle/contracts/FLIR_Contract.sol\":1792:2206  if(Cimp > 100 && Cimp < 151){... */\n      jump(tag_123)\n    tag_116:\n        /* \"eth based/truffle/contracts/FLIR_Contract.sol\":1932:1935  150 */\n      0x96\n        /* \"eth based/truffle/contracts/FLIR_Contract.sol\":1925:1929  Cimp */\n      dup3\n        /* \"eth based/truffle/contracts/FLIR_Contract.sol\":1925:1935  Cimp > 150 */\n      gt\n        /* \"eth based/truffle/contracts/FLIR_Contract.sol\":1925:1949  Cimp > 150 && Cimp < 201 */\n      dup1\n      iszero\n      tag_124\n      jumpi\n      pop\n        /* \"eth based/truffle/contracts/FLIR_Contract.sol\":1946:1949  201 */\n      0xc9\n        /* \"eth based/truffle/contracts/FLIR_Contract.sol\":1939:1943  Cimp */\n      dup3\n        /* \"eth based/truffle/contracts/FLIR_Contract.sol\":1939:1949  Cimp < 201 */\n      lt\n        /* \"eth based/truffle/contracts/FLIR_Contract.sol\":1925:1949  Cimp > 150 && Cimp < 201 */\n    tag_124:\n        /* \"eth based/truffle/contracts/FLIR_Contract.sol\":1922:2206  if(Cimp > 150 && Cimp < 201){... */\n      iszero\n      tag_125\n      jumpi\n        /* \"eth based/truffle/contracts/FLIR_Contract.sol\":2028:2032  btc4 */\n      sload(0x07)\n        /* \"eth based/truffle/contracts/FLIR_Contract.sol\":2022:2024  50 */\n      0x32\n        /* \"eth based/truffle/contracts/FLIR_Contract.sol\":2017:2021  Cimp */\n      dup4\n        /* \"eth based/truffle/contracts/FLIR_Contract.sol\":2017:2024  Cimp-50 */\n      tag_126\n      swap2\n      swap1\n      tag_109\n      jump\t// in\n    tag_126:\n        /* \"eth based/truffle/contracts/FLIR_Contract.sol\":2016:2032  (Cimp-50) * btc4 */\n      tag_127\n      swap2\n      swap1\n      tag_100\n      jump\t// in\n    tag_127:\n        /* \"eth based/truffle/contracts/FLIR_Contract.sol\":2007:2011  btc3 */\n      sload(0x06)\n        /* \"eth based/truffle/contracts/FLIR_Contract.sol\":2002:2004  50 */\n      0x32\n        /* \"eth based/truffle/contracts/FLIR_Contract.sol\":2002:2011  50 * btc3 */\n      tag_128\n      swap2\n      swap1\n      tag_100\n      jump\t// in\n    tag_128:\n        /* \"eth based/truffle/contracts/FLIR_Contract.sol\":1993:1997  btc2 */\n      sload(0x05)\n        /* \"eth based/truffle/contracts/FLIR_Contract.sol\":1988:1990  50 */\n      0x32\n        /* \"eth based/truffle/contracts/FLIR_Contract.sol\":1988:1997  50 * btc2 */\n      tag_129\n      swap2\n      swap1\n      tag_100\n      jump\t// in\n    tag_129:\n        /* \"eth based/truffle/contracts/FLIR_Contract.sol\":1979:1983  btc1 */\n      sload(0x04)\n        /* \"eth based/truffle/contracts/FLIR_Contract.sol\":1974:1976  50 */\n      0x32\n        /* \"eth based/truffle/contracts/FLIR_Contract.sol\":1974:1983  50 * btc1 */\n      tag_130\n      swap2\n      swap1\n      tag_100\n      jump\t// in\n    tag_130:\n        /* \"eth based/truffle/contracts/FLIR_Contract.sol\":1973:1998  (50 * btc1) + (50 * btc2) */\n      tag_131\n      swap2\n      swap1\n      tag_113\n      jump\t// in\n    tag_131:\n        /* \"eth based/truffle/contracts/FLIR_Contract.sol\":1973:2012  (50 * btc1) + (50 * btc2) + (50 * btc3) */\n      tag_132\n      swap2\n      swap1\n      tag_113\n      jump\t// in\n    tag_132:\n        /* \"eth based/truffle/contracts/FLIR_Contract.sol\":1973:2033  (50 * btc1) + (50 * btc2) + (50 * btc3) + ((Cimp-50) * btc4) */\n      tag_133\n      swap2\n      swap1\n      tag_113\n      jump\t// in\n    tag_133:\n        /* \"eth based/truffle/contracts/FLIR_Contract.sol\":1968:2033  Tc = (50 * btc1) + (50 * btc2) + (50 * btc3) + ((Cimp-50) * btc4) */\n      swap1\n      pop\n        /* \"eth based/truffle/contracts/FLIR_Contract.sol\":1922:2206  if(Cimp > 150 && Cimp < 201){... */\n      jump(tag_134)\n    tag_125:\n        /* \"eth based/truffle/contracts/FLIR_Contract.sol\":2076:2079  200 */\n      0xc8\n        /* \"eth based/truffle/contracts/FLIR_Contract.sol\":2069:2073  Cimp */\n      dup3\n        /* \"eth based/truffle/contracts/FLIR_Contract.sol\":2069:2079  Cimp > 200 */\n      gt\n        /* \"eth based/truffle/contracts/FLIR_Contract.sol\":2069:2093  Cimp > 200 && Cimp < 251 */\n      dup1\n      iszero\n      tag_135\n      jumpi\n      pop\n        /* \"eth based/truffle/contracts/FLIR_Contract.sol\":2090:2093  251 */\n      0xfb\n        /* \"eth based/truffle/contracts/FLIR_Contract.sol\":2083:2087  Cimp */\n      dup3\n        /* \"eth based/truffle/contracts/FLIR_Contract.sol\":2083:2093  Cimp < 251 */\n      lt\n        /* \"eth based/truffle/contracts/FLIR_Contract.sol\":2069:2093  Cimp > 200 && Cimp < 251 */\n    tag_135:\n        /* \"eth based/truffle/contracts/FLIR_Contract.sol\":2066:2206  if(Cimp > 200 && Cimp < 251){... */\n      iszero\n      tag_136\n      jumpi\n        /* \"eth based/truffle/contracts/FLIR_Contract.sol\":2186:2190  btc5 */\n      sload(0x08)\n        /* \"eth based/truffle/contracts/FLIR_Contract.sol\":2180:2182  50 */\n      0x32\n        /* \"eth based/truffle/contracts/FLIR_Contract.sol\":2175:2179  Cimp */\n      dup4\n        /* \"eth based/truffle/contracts/FLIR_Contract.sol\":2175:2182  Cimp-50 */\n      tag_137\n      swap2\n      swap1\n      tag_109\n      jump\t// in\n    tag_137:\n        /* \"eth based/truffle/contracts/FLIR_Contract.sol\":2174:2190  (Cimp-50) * btc5 */\n      tag_138\n      swap2\n      swap1\n      tag_100\n      jump\t// in\n    tag_138:\n        /* \"eth based/truffle/contracts/FLIR_Contract.sol\":2165:2169  btc4 */\n      sload(0x07)\n        /* \"eth based/truffle/contracts/FLIR_Contract.sol\":2160:2162  50 */\n      0x32\n        /* \"eth based/truffle/contracts/FLIR_Contract.sol\":2160:2169  50 * btc4 */\n      tag_139\n      swap2\n      swap1\n      tag_100\n      jump\t// in\n    tag_139:\n        /* \"eth based/truffle/contracts/FLIR_Contract.sol\":2151:2155  btc3 */\n      sload(0x06)\n        /* \"eth based/truffle/contracts/FLIR_Contract.sol\":2146:2148  50 */\n      0x32\n        /* \"eth based/truffle/contracts/FLIR_Contract.sol\":2146:2155  50 * btc3 */\n      tag_140\n      swap2\n      swap1\n      tag_100\n      jump\t// in\n    tag_140:\n        /* \"eth based/truffle/contracts/FLIR_Contract.sol\":2137:2141  btc2 */\n      sload(0x05)\n        /* \"eth based/truffle/contracts/FLIR_Contract.sol\":2132:2134  50 */\n      0x32\n        /* \"eth based/truffle/contracts/FLIR_Contract.sol\":2132:2141  50 * btc2 */\n      tag_141\n      swap2\n      swap1\n      tag_100\n      jump\t// in\n    tag_141:\n        /* \"eth based/truffle/contracts/FLIR_Contract.sol\":2123:2127  btc1 */\n      sload(0x04)\n        /* \"eth based/truffle/contracts/FLIR_Contract.sol\":2118:2120  50 */\n      0x32\n        /* \"eth based/truffle/contracts/FLIR_Contract.sol\":2118:2127  50 * btc1 */\n      tag_142\n      swap2\n      swap1\n      tag_100\n      jump\t// in\n    tag_142:\n        /* \"eth based/truffle/contracts/FLIR_Contract.sol\":2117:2142  (50 * btc1) + (50 * btc2) */\n      tag_143\n      swap2\n      swap1\n      tag_113\n      jump\t// in\n    tag_143:\n        /* \"eth based/truffle/contracts/FLIR_Contract.sol\":2117:2156  (50 * btc1) + (50 * btc2) + (50 * btc3) */\n      tag_144\n      swap2\n      swap1\n      tag_113\n      jump\t// in\n    tag_144:\n        /* \"eth based/truffle/contracts/FLIR_Contract.sol\":2117:2170  (50 * btc1) + (50 * btc2) + (50 * btc3) + (50 * btc4) */\n      tag_145\n      swap2\n      swap1\n      tag_113\n      jump\t// in\n    tag_145:\n        /* \"eth based/truffle/contracts/FLIR_Contract.sol\":2117:2191  (50 * btc1) + (50 * btc2) + (50 * btc3) + (50 * btc4) + ((Cimp-50) * btc5) */\n      tag_146\n      swap2\n      swap1\n      tag_113\n      jump\t// in\n    tag_146:\n        /* \"eth based/truffle/contracts/FLIR_Contract.sol\":2112:2191  Tc = (50 * btc1) + (50 * btc2) + (50 * btc3) + (50 * btc4) + ((Cimp-50) * btc5) */\n      swap1\n      pop\n        /* \"eth based/truffle/contracts/FLIR_Contract.sol\":2066:2206  if(Cimp > 200 && Cimp < 251){... */\n    tag_136:\n        /* \"eth based/truffle/contracts/FLIR_Contract.sol\":1922:2206  if(Cimp > 150 && Cimp < 201){... */\n    tag_134:\n        /* \"eth based/truffle/contracts/FLIR_Contract.sol\":1792:2206  if(Cimp > 100 && Cimp < 151){... */\n    tag_123:\n        /* \"eth based/truffle/contracts/FLIR_Contract.sol\":1677:2206  if(Cimp > 50 && Cimp < 101){... */\n    tag_114:\n        /* \"eth based/truffle/contracts/FLIR_Contract.sol\":1597:2206  if(Cimp < 51){... */\n    tag_105:\n        /* \"eth based/truffle/contracts/FLIR_Contract.sol\":1569:2451  if(Cimp < 251){... */\n      jump(tag_147)\n    tag_102:\n        /* \"eth based/truffle/contracts/FLIR_Contract.sol\":2240:2243  250 */\n      0xfa\n        /* \"eth based/truffle/contracts/FLIR_Contract.sol\":2233:2237  Cimp */\n      dup3\n        /* \"eth based/truffle/contracts/FLIR_Contract.sol\":2233:2243  Cimp > 250 */\n      gt\n        /* \"eth based/truffle/contracts/FLIR_Contract.sol\":2233:2257  Cimp > 250 && Cimp < 351 */\n      dup1\n      iszero\n      tag_148\n      jumpi\n      pop\n        /* \"eth based/truffle/contracts/FLIR_Contract.sol\":2254:2257  351 */\n      0x015f\n        /* \"eth based/truffle/contracts/FLIR_Contract.sol\":2247:2251  Cimp */\n      dup3\n        /* \"eth based/truffle/contracts/FLIR_Contract.sol\":2247:2257  Cimp < 351 */\n      lt\n        /* \"eth based/truffle/contracts/FLIR_Contract.sol\":2233:2257  Cimp > 250 && Cimp < 351 */\n    tag_148:\n        /* \"eth based/truffle/contracts/FLIR_Contract.sol\":2230:2451  if(Cimp > 250 && Cimp < 351){... */\n      iszero\n      tag_149\n      jumpi\n        /* \"eth based/truffle/contracts/FLIR_Contract.sol\":2284:2288  btc6 */\n      sload(0x09)\n        /* \"eth based/truffle/contracts/FLIR_Contract.sol\":2277:2281  Cimp */\n      dup3\n        /* \"eth based/truffle/contracts/FLIR_Contract.sol\":2277:2288  Cimp * btc6 */\n      tag_150\n      swap2\n      swap1\n      tag_100\n      jump\t// in\n    tag_150:\n        /* \"eth based/truffle/contracts/FLIR_Contract.sol\":2272:2288  Tc = Cimp * btc6 */\n      swap1\n      pop\n        /* \"eth based/truffle/contracts/FLIR_Contract.sol\":2230:2451  if(Cimp > 250 && Cimp < 351){... */\n      jump(tag_151)\n    tag_149:\n        /* \"eth based/truffle/contracts/FLIR_Contract.sol\":2323:2326  350 */\n      0x015e\n        /* \"eth based/truffle/contracts/FLIR_Contract.sol\":2316:2320  Cimp */\n      dup3\n        /* \"eth based/truffle/contracts/FLIR_Contract.sol\":2316:2326  Cimp > 350 */\n      gt\n        /* \"eth based/truffle/contracts/FLIR_Contract.sol\":2316:2340  Cimp > 350 && Cimp < 451 */\n      dup1\n      iszero\n      tag_152\n      jumpi\n      pop\n        /* \"eth based/truffle/contracts/FLIR_Contract.sol\":2337:2340  451 */\n      0x01c3\n        /* \"eth based/truffle/contracts/FLIR_Contract.sol\":2330:2334  Cimp */\n      dup3\n        /* \"eth based/truffle/contracts/FLIR_Contract.sol\":2330:2340  Cimp < 451 */\n      lt\n        /* \"eth based/truffle/contracts/FLIR_Contract.sol\":2316:2340  Cimp > 350 && Cimp < 451 */\n    tag_152:\n        /* \"eth based/truffle/contracts/FLIR_Contract.sol\":2313:2451  if(Cimp > 350 && Cimp < 451){... */\n      iszero\n      tag_153\n      jumpi\n        /* \"eth based/truffle/contracts/FLIR_Contract.sol\":2367:2371  btc7 */\n      sload(0x0a)\n        /* \"eth based/truffle/contracts/FLIR_Contract.sol\":2360:2364  Cimp */\n      dup3\n        /* \"eth based/truffle/contracts/FLIR_Contract.sol\":2360:2371  Cimp * btc7 */\n      tag_154\n      swap2\n      swap1\n      tag_100\n      jump\t// in\n    tag_154:\n        /* \"eth based/truffle/contracts/FLIR_Contract.sol\":2355:2371  Tc = Cimp * btc7 */\n      swap1\n      pop\n        /* \"eth based/truffle/contracts/FLIR_Contract.sol\":2313:2451  if(Cimp > 350 && Cimp < 451){... */\n      jump(tag_155)\n    tag_153:\n        /* \"eth based/truffle/contracts/FLIR_Contract.sol\":2406:2409  450 */\n      0x01c2\n        /* \"eth based/truffle/contracts/FLIR_Contract.sol\":2399:2403  Cimp */\n      dup3\n        /* \"eth based/truffle/contracts/FLIR_Contract.sol\":2399:2409  Cimp > 450 */\n      gt\n        /* \"eth based/truffle/contracts/FLIR_Contract.sol\":2396:2451  if(Cimp > 450){... */\n      iszero\n      tag_156\n      jumpi\n        /* \"eth based/truffle/contracts/FLIR_Contract.sol\":2436:2440  btc8 */\n      sload(0x0b)\n        /* \"eth based/truffle/contracts/FLIR_Contract.sol\":2429:2433  Cimp */\n      dup3\n        /* \"eth based/truffle/contracts/FLIR_Contract.sol\":2429:2440  Cimp * btc8 */\n      tag_157\n      swap2\n      swap1\n      tag_100\n      jump\t// in\n    tag_157:\n        /* \"eth based/truffle/contracts/FLIR_Contract.sol\":2424:2440  Tc = Cimp * btc8 */\n      swap1\n      pop\n        /* \"eth based/truffle/contracts/FLIR_Contract.sol\":2396:2451  if(Cimp > 450){... */\n    tag_156:\n        /* \"eth based/truffle/contracts/FLIR_Contract.sol\":2313:2451  if(Cimp > 350 && Cimp < 451){... */\n    tag_155:\n        /* \"eth based/truffle/contracts/FLIR_Contract.sol\":2230:2451  if(Cimp > 250 && Cimp < 351){... */\n    tag_151:\n        /* \"eth based/truffle/contracts/FLIR_Contract.sol\":1569:2451  if(Cimp < 251){... */\n    tag_147:\n        /* \"eth based/truffle/contracts/FLIR_Contract.sol\":1488:2478  function getConsumerTariff(uint Cimp) public returns (uint Tc){... */\n      swap2\n      swap1\n      pop\n      jump\t// out\n        /* \"eth based/truffle/contracts/FLIR_Contract.sol\":2688:2756  function balCheck() public payable {... */\n    tag_61:\n        /* \"eth based/truffle/contracts/FLIR_Contract.sol\":2740:2749  msg.value */\n      callvalue\n        /* \"eth based/truffle/contracts/FLIR_Contract.sol\":2729:2736  balance */\n      0x02\n      0x00\n        /* \"eth based/truffle/contracts/FLIR_Contract.sol\":2729:2749  balance += msg.value */\n      dup3\n      dup3\n      sload\n      tag_159\n      swap2\n      swap1\n      tag_113\n      jump\t// in\n    tag_159:\n      swap3\n      pop\n      pop\n      dup2\n      swap1\n      sstore\n      pop\n        /* \"eth based/truffle/contracts/FLIR_Contract.sol\":2688:2756  function balCheck() public payable {... */\n      jump\t// out\n        /* \"eth based/truffle/contracts/FLIR_Contract.sol\":1003:1024  uint public btc8 = 10 */\n    tag_64:\n      sload(0x0b)\n      dup2\n      jump\t// out\n        /* \"eth based/truffle/contracts/FLIR_Contract.sol\":951:971  uint public btc6 = 8 */\n    tag_68:\n      sload(0x09)\n      dup2\n      jump\t// out\n        /* \"eth based/truffle/contracts/FLIR_Contract.sol\":634:657  uint public balance = 0 */\n    tag_72:\n      sload(0x02)\n      dup2\n      jump\t// out\n        /* \"eth based/truffle/contracts/FLIR_Contract.sol\":821:841  uint public btc1 = 3 */\n    tag_76:\n      sload(0x04)\n      dup2\n      jump\t// out\n        /* \"eth based/truffle/contracts/FLIR_Contract.sol\":2484:2682  function send(address payable _receiver, uint amount) payable public {... */\n    tag_81:\n        /* \"eth based/truffle/contracts/FLIR_Contract.sol\":2649:2658  _receiver */\n      dup2\n        /* \"eth based/truffle/contracts/FLIR_Contract.sol\":2649:2667  _receiver.transfer */\n      0xffffffffffffffffffffffffffffffffffffffff\n      and\n        /* \"eth based/truffle/contracts/FLIR_Contract.sol\":2649:2675  _receiver.transfer(amount) */\n      0x08fc\n        /* \"eth based/truffle/contracts/FLIR_Contract.sol\":2668:2674  amount */\n      dup3\n        /* \"eth based/truffle/contracts/FLIR_Contract.sol\":2649:2675  _receiver.transfer(amount) */\n      swap1\n      dup2\n      iszero\n      mul\n      swap1\n      mload(0x40)\n      0x00\n      mload(0x40)\n      dup1\n      dup4\n      sub\n      dup2\n      dup6\n      dup9\n      dup9\n      call\n      swap4\n      pop\n      pop\n      pop\n      pop\n      iszero\n      dup1\n      iszero\n      tag_162\n      jumpi\n      returndatasize\n      0x00\n      dup1\n      returndatacopy\n      revert(0x00, returndatasize)\n    tag_162:\n      pop\n        /* \"eth based/truffle/contracts/FLIR_Contract.sol\":2484:2682  function send(address payable _receiver, uint amount) payable public {... */\n      pop\n      pop\n      jump\t// out\n        /* \"eth based/truffle/contracts/FLIR_Contract.sol\":977:997  uint public btc7 = 9 */\n    tag_84:\n      sload(0x0a)\n      dup2\n      jump\t// out\n        /* \"eth based/truffle/contracts/FLIR_Contract.sol\":1038:1361  function getnPnCnEV(uint nPget, uint nCget,uint nEVget) public... */\n    tag_90:\n        /* \"eth based/truffle/contracts/FLIR_Contract.sol\":1114:1121  uint nP */\n      0x00\n        /* \"eth based/truffle/contracts/FLIR_Contract.sol\":1122:1129  uint nC */\n      dup1\n        /* \"eth based/truffle/contracts/FLIR_Contract.sol\":1130:1138  uint nEV */\n      0x00\n        /* \"eth based/truffle/contracts/FLIR_Contract.sol\":1163:1168  nPget */\n      dup6\n        /* \"eth based/truffle/contracts/FLIR_Contract.sol\":1158:1168  nP = nPget */\n      swap3\n      pop\n        /* \"eth based/truffle/contracts/FLIR_Contract.sol\":1183:1188  nCget */\n      dup5\n        /* \"eth based/truffle/contracts/FLIR_Contract.sol\":1178:1188  nC = nCget */\n      swap2\n      pop\n        /* \"eth based/truffle/contracts/FLIR_Contract.sol\":1204:1210  nEVget */\n      dup4\n        /* \"eth based/truffle/contracts/FLIR_Contract.sol\":1198:1210  nEV = nEVget */\n      swap1\n      pop\n        /* \"eth based/truffle/contracts/FLIR_Contract.sol\":1038:1361  function getnPnCnEV(uint nPget, uint nCget,uint nEVget) public... */\n      swap4\n      pop\n      swap4\n      pop\n      swap4\n      swap1\n      pop\n      jump\t// out\n        /* \"eth based/truffle/contracts/FLIR_Contract.sol\":2762:2876  function getBalance(address _balanceCheck) public returns (uint bal){... */\n    tag_96:\n        /* \"eth based/truffle/contracts/FLIR_Contract.sol\":2821:2829  uint bal */\n      0x00\n        /* \"eth based/truffle/contracts/FLIR_Contract.sol\":2847:2860  _balanceCheck */\n      dup2\n        /* \"eth based/truffle/contracts/FLIR_Contract.sol\":2847:2868  _balanceCheck.balance */\n      0xffffffffffffffffffffffffffffffffffffffff\n      and\n      balance\n        /* \"eth based/truffle/contracts/FLIR_Contract.sol\":2840:2868  return _balanceCheck.balance */\n      swap1\n      pop\n        /* \"eth based/truffle/contracts/FLIR_Contract.sol\":2762:2876  function getBalance(address _balanceCheck) public returns (uint bal){... */\n      swap2\n      swap1\n      pop\n      jump\t// out\n        /* \"#utility.yul\":7:146   */\n    tag_166:\n        /* \"#utility.yul\":53:58   */\n      0x00\n        /* \"#utility.yul\":91:97   */\n      dup2\n        /* \"#utility.yul\":78:98   */\n      calldataload\n        /* \"#utility.yul\":69:98   */\n      swap1\n      pop\n        /* \"#utility.yul\":107:140   */\n      tag_168\n        /* \"#utility.yul\":134:139   */\n      dup2\n        /* \"#utility.yul\":107:140   */\n      tag_169\n      jump\t// in\n    tag_168:\n        /* \"#utility.yul\":7:146   */\n      swap3\n      swap2\n      pop\n      pop\n      jump\t// out\n        /* \"#utility.yul\":152:307   */\n    tag_170:\n        /* \"#utility.yul\":206:211   */\n      0x00\n        /* \"#utility.yul\":244:250   */\n      dup2\n        /* \"#utility.yul\":231:251   */\n      calldataload\n        /* \"#utility.yul\":222:251   */\n      swap1\n      pop\n        /* \"#utility.yul\":260:301   */\n      tag_172\n        /* \"#utility.yul\":295:300   */\n      dup2\n        /* \"#utility.yul\":260:301   */\n      tag_173\n      jump\t// in\n    tag_172:\n        /* \"#utility.yul\":152:307   */\n      swap3\n      swap2\n      pop\n      pop\n      jump\t// out\n        /* \"#utility.yul\":313:452   */\n    tag_174:\n        /* \"#utility.yul\":359:364   */\n      0x00\n        /* \"#utility.yul\":397:403   */\n      dup2\n        /* \"#utility.yul\":384:404   */\n      calldataload\n        /* \"#utility.yul\":375:404   */\n      swap1\n      pop\n        /* \"#utility.yul\":413:446   */\n      tag_176\n        /* \"#utility.yul\":440:445   */\n      dup2\n        /* \"#utility.yul\":413:446   */\n      tag_177\n      jump\t// in\n    tag_176:\n        /* \"#utility.yul\":313:452   */\n      swap3\n      swap2\n      pop\n      pop\n      jump\t// out\n        /* \"#utility.yul\":458:787   */\n    tag_38:\n        /* \"#utility.yul\":517:523   */\n      0x00\n        /* \"#utility.yul\":566:568   */\n      0x20\n        /* \"#utility.yul\":554:563   */\n      dup3\n        /* \"#utility.yul\":545:552   */\n      dup5\n        /* \"#utility.yul\":541:564   */\n      sub\n        /* \"#utility.yul\":537:569   */\n      slt\n        /* \"#utility.yul\":534:653   */\n      iszero\n      tag_179\n      jumpi\n        /* \"#utility.yul\":572:651   */\n      tag_180\n      tag_181\n      jump\t// in\n    tag_180:\n        /* \"#utility.yul\":534:653   */\n    tag_179:\n        /* \"#utility.yul\":692:693   */\n      0x00\n        /* \"#utility.yul\":717:770   */\n      tag_182\n        /* \"#utility.yul\":762:769   */\n      dup5\n        /* \"#utility.yul\":753:759   */\n      dup3\n        /* \"#utility.yul\":742:751   */\n      dup6\n        /* \"#utility.yul\":738:760   */\n      add\n        /* \"#utility.yul\":717:770   */\n      tag_166\n      jump\t// in\n    tag_182:\n        /* \"#utility.yul\":707:770   */\n      swap2\n      pop\n        /* \"#utility.yul\":663:780   */\n      pop\n        /* \"#utility.yul\":458:787   */\n      swap3\n      swap2\n      pop\n      pop\n      jump\t// out\n        /* \"#utility.yul\":793:1283   */\n    tag_80:\n        /* \"#utility.yul\":869:875   */\n      0x00\n        /* \"#utility.yul\":877:883   */\n      dup1\n        /* \"#utility.yul\":926:928   */\n      0x40\n        /* \"#utility.yul\":914:923   */\n      dup4\n        /* \"#utility.yul\":905:912   */\n      dup6\n        /* \"#utility.yul\":901:924   */\n      sub\n        /* \"#utility.yul\":897:929   */\n      slt\n        /* \"#utility.yul\":894:1013   */\n      iszero\n      tag_184\n      jumpi\n        /* \"#utility.yul\":932:1011   */\n      tag_185\n      tag_181\n      jump\t// in\n    tag_185:\n        /* \"#utility.yul\":894:1013   */\n    tag_184:\n        /* \"#utility.yul\":1052:1053   */\n      0x00\n        /* \"#utility.yul\":1077:1138   */\n      tag_186\n        /* \"#utility.yul\":1130:1137   */\n      dup6\n        /* \"#utility.yul\":1121:1127   */\n      dup3\n        /* \"#utility.yul\":1110:1119   */\n      dup7\n        /* \"#utility.yul\":1106:1128   */\n      add\n        /* \"#utility.yul\":1077:1138   */\n      tag_170\n      jump\t// in\n    tag_186:\n        /* \"#utility.yul\":1067:1138   */\n      swap3\n      pop\n        /* \"#utility.yul\":1023:1148   */\n      pop\n        /* \"#utility.yul\":1187:1189   */\n      0x20\n        /* \"#utility.yul\":1213:1266   */\n      tag_187\n        /* \"#utility.yul\":1258:1265   */\n      dup6\n        /* \"#utility.yul\":1249:1255   */\n      dup3\n        /* \"#utility.yul\":1238:1247   */\n      dup7\n        /* \"#utility.yul\":1234:1256   */\n      add\n        /* \"#utility.yul\":1213:1266   */\n      tag_174\n      jump\t// in\n    tag_187:\n        /* \"#utility.yul\":1203:1266   */\n      swap2\n      pop\n        /* \"#utility.yul\":1158:1276   */\n      pop\n        /* \"#utility.yul\":793:1283   */\n      swap3\n      pop\n      swap3\n      swap1\n      pop\n      jump\t// out\n        /* \"#utility.yul\":1289:1618   */\n    tag_52:\n        /* \"#utility.yul\":1348:1354   */\n      0x00\n        /* \"#utility.yul\":1397:1399   */\n      0x20\n        /* \"#utility.yul\":1385:1394   */\n      dup3\n        /* \"#utility.yul\":1376:1383   */\n      dup5\n        /* \"#utility.yul\":1372:1395   */\n      sub\n        /* \"#utility.yul\":1368:1400   */\n      slt\n        /* \"#utility.yul\":1365:1484   */\n      iszero\n      tag_189\n      jumpi\n        /* \"#utility.yul\":1403:1482   */\n      tag_190\n      tag_181\n      jump\t// in\n    tag_190:\n        /* \"#utility.yul\":1365:1484   */\n    tag_189:\n        /* \"#utility.yul\":1523:1524   */\n      0x00\n        /* \"#utility.yul\":1548:1601   */\n      tag_191\n        /* \"#utility.yul\":1593:1600   */\n      dup5\n        /* \"#utility.yul\":1584:1590   */\n      dup3\n        /* \"#utility.yul\":1573:1582   */\n      dup6\n        /* \"#utility.yul\":1569:1591   */\n      add\n        /* \"#utility.yul\":1548:1601   */\n      tag_174\n      jump\t// in\n    tag_191:\n        /* \"#utility.yul\":1538:1601   */\n      swap2\n      pop\n        /* \"#utility.yul\":1494:1611   */\n      pop\n        /* \"#utility.yul\":1289:1618   */\n      swap3\n      swap2\n      pop\n      pop\n      jump\t// out\n        /* \"#utility.yul\":1624:2243   */\n    tag_89:\n        /* \"#utility.yul\":1701:1707   */\n      0x00\n        /* \"#utility.yul\":1709:1715   */\n      dup1\n        /* \"#utility.yul\":1717:1723   */\n      0x00\n        /* \"#utility.yul\":1766:1768   */\n      0x60\n        /* \"#utility.yul\":1754:1763   */\n      dup5\n        /* \"#utility.yul\":1745:1752   */\n      dup7\n        /* \"#utility.yul\":1741:1764   */\n      sub\n        /* \"#utility.yul\":1737:1769   */\n      slt\n        /* \"#utility.yul\":1734:1853   */\n      iszero\n      tag_193\n      jumpi\n        /* \"#utility.yul\":1772:1851   */\n      tag_194\n      tag_181\n      jump\t// in\n    tag_194:\n        /* \"#utility.yul\":1734:1853   */\n    tag_193:\n        /* \"#utility.yul\":1892:1893   */\n      0x00\n        /* \"#utility.yul\":1917:1970   */\n      tag_195\n        /* \"#utility.yul\":1962:1969   */\n      dup7\n        /* \"#utility.yul\":1953:1959   */\n      dup3\n        /* \"#utility.yul\":1942:1951   */\n      dup8\n        /* \"#utility.yul\":1938:1960   */\n      add\n        /* \"#utility.yul\":1917:1970   */\n      tag_174\n      jump\t// in\n    tag_195:\n        /* \"#utility.yul\":1907:1970   */\n      swap4\n      pop\n        /* \"#utility.yul\":1863:1980   */\n      pop\n        /* \"#utility.yul\":2019:2021   */\n      0x20\n        /* \"#utility.yul\":2045:2098   */\n      tag_196\n        /* \"#utility.yul\":2090:2097   */\n      dup7\n        /* \"#utility.yul\":2081:2087   */\n      dup3\n        /* \"#utility.yul\":2070:2079   */\n      dup8\n        /* \"#utility.yul\":2066:2088   */\n      add\n        /* \"#utility.yul\":2045:2098   */\n      tag_174\n      jump\t// in\n    tag_196:\n        /* \"#utility.yul\":2035:2098   */\n      swap3\n      pop\n        /* \"#utility.yul\":1990:2108   */\n      pop\n        /* \"#utility.yul\":2147:2149   */\n      0x40\n        /* \"#utility.yul\":2173:2226   */\n      tag_197\n        /* \"#utility.yul\":2218:2225   */\n      dup7\n        /* \"#utility.yul\":2209:2215   */\n      dup3\n        /* \"#utility.yul\":2198:2207   */\n      dup8\n        /* \"#utility.yul\":2194:2216   */\n      add\n        /* \"#utility.yul\":2173:2226   */\n      tag_174\n      jump\t// in\n    tag_197:\n        /* \"#utility.yul\":2163:2226   */\n      swap2\n      pop\n        /* \"#utility.yul\":2118:2236   */\n      pop\n        /* \"#utility.yul\":1624:2243   */\n      swap3\n      pop\n      swap3\n      pop\n      swap3\n      jump\t// out\n        /* \"#utility.yul\":2249:2367   */\n    tag_198:\n        /* \"#utility.yul\":2336:2360   */\n      tag_200\n        /* \"#utility.yul\":2354:2359   */\n      dup2\n        /* \"#utility.yul\":2336:2360   */\n      tag_201\n      jump\t// in\n    tag_200:\n        /* \"#utility.yul\":2331:2334   */\n      dup3\n        /* \"#utility.yul\":2324:2361   */\n      mstore\n        /* \"#utility.yul\":2249:2367   */\n      pop\n      pop\n      jump\t// out\n        /* \"#utility.yul\":2373:2595   */\n    tag_26:\n        /* \"#utility.yul\":2466:2470   */\n      0x00\n        /* \"#utility.yul\":2504:2506   */\n      0x20\n        /* \"#utility.yul\":2493:2502   */\n      dup3\n        /* \"#utility.yul\":2489:2507   */\n      add\n        /* \"#utility.yul\":2481:2507   */\n      swap1\n      pop\n        /* \"#utility.yul\":2517:2588   */\n      tag_203\n        /* \"#utility.yul\":2585:2586   */\n      0x00\n        /* \"#utility.yul\":2574:2583   */\n      dup4\n        /* \"#utility.yul\":2570:2587   */\n      add\n        /* \"#utility.yul\":2561:2567   */\n      dup5\n        /* \"#utility.yul\":2517:2588   */\n      tag_198\n      jump\t// in\n    tag_203:\n        /* \"#utility.yul\":2373:2595   */\n      swap3\n      swap2\n      pop\n      pop\n      jump\t// out\n        /* \"#utility.yul\":2601:3043   */\n    tag_92:\n        /* \"#utility.yul\":2750:2754   */\n      0x00\n        /* \"#utility.yul\":2788:2790   */\n      0x60\n        /* \"#utility.yul\":2777:2786   */\n      dup3\n        /* \"#utility.yul\":2773:2791   */\n      add\n        /* \"#utility.yul\":2765:2791   */\n      swap1\n      pop\n        /* \"#utility.yul\":2801:2872   */\n      tag_205\n        /* \"#utility.yul\":2869:2870   */\n      0x00\n        /* \"#utility.yul\":2858:2867   */\n      dup4\n        /* \"#utility.yul\":2854:2871   */\n      add\n        /* \"#utility.yul\":2845:2851   */\n      dup7\n        /* \"#utility.yul\":2801:2872   */\n      tag_198\n      jump\t// in\n    tag_205:\n        /* \"#utility.yul\":2882:2954   */\n      tag_206\n        /* \"#utility.yul\":2950:2952   */\n      0x20\n        /* \"#utility.yul\":2939:2948   */\n      dup4\n        /* \"#utility.yul\":2935:2953   */\n      add\n        /* \"#utility.yul\":2926:2932   */\n      dup6\n        /* \"#utility.yul\":2882:2954   */\n      tag_198\n      jump\t// in\n    tag_206:\n        /* \"#utility.yul\":2964:3036   */\n      tag_207\n        /* \"#utility.yul\":3032:3034   */\n      0x40\n        /* \"#utility.yul\":3021:3030   */\n      dup4\n        /* \"#utility.yul\":3017:3035   */\n      add\n        /* \"#utility.yul\":3008:3014   */\n      dup5\n        /* \"#utility.yul\":2964:3036   */\n      tag_198\n      jump\t// in\n    tag_207:\n        /* \"#utility.yul\":2601:3043   */\n      swap5\n      swap4\n      pop\n      pop\n      pop\n      pop\n      jump\t// out\n        /* \"#utility.yul\":3130:3435   */\n    tag_113:\n        /* \"#utility.yul\":3170:3173   */\n      0x00\n        /* \"#utility.yul\":3189:3209   */\n      tag_211\n        /* \"#utility.yul\":3207:3208   */\n      dup3\n        /* \"#utility.yul\":3189:3209   */\n      tag_201\n      jump\t// in\n    tag_211:\n        /* \"#utility.yul\":3184:3209   */\n      swap2\n      pop\n        /* \"#utility.yul\":3223:3243   */\n      tag_212\n        /* \"#utility.yul\":3241:3242   */\n      dup4\n        /* \"#utility.yul\":3223:3243   */\n      tag_201\n      jump\t// in\n    tag_212:\n        /* \"#utility.yul\":3218:3243   */\n      swap3\n      pop\n        /* \"#utility.yul\":3377:3378   */\n      dup3\n        /* \"#utility.yul\":3309:3375   */\n      0xffffffffffffffffffffffffffffffffffffffffffffffffffffffffffffffff\n        /* \"#utility.yul\":3305:3379   */\n      sub\n        /* \"#utility.yul\":3302:3303   */\n      dup3\n        /* \"#utility.yul\":3299:3380   */\n      gt\n        /* \"#utility.yul\":3296:3403   */\n      iszero\n      tag_213\n      jumpi\n        /* \"#utility.yul\":3383:3401   */\n      tag_214\n      tag_215\n      jump\t// in\n    tag_214:\n        /* \"#utility.yul\":3296:3403   */\n    tag_213:\n        /* \"#utility.yul\":3427:3428   */\n      dup3\n        /* \"#utility.yul\":3424:3425   */\n      dup3\n        /* \"#utility.yul\":3420:3429   */\n      add\n        /* \"#utility.yul\":3413:3429   */\n      swap1\n      pop\n        /* \"#utility.yul\":3130:3435   */\n      swap3\n      swap2\n      pop\n      pop\n      jump\t// out\n        /* \"#utility.yul\":3441:3789   */\n    tag_100:\n        /* \"#utility.yul\":3481:3488   */\n      0x00\n        /* \"#utility.yul\":3504:3524   */\n      tag_217\n        /* \"#utility.yul\":3522:3523   */\n      dup3\n        /* \"#utility.yul\":3504:3524   */\n      tag_201\n      jump\t// in\n    tag_217:\n        /* \"#utility.yul\":3499:3524   */\n      swap2\n      pop\n        /* \"#utility.yul\":3538:3558   */\n      tag_218\n        /* \"#utility.yul\":3556:3557   */\n      dup4\n        /* \"#utility.yul\":3538:3558   */\n      tag_201\n      jump\t// in\n    tag_218:\n        /* \"#utility.yul\":3533:3558   */\n      swap3\n      pop\n        /* \"#utility.yul\":3726:3727   */\n      dup2\n        /* \"#utility.yul\":3658:3724   */\n      0xffffffffffffffffffffffffffffffffffffffffffffffffffffffffffffffff\n        /* \"#utility.yul\":3654:3728   */\n      div\n        /* \"#utility.yul\":3651:3652   */\n      dup4\n        /* \"#utility.yul\":3648:3729   */\n      gt\n        /* \"#utility.yul\":3643:3644   */\n      dup3\n        /* \"#utility.yul\":3636:3645   */\n      iszero\n        /* \"#utility.yul\":3629:3646   */\n      iszero\n        /* \"#utility.yul\":3625:3730   */\n      and\n        /* \"#utility.yul\":3622:3753   */\n      iszero\n      tag_219\n      jumpi\n        /* \"#utility.yul\":3733:3751   */\n      tag_220\n      tag_215\n      jump\t// in\n    tag_220:\n        /* \"#utility.yul\":3622:3753   */\n    tag_219:\n        /* \"#utility.yul\":3781:3782   */\n      dup3\n        /* \"#utility.yul\":3778:3779   */\n      dup3\n        /* \"#utility.yul\":3774:3783   */\n      mul\n        /* \"#utility.yul\":3763:3783   */\n      swap1\n      pop\n        /* \"#utility.yul\":3441:3789   */\n      swap3\n      swap2\n      pop\n      pop\n      jump\t// out\n        /* \"#utility.yul\":3795:3986   */\n    tag_109:\n        /* \"#utility.yul\":3835:3839   */\n      0x00\n        /* \"#utility.yul\":3855:3875   */\n      tag_222\n        /* \"#utility.yul\":3873:3874   */\n      dup3\n        /* \"#utility.yul\":3855:3875   */\n      tag_201\n      jump\t// in\n    tag_222:\n        /* \"#utility.yul\":3850:3875   */\n      swap2\n      pop\n        /* \"#utility.yul\":3889:3909   */\n      tag_223\n        /* \"#utility.yul\":3907:3908   */\n      dup4\n        /* \"#utility.yul\":3889:3909   */\n      tag_201\n      jump\t// in\n    tag_223:\n        /* \"#utility.yul\":3884:3909   */\n      swap3\n      pop\n        /* \"#utility.yul\":3928:3929   */\n      dup3\n        /* \"#utility.yul\":3925:3926   */\n      dup3\n        /* \"#utility.yul\":3922:3930   */\n      lt\n        /* \"#utility.yul\":3919:3953   */\n      iszero\n      tag_224\n      jumpi\n        /* \"#utility.yul\":3933:3951   */\n      tag_225\n      tag_215\n      jump\t// in\n    tag_225:\n        /* \"#utility.yul\":3919:3953   */\n    tag_224:\n        /* \"#utility.yul\":3978:3979   */\n      dup3\n        /* \"#utility.yul\":3975:3976   */\n      dup3\n        /* \"#utility.yul\":3971:3980   */\n      sub\n        /* \"#utility.yul\":3963:3980   */\n      swap1\n      pop\n        /* \"#utility.yul\":3795:3986   */\n      swap3\n      swap2\n      pop\n      pop\n      jump\t// out\n        /* \"#utility.yul\":3992:4088   */\n    tag_226:\n        /* \"#utility.yul\":4029:4036   */\n      0x00\n        /* \"#utility.yul\":4058:4082   */\n      tag_228\n        /* \"#utility.yul\":4076:4081   */\n      dup3\n        /* \"#utility.yul\":4058:4082   */\n      tag_229\n      jump\t// in\n    tag_228:\n        /* \"#utility.yul\":4047:4082   */\n      swap1\n      pop\n        /* \"#utility.yul\":3992:4088   */\n      swap2\n      swap1\n      pop\n      jump\t// out\n        /* \"#utility.yul\":4094:4198   */\n    tag_230:\n        /* \"#utility.yul\":4139:4146   */\n      0x00\n        /* \"#utility.yul\":4168:4192   */\n      tag_232\n        /* \"#utility.yul\":4186:4191   */\n      dup3\n        /* \"#utility.yul\":4168:4192   */\n      tag_229\n      jump\t// in\n    tag_232:\n        /* \"#utility.yul\":4157:4192   */\n      swap1\n      pop\n        /* \"#utility.yul\":4094:4198   */\n      swap2\n      swap1\n      pop\n      jump\t// out\n        /* \"#utility.yul\":4204:4330   */\n    tag_229:\n        /* \"#utility.yul\":4241:4248   */\n      0x00\n        /* \"#utility.yul\":4281:4323   */\n      0xffffffffffffffffffffffffffffffffffffffff\n        /* \"#utility.yul\":4274:4279   */\n      dup3\n        /* \"#utility.yul\":4270:4324   */\n      and\n        /* \"#utility.yul\":4259:4324   */\n      swap1\n      pop\n        /* \"#utility.yul\":4204:4330   */\n      swap2\n      swap1\n      pop\n      jump\t// out\n        /* \"#utility.yul\":4336:4413   */\n    tag_201:\n        /* \"#utility.yul\":4373:4380   */\n      0x00\n        /* \"#utility.yul\":4402:4407   */\n      dup2\n        /* \"#utility.yul\":4391:4407   */\n      swap1\n      pop\n        /* \"#utility.yul\":4336:4413   */\n      swap2\n      swap1\n      pop\n      jump\t// out\n        /* \"#utility.yul\":4419:4599   */\n    tag_215:\n        /* \"#utility.yul\":4467:4544   */\n      0x4e487b7100000000000000000000000000000000000000000000000000000000\n        /* \"#utility.yul\":4464:4465   */\n      0x00\n        /* \"#utility.yul\":4457:4545   */\n      mstore\n        /* \"#utility.yul\":4564:4568   */\n      0x11\n        /* \"#utility.yul\":4561:4562   */\n      0x04\n        /* \"#utility.yul\":4554:4569   */\n      mstore\n        /* \"#utility.yul\":4588:4592   */\n      0x24\n        /* \"#utility.yul\":4585:4586   */\n      0x00\n        /* \"#utility.yul\":4578:4593   */\n      revert\n        /* \"#utility.yul\":4728:4845   */\n    tag_181:\n        /* \"#utility.yul\":4837:4838   */\n      0x00\n        /* \"#utility.yul\":4834:4835   */\n      dup1\n        /* \"#utility.yul\":4827:4839   */\n      revert\n        /* \"#utility.yul\":4851:4973   */\n    tag_169:\n        /* \"#utility.yul\":4924:4948   */\n      tag_240\n        /* \"#utility.yul\":4942:4947   */\n      dup2\n        /* \"#utility.yul\":4924:4948   */\n      tag_226\n      jump\t// in\n    tag_240:\n        /* \"#utility.yul\":4917:4922   */\n      dup2\n        /* \"#utility.yul\":4914:4949   */\n      eq\n        /* \"#utility.yul\":4904:4967   */\n      tag_241\n      jumpi\n        /* \"#utility.yul\":4963:4964   */\n      0x00\n        /* \"#utility.yul\":4960:4961   */\n      dup1\n        /* \"#utility.yul\":4953:4965   */\n      revert\n        /* \"#utility.yul\":4904:4967   */\n    tag_241:\n        /* \"#utility.yul\":4851:4973   */\n      pop\n      jump\t// out\n        /* \"#utility.yul\":4979:5117   */\n    tag_173:\n        /* \"#utility.yul\":5060:5092   */\n      tag_243\n        /* \"#utility.yul\":5086:5091   */\n      dup2\n        /* \"#utility.yul\":5060:5092   */\n      tag_230\n      jump\t// in\n    tag_243:\n        /* \"#utility.yul\":5053:5058   */\n      dup2\n        /* \"#utility.yul\":5050:5093   */\n      eq\n        /* \"#utility.yul\":5040:5111   */\n      tag_244\n      jumpi\n        /* \"#utility.yul\":5107:5108   */\n      0x00\n        /* \"#utility.yul\":5104:5105   */\n      dup1\n        /* \"#utility.yul\":5097:5109   */\n      revert\n        /* \"#utility.yul\":5040:5111   */\n    tag_244:\n        /* \"#utility.yul\":4979:5117   */\n      pop\n      jump\t// out\n        /* \"#utility.yul\":5123:5245   */\n    tag_177:\n        /* \"#utility.yul\":5196:5220   */\n      tag_246\n        /* \"#utility.yul\":5214:5219   */\n      dup2\n        /* \"#utility.yul\":5196:5220   */\n      tag_201\n      jump\t// in\n    tag_246:\n        /* \"#utility.yul\":5189:5194   */\n      dup2\n        /* \"#utility.yul\":5186:5221   */\n      eq\n        /* \"#utility.yul\":5176:5239   */\n      tag_247\n      jumpi\n        /* \"#utility.yul\":5235:5236   */\n      0x00\n        /* \"#utility.yul\":5232:5233   */\n      dup1\n        /* \"#utility.yul\":5225:5237   */\n      revert\n        /* \"#utility.yul\":5176:5239   */\n    tag_247:\n        /* \"#utility.yul\":5123:5245   */\n      pop\n      jump\t// out\n\n    auxdata: 0xa2646970667358221220b6df8801c0beaa96af51bf5ec68b4e460526d89b25af125cace1c3bf5462571b64736f6c63430008070033\n}\n",
				"bytecode": {
					"linkReferences": {},
					"object": "60806040526000600255600380556003600455600460055560056006556006600755600760085560086009556009600a55600a600b5534801561004157600080fd5b50336000806101000a81548173ffffffffffffffffffffffffffffffffffffffff021916908373ffffffffffffffffffffffffffffffffffffffff160217905550610afb806100916000396000f3fe6080604052600436106100fe5760003560e01c80637c134b1411610095578063c2c496ec11610064578063c2c496ec1461031c578063d0679d3414610347578063ed2fa5ab14610363578063f02e48c31461038e578063f8b2cb4f146103cd576100fe565b80637c134b1414610291578063a8bdb68b1461029b578063b4ad7fa9146102c6578063b69ef8a8146102f1576100fe565b806328780a44116100d157806328780a44146101c15780632c9af64c146101ec5780635c8f6b5614610217578063721028ec14610254576100fe565b80630c03a1a314610103578063103347e71461012e57806320e731a11461015957806327e235e314610184575b600080fd5b34801561010f57600080fd5b5061011861040a565b60405161012591906108c8565b60405180910390f35b34801561013a57600080fd5b50610143610410565b60405161015091906108c8565b60405180910390f35b34801561016557600080fd5b5061016e610416565b60405161017b91906108c8565b60405180910390f35b34801561019057600080fd5b506101ab60048036038101906101a691906107cc565b61041c565b6040516101b891906108c8565b60405180910390f35b3480156101cd57600080fd5b506101d6610434565b6040516101e391906108c8565b60405180910390f35b3480156101f857600080fd5b5061020161043a565b60405161020e91906108c8565b60405180910390f35b34801561022357600080fd5b5061023e60048036038101906102399190610839565b610440565b60405161024b91906108c8565b60405180910390f35b34801561026057600080fd5b5061027b60048036038101906102769190610839565b610457565b60405161028891906108c8565b60405180910390f35b6102996106d1565b005b3480156102a757600080fd5b506102b06106ec565b6040516102bd91906108c8565b60405180910390f35b3480156102d257600080fd5b506102db6106f2565b6040516102e891906108c8565b60405180910390f35b3480156102fd57600080fd5b506103066106f8565b60405161031391906108c8565b60405180910390f35b34801561032857600080fd5b506103316106fe565b60405161033e91906108c8565b60405180910390f35b610361600480360381019061035c91906107f9565b610704565b005b34801561036f57600080fd5b5061037861074f565b60405161038591906108c8565b60405180910390f35b34801561039a57600080fd5b506103b560048036038101906103b09190610866565b610755565b6040516103c4939291906108e3565b60405180910390f35b3480156103d957600080fd5b506103f460048036038101906103ef91906107cc565b61076c565b60405161040191906108c8565b60405180910390f35b60085481565b60075481565b60065481565b60016020528060005260406000206000915090505481565b60055481565b60035481565b6000600354826104509190610970565b9050919050565b600060fb82101561065757603382101561048057600454826104799190610970565b9050610652565b6032821180156104905750606582105b156104cf576005546032836104a591906109ca565b6104af9190610970565b60045460326104be9190610970565b6104c8919061091a565b9050610651565b6064821180156104df5750609782105b15610537576006546032836104f491906109ca565b6104fe9190610970565b600554603261050d9190610970565b600454603261051c9190610970565b610526919061091a565b610530919061091a565b9050610650565b609682118015610547575060c982105b156105b85760075460328361055c91906109ca565b6105669190610970565b60065460326105759190610970565b60055460326105849190610970565b60045460326105939190610970565b61059d919061091a565b6105a7919061091a565b6105b1919061091a565b905061064f565b60c8821180156105c8575060fb82105b1561064e576008546032836105dd91906109ca565b6105e79190610970565b60075460326105f69190610970565b60065460326106059190610970565b60055460326106149190610970565b60045460326106239190610970565b61062d919061091a565b610637919061091a565b610641919061091a565b61064b919061091a565b90505b5b5b5b5b6106cc565b60fa82118015610668575061015f82105b15610682576009548261067b9190610970565b90506106cb565b61015e8211801561069457506101c382105b156106ae57600a54826106a79190610970565b90506106ca565b6101c28211156106c957600b54826106c69190610970565b90505b5b5b5b919050565b34600260008282546106e3919061091a565b92505081905550565b600b5481565b60095481565b60025481565b60045481565b8173ffffffffffffffffffffffffffffffffffffffff166108fc829081150290604051600060405180830381858888f1935050505015801561074a573d6000803e3d6000fd5b505050565b600a5481565b600080600085925084915083905093509350939050565b60008173ffffffffffffffffffffffffffffffffffffffff16319050919050565b60008135905061079c81610a80565b92915050565b6000813590506107b181610a97565b92915050565b6000813590506107c681610aae565b92915050565b6000602082840312156107e2576107e1610a7b565b5b60006107f08482850161078d565b91505092915050565b600080604083850312156108105761080f610a7b565b5b600061081e858286016107a2565b925050602061082f858286016107b7565b9150509250929050565b60006020828403121561084f5761084e610a7b565b5b600061085d848285016107b7565b91505092915050565b60008060006060848603121561087f5761087e610a7b565b5b600061088d868287016107b7565b935050602061089e868287016107b7565b92505060406108af868287016107b7565b9150509250925092565b6108c281610a42565b82525050565b60006020820190506108dd60008301846108b9565b92915050565b60006060820190506108f860008301866108b9565b61090560208301856108b9565b61091260408301846108b9565b949350505050565b600061092582610a42565b915061093083610a42565b9250827fffffffffffffffffffffffffffffffffffffffffffffffffffffffffffffffff0382111561096557610964610a4c565b5b828201905092915050565b600061097b82610a42565b915061098683610a42565b9250817fffffffffffffffffffffffffffffffffffffffffffffffffffffffffffffffff04831182151516156109bf576109be610a4c565b5b828202905092915050565b60006109d582610a42565b91506109e083610a42565b9250828210156109f3576109f2610a4c565b5b828203905092915050565b6000610a0982610a22565b9050919050565b6000610a1b82610a22565b9050919050565b600073ffffffffffffffffffffffffffffffffffffffff82169050919050565b6000819050919050565b7f4e487b7100000000000000000000000000000000000000000000000000000000600052601160045260246000fd5b600080fd5b610a89816109fe565b8114610a9457600080fd5b50565b610aa081610a10565b8114610aab57600080fd5b50565b610ab781610a42565b8114610ac257600080fd5b5056fea2646970667358221220b6df8801c0beaa96af51bf5ec68b4e460526d89b25af125cace1c3bf5462571b64736f6c63430008070033",
					"opcodes": "PUSH1 0x80 PUSH1 0x40 MSTORE PUSH1 0x0 PUSH1 0x2 SSTORE PUSH1 0x3 DUP1 SSTORE PUSH1 0x3 PUSH1 0x4 SSTORE PUSH1 0x4 PUSH1 0x5 SSTORE PUSH1 0x5 PUSH1 0x6 SSTORE PUSH1 0x6 PUSH1 0x7 SSTORE PUSH1 0x7 PUSH1 0x8 SSTORE PUSH1 0x8 PUSH1 0x9 SSTORE PUSH1 0x9 PUSH1 0xA SSTORE PUSH1 0xA PUSH1 0xB SSTORE CALLVALUE DUP1 ISZERO PUSH2 0x41 JUMPI PUSH1 0x0 DUP1 REVERT JUMPDEST POP CALLER PUSH1 0x0 DUP1 PUSH2 0x100 EXP DUP2 SLOAD DUP2 PUSH20 0xFFFFFFFFFFFFFFFFFFFFFFFFFFFFFFFFFFFFFFFF MUL NOT AND SWAP1 DUP4 PUSH20 0xFFFFFFFFFFFFFFFFFFFFFFFFFFFFFFFFFFFFFFFF AND MUL OR SWAP1 SSTORE POP PUSH2 0xAFB DUP1 PUSH2 0x91 PUSH1 0x0 CODECOPY PUSH1 0x0 RETURN INVALID PUSH1 0x80 PUSH1 0x40 MSTORE PUSH1 0x4 CALLDATASIZE LT PUSH2 0xFE JUMPI PUSH1 0x0 CALLDATALOAD PUSH1 0xE0 SHR DUP1 PUSH4 0x7C134B14 GT PUSH2 0x95 JUMPI DUP1 PUSH4 0xC2C496EC GT PUSH2 0x64 JUMPI DUP1 PUSH4 0xC2C496EC EQ PUSH2 0x31C JUMPI DUP1 PUSH4 0xD0679D34 EQ PUSH2 0x347 JUMPI DUP1 PUSH4 0xED2FA5AB EQ PUSH2 0x363 JUMPI DUP1 PUSH4 0xF02E48C3 EQ PUSH2 0x38E JUMPI DUP1 PUSH4 0xF8B2CB4F EQ PUSH2 0x3CD JUMPI PUSH2 0xFE JUMP JUMPDEST DUP1 PUSH4 0x7C134B14 EQ PUSH2 0x291 JUMPI DUP1 PUSH4 0xA8BDB68B EQ PUSH2 0x29B JUMPI DUP1 PUSH4 0xB4AD7FA9 EQ PUSH2 0x2C6 JUMPI DUP1 PUSH4 0xB69EF8A8 EQ PUSH2 0x2F1 JUMPI PUSH2 0xFE JUMP JUMPDEST DUP1 PUSH4 0x28780A44 GT PUSH2 0xD1 JUMPI DUP1 PUSH4 0x28780A44 EQ PUSH2 0x1C1 JUMPI DUP1 PUSH4 0x2C9AF64C EQ PUSH2 0x1EC JUMPI DUP1 PUSH4 0x5C8F6B56 EQ PUSH2 0x217 JUMPI DUP1 PUSH4 0x721028EC EQ PUSH2 0x254 JUMPI PUSH2 0xFE JUMP JUMPDEST DUP1 PUSH4 0xC03A1A3 EQ PUSH2 0x103 JUMPI DUP1 PUSH4 0x103347E7 EQ PUSH2 0x12E JUMPI DUP1 PUSH4 0x20E731A1 EQ PUSH2 0x159 JUMPI DUP1 PUSH4 0x27E235E3 EQ PUSH2 0x184 JUMPI JUMPDEST PUSH1 0x0 DUP1 REVERT JUMPDEST CALLVALUE DUP1 ISZERO PUSH2 0x10F JUMPI PUSH1 0x0 DUP1 REVERT JUMPDEST POP PUSH2 0x118 PUSH2 0x40A JUMP JUMPDEST PUSH1 0x40 MLOAD PUSH2 0x125 SWAP2 SWAP1 PUSH2 0x8C8 JUMP JUMPDEST PUSH1 0x40 MLOAD DUP1 SWAP2 SUB SWAP1 RETURN JUMPDEST CALLVALUE DUP1 ISZERO PUSH2 0x13A JUMPI PUSH1 0x0 DUP1 REVERT JUMPDEST POP PUSH2 0x143 PUSH2 0x410 JUMP JUMPDEST PUSH1 0x40 MLOAD PUSH2 0x150 SWAP2 SWAP1 PUSH2 0x8C8 JUMP JUMPDEST PUSH1 0x40 MLOAD DUP1 SWAP2 SUB SWAP1 RETURN JUMPDEST CALLVALUE DUP1 ISZERO PUSH2 0x165 JUMPI PUSH1 0x0 DUP1 REVERT JUMPDEST POP PUSH2 0x16E PUSH2 0x416 JUMP JUMPDEST PUSH1 0x40 MLOAD PUSH2 0x17B SWAP2 SWAP1 PUSH2 0x8C8 JUMP JUMPDEST PUSH1 0x40 MLOAD DUP1 SWAP2 SUB SWAP1 RETURN JUMPDEST CALLVALUE DUP1 ISZERO PUSH2 0x190 JUMPI PUSH1 0x0 DUP1 REVERT JUMPDEST POP PUSH2 0x1AB PUSH1 0x4 DUP1 CALLDATASIZE SUB DUP2 ADD SWAP1 PUSH2 0x1A6 SWAP2 SWAP1 PUSH2 0x7CC JUMP JUMPDEST PUSH2 0x41C JUMP JUMPDEST PUSH1 0x40 MLOAD PUSH2 0x1B8 SWAP2 SWAP1 PUSH2 0x8C8 JUMP JUMPDEST PUSH1 0x40 MLOAD DUP1 SWAP2 SUB SWAP1 RETURN JUMPDEST CALLVALUE DUP1 ISZERO PUSH2 0x1CD JUMPI PUSH1 0x0 DUP1 REVERT JUMPDEST POP PUSH2 0x1D6 PUSH2 0x434 JUMP JUMPDEST PUSH1 0x40 MLOAD PUSH2 0x1E3 SWAP2 SWAP1 PUSH2 0x8C8 JUMP JUMPDEST PUSH1 0x40 MLOAD DUP1 SWAP2 SUB SWAP1 RETURN JUMPDEST CALLVALUE DUP1 ISZERO PUSH2 0x1F8 JUMPI PUSH1 0x0 DUP1 REVERT JUMPDEST POP PUSH2 0x201 PUSH2 0x43A JUMP JUMPDEST PUSH1 0x40 MLOAD PUSH2 0x20E SWAP2 SWAP1 PUSH2 0x8C8 JUMP JUMPDEST PUSH1 0x40 MLOAD DUP1 SWAP2 SUB SWAP1 RETURN JUMPDEST CALLVALUE DUP1 ISZERO PUSH2 0x223 JUMPI PUSH1 0x0 DUP1 REVERT JUMPDEST POP PUSH2 0x23E PUSH1 0x4 DUP1 CALLDATASIZE SUB DUP2 ADD SWAP1 PUSH2 0x239 SWAP2 SWAP1 PUSH2 0x839 JUMP JUMPDEST PUSH2 0x440 JUMP JUMPDEST PUSH1 0x40 MLOAD PUSH2 0x24B SWAP2 SWAP1 PUSH2 0x8C8 JUMP JUMPDEST PUSH1 0x40 MLOAD DUP1 SWAP2 SUB SWAP1 RETURN JUMPDEST CALLVALUE DUP1 ISZERO PUSH2 0x260 JUMPI PUSH1 0x0 DUP1 REVERT JUMPDEST POP PUSH2 0x27B PUSH1 0x4 DUP1 CALLDATASIZE SUB DUP2 ADD SWAP1 PUSH2 0x276 SWAP2 SWAP1 PUSH2 0x839 JUMP JUMPDEST PUSH2 0x457 JUMP JUMPDEST PUSH1 0x40 MLOAD PUSH2 0x288 SWAP2 SWAP1 PUSH2 0x8C8 JUMP JUMPDEST PUSH1 0x40 MLOAD DUP1 SWAP2 SUB SWAP1 RETURN JUMPDEST PUSH2 0x299 PUSH2 0x6D1 JUMP JUMPDEST STOP JUMPDEST CALLVALUE DUP1 ISZERO PUSH2 0x2A7 JUMPI PUSH1 0x0 DUP1 REVERT JUMPDEST POP PUSH2 0x2B0 PUSH2 0x6EC JUMP JUMPDEST PUSH1 0x40 MLOAD PUSH2 0x2BD SWAP2 SWAP1 PUSH2 0x8C8 JUMP JUMPDEST PUSH1 0x40 MLOAD DUP1 SWAP2 SUB SWAP1 RETURN JUMPDEST CALLVALUE DUP1 ISZERO PUSH2 0x2D2 JUMPI PUSH1 0x0 DUP1 REVERT JUMPDEST POP PUSH2 0x2DB PUSH2 0x6F2 JUMP JUMPDEST PUSH1 0x40 MLOAD PUSH2 0x2E8 SWAP2 SWAP1 PUSH2 0x8C8 JUMP JUMPDEST PUSH1 0x40 MLOAD DUP1 SWAP2 SUB SWAP1 RETURN JUMPDEST CALLVALUE DUP1 ISZERO PUSH2 0x2FD JUMPI PUSH1 0x0 DUP1 REVERT JUMPDEST POP PUSH2 0x306 PUSH2 0x6F8 JUMP JUMPDEST PUSH1 0x40 MLOAD PUSH2 0x313 SWAP2 SWAP1 PUSH2 0x8C8 JUMP JUMPDEST PUSH1 0x40 MLOAD DUP1 SWAP2 SUB SWAP1 RETURN JUMPDEST CALLVALUE DUP1 ISZERO PUSH2 0x328 JUMPI PUSH1 0x0 DUP1 REVERT JUMPDEST POP PUSH2 0x331 PUSH2 0x6FE JUMP JUMPDEST PUSH1 0x40 MLOAD PUSH2 0x33E SWAP2 SWAP1 PUSH2 0x8C8 JUMP JUMPDEST PUSH1 0x40 MLOAD DUP1 SWAP2 SUB SWAP1 RETURN JUMPDEST PUSH2 0x361 PUSH1 0x4 DUP1 CALLDATASIZE SUB DUP2 ADD SWAP1 PUSH2 0x35C SWAP2 SWAP1 PUSH2 0x7F9 JUMP JUMPDEST PUSH2 0x704 JUMP JUMPDEST STOP JUMPDEST CALLVALUE DUP1 ISZERO PUSH2 0x36F JUMPI PUSH1 0x0 DUP1 REVERT JUMPDEST POP PUSH2 0x378 PUSH2 0x74F JUMP JUMPDEST PUSH1 0x40 MLOAD PUSH2 0x385 SWAP2 SWAP1 PUSH2 0x8C8 JUMP JUMPDEST PUSH1 0x40 MLOAD DUP1 SWAP2 SUB SWAP1 RETURN JUMPDEST CALLVALUE DUP1 ISZERO PUSH2 0x39A JUMPI PUSH1 0x0 DUP1 REVERT JUMPDEST POP PUSH2 0x3B5 PUSH1 0x4 DUP1 CALLDATASIZE SUB DUP2 ADD SWAP1 PUSH2 0x3B0 SWAP2 SWAP1 PUSH2 0x866 JUMP JUMPDEST PUSH2 0x755 JUMP JUMPDEST PUSH1 0x40 MLOAD PUSH2 0x3C4 SWAP4 SWAP3 SWAP2 SWAP1 PUSH2 0x8E3 JUMP JUMPDEST PUSH1 0x40 MLOAD DUP1 SWAP2 SUB SWAP1 RETURN JUMPDEST CALLVALUE DUP1 ISZERO PUSH2 0x3D9 JUMPI PUSH1 0x0 DUP1 REVERT JUMPDEST POP PUSH2 0x3F4 PUSH1 0x4 DUP1 CALLDATASIZE SUB DUP2 ADD SWAP1 PUSH2 0x3EF SWAP2 SWAP1 PUSH2 0x7CC JUMP JUMPDEST PUSH2 0x76C JUMP JUMPDEST PUSH1 0x40 MLOAD PUSH2 0x401 SWAP2 SWAP1 PUSH2 0x8C8 JUMP JUMPDEST PUSH1 0x40 MLOAD DUP1 SWAP2 SUB SWAP1 RETURN JUMPDEST PUSH1 0x8 SLOAD DUP2 JUMP JUMPDEST PUSH1 0x7 SLOAD DUP2 JUMP JUMPDEST PUSH1 0x6 SLOAD DUP2 JUMP JUMPDEST PUSH1 0x1 PUSH1 0x20 MSTORE DUP1 PUSH1 0x0 MSTORE PUSH1 0x40 PUSH1 0x0 KECCAK256 PUSH1 0x0 SWAP2 POP SWAP1 POP SLOAD DUP2 JUMP JUMPDEST PUSH1 0x5 SLOAD DUP2 JUMP JUMPDEST PUSH1 0x3 SLOAD DUP2 JUMP JUMPDEST PUSH1 0x0 PUSH1 0x3 SLOAD DUP3 PUSH2 0x450 SWAP2 SWAP1 PUSH2 0x970 JUMP JUMPDEST SWAP1 POP SWAP2 SWAP1 POP JUMP JUMPDEST PUSH1 0x0 PUSH1 0xFB DUP3 LT ISZERO PUSH2 0x657 JUMPI PUSH1 0x33 DUP3 LT ISZERO PUSH2 0x480 JUMPI PUSH1 0x4 SLOAD DUP3 PUSH2 0x479 SWAP2 SWAP1 PUSH2 0x970 JUMP JUMPDEST SWAP1 POP PUSH2 0x652 JUMP JUMPDEST PUSH1 0x32 DUP3 GT DUP1 ISZERO PUSH2 0x490 JUMPI POP PUSH1 0x65 DUP3 LT JUMPDEST ISZERO PUSH2 0x4CF JUMPI PUSH1 0x5 SLOAD PUSH1 0x32 DUP4 PUSH2 0x4A5 SWAP2 SWAP1 PUSH2 0x9CA JUMP JUMPDEST PUSH2 0x4AF SWAP2 SWAP1 PUSH2 0x970 JUMP JUMPDEST PUSH1 0x4 SLOAD PUSH1 0x32 PUSH2 0x4BE SWAP2 SWAP1 PUSH2 0x970 JUMP JUMPDEST PUSH2 0x4C8 SWAP2 SWAP1 PUSH2 0x91A JUMP JUMPDEST SWAP1 POP PUSH2 0x651 JUMP JUMPDEST PUSH1 0x64 DUP3 GT DUP1 ISZERO PUSH2 0x4DF JUMPI POP PUSH1 0x97 DUP3 LT JUMPDEST ISZERO PUSH2 0x537 JUMPI PUSH1 0x6 SLOAD PUSH1 0x32 DUP4 PUSH2 0x4F4 SWAP2 SWAP1 PUSH2 0x9CA JUMP JUMPDEST PUSH2 0x4FE SWAP2 SWAP1 PUSH2 0x970 JUMP JUMPDEST PUSH1 0x5 SLOAD PUSH1 0x32 PUSH2 0x50D SWAP2 SWAP1 PUSH2 0x970 JUMP JUMPDEST PUSH1 0x4 SLOAD PUSH1 0x32 PUSH2 0x51C SWAP2 SWAP1 PUSH2 0x970 JUMP JUMPDEST PUSH2 0x526 SWAP2 SWAP1 PUSH2 0x91A JUMP JUMPDEST PUSH2 0x530 SWAP2 SWAP1 PUSH2 0x91A JUMP JUMPDEST SWAP1 POP PUSH2 0x650 JUMP JUMPDEST PUSH1 0x96 DUP3 GT DUP1 ISZERO PUSH2 0x547 JUMPI POP PUSH1 0xC9 DUP3 LT JUMPDEST ISZERO PUSH2 0x5B8 JUMPI PUSH1 0x7 SLOAD PUSH1 0x32 DUP4 PUSH2 0x55C SWAP2 SWAP1 PUSH2 0x9CA JUMP JUMPDEST PUSH2 0x566 SWAP2 SWAP1 PUSH2 0x970 JUMP JUMPDEST PUSH1 0x6 SLOAD PUSH1 0x32 PUSH2 0x575 SWAP2 SWAP1 PUSH2 0x970 JUMP JUMPDEST PUSH1 0x5 SLOAD PUSH1 0x32 PUSH2 0x584 SWAP2 SWAP1 PUSH2 0x970 JUMP JUMPDEST PUSH1 0x4 SLOAD PUSH1 0x32 PUSH2 0x593 SWAP2 SWAP1 PUSH2 0x970 JUMP JUMPDEST PUSH2 0x59D SWAP2 SWAP1 PUSH2 0x91A JUMP JUMPDEST PUSH2 0x5A7 SWAP2 SWAP1 PUSH2 0x91A JUMP JUMPDEST PUSH2 0x5B1 SWAP2 SWAP1 PUSH2 0x91A JUMP JUMPDEST SWAP1 POP PUSH2 0x64F JUMP JUMPDEST PUSH1 0xC8 DUP3 GT DUP1 ISZERO PUSH2 0x5C8 JUMPI POP PUSH1 0xFB DUP3 LT JUMPDEST ISZERO PUSH2 0x64E JUMPI PUSH1 0x8 SLOAD PUSH1 0x32 DUP4 PUSH2 0x5DD SWAP2 SWAP1 PUSH2 0x9CA JUMP JUMPDEST PUSH2 0x5E7 SWAP2 SWAP1 PUSH2 0x970 JUMP JUMPDEST PUSH1 0x7 SLOAD PUSH1 0x32 PUSH2 0x5F6 SWAP2 SWAP1 PUSH2 0x970 JUMP JUMPDEST PUSH1 0x6 SLOAD PUSH1 0x32 PUSH2 0x605 SWAP2 SWAP1 PUSH2 0x970 JUMP JUMPDEST PUSH1 0x5 SLOAD PUSH1 0x32 PUSH2 0x614 SWAP2 SWAP1 PUSH2 0x970 JUMP JUMPDEST PUSH1 0x4 SLOAD PUSH1 0x32 PUSH2 0x623 SWAP2 SWAP1 PUSH2 0x970 JUMP JUMPDEST PUSH2 0x62D SWAP2 SWAP1 PUSH2 0x91A JUMP JUMPDEST PUSH2 0x637 SWAP2 SWAP1 PUSH2 0x91A JUMP JUMPDEST PUSH2 0x641 SWAP2 SWAP1 PUSH2 0x91A JUMP JUMPDEST PUSH2 0x64B SWAP2 SWAP1 PUSH2 0x91A JUMP JUMPDEST SWAP1 POP JUMPDEST JUMPDEST JUMPDEST JUMPDEST JUMPDEST PUSH2 0x6CC JUMP JUMPDEST PUSH1 0xFA DUP3 GT DUP1 ISZERO PUSH2 0x668 JUMPI POP PUSH2 0x15F DUP3 LT JUMPDEST ISZERO PUSH2 0x682 JUMPI PUSH1 0x9 SLOAD DUP3 PUSH2 0x67B SWAP2 SWAP1 PUSH2 0x970 JUMP JUMPDEST SWAP1 POP PUSH2 0x6CB JUMP JUMPDEST PUSH2 0x15E DUP3 GT DUP1 ISZERO PUSH2 0x694 JUMPI POP PUSH2 0x1C3 DUP3 LT JUMPDEST ISZERO PUSH2 0x6AE JUMPI PUSH1 0xA SLOAD DUP3 PUSH2 0x6A7 SWAP2 SWAP1 PUSH2 0x970 JUMP JUMPDEST SWAP1 POP PUSH2 0x6CA JUMP JUMPDEST PUSH2 0x1C2 DUP3 GT ISZERO PUSH2 0x6C9 JUMPI PUSH1 0xB SLOAD DUP3 PUSH2 0x6C6 SWAP2 SWAP1 PUSH2 0x970 JUMP JUMPDEST SWAP1 POP JUMPDEST JUMPDEST JUMPDEST JUMPDEST SWAP2 SWAP1 POP JUMP JUMPDEST CALLVALUE PUSH1 0x2 PUSH1 0x0 DUP3 DUP3 SLOAD PUSH2 0x6E3 SWAP2 SWAP1 PUSH2 0x91A JUMP JUMPDEST SWAP3 POP POP DUP2 SWAP1 SSTORE POP JUMP JUMPDEST PUSH1 0xB SLOAD DUP2 JUMP JUMPDEST PUSH1 0x9 SLOAD DUP2 JUMP JUMPDEST PUSH1 0x2 SLOAD DUP2 JUMP JUMPDEST PUSH1 0x4 SLOAD DUP2 JUMP JUMPDEST DUP2 PUSH20 0xFFFFFFFFFFFFFFFFFFFFFFFFFFFFFFFFFFFFFFFF AND PUSH2 0x8FC DUP3 SWAP1 DUP2 ISZERO MUL SWAP1 PUSH1 0x40 MLOAD PUSH1 0x0 PUSH1 0x40 MLOAD DUP1 DUP4 SUB DUP2 DUP6 DUP9 DUP9 CALL SWAP4 POP POP POP POP ISZERO DUP1 ISZERO PUSH2 0x74A JUMPI RETURNDATASIZE PUSH1 0x0 DUP1 RETURNDATACOPY RETURNDATASIZE PUSH1 0x0 REVERT JUMPDEST POP POP POP JUMP JUMPDEST PUSH1 0xA SLOAD DUP2 JUMP JUMPDEST PUSH1 0x0 DUP1 PUSH1 0x0 DUP6 SWAP3 POP DUP5 SWAP2 POP DUP4 SWAP1 POP SWAP4 POP SWAP4 POP SWAP4 SWAP1 POP JUMP JUMPDEST PUSH1 0x0 DUP2 PUSH20 0xFFFFFFFFFFFFFFFFFFFFFFFFFFFFFFFFFFFFFFFF AND BALANCE SWAP1 POP SWAP2 SWAP1 POP JUMP JUMPDEST PUSH1 0x0 DUP2 CALLDATALOAD SWAP1 POP PUSH2 0x79C DUP2 PUSH2 0xA80 JUMP JUMPDEST SWAP3 SWAP2 POP POP JUMP JUMPDEST PUSH1 0x0 DUP2 CALLDATALOAD SWAP1 POP PUSH2 0x7B1 DUP2 PUSH2 0xA97 JUMP JUMPDEST SWAP3 SWAP2 POP POP JUMP JUMPDEST PUSH1 0x0 DUP2 CALLDATALOAD SWAP1 POP PUSH2 0x7C6 DUP2 PUSH2 0xAAE JUMP JUMPDEST SWAP3 SWAP2 POP POP JUMP JUMPDEST PUSH1 0x0 PUSH1 0x20 DUP3 DUP5 SUB SLT ISZERO PUSH2 0x7E2 JUMPI PUSH2 0x7E1 PUSH2 0xA7B JUMP JUMPDEST JUMPDEST PUSH1 0x0 PUSH2 0x7F0 DUP5 DUP3 DUP6 ADD PUSH2 0x78D JUMP JUMPDEST SWAP2 POP POP SWAP3 SWAP2 POP POP JUMP JUMPDEST PUSH1 0x0 DUP1 PUSH1 0x40 DUP4 DUP6 SUB SLT ISZERO PUSH2 0x810 JUMPI PUSH2 0x80F PUSH2 0xA7B JUMP JUMPDEST JUMPDEST PUSH1 0x0 PUSH2 0x81E DUP6 DUP3 DUP7 ADD PUSH2 0x7A2 JUMP JUMPDEST SWAP3 POP POP PUSH1 0x20 PUSH2 0x82F DUP6 DUP3 DUP7 ADD PUSH2 0x7B7 JUMP JUMPDEST SWAP2 POP POP SWAP3 POP SWAP3 SWAP1 POP JUMP JUMPDEST PUSH1 0x0 PUSH1 0x20 DUP3 DUP5 SUB SLT ISZERO PUSH2 0x84F JUMPI PUSH2 0x84E PUSH2 0xA7B JUMP JUMPDEST JUMPDEST PUSH1 0x0 PUSH2 0x85D DUP5 DUP3 DUP6 ADD PUSH2 0x7B7 JUMP JUMPDEST SWAP2 POP POP SWAP3 SWAP2 POP POP JUMP JUMPDEST PUSH1 0x0 DUP1 PUSH1 0x0 PUSH1 0x60 DUP5 DUP7 SUB SLT ISZERO PUSH2 0x87F JUMPI PUSH2 0x87E PUSH2 0xA7B JUMP JUMPDEST JUMPDEST PUSH1 0x0 PUSH2 0x88D DUP7 DUP3 DUP8 ADD PUSH2 0x7B7 JUMP JUMPDEST SWAP4 POP POP PUSH1 0x20 PUSH2 0x89E DUP7 DUP3 DUP8 ADD PUSH2 0x7B7 JUMP JUMPDEST SWAP3 POP POP PUSH1 0x40 PUSH2 0x8AF DUP7 DUP3 DUP8 ADD PUSH2 0x7B7 JUMP JUMPDEST SWAP2 POP POP SWAP3 POP SWAP3 POP SWAP3 JUMP JUMPDEST PUSH2 0x8C2 DUP2 PUSH2 0xA42 JUMP JUMPDEST DUP3 MSTORE POP POP JUMP JUMPDEST PUSH1 0x0 PUSH1 0x20 DUP3 ADD SWAP1 POP PUSH2 0x8DD PUSH1 0x0 DUP4 ADD DUP5 PUSH2 0x8B9 JUMP JUMPDEST SWAP3 SWAP2 POP POP JUMP JUMPDEST PUSH1 0x0 PUSH1 0x60 DUP3 ADD SWAP1 POP PUSH2 0x8F8 PUSH1 0x0 DUP4 ADD DUP7 PUSH2 0x8B9 JUMP JUMPDEST PUSH2 0x905 PUSH1 0x20 DUP4 ADD DUP6 PUSH2 0x8B9 JUMP JUMPDEST PUSH2 0x912 PUSH1 0x40 DUP4 ADD DUP5 PUSH2 0x8B9 JUMP JUMPDEST SWAP5 SWAP4 POP POP POP POP JUMP JUMPDEST PUSH1 0x0 PUSH2 0x925 DUP3 PUSH2 0xA42 JUMP JUMPDEST SWAP2 POP PUSH2 0x930 DUP4 PUSH2 0xA42 JUMP JUMPDEST SWAP3 POP DUP3 PUSH32 0xFFFFFFFFFFFFFFFFFFFFFFFFFFFFFFFFFFFFFFFFFFFFFFFFFFFFFFFFFFFFFFFF SUB DUP3 GT ISZERO PUSH2 0x965 JUMPI PUSH2 0x964 PUSH2 0xA4C JUMP JUMPDEST JUMPDEST DUP3 DUP3 ADD SWAP1 POP SWAP3 SWAP2 POP POP JUMP JUMPDEST PUSH1 0x0 PUSH2 0x97B DUP3 PUSH2 0xA42 JUMP JUMPDEST SWAP2 POP PUSH2 0x986 DUP4 PUSH2 0xA42 JUMP JUMPDEST SWAP3 POP DUP2 PUSH32 0xFFFFFFFFFFFFFFFFFFFFFFFFFFFFFFFFFFFFFFFFFFFFFFFFFFFFFFFFFFFFFFFF DIV DUP4 GT DUP3 ISZERO ISZERO AND ISZERO PUSH2 0x9BF JUMPI PUSH2 0x9BE PUSH2 0xA4C JUMP JUMPDEST JUMPDEST DUP3 DUP3 MUL SWAP1 POP SWAP3 SWAP2 POP POP JUMP JUMPDEST PUSH1 0x0 PUSH2 0x9D5 DUP3 PUSH2 0xA42 JUMP JUMPDEST SWAP2 POP PUSH2 0x9E0 DUP4 PUSH2 0xA42 JUMP JUMPDEST SWAP3 POP DUP3 DUP3 LT ISZERO PUSH2 0x9F3 JUMPI PUSH2 0x9F2 PUSH2 0xA4C JUMP JUMPDEST JUMPDEST DUP3 DUP3 SUB SWAP1 POP SWAP3 SWAP2 POP POP JUMP JUMPDEST PUSH1 0x0 PUSH2 0xA09 DUP3 PUSH2 0xA22 JUMP JUMPDEST SWAP1 POP SWAP2 SWAP1 POP JUMP JUMPDEST PUSH1 0x0 PUSH2 0xA1B DUP3 PUSH2 0xA22 JUMP JUMPDEST SWAP1 POP SWAP2 SWAP1 POP JUMP JUMPDEST PUSH1 0x0 PUSH20 0xFFFFFFFFFFFFFFFFFFFFFFFFFFFFFFFFFFFFFFFF DUP3 AND SWAP1 POP SWAP2 SWAP1 POP JUMP JUMPDEST PUSH1 0x0 DUP2 SWAP1 POP SWAP2 SWAP1 POP JUMP JUMPDEST PUSH32 0x4E487B7100000000000000000000000000000000000000000000000000000000 PUSH1 0x0 MSTORE PUSH1 0x11 PUSH1 0x4 MSTORE PUSH1 0x24 PUSH1 0x0 REVERT JUMPDEST PUSH1 0x0 DUP1 REVERT JUMPDEST PUSH2 0xA89 DUP2 PUSH2 0x9FE JUMP JUMPDEST DUP2 EQ PUSH2 0xA94 JUMPI PUSH1 0x0 DUP1 REVERT JUMPDEST POP JUMP JUMPDEST PUSH2 0xAA0 DUP2 PUSH2 0xA10 JUMP JUMPDEST DUP2 EQ PUSH2 0xAAB JUMPI PUSH1 0x0 DUP1 REVERT JUMPDEST POP JUMP JUMPDEST PUSH2 0xAB7 DUP2 PUSH2 0xA42 JUMP JUMPDEST DUP2 EQ PUSH2 0xAC2 JUMPI PUSH1 0x0 DUP1 REVERT JUMPDEST POP JUMP INVALID LOG2 PUSH5 0x6970667358 0x22 SLT KECCAK256 0xB6 0xDF DUP9 ADD 0xC0 0xBE 0xAA SWAP7 0xAF MLOAD 0xBF 0x5E 0xC6 DUP12 0x4E CHAINID SDIV 0x26 0xD8 SWAP12 0x25 0xAF SLT 0x5C 0xAC 0xE1 0xC3 0xBF SLOAD PUSH3 0x571B64 PUSH20 0x6F6C634300080700330000000000000000000000 "
				},
				"gasEstimates": {
					"creation": {
						"codeDepositCost": "562200",
						"executionCost": "228820",
						"totalCost": "791020"
					},
					"external": {
						"balCheck()": "infinite",
						"balance()": "2518",
						"balances(address)": "2904",
						"btc1()": "2451",
						"btc2()": "2452",
						"btc3()": "2497",
						"btc4()": "2475",
						"btc5()": "2453",
						"btc6()": "2496",
						"btc7()": "2495",
						"btc8()": "2474",
						"btp()": "2474",
						"getBalance(address)": "3367",
						"getConsumerTariff(uint256)": "infinite",
						"getProsumerTariff(uint256)": "infinite",
						"getnPnCnEV(uint256,uint256,uint256)": "infinite",
						"send(address,uint256)": "infinite"
					}
				},
				"methodIdentifiers": {
					"balCheck()": "7c134b14",
					"balance()": "b69ef8a8",
					"balances(address)": "27e235e3",
					"btc1()": "c2c496ec",
					"btc2()": "28780a44",
					"btc3()": "20e731a1",
					"btc4()": "103347e7",
					"btc5()": "0c03a1a3",
					"btc6()": "b4ad7fa9",
					"btc7()": "ed2fa5ab",
					"btc8()": "a8bdb68b",
					"btp()": "2c9af64c",
					"getBalance(address)": "f8b2cb4f",
					"getConsumerTariff(uint256)": "721028ec",
					"getProsumerTariff(uint256)": "5c8f6b56",
					"getnPnCnEV(uint256,uint256,uint256)": "f02e48c3",
					"send(address,uint256)": "d0679d34"
				}
			},
			"storageLayout": {
				"storage": [
					{
						"astId": 3,
						"contract": "eth based/truffle/contracts/FLIR_Contract.sol:FLIRContract",
						"label": "owner",
						"offset": 0,
						"slot": "0",
						"type": "t_address"
					},
					{
						"astId": 7,
						"contract": "eth based/truffle/contracts/FLIR_Contract.sol:FLIRContract",
						"label": "balances",
						"offset": 0,
						"slot": "1",
						"type": "t_mapping(t_address,t_uint256)"
					},
					{
						"astId": 15,
						"contract": "eth based/truffle/contracts/FLIR_Contract.sol:FLIRContract",
						"label": "balance",
						"offset": 0,
						"slot": "2",
						"type": "t_uint256"
					},
					{
						"astId": 27,
						"contract": "eth based/truffle/contracts/FLIR_Contract.sol:FLIRContract",
						"label": "btp",
						"offset": 0,
						"slot": "3",
						"type": "t_uint256"
					},
					{
						"astId": 30,
						"contract": "eth based/truffle/contracts/FLIR_Contract.sol:FLIRContract",
						"label": "btc1",
						"offset": 0,
						"slot": "4",
						"type": "t_uint256"
					},
					{
						"astId": 33,
						"contract": "eth based/truffle/contracts/FLIR_Contract.sol:FLIRContract",
						"label": "btc2",
						"offset": 0,
						"slot": "5",
						"type": "t_uint256"
					},
					{
						"astId": 36,
						"contract": "eth based/truffle/contracts/FLIR_Contract.sol:FLIRContract",
						"label": "btc3",
						"offset": 0,
						"slot": "6",
						"type": "t_uint256"
					},
					{
						"astId": 39,
						"contract": "eth based/truffle/contracts/FLIR_Contract.sol:FLIRContract",
						"label": "btc4",
						"offset": 0,
						"slot": "7",
						"type": "t_uint256"
					},
					{
						"astId": 42,
						"contract": "eth based/truffle/contracts/FLIR_Contract.sol:FLIRContract",
						"label": "btc5",
						"offset": 0,
						"slot": "8",
						"type": "t_uint256"
					},
					{
						"astId": 45,
						"contract": "eth based/truffle/contracts/FLIR_Contract.sol:FLIRContract",
						"label": "btc6",
						"offset": 0,
						"slot": "9",
						"type": "t_uint256"
					},
					{
						"astId": 48,
						"contract": "eth based/truffle/contracts/FLIR_Contract.sol:FLIRContract",
						"label": "btc7",
						"offset": 0,
						"slot": "10",
						"type": "t_uint256"
					},
					{
						"astId": 51,
						"contract": "eth based/truffle/contracts/FLIR_Contract.sol:FLIRContract",
						"label": "btc8",
						"offset": 0,
						"slot": "11",
						"type": "t_uint256"
					}
				],
				"types": {
					"t_address": {
						"encoding": "inplace",
						"label": "address",
						"numberOfBytes": "20"
					},
					"t_mapping(t_address,t_uint256)": {
						"encoding": "mapping",
						"key": "t_address",
						"label": "mapping(address => uint256)",
						"numberOfBytes": "32",
						"value": "t_uint256"
					},
					"t_uint256": {
						"encoding": "inplace",
						"label": "uint256",
						"numberOfBytes": "32"
					}
				}
			},
			"userdoc": {
				"kind": "user",
				"methods": {},
				"version": 1
			}
		}
	}
}