{
	"eth based/truffle/contracts/FLIR_Contract.sol": {
		"FLIRContract": {
			"abi": [
				{
					"inputs": [],
					"name": "balCheck",
					"outputs": [],
					"stateMutability": "payable",
					"type": "function"
				},
				{
					"inputs": [],
					"name": "balance",
					"outputs": [
						{
							"internalType": "uint256",
							"name": "",
							"type": "uint256"
						}
					],
					"stateMutability": "view",
					"type": "function"
				},
				{
					"inputs": [],
					"name": "btc1",
					"outputs": [
						{
							"internalType": "uint256",
							"name": "",
							"type": "uint256"
						}
					],
					"stateMutability": "view",
					"type": "function"
				},
				{
					"inputs": [],
					"name": "btc2",
					"outputs": [
						{
							"internalType": "uint256",
							"name": "",
							"type": "uint256"
						}
					],
					"stateMutability": "view",
					"type": "function"
				},
				{
					"inputs": [],
					"name": "btc3",
					"outputs": [
						{
							"internalType": "uint256",
							"name": "",
							"type": "uint256"
						}
					],
					"stateMutability": "view",
					"type": "function"
				},
				{
					"inputs": [],
					"name": "btc4",
					"outputs": [
						{
							"internalType": "uint256",
							"name": "",
							"type": "uint256"
						}
					],
					"stateMutability": "view",
					"type": "function"
				},
				{
					"inputs": [],
					"name": "btc5",
					"outputs": [
						{
							"internalType": "uint256",
							"name": "",
							"type": "uint256"
						}
					],
					"stateMutability": "view",
					"type": "function"
				},
				{
					"inputs": [],
					"name": "btc6",
					"outputs": [
						{
							"internalType": "uint256",
							"name": "",
							"type": "uint256"
						}
					],
					"stateMutability": "view",
					"type": "function"
				},
				{
					"inputs": [],
					"name": "btc7",
					"outputs": [
						{
							"internalType": "uint256",
							"name": "",
							"type": "uint256"
						}
					],
					"stateMutability": "view",
					"type": "function"
				},
				{
					"inputs": [],
					"name": "btc8",
					"outputs": [
						{
							"internalType": "uint256",
							"name": "",
							"type": "uint256"
						}
					],
					"stateMutability": "view",
					"type": "function"
				},
				{
					"inputs": [],
					"name": "btp",
					"outputs": [
						{
							"internalType": "uint256",
							"name": "",
							"type": "uint256"
						}
					],
					"stateMutability": "view",
					"type": "function"
				},
				{
					"inputs": [
						{
							"internalType": "address",
							"name": "_balanceCheck",
							"type": "address"
						}
					],
					"name": "getBalance",
					"outputs": [
						{
							"internalType": "uint256",
							"name": "bal",
							"type": "uint256"
						}
					],
					"stateMutability": "nonpayable",
					"type": "function"
				},
				{
					"inputs": [
						{
							"internalType": "uint256",
							"name": "Cimp",
							"type": "uint256"
						}
					],
					"name": "getConsumerTariff",
					"outputs": [
						{
							"internalType": "uint256",
							"name": "Tc",
							"type": "uint256"
						}
					],
					"stateMutability": "nonpayable",
					"type": "function"
				},
				{
					"inputs": [
						{
							"internalType": "uint256",
							"name": "Pexp",
							"type": "uint256"
						}
					],
					"name": "getProsumerTariff",
					"outputs": [
						{
							"internalType": "uint256",
							"name": "Tp",
							"type": "uint256"
						}
					],
					"stateMutability": "nonpayable",
					"type": "function"
				},
				{
					"inputs": [
						{
							"internalType": "uint256",
							"name": "nPget",
							"type": "uint256"
						},
						{
							"internalType": "uint256",
							"name": "nCget",
							"type": "uint256"
						},
						{
							"internalType": "uint256",
							"name": "nEVget",
							"type": "uint256"
						}
					],
					"name": "getnPnCnEV",
					"outputs": [
						{
							"internalType": "uint256",
							"name": "nP",
							"type": "uint256"
						},
						{
							"internalType": "uint256",
							"name": "nC",
							"type": "uint256"
						},
						{
							"internalType": "uint256",
							"name": "nEV",
							"type": "uint256"
						}
					],
					"stateMutability": "nonpayable",
					"type": "function"
				},
				{
					"inputs": [],
					"name": "manager",
					"outputs": [
						{
							"internalType": "address",
							"name": "",
							"type": "address"
						}
					],
					"stateMutability": "view",
					"type": "function"
				},
				{
					"inputs": [],
					"name": "owner",
					"outputs": [
						{
							"internalType": "address",
							"name": "",
							"type": "address"
						}
					],
					"stateMutability": "view",
					"type": "function"
				},
				{
					"inputs": [
						{
							"internalType": "uint256",
							"name": "",
							"type": "uint256"
						}
					],
					"name": "seller",
					"outputs": [
						{
							"internalType": "address",
							"name": "",
							"type": "address"
						}
					],
					"stateMutability": "view",
					"type": "function"
				},
				{
					"inputs": [
						{
							"internalType": "address payable",
							"name": "_receiver",
							"type": "address"
						},
						{
							"internalType": "uint256",
							"name": "amount",
							"type": "uint256"
						}
					],
					"name": "send",
					"outputs": [],
					"stateMutability": "payable",
					"type": "function"
				}
			],
			"devdoc": {
				"kind": "dev",
				"methods": {},
				"version": 1
			},
			"evm": {
				"assembly": "    /* \"eth based/truffle/contracts/FLIR_Contract.sol\":129:3928  contract FLIRContract{... */\n  mstore(0x40, 0x80)\n    /* \"eth based/truffle/contracts/FLIR_Contract.sol\":749:750  0 */\n  0x00\n    /* \"eth based/truffle/contracts/FLIR_Contract.sol\":727:750  uint public balance = 0 */\n  0x12\n  sstore\n    /* \"eth based/truffle/contracts/FLIR_Contract.sol\":915:916  3 */\n  0x03\n    /* \"eth based/truffle/contracts/FLIR_Contract.sol\":897:916  uint public btp = 3 */\n  0x13\n  sstore\n    /* \"eth based/truffle/contracts/FLIR_Contract.sol\":942:943  3 */\n  0x03\n    /* \"eth based/truffle/contracts/FLIR_Contract.sol\":923:943  uint public btc1 = 3 */\n  0x14\n  sstore\n    /* \"eth based/truffle/contracts/FLIR_Contract.sol\":968:969  4 */\n  0x04\n    /* \"eth based/truffle/contracts/FLIR_Contract.sol\":949:969  uint public btc2 = 4 */\n  0x15\n  sstore\n    /* \"eth based/truffle/contracts/FLIR_Contract.sol\":994:995  5 */\n  0x05\n    /* \"eth based/truffle/contracts/FLIR_Contract.sol\":975:995  uint public btc3 = 5 */\n  0x16\n  sstore\n    /* \"eth based/truffle/contracts/FLIR_Contract.sol\":1020:1021  6 */\n  0x06\n    /* \"eth based/truffle/contracts/FLIR_Contract.sol\":1001:1021  uint public btc4 = 6 */\n  0x17\n  sstore\n    /* \"eth based/truffle/contracts/FLIR_Contract.sol\":1046:1047  7 */\n  0x07\n    /* \"eth based/truffle/contracts/FLIR_Contract.sol\":1027:1047  uint public btc5 = 7 */\n  0x18\n  sstore\n    /* \"eth based/truffle/contracts/FLIR_Contract.sol\":1072:1073  8 */\n  0x08\n    /* \"eth based/truffle/contracts/FLIR_Contract.sol\":1053:1073  uint public btc6 = 8 */\n  0x19\n  sstore\n    /* \"eth based/truffle/contracts/FLIR_Contract.sol\":1098:1099  9 */\n  0x09\n    /* \"eth based/truffle/contracts/FLIR_Contract.sol\":1079:1099  uint public btc7 = 9 */\n  0x1a\n  sstore\n    /* \"eth based/truffle/contracts/FLIR_Contract.sol\":1124:1126  10 */\n  0x0a\n    /* \"eth based/truffle/contracts/FLIR_Contract.sol\":1105:1126  uint public btc8 = 10 */\n  0x1b\n  sstore\n    /* \"eth based/truffle/contracts/FLIR_Contract.sol\":129:3928  contract FLIRContract{... */\n  callvalue\n  dup1\n  iszero\n  tag_1\n  jumpi\n  0x00\n  dup1\n  revert\ntag_1:\n  pop\n  dataSize(sub_0)\n  dup1\n  dataOffset(sub_0)\n  0x00\n  codecopy\n  0x00\n  return\nstop\n\nsub_0: assembly {\n        /* \"eth based/truffle/contracts/FLIR_Contract.sol\":129:3928  contract FLIRContract{... */\n      mstore(0x40, 0x80)\n      jumpi(tag_1, lt(calldatasize, 0x04))\n      shr(0xe0, calldataload(0x00))\n      dup1\n      0x8da5cb5b\n      gt\n      tag_21\n      jumpi\n      dup1\n      0xc2c496ec\n      gt\n      tag_22\n      jumpi\n      dup1\n      0xc2c496ec\n      eq\n      tag_16\n      jumpi\n      dup1\n      0xd0679d34\n      eq\n      tag_17\n      jumpi\n      dup1\n      0xed2fa5ab\n      eq\n      tag_18\n      jumpi\n      dup1\n      0xf02e48c3\n      eq\n      tag_19\n      jumpi\n      dup1\n      0xf8b2cb4f\n      eq\n      tag_20\n      jumpi\n      jump(tag_1)\n    tag_22:\n      dup1\n      0x8da5cb5b\n      eq\n      tag_11\n      jumpi\n      dup1\n      0xa8bdb68b\n      eq\n      tag_12\n      jumpi\n      dup1\n      0xaacdfe6f\n      eq\n      tag_13\n      jumpi\n      dup1\n      0xb4ad7fa9\n      eq\n      tag_14\n      jumpi\n      dup1\n      0xb69ef8a8\n      eq\n      tag_15\n      jumpi\n      jump(tag_1)\n    tag_21:\n      dup1\n      0x2c9af64c\n      gt\n      tag_23\n      jumpi\n      dup1\n      0x2c9af64c\n      eq\n      tag_6\n      jumpi\n      dup1\n      0x481c6a75\n      eq\n      tag_7\n      jumpi\n      dup1\n      0x5c8f6b56\n      eq\n      tag_8\n      jumpi\n      dup1\n      0x721028ec\n      eq\n      tag_9\n      jumpi\n      dup1\n      0x7c134b14\n      eq\n      tag_10\n      jumpi\n      jump(tag_1)\n    tag_23:\n      dup1\n      0x0c03a1a3\n      eq\n      tag_2\n      jumpi\n      dup1\n      0x103347e7\n      eq\n      tag_3\n      jumpi\n      dup1\n      0x20e731a1\n      eq\n      tag_4\n      jumpi\n      dup1\n      0x28780a44\n      eq\n      tag_5\n      jumpi\n    tag_1:\n      0x00\n      dup1\n      revert\n        /* \"eth based/truffle/contracts/FLIR_Contract.sol\":1027:1047  uint public btc5 = 7 */\n    tag_2:\n      callvalue\n      dup1\n      iszero\n      tag_24\n      jumpi\n      0x00\n      dup1\n      revert\n    tag_24:\n      pop\n      tag_25\n      tag_26\n      jump\t// in\n    tag_25:\n      mload(0x40)\n      tag_27\n      swap2\n      swap1\n      tag_28\n      jump\t// in\n    tag_27:\n      mload(0x40)\n      dup1\n      swap2\n      sub\n      swap1\n      return\n        /* \"eth based/truffle/contracts/FLIR_Contract.sol\":1001:1021  uint public btc4 = 6 */\n    tag_3:\n      callvalue\n      dup1\n      iszero\n      tag_29\n      jumpi\n      0x00\n      dup1\n      revert\n    tag_29:\n      pop\n      tag_30\n      tag_31\n      jump\t// in\n    tag_30:\n      mload(0x40)\n      tag_32\n      swap2\n      swap1\n      tag_28\n      jump\t// in\n    tag_32:\n      mload(0x40)\n      dup1\n      swap2\n      sub\n      swap1\n      return\n        /* \"eth based/truffle/contracts/FLIR_Contract.sol\":975:995  uint public btc3 = 5 */\n    tag_4:\n      callvalue\n      dup1\n      iszero\n      tag_33\n      jumpi\n      0x00\n      dup1\n      revert\n    tag_33:\n      pop\n      tag_34\n      tag_35\n      jump\t// in\n    tag_34:\n      mload(0x40)\n      tag_36\n      swap2\n      swap1\n      tag_28\n      jump\t// in\n    tag_36:\n      mload(0x40)\n      dup1\n      swap2\n      sub\n      swap1\n      return\n        /* \"eth based/truffle/contracts/FLIR_Contract.sol\":949:969  uint public btc2 = 4 */\n    tag_5:\n      callvalue\n      dup1\n      iszero\n      tag_37\n      jumpi\n      0x00\n      dup1\n      revert\n    tag_37:\n      pop\n      tag_38\n      tag_39\n      jump\t// in\n    tag_38:\n      mload(0x40)\n      tag_40\n      swap2\n      swap1\n      tag_28\n      jump\t// in\n    tag_40:\n      mload(0x40)\n      dup1\n      swap2\n      sub\n      swap1\n      return\n        /* \"eth based/truffle/contracts/FLIR_Contract.sol\":897:916  uint public btp = 3 */\n    tag_6:\n      callvalue\n      dup1\n      iszero\n      tag_41\n      jumpi\n      0x00\n      dup1\n      revert\n    tag_41:\n      pop\n      tag_42\n      tag_43\n      jump\t// in\n    tag_42:\n      mload(0x40)\n      tag_44\n      swap2\n      swap1\n      tag_28\n      jump\t// in\n    tag_44:\n      mload(0x40)\n      dup1\n      swap2\n      sub\n      swap1\n      return\n        /* \"eth based/truffle/contracts/FLIR_Contract.sol\":182:204  address public manager */\n    tag_7:\n      callvalue\n      dup1\n      iszero\n      tag_45\n      jumpi\n      0x00\n      dup1\n      revert\n    tag_45:\n      pop\n      tag_46\n      tag_47\n      jump\t// in\n    tag_46:\n      mload(0x40)\n      tag_48\n      swap2\n      swap1\n      tag_49\n      jump\t// in\n    tag_48:\n      mload(0x40)\n      dup1\n      swap2\n      sub\n      swap1\n      return\n        /* \"eth based/truffle/contracts/FLIR_Contract.sol\":1469:1584  function getProsumerTariff(uint Pexp) public returns (uint Tp){... */\n    tag_8:\n      callvalue\n      dup1\n      iszero\n      tag_50\n      jumpi\n      0x00\n      dup1\n      revert\n    tag_50:\n      pop\n      tag_51\n      0x04\n      dup1\n      calldatasize\n      sub\n      dup2\n      add\n      swap1\n      tag_52\n      swap2\n      swap1\n      tag_53\n      jump\t// in\n    tag_52:\n      tag_54\n      jump\t// in\n    tag_51:\n      mload(0x40)\n      tag_55\n      swap2\n      swap1\n      tag_28\n      jump\t// in\n    tag_55:\n      mload(0x40)\n      dup1\n      swap2\n      sub\n      swap1\n      return\n        /* \"eth based/truffle/contracts/FLIR_Contract.sol\":1590:2580  function getConsumerTariff(uint Cimp) public returns (uint Tc){... */\n    tag_9:\n      callvalue\n      dup1\n      iszero\n      tag_56\n      jumpi\n      0x00\n      dup1\n      revert\n    tag_56:\n      pop\n      tag_57\n      0x04\n      dup1\n      calldatasize\n      sub\n      dup2\n      add\n      swap1\n      tag_58\n      swap2\n      swap1\n      tag_53\n      jump\t// in\n    tag_58:\n      tag_59\n      jump\t// in\n    tag_57:\n      mload(0x40)\n      tag_60\n      swap2\n      swap1\n      tag_28\n      jump\t// in\n    tag_60:\n      mload(0x40)\n      dup1\n      swap2\n      sub\n      swap1\n      return\n        /* \"eth based/truffle/contracts/FLIR_Contract.sol\":2795:2863  function balCheck() public payable {... */\n    tag_10:\n      tag_61\n      tag_62\n      jump\t// in\n    tag_61:\n      stop\n        /* \"eth based/truffle/contracts/FLIR_Contract.sol\":156:176  address public owner */\n    tag_11:\n      callvalue\n      dup1\n      iszero\n      tag_63\n      jumpi\n      0x00\n      dup1\n      revert\n    tag_63:\n      pop\n      tag_64\n      tag_65\n      jump\t// in\n    tag_64:\n      mload(0x40)\n      tag_66\n      swap2\n      swap1\n      tag_49\n      jump\t// in\n    tag_66:\n      mload(0x40)\n      dup1\n      swap2\n      sub\n      swap1\n      return\n        /* \"eth based/truffle/contracts/FLIR_Contract.sol\":1105:1126  uint public btc8 = 10 */\n    tag_12:\n      callvalue\n      dup1\n      iszero\n      tag_67\n      jumpi\n      0x00\n      dup1\n      revert\n    tag_67:\n      pop\n      tag_68\n      tag_69\n      jump\t// in\n    tag_68:\n      mload(0x40)\n      tag_70\n      swap2\n      swap1\n      tag_28\n      jump\t// in\n    tag_70:\n      mload(0x40)\n      dup1\n      swap2\n      sub\n      swap1\n      return\n        /* \"eth based/truffle/contracts/FLIR_Contract.sol\":210:235  address[16] public seller */\n    tag_13:\n      callvalue\n      dup1\n      iszero\n      tag_71\n      jumpi\n      0x00\n      dup1\n      revert\n    tag_71:\n      pop\n      tag_72\n      0x04\n      dup1\n      calldatasize\n      sub\n      dup2\n      add\n      swap1\n      tag_73\n      swap2\n      swap1\n      tag_53\n      jump\t// in\n    tag_73:\n      tag_74\n      jump\t// in\n    tag_72:\n      mload(0x40)\n      tag_75\n      swap2\n      swap1\n      tag_49\n      jump\t// in\n    tag_75:\n      mload(0x40)\n      dup1\n      swap2\n      sub\n      swap1\n      return\n        /* \"eth based/truffle/contracts/FLIR_Contract.sol\":1053:1073  uint public btc6 = 8 */\n    tag_14:\n      callvalue\n      dup1\n      iszero\n      tag_76\n      jumpi\n      0x00\n      dup1\n      revert\n    tag_76:\n      pop\n      tag_77\n      tag_78\n      jump\t// in\n    tag_77:\n      mload(0x40)\n      tag_79\n      swap2\n      swap1\n      tag_28\n      jump\t// in\n    tag_79:\n      mload(0x40)\n      dup1\n      swap2\n      sub\n      swap1\n      return\n        /* \"eth based/truffle/contracts/FLIR_Contract.sol\":727:750  uint public balance = 0 */\n    tag_15:\n      callvalue\n      dup1\n      iszero\n      tag_80\n      jumpi\n      0x00\n      dup1\n      revert\n    tag_80:\n      pop\n      tag_81\n      tag_82\n      jump\t// in\n    tag_81:\n      mload(0x40)\n      tag_83\n      swap2\n      swap1\n      tag_28\n      jump\t// in\n    tag_83:\n      mload(0x40)\n      dup1\n      swap2\n      sub\n      swap1\n      return\n        /* \"eth based/truffle/contracts/FLIR_Contract.sol\":923:943  uint public btc1 = 3 */\n    tag_16:\n      callvalue\n      dup1\n      iszero\n      tag_84\n      jumpi\n      0x00\n      dup1\n      revert\n    tag_84:\n      pop\n      tag_85\n      tag_86\n      jump\t// in\n    tag_85:\n      mload(0x40)\n      tag_87\n      swap2\n      swap1\n      tag_28\n      jump\t// in\n    tag_87:\n      mload(0x40)\n      dup1\n      swap2\n      sub\n      swap1\n      return\n        /* \"eth based/truffle/contracts/FLIR_Contract.sol\":2586:2789  function send(address payable _receiver, uint amount) payable public {... */\n    tag_17:\n      tag_88\n      0x04\n      dup1\n      calldatasize\n      sub\n      dup2\n      add\n      swap1\n      tag_89\n      swap2\n      swap1\n      tag_90\n      jump\t// in\n    tag_89:\n      tag_91\n      jump\t// in\n    tag_88:\n      stop\n        /* \"eth based/truffle/contracts/FLIR_Contract.sol\":1079:1099  uint public btc7 = 9 */\n    tag_18:\n      callvalue\n      dup1\n      iszero\n      tag_92\n      jumpi\n      0x00\n      dup1\n      revert\n    tag_92:\n      pop\n      tag_93\n      tag_94\n      jump\t// in\n    tag_93:\n      mload(0x40)\n      tag_95\n      swap2\n      swap1\n      tag_28\n      jump\t// in\n    tag_95:\n      mload(0x40)\n      dup1\n      swap2\n      sub\n      swap1\n      return\n        /* \"eth based/truffle/contracts/FLIR_Contract.sol\":1140:1463  function getnPnCnEV(uint nPget, uint nCget,uint nEVget) public... */\n    tag_19:\n      callvalue\n      dup1\n      iszero\n      tag_96\n      jumpi\n      0x00\n      dup1\n      revert\n    tag_96:\n      pop\n      tag_97\n      0x04\n      dup1\n      calldatasize\n      sub\n      dup2\n      add\n      swap1\n      tag_98\n      swap2\n      swap1\n      tag_99\n      jump\t// in\n    tag_98:\n      tag_100\n      jump\t// in\n    tag_97:\n      mload(0x40)\n      tag_101\n      swap4\n      swap3\n      swap2\n      swap1\n      tag_102\n      jump\t// in\n    tag_101:\n      mload(0x40)\n      dup1\n      swap2\n      sub\n      swap1\n      return\n        /* \"eth based/truffle/contracts/FLIR_Contract.sol\":2869:3004  function getBalance(address _balanceCheck) public returns (uint bal){... */\n    tag_20:\n      callvalue\n      dup1\n      iszero\n      tag_103\n      jumpi\n      0x00\n      dup1\n      revert\n    tag_103:\n      pop\n      tag_104\n      0x04\n      dup1\n      calldatasize\n      sub\n      dup2\n      add\n      swap1\n      tag_105\n      swap2\n      swap1\n      tag_106\n      jump\t// in\n    tag_105:\n      tag_107\n      jump\t// in\n    tag_104:\n      mload(0x40)\n      tag_108\n      swap2\n      swap1\n      tag_28\n      jump\t// in\n    tag_108:\n      mload(0x40)\n      dup1\n      swap2\n      sub\n      swap1\n      return\n        /* \"eth based/truffle/contracts/FLIR_Contract.sol\":1027:1047  uint public btc5 = 7 */\n    tag_26:\n      sload(0x18)\n      dup2\n      jump\t// out\n        /* \"eth based/truffle/contracts/FLIR_Contract.sol\":1001:1021  uint public btc4 = 6 */\n    tag_31:\n      sload(0x17)\n      dup2\n      jump\t// out\n        /* \"eth based/truffle/contracts/FLIR_Contract.sol\":975:995  uint public btc3 = 5 */\n    tag_35:\n      sload(0x16)\n      dup2\n      jump\t// out\n        /* \"eth based/truffle/contracts/FLIR_Contract.sol\":949:969  uint public btc2 = 4 */\n    tag_39:\n      sload(0x15)\n      dup2\n      jump\t// out\n        /* \"eth based/truffle/contracts/FLIR_Contract.sol\":897:916  uint public btp = 3 */\n    tag_43:\n      sload(0x13)\n      dup2\n      jump\t// out\n        /* \"eth based/truffle/contracts/FLIR_Contract.sol\":182:204  address public manager */\n    tag_47:\n      0x01\n      0x00\n      swap1\n      sload\n      swap1\n      0x0100\n      exp\n      swap1\n      div\n      0xffffffffffffffffffffffffffffffffffffffff\n      and\n      dup2\n      jump\t// out\n        /* \"eth based/truffle/contracts/FLIR_Contract.sol\":1469:1584  function getProsumerTariff(uint Pexp) public returns (uint Tp){... */\n    tag_54:\n        /* \"eth based/truffle/contracts/FLIR_Contract.sol\":1523:1530  uint Tp */\n      0x00\n        /* \"eth based/truffle/contracts/FLIR_Contract.sol\":1553:1556  btp */\n      sload(0x13)\n        /* \"eth based/truffle/contracts/FLIR_Contract.sol\":1546:1550  Pexp */\n      dup3\n        /* \"eth based/truffle/contracts/FLIR_Contract.sol\":1546:1556  Pexp * btp */\n      tag_110\n      swap2\n      swap1\n      tag_111\n      jump\t// in\n    tag_110:\n        /* \"eth based/truffle/contracts/FLIR_Contract.sol\":1541:1556  Tp = Pexp * btp */\n      swap1\n      pop\n        /* \"eth based/truffle/contracts/FLIR_Contract.sol\":1469:1584  function getProsumerTariff(uint Pexp) public returns (uint Tp){... */\n      swap2\n      swap1\n      pop\n      jump\t// out\n        /* \"eth based/truffle/contracts/FLIR_Contract.sol\":1590:2580  function getConsumerTariff(uint Cimp) public returns (uint Tc){... */\n    tag_59:\n        /* \"eth based/truffle/contracts/FLIR_Contract.sol\":1644:1651  uint Tc */\n      0x00\n        /* \"eth based/truffle/contracts/FLIR_Contract.sol\":1681:1684  251 */\n      0xfb\n        /* \"eth based/truffle/contracts/FLIR_Contract.sol\":1674:1678  Cimp */\n      dup3\n        /* \"eth based/truffle/contracts/FLIR_Contract.sol\":1674:1684  Cimp < 251 */\n      lt\n        /* \"eth based/truffle/contracts/FLIR_Contract.sol\":1671:2553  if(Cimp < 251){... */\n      iszero\n      tag_113\n      jumpi\n        /* \"eth based/truffle/contracts/FLIR_Contract.sol\":1709:1711  51 */\n      0x33\n        /* \"eth based/truffle/contracts/FLIR_Contract.sol\":1702:1706  Cimp */\n      dup3\n        /* \"eth based/truffle/contracts/FLIR_Contract.sol\":1702:1711  Cimp < 51 */\n      lt\n        /* \"eth based/truffle/contracts/FLIR_Contract.sol\":1699:2308  if(Cimp < 51){... */\n      iszero\n      tag_114\n      jumpi\n        /* \"eth based/truffle/contracts/FLIR_Contract.sol\":1742:1746  btc1 */\n      sload(0x14)\n        /* \"eth based/truffle/contracts/FLIR_Contract.sol\":1735:1739  Cimp */\n      dup3\n        /* \"eth based/truffle/contracts/FLIR_Contract.sol\":1735:1746  Cimp * btc1 */\n      tag_115\n      swap2\n      swap1\n      tag_111\n      jump\t// in\n    tag_115:\n        /* \"eth based/truffle/contracts/FLIR_Contract.sol\":1730:1746  Tc = Cimp * btc1 */\n      swap1\n      pop\n        /* \"eth based/truffle/contracts/FLIR_Contract.sol\":1699:2308  if(Cimp < 51){... */\n      jump(tag_116)\n    tag_114:\n        /* \"eth based/truffle/contracts/FLIR_Contract.sol\":1789:1791  50 */\n      0x32\n        /* \"eth based/truffle/contracts/FLIR_Contract.sol\":1782:1786  Cimp */\n      dup3\n        /* \"eth based/truffle/contracts/FLIR_Contract.sol\":1782:1791  Cimp > 50 */\n      gt\n        /* \"eth based/truffle/contracts/FLIR_Contract.sol\":1782:1805  Cimp > 50 && Cimp < 101 */\n      dup1\n      iszero\n      tag_117\n      jumpi\n      pop\n        /* \"eth based/truffle/contracts/FLIR_Contract.sol\":1802:1805  101 */\n      0x65\n        /* \"eth based/truffle/contracts/FLIR_Contract.sol\":1795:1799  Cimp */\n      dup3\n        /* \"eth based/truffle/contracts/FLIR_Contract.sol\":1795:1805  Cimp < 101 */\n      lt\n        /* \"eth based/truffle/contracts/FLIR_Contract.sol\":1782:1805  Cimp > 50 && Cimp < 101 */\n    tag_117:\n        /* \"eth based/truffle/contracts/FLIR_Contract.sol\":1779:2308  if(Cimp > 50 && Cimp < 101){... */\n      iszero\n      tag_118\n      jumpi\n        /* \"eth based/truffle/contracts/FLIR_Contract.sol\":1856:1860  btc2 */\n      sload(0x15)\n        /* \"eth based/truffle/contracts/FLIR_Contract.sol\":1850:1852  50 */\n      0x32\n        /* \"eth based/truffle/contracts/FLIR_Contract.sol\":1845:1849  Cimp */\n      dup4\n        /* \"eth based/truffle/contracts/FLIR_Contract.sol\":1845:1852  Cimp-50 */\n      tag_119\n      swap2\n      swap1\n      tag_120\n      jump\t// in\n    tag_119:\n        /* \"eth based/truffle/contracts/FLIR_Contract.sol\":1844:1860  (Cimp-50) * btc2 */\n      tag_121\n      swap2\n      swap1\n      tag_111\n      jump\t// in\n    tag_121:\n        /* \"eth based/truffle/contracts/FLIR_Contract.sol\":1835:1839  btc1 */\n      sload(0x14)\n        /* \"eth based/truffle/contracts/FLIR_Contract.sol\":1830:1832  50 */\n      0x32\n        /* \"eth based/truffle/contracts/FLIR_Contract.sol\":1830:1839  50 * btc1 */\n      tag_122\n      swap2\n      swap1\n      tag_111\n      jump\t// in\n    tag_122:\n        /* \"eth based/truffle/contracts/FLIR_Contract.sol\":1829:1861  (50 * btc1) + ((Cimp-50) * btc2) */\n      tag_123\n      swap2\n      swap1\n      tag_124\n      jump\t// in\n    tag_123:\n        /* \"eth based/truffle/contracts/FLIR_Contract.sol\":1824:1861  Tc = (50 * btc1) + ((Cimp-50) * btc2) */\n      swap1\n      pop\n        /* \"eth based/truffle/contracts/FLIR_Contract.sol\":1779:2308  if(Cimp > 50 && Cimp < 101){... */\n      jump(tag_125)\n    tag_118:\n        /* \"eth based/truffle/contracts/FLIR_Contract.sol\":1904:1907  100 */\n      0x64\n        /* \"eth based/truffle/contracts/FLIR_Contract.sol\":1897:1901  Cimp */\n      dup3\n        /* \"eth based/truffle/contracts/FLIR_Contract.sol\":1897:1907  Cimp > 100 */\n      gt\n        /* \"eth based/truffle/contracts/FLIR_Contract.sol\":1897:1921  Cimp > 100 && Cimp < 151 */\n      dup1\n      iszero\n      tag_126\n      jumpi\n      pop\n        /* \"eth based/truffle/contracts/FLIR_Contract.sol\":1918:1921  151 */\n      0x97\n        /* \"eth based/truffle/contracts/FLIR_Contract.sol\":1911:1915  Cimp */\n      dup3\n        /* \"eth based/truffle/contracts/FLIR_Contract.sol\":1911:1921  Cimp < 151 */\n      lt\n        /* \"eth based/truffle/contracts/FLIR_Contract.sol\":1897:1921  Cimp > 100 && Cimp < 151 */\n    tag_126:\n        /* \"eth based/truffle/contracts/FLIR_Contract.sol\":1894:2308  if(Cimp > 100 && Cimp < 151){... */\n      iszero\n      tag_127\n      jumpi\n        /* \"eth based/truffle/contracts/FLIR_Contract.sol\":1986:1990  btc3 */\n      sload(0x16)\n        /* \"eth based/truffle/contracts/FLIR_Contract.sol\":1980:1982  50 */\n      0x32\n        /* \"eth based/truffle/contracts/FLIR_Contract.sol\":1975:1979  Cimp */\n      dup4\n        /* \"eth based/truffle/contracts/FLIR_Contract.sol\":1975:1982  Cimp-50 */\n      tag_128\n      swap2\n      swap1\n      tag_120\n      jump\t// in\n    tag_128:\n        /* \"eth based/truffle/contracts/FLIR_Contract.sol\":1974:1990  (Cimp-50) * btc3 */\n      tag_129\n      swap2\n      swap1\n      tag_111\n      jump\t// in\n    tag_129:\n        /* \"eth based/truffle/contracts/FLIR_Contract.sol\":1965:1969  btc2 */\n      sload(0x15)\n        /* \"eth based/truffle/contracts/FLIR_Contract.sol\":1960:1962  50 */\n      0x32\n        /* \"eth based/truffle/contracts/FLIR_Contract.sol\":1960:1969  50 * btc2 */\n      tag_130\n      swap2\n      swap1\n      tag_111\n      jump\t// in\n    tag_130:\n        /* \"eth based/truffle/contracts/FLIR_Contract.sol\":1951:1955  btc1 */\n      sload(0x14)\n        /* \"eth based/truffle/contracts/FLIR_Contract.sol\":1946:1948  50 */\n      0x32\n        /* \"eth based/truffle/contracts/FLIR_Contract.sol\":1946:1955  50 * btc1 */\n      tag_131\n      swap2\n      swap1\n      tag_111\n      jump\t// in\n    tag_131:\n        /* \"eth based/truffle/contracts/FLIR_Contract.sol\":1945:1970  (50 * btc1) + (50 * btc2) */\n      tag_132\n      swap2\n      swap1\n      tag_124\n      jump\t// in\n    tag_132:\n        /* \"eth based/truffle/contracts/FLIR_Contract.sol\":1945:1991  (50 * btc1) + (50 * btc2) + ((Cimp-50) * btc3) */\n      tag_133\n      swap2\n      swap1\n      tag_124\n      jump\t// in\n    tag_133:\n        /* \"eth based/truffle/contracts/FLIR_Contract.sol\":1940:1991  Tc = (50 * btc1) + (50 * btc2) + ((Cimp-50) * btc3) */\n      swap1\n      pop\n        /* \"eth based/truffle/contracts/FLIR_Contract.sol\":1894:2308  if(Cimp > 100 && Cimp < 151){... */\n      jump(tag_134)\n    tag_127:\n        /* \"eth based/truffle/contracts/FLIR_Contract.sol\":2034:2037  150 */\n      0x96\n        /* \"eth based/truffle/contracts/FLIR_Contract.sol\":2027:2031  Cimp */\n      dup3\n        /* \"eth based/truffle/contracts/FLIR_Contract.sol\":2027:2037  Cimp > 150 */\n      gt\n        /* \"eth based/truffle/contracts/FLIR_Contract.sol\":2027:2051  Cimp > 150 && Cimp < 201 */\n      dup1\n      iszero\n      tag_135\n      jumpi\n      pop\n        /* \"eth based/truffle/contracts/FLIR_Contract.sol\":2048:2051  201 */\n      0xc9\n        /* \"eth based/truffle/contracts/FLIR_Contract.sol\":2041:2045  Cimp */\n      dup3\n        /* \"eth based/truffle/contracts/FLIR_Contract.sol\":2041:2051  Cimp < 201 */\n      lt\n        /* \"eth based/truffle/contracts/FLIR_Contract.sol\":2027:2051  Cimp > 150 && Cimp < 201 */\n    tag_135:\n        /* \"eth based/truffle/contracts/FLIR_Contract.sol\":2024:2308  if(Cimp > 150 && Cimp < 201){... */\n      iszero\n      tag_136\n      jumpi\n        /* \"eth based/truffle/contracts/FLIR_Contract.sol\":2130:2134  btc4 */\n      sload(0x17)\n        /* \"eth based/truffle/contracts/FLIR_Contract.sol\":2124:2126  50 */\n      0x32\n        /* \"eth based/truffle/contracts/FLIR_Contract.sol\":2119:2123  Cimp */\n      dup4\n        /* \"eth based/truffle/contracts/FLIR_Contract.sol\":2119:2126  Cimp-50 */\n      tag_137\n      swap2\n      swap1\n      tag_120\n      jump\t// in\n    tag_137:\n        /* \"eth based/truffle/contracts/FLIR_Contract.sol\":2118:2134  (Cimp-50) * btc4 */\n      tag_138\n      swap2\n      swap1\n      tag_111\n      jump\t// in\n    tag_138:\n        /* \"eth based/truffle/contracts/FLIR_Contract.sol\":2109:2113  btc3 */\n      sload(0x16)\n        /* \"eth based/truffle/contracts/FLIR_Contract.sol\":2104:2106  50 */\n      0x32\n        /* \"eth based/truffle/contracts/FLIR_Contract.sol\":2104:2113  50 * btc3 */\n      tag_139\n      swap2\n      swap1\n      tag_111\n      jump\t// in\n    tag_139:\n        /* \"eth based/truffle/contracts/FLIR_Contract.sol\":2095:2099  btc2 */\n      sload(0x15)\n        /* \"eth based/truffle/contracts/FLIR_Contract.sol\":2090:2092  50 */\n      0x32\n        /* \"eth based/truffle/contracts/FLIR_Contract.sol\":2090:2099  50 * btc2 */\n      tag_140\n      swap2\n      swap1\n      tag_111\n      jump\t// in\n    tag_140:\n        /* \"eth based/truffle/contracts/FLIR_Contract.sol\":2081:2085  btc1 */\n      sload(0x14)\n        /* \"eth based/truffle/contracts/FLIR_Contract.sol\":2076:2078  50 */\n      0x32\n        /* \"eth based/truffle/contracts/FLIR_Contract.sol\":2076:2085  50 * btc1 */\n      tag_141\n      swap2\n      swap1\n      tag_111\n      jump\t// in\n    tag_141:\n        /* \"eth based/truffle/contracts/FLIR_Contract.sol\":2075:2100  (50 * btc1) + (50 * btc2) */\n      tag_142\n      swap2\n      swap1\n      tag_124\n      jump\t// in\n    tag_142:\n        /* \"eth based/truffle/contracts/FLIR_Contract.sol\":2075:2114  (50 * btc1) + (50 * btc2) + (50 * btc3) */\n      tag_143\n      swap2\n      swap1\n      tag_124\n      jump\t// in\n    tag_143:\n        /* \"eth based/truffle/contracts/FLIR_Contract.sol\":2075:2135  (50 * btc1) + (50 * btc2) + (50 * btc3) + ((Cimp-50) * btc4) */\n      tag_144\n      swap2\n      swap1\n      tag_124\n      jump\t// in\n    tag_144:\n        /* \"eth based/truffle/contracts/FLIR_Contract.sol\":2070:2135  Tc = (50 * btc1) + (50 * btc2) + (50 * btc3) + ((Cimp-50) * btc4) */\n      swap1\n      pop\n        /* \"eth based/truffle/contracts/FLIR_Contract.sol\":2024:2308  if(Cimp > 150 && Cimp < 201){... */\n      jump(tag_145)\n    tag_136:\n        /* \"eth based/truffle/contracts/FLIR_Contract.sol\":2178:2181  200 */\n      0xc8\n        /* \"eth based/truffle/contracts/FLIR_Contract.sol\":2171:2175  Cimp */\n      dup3\n        /* \"eth based/truffle/contracts/FLIR_Contract.sol\":2171:2181  Cimp > 200 */\n      gt\n        /* \"eth based/truffle/contracts/FLIR_Contract.sol\":2171:2195  Cimp > 200 && Cimp < 251 */\n      dup1\n      iszero\n      tag_146\n      jumpi\n      pop\n        /* \"eth based/truffle/contracts/FLIR_Contract.sol\":2192:2195  251 */\n      0xfb\n        /* \"eth based/truffle/contracts/FLIR_Contract.sol\":2185:2189  Cimp */\n      dup3\n        /* \"eth based/truffle/contracts/FLIR_Contract.sol\":2185:2195  Cimp < 251 */\n      lt\n        /* \"eth based/truffle/contracts/FLIR_Contract.sol\":2171:2195  Cimp > 200 && Cimp < 251 */\n    tag_146:\n        /* \"eth based/truffle/contracts/FLIR_Contract.sol\":2168:2308  if(Cimp > 200 && Cimp < 251){... */\n      iszero\n      tag_147\n      jumpi\n        /* \"eth based/truffle/contracts/FLIR_Contract.sol\":2288:2292  btc5 */\n      sload(0x18)\n        /* \"eth based/truffle/contracts/FLIR_Contract.sol\":2282:2284  50 */\n      0x32\n        /* \"eth based/truffle/contracts/FLIR_Contract.sol\":2277:2281  Cimp */\n      dup4\n        /* \"eth based/truffle/contracts/FLIR_Contract.sol\":2277:2284  Cimp-50 */\n      tag_148\n      swap2\n      swap1\n      tag_120\n      jump\t// in\n    tag_148:\n        /* \"eth based/truffle/contracts/FLIR_Contract.sol\":2276:2292  (Cimp-50) * btc5 */\n      tag_149\n      swap2\n      swap1\n      tag_111\n      jump\t// in\n    tag_149:\n        /* \"eth based/truffle/contracts/FLIR_Contract.sol\":2267:2271  btc4 */\n      sload(0x17)\n        /* \"eth based/truffle/contracts/FLIR_Contract.sol\":2262:2264  50 */\n      0x32\n        /* \"eth based/truffle/contracts/FLIR_Contract.sol\":2262:2271  50 * btc4 */\n      tag_150\n      swap2\n      swap1\n      tag_111\n      jump\t// in\n    tag_150:\n        /* \"eth based/truffle/contracts/FLIR_Contract.sol\":2253:2257  btc3 */\n      sload(0x16)\n        /* \"eth based/truffle/contracts/FLIR_Contract.sol\":2248:2250  50 */\n      0x32\n        /* \"eth based/truffle/contracts/FLIR_Contract.sol\":2248:2257  50 * btc3 */\n      tag_151\n      swap2\n      swap1\n      tag_111\n      jump\t// in\n    tag_151:\n        /* \"eth based/truffle/contracts/FLIR_Contract.sol\":2239:2243  btc2 */\n      sload(0x15)\n        /* \"eth based/truffle/contracts/FLIR_Contract.sol\":2234:2236  50 */\n      0x32\n        /* \"eth based/truffle/contracts/FLIR_Contract.sol\":2234:2243  50 * btc2 */\n      tag_152\n      swap2\n      swap1\n      tag_111\n      jump\t// in\n    tag_152:\n        /* \"eth based/truffle/contracts/FLIR_Contract.sol\":2225:2229  btc1 */\n      sload(0x14)\n        /* \"eth based/truffle/contracts/FLIR_Contract.sol\":2220:2222  50 */\n      0x32\n        /* \"eth based/truffle/contracts/FLIR_Contract.sol\":2220:2229  50 * btc1 */\n      tag_153\n      swap2\n      swap1\n      tag_111\n      jump\t// in\n    tag_153:\n        /* \"eth based/truffle/contracts/FLIR_Contract.sol\":2219:2244  (50 * btc1) + (50 * btc2) */\n      tag_154\n      swap2\n      swap1\n      tag_124\n      jump\t// in\n    tag_154:\n        /* \"eth based/truffle/contracts/FLIR_Contract.sol\":2219:2258  (50 * btc1) + (50 * btc2) + (50 * btc3) */\n      tag_155\n      swap2\n      swap1\n      tag_124\n      jump\t// in\n    tag_155:\n        /* \"eth based/truffle/contracts/FLIR_Contract.sol\":2219:2272  (50 * btc1) + (50 * btc2) + (50 * btc3) + (50 * btc4) */\n      tag_156\n      swap2\n      swap1\n      tag_124\n      jump\t// in\n    tag_156:\n        /* \"eth based/truffle/contracts/FLIR_Contract.sol\":2219:2293  (50 * btc1) + (50 * btc2) + (50 * btc3) + (50 * btc4) + ((Cimp-50) * btc5) */\n      tag_157\n      swap2\n      swap1\n      tag_124\n      jump\t// in\n    tag_157:\n        /* \"eth based/truffle/contracts/FLIR_Contract.sol\":2214:2293  Tc = (50 * btc1) + (50 * btc2) + (50 * btc3) + (50 * btc4) + ((Cimp-50) * btc5) */\n      swap1\n      pop\n        /* \"eth based/truffle/contracts/FLIR_Contract.sol\":2168:2308  if(Cimp > 200 && Cimp < 251){... */\n    tag_147:\n        /* \"eth based/truffle/contracts/FLIR_Contract.sol\":2024:2308  if(Cimp > 150 && Cimp < 201){... */\n    tag_145:\n        /* \"eth based/truffle/contracts/FLIR_Contract.sol\":1894:2308  if(Cimp > 100 && Cimp < 151){... */\n    tag_134:\n        /* \"eth based/truffle/contracts/FLIR_Contract.sol\":1779:2308  if(Cimp > 50 && Cimp < 101){... */\n    tag_125:\n        /* \"eth based/truffle/contracts/FLIR_Contract.sol\":1699:2308  if(Cimp < 51){... */\n    tag_116:\n        /* \"eth based/truffle/contracts/FLIR_Contract.sol\":1671:2553  if(Cimp < 251){... */\n      jump(tag_158)\n    tag_113:\n        /* \"eth based/truffle/contracts/FLIR_Contract.sol\":2342:2345  250 */\n      0xfa\n        /* \"eth based/truffle/contracts/FLIR_Contract.sol\":2335:2339  Cimp */\n      dup3\n        /* \"eth based/truffle/contracts/FLIR_Contract.sol\":2335:2345  Cimp > 250 */\n      gt\n        /* \"eth based/truffle/contracts/FLIR_Contract.sol\":2335:2359  Cimp > 250 && Cimp < 351 */\n      dup1\n      iszero\n      tag_159\n      jumpi\n      pop\n        /* \"eth based/truffle/contracts/FLIR_Contract.sol\":2356:2359  351 */\n      0x015f\n        /* \"eth based/truffle/contracts/FLIR_Contract.sol\":2349:2353  Cimp */\n      dup3\n        /* \"eth based/truffle/contracts/FLIR_Contract.sol\":2349:2359  Cimp < 351 */\n      lt\n        /* \"eth based/truffle/contracts/FLIR_Contract.sol\":2335:2359  Cimp > 250 && Cimp < 351 */\n    tag_159:\n        /* \"eth based/truffle/contracts/FLIR_Contract.sol\":2332:2553  if(Cimp > 250 && Cimp < 351){... */\n      iszero\n      tag_160\n      jumpi\n        /* \"eth based/truffle/contracts/FLIR_Contract.sol\":2386:2390  btc6 */\n      sload(0x19)\n        /* \"eth based/truffle/contracts/FLIR_Contract.sol\":2379:2383  Cimp */\n      dup3\n        /* \"eth based/truffle/contracts/FLIR_Contract.sol\":2379:2390  Cimp * btc6 */\n      tag_161\n      swap2\n      swap1\n      tag_111\n      jump\t// in\n    tag_161:\n        /* \"eth based/truffle/contracts/FLIR_Contract.sol\":2374:2390  Tc = Cimp * btc6 */\n      swap1\n      pop\n        /* \"eth based/truffle/contracts/FLIR_Contract.sol\":2332:2553  if(Cimp > 250 && Cimp < 351){... */\n      jump(tag_162)\n    tag_160:\n        /* \"eth based/truffle/contracts/FLIR_Contract.sol\":2425:2428  350 */\n      0x015e\n        /* \"eth based/truffle/contracts/FLIR_Contract.sol\":2418:2422  Cimp */\n      dup3\n        /* \"eth based/truffle/contracts/FLIR_Contract.sol\":2418:2428  Cimp > 350 */\n      gt\n        /* \"eth based/truffle/contracts/FLIR_Contract.sol\":2418:2442  Cimp > 350 && Cimp < 451 */\n      dup1\n      iszero\n      tag_163\n      jumpi\n      pop\n        /* \"eth based/truffle/contracts/FLIR_Contract.sol\":2439:2442  451 */\n      0x01c3\n        /* \"eth based/truffle/contracts/FLIR_Contract.sol\":2432:2436  Cimp */\n      dup3\n        /* \"eth based/truffle/contracts/FLIR_Contract.sol\":2432:2442  Cimp < 451 */\n      lt\n        /* \"eth based/truffle/contracts/FLIR_Contract.sol\":2418:2442  Cimp > 350 && Cimp < 451 */\n    tag_163:\n        /* \"eth based/truffle/contracts/FLIR_Contract.sol\":2415:2553  if(Cimp > 350 && Cimp < 451){... */\n      iszero\n      tag_164\n      jumpi\n        /* \"eth based/truffle/contracts/FLIR_Contract.sol\":2469:2473  btc7 */\n      sload(0x1a)\n        /* \"eth based/truffle/contracts/FLIR_Contract.sol\":2462:2466  Cimp */\n      dup3\n        /* \"eth based/truffle/contracts/FLIR_Contract.sol\":2462:2473  Cimp * btc7 */\n      tag_165\n      swap2\n      swap1\n      tag_111\n      jump\t// in\n    tag_165:\n        /* \"eth based/truffle/contracts/FLIR_Contract.sol\":2457:2473  Tc = Cimp * btc7 */\n      swap1\n      pop\n        /* \"eth based/truffle/contracts/FLIR_Contract.sol\":2415:2553  if(Cimp > 350 && Cimp < 451){... */\n      jump(tag_166)\n    tag_164:\n        /* \"eth based/truffle/contracts/FLIR_Contract.sol\":2508:2511  450 */\n      0x01c2\n        /* \"eth based/truffle/contracts/FLIR_Contract.sol\":2501:2505  Cimp */\n      dup3\n        /* \"eth based/truffle/contracts/FLIR_Contract.sol\":2501:2511  Cimp > 450 */\n      gt\n        /* \"eth based/truffle/contracts/FLIR_Contract.sol\":2498:2553  if(Cimp > 450){... */\n      iszero\n      tag_167\n      jumpi\n        /* \"eth based/truffle/contracts/FLIR_Contract.sol\":2538:2542  btc8 */\n      sload(0x1b)\n        /* \"eth based/truffle/contracts/FLIR_Contract.sol\":2531:2535  Cimp */\n      dup3\n        /* \"eth based/truffle/contracts/FLIR_Contract.sol\":2531:2542  Cimp * btc8 */\n      tag_168\n      swap2\n      swap1\n      tag_111\n      jump\t// in\n    tag_168:\n        /* \"eth based/truffle/contracts/FLIR_Contract.sol\":2526:2542  Tc = Cimp * btc8 */\n      swap1\n      pop\n        /* \"eth based/truffle/contracts/FLIR_Contract.sol\":2498:2553  if(Cimp > 450){... */\n    tag_167:\n        /* \"eth based/truffle/contracts/FLIR_Contract.sol\":2415:2553  if(Cimp > 350 && Cimp < 451){... */\n    tag_166:\n        /* \"eth based/truffle/contracts/FLIR_Contract.sol\":2332:2553  if(Cimp > 250 && Cimp < 351){... */\n    tag_162:\n        /* \"eth based/truffle/contracts/FLIR_Contract.sol\":1671:2553  if(Cimp < 251){... */\n    tag_158:\n        /* \"eth based/truffle/contracts/FLIR_Contract.sol\":1590:2580  function getConsumerTariff(uint Cimp) public returns (uint Tc){... */\n      swap2\n      swap1\n      pop\n      jump\t// out\n        /* \"eth based/truffle/contracts/FLIR_Contract.sol\":2795:2863  function balCheck() public payable {... */\n    tag_62:\n        /* \"eth based/truffle/contracts/FLIR_Contract.sol\":2847:2856  msg.value */\n      callvalue\n        /* \"eth based/truffle/contracts/FLIR_Contract.sol\":2836:2843  balance */\n      0x12\n      0x00\n        /* \"eth based/truffle/contracts/FLIR_Contract.sol\":2836:2856  balance += msg.value */\n      dup3\n      dup3\n      sload\n      tag_170\n      swap2\n      swap1\n      tag_124\n      jump\t// in\n    tag_170:\n      swap3\n      pop\n      pop\n      dup2\n      swap1\n      sstore\n      pop\n        /* \"eth based/truffle/contracts/FLIR_Contract.sol\":2795:2863  function balCheck() public payable {... */\n      jump\t// out\n        /* \"eth based/truffle/contracts/FLIR_Contract.sol\":156:176  address public owner */\n    tag_65:\n      0x00\n      dup1\n      sload\n      swap1\n      0x0100\n      exp\n      swap1\n      div\n      0xffffffffffffffffffffffffffffffffffffffff\n      and\n      dup2\n      jump\t// out\n        /* \"eth based/truffle/contracts/FLIR_Contract.sol\":1105:1126  uint public btc8 = 10 */\n    tag_69:\n      sload(0x1b)\n      dup2\n      jump\t// out\n        /* \"eth based/truffle/contracts/FLIR_Contract.sol\":210:235  address[16] public seller */\n    tag_74:\n      0x02\n      dup2\n      0x10\n      dup2\n      lt\n      tag_171\n      jumpi\n      0x00\n      dup1\n      revert\n    tag_171:\n      add\n      0x00\n      swap2\n      pop\n      sload\n      swap1\n      0x0100\n      exp\n      swap1\n      div\n      0xffffffffffffffffffffffffffffffffffffffff\n      and\n      dup2\n      jump\t// out\n        /* \"eth based/truffle/contracts/FLIR_Contract.sol\":1053:1073  uint public btc6 = 8 */\n    tag_78:\n      sload(0x19)\n      dup2\n      jump\t// out\n        /* \"eth based/truffle/contracts/FLIR_Contract.sol\":727:750  uint public balance = 0 */\n    tag_82:\n      sload(0x12)\n      dup2\n      jump\t// out\n        /* \"eth based/truffle/contracts/FLIR_Contract.sol\":923:943  uint public btc1 = 3 */\n    tag_86:\n      sload(0x14)\n      dup2\n      jump\t// out\n        /* \"eth based/truffle/contracts/FLIR_Contract.sol\":2586:2789  function send(address payable _receiver, uint amount) payable public {... */\n    tag_91:\n        /* \"eth based/truffle/contracts/FLIR_Contract.sol\":2739:2745  amount */\n      dup1\n        /* \"eth based/truffle/contracts/FLIR_Contract.sol\":2726:2735  msg.value */\n      callvalue\n        /* \"eth based/truffle/contracts/FLIR_Contract.sol\":2726:2745  msg.value >= amount */\n      lt\n      iszero\n        /* \"eth based/truffle/contracts/FLIR_Contract.sol\":2718:2746  require(msg.value >= amount) */\n      tag_174\n      jumpi\n      0x00\n      dup1\n      revert\n    tag_174:\n        /* \"eth based/truffle/contracts/FLIR_Contract.sol\":2756:2765  _receiver */\n      dup2\n        /* \"eth based/truffle/contracts/FLIR_Contract.sol\":2756:2774  _receiver.transfer */\n      0xffffffffffffffffffffffffffffffffffffffff\n      and\n        /* \"eth based/truffle/contracts/FLIR_Contract.sol\":2756:2782  _receiver.transfer(amount) */\n      0x08fc\n        /* \"eth based/truffle/contracts/FLIR_Contract.sol\":2775:2781  amount */\n      dup3\n        /* \"eth based/truffle/contracts/FLIR_Contract.sol\":2756:2782  _receiver.transfer(amount) */\n      swap1\n      dup2\n      iszero\n      mul\n      swap1\n      mload(0x40)\n      0x00\n      mload(0x40)\n      dup1\n      dup4\n      sub\n      dup2\n      dup6\n      dup9\n      dup9\n      call\n      swap4\n      pop\n      pop\n      pop\n      pop\n      iszero\n      dup1\n      iszero\n      tag_176\n      jumpi\n      returndatasize\n      0x00\n      dup1\n      returndatacopy\n      revert(0x00, returndatasize)\n    tag_176:\n      pop\n        /* \"eth based/truffle/contracts/FLIR_Contract.sol\":2586:2789  function send(address payable _receiver, uint amount) payable public {... */\n      pop\n      pop\n      jump\t// out\n        /* \"eth based/truffle/contracts/FLIR_Contract.sol\":1079:1099  uint public btc7 = 9 */\n    tag_94:\n      sload(0x1a)\n      dup2\n      jump\t// out\n        /* \"eth based/truffle/contracts/FLIR_Contract.sol\":1140:1463  function getnPnCnEV(uint nPget, uint nCget,uint nEVget) public... */\n    tag_100:\n        /* \"eth based/truffle/contracts/FLIR_Contract.sol\":1216:1223  uint nP */\n      0x00\n        /* \"eth based/truffle/contracts/FLIR_Contract.sol\":1224:1231  uint nC */\n      dup1\n        /* \"eth based/truffle/contracts/FLIR_Contract.sol\":1232:1240  uint nEV */\n      0x00\n        /* \"eth based/truffle/contracts/FLIR_Contract.sol\":1265:1270  nPget */\n      dup6\n        /* \"eth based/truffle/contracts/FLIR_Contract.sol\":1260:1270  nP = nPget */\n      swap3\n      pop\n        /* \"eth based/truffle/contracts/FLIR_Contract.sol\":1285:1290  nCget */\n      dup5\n        /* \"eth based/truffle/contracts/FLIR_Contract.sol\":1280:1290  nC = nCget */\n      swap2\n      pop\n        /* \"eth based/truffle/contracts/FLIR_Contract.sol\":1306:1312  nEVget */\n      dup4\n        /* \"eth based/truffle/contracts/FLIR_Contract.sol\":1300:1312  nEV = nEVget */\n      swap1\n      pop\n        /* \"eth based/truffle/contracts/FLIR_Contract.sol\":1140:1463  function getnPnCnEV(uint nPget, uint nCget,uint nEVget) public... */\n      swap4\n      pop\n      swap4\n      pop\n      swap4\n      swap1\n      pop\n      jump\t// out\n        /* \"eth based/truffle/contracts/FLIR_Contract.sol\":2869:3004  function getBalance(address _balanceCheck) public returns (uint bal){... */\n    tag_107:\n        /* \"eth based/truffle/contracts/FLIR_Contract.sol\":2928:2936  uint bal */\n      0x00\n        /* \"eth based/truffle/contracts/FLIR_Contract.sol\":2953:2966  _balanceCheck */\n      dup2\n        /* \"eth based/truffle/contracts/FLIR_Contract.sol\":2953:2974  _balanceCheck.balance */\n      0xffffffffffffffffffffffffffffffffffffffff\n      and\n      balance\n        /* \"eth based/truffle/contracts/FLIR_Contract.sol\":2947:2974  bal = _balanceCheck.balance */\n      swap1\n      pop\n        /* \"eth based/truffle/contracts/FLIR_Contract.sol\":2869:3004  function getBalance(address _balanceCheck) public returns (uint bal){... */\n      swap2\n      swap1\n      pop\n      jump\t// out\n        /* \"#utility.yul\":7:146   */\n    tag_180:\n        /* \"#utility.yul\":53:58   */\n      0x00\n        /* \"#utility.yul\":91:97   */\n      dup2\n        /* \"#utility.yul\":78:98   */\n      calldataload\n        /* \"#utility.yul\":69:98   */\n      swap1\n      pop\n        /* \"#utility.yul\":107:140   */\n      tag_182\n        /* \"#utility.yul\":134:139   */\n      dup2\n        /* \"#utility.yul\":107:140   */\n      tag_183\n      jump\t// in\n    tag_182:\n        /* \"#utility.yul\":7:146   */\n      swap3\n      swap2\n      pop\n      pop\n      jump\t// out\n        /* \"#utility.yul\":152:307   */\n    tag_184:\n        /* \"#utility.yul\":206:211   */\n      0x00\n        /* \"#utility.yul\":244:250   */\n      dup2\n        /* \"#utility.yul\":231:251   */\n      calldataload\n        /* \"#utility.yul\":222:251   */\n      swap1\n      pop\n        /* \"#utility.yul\":260:301   */\n      tag_186\n        /* \"#utility.yul\":295:300   */\n      dup2\n        /* \"#utility.yul\":260:301   */\n      tag_187\n      jump\t// in\n    tag_186:\n        /* \"#utility.yul\":152:307   */\n      swap3\n      swap2\n      pop\n      pop\n      jump\t// out\n        /* \"#utility.yul\":313:452   */\n    tag_188:\n        /* \"#utility.yul\":359:364   */\n      0x00\n        /* \"#utility.yul\":397:403   */\n      dup2\n        /* \"#utility.yul\":384:404   */\n      calldataload\n        /* \"#utility.yul\":375:404   */\n      swap1\n      pop\n        /* \"#utility.yul\":413:446   */\n      tag_190\n        /* \"#utility.yul\":440:445   */\n      dup2\n        /* \"#utility.yul\":413:446   */\n      tag_191\n      jump\t// in\n    tag_190:\n        /* \"#utility.yul\":313:452   */\n      swap3\n      swap2\n      pop\n      pop\n      jump\t// out\n        /* \"#utility.yul\":458:787   */\n    tag_106:\n        /* \"#utility.yul\":517:523   */\n      0x00\n        /* \"#utility.yul\":566:568   */\n      0x20\n        /* \"#utility.yul\":554:563   */\n      dup3\n        /* \"#utility.yul\":545:552   */\n      dup5\n        /* \"#utility.yul\":541:564   */\n      sub\n        /* \"#utility.yul\":537:569   */\n      slt\n        /* \"#utility.yul\":534:653   */\n      iszero\n      tag_193\n      jumpi\n        /* \"#utility.yul\":572:651   */\n      tag_194\n      tag_195\n      jump\t// in\n    tag_194:\n        /* \"#utility.yul\":534:653   */\n    tag_193:\n        /* \"#utility.yul\":692:693   */\n      0x00\n        /* \"#utility.yul\":717:770   */\n      tag_196\n        /* \"#utility.yul\":762:769   */\n      dup5\n        /* \"#utility.yul\":753:759   */\n      dup3\n        /* \"#utility.yul\":742:751   */\n      dup6\n        /* \"#utility.yul\":738:760   */\n      add\n        /* \"#utility.yul\":717:770   */\n      tag_180\n      jump\t// in\n    tag_196:\n        /* \"#utility.yul\":707:770   */\n      swap2\n      pop\n        /* \"#utility.yul\":663:780   */\n      pop\n        /* \"#utility.yul\":458:787   */\n      swap3\n      swap2\n      pop\n      pop\n      jump\t// out\n        /* \"#utility.yul\":793:1283   */\n    tag_90:\n        /* \"#utility.yul\":869:875   */\n      0x00\n        /* \"#utility.yul\":877:883   */\n      dup1\n        /* \"#utility.yul\":926:928   */\n      0x40\n        /* \"#utility.yul\":914:923   */\n      dup4\n        /* \"#utility.yul\":905:912   */\n      dup6\n        /* \"#utility.yul\":901:924   */\n      sub\n        /* \"#utility.yul\":897:929   */\n      slt\n        /* \"#utility.yul\":894:1013   */\n      iszero\n      tag_198\n      jumpi\n        /* \"#utility.yul\":932:1011   */\n      tag_199\n      tag_195\n      jump\t// in\n    tag_199:\n        /* \"#utility.yul\":894:1013   */\n    tag_198:\n        /* \"#utility.yul\":1052:1053   */\n      0x00\n        /* \"#utility.yul\":1077:1138   */\n      tag_200\n        /* \"#utility.yul\":1130:1137   */\n      dup6\n        /* \"#utility.yul\":1121:1127   */\n      dup3\n        /* \"#utility.yul\":1110:1119   */\n      dup7\n        /* \"#utility.yul\":1106:1128   */\n      add\n        /* \"#utility.yul\":1077:1138   */\n      tag_184\n      jump\t// in\n    tag_200:\n        /* \"#utility.yul\":1067:1138   */\n      swap3\n      pop\n        /* \"#utility.yul\":1023:1148   */\n      pop\n        /* \"#utility.yul\":1187:1189   */\n      0x20\n        /* \"#utility.yul\":1213:1266   */\n      tag_201\n        /* \"#utility.yul\":1258:1265   */\n      dup6\n        /* \"#utility.yul\":1249:1255   */\n      dup3\n        /* \"#utility.yul\":1238:1247   */\n      dup7\n        /* \"#utility.yul\":1234:1256   */\n      add\n        /* \"#utility.yul\":1213:1266   */\n      tag_188\n      jump\t// in\n    tag_201:\n        /* \"#utility.yul\":1203:1266   */\n      swap2\n      pop\n        /* \"#utility.yul\":1158:1276   */\n      pop\n        /* \"#utility.yul\":793:1283   */\n      swap3\n      pop\n      swap3\n      swap1\n      pop\n      jump\t// out\n        /* \"#utility.yul\":1289:1618   */\n    tag_53:\n        /* \"#utility.yul\":1348:1354   */\n      0x00\n        /* \"#utility.yul\":1397:1399   */\n      0x20\n        /* \"#utility.yul\":1385:1394   */\n      dup3\n        /* \"#utility.yul\":1376:1383   */\n      dup5\n        /* \"#utility.yul\":1372:1395   */\n      sub\n        /* \"#utility.yul\":1368:1400   */\n      slt\n        /* \"#utility.yul\":1365:1484   */\n      iszero\n      tag_203\n      jumpi\n        /* \"#utility.yul\":1403:1482   */\n      tag_204\n      tag_195\n      jump\t// in\n    tag_204:\n        /* \"#utility.yul\":1365:1484   */\n    tag_203:\n        /* \"#utility.yul\":1523:1524   */\n      0x00\n        /* \"#utility.yul\":1548:1601   */\n      tag_205\n        /* \"#utility.yul\":1593:1600   */\n      dup5\n        /* \"#utility.yul\":1584:1590   */\n      dup3\n        /* \"#utility.yul\":1573:1582   */\n      dup6\n        /* \"#utility.yul\":1569:1591   */\n      add\n        /* \"#utility.yul\":1548:1601   */\n      tag_188\n      jump\t// in\n    tag_205:\n        /* \"#utility.yul\":1538:1601   */\n      swap2\n      pop\n        /* \"#utility.yul\":1494:1611   */\n      pop\n        /* \"#utility.yul\":1289:1618   */\n      swap3\n      swap2\n      pop\n      pop\n      jump\t// out\n        /* \"#utility.yul\":1624:2243   */\n    tag_99:\n        /* \"#utility.yul\":1701:1707   */\n      0x00\n        /* \"#utility.yul\":1709:1715   */\n      dup1\n        /* \"#utility.yul\":1717:1723   */\n      0x00\n        /* \"#utility.yul\":1766:1768   */\n      0x60\n        /* \"#utility.yul\":1754:1763   */\n      dup5\n        /* \"#utility.yul\":1745:1752   */\n      dup7\n        /* \"#utility.yul\":1741:1764   */\n      sub\n        /* \"#utility.yul\":1737:1769   */\n      slt\n        /* \"#utility.yul\":1734:1853   */\n      iszero\n      tag_207\n      jumpi\n        /* \"#utility.yul\":1772:1851   */\n      tag_208\n      tag_195\n      jump\t// in\n    tag_208:\n        /* \"#utility.yul\":1734:1853   */\n    tag_207:\n        /* \"#utility.yul\":1892:1893   */\n      0x00\n        /* \"#utility.yul\":1917:1970   */\n      tag_209\n        /* \"#utility.yul\":1962:1969   */\n      dup7\n        /* \"#utility.yul\":1953:1959   */\n      dup3\n        /* \"#utility.yul\":1942:1951   */\n      dup8\n        /* \"#utility.yul\":1938:1960   */\n      add\n        /* \"#utility.yul\":1917:1970   */\n      tag_188\n      jump\t// in\n    tag_209:\n        /* \"#utility.yul\":1907:1970   */\n      swap4\n      pop\n        /* \"#utility.yul\":1863:1980   */\n      pop\n        /* \"#utility.yul\":2019:2021   */\n      0x20\n        /* \"#utility.yul\":2045:2098   */\n      tag_210\n        /* \"#utility.yul\":2090:2097   */\n      dup7\n        /* \"#utility.yul\":2081:2087   */\n      dup3\n        /* \"#utility.yul\":2070:2079   */\n      dup8\n        /* \"#utility.yul\":2066:2088   */\n      add\n        /* \"#utility.yul\":2045:2098   */\n      tag_188\n      jump\t// in\n    tag_210:\n        /* \"#utility.yul\":2035:2098   */\n      swap3\n      pop\n        /* \"#utility.yul\":1990:2108   */\n      pop\n        /* \"#utility.yul\":2147:2149   */\n      0x40\n        /* \"#utility.yul\":2173:2226   */\n      tag_211\n        /* \"#utility.yul\":2218:2225   */\n      dup7\n        /* \"#utility.yul\":2209:2215   */\n      dup3\n        /* \"#utility.yul\":2198:2207   */\n      dup8\n        /* \"#utility.yul\":2194:2216   */\n      add\n        /* \"#utility.yul\":2173:2226   */\n      tag_188\n      jump\t// in\n    tag_211:\n        /* \"#utility.yul\":2163:2226   */\n      swap2\n      pop\n        /* \"#utility.yul\":2118:2236   */\n      pop\n        /* \"#utility.yul\":1624:2243   */\n      swap3\n      pop\n      swap3\n      pop\n      swap3\n      jump\t// out\n        /* \"#utility.yul\":2249:2367   */\n    tag_212:\n        /* \"#utility.yul\":2336:2360   */\n      tag_214\n        /* \"#utility.yul\":2354:2359   */\n      dup2\n        /* \"#utility.yul\":2336:2360   */\n      tag_215\n      jump\t// in\n    tag_214:\n        /* \"#utility.yul\":2331:2334   */\n      dup3\n        /* \"#utility.yul\":2324:2361   */\n      mstore\n        /* \"#utility.yul\":2249:2367   */\n      pop\n      pop\n      jump\t// out\n        /* \"#utility.yul\":2373:2491   */\n    tag_216:\n        /* \"#utility.yul\":2460:2484   */\n      tag_218\n        /* \"#utility.yul\":2478:2483   */\n      dup2\n        /* \"#utility.yul\":2460:2484   */\n      tag_219\n      jump\t// in\n    tag_218:\n        /* \"#utility.yul\":2455:2458   */\n      dup3\n        /* \"#utility.yul\":2448:2485   */\n      mstore\n        /* \"#utility.yul\":2373:2491   */\n      pop\n      pop\n      jump\t// out\n        /* \"#utility.yul\":2497:2719   */\n    tag_49:\n        /* \"#utility.yul\":2590:2594   */\n      0x00\n        /* \"#utility.yul\":2628:2630   */\n      0x20\n        /* \"#utility.yul\":2617:2626   */\n      dup3\n        /* \"#utility.yul\":2613:2631   */\n      add\n        /* \"#utility.yul\":2605:2631   */\n      swap1\n      pop\n        /* \"#utility.yul\":2641:2712   */\n      tag_221\n        /* \"#utility.yul\":2709:2710   */\n      0x00\n        /* \"#utility.yul\":2698:2707   */\n      dup4\n        /* \"#utility.yul\":2694:2711   */\n      add\n        /* \"#utility.yul\":2685:2691   */\n      dup5\n        /* \"#utility.yul\":2641:2712   */\n      tag_212\n      jump\t// in\n    tag_221:\n        /* \"#utility.yul\":2497:2719   */\n      swap3\n      swap2\n      pop\n      pop\n      jump\t// out\n        /* \"#utility.yul\":2725:2947   */\n    tag_28:\n        /* \"#utility.yul\":2818:2822   */\n      0x00\n        /* \"#utility.yul\":2856:2858   */\n      0x20\n        /* \"#utility.yul\":2845:2854   */\n      dup3\n        /* \"#utility.yul\":2841:2859   */\n      add\n        /* \"#utility.yul\":2833:2859   */\n      swap1\n      pop\n        /* \"#utility.yul\":2869:2940   */\n      tag_223\n        /* \"#utility.yul\":2937:2938   */\n      0x00\n        /* \"#utility.yul\":2926:2935   */\n      dup4\n        /* \"#utility.yul\":2922:2939   */\n      add\n        /* \"#utility.yul\":2913:2919   */\n      dup5\n        /* \"#utility.yul\":2869:2940   */\n      tag_216\n      jump\t// in\n    tag_223:\n        /* \"#utility.yul\":2725:2947   */\n      swap3\n      swap2\n      pop\n      pop\n      jump\t// out\n        /* \"#utility.yul\":2953:3395   */\n    tag_102:\n        /* \"#utility.yul\":3102:3106   */\n      0x00\n        /* \"#utility.yul\":3140:3142   */\n      0x60\n        /* \"#utility.yul\":3129:3138   */\n      dup3\n        /* \"#utility.yul\":3125:3143   */\n      add\n        /* \"#utility.yul\":3117:3143   */\n      swap1\n      pop\n        /* \"#utility.yul\":3153:3224   */\n      tag_225\n        /* \"#utility.yul\":3221:3222   */\n      0x00\n        /* \"#utility.yul\":3210:3219   */\n      dup4\n        /* \"#utility.yul\":3206:3223   */\n      add\n        /* \"#utility.yul\":3197:3203   */\n      dup7\n        /* \"#utility.yul\":3153:3224   */\n      tag_216\n      jump\t// in\n    tag_225:\n        /* \"#utility.yul\":3234:3306   */\n      tag_226\n        /* \"#utility.yul\":3302:3304   */\n      0x20\n        /* \"#utility.yul\":3291:3300   */\n      dup4\n        /* \"#utility.yul\":3287:3305   */\n      add\n        /* \"#utility.yul\":3278:3284   */\n      dup6\n        /* \"#utility.yul\":3234:3306   */\n      tag_216\n      jump\t// in\n    tag_226:\n        /* \"#utility.yul\":3316:3388   */\n      tag_227\n        /* \"#utility.yul\":3384:3386   */\n      0x40\n        /* \"#utility.yul\":3373:3382   */\n      dup4\n        /* \"#utility.yul\":3369:3387   */\n      add\n        /* \"#utility.yul\":3360:3366   */\n      dup5\n        /* \"#utility.yul\":3316:3388   */\n      tag_216\n      jump\t// in\n    tag_227:\n        /* \"#utility.yul\":2953:3395   */\n      swap5\n      swap4\n      pop\n      pop\n      pop\n      pop\n      jump\t// out\n        /* \"#utility.yul\":3482:3787   */\n    tag_124:\n        /* \"#utility.yul\":3522:3525   */\n      0x00\n        /* \"#utility.yul\":3541:3561   */\n      tag_231\n        /* \"#utility.yul\":3559:3560   */\n      dup3\n        /* \"#utility.yul\":3541:3561   */\n      tag_219\n      jump\t// in\n    tag_231:\n        /* \"#utility.yul\":3536:3561   */\n      swap2\n      pop\n        /* \"#utility.yul\":3575:3595   */\n      tag_232\n        /* \"#utility.yul\":3593:3594   */\n      dup4\n        /* \"#utility.yul\":3575:3595   */\n      tag_219\n      jump\t// in\n    tag_232:\n        /* \"#utility.yul\":3570:3595   */\n      swap3\n      pop\n        /* \"#utility.yul\":3729:3730   */\n      dup3\n        /* \"#utility.yul\":3661:3727   */\n      0xffffffffffffffffffffffffffffffffffffffffffffffffffffffffffffffff\n        /* \"#utility.yul\":3657:3731   */\n      sub\n        /* \"#utility.yul\":3654:3655   */\n      dup3\n        /* \"#utility.yul\":3651:3732   */\n      gt\n        /* \"#utility.yul\":3648:3755   */\n      iszero\n      tag_233\n      jumpi\n        /* \"#utility.yul\":3735:3753   */\n      tag_234\n      tag_235\n      jump\t// in\n    tag_234:\n        /* \"#utility.yul\":3648:3755   */\n    tag_233:\n        /* \"#utility.yul\":3779:3780   */\n      dup3\n        /* \"#utility.yul\":3776:3777   */\n      dup3\n        /* \"#utility.yul\":3772:3781   */\n      add\n        /* \"#utility.yul\":3765:3781   */\n      swap1\n      pop\n        /* \"#utility.yul\":3482:3787   */\n      swap3\n      swap2\n      pop\n      pop\n      jump\t// out\n        /* \"#utility.yul\":3793:4141   */\n    tag_111:\n        /* \"#utility.yul\":3833:3840   */\n      0x00\n        /* \"#utility.yul\":3856:3876   */\n      tag_237\n        /* \"#utility.yul\":3874:3875   */\n      dup3\n        /* \"#utility.yul\":3856:3876   */\n      tag_219\n      jump\t// in\n    tag_237:\n        /* \"#utility.yul\":3851:3876   */\n      swap2\n      pop\n        /* \"#utility.yul\":3890:3910   */\n      tag_238\n        /* \"#utility.yul\":3908:3909   */\n      dup4\n        /* \"#utility.yul\":3890:3910   */\n      tag_219\n      jump\t// in\n    tag_238:\n        /* \"#utility.yul\":3885:3910   */\n      swap3\n      pop\n        /* \"#utility.yul\":4078:4079   */\n      dup2\n        /* \"#utility.yul\":4010:4076   */\n      0xffffffffffffffffffffffffffffffffffffffffffffffffffffffffffffffff\n        /* \"#utility.yul\":4006:4080   */\n      div\n        /* \"#utility.yul\":4003:4004   */\n      dup4\n        /* \"#utility.yul\":4000:4081   */\n      gt\n        /* \"#utility.yul\":3995:3996   */\n      dup3\n        /* \"#utility.yul\":3988:3997   */\n      iszero\n        /* \"#utility.yul\":3981:3998   */\n      iszero\n        /* \"#utility.yul\":3977:4082   */\n      and\n        /* \"#utility.yul\":3974:4105   */\n      iszero\n      tag_239\n      jumpi\n        /* \"#utility.yul\":4085:4103   */\n      tag_240\n      tag_235\n      jump\t// in\n    tag_240:\n        /* \"#utility.yul\":3974:4105   */\n    tag_239:\n        /* \"#utility.yul\":4133:4134   */\n      dup3\n        /* \"#utility.yul\":4130:4131   */\n      dup3\n        /* \"#utility.yul\":4126:4135   */\n      mul\n        /* \"#utility.yul\":4115:4135   */\n      swap1\n      pop\n        /* \"#utility.yul\":3793:4141   */\n      swap3\n      swap2\n      pop\n      pop\n      jump\t// out\n        /* \"#utility.yul\":4147:4338   */\n    tag_120:\n        /* \"#utility.yul\":4187:4191   */\n      0x00\n        /* \"#utility.yul\":4207:4227   */\n      tag_242\n        /* \"#utility.yul\":4225:4226   */\n      dup3\n        /* \"#utility.yul\":4207:4227   */\n      tag_219\n      jump\t// in\n    tag_242:\n        /* \"#utility.yul\":4202:4227   */\n      swap2\n      pop\n        /* \"#utility.yul\":4241:4261   */\n      tag_243\n        /* \"#utility.yul\":4259:4260   */\n      dup4\n        /* \"#utility.yul\":4241:4261   */\n      tag_219\n      jump\t// in\n    tag_243:\n        /* \"#utility.yul\":4236:4261   */\n      swap3\n      pop\n        /* \"#utility.yul\":4280:4281   */\n      dup3\n        /* \"#utility.yul\":4277:4278   */\n      dup3\n        /* \"#utility.yul\":4274:4282   */\n      lt\n        /* \"#utility.yul\":4271:4305   */\n      iszero\n      tag_244\n      jumpi\n        /* \"#utility.yul\":4285:4303   */\n      tag_245\n      tag_235\n      jump\t// in\n    tag_245:\n        /* \"#utility.yul\":4271:4305   */\n    tag_244:\n        /* \"#utility.yul\":4330:4331   */\n      dup3\n        /* \"#utility.yul\":4327:4328   */\n      dup3\n        /* \"#utility.yul\":4323:4332   */\n      sub\n        /* \"#utility.yul\":4315:4332   */\n      swap1\n      pop\n        /* \"#utility.yul\":4147:4338   */\n      swap3\n      swap2\n      pop\n      pop\n      jump\t// out\n        /* \"#utility.yul\":4344:4440   */\n    tag_215:\n        /* \"#utility.yul\":4381:4388   */\n      0x00\n        /* \"#utility.yul\":4410:4434   */\n      tag_247\n        /* \"#utility.yul\":4428:4433   */\n      dup3\n        /* \"#utility.yul\":4410:4434   */\n      tag_248\n      jump\t// in\n    tag_247:\n        /* \"#utility.yul\":4399:4434   */\n      swap1\n      pop\n        /* \"#utility.yul\":4344:4440   */\n      swap2\n      swap1\n      pop\n      jump\t// out\n        /* \"#utility.yul\":4446:4550   */\n    tag_249:\n        /* \"#utility.yul\":4491:4498   */\n      0x00\n        /* \"#utility.yul\":4520:4544   */\n      tag_251\n        /* \"#utility.yul\":4538:4543   */\n      dup3\n        /* \"#utility.yul\":4520:4544   */\n      tag_248\n      jump\t// in\n    tag_251:\n        /* \"#utility.yul\":4509:4544   */\n      swap1\n      pop\n        /* \"#utility.yul\":4446:4550   */\n      swap2\n      swap1\n      pop\n      jump\t// out\n        /* \"#utility.yul\":4556:4682   */\n    tag_248:\n        /* \"#utility.yul\":4593:4600   */\n      0x00\n        /* \"#utility.yul\":4633:4675   */\n      0xffffffffffffffffffffffffffffffffffffffff\n        /* \"#utility.yul\":4626:4631   */\n      dup3\n        /* \"#utility.yul\":4622:4676   */\n      and\n        /* \"#utility.yul\":4611:4676   */\n      swap1\n      pop\n        /* \"#utility.yul\":4556:4682   */\n      swap2\n      swap1\n      pop\n      jump\t// out\n        /* \"#utility.yul\":4688:4765   */\n    tag_219:\n        /* \"#utility.yul\":4725:4732   */\n      0x00\n        /* \"#utility.yul\":4754:4759   */\n      dup2\n        /* \"#utility.yul\":4743:4759   */\n      swap1\n      pop\n        /* \"#utility.yul\":4688:4765   */\n      swap2\n      swap1\n      pop\n      jump\t// out\n        /* \"#utility.yul\":4771:4951   */\n    tag_235:\n        /* \"#utility.yul\":4819:4896   */\n      0x4e487b7100000000000000000000000000000000000000000000000000000000\n        /* \"#utility.yul\":4816:4817   */\n      0x00\n        /* \"#utility.yul\":4809:4897   */\n      mstore\n        /* \"#utility.yul\":4916:4920   */\n      0x11\n        /* \"#utility.yul\":4913:4914   */\n      0x04\n        /* \"#utility.yul\":4906:4921   */\n      mstore\n        /* \"#utility.yul\":4940:4944   */\n      0x24\n        /* \"#utility.yul\":4937:4938   */\n      0x00\n        /* \"#utility.yul\":4930:4945   */\n      revert\n        /* \"#utility.yul\":5080:5197   */\n    tag_195:\n        /* \"#utility.yul\":5189:5190   */\n      0x00\n        /* \"#utility.yul\":5186:5187   */\n      dup1\n        /* \"#utility.yul\":5179:5191   */\n      revert\n        /* \"#utility.yul\":5203:5325   */\n    tag_183:\n        /* \"#utility.yul\":5276:5300   */\n      tag_259\n        /* \"#utility.yul\":5294:5299   */\n      dup2\n        /* \"#utility.yul\":5276:5300   */\n      tag_215\n      jump\t// in\n    tag_259:\n        /* \"#utility.yul\":5269:5274   */\n      dup2\n        /* \"#utility.yul\":5266:5301   */\n      eq\n        /* \"#utility.yul\":5256:5319   */\n      tag_260\n      jumpi\n        /* \"#utility.yul\":5315:5316   */\n      0x00\n        /* \"#utility.yul\":5312:5313   */\n      dup1\n        /* \"#utility.yul\":5305:5317   */\n      revert\n        /* \"#utility.yul\":5256:5319   */\n    tag_260:\n        /* \"#utility.yul\":5203:5325   */\n      pop\n      jump\t// out\n        /* \"#utility.yul\":5331:5469   */\n    tag_187:\n        /* \"#utility.yul\":5412:5444   */\n      tag_262\n        /* \"#utility.yul\":5438:5443   */\n      dup2\n        /* \"#utility.yul\":5412:5444   */\n      tag_249\n      jump\t// in\n    tag_262:\n        /* \"#utility.yul\":5405:5410   */\n      dup2\n        /* \"#utility.yul\":5402:5445   */\n      eq\n        /* \"#utility.yul\":5392:5463   */\n      tag_263\n      jumpi\n        /* \"#utility.yul\":5459:5460   */\n      0x00\n        /* \"#utility.yul\":5456:5457   */\n      dup1\n        /* \"#utility.yul\":5449:5461   */\n      revert\n        /* \"#utility.yul\":5392:5463   */\n    tag_263:\n        /* \"#utility.yul\":5331:5469   */\n      pop\n      jump\t// out\n        /* \"#utility.yul\":5475:5597   */\n    tag_191:\n        /* \"#utility.yul\":5548:5572   */\n      tag_265\n        /* \"#utility.yul\":5566:5571   */\n      dup2\n        /* \"#utility.yul\":5548:5572   */\n      tag_219\n      jump\t// in\n    tag_265:\n        /* \"#utility.yul\":5541:5546   */\n      dup2\n        /* \"#utility.yul\":5538:5573   */\n      eq\n        /* \"#utility.yul\":5528:5591   */\n      tag_266\n      jumpi\n        /* \"#utility.yul\":5587:5588   */\n      0x00\n        /* \"#utility.yul\":5584:5585   */\n      dup1\n        /* \"#utility.yul\":5577:5589   */\n      revert\n        /* \"#utility.yul\":5528:5591   */\n    tag_266:\n        /* \"#utility.yul\":5475:5597   */\n      pop\n      jump\t// out\n\n    auxdata: 0xa264697066735822122003213a4cd63d26bfe4e7112db3a786efe6798688202893dfd2a4c0a7eb391a9b64736f6c63430008070033\n}\n",
				"bytecode": {
					"linkReferences": {},
					"object": "6080604052600060125560036013556003601455600460155560056016556006601755600760185560086019556009601a55600a601b5534801561004257600080fd5b50610c06806100526000396000f3fe6080604052600436106101145760003560e01c80638da5cb5b116100a0578063c2c496ec11610064578063c2c496ec14610388578063d0679d34146103b3578063ed2fa5ab146103cf578063f02e48c3146103fa578063f8b2cb4f1461043957610114565b80638da5cb5b1461029f578063a8bdb68b146102ca578063aacdfe6f146102f5578063b4ad7fa914610332578063b69ef8a81461035d57610114565b80632c9af64c116100e75780632c9af64c146101c5578063481c6a75146101f05780635c8f6b561461021b578063721028ec146102585780637c134b141461029557610114565b80630c03a1a314610119578063103347e71461014457806320e731a11461016f57806328780a441461019a575b600080fd5b34801561012557600080fd5b5061012e610476565b60405161013b91906109d3565b60405180910390f35b34801561015057600080fd5b5061015961047c565b60405161016691906109d3565b60405180910390f35b34801561017b57600080fd5b50610184610482565b60405161019191906109d3565b60405180910390f35b3480156101a657600080fd5b506101af610488565b6040516101bc91906109d3565b60405180910390f35b3480156101d157600080fd5b506101da61048e565b6040516101e791906109d3565b60405180910390f35b3480156101fc57600080fd5b50610205610494565b60405161021291906109b8565b60405180910390f35b34801561022757600080fd5b50610242600480360381019061023d919061091a565b6104ba565b60405161024f91906109d3565b60405180910390f35b34801561026457600080fd5b5061027f600480360381019061027a919061091a565b6104d1565b60405161028c91906109d3565b60405180910390f35b61029d61074b565b005b3480156102ab57600080fd5b506102b4610766565b6040516102c191906109b8565b60405180910390f35b3480156102d657600080fd5b506102df61078a565b6040516102ec91906109d3565b60405180910390f35b34801561030157600080fd5b5061031c6004803603810190610317919061091a565b610790565b60405161032991906109b8565b60405180910390f35b34801561033e57600080fd5b506103476107c6565b60405161035491906109d3565b60405180910390f35b34801561036957600080fd5b506103726107cc565b60405161037f91906109d3565b60405180910390f35b34801561039457600080fd5b5061039d6107d2565b6040516103aa91906109d3565b60405180910390f35b6103cd60048036038101906103c891906108da565b6107d8565b005b3480156103db57600080fd5b506103e4610830565b6040516103f191906109d3565b60405180910390f35b34801561040657600080fd5b50610421600480360381019061041c9190610947565b610836565b604051610430939291906109ee565b60405180910390f35b34801561044557600080fd5b50610460600480360381019061045b91906108ad565b61084d565b60405161046d91906109d3565b60405180910390f35b60185481565b60175481565b60165481565b60155481565b60135481565b600160009054906101000a900473ffffffffffffffffffffffffffffffffffffffff1681565b6000601354826104ca9190610a7b565b9050919050565b600060fb8210156106d15760338210156104fa57601454826104f39190610a7b565b90506106cc565b60328211801561050a5750606582105b156105495760155460328361051f9190610ad5565b6105299190610a7b565b60145460326105389190610a7b565b6105429190610a25565b90506106cb565b6064821180156105595750609782105b156105b15760165460328361056e9190610ad5565b6105789190610a7b565b60155460326105879190610a7b565b60145460326105969190610a7b565b6105a09190610a25565b6105aa9190610a25565b90506106ca565b6096821180156105c1575060c982105b15610632576017546032836105d69190610ad5565b6105e09190610a7b565b60165460326105ef9190610a7b565b60155460326105fe9190610a7b565b601454603261060d9190610a7b565b6106179190610a25565b6106219190610a25565b61062b9190610a25565b90506106c9565b60c882118015610642575060fb82105b156106c8576018546032836106579190610ad5565b6106619190610a7b565b60175460326106709190610a7b565b601654603261067f9190610a7b565b601554603261068e9190610a7b565b601454603261069d9190610a7b565b6106a79190610a25565b6106b19190610a25565b6106bb9190610a25565b6106c59190610a25565b90505b5b5b5b5b610746565b60fa821180156106e2575061015f82105b156106fc57601954826106f59190610a7b565b9050610745565b61015e8211801561070e57506101c382105b1561072857601a54826107219190610a7b565b9050610744565b6101c282111561074357601b54826107409190610a7b565b90505b5b5b5b919050565b346012600082825461075d9190610a25565b92505081905550565b60008054906101000a900473ffffffffffffffffffffffffffffffffffffffff1681565b601b5481565b600281601081106107a057600080fd5b016000915054906101000a900473ffffffffffffffffffffffffffffffffffffffff1681565b60195481565b60125481565b60145481565b803410156107e557600080fd5b8173ffffffffffffffffffffffffffffffffffffffff166108fc829081150290604051600060405180830381858888f1935050505015801561082b573d6000803e3d6000fd5b505050565b601a5481565b600080600085925084915083905093509350939050565b60008173ffffffffffffffffffffffffffffffffffffffff16319050919050565b60008135905061087d81610b8b565b92915050565b60008135905061089281610ba2565b92915050565b6000813590506108a781610bb9565b92915050565b6000602082840312156108c3576108c2610b86565b5b60006108d18482850161086e565b91505092915050565b600080604083850312156108f1576108f0610b86565b5b60006108ff85828601610883565b925050602061091085828601610898565b9150509250929050565b6000602082840312156109305761092f610b86565b5b600061093e84828501610898565b91505092915050565b6000806000606084860312156109605761095f610b86565b5b600061096e86828701610898565b935050602061097f86828701610898565b925050604061099086828701610898565b9150509250925092565b6109a381610b09565b82525050565b6109b281610b4d565b82525050565b60006020820190506109cd600083018461099a565b92915050565b60006020820190506109e860008301846109a9565b92915050565b6000606082019050610a0360008301866109a9565b610a1060208301856109a9565b610a1d60408301846109a9565b949350505050565b6000610a3082610b4d565b9150610a3b83610b4d565b9250827fffffffffffffffffffffffffffffffffffffffffffffffffffffffffffffffff03821115610a7057610a6f610b57565b5b828201905092915050565b6000610a8682610b4d565b9150610a9183610b4d565b9250817fffffffffffffffffffffffffffffffffffffffffffffffffffffffffffffffff0483118215151615610aca57610ac9610b57565b5b828202905092915050565b6000610ae082610b4d565b9150610aeb83610b4d565b925082821015610afe57610afd610b57565b5b828203905092915050565b6000610b1482610b2d565b9050919050565b6000610b2682610b2d565b9050919050565b600073ffffffffffffffffffffffffffffffffffffffff82169050919050565b6000819050919050565b7f4e487b7100000000000000000000000000000000000000000000000000000000600052601160045260246000fd5b600080fd5b610b9481610b09565b8114610b9f57600080fd5b50565b610bab81610b1b565b8114610bb657600080fd5b50565b610bc281610b4d565b8114610bcd57600080fd5b5056fea264697066735822122003213a4cd63d26bfe4e7112db3a786efe6798688202893dfd2a4c0a7eb391a9b64736f6c63430008070033",
					"opcodes": "PUSH1 0x80 PUSH1 0x40 MSTORE PUSH1 0x0 PUSH1 0x12 SSTORE PUSH1 0x3 PUSH1 0x13 SSTORE PUSH1 0x3 PUSH1 0x14 SSTORE PUSH1 0x4 PUSH1 0x15 SSTORE PUSH1 0x5 PUSH1 0x16 SSTORE PUSH1 0x6 PUSH1 0x17 SSTORE PUSH1 0x7 PUSH1 0x18 SSTORE PUSH1 0x8 PUSH1 0x19 SSTORE PUSH1 0x9 PUSH1 0x1A SSTORE PUSH1 0xA PUSH1 0x1B SSTORE CALLVALUE DUP1 ISZERO PUSH2 0x42 JUMPI PUSH1 0x0 DUP1 REVERT JUMPDEST POP PUSH2 0xC06 DUP1 PUSH2 0x52 PUSH1 0x0 CODECOPY PUSH1 0x0 RETURN INVALID PUSH1 0x80 PUSH1 0x40 MSTORE PUSH1 0x4 CALLDATASIZE LT PUSH2 0x114 JUMPI PUSH1 0x0 CALLDATALOAD PUSH1 0xE0 SHR DUP1 PUSH4 0x8DA5CB5B GT PUSH2 0xA0 JUMPI DUP1 PUSH4 0xC2C496EC GT PUSH2 0x64 JUMPI DUP1 PUSH4 0xC2C496EC EQ PUSH2 0x388 JUMPI DUP1 PUSH4 0xD0679D34 EQ PUSH2 0x3B3 JUMPI DUP1 PUSH4 0xED2FA5AB EQ PUSH2 0x3CF JUMPI DUP1 PUSH4 0xF02E48C3 EQ PUSH2 0x3FA JUMPI DUP1 PUSH4 0xF8B2CB4F EQ PUSH2 0x439 JUMPI PUSH2 0x114 JUMP JUMPDEST DUP1 PUSH4 0x8DA5CB5B EQ PUSH2 0x29F JUMPI DUP1 PUSH4 0xA8BDB68B EQ PUSH2 0x2CA JUMPI DUP1 PUSH4 0xAACDFE6F EQ PUSH2 0x2F5 JUMPI DUP1 PUSH4 0xB4AD7FA9 EQ PUSH2 0x332 JUMPI DUP1 PUSH4 0xB69EF8A8 EQ PUSH2 0x35D JUMPI PUSH2 0x114 JUMP JUMPDEST DUP1 PUSH4 0x2C9AF64C GT PUSH2 0xE7 JUMPI DUP1 PUSH4 0x2C9AF64C EQ PUSH2 0x1C5 JUMPI DUP1 PUSH4 0x481C6A75 EQ PUSH2 0x1F0 JUMPI DUP1 PUSH4 0x5C8F6B56 EQ PUSH2 0x21B JUMPI DUP1 PUSH4 0x721028EC EQ PUSH2 0x258 JUMPI DUP1 PUSH4 0x7C134B14 EQ PUSH2 0x295 JUMPI PUSH2 0x114 JUMP JUMPDEST DUP1 PUSH4 0xC03A1A3 EQ PUSH2 0x119 JUMPI DUP1 PUSH4 0x103347E7 EQ PUSH2 0x144 JUMPI DUP1 PUSH4 0x20E731A1 EQ PUSH2 0x16F JUMPI DUP1 PUSH4 0x28780A44 EQ PUSH2 0x19A JUMPI JUMPDEST PUSH1 0x0 DUP1 REVERT JUMPDEST CALLVALUE DUP1 ISZERO PUSH2 0x125 JUMPI PUSH1 0x0 DUP1 REVERT JUMPDEST POP PUSH2 0x12E PUSH2 0x476 JUMP JUMPDEST PUSH1 0x40 MLOAD PUSH2 0x13B SWAP2 SWAP1 PUSH2 0x9D3 JUMP JUMPDEST PUSH1 0x40 MLOAD DUP1 SWAP2 SUB SWAP1 RETURN JUMPDEST CALLVALUE DUP1 ISZERO PUSH2 0x150 JUMPI PUSH1 0x0 DUP1 REVERT JUMPDEST POP PUSH2 0x159 PUSH2 0x47C JUMP JUMPDEST PUSH1 0x40 MLOAD PUSH2 0x166 SWAP2 SWAP1 PUSH2 0x9D3 JUMP JUMPDEST PUSH1 0x40 MLOAD DUP1 SWAP2 SUB SWAP1 RETURN JUMPDEST CALLVALUE DUP1 ISZERO PUSH2 0x17B JUMPI PUSH1 0x0 DUP1 REVERT JUMPDEST POP PUSH2 0x184 PUSH2 0x482 JUMP JUMPDEST PUSH1 0x40 MLOAD PUSH2 0x191 SWAP2 SWAP1 PUSH2 0x9D3 JUMP JUMPDEST PUSH1 0x40 MLOAD DUP1 SWAP2 SUB SWAP1 RETURN JUMPDEST CALLVALUE DUP1 ISZERO PUSH2 0x1A6 JUMPI PUSH1 0x0 DUP1 REVERT JUMPDEST POP PUSH2 0x1AF PUSH2 0x488 JUMP JUMPDEST PUSH1 0x40 MLOAD PUSH2 0x1BC SWAP2 SWAP1 PUSH2 0x9D3 JUMP JUMPDEST PUSH1 0x40 MLOAD DUP1 SWAP2 SUB SWAP1 RETURN JUMPDEST CALLVALUE DUP1 ISZERO PUSH2 0x1D1 JUMPI PUSH1 0x0 DUP1 REVERT JUMPDEST POP PUSH2 0x1DA PUSH2 0x48E JUMP JUMPDEST PUSH1 0x40 MLOAD PUSH2 0x1E7 SWAP2 SWAP1 PUSH2 0x9D3 JUMP JUMPDEST PUSH1 0x40 MLOAD DUP1 SWAP2 SUB SWAP1 RETURN JUMPDEST CALLVALUE DUP1 ISZERO PUSH2 0x1FC JUMPI PUSH1 0x0 DUP1 REVERT JUMPDEST POP PUSH2 0x205 PUSH2 0x494 JUMP JUMPDEST PUSH1 0x40 MLOAD PUSH2 0x212 SWAP2 SWAP1 PUSH2 0x9B8 JUMP JUMPDEST PUSH1 0x40 MLOAD DUP1 SWAP2 SUB SWAP1 RETURN JUMPDEST CALLVALUE DUP1 ISZERO PUSH2 0x227 JUMPI PUSH1 0x0 DUP1 REVERT JUMPDEST POP PUSH2 0x242 PUSH1 0x4 DUP1 CALLDATASIZE SUB DUP2 ADD SWAP1 PUSH2 0x23D SWAP2 SWAP1 PUSH2 0x91A JUMP JUMPDEST PUSH2 0x4BA JUMP JUMPDEST PUSH1 0x40 MLOAD PUSH2 0x24F SWAP2 SWAP1 PUSH2 0x9D3 JUMP JUMPDEST PUSH1 0x40 MLOAD DUP1 SWAP2 SUB SWAP1 RETURN JUMPDEST CALLVALUE DUP1 ISZERO PUSH2 0x264 JUMPI PUSH1 0x0 DUP1 REVERT JUMPDEST POP PUSH2 0x27F PUSH1 0x4 DUP1 CALLDATASIZE SUB DUP2 ADD SWAP1 PUSH2 0x27A SWAP2 SWAP1 PUSH2 0x91A JUMP JUMPDEST PUSH2 0x4D1 JUMP JUMPDEST PUSH1 0x40 MLOAD PUSH2 0x28C SWAP2 SWAP1 PUSH2 0x9D3 JUMP JUMPDEST PUSH1 0x40 MLOAD DUP1 SWAP2 SUB SWAP1 RETURN JUMPDEST PUSH2 0x29D PUSH2 0x74B JUMP JUMPDEST STOP JUMPDEST CALLVALUE DUP1 ISZERO PUSH2 0x2AB JUMPI PUSH1 0x0 DUP1 REVERT JUMPDEST POP PUSH2 0x2B4 PUSH2 0x766 JUMP JUMPDEST PUSH1 0x40 MLOAD PUSH2 0x2C1 SWAP2 SWAP1 PUSH2 0x9B8 JUMP JUMPDEST PUSH1 0x40 MLOAD DUP1 SWAP2 SUB SWAP1 RETURN JUMPDEST CALLVALUE DUP1 ISZERO PUSH2 0x2D6 JUMPI PUSH1 0x0 DUP1 REVERT JUMPDEST POP PUSH2 0x2DF PUSH2 0x78A JUMP JUMPDEST PUSH1 0x40 MLOAD PUSH2 0x2EC SWAP2 SWAP1 PUSH2 0x9D3 JUMP JUMPDEST PUSH1 0x40 MLOAD DUP1 SWAP2 SUB SWAP1 RETURN JUMPDEST CALLVALUE DUP1 ISZERO PUSH2 0x301 JUMPI PUSH1 0x0 DUP1 REVERT JUMPDEST POP PUSH2 0x31C PUSH1 0x4 DUP1 CALLDATASIZE SUB DUP2 ADD SWAP1 PUSH2 0x317 SWAP2 SWAP1 PUSH2 0x91A JUMP JUMPDEST PUSH2 0x790 JUMP JUMPDEST PUSH1 0x40 MLOAD PUSH2 0x329 SWAP2 SWAP1 PUSH2 0x9B8 JUMP JUMPDEST PUSH1 0x40 MLOAD DUP1 SWAP2 SUB SWAP1 RETURN JUMPDEST CALLVALUE DUP1 ISZERO PUSH2 0x33E JUMPI PUSH1 0x0 DUP1 REVERT JUMPDEST POP PUSH2 0x347 PUSH2 0x7C6 JUMP JUMPDEST PUSH1 0x40 MLOAD PUSH2 0x354 SWAP2 SWAP1 PUSH2 0x9D3 JUMP JUMPDEST PUSH1 0x40 MLOAD DUP1 SWAP2 SUB SWAP1 RETURN JUMPDEST CALLVALUE DUP1 ISZERO PUSH2 0x369 JUMPI PUSH1 0x0 DUP1 REVERT JUMPDEST POP PUSH2 0x372 PUSH2 0x7CC JUMP JUMPDEST PUSH1 0x40 MLOAD PUSH2 0x37F SWAP2 SWAP1 PUSH2 0x9D3 JUMP JUMPDEST PUSH1 0x40 MLOAD DUP1 SWAP2 SUB SWAP1 RETURN JUMPDEST CALLVALUE DUP1 ISZERO PUSH2 0x394 JUMPI PUSH1 0x0 DUP1 REVERT JUMPDEST POP PUSH2 0x39D PUSH2 0x7D2 JUMP JUMPDEST PUSH1 0x40 MLOAD PUSH2 0x3AA SWAP2 SWAP1 PUSH2 0x9D3 JUMP JUMPDEST PUSH1 0x40 MLOAD DUP1 SWAP2 SUB SWAP1 RETURN JUMPDEST PUSH2 0x3CD PUSH1 0x4 DUP1 CALLDATASIZE SUB DUP2 ADD SWAP1 PUSH2 0x3C8 SWAP2 SWAP1 PUSH2 0x8DA JUMP JUMPDEST PUSH2 0x7D8 JUMP JUMPDEST STOP JUMPDEST CALLVALUE DUP1 ISZERO PUSH2 0x3DB JUMPI PUSH1 0x0 DUP1 REVERT JUMPDEST POP PUSH2 0x3E4 PUSH2 0x830 JUMP JUMPDEST PUSH1 0x40 MLOAD PUSH2 0x3F1 SWAP2 SWAP1 PUSH2 0x9D3 JUMP JUMPDEST PUSH1 0x40 MLOAD DUP1 SWAP2 SUB SWAP1 RETURN JUMPDEST CALLVALUE DUP1 ISZERO PUSH2 0x406 JUMPI PUSH1 0x0 DUP1 REVERT JUMPDEST POP PUSH2 0x421 PUSH1 0x4 DUP1 CALLDATASIZE SUB DUP2 ADD SWAP1 PUSH2 0x41C SWAP2 SWAP1 PUSH2 0x947 JUMP JUMPDEST PUSH2 0x836 JUMP JUMPDEST PUSH1 0x40 MLOAD PUSH2 0x430 SWAP4 SWAP3 SWAP2 SWAP1 PUSH2 0x9EE JUMP JUMPDEST PUSH1 0x40 MLOAD DUP1 SWAP2 SUB SWAP1 RETURN JUMPDEST CALLVALUE DUP1 ISZERO PUSH2 0x445 JUMPI PUSH1 0x0 DUP1 REVERT JUMPDEST POP PUSH2 0x460 PUSH1 0x4 DUP1 CALLDATASIZE SUB DUP2 ADD SWAP1 PUSH2 0x45B SWAP2 SWAP1 PUSH2 0x8AD JUMP JUMPDEST PUSH2 0x84D JUMP JUMPDEST PUSH1 0x40 MLOAD PUSH2 0x46D SWAP2 SWAP1 PUSH2 0x9D3 JUMP JUMPDEST PUSH1 0x40 MLOAD DUP1 SWAP2 SUB SWAP1 RETURN JUMPDEST PUSH1 0x18 SLOAD DUP2 JUMP JUMPDEST PUSH1 0x17 SLOAD DUP2 JUMP JUMPDEST PUSH1 0x16 SLOAD DUP2 JUMP JUMPDEST PUSH1 0x15 SLOAD DUP2 JUMP JUMPDEST PUSH1 0x13 SLOAD DUP2 JUMP JUMPDEST PUSH1 0x1 PUSH1 0x0 SWAP1 SLOAD SWAP1 PUSH2 0x100 EXP SWAP1 DIV PUSH20 0xFFFFFFFFFFFFFFFFFFFFFFFFFFFFFFFFFFFFFFFF AND DUP2 JUMP JUMPDEST PUSH1 0x0 PUSH1 0x13 SLOAD DUP3 PUSH2 0x4CA SWAP2 SWAP1 PUSH2 0xA7B JUMP JUMPDEST SWAP1 POP SWAP2 SWAP1 POP JUMP JUMPDEST PUSH1 0x0 PUSH1 0xFB DUP3 LT ISZERO PUSH2 0x6D1 JUMPI PUSH1 0x33 DUP3 LT ISZERO PUSH2 0x4FA JUMPI PUSH1 0x14 SLOAD DUP3 PUSH2 0x4F3 SWAP2 SWAP1 PUSH2 0xA7B JUMP JUMPDEST SWAP1 POP PUSH2 0x6CC JUMP JUMPDEST PUSH1 0x32 DUP3 GT DUP1 ISZERO PUSH2 0x50A JUMPI POP PUSH1 0x65 DUP3 LT JUMPDEST ISZERO PUSH2 0x549 JUMPI PUSH1 0x15 SLOAD PUSH1 0x32 DUP4 PUSH2 0x51F SWAP2 SWAP1 PUSH2 0xAD5 JUMP JUMPDEST PUSH2 0x529 SWAP2 SWAP1 PUSH2 0xA7B JUMP JUMPDEST PUSH1 0x14 SLOAD PUSH1 0x32 PUSH2 0x538 SWAP2 SWAP1 PUSH2 0xA7B JUMP JUMPDEST PUSH2 0x542 SWAP2 SWAP1 PUSH2 0xA25 JUMP JUMPDEST SWAP1 POP PUSH2 0x6CB JUMP JUMPDEST PUSH1 0x64 DUP3 GT DUP1 ISZERO PUSH2 0x559 JUMPI POP PUSH1 0x97 DUP3 LT JUMPDEST ISZERO PUSH2 0x5B1 JUMPI PUSH1 0x16 SLOAD PUSH1 0x32 DUP4 PUSH2 0x56E SWAP2 SWAP1 PUSH2 0xAD5 JUMP JUMPDEST PUSH2 0x578 SWAP2 SWAP1 PUSH2 0xA7B JUMP JUMPDEST PUSH1 0x15 SLOAD PUSH1 0x32 PUSH2 0x587 SWAP2 SWAP1 PUSH2 0xA7B JUMP JUMPDEST PUSH1 0x14 SLOAD PUSH1 0x32 PUSH2 0x596 SWAP2 SWAP1 PUSH2 0xA7B JUMP JUMPDEST PUSH2 0x5A0 SWAP2 SWAP1 PUSH2 0xA25 JUMP JUMPDEST PUSH2 0x5AA SWAP2 SWAP1 PUSH2 0xA25 JUMP JUMPDEST SWAP1 POP PUSH2 0x6CA JUMP JUMPDEST PUSH1 0x96 DUP3 GT DUP1 ISZERO PUSH2 0x5C1 JUMPI POP PUSH1 0xC9 DUP3 LT JUMPDEST ISZERO PUSH2 0x632 JUMPI PUSH1 0x17 SLOAD PUSH1 0x32 DUP4 PUSH2 0x5D6 SWAP2 SWAP1 PUSH2 0xAD5 JUMP JUMPDEST PUSH2 0x5E0 SWAP2 SWAP1 PUSH2 0xA7B JUMP JUMPDEST PUSH1 0x16 SLOAD PUSH1 0x32 PUSH2 0x5EF SWAP2 SWAP1 PUSH2 0xA7B JUMP JUMPDEST PUSH1 0x15 SLOAD PUSH1 0x32 PUSH2 0x5FE SWAP2 SWAP1 PUSH2 0xA7B JUMP JUMPDEST PUSH1 0x14 SLOAD PUSH1 0x32 PUSH2 0x60D SWAP2 SWAP1 PUSH2 0xA7B JUMP JUMPDEST PUSH2 0x617 SWAP2 SWAP1 PUSH2 0xA25 JUMP JUMPDEST PUSH2 0x621 SWAP2 SWAP1 PUSH2 0xA25 JUMP JUMPDEST PUSH2 0x62B SWAP2 SWAP1 PUSH2 0xA25 JUMP JUMPDEST SWAP1 POP PUSH2 0x6C9 JUMP JUMPDEST PUSH1 0xC8 DUP3 GT DUP1 ISZERO PUSH2 0x642 JUMPI POP PUSH1 0xFB DUP3 LT JUMPDEST ISZERO PUSH2 0x6C8 JUMPI PUSH1 0x18 SLOAD PUSH1 0x32 DUP4 PUSH2 0x657 SWAP2 SWAP1 PUSH2 0xAD5 JUMP JUMPDEST PUSH2 0x661 SWAP2 SWAP1 PUSH2 0xA7B JUMP JUMPDEST PUSH1 0x17 SLOAD PUSH1 0x32 PUSH2 0x670 SWAP2 SWAP1 PUSH2 0xA7B JUMP JUMPDEST PUSH1 0x16 SLOAD PUSH1 0x32 PUSH2 0x67F SWAP2 SWAP1 PUSH2 0xA7B JUMP JUMPDEST PUSH1 0x15 SLOAD PUSH1 0x32 PUSH2 0x68E SWAP2 SWAP1 PUSH2 0xA7B JUMP JUMPDEST PUSH1 0x14 SLOAD PUSH1 0x32 PUSH2 0x69D SWAP2 SWAP1 PUSH2 0xA7B JUMP JUMPDEST PUSH2 0x6A7 SWAP2 SWAP1 PUSH2 0xA25 JUMP JUMPDEST PUSH2 0x6B1 SWAP2 SWAP1 PUSH2 0xA25 JUMP JUMPDEST PUSH2 0x6BB SWAP2 SWAP1 PUSH2 0xA25 JUMP JUMPDEST PUSH2 0x6C5 SWAP2 SWAP1 PUSH2 0xA25 JUMP JUMPDEST SWAP1 POP JUMPDEST JUMPDEST JUMPDEST JUMPDEST JUMPDEST PUSH2 0x746 JUMP JUMPDEST PUSH1 0xFA DUP3 GT DUP1 ISZERO PUSH2 0x6E2 JUMPI POP PUSH2 0x15F DUP3 LT JUMPDEST ISZERO PUSH2 0x6FC JUMPI PUSH1 0x19 SLOAD DUP3 PUSH2 0x6F5 SWAP2 SWAP1 PUSH2 0xA7B JUMP JUMPDEST SWAP1 POP PUSH2 0x745 JUMP JUMPDEST PUSH2 0x15E DUP3 GT DUP1 ISZERO PUSH2 0x70E JUMPI POP PUSH2 0x1C3 DUP3 LT JUMPDEST ISZERO PUSH2 0x728 JUMPI PUSH1 0x1A SLOAD DUP3 PUSH2 0x721 SWAP2 SWAP1 PUSH2 0xA7B JUMP JUMPDEST SWAP1 POP PUSH2 0x744 JUMP JUMPDEST PUSH2 0x1C2 DUP3 GT ISZERO PUSH2 0x743 JUMPI PUSH1 0x1B SLOAD DUP3 PUSH2 0x740 SWAP2 SWAP1 PUSH2 0xA7B JUMP JUMPDEST SWAP1 POP JUMPDEST JUMPDEST JUMPDEST JUMPDEST SWAP2 SWAP1 POP JUMP JUMPDEST CALLVALUE PUSH1 0x12 PUSH1 0x0 DUP3 DUP3 SLOAD PUSH2 0x75D SWAP2 SWAP1 PUSH2 0xA25 JUMP JUMPDEST SWAP3 POP POP DUP2 SWAP1 SSTORE POP JUMP JUMPDEST PUSH1 0x0 DUP1 SLOAD SWAP1 PUSH2 0x100 EXP SWAP1 DIV PUSH20 0xFFFFFFFFFFFFFFFFFFFFFFFFFFFFFFFFFFFFFFFF AND DUP2 JUMP JUMPDEST PUSH1 0x1B SLOAD DUP2 JUMP JUMPDEST PUSH1 0x2 DUP2 PUSH1 0x10 DUP2 LT PUSH2 0x7A0 JUMPI PUSH1 0x0 DUP1 REVERT JUMPDEST ADD PUSH1 0x0 SWAP2 POP SLOAD SWAP1 PUSH2 0x100 EXP SWAP1 DIV PUSH20 0xFFFFFFFFFFFFFFFFFFFFFFFFFFFFFFFFFFFFFFFF AND DUP2 JUMP JUMPDEST PUSH1 0x19 SLOAD DUP2 JUMP JUMPDEST PUSH1 0x12 SLOAD DUP2 JUMP JUMPDEST PUSH1 0x14 SLOAD DUP2 JUMP JUMPDEST DUP1 CALLVALUE LT ISZERO PUSH2 0x7E5 JUMPI PUSH1 0x0 DUP1 REVERT JUMPDEST DUP2 PUSH20 0xFFFFFFFFFFFFFFFFFFFFFFFFFFFFFFFFFFFFFFFF AND PUSH2 0x8FC DUP3 SWAP1 DUP2 ISZERO MUL SWAP1 PUSH1 0x40 MLOAD PUSH1 0x0 PUSH1 0x40 MLOAD DUP1 DUP4 SUB DUP2 DUP6 DUP9 DUP9 CALL SWAP4 POP POP POP POP ISZERO DUP1 ISZERO PUSH2 0x82B JUMPI RETURNDATASIZE PUSH1 0x0 DUP1 RETURNDATACOPY RETURNDATASIZE PUSH1 0x0 REVERT JUMPDEST POP POP POP JUMP JUMPDEST PUSH1 0x1A SLOAD DUP2 JUMP JUMPDEST PUSH1 0x0 DUP1 PUSH1 0x0 DUP6 SWAP3 POP DUP5 SWAP2 POP DUP4 SWAP1 POP SWAP4 POP SWAP4 POP SWAP4 SWAP1 POP JUMP JUMPDEST PUSH1 0x0 DUP2 PUSH20 0xFFFFFFFFFFFFFFFFFFFFFFFFFFFFFFFFFFFFFFFF AND BALANCE SWAP1 POP SWAP2 SWAP1 POP JUMP JUMPDEST PUSH1 0x0 DUP2 CALLDATALOAD SWAP1 POP PUSH2 0x87D DUP2 PUSH2 0xB8B JUMP JUMPDEST SWAP3 SWAP2 POP POP JUMP JUMPDEST PUSH1 0x0 DUP2 CALLDATALOAD SWAP1 POP PUSH2 0x892 DUP2 PUSH2 0xBA2 JUMP JUMPDEST SWAP3 SWAP2 POP POP JUMP JUMPDEST PUSH1 0x0 DUP2 CALLDATALOAD SWAP1 POP PUSH2 0x8A7 DUP2 PUSH2 0xBB9 JUMP JUMPDEST SWAP3 SWAP2 POP POP JUMP JUMPDEST PUSH1 0x0 PUSH1 0x20 DUP3 DUP5 SUB SLT ISZERO PUSH2 0x8C3 JUMPI PUSH2 0x8C2 PUSH2 0xB86 JUMP JUMPDEST JUMPDEST PUSH1 0x0 PUSH2 0x8D1 DUP5 DUP3 DUP6 ADD PUSH2 0x86E JUMP JUMPDEST SWAP2 POP POP SWAP3 SWAP2 POP POP JUMP JUMPDEST PUSH1 0x0 DUP1 PUSH1 0x40 DUP4 DUP6 SUB SLT ISZERO PUSH2 0x8F1 JUMPI PUSH2 0x8F0 PUSH2 0xB86 JUMP JUMPDEST JUMPDEST PUSH1 0x0 PUSH2 0x8FF DUP6 DUP3 DUP7 ADD PUSH2 0x883 JUMP JUMPDEST SWAP3 POP POP PUSH1 0x20 PUSH2 0x910 DUP6 DUP3 DUP7 ADD PUSH2 0x898 JUMP JUMPDEST SWAP2 POP POP SWAP3 POP SWAP3 SWAP1 POP JUMP JUMPDEST PUSH1 0x0 PUSH1 0x20 DUP3 DUP5 SUB SLT ISZERO PUSH2 0x930 JUMPI PUSH2 0x92F PUSH2 0xB86 JUMP JUMPDEST JUMPDEST PUSH1 0x0 PUSH2 0x93E DUP5 DUP3 DUP6 ADD PUSH2 0x898 JUMP JUMPDEST SWAP2 POP POP SWAP3 SWAP2 POP POP JUMP JUMPDEST PUSH1 0x0 DUP1 PUSH1 0x0 PUSH1 0x60 DUP5 DUP7 SUB SLT ISZERO PUSH2 0x960 JUMPI PUSH2 0x95F PUSH2 0xB86 JUMP JUMPDEST JUMPDEST PUSH1 0x0 PUSH2 0x96E DUP7 DUP3 DUP8 ADD PUSH2 0x898 JUMP JUMPDEST SWAP4 POP POP PUSH1 0x20 PUSH2 0x97F DUP7 DUP3 DUP8 ADD PUSH2 0x898 JUMP JUMPDEST SWAP3 POP POP PUSH1 0x40 PUSH2 0x990 DUP7 DUP3 DUP8 ADD PUSH2 0x898 JUMP JUMPDEST SWAP2 POP POP SWAP3 POP SWAP3 POP SWAP3 JUMP JUMPDEST PUSH2 0x9A3 DUP2 PUSH2 0xB09 JUMP JUMPDEST DUP3 MSTORE POP POP JUMP JUMPDEST PUSH2 0x9B2 DUP2 PUSH2 0xB4D JUMP JUMPDEST DUP3 MSTORE POP POP JUMP JUMPDEST PUSH1 0x0 PUSH1 0x20 DUP3 ADD SWAP1 POP PUSH2 0x9CD PUSH1 0x0 DUP4 ADD DUP5 PUSH2 0x99A JUMP JUMPDEST SWAP3 SWAP2 POP POP JUMP JUMPDEST PUSH1 0x0 PUSH1 0x20 DUP3 ADD SWAP1 POP PUSH2 0x9E8 PUSH1 0x0 DUP4 ADD DUP5 PUSH2 0x9A9 JUMP JUMPDEST SWAP3 SWAP2 POP POP JUMP JUMPDEST PUSH1 0x0 PUSH1 0x60 DUP3 ADD SWAP1 POP PUSH2 0xA03 PUSH1 0x0 DUP4 ADD DUP7 PUSH2 0x9A9 JUMP JUMPDEST PUSH2 0xA10 PUSH1 0x20 DUP4 ADD DUP6 PUSH2 0x9A9 JUMP JUMPDEST PUSH2 0xA1D PUSH1 0x40 DUP4 ADD DUP5 PUSH2 0x9A9 JUMP JUMPDEST SWAP5 SWAP4 POP POP POP POP JUMP JUMPDEST PUSH1 0x0 PUSH2 0xA30 DUP3 PUSH2 0xB4D JUMP JUMPDEST SWAP2 POP PUSH2 0xA3B DUP4 PUSH2 0xB4D JUMP JUMPDEST SWAP3 POP DUP3 PUSH32 0xFFFFFFFFFFFFFFFFFFFFFFFFFFFFFFFFFFFFFFFFFFFFFFFFFFFFFFFFFFFFFFFF SUB DUP3 GT ISZERO PUSH2 0xA70 JUMPI PUSH2 0xA6F PUSH2 0xB57 JUMP JUMPDEST JUMPDEST DUP3 DUP3 ADD SWAP1 POP SWAP3 SWAP2 POP POP JUMP JUMPDEST PUSH1 0x0 PUSH2 0xA86 DUP3 PUSH2 0xB4D JUMP JUMPDEST SWAP2 POP PUSH2 0xA91 DUP4 PUSH2 0xB4D JUMP JUMPDEST SWAP3 POP DUP2 PUSH32 0xFFFFFFFFFFFFFFFFFFFFFFFFFFFFFFFFFFFFFFFFFFFFFFFFFFFFFFFFFFFFFFFF DIV DUP4 GT DUP3 ISZERO ISZERO AND ISZERO PUSH2 0xACA JUMPI PUSH2 0xAC9 PUSH2 0xB57 JUMP JUMPDEST JUMPDEST DUP3 DUP3 MUL SWAP1 POP SWAP3 SWAP2 POP POP JUMP JUMPDEST PUSH1 0x0 PUSH2 0xAE0 DUP3 PUSH2 0xB4D JUMP JUMPDEST SWAP2 POP PUSH2 0xAEB DUP4 PUSH2 0xB4D JUMP JUMPDEST SWAP3 POP DUP3 DUP3 LT ISZERO PUSH2 0xAFE JUMPI PUSH2 0xAFD PUSH2 0xB57 JUMP JUMPDEST JUMPDEST DUP3 DUP3 SUB SWAP1 POP SWAP3 SWAP2 POP POP JUMP JUMPDEST PUSH1 0x0 PUSH2 0xB14 DUP3 PUSH2 0xB2D JUMP JUMPDEST SWAP1 POP SWAP2 SWAP1 POP JUMP JUMPDEST PUSH1 0x0 PUSH2 0xB26 DUP3 PUSH2 0xB2D JUMP JUMPDEST SWAP1 POP SWAP2 SWAP1 POP JUMP JUMPDEST PUSH1 0x0 PUSH20 0xFFFFFFFFFFFFFFFFFFFFFFFFFFFFFFFFFFFFFFFF DUP3 AND SWAP1 POP SWAP2 SWAP1 POP JUMP JUMPDEST PUSH1 0x0 DUP2 SWAP1 POP SWAP2 SWAP1 POP JUMP JUMPDEST PUSH32 0x4E487B7100000000000000000000000000000000000000000000000000000000 PUSH1 0x0 MSTORE PUSH1 0x11 PUSH1 0x4 MSTORE PUSH1 0x24 PUSH1 0x0 REVERT JUMPDEST PUSH1 0x0 DUP1 REVERT JUMPDEST PUSH2 0xB94 DUP2 PUSH2 0xB09 JUMP JUMPDEST DUP2 EQ PUSH2 0xB9F JUMPI PUSH1 0x0 DUP1 REVERT JUMPDEST POP JUMP JUMPDEST PUSH2 0xBAB DUP2 PUSH2 0xB1B JUMP JUMPDEST DUP2 EQ PUSH2 0xBB6 JUMPI PUSH1 0x0 DUP1 REVERT JUMPDEST POP JUMP JUMPDEST PUSH2 0xBC2 DUP2 PUSH2 0xB4D JUMP JUMPDEST DUP2 EQ PUSH2 0xBCD JUMPI PUSH1 0x0 DUP1 REVERT JUMPDEST POP JUMP INVALID LOG2 PUSH5 0x6970667358 0x22 SLT KECCAK256 SUB 0x21 GASPRICE 0x4C 0xD6 RETURNDATASIZE 0x26 0xBF 0xE4 0xE7 GT 0x2D 0xB3 0xA7 DUP7 0xEF 0xE6 PUSH26 0x8688202893DFD2A4C0A7EB391A9B64736F6C6343000807003300 "
				},
				"gasEstimates": {
					"creation": {
						"codeDepositCost": "615600",
						"executionCost": "204611",
						"totalCost": "820211"
					},
					"external": {
						"balCheck()": "infinite",
						"balance()": "2540",
						"btc1()": "2451",
						"btc2()": "2519",
						"btc3()": "2497",
						"btc4()": "2475",
						"btc5()": "2453",
						"btc6()": "2518",
						"btc7()": "2495",
						"btc8()": "2474",
						"btp()": "2452",
						"getBalance(address)": "3367",
						"getConsumerTariff(uint256)": "infinite",
						"getProsumerTariff(uint256)": "infinite",
						"getnPnCnEV(uint256,uint256,uint256)": "infinite",
						"manager()": "2559",
						"owner()": "2534",
						"seller(uint256)": "2872",
						"send(address,uint256)": "infinite"
					}
				},
				"methodIdentifiers": {
					"balCheck()": "7c134b14",
					"balance()": "b69ef8a8",
					"btc1()": "c2c496ec",
					"btc2()": "28780a44",
					"btc3()": "20e731a1",
					"btc4()": "103347e7",
					"btc5()": "0c03a1a3",
					"btc6()": "b4ad7fa9",
					"btc7()": "ed2fa5ab",
					"btc8()": "a8bdb68b",
					"btp()": "2c9af64c",
					"getBalance(address)": "f8b2cb4f",
					"getConsumerTariff(uint256)": "721028ec",
					"getProsumerTariff(uint256)": "5c8f6b56",
					"getnPnCnEV(uint256,uint256,uint256)": "f02e48c3",
					"manager()": "481c6a75",
					"owner()": "8da5cb5b",
					"seller(uint256)": "aacdfe6f",
					"send(address,uint256)": "d0679d34"
				}
			},
			"storageLayout": {
				"storage": [
					{
						"astId": 3,
						"contract": "eth based/truffle/contracts/FLIR_Contract.sol:FLIRContract",
						"label": "owner",
						"offset": 0,
						"slot": "0",
						"type": "t_address"
					},
					{
						"astId": 5,
						"contract": "eth based/truffle/contracts/FLIR_Contract.sol:FLIRContract",
						"label": "manager",
						"offset": 0,
						"slot": "1",
						"type": "t_address"
					},
					{
						"astId": 9,
						"contract": "eth based/truffle/contracts/FLIR_Contract.sol:FLIRContract",
						"label": "seller",
						"offset": 0,
						"slot": "2",
						"type": "t_array(t_address)16_storage"
					},
					{
						"astId": 12,
						"contract": "eth based/truffle/contracts/FLIR_Contract.sol:FLIRContract",
						"label": "balance",
						"offset": 0,
						"slot": "18",
						"type": "t_uint256"
					},
					{
						"astId": 15,
						"contract": "eth based/truffle/contracts/FLIR_Contract.sol:FLIRContract",
						"label": "btp",
						"offset": 0,
						"slot": "19",
						"type": "t_uint256"
					},
					{
						"astId": 18,
						"contract": "eth based/truffle/contracts/FLIR_Contract.sol:FLIRContract",
						"label": "btc1",
						"offset": 0,
						"slot": "20",
						"type": "t_uint256"
					},
					{
						"astId": 21,
						"contract": "eth based/truffle/contracts/FLIR_Contract.sol:FLIRContract",
						"label": "btc2",
						"offset": 0,
						"slot": "21",
						"type": "t_uint256"
					},
					{
						"astId": 24,
						"contract": "eth based/truffle/contracts/FLIR_Contract.sol:FLIRContract",
						"label": "btc3",
						"offset": 0,
						"slot": "22",
						"type": "t_uint256"
					},
					{
						"astId": 27,
						"contract": "eth based/truffle/contracts/FLIR_Contract.sol:FLIRContract",
						"label": "btc4",
						"offset": 0,
						"slot": "23",
						"type": "t_uint256"
					},
					{
						"astId": 30,
						"contract": "eth based/truffle/contracts/FLIR_Contract.sol:FLIRContract",
						"label": "btc5",
						"offset": 0,
						"slot": "24",
						"type": "t_uint256"
					},
					{
						"astId": 33,
						"contract": "eth based/truffle/contracts/FLIR_Contract.sol:FLIRContract",
						"label": "btc6",
						"offset": 0,
						"slot": "25",
						"type": "t_uint256"
					},
					{
						"astId": 36,
						"contract": "eth based/truffle/contracts/FLIR_Contract.sol:FLIRContract",
						"label": "btc7",
						"offset": 0,
						"slot": "26",
						"type": "t_uint256"
					},
					{
						"astId": 39,
						"contract": "eth based/truffle/contracts/FLIR_Contract.sol:FLIRContract",
						"label": "btc8",
						"offset": 0,
						"slot": "27",
						"type": "t_uint256"
					}
				],
				"types": {
					"t_address": {
						"encoding": "inplace",
						"label": "address",
						"numberOfBytes": "20"
					},
					"t_array(t_address)16_storage": {
						"base": "t_address",
						"encoding": "inplace",
						"label": "address[16]",
						"numberOfBytes": "512"
					},
					"t_uint256": {
						"encoding": "inplace",
						"label": "uint256",
						"numberOfBytes": "32"
					}
				}
			},
			"userdoc": {
				"kind": "user",
				"methods": {},
				"version": 1
			}
		}
	}
}