{
	"eth based/truffle/contracts/FLIR_Contract.sol": {
		"FLIRContract": {
			"abi": [
				{
					"inputs": [],
					"stateMutability": "nonpayable",
					"type": "constructor"
				},
				{
					"inputs": [],
					"name": "balCheck",
					"outputs": [],
					"stateMutability": "payable",
					"type": "function"
				},
				{
					"inputs": [],
					"name": "balance",
					"outputs": [
						{
							"internalType": "uint256",
							"name": "",
							"type": "uint256"
						}
					],
					"stateMutability": "view",
					"type": "function"
				},
				{
					"inputs": [],
					"name": "btc1",
					"outputs": [
						{
							"internalType": "uint256",
							"name": "",
							"type": "uint256"
						}
					],
					"stateMutability": "view",
					"type": "function"
				},
				{
					"inputs": [],
					"name": "btc2",
					"outputs": [
						{
							"internalType": "uint256",
							"name": "",
							"type": "uint256"
						}
					],
					"stateMutability": "view",
					"type": "function"
				},
				{
					"inputs": [],
					"name": "btc3",
					"outputs": [
						{
							"internalType": "uint256",
							"name": "",
							"type": "uint256"
						}
					],
					"stateMutability": "view",
					"type": "function"
				},
				{
					"inputs": [],
					"name": "btc4",
					"outputs": [
						{
							"internalType": "uint256",
							"name": "",
							"type": "uint256"
						}
					],
					"stateMutability": "view",
					"type": "function"
				},
				{
					"inputs": [],
					"name": "btc5",
					"outputs": [
						{
							"internalType": "uint256",
							"name": "",
							"type": "uint256"
						}
					],
					"stateMutability": "view",
					"type": "function"
				},
				{
					"inputs": [],
					"name": "btc6",
					"outputs": [
						{
							"internalType": "uint256",
							"name": "",
							"type": "uint256"
						}
					],
					"stateMutability": "view",
					"type": "function"
				},
				{
					"inputs": [],
					"name": "btc7",
					"outputs": [
						{
							"internalType": "uint256",
							"name": "",
							"type": "uint256"
						}
					],
					"stateMutability": "view",
					"type": "function"
				},
				{
					"inputs": [],
					"name": "btc8",
					"outputs": [
						{
							"internalType": "uint256",
							"name": "",
							"type": "uint256"
						}
					],
					"stateMutability": "view",
					"type": "function"
				},
				{
					"inputs": [],
					"name": "btp",
					"outputs": [
						{
							"internalType": "uint256",
							"name": "",
							"type": "uint256"
						}
					],
					"stateMutability": "view",
					"type": "function"
				},
				{
					"inputs": [
						{
							"internalType": "address",
							"name": "_balanceCheck",
							"type": "address"
						}
					],
					"name": "getBalance",
					"outputs": [
						{
							"internalType": "uint256",
							"name": "bal",
							"type": "uint256"
						}
					],
					"stateMutability": "nonpayable",
					"type": "function"
				},
				{
					"inputs": [
						{
							"internalType": "uint256",
							"name": "Cimp",
							"type": "uint256"
						}
					],
					"name": "getConsumerTariff",
					"outputs": [
						{
							"internalType": "uint256",
							"name": "Tc",
							"type": "uint256"
						}
					],
					"stateMutability": "nonpayable",
					"type": "function"
				},
				{
					"inputs": [
						{
							"internalType": "uint256",
							"name": "Pexp",
							"type": "uint256"
						}
					],
					"name": "getProsumerTariff",
					"outputs": [
						{
							"internalType": "uint256",
							"name": "Tp",
							"type": "uint256"
						}
					],
					"stateMutability": "nonpayable",
					"type": "function"
				},
				{
					"inputs": [
						{
							"internalType": "uint256",
							"name": "nPget",
							"type": "uint256"
						},
						{
							"internalType": "uint256",
							"name": "nCget",
							"type": "uint256"
						},
						{
							"internalType": "uint256",
							"name": "nEVget",
							"type": "uint256"
						}
					],
					"name": "getnPnCnEV",
					"outputs": [
						{
							"internalType": "uint256",
							"name": "nP",
							"type": "uint256"
						},
						{
							"internalType": "uint256",
							"name": "nC",
							"type": "uint256"
						},
						{
							"internalType": "uint256",
							"name": "nEV",
							"type": "uint256"
						}
					],
					"stateMutability": "nonpayable",
					"type": "function"
				},
				{
					"inputs": [
						{
							"internalType": "address payable",
							"name": "_receiver",
							"type": "address"
						},
						{
							"internalType": "uint256",
							"name": "amount",
							"type": "uint256"
						}
					],
					"name": "send",
					"outputs": [],
					"stateMutability": "payable",
					"type": "function"
				}
			],
			"devdoc": {
				"kind": "dev",
				"methods": {},
				"version": 1
			},
			"evm": {
				"assembly": "    /* \"eth based/truffle/contracts/FLIR_Contract.sol\":129:3751  contract FLIRContract{... */\n  mstore(0x40, 0x80)\n    /* \"eth based/truffle/contracts/FLIR_Contract.sol\":607:608  0 */\n  0x00\n    /* \"eth based/truffle/contracts/FLIR_Contract.sol\":585:608  uint public balance = 0 */\n  0x02\n  sstore\n    /* \"eth based/truffle/contracts/FLIR_Contract.sol\":764:765  3 */\n  0x03\n    /* \"eth based/truffle/contracts/FLIR_Contract.sol\":746:765  uint public btp = 3 */\n  dup1\n  sstore\n    /* \"eth based/truffle/contracts/FLIR_Contract.sol\":791:792  3 */\n  0x03\n    /* \"eth based/truffle/contracts/FLIR_Contract.sol\":772:792  uint public btc1 = 3 */\n  0x04\n  sstore\n    /* \"eth based/truffle/contracts/FLIR_Contract.sol\":817:818  4 */\n  0x04\n    /* \"eth based/truffle/contracts/FLIR_Contract.sol\":798:818  uint public btc2 = 4 */\n  0x05\n  sstore\n    /* \"eth based/truffle/contracts/FLIR_Contract.sol\":843:844  5 */\n  0x05\n    /* \"eth based/truffle/contracts/FLIR_Contract.sol\":824:844  uint public btc3 = 5 */\n  0x06\n  sstore\n    /* \"eth based/truffle/contracts/FLIR_Contract.sol\":869:870  6 */\n  0x06\n    /* \"eth based/truffle/contracts/FLIR_Contract.sol\":850:870  uint public btc4 = 6 */\n  0x07\n  sstore\n    /* \"eth based/truffle/contracts/FLIR_Contract.sol\":895:896  7 */\n  0x07\n    /* \"eth based/truffle/contracts/FLIR_Contract.sol\":876:896  uint public btc5 = 7 */\n  0x08\n  sstore\n    /* \"eth based/truffle/contracts/FLIR_Contract.sol\":921:922  8 */\n  0x08\n    /* \"eth based/truffle/contracts/FLIR_Contract.sol\":902:922  uint public btc6 = 8 */\n  0x09\n  sstore\n    /* \"eth based/truffle/contracts/FLIR_Contract.sol\":947:948  9 */\n  0x09\n    /* \"eth based/truffle/contracts/FLIR_Contract.sol\":928:948  uint public btc7 = 9 */\n  0x0a\n  sstore\n    /* \"eth based/truffle/contracts/FLIR_Contract.sol\":973:975  10 */\n  0x0a\n    /* \"eth based/truffle/contracts/FLIR_Contract.sol\":954:975  uint public btc8 = 10 */\n  0x0b\n  sstore\n    /* \"eth based/truffle/contracts/FLIR_Contract.sol\":614:669  constructor() public{... */\n  callvalue\n  dup1\n  iszero\n  tag_1\n  jumpi\n  0x00\n  dup1\n  revert\ntag_1:\n  pop\n    /* \"eth based/truffle/contracts/FLIR_Contract.sol\":652:662  msg.sender */\n  caller\n    /* \"eth based/truffle/contracts/FLIR_Contract.sol\":644:649  owner */\n  0x00\n  dup1\n    /* \"eth based/truffle/contracts/FLIR_Contract.sol\":644:662  owner = msg.sender */\n  0x0100\n  exp\n  dup2\n  sload\n  dup2\n  0xffffffffffffffffffffffffffffffffffffffff\n  mul\n  not\n  and\n  swap1\n  dup4\n  0xffffffffffffffffffffffffffffffffffffffff\n  and\n  mul\n  or\n  swap1\n  sstore\n  pop\n    /* \"eth based/truffle/contracts/FLIR_Contract.sol\":129:3751  contract FLIRContract{... */\n  dataSize(sub_0)\n  dup1\n  dataOffset(sub_0)\n  0x00\n  codecopy\n  0x00\n  return\nstop\n\nsub_0: assembly {\n        /* \"eth based/truffle/contracts/FLIR_Contract.sol\":129:3751  contract FLIRContract{... */\n      mstore(0x40, 0x80)\n      jumpi(tag_1, lt(calldatasize, 0x04))\n      shr(0xe0, calldataload(0x00))\n      dup1\n      0xa8bdb68b\n      gt\n      tag_18\n      jumpi\n      dup1\n      0xd0679d34\n      gt\n      tag_19\n      jumpi\n      dup1\n      0xd0679d34\n      eq\n      tag_14\n      jumpi\n      dup1\n      0xed2fa5ab\n      eq\n      tag_15\n      jumpi\n      dup1\n      0xf02e48c3\n      eq\n      tag_16\n      jumpi\n      dup1\n      0xf8b2cb4f\n      eq\n      tag_17\n      jumpi\n      jump(tag_1)\n    tag_19:\n      dup1\n      0xa8bdb68b\n      eq\n      tag_10\n      jumpi\n      dup1\n      0xb4ad7fa9\n      eq\n      tag_11\n      jumpi\n      dup1\n      0xb69ef8a8\n      eq\n      tag_12\n      jumpi\n      dup1\n      0xc2c496ec\n      eq\n      tag_13\n      jumpi\n      jump(tag_1)\n    tag_18:\n      dup1\n      0x2c9af64c\n      gt\n      tag_20\n      jumpi\n      dup1\n      0x2c9af64c\n      eq\n      tag_6\n      jumpi\n      dup1\n      0x5c8f6b56\n      eq\n      tag_7\n      jumpi\n      dup1\n      0x721028ec\n      eq\n      tag_8\n      jumpi\n      dup1\n      0x7c134b14\n      eq\n      tag_9\n      jumpi\n      jump(tag_1)\n    tag_20:\n      dup1\n      0x0c03a1a3\n      eq\n      tag_2\n      jumpi\n      dup1\n      0x103347e7\n      eq\n      tag_3\n      jumpi\n      dup1\n      0x20e731a1\n      eq\n      tag_4\n      jumpi\n      dup1\n      0x28780a44\n      eq\n      tag_5\n      jumpi\n    tag_1:\n      0x00\n      dup1\n      revert\n        /* \"eth based/truffle/contracts/FLIR_Contract.sol\":876:896  uint public btc5 = 7 */\n    tag_2:\n      callvalue\n      dup1\n      iszero\n      tag_21\n      jumpi\n      0x00\n      dup1\n      revert\n    tag_21:\n      pop\n      tag_22\n      tag_23\n      jump\t// in\n    tag_22:\n      mload(0x40)\n      tag_24\n      swap2\n      swap1\n      tag_25\n      jump\t// in\n    tag_24:\n      mload(0x40)\n      dup1\n      swap2\n      sub\n      swap1\n      return\n        /* \"eth based/truffle/contracts/FLIR_Contract.sol\":850:870  uint public btc4 = 6 */\n    tag_3:\n      callvalue\n      dup1\n      iszero\n      tag_26\n      jumpi\n      0x00\n      dup1\n      revert\n    tag_26:\n      pop\n      tag_27\n      tag_28\n      jump\t// in\n    tag_27:\n      mload(0x40)\n      tag_29\n      swap2\n      swap1\n      tag_25\n      jump\t// in\n    tag_29:\n      mload(0x40)\n      dup1\n      swap2\n      sub\n      swap1\n      return\n        /* \"eth based/truffle/contracts/FLIR_Contract.sol\":824:844  uint public btc3 = 5 */\n    tag_4:\n      callvalue\n      dup1\n      iszero\n      tag_30\n      jumpi\n      0x00\n      dup1\n      revert\n    tag_30:\n      pop\n      tag_31\n      tag_32\n      jump\t// in\n    tag_31:\n      mload(0x40)\n      tag_33\n      swap2\n      swap1\n      tag_25\n      jump\t// in\n    tag_33:\n      mload(0x40)\n      dup1\n      swap2\n      sub\n      swap1\n      return\n        /* \"eth based/truffle/contracts/FLIR_Contract.sol\":798:818  uint public btc2 = 4 */\n    tag_5:\n      callvalue\n      dup1\n      iszero\n      tag_34\n      jumpi\n      0x00\n      dup1\n      revert\n    tag_34:\n      pop\n      tag_35\n      tag_36\n      jump\t// in\n    tag_35:\n      mload(0x40)\n      tag_37\n      swap2\n      swap1\n      tag_25\n      jump\t// in\n    tag_37:\n      mload(0x40)\n      dup1\n      swap2\n      sub\n      swap1\n      return\n        /* \"eth based/truffle/contracts/FLIR_Contract.sol\":746:765  uint public btp = 3 */\n    tag_6:\n      callvalue\n      dup1\n      iszero\n      tag_38\n      jumpi\n      0x00\n      dup1\n      revert\n    tag_38:\n      pop\n      tag_39\n      tag_40\n      jump\t// in\n    tag_39:\n      mload(0x40)\n      tag_41\n      swap2\n      swap1\n      tag_25\n      jump\t// in\n    tag_41:\n      mload(0x40)\n      dup1\n      swap2\n      sub\n      swap1\n      return\n        /* \"eth based/truffle/contracts/FLIR_Contract.sol\":1318:1433  function getProsumerTariff(uint Pexp) public returns (uint Tp){... */\n    tag_7:\n      callvalue\n      dup1\n      iszero\n      tag_42\n      jumpi\n      0x00\n      dup1\n      revert\n    tag_42:\n      pop\n      tag_43\n      0x04\n      dup1\n      calldatasize\n      sub\n      dup2\n      add\n      swap1\n      tag_44\n      swap2\n      swap1\n      tag_45\n      jump\t// in\n    tag_44:\n      tag_46\n      jump\t// in\n    tag_43:\n      mload(0x40)\n      tag_47\n      swap2\n      swap1\n      tag_25\n      jump\t// in\n    tag_47:\n      mload(0x40)\n      dup1\n      swap2\n      sub\n      swap1\n      return\n        /* \"eth based/truffle/contracts/FLIR_Contract.sol\":1439:2429  function getConsumerTariff(uint Cimp) public returns (uint Tc){... */\n    tag_8:\n      callvalue\n      dup1\n      iszero\n      tag_48\n      jumpi\n      0x00\n      dup1\n      revert\n    tag_48:\n      pop\n      tag_49\n      0x04\n      dup1\n      calldatasize\n      sub\n      dup2\n      add\n      swap1\n      tag_50\n      swap2\n      swap1\n      tag_45\n      jump\t// in\n    tag_50:\n      tag_51\n      jump\t// in\n    tag_49:\n      mload(0x40)\n      tag_52\n      swap2\n      swap1\n      tag_25\n      jump\t// in\n    tag_52:\n      mload(0x40)\n      dup1\n      swap2\n      sub\n      swap1\n      return\n        /* \"eth based/truffle/contracts/FLIR_Contract.sol\":2639:2707  function balCheck() public payable {... */\n    tag_9:\n      tag_53\n      tag_54\n      jump\t// in\n    tag_53:\n      stop\n        /* \"eth based/truffle/contracts/FLIR_Contract.sol\":954:975  uint public btc8 = 10 */\n    tag_10:\n      callvalue\n      dup1\n      iszero\n      tag_55\n      jumpi\n      0x00\n      dup1\n      revert\n    tag_55:\n      pop\n      tag_56\n      tag_57\n      jump\t// in\n    tag_56:\n      mload(0x40)\n      tag_58\n      swap2\n      swap1\n      tag_25\n      jump\t// in\n    tag_58:\n      mload(0x40)\n      dup1\n      swap2\n      sub\n      swap1\n      return\n        /* \"eth based/truffle/contracts/FLIR_Contract.sol\":902:922  uint public btc6 = 8 */\n    tag_11:\n      callvalue\n      dup1\n      iszero\n      tag_59\n      jumpi\n      0x00\n      dup1\n      revert\n    tag_59:\n      pop\n      tag_60\n      tag_61\n      jump\t// in\n    tag_60:\n      mload(0x40)\n      tag_62\n      swap2\n      swap1\n      tag_25\n      jump\t// in\n    tag_62:\n      mload(0x40)\n      dup1\n      swap2\n      sub\n      swap1\n      return\n        /* \"eth based/truffle/contracts/FLIR_Contract.sol\":585:608  uint public balance = 0 */\n    tag_12:\n      callvalue\n      dup1\n      iszero\n      tag_63\n      jumpi\n      0x00\n      dup1\n      revert\n    tag_63:\n      pop\n      tag_64\n      tag_65\n      jump\t// in\n    tag_64:\n      mload(0x40)\n      tag_66\n      swap2\n      swap1\n      tag_25\n      jump\t// in\n    tag_66:\n      mload(0x40)\n      dup1\n      swap2\n      sub\n      swap1\n      return\n        /* \"eth based/truffle/contracts/FLIR_Contract.sol\":772:792  uint public btc1 = 3 */\n    tag_13:\n      callvalue\n      dup1\n      iszero\n      tag_67\n      jumpi\n      0x00\n      dup1\n      revert\n    tag_67:\n      pop\n      tag_68\n      tag_69\n      jump\t// in\n    tag_68:\n      mload(0x40)\n      tag_70\n      swap2\n      swap1\n      tag_25\n      jump\t// in\n    tag_70:\n      mload(0x40)\n      dup1\n      swap2\n      sub\n      swap1\n      return\n        /* \"eth based/truffle/contracts/FLIR_Contract.sol\":2435:2633  function send(address payable _receiver, uint amount) payable public {... */\n    tag_14:\n      tag_71\n      0x04\n      dup1\n      calldatasize\n      sub\n      dup2\n      add\n      swap1\n      tag_72\n      swap2\n      swap1\n      tag_73\n      jump\t// in\n    tag_72:\n      tag_74\n      jump\t// in\n    tag_71:\n      stop\n        /* \"eth based/truffle/contracts/FLIR_Contract.sol\":928:948  uint public btc7 = 9 */\n    tag_15:\n      callvalue\n      dup1\n      iszero\n      tag_75\n      jumpi\n      0x00\n      dup1\n      revert\n    tag_75:\n      pop\n      tag_76\n      tag_77\n      jump\t// in\n    tag_76:\n      mload(0x40)\n      tag_78\n      swap2\n      swap1\n      tag_25\n      jump\t// in\n    tag_78:\n      mload(0x40)\n      dup1\n      swap2\n      sub\n      swap1\n      return\n        /* \"eth based/truffle/contracts/FLIR_Contract.sol\":989:1312  function getnPnCnEV(uint nPget, uint nCget,uint nEVget) public... */\n    tag_16:\n      callvalue\n      dup1\n      iszero\n      tag_79\n      jumpi\n      0x00\n      dup1\n      revert\n    tag_79:\n      pop\n      tag_80\n      0x04\n      dup1\n      calldatasize\n      sub\n      dup2\n      add\n      swap1\n      tag_81\n      swap2\n      swap1\n      tag_82\n      jump\t// in\n    tag_81:\n      tag_83\n      jump\t// in\n    tag_80:\n      mload(0x40)\n      tag_84\n      swap4\n      swap3\n      swap2\n      swap1\n      tag_85\n      jump\t// in\n    tag_84:\n      mload(0x40)\n      dup1\n      swap2\n      sub\n      swap1\n      return\n        /* \"eth based/truffle/contracts/FLIR_Contract.sol\":2713:2827  function getBalance(address _balanceCheck) public returns (uint bal){... */\n    tag_17:\n      callvalue\n      dup1\n      iszero\n      tag_86\n      jumpi\n      0x00\n      dup1\n      revert\n    tag_86:\n      pop\n      tag_87\n      0x04\n      dup1\n      calldatasize\n      sub\n      dup2\n      add\n      swap1\n      tag_88\n      swap2\n      swap1\n      tag_89\n      jump\t// in\n    tag_88:\n      tag_90\n      jump\t// in\n    tag_87:\n      mload(0x40)\n      tag_91\n      swap2\n      swap1\n      tag_25\n      jump\t// in\n    tag_91:\n      mload(0x40)\n      dup1\n      swap2\n      sub\n      swap1\n      return\n        /* \"eth based/truffle/contracts/FLIR_Contract.sol\":876:896  uint public btc5 = 7 */\n    tag_23:\n      sload(0x08)\n      dup2\n      jump\t// out\n        /* \"eth based/truffle/contracts/FLIR_Contract.sol\":850:870  uint public btc4 = 6 */\n    tag_28:\n      sload(0x07)\n      dup2\n      jump\t// out\n        /* \"eth based/truffle/contracts/FLIR_Contract.sol\":824:844  uint public btc3 = 5 */\n    tag_32:\n      sload(0x06)\n      dup2\n      jump\t// out\n        /* \"eth based/truffle/contracts/FLIR_Contract.sol\":798:818  uint public btc2 = 4 */\n    tag_36:\n      sload(0x05)\n      dup2\n      jump\t// out\n        /* \"eth based/truffle/contracts/FLIR_Contract.sol\":746:765  uint public btp = 3 */\n    tag_40:\n      sload(0x03)\n      dup2\n      jump\t// out\n        /* \"eth based/truffle/contracts/FLIR_Contract.sol\":1318:1433  function getProsumerTariff(uint Pexp) public returns (uint Tp){... */\n    tag_46:\n        /* \"eth based/truffle/contracts/FLIR_Contract.sol\":1372:1379  uint Tp */\n      0x00\n        /* \"eth based/truffle/contracts/FLIR_Contract.sol\":1402:1405  btp */\n      sload(0x03)\n        /* \"eth based/truffle/contracts/FLIR_Contract.sol\":1395:1399  Pexp */\n      dup3\n        /* \"eth based/truffle/contracts/FLIR_Contract.sol\":1395:1405  Pexp * btp */\n      tag_93\n      swap2\n      swap1\n      tag_94\n      jump\t// in\n    tag_93:\n        /* \"eth based/truffle/contracts/FLIR_Contract.sol\":1390:1405  Tp = Pexp * btp */\n      swap1\n      pop\n        /* \"eth based/truffle/contracts/FLIR_Contract.sol\":1318:1433  function getProsumerTariff(uint Pexp) public returns (uint Tp){... */\n      swap2\n      swap1\n      pop\n      jump\t// out\n        /* \"eth based/truffle/contracts/FLIR_Contract.sol\":1439:2429  function getConsumerTariff(uint Cimp) public returns (uint Tc){... */\n    tag_51:\n        /* \"eth based/truffle/contracts/FLIR_Contract.sol\":1493:1500  uint Tc */\n      0x00\n        /* \"eth based/truffle/contracts/FLIR_Contract.sol\":1530:1533  251 */\n      0xfb\n        /* \"eth based/truffle/contracts/FLIR_Contract.sol\":1523:1527  Cimp */\n      dup3\n        /* \"eth based/truffle/contracts/FLIR_Contract.sol\":1523:1533  Cimp < 251 */\n      lt\n        /* \"eth based/truffle/contracts/FLIR_Contract.sol\":1520:2402  if(Cimp < 251){... */\n      iszero\n      tag_96\n      jumpi\n        /* \"eth based/truffle/contracts/FLIR_Contract.sol\":1558:1560  51 */\n      0x33\n        /* \"eth based/truffle/contracts/FLIR_Contract.sol\":1551:1555  Cimp */\n      dup3\n        /* \"eth based/truffle/contracts/FLIR_Contract.sol\":1551:1560  Cimp < 51 */\n      lt\n        /* \"eth based/truffle/contracts/FLIR_Contract.sol\":1548:2157  if(Cimp < 51){... */\n      iszero\n      tag_97\n      jumpi\n        /* \"eth based/truffle/contracts/FLIR_Contract.sol\":1591:1595  btc1 */\n      sload(0x04)\n        /* \"eth based/truffle/contracts/FLIR_Contract.sol\":1584:1588  Cimp */\n      dup3\n        /* \"eth based/truffle/contracts/FLIR_Contract.sol\":1584:1595  Cimp * btc1 */\n      tag_98\n      swap2\n      swap1\n      tag_94\n      jump\t// in\n    tag_98:\n        /* \"eth based/truffle/contracts/FLIR_Contract.sol\":1579:1595  Tc = Cimp * btc1 */\n      swap1\n      pop\n        /* \"eth based/truffle/contracts/FLIR_Contract.sol\":1548:2157  if(Cimp < 51){... */\n      jump(tag_99)\n    tag_97:\n        /* \"eth based/truffle/contracts/FLIR_Contract.sol\":1638:1640  50 */\n      0x32\n        /* \"eth based/truffle/contracts/FLIR_Contract.sol\":1631:1635  Cimp */\n      dup3\n        /* \"eth based/truffle/contracts/FLIR_Contract.sol\":1631:1640  Cimp > 50 */\n      gt\n        /* \"eth based/truffle/contracts/FLIR_Contract.sol\":1631:1654  Cimp > 50 && Cimp < 101 */\n      dup1\n      iszero\n      tag_100\n      jumpi\n      pop\n        /* \"eth based/truffle/contracts/FLIR_Contract.sol\":1651:1654  101 */\n      0x65\n        /* \"eth based/truffle/contracts/FLIR_Contract.sol\":1644:1648  Cimp */\n      dup3\n        /* \"eth based/truffle/contracts/FLIR_Contract.sol\":1644:1654  Cimp < 101 */\n      lt\n        /* \"eth based/truffle/contracts/FLIR_Contract.sol\":1631:1654  Cimp > 50 && Cimp < 101 */\n    tag_100:\n        /* \"eth based/truffle/contracts/FLIR_Contract.sol\":1628:2157  if(Cimp > 50 && Cimp < 101){... */\n      iszero\n      tag_101\n      jumpi\n        /* \"eth based/truffle/contracts/FLIR_Contract.sol\":1705:1709  btc2 */\n      sload(0x05)\n        /* \"eth based/truffle/contracts/FLIR_Contract.sol\":1699:1701  50 */\n      0x32\n        /* \"eth based/truffle/contracts/FLIR_Contract.sol\":1694:1698  Cimp */\n      dup4\n        /* \"eth based/truffle/contracts/FLIR_Contract.sol\":1694:1701  Cimp-50 */\n      tag_102\n      swap2\n      swap1\n      tag_103\n      jump\t// in\n    tag_102:\n        /* \"eth based/truffle/contracts/FLIR_Contract.sol\":1693:1709  (Cimp-50) * btc2 */\n      tag_104\n      swap2\n      swap1\n      tag_94\n      jump\t// in\n    tag_104:\n        /* \"eth based/truffle/contracts/FLIR_Contract.sol\":1684:1688  btc1 */\n      sload(0x04)\n        /* \"eth based/truffle/contracts/FLIR_Contract.sol\":1679:1681  50 */\n      0x32\n        /* \"eth based/truffle/contracts/FLIR_Contract.sol\":1679:1688  50 * btc1 */\n      tag_105\n      swap2\n      swap1\n      tag_94\n      jump\t// in\n    tag_105:\n        /* \"eth based/truffle/contracts/FLIR_Contract.sol\":1678:1710  (50 * btc1) + ((Cimp-50) * btc2) */\n      tag_106\n      swap2\n      swap1\n      tag_107\n      jump\t// in\n    tag_106:\n        /* \"eth based/truffle/contracts/FLIR_Contract.sol\":1673:1710  Tc = (50 * btc1) + ((Cimp-50) * btc2) */\n      swap1\n      pop\n        /* \"eth based/truffle/contracts/FLIR_Contract.sol\":1628:2157  if(Cimp > 50 && Cimp < 101){... */\n      jump(tag_108)\n    tag_101:\n        /* \"eth based/truffle/contracts/FLIR_Contract.sol\":1753:1756  100 */\n      0x64\n        /* \"eth based/truffle/contracts/FLIR_Contract.sol\":1746:1750  Cimp */\n      dup3\n        /* \"eth based/truffle/contracts/FLIR_Contract.sol\":1746:1756  Cimp > 100 */\n      gt\n        /* \"eth based/truffle/contracts/FLIR_Contract.sol\":1746:1770  Cimp > 100 && Cimp < 151 */\n      dup1\n      iszero\n      tag_109\n      jumpi\n      pop\n        /* \"eth based/truffle/contracts/FLIR_Contract.sol\":1767:1770  151 */\n      0x97\n        /* \"eth based/truffle/contracts/FLIR_Contract.sol\":1760:1764  Cimp */\n      dup3\n        /* \"eth based/truffle/contracts/FLIR_Contract.sol\":1760:1770  Cimp < 151 */\n      lt\n        /* \"eth based/truffle/contracts/FLIR_Contract.sol\":1746:1770  Cimp > 100 && Cimp < 151 */\n    tag_109:\n        /* \"eth based/truffle/contracts/FLIR_Contract.sol\":1743:2157  if(Cimp > 100 && Cimp < 151){... */\n      iszero\n      tag_110\n      jumpi\n        /* \"eth based/truffle/contracts/FLIR_Contract.sol\":1835:1839  btc3 */\n      sload(0x06)\n        /* \"eth based/truffle/contracts/FLIR_Contract.sol\":1829:1831  50 */\n      0x32\n        /* \"eth based/truffle/contracts/FLIR_Contract.sol\":1824:1828  Cimp */\n      dup4\n        /* \"eth based/truffle/contracts/FLIR_Contract.sol\":1824:1831  Cimp-50 */\n      tag_111\n      swap2\n      swap1\n      tag_103\n      jump\t// in\n    tag_111:\n        /* \"eth based/truffle/contracts/FLIR_Contract.sol\":1823:1839  (Cimp-50) * btc3 */\n      tag_112\n      swap2\n      swap1\n      tag_94\n      jump\t// in\n    tag_112:\n        /* \"eth based/truffle/contracts/FLIR_Contract.sol\":1814:1818  btc2 */\n      sload(0x05)\n        /* \"eth based/truffle/contracts/FLIR_Contract.sol\":1809:1811  50 */\n      0x32\n        /* \"eth based/truffle/contracts/FLIR_Contract.sol\":1809:1818  50 * btc2 */\n      tag_113\n      swap2\n      swap1\n      tag_94\n      jump\t// in\n    tag_113:\n        /* \"eth based/truffle/contracts/FLIR_Contract.sol\":1800:1804  btc1 */\n      sload(0x04)\n        /* \"eth based/truffle/contracts/FLIR_Contract.sol\":1795:1797  50 */\n      0x32\n        /* \"eth based/truffle/contracts/FLIR_Contract.sol\":1795:1804  50 * btc1 */\n      tag_114\n      swap2\n      swap1\n      tag_94\n      jump\t// in\n    tag_114:\n        /* \"eth based/truffle/contracts/FLIR_Contract.sol\":1794:1819  (50 * btc1) + (50 * btc2) */\n      tag_115\n      swap2\n      swap1\n      tag_107\n      jump\t// in\n    tag_115:\n        /* \"eth based/truffle/contracts/FLIR_Contract.sol\":1794:1840  (50 * btc1) + (50 * btc2) + ((Cimp-50) * btc3) */\n      tag_116\n      swap2\n      swap1\n      tag_107\n      jump\t// in\n    tag_116:\n        /* \"eth based/truffle/contracts/FLIR_Contract.sol\":1789:1840  Tc = (50 * btc1) + (50 * btc2) + ((Cimp-50) * btc3) */\n      swap1\n      pop\n        /* \"eth based/truffle/contracts/FLIR_Contract.sol\":1743:2157  if(Cimp > 100 && Cimp < 151){... */\n      jump(tag_117)\n    tag_110:\n        /* \"eth based/truffle/contracts/FLIR_Contract.sol\":1883:1886  150 */\n      0x96\n        /* \"eth based/truffle/contracts/FLIR_Contract.sol\":1876:1880  Cimp */\n      dup3\n        /* \"eth based/truffle/contracts/FLIR_Contract.sol\":1876:1886  Cimp > 150 */\n      gt\n        /* \"eth based/truffle/contracts/FLIR_Contract.sol\":1876:1900  Cimp > 150 && Cimp < 201 */\n      dup1\n      iszero\n      tag_118\n      jumpi\n      pop\n        /* \"eth based/truffle/contracts/FLIR_Contract.sol\":1897:1900  201 */\n      0xc9\n        /* \"eth based/truffle/contracts/FLIR_Contract.sol\":1890:1894  Cimp */\n      dup3\n        /* \"eth based/truffle/contracts/FLIR_Contract.sol\":1890:1900  Cimp < 201 */\n      lt\n        /* \"eth based/truffle/contracts/FLIR_Contract.sol\":1876:1900  Cimp > 150 && Cimp < 201 */\n    tag_118:\n        /* \"eth based/truffle/contracts/FLIR_Contract.sol\":1873:2157  if(Cimp > 150 && Cimp < 201){... */\n      iszero\n      tag_119\n      jumpi\n        /* \"eth based/truffle/contracts/FLIR_Contract.sol\":1979:1983  btc4 */\n      sload(0x07)\n        /* \"eth based/truffle/contracts/FLIR_Contract.sol\":1973:1975  50 */\n      0x32\n        /* \"eth based/truffle/contracts/FLIR_Contract.sol\":1968:1972  Cimp */\n      dup4\n        /* \"eth based/truffle/contracts/FLIR_Contract.sol\":1968:1975  Cimp-50 */\n      tag_120\n      swap2\n      swap1\n      tag_103\n      jump\t// in\n    tag_120:\n        /* \"eth based/truffle/contracts/FLIR_Contract.sol\":1967:1983  (Cimp-50) * btc4 */\n      tag_121\n      swap2\n      swap1\n      tag_94\n      jump\t// in\n    tag_121:\n        /* \"eth based/truffle/contracts/FLIR_Contract.sol\":1958:1962  btc3 */\n      sload(0x06)\n        /* \"eth based/truffle/contracts/FLIR_Contract.sol\":1953:1955  50 */\n      0x32\n        /* \"eth based/truffle/contracts/FLIR_Contract.sol\":1953:1962  50 * btc3 */\n      tag_122\n      swap2\n      swap1\n      tag_94\n      jump\t// in\n    tag_122:\n        /* \"eth based/truffle/contracts/FLIR_Contract.sol\":1944:1948  btc2 */\n      sload(0x05)\n        /* \"eth based/truffle/contracts/FLIR_Contract.sol\":1939:1941  50 */\n      0x32\n        /* \"eth based/truffle/contracts/FLIR_Contract.sol\":1939:1948  50 * btc2 */\n      tag_123\n      swap2\n      swap1\n      tag_94\n      jump\t// in\n    tag_123:\n        /* \"eth based/truffle/contracts/FLIR_Contract.sol\":1930:1934  btc1 */\n      sload(0x04)\n        /* \"eth based/truffle/contracts/FLIR_Contract.sol\":1925:1927  50 */\n      0x32\n        /* \"eth based/truffle/contracts/FLIR_Contract.sol\":1925:1934  50 * btc1 */\n      tag_124\n      swap2\n      swap1\n      tag_94\n      jump\t// in\n    tag_124:\n        /* \"eth based/truffle/contracts/FLIR_Contract.sol\":1924:1949  (50 * btc1) + (50 * btc2) */\n      tag_125\n      swap2\n      swap1\n      tag_107\n      jump\t// in\n    tag_125:\n        /* \"eth based/truffle/contracts/FLIR_Contract.sol\":1924:1963  (50 * btc1) + (50 * btc2) + (50 * btc3) */\n      tag_126\n      swap2\n      swap1\n      tag_107\n      jump\t// in\n    tag_126:\n        /* \"eth based/truffle/contracts/FLIR_Contract.sol\":1924:1984  (50 * btc1) + (50 * btc2) + (50 * btc3) + ((Cimp-50) * btc4) */\n      tag_127\n      swap2\n      swap1\n      tag_107\n      jump\t// in\n    tag_127:\n        /* \"eth based/truffle/contracts/FLIR_Contract.sol\":1919:1984  Tc = (50 * btc1) + (50 * btc2) + (50 * btc3) + ((Cimp-50) * btc4) */\n      swap1\n      pop\n        /* \"eth based/truffle/contracts/FLIR_Contract.sol\":1873:2157  if(Cimp > 150 && Cimp < 201){... */\n      jump(tag_128)\n    tag_119:\n        /* \"eth based/truffle/contracts/FLIR_Contract.sol\":2027:2030  200 */\n      0xc8\n        /* \"eth based/truffle/contracts/FLIR_Contract.sol\":2020:2024  Cimp */\n      dup3\n        /* \"eth based/truffle/contracts/FLIR_Contract.sol\":2020:2030  Cimp > 200 */\n      gt\n        /* \"eth based/truffle/contracts/FLIR_Contract.sol\":2020:2044  Cimp > 200 && Cimp < 251 */\n      dup1\n      iszero\n      tag_129\n      jumpi\n      pop\n        /* \"eth based/truffle/contracts/FLIR_Contract.sol\":2041:2044  251 */\n      0xfb\n        /* \"eth based/truffle/contracts/FLIR_Contract.sol\":2034:2038  Cimp */\n      dup3\n        /* \"eth based/truffle/contracts/FLIR_Contract.sol\":2034:2044  Cimp < 251 */\n      lt\n        /* \"eth based/truffle/contracts/FLIR_Contract.sol\":2020:2044  Cimp > 200 && Cimp < 251 */\n    tag_129:\n        /* \"eth based/truffle/contracts/FLIR_Contract.sol\":2017:2157  if(Cimp > 200 && Cimp < 251){... */\n      iszero\n      tag_130\n      jumpi\n        /* \"eth based/truffle/contracts/FLIR_Contract.sol\":2137:2141  btc5 */\n      sload(0x08)\n        /* \"eth based/truffle/contracts/FLIR_Contract.sol\":2131:2133  50 */\n      0x32\n        /* \"eth based/truffle/contracts/FLIR_Contract.sol\":2126:2130  Cimp */\n      dup4\n        /* \"eth based/truffle/contracts/FLIR_Contract.sol\":2126:2133  Cimp-50 */\n      tag_131\n      swap2\n      swap1\n      tag_103\n      jump\t// in\n    tag_131:\n        /* \"eth based/truffle/contracts/FLIR_Contract.sol\":2125:2141  (Cimp-50) * btc5 */\n      tag_132\n      swap2\n      swap1\n      tag_94\n      jump\t// in\n    tag_132:\n        /* \"eth based/truffle/contracts/FLIR_Contract.sol\":2116:2120  btc4 */\n      sload(0x07)\n        /* \"eth based/truffle/contracts/FLIR_Contract.sol\":2111:2113  50 */\n      0x32\n        /* \"eth based/truffle/contracts/FLIR_Contract.sol\":2111:2120  50 * btc4 */\n      tag_133\n      swap2\n      swap1\n      tag_94\n      jump\t// in\n    tag_133:\n        /* \"eth based/truffle/contracts/FLIR_Contract.sol\":2102:2106  btc3 */\n      sload(0x06)\n        /* \"eth based/truffle/contracts/FLIR_Contract.sol\":2097:2099  50 */\n      0x32\n        /* \"eth based/truffle/contracts/FLIR_Contract.sol\":2097:2106  50 * btc3 */\n      tag_134\n      swap2\n      swap1\n      tag_94\n      jump\t// in\n    tag_134:\n        /* \"eth based/truffle/contracts/FLIR_Contract.sol\":2088:2092  btc2 */\n      sload(0x05)\n        /* \"eth based/truffle/contracts/FLIR_Contract.sol\":2083:2085  50 */\n      0x32\n        /* \"eth based/truffle/contracts/FLIR_Contract.sol\":2083:2092  50 * btc2 */\n      tag_135\n      swap2\n      swap1\n      tag_94\n      jump\t// in\n    tag_135:\n        /* \"eth based/truffle/contracts/FLIR_Contract.sol\":2074:2078  btc1 */\n      sload(0x04)\n        /* \"eth based/truffle/contracts/FLIR_Contract.sol\":2069:2071  50 */\n      0x32\n        /* \"eth based/truffle/contracts/FLIR_Contract.sol\":2069:2078  50 * btc1 */\n      tag_136\n      swap2\n      swap1\n      tag_94\n      jump\t// in\n    tag_136:\n        /* \"eth based/truffle/contracts/FLIR_Contract.sol\":2068:2093  (50 * btc1) + (50 * btc2) */\n      tag_137\n      swap2\n      swap1\n      tag_107\n      jump\t// in\n    tag_137:\n        /* \"eth based/truffle/contracts/FLIR_Contract.sol\":2068:2107  (50 * btc1) + (50 * btc2) + (50 * btc3) */\n      tag_138\n      swap2\n      swap1\n      tag_107\n      jump\t// in\n    tag_138:\n        /* \"eth based/truffle/contracts/FLIR_Contract.sol\":2068:2121  (50 * btc1) + (50 * btc2) + (50 * btc3) + (50 * btc4) */\n      tag_139\n      swap2\n      swap1\n      tag_107\n      jump\t// in\n    tag_139:\n        /* \"eth based/truffle/contracts/FLIR_Contract.sol\":2068:2142  (50 * btc1) + (50 * btc2) + (50 * btc3) + (50 * btc4) + ((Cimp-50) * btc5) */\n      tag_140\n      swap2\n      swap1\n      tag_107\n      jump\t// in\n    tag_140:\n        /* \"eth based/truffle/contracts/FLIR_Contract.sol\":2063:2142  Tc = (50 * btc1) + (50 * btc2) + (50 * btc3) + (50 * btc4) + ((Cimp-50) * btc5) */\n      swap1\n      pop\n        /* \"eth based/truffle/contracts/FLIR_Contract.sol\":2017:2157  if(Cimp > 200 && Cimp < 251){... */\n    tag_130:\n        /* \"eth based/truffle/contracts/FLIR_Contract.sol\":1873:2157  if(Cimp > 150 && Cimp < 201){... */\n    tag_128:\n        /* \"eth based/truffle/contracts/FLIR_Contract.sol\":1743:2157  if(Cimp > 100 && Cimp < 151){... */\n    tag_117:\n        /* \"eth based/truffle/contracts/FLIR_Contract.sol\":1628:2157  if(Cimp > 50 && Cimp < 101){... */\n    tag_108:\n        /* \"eth based/truffle/contracts/FLIR_Contract.sol\":1548:2157  if(Cimp < 51){... */\n    tag_99:\n        /* \"eth based/truffle/contracts/FLIR_Contract.sol\":1520:2402  if(Cimp < 251){... */\n      jump(tag_141)\n    tag_96:\n        /* \"eth based/truffle/contracts/FLIR_Contract.sol\":2191:2194  250 */\n      0xfa\n        /* \"eth based/truffle/contracts/FLIR_Contract.sol\":2184:2188  Cimp */\n      dup3\n        /* \"eth based/truffle/contracts/FLIR_Contract.sol\":2184:2194  Cimp > 250 */\n      gt\n        /* \"eth based/truffle/contracts/FLIR_Contract.sol\":2184:2208  Cimp > 250 && Cimp < 351 */\n      dup1\n      iszero\n      tag_142\n      jumpi\n      pop\n        /* \"eth based/truffle/contracts/FLIR_Contract.sol\":2205:2208  351 */\n      0x015f\n        /* \"eth based/truffle/contracts/FLIR_Contract.sol\":2198:2202  Cimp */\n      dup3\n        /* \"eth based/truffle/contracts/FLIR_Contract.sol\":2198:2208  Cimp < 351 */\n      lt\n        /* \"eth based/truffle/contracts/FLIR_Contract.sol\":2184:2208  Cimp > 250 && Cimp < 351 */\n    tag_142:\n        /* \"eth based/truffle/contracts/FLIR_Contract.sol\":2181:2402  if(Cimp > 250 && Cimp < 351){... */\n      iszero\n      tag_143\n      jumpi\n        /* \"eth based/truffle/contracts/FLIR_Contract.sol\":2235:2239  btc6 */\n      sload(0x09)\n        /* \"eth based/truffle/contracts/FLIR_Contract.sol\":2228:2232  Cimp */\n      dup3\n        /* \"eth based/truffle/contracts/FLIR_Contract.sol\":2228:2239  Cimp * btc6 */\n      tag_144\n      swap2\n      swap1\n      tag_94\n      jump\t// in\n    tag_144:\n        /* \"eth based/truffle/contracts/FLIR_Contract.sol\":2223:2239  Tc = Cimp * btc6 */\n      swap1\n      pop\n        /* \"eth based/truffle/contracts/FLIR_Contract.sol\":2181:2402  if(Cimp > 250 && Cimp < 351){... */\n      jump(tag_145)\n    tag_143:\n        /* \"eth based/truffle/contracts/FLIR_Contract.sol\":2274:2277  350 */\n      0x015e\n        /* \"eth based/truffle/contracts/FLIR_Contract.sol\":2267:2271  Cimp */\n      dup3\n        /* \"eth based/truffle/contracts/FLIR_Contract.sol\":2267:2277  Cimp > 350 */\n      gt\n        /* \"eth based/truffle/contracts/FLIR_Contract.sol\":2267:2291  Cimp > 350 && Cimp < 451 */\n      dup1\n      iszero\n      tag_146\n      jumpi\n      pop\n        /* \"eth based/truffle/contracts/FLIR_Contract.sol\":2288:2291  451 */\n      0x01c3\n        /* \"eth based/truffle/contracts/FLIR_Contract.sol\":2281:2285  Cimp */\n      dup3\n        /* \"eth based/truffle/contracts/FLIR_Contract.sol\":2281:2291  Cimp < 451 */\n      lt\n        /* \"eth based/truffle/contracts/FLIR_Contract.sol\":2267:2291  Cimp > 350 && Cimp < 451 */\n    tag_146:\n        /* \"eth based/truffle/contracts/FLIR_Contract.sol\":2264:2402  if(Cimp > 350 && Cimp < 451){... */\n      iszero\n      tag_147\n      jumpi\n        /* \"eth based/truffle/contracts/FLIR_Contract.sol\":2318:2322  btc7 */\n      sload(0x0a)\n        /* \"eth based/truffle/contracts/FLIR_Contract.sol\":2311:2315  Cimp */\n      dup3\n        /* \"eth based/truffle/contracts/FLIR_Contract.sol\":2311:2322  Cimp * btc7 */\n      tag_148\n      swap2\n      swap1\n      tag_94\n      jump\t// in\n    tag_148:\n        /* \"eth based/truffle/contracts/FLIR_Contract.sol\":2306:2322  Tc = Cimp * btc7 */\n      swap1\n      pop\n        /* \"eth based/truffle/contracts/FLIR_Contract.sol\":2264:2402  if(Cimp > 350 && Cimp < 451){... */\n      jump(tag_149)\n    tag_147:\n        /* \"eth based/truffle/contracts/FLIR_Contract.sol\":2357:2360  450 */\n      0x01c2\n        /* \"eth based/truffle/contracts/FLIR_Contract.sol\":2350:2354  Cimp */\n      dup3\n        /* \"eth based/truffle/contracts/FLIR_Contract.sol\":2350:2360  Cimp > 450 */\n      gt\n        /* \"eth based/truffle/contracts/FLIR_Contract.sol\":2347:2402  if(Cimp > 450){... */\n      iszero\n      tag_150\n      jumpi\n        /* \"eth based/truffle/contracts/FLIR_Contract.sol\":2387:2391  btc8 */\n      sload(0x0b)\n        /* \"eth based/truffle/contracts/FLIR_Contract.sol\":2380:2384  Cimp */\n      dup3\n        /* \"eth based/truffle/contracts/FLIR_Contract.sol\":2380:2391  Cimp * btc8 */\n      tag_151\n      swap2\n      swap1\n      tag_94\n      jump\t// in\n    tag_151:\n        /* \"eth based/truffle/contracts/FLIR_Contract.sol\":2375:2391  Tc = Cimp * btc8 */\n      swap1\n      pop\n        /* \"eth based/truffle/contracts/FLIR_Contract.sol\":2347:2402  if(Cimp > 450){... */\n    tag_150:\n        /* \"eth based/truffle/contracts/FLIR_Contract.sol\":2264:2402  if(Cimp > 350 && Cimp < 451){... */\n    tag_149:\n        /* \"eth based/truffle/contracts/FLIR_Contract.sol\":2181:2402  if(Cimp > 250 && Cimp < 351){... */\n    tag_145:\n        /* \"eth based/truffle/contracts/FLIR_Contract.sol\":1520:2402  if(Cimp < 251){... */\n    tag_141:\n        /* \"eth based/truffle/contracts/FLIR_Contract.sol\":1439:2429  function getConsumerTariff(uint Cimp) public returns (uint Tc){... */\n      swap2\n      swap1\n      pop\n      jump\t// out\n        /* \"eth based/truffle/contracts/FLIR_Contract.sol\":2639:2707  function balCheck() public payable {... */\n    tag_54:\n        /* \"eth based/truffle/contracts/FLIR_Contract.sol\":2691:2700  msg.value */\n      callvalue\n        /* \"eth based/truffle/contracts/FLIR_Contract.sol\":2680:2687  balance */\n      0x02\n      0x00\n        /* \"eth based/truffle/contracts/FLIR_Contract.sol\":2680:2700  balance += msg.value */\n      dup3\n      dup3\n      sload\n      tag_153\n      swap2\n      swap1\n      tag_107\n      jump\t// in\n    tag_153:\n      swap3\n      pop\n      pop\n      dup2\n      swap1\n      sstore\n      pop\n        /* \"eth based/truffle/contracts/FLIR_Contract.sol\":2639:2707  function balCheck() public payable {... */\n      jump\t// out\n        /* \"eth based/truffle/contracts/FLIR_Contract.sol\":954:975  uint public btc8 = 10 */\n    tag_57:\n      sload(0x0b)\n      dup2\n      jump\t// out\n        /* \"eth based/truffle/contracts/FLIR_Contract.sol\":902:922  uint public btc6 = 8 */\n    tag_61:\n      sload(0x09)\n      dup2\n      jump\t// out\n        /* \"eth based/truffle/contracts/FLIR_Contract.sol\":585:608  uint public balance = 0 */\n    tag_65:\n      sload(0x02)\n      dup2\n      jump\t// out\n        /* \"eth based/truffle/contracts/FLIR_Contract.sol\":772:792  uint public btc1 = 3 */\n    tag_69:\n      sload(0x04)\n      dup2\n      jump\t// out\n        /* \"eth based/truffle/contracts/FLIR_Contract.sol\":2435:2633  function send(address payable _receiver, uint amount) payable public {... */\n    tag_74:\n        /* \"eth based/truffle/contracts/FLIR_Contract.sol\":2600:2609  _receiver */\n      dup2\n        /* \"eth based/truffle/contracts/FLIR_Contract.sol\":2600:2618  _receiver.transfer */\n      0xffffffffffffffffffffffffffffffffffffffff\n      and\n        /* \"eth based/truffle/contracts/FLIR_Contract.sol\":2600:2626  _receiver.transfer(amount) */\n      0x08fc\n        /* \"eth based/truffle/contracts/FLIR_Contract.sol\":2619:2625  amount */\n      dup3\n        /* \"eth based/truffle/contracts/FLIR_Contract.sol\":2600:2626  _receiver.transfer(amount) */\n      swap1\n      dup2\n      iszero\n      mul\n      swap1\n      mload(0x40)\n      0x00\n      mload(0x40)\n      dup1\n      dup4\n      sub\n      dup2\n      dup6\n      dup9\n      dup9\n      call\n      swap4\n      pop\n      pop\n      pop\n      pop\n      iszero\n      dup1\n      iszero\n      tag_156\n      jumpi\n      returndatasize\n      0x00\n      dup1\n      returndatacopy\n      revert(0x00, returndatasize)\n    tag_156:\n      pop\n        /* \"eth based/truffle/contracts/FLIR_Contract.sol\":2435:2633  function send(address payable _receiver, uint amount) payable public {... */\n      pop\n      pop\n      jump\t// out\n        /* \"eth based/truffle/contracts/FLIR_Contract.sol\":928:948  uint public btc7 = 9 */\n    tag_77:\n      sload(0x0a)\n      dup2\n      jump\t// out\n        /* \"eth based/truffle/contracts/FLIR_Contract.sol\":989:1312  function getnPnCnEV(uint nPget, uint nCget,uint nEVget) public... */\n    tag_83:\n        /* \"eth based/truffle/contracts/FLIR_Contract.sol\":1065:1072  uint nP */\n      0x00\n        /* \"eth based/truffle/contracts/FLIR_Contract.sol\":1073:1080  uint nC */\n      dup1\n        /* \"eth based/truffle/contracts/FLIR_Contract.sol\":1081:1089  uint nEV */\n      0x00\n        /* \"eth based/truffle/contracts/FLIR_Contract.sol\":1114:1119  nPget */\n      dup6\n        /* \"eth based/truffle/contracts/FLIR_Contract.sol\":1109:1119  nP = nPget */\n      swap3\n      pop\n        /* \"eth based/truffle/contracts/FLIR_Contract.sol\":1134:1139  nCget */\n      dup5\n        /* \"eth based/truffle/contracts/FLIR_Contract.sol\":1129:1139  nC = nCget */\n      swap2\n      pop\n        /* \"eth based/truffle/contracts/FLIR_Contract.sol\":1155:1161  nEVget */\n      dup4\n        /* \"eth based/truffle/contracts/FLIR_Contract.sol\":1149:1161  nEV = nEVget */\n      swap1\n      pop\n        /* \"eth based/truffle/contracts/FLIR_Contract.sol\":989:1312  function getnPnCnEV(uint nPget, uint nCget,uint nEVget) public... */\n      swap4\n      pop\n      swap4\n      pop\n      swap4\n      swap1\n      pop\n      jump\t// out\n        /* \"eth based/truffle/contracts/FLIR_Contract.sol\":2713:2827  function getBalance(address _balanceCheck) public returns (uint bal){... */\n    tag_90:\n        /* \"eth based/truffle/contracts/FLIR_Contract.sol\":2772:2780  uint bal */\n      0x00\n        /* \"eth based/truffle/contracts/FLIR_Contract.sol\":2798:2811  _balanceCheck */\n      dup2\n        /* \"eth based/truffle/contracts/FLIR_Contract.sol\":2798:2819  _balanceCheck.balance */\n      0xffffffffffffffffffffffffffffffffffffffff\n      and\n      balance\n        /* \"eth based/truffle/contracts/FLIR_Contract.sol\":2791:2819  return _balanceCheck.balance */\n      swap1\n      pop\n        /* \"eth based/truffle/contracts/FLIR_Contract.sol\":2713:2827  function getBalance(address _balanceCheck) public returns (uint bal){... */\n      swap2\n      swap1\n      pop\n      jump\t// out\n        /* \"#utility.yul\":7:146   */\n    tag_160:\n        /* \"#utility.yul\":53:58   */\n      0x00\n        /* \"#utility.yul\":91:97   */\n      dup2\n        /* \"#utility.yul\":78:98   */\n      calldataload\n        /* \"#utility.yul\":69:98   */\n      swap1\n      pop\n        /* \"#utility.yul\":107:140   */\n      tag_162\n        /* \"#utility.yul\":134:139   */\n      dup2\n        /* \"#utility.yul\":107:140   */\n      tag_163\n      jump\t// in\n    tag_162:\n        /* \"#utility.yul\":7:146   */\n      swap3\n      swap2\n      pop\n      pop\n      jump\t// out\n        /* \"#utility.yul\":152:307   */\n    tag_164:\n        /* \"#utility.yul\":206:211   */\n      0x00\n        /* \"#utility.yul\":244:250   */\n      dup2\n        /* \"#utility.yul\":231:251   */\n      calldataload\n        /* \"#utility.yul\":222:251   */\n      swap1\n      pop\n        /* \"#utility.yul\":260:301   */\n      tag_166\n        /* \"#utility.yul\":295:300   */\n      dup2\n        /* \"#utility.yul\":260:301   */\n      tag_167\n      jump\t// in\n    tag_166:\n        /* \"#utility.yul\":152:307   */\n      swap3\n      swap2\n      pop\n      pop\n      jump\t// out\n        /* \"#utility.yul\":313:452   */\n    tag_168:\n        /* \"#utility.yul\":359:364   */\n      0x00\n        /* \"#utility.yul\":397:403   */\n      dup2\n        /* \"#utility.yul\":384:404   */\n      calldataload\n        /* \"#utility.yul\":375:404   */\n      swap1\n      pop\n        /* \"#utility.yul\":413:446   */\n      tag_170\n        /* \"#utility.yul\":440:445   */\n      dup2\n        /* \"#utility.yul\":413:446   */\n      tag_171\n      jump\t// in\n    tag_170:\n        /* \"#utility.yul\":313:452   */\n      swap3\n      swap2\n      pop\n      pop\n      jump\t// out\n        /* \"#utility.yul\":458:787   */\n    tag_89:\n        /* \"#utility.yul\":517:523   */\n      0x00\n        /* \"#utility.yul\":566:568   */\n      0x20\n        /* \"#utility.yul\":554:563   */\n      dup3\n        /* \"#utility.yul\":545:552   */\n      dup5\n        /* \"#utility.yul\":541:564   */\n      sub\n        /* \"#utility.yul\":537:569   */\n      slt\n        /* \"#utility.yul\":534:653   */\n      iszero\n      tag_173\n      jumpi\n        /* \"#utility.yul\":572:651   */\n      tag_174\n      tag_175\n      jump\t// in\n    tag_174:\n        /* \"#utility.yul\":534:653   */\n    tag_173:\n        /* \"#utility.yul\":692:693   */\n      0x00\n        /* \"#utility.yul\":717:770   */\n      tag_176\n        /* \"#utility.yul\":762:769   */\n      dup5\n        /* \"#utility.yul\":753:759   */\n      dup3\n        /* \"#utility.yul\":742:751   */\n      dup6\n        /* \"#utility.yul\":738:760   */\n      add\n        /* \"#utility.yul\":717:770   */\n      tag_160\n      jump\t// in\n    tag_176:\n        /* \"#utility.yul\":707:770   */\n      swap2\n      pop\n        /* \"#utility.yul\":663:780   */\n      pop\n        /* \"#utility.yul\":458:787   */\n      swap3\n      swap2\n      pop\n      pop\n      jump\t// out\n        /* \"#utility.yul\":793:1283   */\n    tag_73:\n        /* \"#utility.yul\":869:875   */\n      0x00\n        /* \"#utility.yul\":877:883   */\n      dup1\n        /* \"#utility.yul\":926:928   */\n      0x40\n        /* \"#utility.yul\":914:923   */\n      dup4\n        /* \"#utility.yul\":905:912   */\n      dup6\n        /* \"#utility.yul\":901:924   */\n      sub\n        /* \"#utility.yul\":897:929   */\n      slt\n        /* \"#utility.yul\":894:1013   */\n      iszero\n      tag_178\n      jumpi\n        /* \"#utility.yul\":932:1011   */\n      tag_179\n      tag_175\n      jump\t// in\n    tag_179:\n        /* \"#utility.yul\":894:1013   */\n    tag_178:\n        /* \"#utility.yul\":1052:1053   */\n      0x00\n        /* \"#utility.yul\":1077:1138   */\n      tag_180\n        /* \"#utility.yul\":1130:1137   */\n      dup6\n        /* \"#utility.yul\":1121:1127   */\n      dup3\n        /* \"#utility.yul\":1110:1119   */\n      dup7\n        /* \"#utility.yul\":1106:1128   */\n      add\n        /* \"#utility.yul\":1077:1138   */\n      tag_164\n      jump\t// in\n    tag_180:\n        /* \"#utility.yul\":1067:1138   */\n      swap3\n      pop\n        /* \"#utility.yul\":1023:1148   */\n      pop\n        /* \"#utility.yul\":1187:1189   */\n      0x20\n        /* \"#utility.yul\":1213:1266   */\n      tag_181\n        /* \"#utility.yul\":1258:1265   */\n      dup6\n        /* \"#utility.yul\":1249:1255   */\n      dup3\n        /* \"#utility.yul\":1238:1247   */\n      dup7\n        /* \"#utility.yul\":1234:1256   */\n      add\n        /* \"#utility.yul\":1213:1266   */\n      tag_168\n      jump\t// in\n    tag_181:\n        /* \"#utility.yul\":1203:1266   */\n      swap2\n      pop\n        /* \"#utility.yul\":1158:1276   */\n      pop\n        /* \"#utility.yul\":793:1283   */\n      swap3\n      pop\n      swap3\n      swap1\n      pop\n      jump\t// out\n        /* \"#utility.yul\":1289:1618   */\n    tag_45:\n        /* \"#utility.yul\":1348:1354   */\n      0x00\n        /* \"#utility.yul\":1397:1399   */\n      0x20\n        /* \"#utility.yul\":1385:1394   */\n      dup3\n        /* \"#utility.yul\":1376:1383   */\n      dup5\n        /* \"#utility.yul\":1372:1395   */\n      sub\n        /* \"#utility.yul\":1368:1400   */\n      slt\n        /* \"#utility.yul\":1365:1484   */\n      iszero\n      tag_183\n      jumpi\n        /* \"#utility.yul\":1403:1482   */\n      tag_184\n      tag_175\n      jump\t// in\n    tag_184:\n        /* \"#utility.yul\":1365:1484   */\n    tag_183:\n        /* \"#utility.yul\":1523:1524   */\n      0x00\n        /* \"#utility.yul\":1548:1601   */\n      tag_185\n        /* \"#utility.yul\":1593:1600   */\n      dup5\n        /* \"#utility.yul\":1584:1590   */\n      dup3\n        /* \"#utility.yul\":1573:1582   */\n      dup6\n        /* \"#utility.yul\":1569:1591   */\n      add\n        /* \"#utility.yul\":1548:1601   */\n      tag_168\n      jump\t// in\n    tag_185:\n        /* \"#utility.yul\":1538:1601   */\n      swap2\n      pop\n        /* \"#utility.yul\":1494:1611   */\n      pop\n        /* \"#utility.yul\":1289:1618   */\n      swap3\n      swap2\n      pop\n      pop\n      jump\t// out\n        /* \"#utility.yul\":1624:2243   */\n    tag_82:\n        /* \"#utility.yul\":1701:1707   */\n      0x00\n        /* \"#utility.yul\":1709:1715   */\n      dup1\n        /* \"#utility.yul\":1717:1723   */\n      0x00\n        /* \"#utility.yul\":1766:1768   */\n      0x60\n        /* \"#utility.yul\":1754:1763   */\n      dup5\n        /* \"#utility.yul\":1745:1752   */\n      dup7\n        /* \"#utility.yul\":1741:1764   */\n      sub\n        /* \"#utility.yul\":1737:1769   */\n      slt\n        /* \"#utility.yul\":1734:1853   */\n      iszero\n      tag_187\n      jumpi\n        /* \"#utility.yul\":1772:1851   */\n      tag_188\n      tag_175\n      jump\t// in\n    tag_188:\n        /* \"#utility.yul\":1734:1853   */\n    tag_187:\n        /* \"#utility.yul\":1892:1893   */\n      0x00\n        /* \"#utility.yul\":1917:1970   */\n      tag_189\n        /* \"#utility.yul\":1962:1969   */\n      dup7\n        /* \"#utility.yul\":1953:1959   */\n      dup3\n        /* \"#utility.yul\":1942:1951   */\n      dup8\n        /* \"#utility.yul\":1938:1960   */\n      add\n        /* \"#utility.yul\":1917:1970   */\n      tag_168\n      jump\t// in\n    tag_189:\n        /* \"#utility.yul\":1907:1970   */\n      swap4\n      pop\n        /* \"#utility.yul\":1863:1980   */\n      pop\n        /* \"#utility.yul\":2019:2021   */\n      0x20\n        /* \"#utility.yul\":2045:2098   */\n      tag_190\n        /* \"#utility.yul\":2090:2097   */\n      dup7\n        /* \"#utility.yul\":2081:2087   */\n      dup3\n        /* \"#utility.yul\":2070:2079   */\n      dup8\n        /* \"#utility.yul\":2066:2088   */\n      add\n        /* \"#utility.yul\":2045:2098   */\n      tag_168\n      jump\t// in\n    tag_190:\n        /* \"#utility.yul\":2035:2098   */\n      swap3\n      pop\n        /* \"#utility.yul\":1990:2108   */\n      pop\n        /* \"#utility.yul\":2147:2149   */\n      0x40\n        /* \"#utility.yul\":2173:2226   */\n      tag_191\n        /* \"#utility.yul\":2218:2225   */\n      dup7\n        /* \"#utility.yul\":2209:2215   */\n      dup3\n        /* \"#utility.yul\":2198:2207   */\n      dup8\n        /* \"#utility.yul\":2194:2216   */\n      add\n        /* \"#utility.yul\":2173:2226   */\n      tag_168\n      jump\t// in\n    tag_191:\n        /* \"#utility.yul\":2163:2226   */\n      swap2\n      pop\n        /* \"#utility.yul\":2118:2236   */\n      pop\n        /* \"#utility.yul\":1624:2243   */\n      swap3\n      pop\n      swap3\n      pop\n      swap3\n      jump\t// out\n        /* \"#utility.yul\":2249:2367   */\n    tag_192:\n        /* \"#utility.yul\":2336:2360   */\n      tag_194\n        /* \"#utility.yul\":2354:2359   */\n      dup2\n        /* \"#utility.yul\":2336:2360   */\n      tag_195\n      jump\t// in\n    tag_194:\n        /* \"#utility.yul\":2331:2334   */\n      dup3\n        /* \"#utility.yul\":2324:2361   */\n      mstore\n        /* \"#utility.yul\":2249:2367   */\n      pop\n      pop\n      jump\t// out\n        /* \"#utility.yul\":2373:2595   */\n    tag_25:\n        /* \"#utility.yul\":2466:2470   */\n      0x00\n        /* \"#utility.yul\":2504:2506   */\n      0x20\n        /* \"#utility.yul\":2493:2502   */\n      dup3\n        /* \"#utility.yul\":2489:2507   */\n      add\n        /* \"#utility.yul\":2481:2507   */\n      swap1\n      pop\n        /* \"#utility.yul\":2517:2588   */\n      tag_197\n        /* \"#utility.yul\":2585:2586   */\n      0x00\n        /* \"#utility.yul\":2574:2583   */\n      dup4\n        /* \"#utility.yul\":2570:2587   */\n      add\n        /* \"#utility.yul\":2561:2567   */\n      dup5\n        /* \"#utility.yul\":2517:2588   */\n      tag_192\n      jump\t// in\n    tag_197:\n        /* \"#utility.yul\":2373:2595   */\n      swap3\n      swap2\n      pop\n      pop\n      jump\t// out\n        /* \"#utility.yul\":2601:3043   */\n    tag_85:\n        /* \"#utility.yul\":2750:2754   */\n      0x00\n        /* \"#utility.yul\":2788:2790   */\n      0x60\n        /* \"#utility.yul\":2777:2786   */\n      dup3\n        /* \"#utility.yul\":2773:2791   */\n      add\n        /* \"#utility.yul\":2765:2791   */\n      swap1\n      pop\n        /* \"#utility.yul\":2801:2872   */\n      tag_199\n        /* \"#utility.yul\":2869:2870   */\n      0x00\n        /* \"#utility.yul\":2858:2867   */\n      dup4\n        /* \"#utility.yul\":2854:2871   */\n      add\n        /* \"#utility.yul\":2845:2851   */\n      dup7\n        /* \"#utility.yul\":2801:2872   */\n      tag_192\n      jump\t// in\n    tag_199:\n        /* \"#utility.yul\":2882:2954   */\n      tag_200\n        /* \"#utility.yul\":2950:2952   */\n      0x20\n        /* \"#utility.yul\":2939:2948   */\n      dup4\n        /* \"#utility.yul\":2935:2953   */\n      add\n        /* \"#utility.yul\":2926:2932   */\n      dup6\n        /* \"#utility.yul\":2882:2954   */\n      tag_192\n      jump\t// in\n    tag_200:\n        /* \"#utility.yul\":2964:3036   */\n      tag_201\n        /* \"#utility.yul\":3032:3034   */\n      0x40\n        /* \"#utility.yul\":3021:3030   */\n      dup4\n        /* \"#utility.yul\":3017:3035   */\n      add\n        /* \"#utility.yul\":3008:3014   */\n      dup5\n        /* \"#utility.yul\":2964:3036   */\n      tag_192\n      jump\t// in\n    tag_201:\n        /* \"#utility.yul\":2601:3043   */\n      swap5\n      swap4\n      pop\n      pop\n      pop\n      pop\n      jump\t// out\n        /* \"#utility.yul\":3130:3435   */\n    tag_107:\n        /* \"#utility.yul\":3170:3173   */\n      0x00\n        /* \"#utility.yul\":3189:3209   */\n      tag_205\n        /* \"#utility.yul\":3207:3208   */\n      dup3\n        /* \"#utility.yul\":3189:3209   */\n      tag_195\n      jump\t// in\n    tag_205:\n        /* \"#utility.yul\":3184:3209   */\n      swap2\n      pop\n        /* \"#utility.yul\":3223:3243   */\n      tag_206\n        /* \"#utility.yul\":3241:3242   */\n      dup4\n        /* \"#utility.yul\":3223:3243   */\n      tag_195\n      jump\t// in\n    tag_206:\n        /* \"#utility.yul\":3218:3243   */\n      swap3\n      pop\n        /* \"#utility.yul\":3377:3378   */\n      dup3\n        /* \"#utility.yul\":3309:3375   */\n      0xffffffffffffffffffffffffffffffffffffffffffffffffffffffffffffffff\n        /* \"#utility.yul\":3305:3379   */\n      sub\n        /* \"#utility.yul\":3302:3303   */\n      dup3\n        /* \"#utility.yul\":3299:3380   */\n      gt\n        /* \"#utility.yul\":3296:3403   */\n      iszero\n      tag_207\n      jumpi\n        /* \"#utility.yul\":3383:3401   */\n      tag_208\n      tag_209\n      jump\t// in\n    tag_208:\n        /* \"#utility.yul\":3296:3403   */\n    tag_207:\n        /* \"#utility.yul\":3427:3428   */\n      dup3\n        /* \"#utility.yul\":3424:3425   */\n      dup3\n        /* \"#utility.yul\":3420:3429   */\n      add\n        /* \"#utility.yul\":3413:3429   */\n      swap1\n      pop\n        /* \"#utility.yul\":3130:3435   */\n      swap3\n      swap2\n      pop\n      pop\n      jump\t// out\n        /* \"#utility.yul\":3441:3789   */\n    tag_94:\n        /* \"#utility.yul\":3481:3488   */\n      0x00\n        /* \"#utility.yul\":3504:3524   */\n      tag_211\n        /* \"#utility.yul\":3522:3523   */\n      dup3\n        /* \"#utility.yul\":3504:3524   */\n      tag_195\n      jump\t// in\n    tag_211:\n        /* \"#utility.yul\":3499:3524   */\n      swap2\n      pop\n        /* \"#utility.yul\":3538:3558   */\n      tag_212\n        /* \"#utility.yul\":3556:3557   */\n      dup4\n        /* \"#utility.yul\":3538:3558   */\n      tag_195\n      jump\t// in\n    tag_212:\n        /* \"#utility.yul\":3533:3558   */\n      swap3\n      pop\n        /* \"#utility.yul\":3726:3727   */\n      dup2\n        /* \"#utility.yul\":3658:3724   */\n      0xffffffffffffffffffffffffffffffffffffffffffffffffffffffffffffffff\n        /* \"#utility.yul\":3654:3728   */\n      div\n        /* \"#utility.yul\":3651:3652   */\n      dup4\n        /* \"#utility.yul\":3648:3729   */\n      gt\n        /* \"#utility.yul\":3643:3644   */\n      dup3\n        /* \"#utility.yul\":3636:3645   */\n      iszero\n        /* \"#utility.yul\":3629:3646   */\n      iszero\n        /* \"#utility.yul\":3625:3730   */\n      and\n        /* \"#utility.yul\":3622:3753   */\n      iszero\n      tag_213\n      jumpi\n        /* \"#utility.yul\":3733:3751   */\n      tag_214\n      tag_209\n      jump\t// in\n    tag_214:\n        /* \"#utility.yul\":3622:3753   */\n    tag_213:\n        /* \"#utility.yul\":3781:3782   */\n      dup3\n        /* \"#utility.yul\":3778:3779   */\n      dup3\n        /* \"#utility.yul\":3774:3783   */\n      mul\n        /* \"#utility.yul\":3763:3783   */\n      swap1\n      pop\n        /* \"#utility.yul\":3441:3789   */\n      swap3\n      swap2\n      pop\n      pop\n      jump\t// out\n        /* \"#utility.yul\":3795:3986   */\n    tag_103:\n        /* \"#utility.yul\":3835:3839   */\n      0x00\n        /* \"#utility.yul\":3855:3875   */\n      tag_216\n        /* \"#utility.yul\":3873:3874   */\n      dup3\n        /* \"#utility.yul\":3855:3875   */\n      tag_195\n      jump\t// in\n    tag_216:\n        /* \"#utility.yul\":3850:3875   */\n      swap2\n      pop\n        /* \"#utility.yul\":3889:3909   */\n      tag_217\n        /* \"#utility.yul\":3907:3908   */\n      dup4\n        /* \"#utility.yul\":3889:3909   */\n      tag_195\n      jump\t// in\n    tag_217:\n        /* \"#utility.yul\":3884:3909   */\n      swap3\n      pop\n        /* \"#utility.yul\":3928:3929   */\n      dup3\n        /* \"#utility.yul\":3925:3926   */\n      dup3\n        /* \"#utility.yul\":3922:3930   */\n      lt\n        /* \"#utility.yul\":3919:3953   */\n      iszero\n      tag_218\n      jumpi\n        /* \"#utility.yul\":3933:3951   */\n      tag_219\n      tag_209\n      jump\t// in\n    tag_219:\n        /* \"#utility.yul\":3919:3953   */\n    tag_218:\n        /* \"#utility.yul\":3978:3979   */\n      dup3\n        /* \"#utility.yul\":3975:3976   */\n      dup3\n        /* \"#utility.yul\":3971:3980   */\n      sub\n        /* \"#utility.yul\":3963:3980   */\n      swap1\n      pop\n        /* \"#utility.yul\":3795:3986   */\n      swap3\n      swap2\n      pop\n      pop\n      jump\t// out\n        /* \"#utility.yul\":3992:4088   */\n    tag_220:\n        /* \"#utility.yul\":4029:4036   */\n      0x00\n        /* \"#utility.yul\":4058:4082   */\n      tag_222\n        /* \"#utility.yul\":4076:4081   */\n      dup3\n        /* \"#utility.yul\":4058:4082   */\n      tag_223\n      jump\t// in\n    tag_222:\n        /* \"#utility.yul\":4047:4082   */\n      swap1\n      pop\n        /* \"#utility.yul\":3992:4088   */\n      swap2\n      swap1\n      pop\n      jump\t// out\n        /* \"#utility.yul\":4094:4198   */\n    tag_224:\n        /* \"#utility.yul\":4139:4146   */\n      0x00\n        /* \"#utility.yul\":4168:4192   */\n      tag_226\n        /* \"#utility.yul\":4186:4191   */\n      dup3\n        /* \"#utility.yul\":4168:4192   */\n      tag_223\n      jump\t// in\n    tag_226:\n        /* \"#utility.yul\":4157:4192   */\n      swap1\n      pop\n        /* \"#utility.yul\":4094:4198   */\n      swap2\n      swap1\n      pop\n      jump\t// out\n        /* \"#utility.yul\":4204:4330   */\n    tag_223:\n        /* \"#utility.yul\":4241:4248   */\n      0x00\n        /* \"#utility.yul\":4281:4323   */\n      0xffffffffffffffffffffffffffffffffffffffff\n        /* \"#utility.yul\":4274:4279   */\n      dup3\n        /* \"#utility.yul\":4270:4324   */\n      and\n        /* \"#utility.yul\":4259:4324   */\n      swap1\n      pop\n        /* \"#utility.yul\":4204:4330   */\n      swap2\n      swap1\n      pop\n      jump\t// out\n        /* \"#utility.yul\":4336:4413   */\n    tag_195:\n        /* \"#utility.yul\":4373:4380   */\n      0x00\n        /* \"#utility.yul\":4402:4407   */\n      dup2\n        /* \"#utility.yul\":4391:4407   */\n      swap1\n      pop\n        /* \"#utility.yul\":4336:4413   */\n      swap2\n      swap1\n      pop\n      jump\t// out\n        /* \"#utility.yul\":4419:4599   */\n    tag_209:\n        /* \"#utility.yul\":4467:4544   */\n      0x4e487b7100000000000000000000000000000000000000000000000000000000\n        /* \"#utility.yul\":4464:4465   */\n      0x00\n        /* \"#utility.yul\":4457:4545   */\n      mstore\n        /* \"#utility.yul\":4564:4568   */\n      0x11\n        /* \"#utility.yul\":4561:4562   */\n      0x04\n        /* \"#utility.yul\":4554:4569   */\n      mstore\n        /* \"#utility.yul\":4588:4592   */\n      0x24\n        /* \"#utility.yul\":4585:4586   */\n      0x00\n        /* \"#utility.yul\":4578:4593   */\n      revert\n        /* \"#utility.yul\":4728:4845   */\n    tag_175:\n        /* \"#utility.yul\":4837:4838   */\n      0x00\n        /* \"#utility.yul\":4834:4835   */\n      dup1\n        /* \"#utility.yul\":4827:4839   */\n      revert\n        /* \"#utility.yul\":4851:4973   */\n    tag_163:\n        /* \"#utility.yul\":4924:4948   */\n      tag_234\n        /* \"#utility.yul\":4942:4947   */\n      dup2\n        /* \"#utility.yul\":4924:4948   */\n      tag_220\n      jump\t// in\n    tag_234:\n        /* \"#utility.yul\":4917:4922   */\n      dup2\n        /* \"#utility.yul\":4914:4949   */\n      eq\n        /* \"#utility.yul\":4904:4967   */\n      tag_235\n      jumpi\n        /* \"#utility.yul\":4963:4964   */\n      0x00\n        /* \"#utility.yul\":4960:4961   */\n      dup1\n        /* \"#utility.yul\":4953:4965   */\n      revert\n        /* \"#utility.yul\":4904:4967   */\n    tag_235:\n        /* \"#utility.yul\":4851:4973   */\n      pop\n      jump\t// out\n        /* \"#utility.yul\":4979:5117   */\n    tag_167:\n        /* \"#utility.yul\":5060:5092   */\n      tag_237\n        /* \"#utility.yul\":5086:5091   */\n      dup2\n        /* \"#utility.yul\":5060:5092   */\n      tag_224\n      jump\t// in\n    tag_237:\n        /* \"#utility.yul\":5053:5058   */\n      dup2\n        /* \"#utility.yul\":5050:5093   */\n      eq\n        /* \"#utility.yul\":5040:5111   */\n      tag_238\n      jumpi\n        /* \"#utility.yul\":5107:5108   */\n      0x00\n        /* \"#utility.yul\":5104:5105   */\n      dup1\n        /* \"#utility.yul\":5097:5109   */\n      revert\n        /* \"#utility.yul\":5040:5111   */\n    tag_238:\n        /* \"#utility.yul\":4979:5117   */\n      pop\n      jump\t// out\n        /* \"#utility.yul\":5123:5245   */\n    tag_171:\n        /* \"#utility.yul\":5196:5220   */\n      tag_240\n        /* \"#utility.yul\":5214:5219   */\n      dup2\n        /* \"#utility.yul\":5196:5220   */\n      tag_195\n      jump\t// in\n    tag_240:\n        /* \"#utility.yul\":5189:5194   */\n      dup2\n        /* \"#utility.yul\":5186:5221   */\n      eq\n        /* \"#utility.yul\":5176:5239   */\n      tag_241\n      jumpi\n        /* \"#utility.yul\":5235:5236   */\n      0x00\n        /* \"#utility.yul\":5232:5233   */\n      dup1\n        /* \"#utility.yul\":5225:5237   */\n      revert\n        /* \"#utility.yul\":5176:5239   */\n    tag_241:\n        /* \"#utility.yul\":5123:5245   */\n      pop\n      jump\t// out\n\n    auxdata: 0xa26469706673582212205b1776354dde3260d53492103ce2d78c360edec0d48d36c8e31a9b4716eae98b64736f6c63430008070033\n}\n",
				"bytecode": {
					"linkReferences": {},
					"object": "60806040526000600255600380556003600455600460055560056006556006600755600760085560086009556009600a55600a600b5534801561004157600080fd5b50336000806101000a81548173ffffffffffffffffffffffffffffffffffffffff021916908373ffffffffffffffffffffffffffffffffffffffff160217905550610a9b806100916000396000f3fe6080604052600436106100f35760003560e01c8063a8bdb68b1161008a578063d0679d3411610059578063d0679d34146102ff578063ed2fa5ab1461031b578063f02e48c314610346578063f8b2cb4f14610385576100f3565b8063a8bdb68b14610253578063b4ad7fa91461027e578063b69ef8a8146102a9578063c2c496ec146102d4576100f3565b80632c9af64c116100c65780632c9af64c146101a45780635c8f6b56146101cf578063721028ec1461020c5780637c134b1414610249576100f3565b80630c03a1a3146100f8578063103347e71461012357806320e731a11461014e57806328780a4414610179575b600080fd5b34801561010457600080fd5b5061010d6103c2565b60405161011a9190610868565b60405180910390f35b34801561012f57600080fd5b506101386103c8565b6040516101459190610868565b60405180910390f35b34801561015a57600080fd5b506101636103ce565b6040516101709190610868565b60405180910390f35b34801561018557600080fd5b5061018e6103d4565b60405161019b9190610868565b60405180910390f35b3480156101b057600080fd5b506101b96103da565b6040516101c69190610868565b60405180910390f35b3480156101db57600080fd5b506101f660048036038101906101f191906107d9565b6103e0565b6040516102039190610868565b60405180910390f35b34801561021857600080fd5b50610233600480360381019061022e91906107d9565b6103f7565b6040516102409190610868565b60405180910390f35b610251610671565b005b34801561025f57600080fd5b5061026861068c565b6040516102759190610868565b60405180910390f35b34801561028a57600080fd5b50610293610692565b6040516102a09190610868565b60405180910390f35b3480156102b557600080fd5b506102be610698565b6040516102cb9190610868565b60405180910390f35b3480156102e057600080fd5b506102e961069e565b6040516102f69190610868565b60405180910390f35b61031960048036038101906103149190610799565b6106a4565b005b34801561032757600080fd5b506103306106ef565b60405161033d9190610868565b60405180910390f35b34801561035257600080fd5b5061036d60048036038101906103689190610806565b6106f5565b60405161037c93929190610883565b60405180910390f35b34801561039157600080fd5b506103ac60048036038101906103a7919061076c565b61070c565b6040516103b99190610868565b60405180910390f35b60085481565b60075481565b60065481565b60055481565b60035481565b6000600354826103f09190610910565b9050919050565b600060fb8210156105f757603382101561042057600454826104199190610910565b90506105f2565b6032821180156104305750606582105b1561046f57600554603283610445919061096a565b61044f9190610910565b600454603261045e9190610910565b61046891906108ba565b90506105f1565b60648211801561047f5750609782105b156104d757600654603283610494919061096a565b61049e9190610910565b60055460326104ad9190610910565b60045460326104bc9190610910565b6104c691906108ba565b6104d091906108ba565b90506105f0565b6096821180156104e7575060c982105b15610558576007546032836104fc919061096a565b6105069190610910565b60065460326105159190610910565b60055460326105249190610910565b60045460326105339190610910565b61053d91906108ba565b61054791906108ba565b61055191906108ba565b90506105ef565b60c882118015610568575060fb82105b156105ee5760085460328361057d919061096a565b6105879190610910565b60075460326105969190610910565b60065460326105a59190610910565b60055460326105b49190610910565b60045460326105c39190610910565b6105cd91906108ba565b6105d791906108ba565b6105e191906108ba565b6105eb91906108ba565b90505b5b5b5b5b61066c565b60fa82118015610608575061015f82105b15610622576009548261061b9190610910565b905061066b565b61015e8211801561063457506101c382105b1561064e57600a54826106479190610910565b905061066a565b6101c282111561066957600b54826106669190610910565b90505b5b5b5b919050565b346002600082825461068391906108ba565b92505081905550565b600b5481565b60095481565b60025481565b60045481565b8173ffffffffffffffffffffffffffffffffffffffff166108fc829081150290604051600060405180830381858888f193505050501580156106ea573d6000803e3d6000fd5b505050565b600a5481565b600080600085925084915083905093509350939050565b60008173ffffffffffffffffffffffffffffffffffffffff16319050919050565b60008135905061073c81610a20565b92915050565b60008135905061075181610a37565b92915050565b60008135905061076681610a4e565b92915050565b60006020828403121561078257610781610a1b565b5b60006107908482850161072d565b91505092915050565b600080604083850312156107b0576107af610a1b565b5b60006107be85828601610742565b92505060206107cf85828601610757565b9150509250929050565b6000602082840312156107ef576107ee610a1b565b5b60006107fd84828501610757565b91505092915050565b60008060006060848603121561081f5761081e610a1b565b5b600061082d86828701610757565b935050602061083e86828701610757565b925050604061084f86828701610757565b9150509250925092565b610862816109e2565b82525050565b600060208201905061087d6000830184610859565b92915050565b60006060820190506108986000830186610859565b6108a56020830185610859565b6108b26040830184610859565b949350505050565b60006108c5826109e2565b91506108d0836109e2565b9250827fffffffffffffffffffffffffffffffffffffffffffffffffffffffffffffffff03821115610905576109046109ec565b5b828201905092915050565b600061091b826109e2565b9150610926836109e2565b9250817fffffffffffffffffffffffffffffffffffffffffffffffffffffffffffffffff048311821515161561095f5761095e6109ec565b5b828202905092915050565b6000610975826109e2565b9150610980836109e2565b925082821015610993576109926109ec565b5b828203905092915050565b60006109a9826109c2565b9050919050565b60006109bb826109c2565b9050919050565b600073ffffffffffffffffffffffffffffffffffffffff82169050919050565b6000819050919050565b7f4e487b7100000000000000000000000000000000000000000000000000000000600052601160045260246000fd5b600080fd5b610a298161099e565b8114610a3457600080fd5b50565b610a40816109b0565b8114610a4b57600080fd5b50565b610a57816109e2565b8114610a6257600080fd5b5056fea26469706673582212205b1776354dde3260d53492103ce2d78c360edec0d48d36c8e31a9b4716eae98b64736f6c63430008070033",
					"opcodes": "PUSH1 0x80 PUSH1 0x40 MSTORE PUSH1 0x0 PUSH1 0x2 SSTORE PUSH1 0x3 DUP1 SSTORE PUSH1 0x3 PUSH1 0x4 SSTORE PUSH1 0x4 PUSH1 0x5 SSTORE PUSH1 0x5 PUSH1 0x6 SSTORE PUSH1 0x6 PUSH1 0x7 SSTORE PUSH1 0x7 PUSH1 0x8 SSTORE PUSH1 0x8 PUSH1 0x9 SSTORE PUSH1 0x9 PUSH1 0xA SSTORE PUSH1 0xA PUSH1 0xB SSTORE CALLVALUE DUP1 ISZERO PUSH2 0x41 JUMPI PUSH1 0x0 DUP1 REVERT JUMPDEST POP CALLER PUSH1 0x0 DUP1 PUSH2 0x100 EXP DUP2 SLOAD DUP2 PUSH20 0xFFFFFFFFFFFFFFFFFFFFFFFFFFFFFFFFFFFFFFFF MUL NOT AND SWAP1 DUP4 PUSH20 0xFFFFFFFFFFFFFFFFFFFFFFFFFFFFFFFFFFFFFFFF AND MUL OR SWAP1 SSTORE POP PUSH2 0xA9B DUP1 PUSH2 0x91 PUSH1 0x0 CODECOPY PUSH1 0x0 RETURN INVALID PUSH1 0x80 PUSH1 0x40 MSTORE PUSH1 0x4 CALLDATASIZE LT PUSH2 0xF3 JUMPI PUSH1 0x0 CALLDATALOAD PUSH1 0xE0 SHR DUP1 PUSH4 0xA8BDB68B GT PUSH2 0x8A JUMPI DUP1 PUSH4 0xD0679D34 GT PUSH2 0x59 JUMPI DUP1 PUSH4 0xD0679D34 EQ PUSH2 0x2FF JUMPI DUP1 PUSH4 0xED2FA5AB EQ PUSH2 0x31B JUMPI DUP1 PUSH4 0xF02E48C3 EQ PUSH2 0x346 JUMPI DUP1 PUSH4 0xF8B2CB4F EQ PUSH2 0x385 JUMPI PUSH2 0xF3 JUMP JUMPDEST DUP1 PUSH4 0xA8BDB68B EQ PUSH2 0x253 JUMPI DUP1 PUSH4 0xB4AD7FA9 EQ PUSH2 0x27E JUMPI DUP1 PUSH4 0xB69EF8A8 EQ PUSH2 0x2A9 JUMPI DUP1 PUSH4 0xC2C496EC EQ PUSH2 0x2D4 JUMPI PUSH2 0xF3 JUMP JUMPDEST DUP1 PUSH4 0x2C9AF64C GT PUSH2 0xC6 JUMPI DUP1 PUSH4 0x2C9AF64C EQ PUSH2 0x1A4 JUMPI DUP1 PUSH4 0x5C8F6B56 EQ PUSH2 0x1CF JUMPI DUP1 PUSH4 0x721028EC EQ PUSH2 0x20C JUMPI DUP1 PUSH4 0x7C134B14 EQ PUSH2 0x249 JUMPI PUSH2 0xF3 JUMP JUMPDEST DUP1 PUSH4 0xC03A1A3 EQ PUSH2 0xF8 JUMPI DUP1 PUSH4 0x103347E7 EQ PUSH2 0x123 JUMPI DUP1 PUSH4 0x20E731A1 EQ PUSH2 0x14E JUMPI DUP1 PUSH4 0x28780A44 EQ PUSH2 0x179 JUMPI JUMPDEST PUSH1 0x0 DUP1 REVERT JUMPDEST CALLVALUE DUP1 ISZERO PUSH2 0x104 JUMPI PUSH1 0x0 DUP1 REVERT JUMPDEST POP PUSH2 0x10D PUSH2 0x3C2 JUMP JUMPDEST PUSH1 0x40 MLOAD PUSH2 0x11A SWAP2 SWAP1 PUSH2 0x868 JUMP JUMPDEST PUSH1 0x40 MLOAD DUP1 SWAP2 SUB SWAP1 RETURN JUMPDEST CALLVALUE DUP1 ISZERO PUSH2 0x12F JUMPI PUSH1 0x0 DUP1 REVERT JUMPDEST POP PUSH2 0x138 PUSH2 0x3C8 JUMP JUMPDEST PUSH1 0x40 MLOAD PUSH2 0x145 SWAP2 SWAP1 PUSH2 0x868 JUMP JUMPDEST PUSH1 0x40 MLOAD DUP1 SWAP2 SUB SWAP1 RETURN JUMPDEST CALLVALUE DUP1 ISZERO PUSH2 0x15A JUMPI PUSH1 0x0 DUP1 REVERT JUMPDEST POP PUSH2 0x163 PUSH2 0x3CE JUMP JUMPDEST PUSH1 0x40 MLOAD PUSH2 0x170 SWAP2 SWAP1 PUSH2 0x868 JUMP JUMPDEST PUSH1 0x40 MLOAD DUP1 SWAP2 SUB SWAP1 RETURN JUMPDEST CALLVALUE DUP1 ISZERO PUSH2 0x185 JUMPI PUSH1 0x0 DUP1 REVERT JUMPDEST POP PUSH2 0x18E PUSH2 0x3D4 JUMP JUMPDEST PUSH1 0x40 MLOAD PUSH2 0x19B SWAP2 SWAP1 PUSH2 0x868 JUMP JUMPDEST PUSH1 0x40 MLOAD DUP1 SWAP2 SUB SWAP1 RETURN JUMPDEST CALLVALUE DUP1 ISZERO PUSH2 0x1B0 JUMPI PUSH1 0x0 DUP1 REVERT JUMPDEST POP PUSH2 0x1B9 PUSH2 0x3DA JUMP JUMPDEST PUSH1 0x40 MLOAD PUSH2 0x1C6 SWAP2 SWAP1 PUSH2 0x868 JUMP JUMPDEST PUSH1 0x40 MLOAD DUP1 SWAP2 SUB SWAP1 RETURN JUMPDEST CALLVALUE DUP1 ISZERO PUSH2 0x1DB JUMPI PUSH1 0x0 DUP1 REVERT JUMPDEST POP PUSH2 0x1F6 PUSH1 0x4 DUP1 CALLDATASIZE SUB DUP2 ADD SWAP1 PUSH2 0x1F1 SWAP2 SWAP1 PUSH2 0x7D9 JUMP JUMPDEST PUSH2 0x3E0 JUMP JUMPDEST PUSH1 0x40 MLOAD PUSH2 0x203 SWAP2 SWAP1 PUSH2 0x868 JUMP JUMPDEST PUSH1 0x40 MLOAD DUP1 SWAP2 SUB SWAP1 RETURN JUMPDEST CALLVALUE DUP1 ISZERO PUSH2 0x218 JUMPI PUSH1 0x0 DUP1 REVERT JUMPDEST POP PUSH2 0x233 PUSH1 0x4 DUP1 CALLDATASIZE SUB DUP2 ADD SWAP1 PUSH2 0x22E SWAP2 SWAP1 PUSH2 0x7D9 JUMP JUMPDEST PUSH2 0x3F7 JUMP JUMPDEST PUSH1 0x40 MLOAD PUSH2 0x240 SWAP2 SWAP1 PUSH2 0x868 JUMP JUMPDEST PUSH1 0x40 MLOAD DUP1 SWAP2 SUB SWAP1 RETURN JUMPDEST PUSH2 0x251 PUSH2 0x671 JUMP JUMPDEST STOP JUMPDEST CALLVALUE DUP1 ISZERO PUSH2 0x25F JUMPI PUSH1 0x0 DUP1 REVERT JUMPDEST POP PUSH2 0x268 PUSH2 0x68C JUMP JUMPDEST PUSH1 0x40 MLOAD PUSH2 0x275 SWAP2 SWAP1 PUSH2 0x868 JUMP JUMPDEST PUSH1 0x40 MLOAD DUP1 SWAP2 SUB SWAP1 RETURN JUMPDEST CALLVALUE DUP1 ISZERO PUSH2 0x28A JUMPI PUSH1 0x0 DUP1 REVERT JUMPDEST POP PUSH2 0x293 PUSH2 0x692 JUMP JUMPDEST PUSH1 0x40 MLOAD PUSH2 0x2A0 SWAP2 SWAP1 PUSH2 0x868 JUMP JUMPDEST PUSH1 0x40 MLOAD DUP1 SWAP2 SUB SWAP1 RETURN JUMPDEST CALLVALUE DUP1 ISZERO PUSH2 0x2B5 JUMPI PUSH1 0x0 DUP1 REVERT JUMPDEST POP PUSH2 0x2BE PUSH2 0x698 JUMP JUMPDEST PUSH1 0x40 MLOAD PUSH2 0x2CB SWAP2 SWAP1 PUSH2 0x868 JUMP JUMPDEST PUSH1 0x40 MLOAD DUP1 SWAP2 SUB SWAP1 RETURN JUMPDEST CALLVALUE DUP1 ISZERO PUSH2 0x2E0 JUMPI PUSH1 0x0 DUP1 REVERT JUMPDEST POP PUSH2 0x2E9 PUSH2 0x69E JUMP JUMPDEST PUSH1 0x40 MLOAD PUSH2 0x2F6 SWAP2 SWAP1 PUSH2 0x868 JUMP JUMPDEST PUSH1 0x40 MLOAD DUP1 SWAP2 SUB SWAP1 RETURN JUMPDEST PUSH2 0x319 PUSH1 0x4 DUP1 CALLDATASIZE SUB DUP2 ADD SWAP1 PUSH2 0x314 SWAP2 SWAP1 PUSH2 0x799 JUMP JUMPDEST PUSH2 0x6A4 JUMP JUMPDEST STOP JUMPDEST CALLVALUE DUP1 ISZERO PUSH2 0x327 JUMPI PUSH1 0x0 DUP1 REVERT JUMPDEST POP PUSH2 0x330 PUSH2 0x6EF JUMP JUMPDEST PUSH1 0x40 MLOAD PUSH2 0x33D SWAP2 SWAP1 PUSH2 0x868 JUMP JUMPDEST PUSH1 0x40 MLOAD DUP1 SWAP2 SUB SWAP1 RETURN JUMPDEST CALLVALUE DUP1 ISZERO PUSH2 0x352 JUMPI PUSH1 0x0 DUP1 REVERT JUMPDEST POP PUSH2 0x36D PUSH1 0x4 DUP1 CALLDATASIZE SUB DUP2 ADD SWAP1 PUSH2 0x368 SWAP2 SWAP1 PUSH2 0x806 JUMP JUMPDEST PUSH2 0x6F5 JUMP JUMPDEST PUSH1 0x40 MLOAD PUSH2 0x37C SWAP4 SWAP3 SWAP2 SWAP1 PUSH2 0x883 JUMP JUMPDEST PUSH1 0x40 MLOAD DUP1 SWAP2 SUB SWAP1 RETURN JUMPDEST CALLVALUE DUP1 ISZERO PUSH2 0x391 JUMPI PUSH1 0x0 DUP1 REVERT JUMPDEST POP PUSH2 0x3AC PUSH1 0x4 DUP1 CALLDATASIZE SUB DUP2 ADD SWAP1 PUSH2 0x3A7 SWAP2 SWAP1 PUSH2 0x76C JUMP JUMPDEST PUSH2 0x70C JUMP JUMPDEST PUSH1 0x40 MLOAD PUSH2 0x3B9 SWAP2 SWAP1 PUSH2 0x868 JUMP JUMPDEST PUSH1 0x40 MLOAD DUP1 SWAP2 SUB SWAP1 RETURN JUMPDEST PUSH1 0x8 SLOAD DUP2 JUMP JUMPDEST PUSH1 0x7 SLOAD DUP2 JUMP JUMPDEST PUSH1 0x6 SLOAD DUP2 JUMP JUMPDEST PUSH1 0x5 SLOAD DUP2 JUMP JUMPDEST PUSH1 0x3 SLOAD DUP2 JUMP JUMPDEST PUSH1 0x0 PUSH1 0x3 SLOAD DUP3 PUSH2 0x3F0 SWAP2 SWAP1 PUSH2 0x910 JUMP JUMPDEST SWAP1 POP SWAP2 SWAP1 POP JUMP JUMPDEST PUSH1 0x0 PUSH1 0xFB DUP3 LT ISZERO PUSH2 0x5F7 JUMPI PUSH1 0x33 DUP3 LT ISZERO PUSH2 0x420 JUMPI PUSH1 0x4 SLOAD DUP3 PUSH2 0x419 SWAP2 SWAP1 PUSH2 0x910 JUMP JUMPDEST SWAP1 POP PUSH2 0x5F2 JUMP JUMPDEST PUSH1 0x32 DUP3 GT DUP1 ISZERO PUSH2 0x430 JUMPI POP PUSH1 0x65 DUP3 LT JUMPDEST ISZERO PUSH2 0x46F JUMPI PUSH1 0x5 SLOAD PUSH1 0x32 DUP4 PUSH2 0x445 SWAP2 SWAP1 PUSH2 0x96A JUMP JUMPDEST PUSH2 0x44F SWAP2 SWAP1 PUSH2 0x910 JUMP JUMPDEST PUSH1 0x4 SLOAD PUSH1 0x32 PUSH2 0x45E SWAP2 SWAP1 PUSH2 0x910 JUMP JUMPDEST PUSH2 0x468 SWAP2 SWAP1 PUSH2 0x8BA JUMP JUMPDEST SWAP1 POP PUSH2 0x5F1 JUMP JUMPDEST PUSH1 0x64 DUP3 GT DUP1 ISZERO PUSH2 0x47F JUMPI POP PUSH1 0x97 DUP3 LT JUMPDEST ISZERO PUSH2 0x4D7 JUMPI PUSH1 0x6 SLOAD PUSH1 0x32 DUP4 PUSH2 0x494 SWAP2 SWAP1 PUSH2 0x96A JUMP JUMPDEST PUSH2 0x49E SWAP2 SWAP1 PUSH2 0x910 JUMP JUMPDEST PUSH1 0x5 SLOAD PUSH1 0x32 PUSH2 0x4AD SWAP2 SWAP1 PUSH2 0x910 JUMP JUMPDEST PUSH1 0x4 SLOAD PUSH1 0x32 PUSH2 0x4BC SWAP2 SWAP1 PUSH2 0x910 JUMP JUMPDEST PUSH2 0x4C6 SWAP2 SWAP1 PUSH2 0x8BA JUMP JUMPDEST PUSH2 0x4D0 SWAP2 SWAP1 PUSH2 0x8BA JUMP JUMPDEST SWAP1 POP PUSH2 0x5F0 JUMP JUMPDEST PUSH1 0x96 DUP3 GT DUP1 ISZERO PUSH2 0x4E7 JUMPI POP PUSH1 0xC9 DUP3 LT JUMPDEST ISZERO PUSH2 0x558 JUMPI PUSH1 0x7 SLOAD PUSH1 0x32 DUP4 PUSH2 0x4FC SWAP2 SWAP1 PUSH2 0x96A JUMP JUMPDEST PUSH2 0x506 SWAP2 SWAP1 PUSH2 0x910 JUMP JUMPDEST PUSH1 0x6 SLOAD PUSH1 0x32 PUSH2 0x515 SWAP2 SWAP1 PUSH2 0x910 JUMP JUMPDEST PUSH1 0x5 SLOAD PUSH1 0x32 PUSH2 0x524 SWAP2 SWAP1 PUSH2 0x910 JUMP JUMPDEST PUSH1 0x4 SLOAD PUSH1 0x32 PUSH2 0x533 SWAP2 SWAP1 PUSH2 0x910 JUMP JUMPDEST PUSH2 0x53D SWAP2 SWAP1 PUSH2 0x8BA JUMP JUMPDEST PUSH2 0x547 SWAP2 SWAP1 PUSH2 0x8BA JUMP JUMPDEST PUSH2 0x551 SWAP2 SWAP1 PUSH2 0x8BA JUMP JUMPDEST SWAP1 POP PUSH2 0x5EF JUMP JUMPDEST PUSH1 0xC8 DUP3 GT DUP1 ISZERO PUSH2 0x568 JUMPI POP PUSH1 0xFB DUP3 LT JUMPDEST ISZERO PUSH2 0x5EE JUMPI PUSH1 0x8 SLOAD PUSH1 0x32 DUP4 PUSH2 0x57D SWAP2 SWAP1 PUSH2 0x96A JUMP JUMPDEST PUSH2 0x587 SWAP2 SWAP1 PUSH2 0x910 JUMP JUMPDEST PUSH1 0x7 SLOAD PUSH1 0x32 PUSH2 0x596 SWAP2 SWAP1 PUSH2 0x910 JUMP JUMPDEST PUSH1 0x6 SLOAD PUSH1 0x32 PUSH2 0x5A5 SWAP2 SWAP1 PUSH2 0x910 JUMP JUMPDEST PUSH1 0x5 SLOAD PUSH1 0x32 PUSH2 0x5B4 SWAP2 SWAP1 PUSH2 0x910 JUMP JUMPDEST PUSH1 0x4 SLOAD PUSH1 0x32 PUSH2 0x5C3 SWAP2 SWAP1 PUSH2 0x910 JUMP JUMPDEST PUSH2 0x5CD SWAP2 SWAP1 PUSH2 0x8BA JUMP JUMPDEST PUSH2 0x5D7 SWAP2 SWAP1 PUSH2 0x8BA JUMP JUMPDEST PUSH2 0x5E1 SWAP2 SWAP1 PUSH2 0x8BA JUMP JUMPDEST PUSH2 0x5EB SWAP2 SWAP1 PUSH2 0x8BA JUMP JUMPDEST SWAP1 POP JUMPDEST JUMPDEST JUMPDEST JUMPDEST JUMPDEST PUSH2 0x66C JUMP JUMPDEST PUSH1 0xFA DUP3 GT DUP1 ISZERO PUSH2 0x608 JUMPI POP PUSH2 0x15F DUP3 LT JUMPDEST ISZERO PUSH2 0x622 JUMPI PUSH1 0x9 SLOAD DUP3 PUSH2 0x61B SWAP2 SWAP1 PUSH2 0x910 JUMP JUMPDEST SWAP1 POP PUSH2 0x66B JUMP JUMPDEST PUSH2 0x15E DUP3 GT DUP1 ISZERO PUSH2 0x634 JUMPI POP PUSH2 0x1C3 DUP3 LT JUMPDEST ISZERO PUSH2 0x64E JUMPI PUSH1 0xA SLOAD DUP3 PUSH2 0x647 SWAP2 SWAP1 PUSH2 0x910 JUMP JUMPDEST SWAP1 POP PUSH2 0x66A JUMP JUMPDEST PUSH2 0x1C2 DUP3 GT ISZERO PUSH2 0x669 JUMPI PUSH1 0xB SLOAD DUP3 PUSH2 0x666 SWAP2 SWAP1 PUSH2 0x910 JUMP JUMPDEST SWAP1 POP JUMPDEST JUMPDEST JUMPDEST JUMPDEST SWAP2 SWAP1 POP JUMP JUMPDEST CALLVALUE PUSH1 0x2 PUSH1 0x0 DUP3 DUP3 SLOAD PUSH2 0x683 SWAP2 SWAP1 PUSH2 0x8BA JUMP JUMPDEST SWAP3 POP POP DUP2 SWAP1 SSTORE POP JUMP JUMPDEST PUSH1 0xB SLOAD DUP2 JUMP JUMPDEST PUSH1 0x9 SLOAD DUP2 JUMP JUMPDEST PUSH1 0x2 SLOAD DUP2 JUMP JUMPDEST PUSH1 0x4 SLOAD DUP2 JUMP JUMPDEST DUP2 PUSH20 0xFFFFFFFFFFFFFFFFFFFFFFFFFFFFFFFFFFFFFFFF AND PUSH2 0x8FC DUP3 SWAP1 DUP2 ISZERO MUL SWAP1 PUSH1 0x40 MLOAD PUSH1 0x0 PUSH1 0x40 MLOAD DUP1 DUP4 SUB DUP2 DUP6 DUP9 DUP9 CALL SWAP4 POP POP POP POP ISZERO DUP1 ISZERO PUSH2 0x6EA JUMPI RETURNDATASIZE PUSH1 0x0 DUP1 RETURNDATACOPY RETURNDATASIZE PUSH1 0x0 REVERT JUMPDEST POP POP POP JUMP JUMPDEST PUSH1 0xA SLOAD DUP2 JUMP JUMPDEST PUSH1 0x0 DUP1 PUSH1 0x0 DUP6 SWAP3 POP DUP5 SWAP2 POP DUP4 SWAP1 POP SWAP4 POP SWAP4 POP SWAP4 SWAP1 POP JUMP JUMPDEST PUSH1 0x0 DUP2 PUSH20 0xFFFFFFFFFFFFFFFFFFFFFFFFFFFFFFFFFFFFFFFF AND BALANCE SWAP1 POP SWAP2 SWAP1 POP JUMP JUMPDEST PUSH1 0x0 DUP2 CALLDATALOAD SWAP1 POP PUSH2 0x73C DUP2 PUSH2 0xA20 JUMP JUMPDEST SWAP3 SWAP2 POP POP JUMP JUMPDEST PUSH1 0x0 DUP2 CALLDATALOAD SWAP1 POP PUSH2 0x751 DUP2 PUSH2 0xA37 JUMP JUMPDEST SWAP3 SWAP2 POP POP JUMP JUMPDEST PUSH1 0x0 DUP2 CALLDATALOAD SWAP1 POP PUSH2 0x766 DUP2 PUSH2 0xA4E JUMP JUMPDEST SWAP3 SWAP2 POP POP JUMP JUMPDEST PUSH1 0x0 PUSH1 0x20 DUP3 DUP5 SUB SLT ISZERO PUSH2 0x782 JUMPI PUSH2 0x781 PUSH2 0xA1B JUMP JUMPDEST JUMPDEST PUSH1 0x0 PUSH2 0x790 DUP5 DUP3 DUP6 ADD PUSH2 0x72D JUMP JUMPDEST SWAP2 POP POP SWAP3 SWAP2 POP POP JUMP JUMPDEST PUSH1 0x0 DUP1 PUSH1 0x40 DUP4 DUP6 SUB SLT ISZERO PUSH2 0x7B0 JUMPI PUSH2 0x7AF PUSH2 0xA1B JUMP JUMPDEST JUMPDEST PUSH1 0x0 PUSH2 0x7BE DUP6 DUP3 DUP7 ADD PUSH2 0x742 JUMP JUMPDEST SWAP3 POP POP PUSH1 0x20 PUSH2 0x7CF DUP6 DUP3 DUP7 ADD PUSH2 0x757 JUMP JUMPDEST SWAP2 POP POP SWAP3 POP SWAP3 SWAP1 POP JUMP JUMPDEST PUSH1 0x0 PUSH1 0x20 DUP3 DUP5 SUB SLT ISZERO PUSH2 0x7EF JUMPI PUSH2 0x7EE PUSH2 0xA1B JUMP JUMPDEST JUMPDEST PUSH1 0x0 PUSH2 0x7FD DUP5 DUP3 DUP6 ADD PUSH2 0x757 JUMP JUMPDEST SWAP2 POP POP SWAP3 SWAP2 POP POP JUMP JUMPDEST PUSH1 0x0 DUP1 PUSH1 0x0 PUSH1 0x60 DUP5 DUP7 SUB SLT ISZERO PUSH2 0x81F JUMPI PUSH2 0x81E PUSH2 0xA1B JUMP JUMPDEST JUMPDEST PUSH1 0x0 PUSH2 0x82D DUP7 DUP3 DUP8 ADD PUSH2 0x757 JUMP JUMPDEST SWAP4 POP POP PUSH1 0x20 PUSH2 0x83E DUP7 DUP3 DUP8 ADD PUSH2 0x757 JUMP JUMPDEST SWAP3 POP POP PUSH1 0x40 PUSH2 0x84F DUP7 DUP3 DUP8 ADD PUSH2 0x757 JUMP JUMPDEST SWAP2 POP POP SWAP3 POP SWAP3 POP SWAP3 JUMP JUMPDEST PUSH2 0x862 DUP2 PUSH2 0x9E2 JUMP JUMPDEST DUP3 MSTORE POP POP JUMP JUMPDEST PUSH1 0x0 PUSH1 0x20 DUP3 ADD SWAP1 POP PUSH2 0x87D PUSH1 0x0 DUP4 ADD DUP5 PUSH2 0x859 JUMP JUMPDEST SWAP3 SWAP2 POP POP JUMP JUMPDEST PUSH1 0x0 PUSH1 0x60 DUP3 ADD SWAP1 POP PUSH2 0x898 PUSH1 0x0 DUP4 ADD DUP7 PUSH2 0x859 JUMP JUMPDEST PUSH2 0x8A5 PUSH1 0x20 DUP4 ADD DUP6 PUSH2 0x859 JUMP JUMPDEST PUSH2 0x8B2 PUSH1 0x40 DUP4 ADD DUP5 PUSH2 0x859 JUMP JUMPDEST SWAP5 SWAP4 POP POP POP POP JUMP JUMPDEST PUSH1 0x0 PUSH2 0x8C5 DUP3 PUSH2 0x9E2 JUMP JUMPDEST SWAP2 POP PUSH2 0x8D0 DUP4 PUSH2 0x9E2 JUMP JUMPDEST SWAP3 POP DUP3 PUSH32 0xFFFFFFFFFFFFFFFFFFFFFFFFFFFFFFFFFFFFFFFFFFFFFFFFFFFFFFFFFFFFFFFF SUB DUP3 GT ISZERO PUSH2 0x905 JUMPI PUSH2 0x904 PUSH2 0x9EC JUMP JUMPDEST JUMPDEST DUP3 DUP3 ADD SWAP1 POP SWAP3 SWAP2 POP POP JUMP JUMPDEST PUSH1 0x0 PUSH2 0x91B DUP3 PUSH2 0x9E2 JUMP JUMPDEST SWAP2 POP PUSH2 0x926 DUP4 PUSH2 0x9E2 JUMP JUMPDEST SWAP3 POP DUP2 PUSH32 0xFFFFFFFFFFFFFFFFFFFFFFFFFFFFFFFFFFFFFFFFFFFFFFFFFFFFFFFFFFFFFFFF DIV DUP4 GT DUP3 ISZERO ISZERO AND ISZERO PUSH2 0x95F JUMPI PUSH2 0x95E PUSH2 0x9EC JUMP JUMPDEST JUMPDEST DUP3 DUP3 MUL SWAP1 POP SWAP3 SWAP2 POP POP JUMP JUMPDEST PUSH1 0x0 PUSH2 0x975 DUP3 PUSH2 0x9E2 JUMP JUMPDEST SWAP2 POP PUSH2 0x980 DUP4 PUSH2 0x9E2 JUMP JUMPDEST SWAP3 POP DUP3 DUP3 LT ISZERO PUSH2 0x993 JUMPI PUSH2 0x992 PUSH2 0x9EC JUMP JUMPDEST JUMPDEST DUP3 DUP3 SUB SWAP1 POP SWAP3 SWAP2 POP POP JUMP JUMPDEST PUSH1 0x0 PUSH2 0x9A9 DUP3 PUSH2 0x9C2 JUMP JUMPDEST SWAP1 POP SWAP2 SWAP1 POP JUMP JUMPDEST PUSH1 0x0 PUSH2 0x9BB DUP3 PUSH2 0x9C2 JUMP JUMPDEST SWAP1 POP SWAP2 SWAP1 POP JUMP JUMPDEST PUSH1 0x0 PUSH20 0xFFFFFFFFFFFFFFFFFFFFFFFFFFFFFFFFFFFFFFFF DUP3 AND SWAP1 POP SWAP2 SWAP1 POP JUMP JUMPDEST PUSH1 0x0 DUP2 SWAP1 POP SWAP2 SWAP1 POP JUMP JUMPDEST PUSH32 0x4E487B7100000000000000000000000000000000000000000000000000000000 PUSH1 0x0 MSTORE PUSH1 0x11 PUSH1 0x4 MSTORE PUSH1 0x24 PUSH1 0x0 REVERT JUMPDEST PUSH1 0x0 DUP1 REVERT JUMPDEST PUSH2 0xA29 DUP2 PUSH2 0x99E JUMP JUMPDEST DUP2 EQ PUSH2 0xA34 JUMPI PUSH1 0x0 DUP1 REVERT JUMPDEST POP JUMP JUMPDEST PUSH2 0xA40 DUP2 PUSH2 0x9B0 JUMP JUMPDEST DUP2 EQ PUSH2 0xA4B JUMPI PUSH1 0x0 DUP1 REVERT JUMPDEST POP JUMP JUMPDEST PUSH2 0xA57 DUP2 PUSH2 0x9E2 JUMP JUMPDEST DUP2 EQ PUSH2 0xA62 JUMPI PUSH1 0x0 DUP1 REVERT JUMPDEST POP JUMP INVALID LOG2 PUSH5 0x6970667358 0x22 SLT KECCAK256 JUMPDEST OR PUSH23 0x354DDE3260D53492103CE2D78C360EDEC0D48D36C8E31A SWAP12 SELFBALANCE AND 0xEA 0xE9 DUP12 PUSH5 0x736F6C6343 STOP ADDMOD SMOD STOP CALLER "
				},
				"gasEstimates": {
					"creation": {
						"codeDepositCost": "543000",
						"executionCost": "228801",
						"totalCost": "771801"
					},
					"external": {
						"balCheck()": "infinite",
						"balance()": "2496",
						"btc1()": "2518",
						"btc2()": "2519",
						"btc3()": "2497",
						"btc4()": "2475",
						"btc5()": "2453",
						"btc6()": "2474",
						"btc7()": "2473",
						"btc8()": "2452",
						"btp()": "2452",
						"getBalance(address)": "3345",
						"getConsumerTariff(uint256)": "infinite",
						"getProsumerTariff(uint256)": "infinite",
						"getnPnCnEV(uint256,uint256,uint256)": "infinite",
						"send(address,uint256)": "infinite"
					}
				},
				"methodIdentifiers": {
					"balCheck()": "7c134b14",
					"balance()": "b69ef8a8",
					"btc1()": "c2c496ec",
					"btc2()": "28780a44",
					"btc3()": "20e731a1",
					"btc4()": "103347e7",
					"btc5()": "0c03a1a3",
					"btc6()": "b4ad7fa9",
					"btc7()": "ed2fa5ab",
					"btc8()": "a8bdb68b",
					"btp()": "2c9af64c",
					"getBalance(address)": "f8b2cb4f",
					"getConsumerTariff(uint256)": "721028ec",
					"getProsumerTariff(uint256)": "5c8f6b56",
					"getnPnCnEV(uint256,uint256,uint256)": "f02e48c3",
					"send(address,uint256)": "d0679d34"
				}
			},
			"storageLayout": {
				"storage": [
					{
						"astId": 3,
						"contract": "eth based/truffle/contracts/FLIR_Contract.sol:FLIRContract",
						"label": "owner",
						"offset": 0,
						"slot": "0",
						"type": "t_address"
					},
					{
						"astId": 7,
						"contract": "eth based/truffle/contracts/FLIR_Contract.sol:FLIRContract",
						"label": "balaces",
						"offset": 0,
						"slot": "1",
						"type": "t_mapping(t_address,t_uint256)"
					},
					{
						"astId": 15,
						"contract": "eth based/truffle/contracts/FLIR_Contract.sol:FLIRContract",
						"label": "balance",
						"offset": 0,
						"slot": "2",
						"type": "t_uint256"
					},
					{
						"astId": 27,
						"contract": "eth based/truffle/contracts/FLIR_Contract.sol:FLIRContract",
						"label": "btp",
						"offset": 0,
						"slot": "3",
						"type": "t_uint256"
					},
					{
						"astId": 30,
						"contract": "eth based/truffle/contracts/FLIR_Contract.sol:FLIRContract",
						"label": "btc1",
						"offset": 0,
						"slot": "4",
						"type": "t_uint256"
					},
					{
						"astId": 33,
						"contract": "eth based/truffle/contracts/FLIR_Contract.sol:FLIRContract",
						"label": "btc2",
						"offset": 0,
						"slot": "5",
						"type": "t_uint256"
					},
					{
						"astId": 36,
						"contract": "eth based/truffle/contracts/FLIR_Contract.sol:FLIRContract",
						"label": "btc3",
						"offset": 0,
						"slot": "6",
						"type": "t_uint256"
					},
					{
						"astId": 39,
						"contract": "eth based/truffle/contracts/FLIR_Contract.sol:FLIRContract",
						"label": "btc4",
						"offset": 0,
						"slot": "7",
						"type": "t_uint256"
					},
					{
						"astId": 42,
						"contract": "eth based/truffle/contracts/FLIR_Contract.sol:FLIRContract",
						"label": "btc5",
						"offset": 0,
						"slot": "8",
						"type": "t_uint256"
					},
					{
						"astId": 45,
						"contract": "eth based/truffle/contracts/FLIR_Contract.sol:FLIRContract",
						"label": "btc6",
						"offset": 0,
						"slot": "9",
						"type": "t_uint256"
					},
					{
						"astId": 48,
						"contract": "eth based/truffle/contracts/FLIR_Contract.sol:FLIRContract",
						"label": "btc7",
						"offset": 0,
						"slot": "10",
						"type": "t_uint256"
					},
					{
						"astId": 51,
						"contract": "eth based/truffle/contracts/FLIR_Contract.sol:FLIRContract",
						"label": "btc8",
						"offset": 0,
						"slot": "11",
						"type": "t_uint256"
					}
				],
				"types": {
					"t_address": {
						"encoding": "inplace",
						"label": "address",
						"numberOfBytes": "20"
					},
					"t_mapping(t_address,t_uint256)": {
						"encoding": "mapping",
						"key": "t_address",
						"label": "mapping(address => uint256)",
						"numberOfBytes": "32",
						"value": "t_uint256"
					},
					"t_uint256": {
						"encoding": "inplace",
						"label": "uint256",
						"numberOfBytes": "32"
					}
				}
			},
			"userdoc": {
				"kind": "user",
				"methods": {},
				"version": 1
			}
		}
	}
}