{
	"eth based/truffle/contracts/FLIR_Contract.sol": {
		"FLIRContract": {
			"abi": [
				{
					"inputs": [],
					"name": "btc1",
					"outputs": [
						{
							"internalType": "uint256",
							"name": "",
							"type": "uint256"
						}
					],
					"stateMutability": "view",
					"type": "function"
				},
				{
					"inputs": [],
					"name": "btc2",
					"outputs": [
						{
							"internalType": "uint256",
							"name": "",
							"type": "uint256"
						}
					],
					"stateMutability": "view",
					"type": "function"
				},
				{
					"inputs": [],
					"name": "btc3",
					"outputs": [
						{
							"internalType": "uint256",
							"name": "",
							"type": "uint256"
						}
					],
					"stateMutability": "view",
					"type": "function"
				},
				{
					"inputs": [],
					"name": "btc4",
					"outputs": [
						{
							"internalType": "uint256",
							"name": "",
							"type": "uint256"
						}
					],
					"stateMutability": "view",
					"type": "function"
				},
				{
					"inputs": [],
					"name": "btc5",
					"outputs": [
						{
							"internalType": "uint256",
							"name": "",
							"type": "uint256"
						}
					],
					"stateMutability": "view",
					"type": "function"
				},
				{
					"inputs": [],
					"name": "btc6",
					"outputs": [
						{
							"internalType": "uint256",
							"name": "",
							"type": "uint256"
						}
					],
					"stateMutability": "view",
					"type": "function"
				},
				{
					"inputs": [],
					"name": "btc7",
					"outputs": [
						{
							"internalType": "uint256",
							"name": "",
							"type": "uint256"
						}
					],
					"stateMutability": "view",
					"type": "function"
				},
				{
					"inputs": [],
					"name": "btc8",
					"outputs": [
						{
							"internalType": "uint256",
							"name": "",
							"type": "uint256"
						}
					],
					"stateMutability": "view",
					"type": "function"
				},
				{
					"inputs": [],
					"name": "btp",
					"outputs": [
						{
							"internalType": "uint256",
							"name": "",
							"type": "uint256"
						}
					],
					"stateMutability": "view",
					"type": "function"
				},
				{
					"inputs": [
						{
							"internalType": "uint256",
							"name": "Cimp",
							"type": "uint256"
						}
					],
					"name": "getConsumerTariff",
					"outputs": [
						{
							"internalType": "uint256",
							"name": "Tc",
							"type": "uint256"
						}
					],
					"stateMutability": "nonpayable",
					"type": "function"
				},
				{
					"inputs": [
						{
							"internalType": "uint256",
							"name": "Pexp",
							"type": "uint256"
						}
					],
					"name": "getProsumerTariff",
					"outputs": [
						{
							"internalType": "uint256",
							"name": "Tp",
							"type": "uint256"
						}
					],
					"stateMutability": "nonpayable",
					"type": "function"
				},
				{
					"inputs": [
						{
							"internalType": "uint256",
							"name": "nPget",
							"type": "uint256"
						},
						{
							"internalType": "uint256",
							"name": "nCget",
							"type": "uint256"
						},
						{
							"internalType": "uint256",
							"name": "nEVget",
							"type": "uint256"
						}
					],
					"name": "getnPnCnEV",
					"outputs": [
						{
							"internalType": "uint256",
							"name": "nP",
							"type": "uint256"
						},
						{
							"internalType": "uint256",
							"name": "nC",
							"type": "uint256"
						},
						{
							"internalType": "uint256",
							"name": "nEV",
							"type": "uint256"
						}
					],
					"stateMutability": "nonpayable",
					"type": "function"
				}
			],
			"devdoc": {
				"kind": "dev",
				"methods": {},
				"version": 1
			},
			"evm": {
				"assembly": "    /* \"eth based/truffle/contracts/FLIR_Contract.sol\":129:3107  contract FLIRContract{... */\n  mstore(0x40, 0x80)\n    /* \"eth based/truffle/contracts/FLIR_Contract.sol\":464:465  3 */\n  0x03\n    /* \"eth based/truffle/contracts/FLIR_Contract.sol\":446:465  uint public btp = 3 */\n  0x02\n  sstore\n    /* \"eth based/truffle/contracts/FLIR_Contract.sol\":491:492  3 */\n  0x03\n    /* \"eth based/truffle/contracts/FLIR_Contract.sol\":472:492  uint public btc1 = 3 */\n  dup1\n  sstore\n    /* \"eth based/truffle/contracts/FLIR_Contract.sol\":517:518  4 */\n  0x04\n    /* \"eth based/truffle/contracts/FLIR_Contract.sol\":498:518  uint public btc2 = 4 */\n  dup1\n  sstore\n    /* \"eth based/truffle/contracts/FLIR_Contract.sol\":543:544  5 */\n  0x05\n    /* \"eth based/truffle/contracts/FLIR_Contract.sol\":524:544  uint public btc3 = 5 */\n  dup1\n  sstore\n    /* \"eth based/truffle/contracts/FLIR_Contract.sol\":569:570  6 */\n  0x06\n    /* \"eth based/truffle/contracts/FLIR_Contract.sol\":550:570  uint public btc4 = 6 */\n  dup1\n  sstore\n    /* \"eth based/truffle/contracts/FLIR_Contract.sol\":595:596  7 */\n  0x07\n    /* \"eth based/truffle/contracts/FLIR_Contract.sol\":576:596  uint public btc5 = 7 */\n  dup1\n  sstore\n    /* \"eth based/truffle/contracts/FLIR_Contract.sol\":621:622  8 */\n  0x08\n    /* \"eth based/truffle/contracts/FLIR_Contract.sol\":602:622  uint public btc6 = 8 */\n  dup1\n  sstore\n    /* \"eth based/truffle/contracts/FLIR_Contract.sol\":647:648  9 */\n  0x09\n    /* \"eth based/truffle/contracts/FLIR_Contract.sol\":628:648  uint public btc7 = 9 */\n  dup1\n  sstore\n    /* \"eth based/truffle/contracts/FLIR_Contract.sol\":673:675  10 */\n  0x0a\n    /* \"eth based/truffle/contracts/FLIR_Contract.sol\":654:675  uint public btc8 = 10 */\n  dup1\n  sstore\n    /* \"eth based/truffle/contracts/FLIR_Contract.sol\":129:3107  contract FLIRContract{... */\n  callvalue\n  dup1\n  iszero\n  tag_1\n  jumpi\n  0x00\n  dup1\n  revert\ntag_1:\n  pop\n  dataSize(sub_0)\n  dup1\n  dataOffset(sub_0)\n  0x00\n  codecopy\n  0x00\n  return\nstop\n\nsub_0: assembly {\n        /* \"eth based/truffle/contracts/FLIR_Contract.sol\":129:3107  contract FLIRContract{... */\n      mstore(0x40, 0x80)\n      callvalue\n      dup1\n      iszero\n      tag_1\n      jumpi\n      0x00\n      dup1\n      revert\n    tag_1:\n      pop\n      jumpi(tag_2, lt(calldatasize, 0x04))\n      shr(0xe0, calldataload(0x00))\n      dup1\n      0x721028ec\n      gt\n      tag_15\n      jumpi\n      dup1\n      0x721028ec\n      eq\n      tag_9\n      jumpi\n      dup1\n      0xa8bdb68b\n      eq\n      tag_10\n      jumpi\n      dup1\n      0xb4ad7fa9\n      eq\n      tag_11\n      jumpi\n      dup1\n      0xc2c496ec\n      eq\n      tag_12\n      jumpi\n      dup1\n      0xed2fa5ab\n      eq\n      tag_13\n      jumpi\n      dup1\n      0xf02e48c3\n      eq\n      tag_14\n      jumpi\n      jump(tag_2)\n    tag_15:\n      dup1\n      0x0c03a1a3\n      eq\n      tag_3\n      jumpi\n      dup1\n      0x103347e7\n      eq\n      tag_4\n      jumpi\n      dup1\n      0x20e731a1\n      eq\n      tag_5\n      jumpi\n      dup1\n      0x28780a44\n      eq\n      tag_6\n      jumpi\n      dup1\n      0x2c9af64c\n      eq\n      tag_7\n      jumpi\n      dup1\n      0x5c8f6b56\n      eq\n      tag_8\n      jumpi\n    tag_2:\n      0x00\n      dup1\n      revert\n        /* \"eth based/truffle/contracts/FLIR_Contract.sol\":576:596  uint public btc5 = 7 */\n    tag_3:\n      tag_16\n      tag_17\n      jump\t// in\n    tag_16:\n      mload(0x40)\n      tag_18\n      swap2\n      swap1\n      tag_19\n      jump\t// in\n    tag_18:\n      mload(0x40)\n      dup1\n      swap2\n      sub\n      swap1\n      return\n        /* \"eth based/truffle/contracts/FLIR_Contract.sol\":550:570  uint public btc4 = 6 */\n    tag_4:\n      tag_20\n      tag_21\n      jump\t// in\n    tag_20:\n      mload(0x40)\n      tag_22\n      swap2\n      swap1\n      tag_19\n      jump\t// in\n    tag_22:\n      mload(0x40)\n      dup1\n      swap2\n      sub\n      swap1\n      return\n        /* \"eth based/truffle/contracts/FLIR_Contract.sol\":524:544  uint public btc3 = 5 */\n    tag_5:\n      tag_23\n      tag_24\n      jump\t// in\n    tag_23:\n      mload(0x40)\n      tag_25\n      swap2\n      swap1\n      tag_19\n      jump\t// in\n    tag_25:\n      mload(0x40)\n      dup1\n      swap2\n      sub\n      swap1\n      return\n        /* \"eth based/truffle/contracts/FLIR_Contract.sol\":498:518  uint public btc2 = 4 */\n    tag_6:\n      tag_26\n      tag_27\n      jump\t// in\n    tag_26:\n      mload(0x40)\n      tag_28\n      swap2\n      swap1\n      tag_19\n      jump\t// in\n    tag_28:\n      mload(0x40)\n      dup1\n      swap2\n      sub\n      swap1\n      return\n        /* \"eth based/truffle/contracts/FLIR_Contract.sol\":446:465  uint public btp = 3 */\n    tag_7:\n      tag_29\n      tag_30\n      jump\t// in\n    tag_29:\n      mload(0x40)\n      tag_31\n      swap2\n      swap1\n      tag_19\n      jump\t// in\n    tag_31:\n      mload(0x40)\n      dup1\n      swap2\n      sub\n      swap1\n      return\n        /* \"eth based/truffle/contracts/FLIR_Contract.sol\":1017:1132  function getProsumerTariff(uint Pexp) public returns (uint Tp){... */\n    tag_8:\n      tag_32\n      0x04\n      dup1\n      calldatasize\n      sub\n      dup2\n      add\n      swap1\n      tag_33\n      swap2\n      swap1\n      tag_34\n      jump\t// in\n    tag_33:\n      tag_35\n      jump\t// in\n    tag_32:\n      mload(0x40)\n      tag_36\n      swap2\n      swap1\n      tag_19\n      jump\t// in\n    tag_36:\n      mload(0x40)\n      dup1\n      swap2\n      sub\n      swap1\n      return\n        /* \"eth based/truffle/contracts/FLIR_Contract.sol\":1138:2182  function getConsumerTariff(uint Cimp) public returns (uint Tc){... */\n    tag_9:\n      tag_37\n      0x04\n      dup1\n      calldatasize\n      sub\n      dup2\n      add\n      swap1\n      tag_38\n      swap2\n      swap1\n      tag_34\n      jump\t// in\n    tag_38:\n      tag_39\n      jump\t// in\n    tag_37:\n      mload(0x40)\n      tag_40\n      swap2\n      swap1\n      tag_19\n      jump\t// in\n    tag_40:\n      mload(0x40)\n      dup1\n      swap2\n      sub\n      swap1\n      return\n        /* \"eth based/truffle/contracts/FLIR_Contract.sol\":654:675  uint public btc8 = 10 */\n    tag_10:\n      tag_41\n      tag_42\n      jump\t// in\n    tag_41:\n      mload(0x40)\n      tag_43\n      swap2\n      swap1\n      tag_19\n      jump\t// in\n    tag_43:\n      mload(0x40)\n      dup1\n      swap2\n      sub\n      swap1\n      return\n        /* \"eth based/truffle/contracts/FLIR_Contract.sol\":602:622  uint public btc6 = 8 */\n    tag_11:\n      tag_44\n      tag_45\n      jump\t// in\n    tag_44:\n      mload(0x40)\n      tag_46\n      swap2\n      swap1\n      tag_19\n      jump\t// in\n    tag_46:\n      mload(0x40)\n      dup1\n      swap2\n      sub\n      swap1\n      return\n        /* \"eth based/truffle/contracts/FLIR_Contract.sol\":472:492  uint public btc1 = 3 */\n    tag_12:\n      tag_47\n      tag_48\n      jump\t// in\n    tag_47:\n      mload(0x40)\n      tag_49\n      swap2\n      swap1\n      tag_19\n      jump\t// in\n    tag_49:\n      mload(0x40)\n      dup1\n      swap2\n      sub\n      swap1\n      return\n        /* \"eth based/truffle/contracts/FLIR_Contract.sol\":628:648  uint public btc7 = 9 */\n    tag_13:\n      tag_50\n      tag_51\n      jump\t// in\n    tag_50:\n      mload(0x40)\n      tag_52\n      swap2\n      swap1\n      tag_19\n      jump\t// in\n    tag_52:\n      mload(0x40)\n      dup1\n      swap2\n      sub\n      swap1\n      return\n        /* \"eth based/truffle/contracts/FLIR_Contract.sol\":688:1011  function getnPnCnEV(uint nPget, uint nCget,uint nEVget) public... */\n    tag_14:\n      tag_53\n      0x04\n      dup1\n      calldatasize\n      sub\n      dup2\n      add\n      swap1\n      tag_54\n      swap2\n      swap1\n      tag_55\n      jump\t// in\n    tag_54:\n      tag_56\n      jump\t// in\n    tag_53:\n      mload(0x40)\n      tag_57\n      swap4\n      swap3\n      swap2\n      swap1\n      tag_58\n      jump\t// in\n    tag_57:\n      mload(0x40)\n      dup1\n      swap2\n      sub\n      swap1\n      return\n        /* \"eth based/truffle/contracts/FLIR_Contract.sol\":576:596  uint public btc5 = 7 */\n    tag_17:\n      sload(0x07)\n      dup2\n      jump\t// out\n        /* \"eth based/truffle/contracts/FLIR_Contract.sol\":550:570  uint public btc4 = 6 */\n    tag_21:\n      sload(0x06)\n      dup2\n      jump\t// out\n        /* \"eth based/truffle/contracts/FLIR_Contract.sol\":524:544  uint public btc3 = 5 */\n    tag_24:\n      sload(0x05)\n      dup2\n      jump\t// out\n        /* \"eth based/truffle/contracts/FLIR_Contract.sol\":498:518  uint public btc2 = 4 */\n    tag_27:\n      sload(0x04)\n      dup2\n      jump\t// out\n        /* \"eth based/truffle/contracts/FLIR_Contract.sol\":446:465  uint public btp = 3 */\n    tag_30:\n      sload(0x02)\n      dup2\n      jump\t// out\n        /* \"eth based/truffle/contracts/FLIR_Contract.sol\":1017:1132  function getProsumerTariff(uint Pexp) public returns (uint Tp){... */\n    tag_35:\n        /* \"eth based/truffle/contracts/FLIR_Contract.sol\":1071:1078  uint Tp */\n      0x00\n        /* \"eth based/truffle/contracts/FLIR_Contract.sol\":1101:1104  btp */\n      sload(0x02)\n        /* \"eth based/truffle/contracts/FLIR_Contract.sol\":1094:1098  Pexp */\n      dup3\n        /* \"eth based/truffle/contracts/FLIR_Contract.sol\":1094:1104  Pexp * btp */\n      tag_60\n      swap2\n      swap1\n      tag_61\n      jump\t// in\n    tag_60:\n        /* \"eth based/truffle/contracts/FLIR_Contract.sol\":1089:1104  Tp = Pexp * btp */\n      swap1\n      pop\n        /* \"eth based/truffle/contracts/FLIR_Contract.sol\":1017:1132  function getProsumerTariff(uint Pexp) public returns (uint Tp){... */\n      swap2\n      swap1\n      pop\n      jump\t// out\n        /* \"eth based/truffle/contracts/FLIR_Contract.sol\":1138:2182  function getConsumerTariff(uint Cimp) public returns (uint Tc){... */\n    tag_39:\n        /* \"eth based/truffle/contracts/FLIR_Contract.sol\":1192:1199  uint Tc */\n      0x00\n        /* \"eth based/truffle/contracts/FLIR_Contract.sol\":1229:1232  251 */\n      0xfb\n        /* \"eth based/truffle/contracts/FLIR_Contract.sol\":1222:1226  Cimp */\n      dup3\n        /* \"eth based/truffle/contracts/FLIR_Contract.sol\":1222:1232  Cimp < 251 */\n      lt\n        /* \"eth based/truffle/contracts/FLIR_Contract.sol\":1219:2101  if(Cimp < 251){... */\n      iszero\n      tag_63\n      jumpi\n        /* \"eth based/truffle/contracts/FLIR_Contract.sol\":1257:1259  51 */\n      0x33\n        /* \"eth based/truffle/contracts/FLIR_Contract.sol\":1250:1254  Cimp */\n      dup3\n        /* \"eth based/truffle/contracts/FLIR_Contract.sol\":1250:1259  Cimp < 51 */\n      lt\n        /* \"eth based/truffle/contracts/FLIR_Contract.sol\":1247:1856  if(Cimp < 51){... */\n      iszero\n      tag_64\n      jumpi\n        /* \"eth based/truffle/contracts/FLIR_Contract.sol\":1290:1294  btc1 */\n      sload(0x03)\n        /* \"eth based/truffle/contracts/FLIR_Contract.sol\":1283:1287  Cimp */\n      dup3\n        /* \"eth based/truffle/contracts/FLIR_Contract.sol\":1283:1294  Cimp * btc1 */\n      tag_65\n      swap2\n      swap1\n      tag_61\n      jump\t// in\n    tag_65:\n        /* \"eth based/truffle/contracts/FLIR_Contract.sol\":1278:1294  Tc = Cimp * btc1 */\n      swap1\n      pop\n        /* \"eth based/truffle/contracts/FLIR_Contract.sol\":1247:1856  if(Cimp < 51){... */\n      jump(tag_66)\n    tag_64:\n        /* \"eth based/truffle/contracts/FLIR_Contract.sol\":1337:1339  50 */\n      0x32\n        /* \"eth based/truffle/contracts/FLIR_Contract.sol\":1330:1334  Cimp */\n      dup3\n        /* \"eth based/truffle/contracts/FLIR_Contract.sol\":1330:1339  Cimp > 50 */\n      gt\n        /* \"eth based/truffle/contracts/FLIR_Contract.sol\":1330:1353  Cimp > 50 && Cimp < 101 */\n      dup1\n      iszero\n      tag_67\n      jumpi\n      pop\n        /* \"eth based/truffle/contracts/FLIR_Contract.sol\":1350:1353  101 */\n      0x65\n        /* \"eth based/truffle/contracts/FLIR_Contract.sol\":1343:1347  Cimp */\n      dup3\n        /* \"eth based/truffle/contracts/FLIR_Contract.sol\":1343:1353  Cimp < 101 */\n      lt\n        /* \"eth based/truffle/contracts/FLIR_Contract.sol\":1330:1353  Cimp > 50 && Cimp < 101 */\n    tag_67:\n        /* \"eth based/truffle/contracts/FLIR_Contract.sol\":1327:1856  if(Cimp > 50 && Cimp < 101){... */\n      iszero\n      tag_68\n      jumpi\n        /* \"eth based/truffle/contracts/FLIR_Contract.sol\":1404:1408  btc2 */\n      sload(0x04)\n        /* \"eth based/truffle/contracts/FLIR_Contract.sol\":1398:1400  50 */\n      0x32\n        /* \"eth based/truffle/contracts/FLIR_Contract.sol\":1393:1397  Cimp */\n      dup4\n        /* \"eth based/truffle/contracts/FLIR_Contract.sol\":1393:1400  Cimp-50 */\n      tag_69\n      swap2\n      swap1\n      tag_70\n      jump\t// in\n    tag_69:\n        /* \"eth based/truffle/contracts/FLIR_Contract.sol\":1392:1408  (Cimp-50) * btc2 */\n      tag_71\n      swap2\n      swap1\n      tag_61\n      jump\t// in\n    tag_71:\n        /* \"eth based/truffle/contracts/FLIR_Contract.sol\":1383:1387  btc1 */\n      sload(0x03)\n        /* \"eth based/truffle/contracts/FLIR_Contract.sol\":1378:1380  50 */\n      0x32\n        /* \"eth based/truffle/contracts/FLIR_Contract.sol\":1378:1387  50 * btc1 */\n      tag_72\n      swap2\n      swap1\n      tag_61\n      jump\t// in\n    tag_72:\n        /* \"eth based/truffle/contracts/FLIR_Contract.sol\":1377:1409  (50 * btc1) + ((Cimp-50) * btc2) */\n      tag_73\n      swap2\n      swap1\n      tag_74\n      jump\t// in\n    tag_73:\n        /* \"eth based/truffle/contracts/FLIR_Contract.sol\":1372:1409  Tc = (50 * btc1) + ((Cimp-50) * btc2) */\n      swap1\n      pop\n        /* \"eth based/truffle/contracts/FLIR_Contract.sol\":1327:1856  if(Cimp > 50 && Cimp < 101){... */\n      jump(tag_75)\n    tag_68:\n        /* \"eth based/truffle/contracts/FLIR_Contract.sol\":1452:1455  100 */\n      0x64\n        /* \"eth based/truffle/contracts/FLIR_Contract.sol\":1445:1449  Cimp */\n      dup3\n        /* \"eth based/truffle/contracts/FLIR_Contract.sol\":1445:1455  Cimp > 100 */\n      gt\n        /* \"eth based/truffle/contracts/FLIR_Contract.sol\":1445:1469  Cimp > 100 && Cimp < 151 */\n      dup1\n      iszero\n      tag_76\n      jumpi\n      pop\n        /* \"eth based/truffle/contracts/FLIR_Contract.sol\":1466:1469  151 */\n      0x97\n        /* \"eth based/truffle/contracts/FLIR_Contract.sol\":1459:1463  Cimp */\n      dup3\n        /* \"eth based/truffle/contracts/FLIR_Contract.sol\":1459:1469  Cimp < 151 */\n      lt\n        /* \"eth based/truffle/contracts/FLIR_Contract.sol\":1445:1469  Cimp > 100 && Cimp < 151 */\n    tag_76:\n        /* \"eth based/truffle/contracts/FLIR_Contract.sol\":1442:1856  if(Cimp > 100 && Cimp < 151){... */\n      iszero\n      tag_77\n      jumpi\n        /* \"eth based/truffle/contracts/FLIR_Contract.sol\":1534:1538  btc3 */\n      sload(0x05)\n        /* \"eth based/truffle/contracts/FLIR_Contract.sol\":1528:1530  50 */\n      0x32\n        /* \"eth based/truffle/contracts/FLIR_Contract.sol\":1523:1527  Cimp */\n      dup4\n        /* \"eth based/truffle/contracts/FLIR_Contract.sol\":1523:1530  Cimp-50 */\n      tag_78\n      swap2\n      swap1\n      tag_70\n      jump\t// in\n    tag_78:\n        /* \"eth based/truffle/contracts/FLIR_Contract.sol\":1522:1538  (Cimp-50) * btc3 */\n      tag_79\n      swap2\n      swap1\n      tag_61\n      jump\t// in\n    tag_79:\n        /* \"eth based/truffle/contracts/FLIR_Contract.sol\":1513:1517  btc2 */\n      sload(0x04)\n        /* \"eth based/truffle/contracts/FLIR_Contract.sol\":1508:1510  50 */\n      0x32\n        /* \"eth based/truffle/contracts/FLIR_Contract.sol\":1508:1517  50 * btc2 */\n      tag_80\n      swap2\n      swap1\n      tag_61\n      jump\t// in\n    tag_80:\n        /* \"eth based/truffle/contracts/FLIR_Contract.sol\":1499:1503  btc1 */\n      sload(0x03)\n        /* \"eth based/truffle/contracts/FLIR_Contract.sol\":1494:1496  50 */\n      0x32\n        /* \"eth based/truffle/contracts/FLIR_Contract.sol\":1494:1503  50 * btc1 */\n      tag_81\n      swap2\n      swap1\n      tag_61\n      jump\t// in\n    tag_81:\n        /* \"eth based/truffle/contracts/FLIR_Contract.sol\":1493:1518  (50 * btc1) + (50 * btc2) */\n      tag_82\n      swap2\n      swap1\n      tag_74\n      jump\t// in\n    tag_82:\n        /* \"eth based/truffle/contracts/FLIR_Contract.sol\":1493:1539  (50 * btc1) + (50 * btc2) + ((Cimp-50) * btc3) */\n      tag_83\n      swap2\n      swap1\n      tag_74\n      jump\t// in\n    tag_83:\n        /* \"eth based/truffle/contracts/FLIR_Contract.sol\":1488:1539  Tc = (50 * btc1) + (50 * btc2) + ((Cimp-50) * btc3) */\n      swap1\n      pop\n        /* \"eth based/truffle/contracts/FLIR_Contract.sol\":1442:1856  if(Cimp > 100 && Cimp < 151){... */\n      jump(tag_84)\n    tag_77:\n        /* \"eth based/truffle/contracts/FLIR_Contract.sol\":1582:1585  150 */\n      0x96\n        /* \"eth based/truffle/contracts/FLIR_Contract.sol\":1575:1579  Cimp */\n      dup3\n        /* \"eth based/truffle/contracts/FLIR_Contract.sol\":1575:1585  Cimp > 150 */\n      gt\n        /* \"eth based/truffle/contracts/FLIR_Contract.sol\":1575:1599  Cimp > 150 && Cimp < 201 */\n      dup1\n      iszero\n      tag_85\n      jumpi\n      pop\n        /* \"eth based/truffle/contracts/FLIR_Contract.sol\":1596:1599  201 */\n      0xc9\n        /* \"eth based/truffle/contracts/FLIR_Contract.sol\":1589:1593  Cimp */\n      dup3\n        /* \"eth based/truffle/contracts/FLIR_Contract.sol\":1589:1599  Cimp < 201 */\n      lt\n        /* \"eth based/truffle/contracts/FLIR_Contract.sol\":1575:1599  Cimp > 150 && Cimp < 201 */\n    tag_85:\n        /* \"eth based/truffle/contracts/FLIR_Contract.sol\":1572:1856  if(Cimp > 150 && Cimp < 201){... */\n      iszero\n      tag_86\n      jumpi\n        /* \"eth based/truffle/contracts/FLIR_Contract.sol\":1678:1682  btc4 */\n      sload(0x06)\n        /* \"eth based/truffle/contracts/FLIR_Contract.sol\":1672:1674  50 */\n      0x32\n        /* \"eth based/truffle/contracts/FLIR_Contract.sol\":1667:1671  Cimp */\n      dup4\n        /* \"eth based/truffle/contracts/FLIR_Contract.sol\":1667:1674  Cimp-50 */\n      tag_87\n      swap2\n      swap1\n      tag_70\n      jump\t// in\n    tag_87:\n        /* \"eth based/truffle/contracts/FLIR_Contract.sol\":1666:1682  (Cimp-50) * btc4 */\n      tag_88\n      swap2\n      swap1\n      tag_61\n      jump\t// in\n    tag_88:\n        /* \"eth based/truffle/contracts/FLIR_Contract.sol\":1657:1661  btc3 */\n      sload(0x05)\n        /* \"eth based/truffle/contracts/FLIR_Contract.sol\":1652:1654  50 */\n      0x32\n        /* \"eth based/truffle/contracts/FLIR_Contract.sol\":1652:1661  50 * btc3 */\n      tag_89\n      swap2\n      swap1\n      tag_61\n      jump\t// in\n    tag_89:\n        /* \"eth based/truffle/contracts/FLIR_Contract.sol\":1643:1647  btc2 */\n      sload(0x04)\n        /* \"eth based/truffle/contracts/FLIR_Contract.sol\":1638:1640  50 */\n      0x32\n        /* \"eth based/truffle/contracts/FLIR_Contract.sol\":1638:1647  50 * btc2 */\n      tag_90\n      swap2\n      swap1\n      tag_61\n      jump\t// in\n    tag_90:\n        /* \"eth based/truffle/contracts/FLIR_Contract.sol\":1629:1633  btc1 */\n      sload(0x03)\n        /* \"eth based/truffle/contracts/FLIR_Contract.sol\":1624:1626  50 */\n      0x32\n        /* \"eth based/truffle/contracts/FLIR_Contract.sol\":1624:1633  50 * btc1 */\n      tag_91\n      swap2\n      swap1\n      tag_61\n      jump\t// in\n    tag_91:\n        /* \"eth based/truffle/contracts/FLIR_Contract.sol\":1623:1648  (50 * btc1) + (50 * btc2) */\n      tag_92\n      swap2\n      swap1\n      tag_74\n      jump\t// in\n    tag_92:\n        /* \"eth based/truffle/contracts/FLIR_Contract.sol\":1623:1662  (50 * btc1) + (50 * btc2) + (50 * btc3) */\n      tag_93\n      swap2\n      swap1\n      tag_74\n      jump\t// in\n    tag_93:\n        /* \"eth based/truffle/contracts/FLIR_Contract.sol\":1623:1683  (50 * btc1) + (50 * btc2) + (50 * btc3) + ((Cimp-50) * btc4) */\n      tag_94\n      swap2\n      swap1\n      tag_74\n      jump\t// in\n    tag_94:\n        /* \"eth based/truffle/contracts/FLIR_Contract.sol\":1618:1683  Tc = (50 * btc1) + (50 * btc2) + (50 * btc3) + ((Cimp-50) * btc4) */\n      swap1\n      pop\n        /* \"eth based/truffle/contracts/FLIR_Contract.sol\":1572:1856  if(Cimp > 150 && Cimp < 201){... */\n      jump(tag_95)\n    tag_86:\n        /* \"eth based/truffle/contracts/FLIR_Contract.sol\":1726:1729  200 */\n      0xc8\n        /* \"eth based/truffle/contracts/FLIR_Contract.sol\":1719:1723  Cimp */\n      dup3\n        /* \"eth based/truffle/contracts/FLIR_Contract.sol\":1719:1729  Cimp > 200 */\n      gt\n        /* \"eth based/truffle/contracts/FLIR_Contract.sol\":1719:1743  Cimp > 200 && Cimp < 251 */\n      dup1\n      iszero\n      tag_96\n      jumpi\n      pop\n        /* \"eth based/truffle/contracts/FLIR_Contract.sol\":1740:1743  251 */\n      0xfb\n        /* \"eth based/truffle/contracts/FLIR_Contract.sol\":1733:1737  Cimp */\n      dup3\n        /* \"eth based/truffle/contracts/FLIR_Contract.sol\":1733:1743  Cimp < 251 */\n      lt\n        /* \"eth based/truffle/contracts/FLIR_Contract.sol\":1719:1743  Cimp > 200 && Cimp < 251 */\n    tag_96:\n        /* \"eth based/truffle/contracts/FLIR_Contract.sol\":1716:1856  if(Cimp > 200 && Cimp < 251){... */\n      iszero\n      tag_97\n      jumpi\n        /* \"eth based/truffle/contracts/FLIR_Contract.sol\":1836:1840  btc5 */\n      sload(0x07)\n        /* \"eth based/truffle/contracts/FLIR_Contract.sol\":1830:1832  50 */\n      0x32\n        /* \"eth based/truffle/contracts/FLIR_Contract.sol\":1825:1829  Cimp */\n      dup4\n        /* \"eth based/truffle/contracts/FLIR_Contract.sol\":1825:1832  Cimp-50 */\n      tag_98\n      swap2\n      swap1\n      tag_70\n      jump\t// in\n    tag_98:\n        /* \"eth based/truffle/contracts/FLIR_Contract.sol\":1824:1840  (Cimp-50) * btc5 */\n      tag_99\n      swap2\n      swap1\n      tag_61\n      jump\t// in\n    tag_99:\n        /* \"eth based/truffle/contracts/FLIR_Contract.sol\":1815:1819  btc4 */\n      sload(0x06)\n        /* \"eth based/truffle/contracts/FLIR_Contract.sol\":1810:1812  50 */\n      0x32\n        /* \"eth based/truffle/contracts/FLIR_Contract.sol\":1810:1819  50 * btc4 */\n      tag_100\n      swap2\n      swap1\n      tag_61\n      jump\t// in\n    tag_100:\n        /* \"eth based/truffle/contracts/FLIR_Contract.sol\":1801:1805  btc3 */\n      sload(0x05)\n        /* \"eth based/truffle/contracts/FLIR_Contract.sol\":1796:1798  50 */\n      0x32\n        /* \"eth based/truffle/contracts/FLIR_Contract.sol\":1796:1805  50 * btc3 */\n      tag_101\n      swap2\n      swap1\n      tag_61\n      jump\t// in\n    tag_101:\n        /* \"eth based/truffle/contracts/FLIR_Contract.sol\":1787:1791  btc2 */\n      sload(0x04)\n        /* \"eth based/truffle/contracts/FLIR_Contract.sol\":1782:1784  50 */\n      0x32\n        /* \"eth based/truffle/contracts/FLIR_Contract.sol\":1782:1791  50 * btc2 */\n      tag_102\n      swap2\n      swap1\n      tag_61\n      jump\t// in\n    tag_102:\n        /* \"eth based/truffle/contracts/FLIR_Contract.sol\":1773:1777  btc1 */\n      sload(0x03)\n        /* \"eth based/truffle/contracts/FLIR_Contract.sol\":1768:1770  50 */\n      0x32\n        /* \"eth based/truffle/contracts/FLIR_Contract.sol\":1768:1777  50 * btc1 */\n      tag_103\n      swap2\n      swap1\n      tag_61\n      jump\t// in\n    tag_103:\n        /* \"eth based/truffle/contracts/FLIR_Contract.sol\":1767:1792  (50 * btc1) + (50 * btc2) */\n      tag_104\n      swap2\n      swap1\n      tag_74\n      jump\t// in\n    tag_104:\n        /* \"eth based/truffle/contracts/FLIR_Contract.sol\":1767:1806  (50 * btc1) + (50 * btc2) + (50 * btc3) */\n      tag_105\n      swap2\n      swap1\n      tag_74\n      jump\t// in\n    tag_105:\n        /* \"eth based/truffle/contracts/FLIR_Contract.sol\":1767:1820  (50 * btc1) + (50 * btc2) + (50 * btc3) + (50 * btc4) */\n      tag_106\n      swap2\n      swap1\n      tag_74\n      jump\t// in\n    tag_106:\n        /* \"eth based/truffle/contracts/FLIR_Contract.sol\":1767:1841  (50 * btc1) + (50 * btc2) + (50 * btc3) + (50 * btc4) + ((Cimp-50) * btc5) */\n      tag_107\n      swap2\n      swap1\n      tag_74\n      jump\t// in\n    tag_107:\n        /* \"eth based/truffle/contracts/FLIR_Contract.sol\":1762:1841  Tc = (50 * btc1) + (50 * btc2) + (50 * btc3) + (50 * btc4) + ((Cimp-50) * btc5) */\n      swap1\n      pop\n        /* \"eth based/truffle/contracts/FLIR_Contract.sol\":1716:1856  if(Cimp > 200 && Cimp < 251){... */\n    tag_97:\n        /* \"eth based/truffle/contracts/FLIR_Contract.sol\":1572:1856  if(Cimp > 150 && Cimp < 201){... */\n    tag_95:\n        /* \"eth based/truffle/contracts/FLIR_Contract.sol\":1442:1856  if(Cimp > 100 && Cimp < 151){... */\n    tag_84:\n        /* \"eth based/truffle/contracts/FLIR_Contract.sol\":1327:1856  if(Cimp > 50 && Cimp < 101){... */\n    tag_75:\n        /* \"eth based/truffle/contracts/FLIR_Contract.sol\":1247:1856  if(Cimp < 51){... */\n    tag_66:\n        /* \"eth based/truffle/contracts/FLIR_Contract.sol\":1219:2101  if(Cimp < 251){... */\n      jump(tag_108)\n    tag_63:\n        /* \"eth based/truffle/contracts/FLIR_Contract.sol\":1890:1893  250 */\n      0xfa\n        /* \"eth based/truffle/contracts/FLIR_Contract.sol\":1883:1887  Cimp */\n      dup3\n        /* \"eth based/truffle/contracts/FLIR_Contract.sol\":1883:1893  Cimp > 250 */\n      gt\n        /* \"eth based/truffle/contracts/FLIR_Contract.sol\":1883:1907  Cimp > 250 && Cimp < 351 */\n      dup1\n      iszero\n      tag_109\n      jumpi\n      pop\n        /* \"eth based/truffle/contracts/FLIR_Contract.sol\":1904:1907  351 */\n      0x015f\n        /* \"eth based/truffle/contracts/FLIR_Contract.sol\":1897:1901  Cimp */\n      dup3\n        /* \"eth based/truffle/contracts/FLIR_Contract.sol\":1897:1907  Cimp < 351 */\n      lt\n        /* \"eth based/truffle/contracts/FLIR_Contract.sol\":1883:1907  Cimp > 250 && Cimp < 351 */\n    tag_109:\n        /* \"eth based/truffle/contracts/FLIR_Contract.sol\":1880:2101  if(Cimp > 250 && Cimp < 351){... */\n      iszero\n      tag_110\n      jumpi\n        /* \"eth based/truffle/contracts/FLIR_Contract.sol\":1934:1938  btc6 */\n      sload(0x08)\n        /* \"eth based/truffle/contracts/FLIR_Contract.sol\":1927:1931  Cimp */\n      dup3\n        /* \"eth based/truffle/contracts/FLIR_Contract.sol\":1927:1938  Cimp * btc6 */\n      tag_111\n      swap2\n      swap1\n      tag_61\n      jump\t// in\n    tag_111:\n        /* \"eth based/truffle/contracts/FLIR_Contract.sol\":1922:1938  Tc = Cimp * btc6 */\n      swap1\n      pop\n        /* \"eth based/truffle/contracts/FLIR_Contract.sol\":1880:2101  if(Cimp > 250 && Cimp < 351){... */\n      jump(tag_112)\n    tag_110:\n        /* \"eth based/truffle/contracts/FLIR_Contract.sol\":1973:1976  350 */\n      0x015e\n        /* \"eth based/truffle/contracts/FLIR_Contract.sol\":1966:1970  Cimp */\n      dup3\n        /* \"eth based/truffle/contracts/FLIR_Contract.sol\":1966:1976  Cimp > 350 */\n      gt\n        /* \"eth based/truffle/contracts/FLIR_Contract.sol\":1966:1990  Cimp > 350 && Cimp < 451 */\n      dup1\n      iszero\n      tag_113\n      jumpi\n      pop\n        /* \"eth based/truffle/contracts/FLIR_Contract.sol\":1987:1990  451 */\n      0x01c3\n        /* \"eth based/truffle/contracts/FLIR_Contract.sol\":1980:1984  Cimp */\n      dup3\n        /* \"eth based/truffle/contracts/FLIR_Contract.sol\":1980:1990  Cimp < 451 */\n      lt\n        /* \"eth based/truffle/contracts/FLIR_Contract.sol\":1966:1990  Cimp > 350 && Cimp < 451 */\n    tag_113:\n        /* \"eth based/truffle/contracts/FLIR_Contract.sol\":1963:2101  if(Cimp > 350 && Cimp < 451){... */\n      iszero\n      tag_114\n      jumpi\n        /* \"eth based/truffle/contracts/FLIR_Contract.sol\":2017:2021  btc7 */\n      sload(0x09)\n        /* \"eth based/truffle/contracts/FLIR_Contract.sol\":2010:2014  Cimp */\n      dup3\n        /* \"eth based/truffle/contracts/FLIR_Contract.sol\":2010:2021  Cimp * btc7 */\n      tag_115\n      swap2\n      swap1\n      tag_61\n      jump\t// in\n    tag_115:\n        /* \"eth based/truffle/contracts/FLIR_Contract.sol\":2005:2021  Tc = Cimp * btc7 */\n      swap1\n      pop\n        /* \"eth based/truffle/contracts/FLIR_Contract.sol\":1963:2101  if(Cimp > 350 && Cimp < 451){... */\n      jump(tag_116)\n    tag_114:\n        /* \"eth based/truffle/contracts/FLIR_Contract.sol\":2056:2059  450 */\n      0x01c2\n        /* \"eth based/truffle/contracts/FLIR_Contract.sol\":2049:2053  Cimp */\n      dup3\n        /* \"eth based/truffle/contracts/FLIR_Contract.sol\":2049:2059  Cimp > 450 */\n      gt\n        /* \"eth based/truffle/contracts/FLIR_Contract.sol\":2046:2101  if(Cimp > 450){... */\n      iszero\n      tag_117\n      jumpi\n        /* \"eth based/truffle/contracts/FLIR_Contract.sol\":2086:2090  btc8 */\n      sload(0x0a)\n        /* \"eth based/truffle/contracts/FLIR_Contract.sol\":2079:2083  Cimp */\n      dup3\n        /* \"eth based/truffle/contracts/FLIR_Contract.sol\":2079:2090  Cimp * btc8 */\n      tag_118\n      swap2\n      swap1\n      tag_61\n      jump\t// in\n    tag_118:\n        /* \"eth based/truffle/contracts/FLIR_Contract.sol\":2074:2090  Tc = Cimp * btc8 */\n      swap1\n      pop\n        /* \"eth based/truffle/contracts/FLIR_Contract.sol\":2046:2101  if(Cimp > 450){... */\n    tag_117:\n        /* \"eth based/truffle/contracts/FLIR_Contract.sol\":1963:2101  if(Cimp > 350 && Cimp < 451){... */\n    tag_116:\n        /* \"eth based/truffle/contracts/FLIR_Contract.sol\":1880:2101  if(Cimp > 250 && Cimp < 351){... */\n    tag_112:\n        /* \"eth based/truffle/contracts/FLIR_Contract.sol\":1219:2101  if(Cimp < 251){... */\n    tag_108:\n        /* \"eth based/truffle/contracts/FLIR_Contract.sol\":1138:2182  function getConsumerTariff(uint Cimp) public returns (uint Tc){... */\n      swap2\n      swap1\n      pop\n      jump\t// out\n        /* \"eth based/truffle/contracts/FLIR_Contract.sol\":654:675  uint public btc8 = 10 */\n    tag_42:\n      sload(0x0a)\n      dup2\n      jump\t// out\n        /* \"eth based/truffle/contracts/FLIR_Contract.sol\":602:622  uint public btc6 = 8 */\n    tag_45:\n      sload(0x08)\n      dup2\n      jump\t// out\n        /* \"eth based/truffle/contracts/FLIR_Contract.sol\":472:492  uint public btc1 = 3 */\n    tag_48:\n      sload(0x03)\n      dup2\n      jump\t// out\n        /* \"eth based/truffle/contracts/FLIR_Contract.sol\":628:648  uint public btc7 = 9 */\n    tag_51:\n      sload(0x09)\n      dup2\n      jump\t// out\n        /* \"eth based/truffle/contracts/FLIR_Contract.sol\":688:1011  function getnPnCnEV(uint nPget, uint nCget,uint nEVget) public... */\n    tag_56:\n        /* \"eth based/truffle/contracts/FLIR_Contract.sol\":764:771  uint nP */\n      0x00\n        /* \"eth based/truffle/contracts/FLIR_Contract.sol\":772:779  uint nC */\n      dup1\n        /* \"eth based/truffle/contracts/FLIR_Contract.sol\":780:788  uint nEV */\n      0x00\n        /* \"eth based/truffle/contracts/FLIR_Contract.sol\":813:818  nPget */\n      dup6\n        /* \"eth based/truffle/contracts/FLIR_Contract.sol\":808:818  nP = nPget */\n      swap3\n      pop\n        /* \"eth based/truffle/contracts/FLIR_Contract.sol\":833:838  nCget */\n      dup5\n        /* \"eth based/truffle/contracts/FLIR_Contract.sol\":828:838  nC = nCget */\n      swap2\n      pop\n        /* \"eth based/truffle/contracts/FLIR_Contract.sol\":854:860  nEVget */\n      dup4\n        /* \"eth based/truffle/contracts/FLIR_Contract.sol\":848:860  nEV = nEVget */\n      swap1\n      pop\n        /* \"eth based/truffle/contracts/FLIR_Contract.sol\":688:1011  function getnPnCnEV(uint nPget, uint nCget,uint nEVget) public... */\n      swap4\n      pop\n      swap4\n      pop\n      swap4\n      swap1\n      pop\n      jump\t// out\n        /* \"#utility.yul\":7:146   */\n    tag_121:\n        /* \"#utility.yul\":53:58   */\n      0x00\n        /* \"#utility.yul\":91:97   */\n      dup2\n        /* \"#utility.yul\":78:98   */\n      calldataload\n        /* \"#utility.yul\":69:98   */\n      swap1\n      pop\n        /* \"#utility.yul\":107:140   */\n      tag_123\n        /* \"#utility.yul\":134:139   */\n      dup2\n        /* \"#utility.yul\":107:140   */\n      tag_124\n      jump\t// in\n    tag_123:\n        /* \"#utility.yul\":7:146   */\n      swap3\n      swap2\n      pop\n      pop\n      jump\t// out\n        /* \"#utility.yul\":152:481   */\n    tag_34:\n        /* \"#utility.yul\":211:217   */\n      0x00\n        /* \"#utility.yul\":260:262   */\n      0x20\n        /* \"#utility.yul\":248:257   */\n      dup3\n        /* \"#utility.yul\":239:246   */\n      dup5\n        /* \"#utility.yul\":235:258   */\n      sub\n        /* \"#utility.yul\":231:263   */\n      slt\n        /* \"#utility.yul\":228:347   */\n      iszero\n      tag_126\n      jumpi\n        /* \"#utility.yul\":266:345   */\n      tag_127\n      tag_128\n      jump\t// in\n    tag_127:\n        /* \"#utility.yul\":228:347   */\n    tag_126:\n        /* \"#utility.yul\":386:387   */\n      0x00\n        /* \"#utility.yul\":411:464   */\n      tag_129\n        /* \"#utility.yul\":456:463   */\n      dup5\n        /* \"#utility.yul\":447:453   */\n      dup3\n        /* \"#utility.yul\":436:445   */\n      dup6\n        /* \"#utility.yul\":432:454   */\n      add\n        /* \"#utility.yul\":411:464   */\n      tag_121\n      jump\t// in\n    tag_129:\n        /* \"#utility.yul\":401:464   */\n      swap2\n      pop\n        /* \"#utility.yul\":357:474   */\n      pop\n        /* \"#utility.yul\":152:481   */\n      swap3\n      swap2\n      pop\n      pop\n      jump\t// out\n        /* \"#utility.yul\":487:1106   */\n    tag_55:\n        /* \"#utility.yul\":564:570   */\n      0x00\n        /* \"#utility.yul\":572:578   */\n      dup1\n        /* \"#utility.yul\":580:586   */\n      0x00\n        /* \"#utility.yul\":629:631   */\n      0x60\n        /* \"#utility.yul\":617:626   */\n      dup5\n        /* \"#utility.yul\":608:615   */\n      dup7\n        /* \"#utility.yul\":604:627   */\n      sub\n        /* \"#utility.yul\":600:632   */\n      slt\n        /* \"#utility.yul\":597:716   */\n      iszero\n      tag_131\n      jumpi\n        /* \"#utility.yul\":635:714   */\n      tag_132\n      tag_128\n      jump\t// in\n    tag_132:\n        /* \"#utility.yul\":597:716   */\n    tag_131:\n        /* \"#utility.yul\":755:756   */\n      0x00\n        /* \"#utility.yul\":780:833   */\n      tag_133\n        /* \"#utility.yul\":825:832   */\n      dup7\n        /* \"#utility.yul\":816:822   */\n      dup3\n        /* \"#utility.yul\":805:814   */\n      dup8\n        /* \"#utility.yul\":801:823   */\n      add\n        /* \"#utility.yul\":780:833   */\n      tag_121\n      jump\t// in\n    tag_133:\n        /* \"#utility.yul\":770:833   */\n      swap4\n      pop\n        /* \"#utility.yul\":726:843   */\n      pop\n        /* \"#utility.yul\":882:884   */\n      0x20\n        /* \"#utility.yul\":908:961   */\n      tag_134\n        /* \"#utility.yul\":953:960   */\n      dup7\n        /* \"#utility.yul\":944:950   */\n      dup3\n        /* \"#utility.yul\":933:942   */\n      dup8\n        /* \"#utility.yul\":929:951   */\n      add\n        /* \"#utility.yul\":908:961   */\n      tag_121\n      jump\t// in\n    tag_134:\n        /* \"#utility.yul\":898:961   */\n      swap3\n      pop\n        /* \"#utility.yul\":853:971   */\n      pop\n        /* \"#utility.yul\":1010:1012   */\n      0x40\n        /* \"#utility.yul\":1036:1089   */\n      tag_135\n        /* \"#utility.yul\":1081:1088   */\n      dup7\n        /* \"#utility.yul\":1072:1078   */\n      dup3\n        /* \"#utility.yul\":1061:1070   */\n      dup8\n        /* \"#utility.yul\":1057:1079   */\n      add\n        /* \"#utility.yul\":1036:1089   */\n      tag_121\n      jump\t// in\n    tag_135:\n        /* \"#utility.yul\":1026:1089   */\n      swap2\n      pop\n        /* \"#utility.yul\":981:1099   */\n      pop\n        /* \"#utility.yul\":487:1106   */\n      swap3\n      pop\n      swap3\n      pop\n      swap3\n      jump\t// out\n        /* \"#utility.yul\":1112:1230   */\n    tag_136:\n        /* \"#utility.yul\":1199:1223   */\n      tag_138\n        /* \"#utility.yul\":1217:1222   */\n      dup2\n        /* \"#utility.yul\":1199:1223   */\n      tag_139\n      jump\t// in\n    tag_138:\n        /* \"#utility.yul\":1194:1197   */\n      dup3\n        /* \"#utility.yul\":1187:1224   */\n      mstore\n        /* \"#utility.yul\":1112:1230   */\n      pop\n      pop\n      jump\t// out\n        /* \"#utility.yul\":1236:1458   */\n    tag_19:\n        /* \"#utility.yul\":1329:1333   */\n      0x00\n        /* \"#utility.yul\":1367:1369   */\n      0x20\n        /* \"#utility.yul\":1356:1365   */\n      dup3\n        /* \"#utility.yul\":1352:1370   */\n      add\n        /* \"#utility.yul\":1344:1370   */\n      swap1\n      pop\n        /* \"#utility.yul\":1380:1451   */\n      tag_141\n        /* \"#utility.yul\":1448:1449   */\n      0x00\n        /* \"#utility.yul\":1437:1446   */\n      dup4\n        /* \"#utility.yul\":1433:1450   */\n      add\n        /* \"#utility.yul\":1424:1430   */\n      dup5\n        /* \"#utility.yul\":1380:1451   */\n      tag_136\n      jump\t// in\n    tag_141:\n        /* \"#utility.yul\":1236:1458   */\n      swap3\n      swap2\n      pop\n      pop\n      jump\t// out\n        /* \"#utility.yul\":1464:1906   */\n    tag_58:\n        /* \"#utility.yul\":1613:1617   */\n      0x00\n        /* \"#utility.yul\":1651:1653   */\n      0x60\n        /* \"#utility.yul\":1640:1649   */\n      dup3\n        /* \"#utility.yul\":1636:1654   */\n      add\n        /* \"#utility.yul\":1628:1654   */\n      swap1\n      pop\n        /* \"#utility.yul\":1664:1735   */\n      tag_143\n        /* \"#utility.yul\":1732:1733   */\n      0x00\n        /* \"#utility.yul\":1721:1730   */\n      dup4\n        /* \"#utility.yul\":1717:1734   */\n      add\n        /* \"#utility.yul\":1708:1714   */\n      dup7\n        /* \"#utility.yul\":1664:1735   */\n      tag_136\n      jump\t// in\n    tag_143:\n        /* \"#utility.yul\":1745:1817   */\n      tag_144\n        /* \"#utility.yul\":1813:1815   */\n      0x20\n        /* \"#utility.yul\":1802:1811   */\n      dup4\n        /* \"#utility.yul\":1798:1816   */\n      add\n        /* \"#utility.yul\":1789:1795   */\n      dup6\n        /* \"#utility.yul\":1745:1817   */\n      tag_136\n      jump\t// in\n    tag_144:\n        /* \"#utility.yul\":1827:1899   */\n      tag_145\n        /* \"#utility.yul\":1895:1897   */\n      0x40\n        /* \"#utility.yul\":1884:1893   */\n      dup4\n        /* \"#utility.yul\":1880:1898   */\n      add\n        /* \"#utility.yul\":1871:1877   */\n      dup5\n        /* \"#utility.yul\":1827:1899   */\n      tag_136\n      jump\t// in\n    tag_145:\n        /* \"#utility.yul\":1464:1906   */\n      swap5\n      swap4\n      pop\n      pop\n      pop\n      pop\n      jump\t// out\n        /* \"#utility.yul\":1993:2298   */\n    tag_74:\n        /* \"#utility.yul\":2033:2036   */\n      0x00\n        /* \"#utility.yul\":2052:2072   */\n      tag_149\n        /* \"#utility.yul\":2070:2071   */\n      dup3\n        /* \"#utility.yul\":2052:2072   */\n      tag_139\n      jump\t// in\n    tag_149:\n        /* \"#utility.yul\":2047:2072   */\n      swap2\n      pop\n        /* \"#utility.yul\":2086:2106   */\n      tag_150\n        /* \"#utility.yul\":2104:2105   */\n      dup4\n        /* \"#utility.yul\":2086:2106   */\n      tag_139\n      jump\t// in\n    tag_150:\n        /* \"#utility.yul\":2081:2106   */\n      swap3\n      pop\n        /* \"#utility.yul\":2240:2241   */\n      dup3\n        /* \"#utility.yul\":2172:2238   */\n      0xffffffffffffffffffffffffffffffffffffffffffffffffffffffffffffffff\n        /* \"#utility.yul\":2168:2242   */\n      sub\n        /* \"#utility.yul\":2165:2166   */\n      dup3\n        /* \"#utility.yul\":2162:2243   */\n      gt\n        /* \"#utility.yul\":2159:2266   */\n      iszero\n      tag_151\n      jumpi\n        /* \"#utility.yul\":2246:2264   */\n      tag_152\n      tag_153\n      jump\t// in\n    tag_152:\n        /* \"#utility.yul\":2159:2266   */\n    tag_151:\n        /* \"#utility.yul\":2290:2291   */\n      dup3\n        /* \"#utility.yul\":2287:2288   */\n      dup3\n        /* \"#utility.yul\":2283:2292   */\n      add\n        /* \"#utility.yul\":2276:2292   */\n      swap1\n      pop\n        /* \"#utility.yul\":1993:2298   */\n      swap3\n      swap2\n      pop\n      pop\n      jump\t// out\n        /* \"#utility.yul\":2304:2652   */\n    tag_61:\n        /* \"#utility.yul\":2344:2351   */\n      0x00\n        /* \"#utility.yul\":2367:2387   */\n      tag_155\n        /* \"#utility.yul\":2385:2386   */\n      dup3\n        /* \"#utility.yul\":2367:2387   */\n      tag_139\n      jump\t// in\n    tag_155:\n        /* \"#utility.yul\":2362:2387   */\n      swap2\n      pop\n        /* \"#utility.yul\":2401:2421   */\n      tag_156\n        /* \"#utility.yul\":2419:2420   */\n      dup4\n        /* \"#utility.yul\":2401:2421   */\n      tag_139\n      jump\t// in\n    tag_156:\n        /* \"#utility.yul\":2396:2421   */\n      swap3\n      pop\n        /* \"#utility.yul\":2589:2590   */\n      dup2\n        /* \"#utility.yul\":2521:2587   */\n      0xffffffffffffffffffffffffffffffffffffffffffffffffffffffffffffffff\n        /* \"#utility.yul\":2517:2591   */\n      div\n        /* \"#utility.yul\":2514:2515   */\n      dup4\n        /* \"#utility.yul\":2511:2592   */\n      gt\n        /* \"#utility.yul\":2506:2507   */\n      dup3\n        /* \"#utility.yul\":2499:2508   */\n      iszero\n        /* \"#utility.yul\":2492:2509   */\n      iszero\n        /* \"#utility.yul\":2488:2593   */\n      and\n        /* \"#utility.yul\":2485:2616   */\n      iszero\n      tag_157\n      jumpi\n        /* \"#utility.yul\":2596:2614   */\n      tag_158\n      tag_153\n      jump\t// in\n    tag_158:\n        /* \"#utility.yul\":2485:2616   */\n    tag_157:\n        /* \"#utility.yul\":2644:2645   */\n      dup3\n        /* \"#utility.yul\":2641:2642   */\n      dup3\n        /* \"#utility.yul\":2637:2646   */\n      mul\n        /* \"#utility.yul\":2626:2646   */\n      swap1\n      pop\n        /* \"#utility.yul\":2304:2652   */\n      swap3\n      swap2\n      pop\n      pop\n      jump\t// out\n        /* \"#utility.yul\":2658:2849   */\n    tag_70:\n        /* \"#utility.yul\":2698:2702   */\n      0x00\n        /* \"#utility.yul\":2718:2738   */\n      tag_160\n        /* \"#utility.yul\":2736:2737   */\n      dup3\n        /* \"#utility.yul\":2718:2738   */\n      tag_139\n      jump\t// in\n    tag_160:\n        /* \"#utility.yul\":2713:2738   */\n      swap2\n      pop\n        /* \"#utility.yul\":2752:2772   */\n      tag_161\n        /* \"#utility.yul\":2770:2771   */\n      dup4\n        /* \"#utility.yul\":2752:2772   */\n      tag_139\n      jump\t// in\n    tag_161:\n        /* \"#utility.yul\":2747:2772   */\n      swap3\n      pop\n        /* \"#utility.yul\":2791:2792   */\n      dup3\n        /* \"#utility.yul\":2788:2789   */\n      dup3\n        /* \"#utility.yul\":2785:2793   */\n      lt\n        /* \"#utility.yul\":2782:2816   */\n      iszero\n      tag_162\n      jumpi\n        /* \"#utility.yul\":2796:2814   */\n      tag_163\n      tag_153\n      jump\t// in\n    tag_163:\n        /* \"#utility.yul\":2782:2816   */\n    tag_162:\n        /* \"#utility.yul\":2841:2842   */\n      dup3\n        /* \"#utility.yul\":2838:2839   */\n      dup3\n        /* \"#utility.yul\":2834:2843   */\n      sub\n        /* \"#utility.yul\":2826:2843   */\n      swap1\n      pop\n        /* \"#utility.yul\":2658:2849   */\n      swap3\n      swap2\n      pop\n      pop\n      jump\t// out\n        /* \"#utility.yul\":2855:2932   */\n    tag_139:\n        /* \"#utility.yul\":2892:2899   */\n      0x00\n        /* \"#utility.yul\":2921:2926   */\n      dup2\n        /* \"#utility.yul\":2910:2926   */\n      swap1\n      pop\n        /* \"#utility.yul\":2855:2932   */\n      swap2\n      swap1\n      pop\n      jump\t// out\n        /* \"#utility.yul\":2938:3118   */\n    tag_153:\n        /* \"#utility.yul\":2986:3063   */\n      0x4e487b7100000000000000000000000000000000000000000000000000000000\n        /* \"#utility.yul\":2983:2984   */\n      0x00\n        /* \"#utility.yul\":2976:3064   */\n      mstore\n        /* \"#utility.yul\":3083:3087   */\n      0x11\n        /* \"#utility.yul\":3080:3081   */\n      0x04\n        /* \"#utility.yul\":3073:3088   */\n      mstore\n        /* \"#utility.yul\":3107:3111   */\n      0x24\n        /* \"#utility.yul\":3104:3105   */\n      0x00\n        /* \"#utility.yul\":3097:3112   */\n      revert\n        /* \"#utility.yul\":3247:3364   */\n    tag_128:\n        /* \"#utility.yul\":3356:3357   */\n      0x00\n        /* \"#utility.yul\":3353:3354   */\n      dup1\n        /* \"#utility.yul\":3346:3358   */\n      revert\n        /* \"#utility.yul\":3370:3492   */\n    tag_124:\n        /* \"#utility.yul\":3443:3467   */\n      tag_170\n        /* \"#utility.yul\":3461:3466   */\n      dup2\n        /* \"#utility.yul\":3443:3467   */\n      tag_139\n      jump\t// in\n    tag_170:\n        /* \"#utility.yul\":3436:3441   */\n      dup2\n        /* \"#utility.yul\":3433:3468   */\n      eq\n        /* \"#utility.yul\":3423:3486   */\n      tag_171\n      jumpi\n        /* \"#utility.yul\":3482:3483   */\n      0x00\n        /* \"#utility.yul\":3479:3480   */\n      dup1\n        /* \"#utility.yul\":3472:3484   */\n      revert\n        /* \"#utility.yul\":3423:3486   */\n    tag_171:\n        /* \"#utility.yul\":3370:3492   */\n      pop\n      jump\t// out\n\n    auxdata: 0xa2646970667358221220b9eeff3e4e89bbc051d0ddbb359315a68a46d178d530e94000c407aa5c8e454c64736f6c63430008070033\n}\n",
				"bytecode": {
					"linkReferences": {},
					"object": "6080604052600360025560038055600480556005805560068055600780556008805560098055600a805534801561003557600080fd5b5061079c806100456000396000f3fe608060405234801561001057600080fd5b50600436106100b45760003560e01c8063721028ec11610071578063721028ec1461017f578063a8bdb68b146101af578063b4ad7fa9146101cd578063c2c496ec146101eb578063ed2fa5ab14610209578063f02e48c314610227576100b4565b80630c03a1a3146100b9578063103347e7146100d757806320e731a1146100f557806328780a44146101135780632c9af64c146101315780635c8f6b561461014f575b600080fd5b6100c1610259565b6040516100ce91906105db565b60405180910390f35b6100df61025f565b6040516100ec91906105db565b60405180910390f35b6100fd610265565b60405161010a91906105db565b60405180910390f35b61011b61026b565b60405161012891906105db565b60405180910390f35b610139610271565b60405161014691906105db565b60405180910390f35b6101696004803603810190610164919061054c565b610277565b60405161017691906105db565b60405180910390f35b6101996004803603810190610194919061054c565b61028e565b6040516101a691906105db565b60405180910390f35b6101b7610508565b6040516101c491906105db565b60405180910390f35b6101d561050e565b6040516101e291906105db565b60405180910390f35b6101f3610514565b60405161020091906105db565b60405180910390f35b61021161051a565b60405161021e91906105db565b60405180910390f35b610241600480360381019061023c9190610579565b610520565b604051610250939291906105f6565b60405180910390f35b60075481565b60065481565b60055481565b60045481565b60025481565b6000600254826102879190610683565b9050919050565b600060fb82101561048e5760338210156102b757600354826102b09190610683565b9050610489565b6032821180156102c75750606582105b15610306576004546032836102dc91906106dd565b6102e69190610683565b60035460326102f59190610683565b6102ff919061062d565b9050610488565b6064821180156103165750609782105b1561036e5760055460328361032b91906106dd565b6103359190610683565b60045460326103449190610683565b60035460326103539190610683565b61035d919061062d565b610367919061062d565b9050610487565b60968211801561037e575060c982105b156103ef5760065460328361039391906106dd565b61039d9190610683565b60055460326103ac9190610683565b60045460326103bb9190610683565b60035460326103ca9190610683565b6103d4919061062d565b6103de919061062d565b6103e8919061062d565b9050610486565b60c8821180156103ff575060fb82105b156104855760075460328361041491906106dd565b61041e9190610683565b600654603261042d9190610683565b600554603261043c9190610683565b600454603261044b9190610683565b600354603261045a9190610683565b610464919061062d565b61046e919061062d565b610478919061062d565b610482919061062d565b90505b5b5b5b5b610503565b60fa8211801561049f575061015f82105b156104b957600854826104b29190610683565b9050610502565b61015e821180156104cb57506101c382105b156104e557600954826104de9190610683565b9050610501565b6101c282111561050057600a54826104fd9190610683565b90505b5b5b5b919050565b600a5481565b60085481565b60035481565b60095481565b600080600085925084915083905093509350939050565b6000813590506105468161074f565b92915050565b6000602082840312156105625761056161074a565b5b600061057084828501610537565b91505092915050565b6000806000606084860312156105925761059161074a565b5b60006105a086828701610537565b93505060206105b186828701610537565b92505060406105c286828701610537565b9150509250925092565b6105d581610711565b82525050565b60006020820190506105f060008301846105cc565b92915050565b600060608201905061060b60008301866105cc565b61061860208301856105cc565b61062560408301846105cc565b949350505050565b600061063882610711565b915061064383610711565b9250827fffffffffffffffffffffffffffffffffffffffffffffffffffffffffffffffff038211156106785761067761071b565b5b828201905092915050565b600061068e82610711565b915061069983610711565b9250817fffffffffffffffffffffffffffffffffffffffffffffffffffffffffffffffff04831182151516156106d2576106d161071b565b5b828202905092915050565b60006106e882610711565b91506106f383610711565b9250828210156107065761070561071b565b5b828203905092915050565b6000819050919050565b7f4e487b7100000000000000000000000000000000000000000000000000000000600052601160045260246000fd5b600080fd5b61075881610711565b811461076357600080fd5b5056fea2646970667358221220b9eeff3e4e89bbc051d0ddbb359315a68a46d178d530e94000c407aa5c8e454c64736f6c63430008070033",
					"opcodes": "PUSH1 0x80 PUSH1 0x40 MSTORE PUSH1 0x3 PUSH1 0x2 SSTORE PUSH1 0x3 DUP1 SSTORE PUSH1 0x4 DUP1 SSTORE PUSH1 0x5 DUP1 SSTORE PUSH1 0x6 DUP1 SSTORE PUSH1 0x7 DUP1 SSTORE PUSH1 0x8 DUP1 SSTORE PUSH1 0x9 DUP1 SSTORE PUSH1 0xA DUP1 SSTORE CALLVALUE DUP1 ISZERO PUSH2 0x35 JUMPI PUSH1 0x0 DUP1 REVERT JUMPDEST POP PUSH2 0x79C DUP1 PUSH2 0x45 PUSH1 0x0 CODECOPY PUSH1 0x0 RETURN INVALID PUSH1 0x80 PUSH1 0x40 MSTORE CALLVALUE DUP1 ISZERO PUSH2 0x10 JUMPI PUSH1 0x0 DUP1 REVERT JUMPDEST POP PUSH1 0x4 CALLDATASIZE LT PUSH2 0xB4 JUMPI PUSH1 0x0 CALLDATALOAD PUSH1 0xE0 SHR DUP1 PUSH4 0x721028EC GT PUSH2 0x71 JUMPI DUP1 PUSH4 0x721028EC EQ PUSH2 0x17F JUMPI DUP1 PUSH4 0xA8BDB68B EQ PUSH2 0x1AF JUMPI DUP1 PUSH4 0xB4AD7FA9 EQ PUSH2 0x1CD JUMPI DUP1 PUSH4 0xC2C496EC EQ PUSH2 0x1EB JUMPI DUP1 PUSH4 0xED2FA5AB EQ PUSH2 0x209 JUMPI DUP1 PUSH4 0xF02E48C3 EQ PUSH2 0x227 JUMPI PUSH2 0xB4 JUMP JUMPDEST DUP1 PUSH4 0xC03A1A3 EQ PUSH2 0xB9 JUMPI DUP1 PUSH4 0x103347E7 EQ PUSH2 0xD7 JUMPI DUP1 PUSH4 0x20E731A1 EQ PUSH2 0xF5 JUMPI DUP1 PUSH4 0x28780A44 EQ PUSH2 0x113 JUMPI DUP1 PUSH4 0x2C9AF64C EQ PUSH2 0x131 JUMPI DUP1 PUSH4 0x5C8F6B56 EQ PUSH2 0x14F JUMPI JUMPDEST PUSH1 0x0 DUP1 REVERT JUMPDEST PUSH2 0xC1 PUSH2 0x259 JUMP JUMPDEST PUSH1 0x40 MLOAD PUSH2 0xCE SWAP2 SWAP1 PUSH2 0x5DB JUMP JUMPDEST PUSH1 0x40 MLOAD DUP1 SWAP2 SUB SWAP1 RETURN JUMPDEST PUSH2 0xDF PUSH2 0x25F JUMP JUMPDEST PUSH1 0x40 MLOAD PUSH2 0xEC SWAP2 SWAP1 PUSH2 0x5DB JUMP JUMPDEST PUSH1 0x40 MLOAD DUP1 SWAP2 SUB SWAP1 RETURN JUMPDEST PUSH2 0xFD PUSH2 0x265 JUMP JUMPDEST PUSH1 0x40 MLOAD PUSH2 0x10A SWAP2 SWAP1 PUSH2 0x5DB JUMP JUMPDEST PUSH1 0x40 MLOAD DUP1 SWAP2 SUB SWAP1 RETURN JUMPDEST PUSH2 0x11B PUSH2 0x26B JUMP JUMPDEST PUSH1 0x40 MLOAD PUSH2 0x128 SWAP2 SWAP1 PUSH2 0x5DB JUMP JUMPDEST PUSH1 0x40 MLOAD DUP1 SWAP2 SUB SWAP1 RETURN JUMPDEST PUSH2 0x139 PUSH2 0x271 JUMP JUMPDEST PUSH1 0x40 MLOAD PUSH2 0x146 SWAP2 SWAP1 PUSH2 0x5DB JUMP JUMPDEST PUSH1 0x40 MLOAD DUP1 SWAP2 SUB SWAP1 RETURN JUMPDEST PUSH2 0x169 PUSH1 0x4 DUP1 CALLDATASIZE SUB DUP2 ADD SWAP1 PUSH2 0x164 SWAP2 SWAP1 PUSH2 0x54C JUMP JUMPDEST PUSH2 0x277 JUMP JUMPDEST PUSH1 0x40 MLOAD PUSH2 0x176 SWAP2 SWAP1 PUSH2 0x5DB JUMP JUMPDEST PUSH1 0x40 MLOAD DUP1 SWAP2 SUB SWAP1 RETURN JUMPDEST PUSH2 0x199 PUSH1 0x4 DUP1 CALLDATASIZE SUB DUP2 ADD SWAP1 PUSH2 0x194 SWAP2 SWAP1 PUSH2 0x54C JUMP JUMPDEST PUSH2 0x28E JUMP JUMPDEST PUSH1 0x40 MLOAD PUSH2 0x1A6 SWAP2 SWAP1 PUSH2 0x5DB JUMP JUMPDEST PUSH1 0x40 MLOAD DUP1 SWAP2 SUB SWAP1 RETURN JUMPDEST PUSH2 0x1B7 PUSH2 0x508 JUMP JUMPDEST PUSH1 0x40 MLOAD PUSH2 0x1C4 SWAP2 SWAP1 PUSH2 0x5DB JUMP JUMPDEST PUSH1 0x40 MLOAD DUP1 SWAP2 SUB SWAP1 RETURN JUMPDEST PUSH2 0x1D5 PUSH2 0x50E JUMP JUMPDEST PUSH1 0x40 MLOAD PUSH2 0x1E2 SWAP2 SWAP1 PUSH2 0x5DB JUMP JUMPDEST PUSH1 0x40 MLOAD DUP1 SWAP2 SUB SWAP1 RETURN JUMPDEST PUSH2 0x1F3 PUSH2 0x514 JUMP JUMPDEST PUSH1 0x40 MLOAD PUSH2 0x200 SWAP2 SWAP1 PUSH2 0x5DB JUMP JUMPDEST PUSH1 0x40 MLOAD DUP1 SWAP2 SUB SWAP1 RETURN JUMPDEST PUSH2 0x211 PUSH2 0x51A JUMP JUMPDEST PUSH1 0x40 MLOAD PUSH2 0x21E SWAP2 SWAP1 PUSH2 0x5DB JUMP JUMPDEST PUSH1 0x40 MLOAD DUP1 SWAP2 SUB SWAP1 RETURN JUMPDEST PUSH2 0x241 PUSH1 0x4 DUP1 CALLDATASIZE SUB DUP2 ADD SWAP1 PUSH2 0x23C SWAP2 SWAP1 PUSH2 0x579 JUMP JUMPDEST PUSH2 0x520 JUMP JUMPDEST PUSH1 0x40 MLOAD PUSH2 0x250 SWAP4 SWAP3 SWAP2 SWAP1 PUSH2 0x5F6 JUMP JUMPDEST PUSH1 0x40 MLOAD DUP1 SWAP2 SUB SWAP1 RETURN JUMPDEST PUSH1 0x7 SLOAD DUP2 JUMP JUMPDEST PUSH1 0x6 SLOAD DUP2 JUMP JUMPDEST PUSH1 0x5 SLOAD DUP2 JUMP JUMPDEST PUSH1 0x4 SLOAD DUP2 JUMP JUMPDEST PUSH1 0x2 SLOAD DUP2 JUMP JUMPDEST PUSH1 0x0 PUSH1 0x2 SLOAD DUP3 PUSH2 0x287 SWAP2 SWAP1 PUSH2 0x683 JUMP JUMPDEST SWAP1 POP SWAP2 SWAP1 POP JUMP JUMPDEST PUSH1 0x0 PUSH1 0xFB DUP3 LT ISZERO PUSH2 0x48E JUMPI PUSH1 0x33 DUP3 LT ISZERO PUSH2 0x2B7 JUMPI PUSH1 0x3 SLOAD DUP3 PUSH2 0x2B0 SWAP2 SWAP1 PUSH2 0x683 JUMP JUMPDEST SWAP1 POP PUSH2 0x489 JUMP JUMPDEST PUSH1 0x32 DUP3 GT DUP1 ISZERO PUSH2 0x2C7 JUMPI POP PUSH1 0x65 DUP3 LT JUMPDEST ISZERO PUSH2 0x306 JUMPI PUSH1 0x4 SLOAD PUSH1 0x32 DUP4 PUSH2 0x2DC SWAP2 SWAP1 PUSH2 0x6DD JUMP JUMPDEST PUSH2 0x2E6 SWAP2 SWAP1 PUSH2 0x683 JUMP JUMPDEST PUSH1 0x3 SLOAD PUSH1 0x32 PUSH2 0x2F5 SWAP2 SWAP1 PUSH2 0x683 JUMP JUMPDEST PUSH2 0x2FF SWAP2 SWAP1 PUSH2 0x62D JUMP JUMPDEST SWAP1 POP PUSH2 0x488 JUMP JUMPDEST PUSH1 0x64 DUP3 GT DUP1 ISZERO PUSH2 0x316 JUMPI POP PUSH1 0x97 DUP3 LT JUMPDEST ISZERO PUSH2 0x36E JUMPI PUSH1 0x5 SLOAD PUSH1 0x32 DUP4 PUSH2 0x32B SWAP2 SWAP1 PUSH2 0x6DD JUMP JUMPDEST PUSH2 0x335 SWAP2 SWAP1 PUSH2 0x683 JUMP JUMPDEST PUSH1 0x4 SLOAD PUSH1 0x32 PUSH2 0x344 SWAP2 SWAP1 PUSH2 0x683 JUMP JUMPDEST PUSH1 0x3 SLOAD PUSH1 0x32 PUSH2 0x353 SWAP2 SWAP1 PUSH2 0x683 JUMP JUMPDEST PUSH2 0x35D SWAP2 SWAP1 PUSH2 0x62D JUMP JUMPDEST PUSH2 0x367 SWAP2 SWAP1 PUSH2 0x62D JUMP JUMPDEST SWAP1 POP PUSH2 0x487 JUMP JUMPDEST PUSH1 0x96 DUP3 GT DUP1 ISZERO PUSH2 0x37E JUMPI POP PUSH1 0xC9 DUP3 LT JUMPDEST ISZERO PUSH2 0x3EF JUMPI PUSH1 0x6 SLOAD PUSH1 0x32 DUP4 PUSH2 0x393 SWAP2 SWAP1 PUSH2 0x6DD JUMP JUMPDEST PUSH2 0x39D SWAP2 SWAP1 PUSH2 0x683 JUMP JUMPDEST PUSH1 0x5 SLOAD PUSH1 0x32 PUSH2 0x3AC SWAP2 SWAP1 PUSH2 0x683 JUMP JUMPDEST PUSH1 0x4 SLOAD PUSH1 0x32 PUSH2 0x3BB SWAP2 SWAP1 PUSH2 0x683 JUMP JUMPDEST PUSH1 0x3 SLOAD PUSH1 0x32 PUSH2 0x3CA SWAP2 SWAP1 PUSH2 0x683 JUMP JUMPDEST PUSH2 0x3D4 SWAP2 SWAP1 PUSH2 0x62D JUMP JUMPDEST PUSH2 0x3DE SWAP2 SWAP1 PUSH2 0x62D JUMP JUMPDEST PUSH2 0x3E8 SWAP2 SWAP1 PUSH2 0x62D JUMP JUMPDEST SWAP1 POP PUSH2 0x486 JUMP JUMPDEST PUSH1 0xC8 DUP3 GT DUP1 ISZERO PUSH2 0x3FF JUMPI POP PUSH1 0xFB DUP3 LT JUMPDEST ISZERO PUSH2 0x485 JUMPI PUSH1 0x7 SLOAD PUSH1 0x32 DUP4 PUSH2 0x414 SWAP2 SWAP1 PUSH2 0x6DD JUMP JUMPDEST PUSH2 0x41E SWAP2 SWAP1 PUSH2 0x683 JUMP JUMPDEST PUSH1 0x6 SLOAD PUSH1 0x32 PUSH2 0x42D SWAP2 SWAP1 PUSH2 0x683 JUMP JUMPDEST PUSH1 0x5 SLOAD PUSH1 0x32 PUSH2 0x43C SWAP2 SWAP1 PUSH2 0x683 JUMP JUMPDEST PUSH1 0x4 SLOAD PUSH1 0x32 PUSH2 0x44B SWAP2 SWAP1 PUSH2 0x683 JUMP JUMPDEST PUSH1 0x3 SLOAD PUSH1 0x32 PUSH2 0x45A SWAP2 SWAP1 PUSH2 0x683 JUMP JUMPDEST PUSH2 0x464 SWAP2 SWAP1 PUSH2 0x62D JUMP JUMPDEST PUSH2 0x46E SWAP2 SWAP1 PUSH2 0x62D JUMP JUMPDEST PUSH2 0x478 SWAP2 SWAP1 PUSH2 0x62D JUMP JUMPDEST PUSH2 0x482 SWAP2 SWAP1 PUSH2 0x62D JUMP JUMPDEST SWAP1 POP JUMPDEST JUMPDEST JUMPDEST JUMPDEST JUMPDEST PUSH2 0x503 JUMP JUMPDEST PUSH1 0xFA DUP3 GT DUP1 ISZERO PUSH2 0x49F JUMPI POP PUSH2 0x15F DUP3 LT JUMPDEST ISZERO PUSH2 0x4B9 JUMPI PUSH1 0x8 SLOAD DUP3 PUSH2 0x4B2 SWAP2 SWAP1 PUSH2 0x683 JUMP JUMPDEST SWAP1 POP PUSH2 0x502 JUMP JUMPDEST PUSH2 0x15E DUP3 GT DUP1 ISZERO PUSH2 0x4CB JUMPI POP PUSH2 0x1C3 DUP3 LT JUMPDEST ISZERO PUSH2 0x4E5 JUMPI PUSH1 0x9 SLOAD DUP3 PUSH2 0x4DE SWAP2 SWAP1 PUSH2 0x683 JUMP JUMPDEST SWAP1 POP PUSH2 0x501 JUMP JUMPDEST PUSH2 0x1C2 DUP3 GT ISZERO PUSH2 0x500 JUMPI PUSH1 0xA SLOAD DUP3 PUSH2 0x4FD SWAP2 SWAP1 PUSH2 0x683 JUMP JUMPDEST SWAP1 POP JUMPDEST JUMPDEST JUMPDEST JUMPDEST SWAP2 SWAP1 POP JUMP JUMPDEST PUSH1 0xA SLOAD DUP2 JUMP JUMPDEST PUSH1 0x8 SLOAD DUP2 JUMP JUMPDEST PUSH1 0x3 SLOAD DUP2 JUMP JUMPDEST PUSH1 0x9 SLOAD DUP2 JUMP JUMPDEST PUSH1 0x0 DUP1 PUSH1 0x0 DUP6 SWAP3 POP DUP5 SWAP2 POP DUP4 SWAP1 POP SWAP4 POP SWAP4 POP SWAP4 SWAP1 POP JUMP JUMPDEST PUSH1 0x0 DUP2 CALLDATALOAD SWAP1 POP PUSH2 0x546 DUP2 PUSH2 0x74F JUMP JUMPDEST SWAP3 SWAP2 POP POP JUMP JUMPDEST PUSH1 0x0 PUSH1 0x20 DUP3 DUP5 SUB SLT ISZERO PUSH2 0x562 JUMPI PUSH2 0x561 PUSH2 0x74A JUMP JUMPDEST JUMPDEST PUSH1 0x0 PUSH2 0x570 DUP5 DUP3 DUP6 ADD PUSH2 0x537 JUMP JUMPDEST SWAP2 POP POP SWAP3 SWAP2 POP POP JUMP JUMPDEST PUSH1 0x0 DUP1 PUSH1 0x0 PUSH1 0x60 DUP5 DUP7 SUB SLT ISZERO PUSH2 0x592 JUMPI PUSH2 0x591 PUSH2 0x74A JUMP JUMPDEST JUMPDEST PUSH1 0x0 PUSH2 0x5A0 DUP7 DUP3 DUP8 ADD PUSH2 0x537 JUMP JUMPDEST SWAP4 POP POP PUSH1 0x20 PUSH2 0x5B1 DUP7 DUP3 DUP8 ADD PUSH2 0x537 JUMP JUMPDEST SWAP3 POP POP PUSH1 0x40 PUSH2 0x5C2 DUP7 DUP3 DUP8 ADD PUSH2 0x537 JUMP JUMPDEST SWAP2 POP POP SWAP3 POP SWAP3 POP SWAP3 JUMP JUMPDEST PUSH2 0x5D5 DUP2 PUSH2 0x711 JUMP JUMPDEST DUP3 MSTORE POP POP JUMP JUMPDEST PUSH1 0x0 PUSH1 0x20 DUP3 ADD SWAP1 POP PUSH2 0x5F0 PUSH1 0x0 DUP4 ADD DUP5 PUSH2 0x5CC JUMP JUMPDEST SWAP3 SWAP2 POP POP JUMP JUMPDEST PUSH1 0x0 PUSH1 0x60 DUP3 ADD SWAP1 POP PUSH2 0x60B PUSH1 0x0 DUP4 ADD DUP7 PUSH2 0x5CC JUMP JUMPDEST PUSH2 0x618 PUSH1 0x20 DUP4 ADD DUP6 PUSH2 0x5CC JUMP JUMPDEST PUSH2 0x625 PUSH1 0x40 DUP4 ADD DUP5 PUSH2 0x5CC JUMP JUMPDEST SWAP5 SWAP4 POP POP POP POP JUMP JUMPDEST PUSH1 0x0 PUSH2 0x638 DUP3 PUSH2 0x711 JUMP JUMPDEST SWAP2 POP PUSH2 0x643 DUP4 PUSH2 0x711 JUMP JUMPDEST SWAP3 POP DUP3 PUSH32 0xFFFFFFFFFFFFFFFFFFFFFFFFFFFFFFFFFFFFFFFFFFFFFFFFFFFFFFFFFFFFFFFF SUB DUP3 GT ISZERO PUSH2 0x678 JUMPI PUSH2 0x677 PUSH2 0x71B JUMP JUMPDEST JUMPDEST DUP3 DUP3 ADD SWAP1 POP SWAP3 SWAP2 POP POP JUMP JUMPDEST PUSH1 0x0 PUSH2 0x68E DUP3 PUSH2 0x711 JUMP JUMPDEST SWAP2 POP PUSH2 0x699 DUP4 PUSH2 0x711 JUMP JUMPDEST SWAP3 POP DUP2 PUSH32 0xFFFFFFFFFFFFFFFFFFFFFFFFFFFFFFFFFFFFFFFFFFFFFFFFFFFFFFFFFFFFFFFF DIV DUP4 GT DUP3 ISZERO ISZERO AND ISZERO PUSH2 0x6D2 JUMPI PUSH2 0x6D1 PUSH2 0x71B JUMP JUMPDEST JUMPDEST DUP3 DUP3 MUL SWAP1 POP SWAP3 SWAP2 POP POP JUMP JUMPDEST PUSH1 0x0 PUSH2 0x6E8 DUP3 PUSH2 0x711 JUMP JUMPDEST SWAP2 POP PUSH2 0x6F3 DUP4 PUSH2 0x711 JUMP JUMPDEST SWAP3 POP DUP3 DUP3 LT ISZERO PUSH2 0x706 JUMPI PUSH2 0x705 PUSH2 0x71B JUMP JUMPDEST JUMPDEST DUP3 DUP3 SUB SWAP1 POP SWAP3 SWAP2 POP POP JUMP JUMPDEST PUSH1 0x0 DUP2 SWAP1 POP SWAP2 SWAP1 POP JUMP JUMPDEST PUSH32 0x4E487B7100000000000000000000000000000000000000000000000000000000 PUSH1 0x0 MSTORE PUSH1 0x11 PUSH1 0x4 MSTORE PUSH1 0x24 PUSH1 0x0 REVERT JUMPDEST PUSH1 0x0 DUP1 REVERT JUMPDEST PUSH2 0x758 DUP2 PUSH2 0x711 JUMP JUMPDEST DUP2 EQ PUSH2 0x763 JUMPI PUSH1 0x0 DUP1 REVERT JUMPDEST POP JUMP INVALID LOG2 PUSH5 0x6970667358 0x22 SLT KECCAK256 0xB9 0xEE SELFDESTRUCT RETURNDATACOPY 0x4E DUP10 0xBB 0xC0 MLOAD 0xD0 0xDD 0xBB CALLDATALOAD SWAP4 ISZERO 0xA6 DUP11 CHAINID 0xD1 PUSH25 0xD530E94000C407AA5C8E454C64736F6C634300080700330000 "
				},
				"gasEstimates": {
					"creation": {
						"codeDepositCost": "389600",
						"executionCost": "199378",
						"totalCost": "588978"
					},
					"external": {
						"btc1()": "2495",
						"btc2()": "2496",
						"btc3()": "2474",
						"btc4()": "2452",
						"btc5()": "2430",
						"btc6()": "2473",
						"btc7()": "2517",
						"btc8()": "2451",
						"btp()": "2518",
						"getConsumerTariff(uint256)": "infinite",
						"getProsumerTariff(uint256)": "infinite",
						"getnPnCnEV(uint256,uint256,uint256)": "infinite"
					}
				},
				"methodIdentifiers": {
					"btc1()": "c2c496ec",
					"btc2()": "28780a44",
					"btc3()": "20e731a1",
					"btc4()": "103347e7",
					"btc5()": "0c03a1a3",
					"btc6()": "b4ad7fa9",
					"btc7()": "ed2fa5ab",
					"btc8()": "a8bdb68b",
					"btp()": "2c9af64c",
					"getConsumerTariff(uint256)": "721028ec",
					"getProsumerTariff(uint256)": "5c8f6b56",
					"getnPnCnEV(uint256,uint256,uint256)": "f02e48c3"
				}
			},
			"storageLayout": {
				"storage": [
					{
						"astId": 5,
						"contract": "eth based/truffle/contracts/FLIR_Contract.sol:FLIRContract",
						"label": "balaces",
						"offset": 0,
						"slot": "0",
						"type": "t_mapping(t_address,t_uint256)"
					},
					{
						"astId": 10,
						"contract": "eth based/truffle/contracts/FLIR_Contract.sol:FLIRContract",
						"label": "roles",
						"offset": 0,
						"slot": "1",
						"type": "t_mapping(t_address,t_enum(role)15)"
					},
					{
						"astId": 18,
						"contract": "eth based/truffle/contracts/FLIR_Contract.sol:FLIRContract",
						"label": "btp",
						"offset": 0,
						"slot": "2",
						"type": "t_uint256"
					},
					{
						"astId": 21,
						"contract": "eth based/truffle/contracts/FLIR_Contract.sol:FLIRContract",
						"label": "btc1",
						"offset": 0,
						"slot": "3",
						"type": "t_uint256"
					},
					{
						"astId": 24,
						"contract": "eth based/truffle/contracts/FLIR_Contract.sol:FLIRContract",
						"label": "btc2",
						"offset": 0,
						"slot": "4",
						"type": "t_uint256"
					},
					{
						"astId": 27,
						"contract": "eth based/truffle/contracts/FLIR_Contract.sol:FLIRContract",
						"label": "btc3",
						"offset": 0,
						"slot": "5",
						"type": "t_uint256"
					},
					{
						"astId": 30,
						"contract": "eth based/truffle/contracts/FLIR_Contract.sol:FLIRContract",
						"label": "btc4",
						"offset": 0,
						"slot": "6",
						"type": "t_uint256"
					},
					{
						"astId": 33,
						"contract": "eth based/truffle/contracts/FLIR_Contract.sol:FLIRContract",
						"label": "btc5",
						"offset": 0,
						"slot": "7",
						"type": "t_uint256"
					},
					{
						"astId": 36,
						"contract": "eth based/truffle/contracts/FLIR_Contract.sol:FLIRContract",
						"label": "btc6",
						"offset": 0,
						"slot": "8",
						"type": "t_uint256"
					},
					{
						"astId": 39,
						"contract": "eth based/truffle/contracts/FLIR_Contract.sol:FLIRContract",
						"label": "btc7",
						"offset": 0,
						"slot": "9",
						"type": "t_uint256"
					},
					{
						"astId": 42,
						"contract": "eth based/truffle/contracts/FLIR_Contract.sol:FLIRContract",
						"label": "btc8",
						"offset": 0,
						"slot": "10",
						"type": "t_uint256"
					}
				],
				"types": {
					"t_address": {
						"encoding": "inplace",
						"label": "address",
						"numberOfBytes": "20"
					},
					"t_enum(role)15": {
						"encoding": "inplace",
						"label": "enum FLIRContract.role",
						"numberOfBytes": "1"
					},
					"t_mapping(t_address,t_enum(role)15)": {
						"encoding": "mapping",
						"key": "t_address",
						"label": "mapping(address => enum FLIRContract.role)",
						"numberOfBytes": "32",
						"value": "t_enum(role)15"
					},
					"t_mapping(t_address,t_uint256)": {
						"encoding": "mapping",
						"key": "t_address",
						"label": "mapping(address => uint256)",
						"numberOfBytes": "32",
						"value": "t_uint256"
					},
					"t_uint256": {
						"encoding": "inplace",
						"label": "uint256",
						"numberOfBytes": "32"
					}
				}
			},
			"userdoc": {
				"kind": "user",
				"methods": {},
				"version": 1
			}
		}
	}
}