{
	"contracts/FLIR_Contract.sol": {
		"FLIRContract": {
			"abi": [
				{
					"inputs": [],
					"name": "btc1",
					"outputs": [
						{
							"internalType": "uint256",
							"name": "",
							"type": "uint256"
						}
					],
					"stateMutability": "view",
					"type": "function"
				},
				{
					"inputs": [],
					"name": "btc2",
					"outputs": [
						{
							"internalType": "uint256",
							"name": "",
							"type": "uint256"
						}
					],
					"stateMutability": "view",
					"type": "function"
				},
				{
					"inputs": [],
					"name": "btc3",
					"outputs": [
						{
							"internalType": "uint256",
							"name": "",
							"type": "uint256"
						}
					],
					"stateMutability": "view",
					"type": "function"
				},
				{
					"inputs": [],
					"name": "btc4",
					"outputs": [
						{
							"internalType": "uint256",
							"name": "",
							"type": "uint256"
						}
					],
					"stateMutability": "view",
					"type": "function"
				},
				{
					"inputs": [],
					"name": "btc5",
					"outputs": [
						{
							"internalType": "uint256",
							"name": "",
							"type": "uint256"
						}
					],
					"stateMutability": "view",
					"type": "function"
				},
				{
					"inputs": [],
					"name": "btc6",
					"outputs": [
						{
							"internalType": "uint256",
							"name": "",
							"type": "uint256"
						}
					],
					"stateMutability": "view",
					"type": "function"
				},
				{
					"inputs": [],
					"name": "btc7",
					"outputs": [
						{
							"internalType": "uint256",
							"name": "",
							"type": "uint256"
						}
					],
					"stateMutability": "view",
					"type": "function"
				},
				{
					"inputs": [],
					"name": "btc8",
					"outputs": [
						{
							"internalType": "uint256",
							"name": "",
							"type": "uint256"
						}
					],
					"stateMutability": "view",
					"type": "function"
				},
				{
					"inputs": [],
					"name": "btp",
					"outputs": [
						{
							"internalType": "uint256",
							"name": "",
							"type": "uint256"
						}
					],
					"stateMutability": "view",
					"type": "function"
				},
				{
					"inputs": [
						{
							"internalType": "uint256",
							"name": "Cimp",
							"type": "uint256"
						}
					],
					"name": "getConsumerTariff",
					"outputs": [
						{
							"internalType": "uint256",
							"name": "Tc",
							"type": "uint256"
						}
					],
					"stateMutability": "nonpayable",
					"type": "function"
				},
				{
					"inputs": [
						{
							"internalType": "uint256",
							"name": "Pexp",
							"type": "uint256"
						}
					],
					"name": "getProsumerTariff",
					"outputs": [
						{
							"internalType": "uint256",
							"name": "Tp",
							"type": "uint256"
						}
					],
					"stateMutability": "nonpayable",
					"type": "function"
				},
				{
					"inputs": [
						{
							"internalType": "uint256",
							"name": "nPget",
							"type": "uint256"
						},
						{
							"internalType": "uint256",
							"name": "nCget",
							"type": "uint256"
						},
						{
							"internalType": "uint256",
							"name": "nEVget",
							"type": "uint256"
						}
					],
					"name": "getnPnCnEV",
					"outputs": [
						{
							"internalType": "uint256",
							"name": "nP",
							"type": "uint256"
						},
						{
							"internalType": "uint256",
							"name": "nC",
							"type": "uint256"
						},
						{
							"internalType": "uint256",
							"name": "nEV",
							"type": "uint256"
						}
					],
					"stateMutability": "pure",
					"type": "function"
				},
				{
					"inputs": [
						{
							"internalType": "address payable",
							"name": "_to",
							"type": "address"
						}
					],
					"name": "sendViaTransfer",
					"outputs": [],
					"stateMutability": "payable",
					"type": "function"
				}
			],
			"devdoc": {
				"kind": "dev",
				"methods": {},
				"version": 1
			},
			"evm": {
				"assembly": "    /* \"contracts/FLIR_Contract.sol\":129:1827  contract FLIRContract{... */\n  mstore(0x40, 0x80)\n    /* \"contracts/FLIR_Contract.sol\":175:176  3 */\n  0x03\n    /* \"contracts/FLIR_Contract.sol\":157:176  uint public btp = 3 */\n  0x00\n  sstore\n    /* \"contracts/FLIR_Contract.sol\":202:203  3 */\n  0x03\n    /* \"contracts/FLIR_Contract.sol\":183:203  uint public btc1 = 3 */\n  0x01\n  sstore\n    /* \"contracts/FLIR_Contract.sol\":228:229  4 */\n  0x04\n    /* \"contracts/FLIR_Contract.sol\":209:229  uint public btc2 = 4 */\n  0x02\n  sstore\n    /* \"contracts/FLIR_Contract.sol\":254:255  5 */\n  0x05\n    /* \"contracts/FLIR_Contract.sol\":235:255  uint public btc3 = 5 */\n  0x03\n  sstore\n    /* \"contracts/FLIR_Contract.sol\":280:281  6 */\n  0x06\n    /* \"contracts/FLIR_Contract.sol\":261:281  uint public btc4 = 6 */\n  0x04\n  sstore\n    /* \"contracts/FLIR_Contract.sol\":306:307  7 */\n  0x07\n    /* \"contracts/FLIR_Contract.sol\":287:307  uint public btc5 = 7 */\n  0x05\n  sstore\n    /* \"contracts/FLIR_Contract.sol\":332:333  8 */\n  0x08\n    /* \"contracts/FLIR_Contract.sol\":313:333  uint public btc6 = 8 */\n  0x06\n  sstore\n    /* \"contracts/FLIR_Contract.sol\":358:359  9 */\n  0x09\n    /* \"contracts/FLIR_Contract.sol\":339:359  uint public btc7 = 9 */\n  0x07\n  sstore\n    /* \"contracts/FLIR_Contract.sol\":384:386  10 */\n  0x0a\n    /* \"contracts/FLIR_Contract.sol\":365:386  uint public btc8 = 10 */\n  0x08\n  sstore\n    /* \"contracts/FLIR_Contract.sol\":129:1827  contract FLIRContract{... */\n  callvalue\n  dup1\n  iszero\n  tag_1\n  jumpi\n  0x00\n  dup1\n  revert\ntag_1:\n  pop\n  dataSize(sub_0)\n  dup1\n  dataOffset(sub_0)\n  0x00\n  codecopy\n  0x00\n  return\nstop\n\nsub_0: assembly {\n        /* \"contracts/FLIR_Contract.sol\":129:1827  contract FLIRContract{... */\n      mstore(0x40, 0x80)\n      jumpi(tag_1, lt(calldatasize, 0x04))\n      shr(0xe0, calldataload(0x00))\n      dup1\n      0x636e082b\n      gt\n      tag_15\n      jumpi\n      dup1\n      0xb4ad7fa9\n      gt\n      tag_16\n      jumpi\n      dup1\n      0xb4ad7fa9\n      eq\n      tag_11\n      jumpi\n      dup1\n      0xc2c496ec\n      eq\n      tag_12\n      jumpi\n      dup1\n      0xed2fa5ab\n      eq\n      tag_13\n      jumpi\n      dup1\n      0xf02e48c3\n      eq\n      tag_14\n      jumpi\n      jump(tag_1)\n    tag_16:\n      dup1\n      0x636e082b\n      eq\n      tag_8\n      jumpi\n      dup1\n      0x721028ec\n      eq\n      tag_9\n      jumpi\n      dup1\n      0xa8bdb68b\n      eq\n      tag_10\n      jumpi\n      jump(tag_1)\n    tag_15:\n      dup1\n      0x0c03a1a3\n      eq\n      tag_2\n      jumpi\n      dup1\n      0x103347e7\n      eq\n      tag_3\n      jumpi\n      dup1\n      0x20e731a1\n      eq\n      tag_4\n      jumpi\n      dup1\n      0x28780a44\n      eq\n      tag_5\n      jumpi\n      dup1\n      0x2c9af64c\n      eq\n      tag_6\n      jumpi\n      dup1\n      0x5c8f6b56\n      eq\n      tag_7\n      jumpi\n    tag_1:\n      0x00\n      dup1\n      revert\n        /* \"contracts/FLIR_Contract.sol\":287:307  uint public btc5 = 7 */\n    tag_2:\n      callvalue\n      dup1\n      iszero\n      tag_17\n      jumpi\n      0x00\n      dup1\n      revert\n    tag_17:\n      pop\n      tag_18\n      tag_19\n      jump\t// in\n    tag_18:\n      mload(0x40)\n      tag_20\n      swap2\n      swap1\n      tag_21\n      jump\t// in\n    tag_20:\n      mload(0x40)\n      dup1\n      swap2\n      sub\n      swap1\n      return\n        /* \"contracts/FLIR_Contract.sol\":261:281  uint public btc4 = 6 */\n    tag_3:\n      callvalue\n      dup1\n      iszero\n      tag_22\n      jumpi\n      0x00\n      dup1\n      revert\n    tag_22:\n      pop\n      tag_23\n      tag_24\n      jump\t// in\n    tag_23:\n      mload(0x40)\n      tag_25\n      swap2\n      swap1\n      tag_21\n      jump\t// in\n    tag_25:\n      mload(0x40)\n      dup1\n      swap2\n      sub\n      swap1\n      return\n        /* \"contracts/FLIR_Contract.sol\":235:255  uint public btc3 = 5 */\n    tag_4:\n      callvalue\n      dup1\n      iszero\n      tag_26\n      jumpi\n      0x00\n      dup1\n      revert\n    tag_26:\n      pop\n      tag_27\n      tag_28\n      jump\t// in\n    tag_27:\n      mload(0x40)\n      tag_29\n      swap2\n      swap1\n      tag_21\n      jump\t// in\n    tag_29:\n      mload(0x40)\n      dup1\n      swap2\n      sub\n      swap1\n      return\n        /* \"contracts/FLIR_Contract.sol\":209:229  uint public btc2 = 4 */\n    tag_5:\n      callvalue\n      dup1\n      iszero\n      tag_30\n      jumpi\n      0x00\n      dup1\n      revert\n    tag_30:\n      pop\n      tag_31\n      tag_32\n      jump\t// in\n    tag_31:\n      mload(0x40)\n      tag_33\n      swap2\n      swap1\n      tag_21\n      jump\t// in\n    tag_33:\n      mload(0x40)\n      dup1\n      swap2\n      sub\n      swap1\n      return\n        /* \"contracts/FLIR_Contract.sol\":157:176  uint public btp = 3 */\n    tag_6:\n      callvalue\n      dup1\n      iszero\n      tag_34\n      jumpi\n      0x00\n      dup1\n      revert\n    tag_34:\n      pop\n      tag_35\n      tag_36\n      jump\t// in\n    tag_35:\n      mload(0x40)\n      tag_37\n      swap2\n      swap1\n      tag_21\n      jump\t// in\n    tag_37:\n      mload(0x40)\n      dup1\n      swap2\n      sub\n      swap1\n      return\n        /* \"contracts/FLIR_Contract.sol\":611:726  function getProsumerTariff(uint Pexp) public returns (uint Tp){... */\n    tag_7:\n      callvalue\n      dup1\n      iszero\n      tag_38\n      jumpi\n      0x00\n      dup1\n      revert\n    tag_38:\n      pop\n      tag_39\n      0x04\n      dup1\n      calldatasize\n      sub\n      dup2\n      add\n      swap1\n      tag_40\n      swap2\n      swap1\n      tag_41\n      jump\t// in\n    tag_40:\n      tag_42\n      jump\t// in\n    tag_39:\n      mload(0x40)\n      tag_43\n      swap2\n      swap1\n      tag_21\n      jump\t// in\n    tag_43:\n      mload(0x40)\n      dup1\n      swap2\n      sub\n      swap1\n      return\n        /* \"contracts/FLIR_Contract.sol\":1728:1824  function sendViaTransfer(address payable _to) public payable{... */\n    tag_8:\n      tag_44\n      0x04\n      dup1\n      calldatasize\n      sub\n      dup2\n      add\n      swap1\n      tag_45\n      swap2\n      swap1\n      tag_46\n      jump\t// in\n    tag_45:\n      tag_47\n      jump\t// in\n    tag_44:\n      stop\n        /* \"contracts/FLIR_Contract.sol\":732:1722  function getConsumerTariff(uint Cimp) public returns (uint Tc){... */\n    tag_9:\n      callvalue\n      dup1\n      iszero\n      tag_48\n      jumpi\n      0x00\n      dup1\n      revert\n    tag_48:\n      pop\n      tag_49\n      0x04\n      dup1\n      calldatasize\n      sub\n      dup2\n      add\n      swap1\n      tag_50\n      swap2\n      swap1\n      tag_41\n      jump\t// in\n    tag_50:\n      tag_51\n      jump\t// in\n    tag_49:\n      mload(0x40)\n      tag_52\n      swap2\n      swap1\n      tag_21\n      jump\t// in\n    tag_52:\n      mload(0x40)\n      dup1\n      swap2\n      sub\n      swap1\n      return\n        /* \"contracts/FLIR_Contract.sol\":365:386  uint public btc8 = 10 */\n    tag_10:\n      callvalue\n      dup1\n      iszero\n      tag_53\n      jumpi\n      0x00\n      dup1\n      revert\n    tag_53:\n      pop\n      tag_54\n      tag_55\n      jump\t// in\n    tag_54:\n      mload(0x40)\n      tag_56\n      swap2\n      swap1\n      tag_21\n      jump\t// in\n    tag_56:\n      mload(0x40)\n      dup1\n      swap2\n      sub\n      swap1\n      return\n        /* \"contracts/FLIR_Contract.sol\":313:333  uint public btc6 = 8 */\n    tag_11:\n      callvalue\n      dup1\n      iszero\n      tag_57\n      jumpi\n      0x00\n      dup1\n      revert\n    tag_57:\n      pop\n      tag_58\n      tag_59\n      jump\t// in\n    tag_58:\n      mload(0x40)\n      tag_60\n      swap2\n      swap1\n      tag_21\n      jump\t// in\n    tag_60:\n      mload(0x40)\n      dup1\n      swap2\n      sub\n      swap1\n      return\n        /* \"contracts/FLIR_Contract.sol\":183:203  uint public btc1 = 3 */\n    tag_12:\n      callvalue\n      dup1\n      iszero\n      tag_61\n      jumpi\n      0x00\n      dup1\n      revert\n    tag_61:\n      pop\n      tag_62\n      tag_63\n      jump\t// in\n    tag_62:\n      mload(0x40)\n      tag_64\n      swap2\n      swap1\n      tag_21\n      jump\t// in\n    tag_64:\n      mload(0x40)\n      dup1\n      swap2\n      sub\n      swap1\n      return\n        /* \"contracts/FLIR_Contract.sol\":339:359  uint public btc7 = 9 */\n    tag_13:\n      callvalue\n      dup1\n      iszero\n      tag_65\n      jumpi\n      0x00\n      dup1\n      revert\n    tag_65:\n      pop\n      tag_66\n      tag_67\n      jump\t// in\n    tag_66:\n      mload(0x40)\n      tag_68\n      swap2\n      swap1\n      tag_21\n      jump\t// in\n    tag_68:\n      mload(0x40)\n      dup1\n      swap2\n      sub\n      swap1\n      return\n        /* \"contracts/FLIR_Contract.sol\":393:605  function getnPnCnEV(uint nPget, uint nCget,uint nEVget) public pure... */\n    tag_14:\n      callvalue\n      dup1\n      iszero\n      tag_69\n      jumpi\n      0x00\n      dup1\n      revert\n    tag_69:\n      pop\n      tag_70\n      0x04\n      dup1\n      calldatasize\n      sub\n      dup2\n      add\n      swap1\n      tag_71\n      swap2\n      swap1\n      tag_72\n      jump\t// in\n    tag_71:\n      tag_73\n      jump\t// in\n    tag_70:\n      mload(0x40)\n      tag_74\n      swap4\n      swap3\n      swap2\n      swap1\n      tag_75\n      jump\t// in\n    tag_74:\n      mload(0x40)\n      dup1\n      swap2\n      sub\n      swap1\n      return\n        /* \"contracts/FLIR_Contract.sol\":287:307  uint public btc5 = 7 */\n    tag_19:\n      sload(0x05)\n      dup2\n      jump\t// out\n        /* \"contracts/FLIR_Contract.sol\":261:281  uint public btc4 = 6 */\n    tag_24:\n      sload(0x04)\n      dup2\n      jump\t// out\n        /* \"contracts/FLIR_Contract.sol\":235:255  uint public btc3 = 5 */\n    tag_28:\n      sload(0x03)\n      dup2\n      jump\t// out\n        /* \"contracts/FLIR_Contract.sol\":209:229  uint public btc2 = 4 */\n    tag_32:\n      sload(0x02)\n      dup2\n      jump\t// out\n        /* \"contracts/FLIR_Contract.sol\":157:176  uint public btp = 3 */\n    tag_36:\n      sload(0x00)\n      dup2\n      jump\t// out\n        /* \"contracts/FLIR_Contract.sol\":611:726  function getProsumerTariff(uint Pexp) public returns (uint Tp){... */\n    tag_42:\n        /* \"contracts/FLIR_Contract.sol\":665:672  uint Tp */\n      0x00\n        /* \"contracts/FLIR_Contract.sol\":695:698  btp */\n      dup1\n      sload\n        /* \"contracts/FLIR_Contract.sol\":688:692  Pexp */\n      dup3\n        /* \"contracts/FLIR_Contract.sol\":688:698  Pexp * btp */\n      tag_77\n      swap2\n      swap1\n      tag_78\n      jump\t// in\n    tag_77:\n        /* \"contracts/FLIR_Contract.sol\":683:698  Tp = Pexp * btp */\n      swap1\n      pop\n        /* \"contracts/FLIR_Contract.sol\":611:726  function getProsumerTariff(uint Pexp) public returns (uint Tp){... */\n      swap2\n      swap1\n      pop\n      jump\t// out\n        /* \"contracts/FLIR_Contract.sol\":1728:1824  function sendViaTransfer(address payable _to) public payable{... */\n    tag_47:\n        /* \"contracts/FLIR_Contract.sol\":1794:1797  _to */\n      dup1\n        /* \"contracts/FLIR_Contract.sol\":1794:1806  _to.transfer */\n      0xffffffffffffffffffffffffffffffffffffffff\n      and\n        /* \"contracts/FLIR_Contract.sol\":1794:1817  _to.transfer(msg.value) */\n      0x08fc\n        /* \"contracts/FLIR_Contract.sol\":1807:1816  msg.value */\n      callvalue\n        /* \"contracts/FLIR_Contract.sol\":1794:1817  _to.transfer(msg.value) */\n      swap1\n      dup2\n      iszero\n      mul\n      swap1\n      mload(0x40)\n      0x00\n      mload(0x40)\n      dup1\n      dup4\n      sub\n      dup2\n      dup6\n      dup9\n      dup9\n      call\n      swap4\n      pop\n      pop\n      pop\n      pop\n      iszero\n      dup1\n      iszero\n      tag_81\n      jumpi\n      returndatasize\n      0x00\n      dup1\n      returndatacopy\n      revert(0x00, returndatasize)\n    tag_81:\n      pop\n        /* \"contracts/FLIR_Contract.sol\":1728:1824  function sendViaTransfer(address payable _to) public payable{... */\n      pop\n      jump\t// out\n        /* \"contracts/FLIR_Contract.sol\":732:1722  function getConsumerTariff(uint Cimp) public returns (uint Tc){... */\n    tag_51:\n        /* \"contracts/FLIR_Contract.sol\":786:793  uint Tc */\n      0x00\n        /* \"contracts/FLIR_Contract.sol\":823:826  251 */\n      0xfb\n        /* \"contracts/FLIR_Contract.sol\":816:820  Cimp */\n      dup3\n        /* \"contracts/FLIR_Contract.sol\":816:826  Cimp < 251 */\n      lt\n        /* \"contracts/FLIR_Contract.sol\":813:1695  if(Cimp < 251){... */\n      iszero\n      tag_83\n      jumpi\n        /* \"contracts/FLIR_Contract.sol\":851:853  51 */\n      0x33\n        /* \"contracts/FLIR_Contract.sol\":844:848  Cimp */\n      dup3\n        /* \"contracts/FLIR_Contract.sol\":844:853  Cimp < 51 */\n      lt\n        /* \"contracts/FLIR_Contract.sol\":841:1450  if(Cimp < 51){... */\n      iszero\n      tag_84\n      jumpi\n        /* \"contracts/FLIR_Contract.sol\":884:888  btc1 */\n      sload(0x01)\n        /* \"contracts/FLIR_Contract.sol\":877:881  Cimp */\n      dup3\n        /* \"contracts/FLIR_Contract.sol\":877:888  Cimp * btc1 */\n      tag_85\n      swap2\n      swap1\n      tag_78\n      jump\t// in\n    tag_85:\n        /* \"contracts/FLIR_Contract.sol\":872:888  Tc = Cimp * btc1 */\n      swap1\n      pop\n        /* \"contracts/FLIR_Contract.sol\":841:1450  if(Cimp < 51){... */\n      jump(tag_86)\n    tag_84:\n        /* \"contracts/FLIR_Contract.sol\":931:933  50 */\n      0x32\n        /* \"contracts/FLIR_Contract.sol\":924:928  Cimp */\n      dup3\n        /* \"contracts/FLIR_Contract.sol\":924:933  Cimp > 50 */\n      gt\n        /* \"contracts/FLIR_Contract.sol\":924:947  Cimp > 50 && Cimp < 101 */\n      dup1\n      iszero\n      tag_87\n      jumpi\n      pop\n        /* \"contracts/FLIR_Contract.sol\":944:947  101 */\n      0x65\n        /* \"contracts/FLIR_Contract.sol\":937:941  Cimp */\n      dup3\n        /* \"contracts/FLIR_Contract.sol\":937:947  Cimp < 101 */\n      lt\n        /* \"contracts/FLIR_Contract.sol\":924:947  Cimp > 50 && Cimp < 101 */\n    tag_87:\n        /* \"contracts/FLIR_Contract.sol\":921:1450  if(Cimp > 50 && Cimp < 101){... */\n      iszero\n      tag_88\n      jumpi\n        /* \"contracts/FLIR_Contract.sol\":998:1002  btc2 */\n      sload(0x02)\n        /* \"contracts/FLIR_Contract.sol\":992:994  50 */\n      0x32\n        /* \"contracts/FLIR_Contract.sol\":987:991  Cimp */\n      dup4\n        /* \"contracts/FLIR_Contract.sol\":987:994  Cimp-50 */\n      tag_89\n      swap2\n      swap1\n      tag_90\n      jump\t// in\n    tag_89:\n        /* \"contracts/FLIR_Contract.sol\":986:1002  (Cimp-50) * btc2 */\n      tag_91\n      swap2\n      swap1\n      tag_78\n      jump\t// in\n    tag_91:\n        /* \"contracts/FLIR_Contract.sol\":977:981  btc1 */\n      sload(0x01)\n        /* \"contracts/FLIR_Contract.sol\":972:974  50 */\n      0x32\n        /* \"contracts/FLIR_Contract.sol\":972:981  50 * btc1 */\n      tag_92\n      swap2\n      swap1\n      tag_78\n      jump\t// in\n    tag_92:\n        /* \"contracts/FLIR_Contract.sol\":971:1003  (50 * btc1) + ((Cimp-50) * btc2) */\n      tag_93\n      swap2\n      swap1\n      tag_94\n      jump\t// in\n    tag_93:\n        /* \"contracts/FLIR_Contract.sol\":966:1003  Tc = (50 * btc1) + ((Cimp-50) * btc2) */\n      swap1\n      pop\n        /* \"contracts/FLIR_Contract.sol\":921:1450  if(Cimp > 50 && Cimp < 101){... */\n      jump(tag_95)\n    tag_88:\n        /* \"contracts/FLIR_Contract.sol\":1046:1049  100 */\n      0x64\n        /* \"contracts/FLIR_Contract.sol\":1039:1043  Cimp */\n      dup3\n        /* \"contracts/FLIR_Contract.sol\":1039:1049  Cimp > 100 */\n      gt\n        /* \"contracts/FLIR_Contract.sol\":1039:1063  Cimp > 100 && Cimp < 151 */\n      dup1\n      iszero\n      tag_96\n      jumpi\n      pop\n        /* \"contracts/FLIR_Contract.sol\":1060:1063  151 */\n      0x97\n        /* \"contracts/FLIR_Contract.sol\":1053:1057  Cimp */\n      dup3\n        /* \"contracts/FLIR_Contract.sol\":1053:1063  Cimp < 151 */\n      lt\n        /* \"contracts/FLIR_Contract.sol\":1039:1063  Cimp > 100 && Cimp < 151 */\n    tag_96:\n        /* \"contracts/FLIR_Contract.sol\":1036:1450  if(Cimp > 100 && Cimp < 151){... */\n      iszero\n      tag_97\n      jumpi\n        /* \"contracts/FLIR_Contract.sol\":1128:1132  btc3 */\n      sload(0x03)\n        /* \"contracts/FLIR_Contract.sol\":1122:1124  50 */\n      0x32\n        /* \"contracts/FLIR_Contract.sol\":1117:1121  Cimp */\n      dup4\n        /* \"contracts/FLIR_Contract.sol\":1117:1124  Cimp-50 */\n      tag_98\n      swap2\n      swap1\n      tag_90\n      jump\t// in\n    tag_98:\n        /* \"contracts/FLIR_Contract.sol\":1116:1132  (Cimp-50) * btc3 */\n      tag_99\n      swap2\n      swap1\n      tag_78\n      jump\t// in\n    tag_99:\n        /* \"contracts/FLIR_Contract.sol\":1107:1111  btc2 */\n      sload(0x02)\n        /* \"contracts/FLIR_Contract.sol\":1102:1104  50 */\n      0x32\n        /* \"contracts/FLIR_Contract.sol\":1102:1111  50 * btc2 */\n      tag_100\n      swap2\n      swap1\n      tag_78\n      jump\t// in\n    tag_100:\n        /* \"contracts/FLIR_Contract.sol\":1093:1097  btc1 */\n      sload(0x01)\n        /* \"contracts/FLIR_Contract.sol\":1088:1090  50 */\n      0x32\n        /* \"contracts/FLIR_Contract.sol\":1088:1097  50 * btc1 */\n      tag_101\n      swap2\n      swap1\n      tag_78\n      jump\t// in\n    tag_101:\n        /* \"contracts/FLIR_Contract.sol\":1087:1112  (50 * btc1) + (50 * btc2) */\n      tag_102\n      swap2\n      swap1\n      tag_94\n      jump\t// in\n    tag_102:\n        /* \"contracts/FLIR_Contract.sol\":1087:1133  (50 * btc1) + (50 * btc2) + ((Cimp-50) * btc3) */\n      tag_103\n      swap2\n      swap1\n      tag_94\n      jump\t// in\n    tag_103:\n        /* \"contracts/FLIR_Contract.sol\":1082:1133  Tc = (50 * btc1) + (50 * btc2) + ((Cimp-50) * btc3) */\n      swap1\n      pop\n        /* \"contracts/FLIR_Contract.sol\":1036:1450  if(Cimp > 100 && Cimp < 151){... */\n      jump(tag_104)\n    tag_97:\n        /* \"contracts/FLIR_Contract.sol\":1176:1179  150 */\n      0x96\n        /* \"contracts/FLIR_Contract.sol\":1169:1173  Cimp */\n      dup3\n        /* \"contracts/FLIR_Contract.sol\":1169:1179  Cimp > 150 */\n      gt\n        /* \"contracts/FLIR_Contract.sol\":1169:1193  Cimp > 150 && Cimp < 201 */\n      dup1\n      iszero\n      tag_105\n      jumpi\n      pop\n        /* \"contracts/FLIR_Contract.sol\":1190:1193  201 */\n      0xc9\n        /* \"contracts/FLIR_Contract.sol\":1183:1187  Cimp */\n      dup3\n        /* \"contracts/FLIR_Contract.sol\":1183:1193  Cimp < 201 */\n      lt\n        /* \"contracts/FLIR_Contract.sol\":1169:1193  Cimp > 150 && Cimp < 201 */\n    tag_105:\n        /* \"contracts/FLIR_Contract.sol\":1166:1450  if(Cimp > 150 && Cimp < 201){... */\n      iszero\n      tag_106\n      jumpi\n        /* \"contracts/FLIR_Contract.sol\":1272:1276  btc4 */\n      sload(0x04)\n        /* \"contracts/FLIR_Contract.sol\":1266:1268  50 */\n      0x32\n        /* \"contracts/FLIR_Contract.sol\":1261:1265  Cimp */\n      dup4\n        /* \"contracts/FLIR_Contract.sol\":1261:1268  Cimp-50 */\n      tag_107\n      swap2\n      swap1\n      tag_90\n      jump\t// in\n    tag_107:\n        /* \"contracts/FLIR_Contract.sol\":1260:1276  (Cimp-50) * btc4 */\n      tag_108\n      swap2\n      swap1\n      tag_78\n      jump\t// in\n    tag_108:\n        /* \"contracts/FLIR_Contract.sol\":1251:1255  btc3 */\n      sload(0x03)\n        /* \"contracts/FLIR_Contract.sol\":1246:1248  50 */\n      0x32\n        /* \"contracts/FLIR_Contract.sol\":1246:1255  50 * btc3 */\n      tag_109\n      swap2\n      swap1\n      tag_78\n      jump\t// in\n    tag_109:\n        /* \"contracts/FLIR_Contract.sol\":1237:1241  btc2 */\n      sload(0x02)\n        /* \"contracts/FLIR_Contract.sol\":1232:1234  50 */\n      0x32\n        /* \"contracts/FLIR_Contract.sol\":1232:1241  50 * btc2 */\n      tag_110\n      swap2\n      swap1\n      tag_78\n      jump\t// in\n    tag_110:\n        /* \"contracts/FLIR_Contract.sol\":1223:1227  btc1 */\n      sload(0x01)\n        /* \"contracts/FLIR_Contract.sol\":1218:1220  50 */\n      0x32\n        /* \"contracts/FLIR_Contract.sol\":1218:1227  50 * btc1 */\n      tag_111\n      swap2\n      swap1\n      tag_78\n      jump\t// in\n    tag_111:\n        /* \"contracts/FLIR_Contract.sol\":1217:1242  (50 * btc1) + (50 * btc2) */\n      tag_112\n      swap2\n      swap1\n      tag_94\n      jump\t// in\n    tag_112:\n        /* \"contracts/FLIR_Contract.sol\":1217:1256  (50 * btc1) + (50 * btc2) + (50 * btc3) */\n      tag_113\n      swap2\n      swap1\n      tag_94\n      jump\t// in\n    tag_113:\n        /* \"contracts/FLIR_Contract.sol\":1217:1277  (50 * btc1) + (50 * btc2) + (50 * btc3) + ((Cimp-50) * btc4) */\n      tag_114\n      swap2\n      swap1\n      tag_94\n      jump\t// in\n    tag_114:\n        /* \"contracts/FLIR_Contract.sol\":1212:1277  Tc = (50 * btc1) + (50 * btc2) + (50 * btc3) + ((Cimp-50) * btc4) */\n      swap1\n      pop\n        /* \"contracts/FLIR_Contract.sol\":1166:1450  if(Cimp > 150 && Cimp < 201){... */\n      jump(tag_115)\n    tag_106:\n        /* \"contracts/FLIR_Contract.sol\":1320:1323  200 */\n      0xc8\n        /* \"contracts/FLIR_Contract.sol\":1313:1317  Cimp */\n      dup3\n        /* \"contracts/FLIR_Contract.sol\":1313:1323  Cimp > 200 */\n      gt\n        /* \"contracts/FLIR_Contract.sol\":1313:1337  Cimp > 200 && Cimp < 251 */\n      dup1\n      iszero\n      tag_116\n      jumpi\n      pop\n        /* \"contracts/FLIR_Contract.sol\":1334:1337  251 */\n      0xfb\n        /* \"contracts/FLIR_Contract.sol\":1327:1331  Cimp */\n      dup3\n        /* \"contracts/FLIR_Contract.sol\":1327:1337  Cimp < 251 */\n      lt\n        /* \"contracts/FLIR_Contract.sol\":1313:1337  Cimp > 200 && Cimp < 251 */\n    tag_116:\n        /* \"contracts/FLIR_Contract.sol\":1310:1450  if(Cimp > 200 && Cimp < 251){... */\n      iszero\n      tag_117\n      jumpi\n        /* \"contracts/FLIR_Contract.sol\":1430:1434  btc5 */\n      sload(0x05)\n        /* \"contracts/FLIR_Contract.sol\":1424:1426  50 */\n      0x32\n        /* \"contracts/FLIR_Contract.sol\":1419:1423  Cimp */\n      dup4\n        /* \"contracts/FLIR_Contract.sol\":1419:1426  Cimp-50 */\n      tag_118\n      swap2\n      swap1\n      tag_90\n      jump\t// in\n    tag_118:\n        /* \"contracts/FLIR_Contract.sol\":1418:1434  (Cimp-50) * btc5 */\n      tag_119\n      swap2\n      swap1\n      tag_78\n      jump\t// in\n    tag_119:\n        /* \"contracts/FLIR_Contract.sol\":1409:1413  btc4 */\n      sload(0x04)\n        /* \"contracts/FLIR_Contract.sol\":1404:1406  50 */\n      0x32\n        /* \"contracts/FLIR_Contract.sol\":1404:1413  50 * btc4 */\n      tag_120\n      swap2\n      swap1\n      tag_78\n      jump\t// in\n    tag_120:\n        /* \"contracts/FLIR_Contract.sol\":1395:1399  btc3 */\n      sload(0x03)\n        /* \"contracts/FLIR_Contract.sol\":1390:1392  50 */\n      0x32\n        /* \"contracts/FLIR_Contract.sol\":1390:1399  50 * btc3 */\n      tag_121\n      swap2\n      swap1\n      tag_78\n      jump\t// in\n    tag_121:\n        /* \"contracts/FLIR_Contract.sol\":1381:1385  btc2 */\n      sload(0x02)\n        /* \"contracts/FLIR_Contract.sol\":1376:1378  50 */\n      0x32\n        /* \"contracts/FLIR_Contract.sol\":1376:1385  50 * btc2 */\n      tag_122\n      swap2\n      swap1\n      tag_78\n      jump\t// in\n    tag_122:\n        /* \"contracts/FLIR_Contract.sol\":1367:1371  btc1 */\n      sload(0x01)\n        /* \"contracts/FLIR_Contract.sol\":1362:1364  50 */\n      0x32\n        /* \"contracts/FLIR_Contract.sol\":1362:1371  50 * btc1 */\n      tag_123\n      swap2\n      swap1\n      tag_78\n      jump\t// in\n    tag_123:\n        /* \"contracts/FLIR_Contract.sol\":1361:1386  (50 * btc1) + (50 * btc2) */\n      tag_124\n      swap2\n      swap1\n      tag_94\n      jump\t// in\n    tag_124:\n        /* \"contracts/FLIR_Contract.sol\":1361:1400  (50 * btc1) + (50 * btc2) + (50 * btc3) */\n      tag_125\n      swap2\n      swap1\n      tag_94\n      jump\t// in\n    tag_125:\n        /* \"contracts/FLIR_Contract.sol\":1361:1414  (50 * btc1) + (50 * btc2) + (50 * btc3) + (50 * btc4) */\n      tag_126\n      swap2\n      swap1\n      tag_94\n      jump\t// in\n    tag_126:\n        /* \"contracts/FLIR_Contract.sol\":1361:1435  (50 * btc1) + (50 * btc2) + (50 * btc3) + (50 * btc4) + ((Cimp-50) * btc5) */\n      tag_127\n      swap2\n      swap1\n      tag_94\n      jump\t// in\n    tag_127:\n        /* \"contracts/FLIR_Contract.sol\":1356:1435  Tc = (50 * btc1) + (50 * btc2) + (50 * btc3) + (50 * btc4) + ((Cimp-50) * btc5) */\n      swap1\n      pop\n        /* \"contracts/FLIR_Contract.sol\":1310:1450  if(Cimp > 200 && Cimp < 251){... */\n    tag_117:\n        /* \"contracts/FLIR_Contract.sol\":1166:1450  if(Cimp > 150 && Cimp < 201){... */\n    tag_115:\n        /* \"contracts/FLIR_Contract.sol\":1036:1450  if(Cimp > 100 && Cimp < 151){... */\n    tag_104:\n        /* \"contracts/FLIR_Contract.sol\":921:1450  if(Cimp > 50 && Cimp < 101){... */\n    tag_95:\n        /* \"contracts/FLIR_Contract.sol\":841:1450  if(Cimp < 51){... */\n    tag_86:\n        /* \"contracts/FLIR_Contract.sol\":813:1695  if(Cimp < 251){... */\n      jump(tag_128)\n    tag_83:\n        /* \"contracts/FLIR_Contract.sol\":1484:1487  250 */\n      0xfa\n        /* \"contracts/FLIR_Contract.sol\":1477:1481  Cimp */\n      dup3\n        /* \"contracts/FLIR_Contract.sol\":1477:1487  Cimp > 250 */\n      gt\n        /* \"contracts/FLIR_Contract.sol\":1477:1501  Cimp > 250 && Cimp < 351 */\n      dup1\n      iszero\n      tag_129\n      jumpi\n      pop\n        /* \"contracts/FLIR_Contract.sol\":1498:1501  351 */\n      0x015f\n        /* \"contracts/FLIR_Contract.sol\":1491:1495  Cimp */\n      dup3\n        /* \"contracts/FLIR_Contract.sol\":1491:1501  Cimp < 351 */\n      lt\n        /* \"contracts/FLIR_Contract.sol\":1477:1501  Cimp > 250 && Cimp < 351 */\n    tag_129:\n        /* \"contracts/FLIR_Contract.sol\":1474:1695  if(Cimp > 250 && Cimp < 351){... */\n      iszero\n      tag_130\n      jumpi\n        /* \"contracts/FLIR_Contract.sol\":1528:1532  btc6 */\n      sload(0x06)\n        /* \"contracts/FLIR_Contract.sol\":1521:1525  Cimp */\n      dup3\n        /* \"contracts/FLIR_Contract.sol\":1521:1532  Cimp * btc6 */\n      tag_131\n      swap2\n      swap1\n      tag_78\n      jump\t// in\n    tag_131:\n        /* \"contracts/FLIR_Contract.sol\":1516:1532  Tc = Cimp * btc6 */\n      swap1\n      pop\n        /* \"contracts/FLIR_Contract.sol\":1474:1695  if(Cimp > 250 && Cimp < 351){... */\n      jump(tag_132)\n    tag_130:\n        /* \"contracts/FLIR_Contract.sol\":1567:1570  350 */\n      0x015e\n        /* \"contracts/FLIR_Contract.sol\":1560:1564  Cimp */\n      dup3\n        /* \"contracts/FLIR_Contract.sol\":1560:1570  Cimp > 350 */\n      gt\n        /* \"contracts/FLIR_Contract.sol\":1560:1584  Cimp > 350 && Cimp < 451 */\n      dup1\n      iszero\n      tag_133\n      jumpi\n      pop\n        /* \"contracts/FLIR_Contract.sol\":1581:1584  451 */\n      0x01c3\n        /* \"contracts/FLIR_Contract.sol\":1574:1578  Cimp */\n      dup3\n        /* \"contracts/FLIR_Contract.sol\":1574:1584  Cimp < 451 */\n      lt\n        /* \"contracts/FLIR_Contract.sol\":1560:1584  Cimp > 350 && Cimp < 451 */\n    tag_133:\n        /* \"contracts/FLIR_Contract.sol\":1557:1695  if(Cimp > 350 && Cimp < 451){... */\n      iszero\n      tag_134\n      jumpi\n        /* \"contracts/FLIR_Contract.sol\":1611:1615  btc7 */\n      sload(0x07)\n        /* \"contracts/FLIR_Contract.sol\":1604:1608  Cimp */\n      dup3\n        /* \"contracts/FLIR_Contract.sol\":1604:1615  Cimp * btc7 */\n      tag_135\n      swap2\n      swap1\n      tag_78\n      jump\t// in\n    tag_135:\n        /* \"contracts/FLIR_Contract.sol\":1599:1615  Tc = Cimp * btc7 */\n      swap1\n      pop\n        /* \"contracts/FLIR_Contract.sol\":1557:1695  if(Cimp > 350 && Cimp < 451){... */\n      jump(tag_136)\n    tag_134:\n        /* \"contracts/FLIR_Contract.sol\":1650:1653  450 */\n      0x01c2\n        /* \"contracts/FLIR_Contract.sol\":1643:1647  Cimp */\n      dup3\n        /* \"contracts/FLIR_Contract.sol\":1643:1653  Cimp > 450 */\n      gt\n        /* \"contracts/FLIR_Contract.sol\":1640:1695  if(Cimp > 450){... */\n      iszero\n      tag_137\n      jumpi\n        /* \"contracts/FLIR_Contract.sol\":1680:1684  btc8 */\n      sload(0x08)\n        /* \"contracts/FLIR_Contract.sol\":1673:1677  Cimp */\n      dup3\n        /* \"contracts/FLIR_Contract.sol\":1673:1684  Cimp * btc8 */\n      tag_138\n      swap2\n      swap1\n      tag_78\n      jump\t// in\n    tag_138:\n        /* \"contracts/FLIR_Contract.sol\":1668:1684  Tc = Cimp * btc8 */\n      swap1\n      pop\n        /* \"contracts/FLIR_Contract.sol\":1640:1695  if(Cimp > 450){... */\n    tag_137:\n        /* \"contracts/FLIR_Contract.sol\":1557:1695  if(Cimp > 350 && Cimp < 451){... */\n    tag_136:\n        /* \"contracts/FLIR_Contract.sol\":1474:1695  if(Cimp > 250 && Cimp < 351){... */\n    tag_132:\n        /* \"contracts/FLIR_Contract.sol\":813:1695  if(Cimp < 251){... */\n    tag_128:\n        /* \"contracts/FLIR_Contract.sol\":732:1722  function getConsumerTariff(uint Cimp) public returns (uint Tc){... */\n      swap2\n      swap1\n      pop\n      jump\t// out\n        /* \"contracts/FLIR_Contract.sol\":365:386  uint public btc8 = 10 */\n    tag_55:\n      sload(0x08)\n      dup2\n      jump\t// out\n        /* \"contracts/FLIR_Contract.sol\":313:333  uint public btc6 = 8 */\n    tag_59:\n      sload(0x06)\n      dup2\n      jump\t// out\n        /* \"contracts/FLIR_Contract.sol\":183:203  uint public btc1 = 3 */\n    tag_63:\n      sload(0x01)\n      dup2\n      jump\t// out\n        /* \"contracts/FLIR_Contract.sol\":339:359  uint public btc7 = 9 */\n    tag_67:\n      sload(0x07)\n      dup2\n      jump\t// out\n        /* \"contracts/FLIR_Contract.sol\":393:605  function getnPnCnEV(uint nPget, uint nCget,uint nEVget) public pure... */\n    tag_73:\n        /* \"contracts/FLIR_Contract.sol\":474:481  uint nP */\n      0x00\n        /* \"contracts/FLIR_Contract.sol\":482:489  uint nC */\n      dup1\n        /* \"contracts/FLIR_Contract.sol\":490:498  uint nEV */\n      0x00\n        /* \"contracts/FLIR_Contract.sol\":523:528  nPget */\n      dup6\n        /* \"contracts/FLIR_Contract.sol\":518:528  nP = nPget */\n      swap3\n      pop\n        /* \"contracts/FLIR_Contract.sol\":543:548  nCget */\n      dup5\n        /* \"contracts/FLIR_Contract.sol\":538:548  nC = nCget */\n      swap2\n      pop\n        /* \"contracts/FLIR_Contract.sol\":564:570  nEVget */\n      dup4\n        /* \"contracts/FLIR_Contract.sol\":558:570  nEV = nEVget */\n      swap1\n      pop\n        /* \"contracts/FLIR_Contract.sol\":393:605  function getnPnCnEV(uint nPget, uint nCget,uint nEVget) public pure... */\n      swap4\n      pop\n      swap4\n      pop\n      swap4\n      swap1\n      pop\n      jump\t// out\n        /* \"#utility.yul\":7:162   */\n    tag_141:\n        /* \"#utility.yul\":61:66   */\n      0x00\n        /* \"#utility.yul\":99:105   */\n      dup2\n        /* \"#utility.yul\":86:106   */\n      calldataload\n        /* \"#utility.yul\":77:106   */\n      swap1\n      pop\n        /* \"#utility.yul\":115:156   */\n      tag_143\n        /* \"#utility.yul\":150:155   */\n      dup2\n        /* \"#utility.yul\":115:156   */\n      tag_144\n      jump\t// in\n    tag_143:\n        /* \"#utility.yul\":7:162   */\n      swap3\n      swap2\n      pop\n      pop\n      jump\t// out\n        /* \"#utility.yul\":168:307   */\n    tag_145:\n        /* \"#utility.yul\":214:219   */\n      0x00\n        /* \"#utility.yul\":252:258   */\n      dup2\n        /* \"#utility.yul\":239:259   */\n      calldataload\n        /* \"#utility.yul\":230:259   */\n      swap1\n      pop\n        /* \"#utility.yul\":268:301   */\n      tag_147\n        /* \"#utility.yul\":295:300   */\n      dup2\n        /* \"#utility.yul\":268:301   */\n      tag_148\n      jump\t// in\n    tag_147:\n        /* \"#utility.yul\":168:307   */\n      swap3\n      swap2\n      pop\n      pop\n      jump\t// out\n        /* \"#utility.yul\":313:658   */\n    tag_46:\n        /* \"#utility.yul\":380:386   */\n      0x00\n        /* \"#utility.yul\":429:431   */\n      0x20\n        /* \"#utility.yul\":417:426   */\n      dup3\n        /* \"#utility.yul\":408:415   */\n      dup5\n        /* \"#utility.yul\":404:427   */\n      sub\n        /* \"#utility.yul\":400:432   */\n      slt\n        /* \"#utility.yul\":397:516   */\n      iszero\n      tag_150\n      jumpi\n        /* \"#utility.yul\":435:514   */\n      tag_151\n      tag_152\n      jump\t// in\n    tag_151:\n        /* \"#utility.yul\":397:516   */\n    tag_150:\n        /* \"#utility.yul\":555:556   */\n      0x00\n        /* \"#utility.yul\":580:641   */\n      tag_153\n        /* \"#utility.yul\":633:640   */\n      dup5\n        /* \"#utility.yul\":624:630   */\n      dup3\n        /* \"#utility.yul\":613:622   */\n      dup6\n        /* \"#utility.yul\":609:631   */\n      add\n        /* \"#utility.yul\":580:641   */\n      tag_141\n      jump\t// in\n    tag_153:\n        /* \"#utility.yul\":570:641   */\n      swap2\n      pop\n        /* \"#utility.yul\":526:651   */\n      pop\n        /* \"#utility.yul\":313:658   */\n      swap3\n      swap2\n      pop\n      pop\n      jump\t// out\n        /* \"#utility.yul\":664:993   */\n    tag_41:\n        /* \"#utility.yul\":723:729   */\n      0x00\n        /* \"#utility.yul\":772:774   */\n      0x20\n        /* \"#utility.yul\":760:769   */\n      dup3\n        /* \"#utility.yul\":751:758   */\n      dup5\n        /* \"#utility.yul\":747:770   */\n      sub\n        /* \"#utility.yul\":743:775   */\n      slt\n        /* \"#utility.yul\":740:859   */\n      iszero\n      tag_155\n      jumpi\n        /* \"#utility.yul\":778:857   */\n      tag_156\n      tag_152\n      jump\t// in\n    tag_156:\n        /* \"#utility.yul\":740:859   */\n    tag_155:\n        /* \"#utility.yul\":898:899   */\n      0x00\n        /* \"#utility.yul\":923:976   */\n      tag_157\n        /* \"#utility.yul\":968:975   */\n      dup5\n        /* \"#utility.yul\":959:965   */\n      dup3\n        /* \"#utility.yul\":948:957   */\n      dup6\n        /* \"#utility.yul\":944:966   */\n      add\n        /* \"#utility.yul\":923:976   */\n      tag_145\n      jump\t// in\n    tag_157:\n        /* \"#utility.yul\":913:976   */\n      swap2\n      pop\n        /* \"#utility.yul\":869:986   */\n      pop\n        /* \"#utility.yul\":664:993   */\n      swap3\n      swap2\n      pop\n      pop\n      jump\t// out\n        /* \"#utility.yul\":999:1618   */\n    tag_72:\n        /* \"#utility.yul\":1076:1082   */\n      0x00\n        /* \"#utility.yul\":1084:1090   */\n      dup1\n        /* \"#utility.yul\":1092:1098   */\n      0x00\n        /* \"#utility.yul\":1141:1143   */\n      0x60\n        /* \"#utility.yul\":1129:1138   */\n      dup5\n        /* \"#utility.yul\":1120:1127   */\n      dup7\n        /* \"#utility.yul\":1116:1139   */\n      sub\n        /* \"#utility.yul\":1112:1144   */\n      slt\n        /* \"#utility.yul\":1109:1228   */\n      iszero\n      tag_159\n      jumpi\n        /* \"#utility.yul\":1147:1226   */\n      tag_160\n      tag_152\n      jump\t// in\n    tag_160:\n        /* \"#utility.yul\":1109:1228   */\n    tag_159:\n        /* \"#utility.yul\":1267:1268   */\n      0x00\n        /* \"#utility.yul\":1292:1345   */\n      tag_161\n        /* \"#utility.yul\":1337:1344   */\n      dup7\n        /* \"#utility.yul\":1328:1334   */\n      dup3\n        /* \"#utility.yul\":1317:1326   */\n      dup8\n        /* \"#utility.yul\":1313:1335   */\n      add\n        /* \"#utility.yul\":1292:1345   */\n      tag_145\n      jump\t// in\n    tag_161:\n        /* \"#utility.yul\":1282:1345   */\n      swap4\n      pop\n        /* \"#utility.yul\":1238:1355   */\n      pop\n        /* \"#utility.yul\":1394:1396   */\n      0x20\n        /* \"#utility.yul\":1420:1473   */\n      tag_162\n        /* \"#utility.yul\":1465:1472   */\n      dup7\n        /* \"#utility.yul\":1456:1462   */\n      dup3\n        /* \"#utility.yul\":1445:1454   */\n      dup8\n        /* \"#utility.yul\":1441:1463   */\n      add\n        /* \"#utility.yul\":1420:1473   */\n      tag_145\n      jump\t// in\n    tag_162:\n        /* \"#utility.yul\":1410:1473   */\n      swap3\n      pop\n        /* \"#utility.yul\":1365:1483   */\n      pop\n        /* \"#utility.yul\":1522:1524   */\n      0x40\n        /* \"#utility.yul\":1548:1601   */\n      tag_163\n        /* \"#utility.yul\":1593:1600   */\n      dup7\n        /* \"#utility.yul\":1584:1590   */\n      dup3\n        /* \"#utility.yul\":1573:1582   */\n      dup8\n        /* \"#utility.yul\":1569:1591   */\n      add\n        /* \"#utility.yul\":1548:1601   */\n      tag_145\n      jump\t// in\n    tag_163:\n        /* \"#utility.yul\":1538:1601   */\n      swap2\n      pop\n        /* \"#utility.yul\":1493:1611   */\n      pop\n        /* \"#utility.yul\":999:1618   */\n      swap3\n      pop\n      swap3\n      pop\n      swap3\n      jump\t// out\n        /* \"#utility.yul\":1624:1742   */\n    tag_164:\n        /* \"#utility.yul\":1711:1735   */\n      tag_166\n        /* \"#utility.yul\":1729:1734   */\n      dup2\n        /* \"#utility.yul\":1711:1735   */\n      tag_167\n      jump\t// in\n    tag_166:\n        /* \"#utility.yul\":1706:1709   */\n      dup3\n        /* \"#utility.yul\":1699:1736   */\n      mstore\n        /* \"#utility.yul\":1624:1742   */\n      pop\n      pop\n      jump\t// out\n        /* \"#utility.yul\":1748:1970   */\n    tag_21:\n        /* \"#utility.yul\":1841:1845   */\n      0x00\n        /* \"#utility.yul\":1879:1881   */\n      0x20\n        /* \"#utility.yul\":1868:1877   */\n      dup3\n        /* \"#utility.yul\":1864:1882   */\n      add\n        /* \"#utility.yul\":1856:1882   */\n      swap1\n      pop\n        /* \"#utility.yul\":1892:1963   */\n      tag_169\n        /* \"#utility.yul\":1960:1961   */\n      0x00\n        /* \"#utility.yul\":1949:1958   */\n      dup4\n        /* \"#utility.yul\":1945:1962   */\n      add\n        /* \"#utility.yul\":1936:1942   */\n      dup5\n        /* \"#utility.yul\":1892:1963   */\n      tag_164\n      jump\t// in\n    tag_169:\n        /* \"#utility.yul\":1748:1970   */\n      swap3\n      swap2\n      pop\n      pop\n      jump\t// out\n        /* \"#utility.yul\":1976:2418   */\n    tag_75:\n        /* \"#utility.yul\":2125:2129   */\n      0x00\n        /* \"#utility.yul\":2163:2165   */\n      0x60\n        /* \"#utility.yul\":2152:2161   */\n      dup3\n        /* \"#utility.yul\":2148:2166   */\n      add\n        /* \"#utility.yul\":2140:2166   */\n      swap1\n      pop\n        /* \"#utility.yul\":2176:2247   */\n      tag_171\n        /* \"#utility.yul\":2244:2245   */\n      0x00\n        /* \"#utility.yul\":2233:2242   */\n      dup4\n        /* \"#utility.yul\":2229:2246   */\n      add\n        /* \"#utility.yul\":2220:2226   */\n      dup7\n        /* \"#utility.yul\":2176:2247   */\n      tag_164\n      jump\t// in\n    tag_171:\n        /* \"#utility.yul\":2257:2329   */\n      tag_172\n        /* \"#utility.yul\":2325:2327   */\n      0x20\n        /* \"#utility.yul\":2314:2323   */\n      dup4\n        /* \"#utility.yul\":2310:2328   */\n      add\n        /* \"#utility.yul\":2301:2307   */\n      dup6\n        /* \"#utility.yul\":2257:2329   */\n      tag_164\n      jump\t// in\n    tag_172:\n        /* \"#utility.yul\":2339:2411   */\n      tag_173\n        /* \"#utility.yul\":2407:2409   */\n      0x40\n        /* \"#utility.yul\":2396:2405   */\n      dup4\n        /* \"#utility.yul\":2392:2410   */\n      add\n        /* \"#utility.yul\":2383:2389   */\n      dup5\n        /* \"#utility.yul\":2339:2411   */\n      tag_164\n      jump\t// in\n    tag_173:\n        /* \"#utility.yul\":1976:2418   */\n      swap5\n      swap4\n      pop\n      pop\n      pop\n      pop\n      jump\t// out\n        /* \"#utility.yul\":2505:2810   */\n    tag_94:\n        /* \"#utility.yul\":2545:2548   */\n      0x00\n        /* \"#utility.yul\":2564:2584   */\n      tag_177\n        /* \"#utility.yul\":2582:2583   */\n      dup3\n        /* \"#utility.yul\":2564:2584   */\n      tag_167\n      jump\t// in\n    tag_177:\n        /* \"#utility.yul\":2559:2584   */\n      swap2\n      pop\n        /* \"#utility.yul\":2598:2618   */\n      tag_178\n        /* \"#utility.yul\":2616:2617   */\n      dup4\n        /* \"#utility.yul\":2598:2618   */\n      tag_167\n      jump\t// in\n    tag_178:\n        /* \"#utility.yul\":2593:2618   */\n      swap3\n      pop\n        /* \"#utility.yul\":2752:2753   */\n      dup3\n        /* \"#utility.yul\":2684:2750   */\n      0xffffffffffffffffffffffffffffffffffffffffffffffffffffffffffffffff\n        /* \"#utility.yul\":2680:2754   */\n      sub\n        /* \"#utility.yul\":2677:2678   */\n      dup3\n        /* \"#utility.yul\":2674:2755   */\n      gt\n        /* \"#utility.yul\":2671:2778   */\n      iszero\n      tag_179\n      jumpi\n        /* \"#utility.yul\":2758:2776   */\n      tag_180\n      tag_181\n      jump\t// in\n    tag_180:\n        /* \"#utility.yul\":2671:2778   */\n    tag_179:\n        /* \"#utility.yul\":2802:2803   */\n      dup3\n        /* \"#utility.yul\":2799:2800   */\n      dup3\n        /* \"#utility.yul\":2795:2804   */\n      add\n        /* \"#utility.yul\":2788:2804   */\n      swap1\n      pop\n        /* \"#utility.yul\":2505:2810   */\n      swap3\n      swap2\n      pop\n      pop\n      jump\t// out\n        /* \"#utility.yul\":2816:3164   */\n    tag_78:\n        /* \"#utility.yul\":2856:2863   */\n      0x00\n        /* \"#utility.yul\":2879:2899   */\n      tag_183\n        /* \"#utility.yul\":2897:2898   */\n      dup3\n        /* \"#utility.yul\":2879:2899   */\n      tag_167\n      jump\t// in\n    tag_183:\n        /* \"#utility.yul\":2874:2899   */\n      swap2\n      pop\n        /* \"#utility.yul\":2913:2933   */\n      tag_184\n        /* \"#utility.yul\":2931:2932   */\n      dup4\n        /* \"#utility.yul\":2913:2933   */\n      tag_167\n      jump\t// in\n    tag_184:\n        /* \"#utility.yul\":2908:2933   */\n      swap3\n      pop\n        /* \"#utility.yul\":3101:3102   */\n      dup2\n        /* \"#utility.yul\":3033:3099   */\n      0xffffffffffffffffffffffffffffffffffffffffffffffffffffffffffffffff\n        /* \"#utility.yul\":3029:3103   */\n      div\n        /* \"#utility.yul\":3026:3027   */\n      dup4\n        /* \"#utility.yul\":3023:3104   */\n      gt\n        /* \"#utility.yul\":3018:3019   */\n      dup3\n        /* \"#utility.yul\":3011:3020   */\n      iszero\n        /* \"#utility.yul\":3004:3021   */\n      iszero\n        /* \"#utility.yul\":3000:3105   */\n      and\n        /* \"#utility.yul\":2997:3128   */\n      iszero\n      tag_185\n      jumpi\n        /* \"#utility.yul\":3108:3126   */\n      tag_186\n      tag_181\n      jump\t// in\n    tag_186:\n        /* \"#utility.yul\":2997:3128   */\n    tag_185:\n        /* \"#utility.yul\":3156:3157   */\n      dup3\n        /* \"#utility.yul\":3153:3154   */\n      dup3\n        /* \"#utility.yul\":3149:3158   */\n      mul\n        /* \"#utility.yul\":3138:3158   */\n      swap1\n      pop\n        /* \"#utility.yul\":2816:3164   */\n      swap3\n      swap2\n      pop\n      pop\n      jump\t// out\n        /* \"#utility.yul\":3170:3361   */\n    tag_90:\n        /* \"#utility.yul\":3210:3214   */\n      0x00\n        /* \"#utility.yul\":3230:3250   */\n      tag_188\n        /* \"#utility.yul\":3248:3249   */\n      dup3\n        /* \"#utility.yul\":3230:3250   */\n      tag_167\n      jump\t// in\n    tag_188:\n        /* \"#utility.yul\":3225:3250   */\n      swap2\n      pop\n        /* \"#utility.yul\":3264:3284   */\n      tag_189\n        /* \"#utility.yul\":3282:3283   */\n      dup4\n        /* \"#utility.yul\":3264:3284   */\n      tag_167\n      jump\t// in\n    tag_189:\n        /* \"#utility.yul\":3259:3284   */\n      swap3\n      pop\n        /* \"#utility.yul\":3303:3304   */\n      dup3\n        /* \"#utility.yul\":3300:3301   */\n      dup3\n        /* \"#utility.yul\":3297:3305   */\n      lt\n        /* \"#utility.yul\":3294:3328   */\n      iszero\n      tag_190\n      jumpi\n        /* \"#utility.yul\":3308:3326   */\n      tag_191\n      tag_181\n      jump\t// in\n    tag_191:\n        /* \"#utility.yul\":3294:3328   */\n    tag_190:\n        /* \"#utility.yul\":3353:3354   */\n      dup3\n        /* \"#utility.yul\":3350:3351   */\n      dup3\n        /* \"#utility.yul\":3346:3355   */\n      sub\n        /* \"#utility.yul\":3338:3355   */\n      swap1\n      pop\n        /* \"#utility.yul\":3170:3361   */\n      swap3\n      swap2\n      pop\n      pop\n      jump\t// out\n        /* \"#utility.yul\":3367:3471   */\n    tag_192:\n        /* \"#utility.yul\":3412:3419   */\n      0x00\n        /* \"#utility.yul\":3441:3465   */\n      tag_194\n        /* \"#utility.yul\":3459:3464   */\n      dup3\n        /* \"#utility.yul\":3441:3465   */\n      tag_195\n      jump\t// in\n    tag_194:\n        /* \"#utility.yul\":3430:3465   */\n      swap1\n      pop\n        /* \"#utility.yul\":3367:3471   */\n      swap2\n      swap1\n      pop\n      jump\t// out\n        /* \"#utility.yul\":3477:3603   */\n    tag_195:\n        /* \"#utility.yul\":3514:3521   */\n      0x00\n        /* \"#utility.yul\":3554:3596   */\n      0xffffffffffffffffffffffffffffffffffffffff\n        /* \"#utility.yul\":3547:3552   */\n      dup3\n        /* \"#utility.yul\":3543:3597   */\n      and\n        /* \"#utility.yul\":3532:3597   */\n      swap1\n      pop\n        /* \"#utility.yul\":3477:3603   */\n      swap2\n      swap1\n      pop\n      jump\t// out\n        /* \"#utility.yul\":3609:3686   */\n    tag_167:\n        /* \"#utility.yul\":3646:3653   */\n      0x00\n        /* \"#utility.yul\":3675:3680   */\n      dup2\n        /* \"#utility.yul\":3664:3680   */\n      swap1\n      pop\n        /* \"#utility.yul\":3609:3686   */\n      swap2\n      swap1\n      pop\n      jump\t// out\n        /* \"#utility.yul\":3692:3872   */\n    tag_181:\n        /* \"#utility.yul\":3740:3817   */\n      0x4e487b7100000000000000000000000000000000000000000000000000000000\n        /* \"#utility.yul\":3737:3738   */\n      0x00\n        /* \"#utility.yul\":3730:3818   */\n      mstore\n        /* \"#utility.yul\":3837:3841   */\n      0x11\n        /* \"#utility.yul\":3834:3835   */\n      0x04\n        /* \"#utility.yul\":3827:3842   */\n      mstore\n        /* \"#utility.yul\":3861:3865   */\n      0x24\n        /* \"#utility.yul\":3858:3859   */\n      0x00\n        /* \"#utility.yul\":3851:3866   */\n      revert\n        /* \"#utility.yul\":4001:4118   */\n    tag_152:\n        /* \"#utility.yul\":4110:4111   */\n      0x00\n        /* \"#utility.yul\":4107:4108   */\n      dup1\n        /* \"#utility.yul\":4100:4112   */\n      revert\n        /* \"#utility.yul\":4124:4262   */\n    tag_144:\n        /* \"#utility.yul\":4205:4237   */\n      tag_203\n        /* \"#utility.yul\":4231:4236   */\n      dup2\n        /* \"#utility.yul\":4205:4237   */\n      tag_192\n      jump\t// in\n    tag_203:\n        /* \"#utility.yul\":4198:4203   */\n      dup2\n        /* \"#utility.yul\":4195:4238   */\n      eq\n        /* \"#utility.yul\":4185:4256   */\n      tag_204\n      jumpi\n        /* \"#utility.yul\":4252:4253   */\n      0x00\n        /* \"#utility.yul\":4249:4250   */\n      dup1\n        /* \"#utility.yul\":4242:4254   */\n      revert\n        /* \"#utility.yul\":4185:4256   */\n    tag_204:\n        /* \"#utility.yul\":4124:4262   */\n      pop\n      jump\t// out\n        /* \"#utility.yul\":4268:4390   */\n    tag_148:\n        /* \"#utility.yul\":4341:4365   */\n      tag_206\n        /* \"#utility.yul\":4359:4364   */\n      dup2\n        /* \"#utility.yul\":4341:4365   */\n      tag_167\n      jump\t// in\n    tag_206:\n        /* \"#utility.yul\":4334:4339   */\n      dup2\n        /* \"#utility.yul\":4331:4366   */\n      eq\n        /* \"#utility.yul\":4321:4384   */\n      tag_207\n      jumpi\n        /* \"#utility.yul\":4380:4381   */\n      0x00\n        /* \"#utility.yul\":4377:4378   */\n      dup1\n        /* \"#utility.yul\":4370:4382   */\n      revert\n        /* \"#utility.yul\":4321:4384   */\n    tag_207:\n        /* \"#utility.yul\":4268:4390   */\n      pop\n      jump\t// out\n\n    auxdata: 0xa26469706673582212204f72b3804d31f72f4e83fb628ea67971ecebad32dfa4d7122159247b8affac8b64736f6c63430008070033\n}\n",
				"bytecode": {
					"linkReferences": {},
					"object": "608060405260036000556003600155600460025560056003556006600455600760055560086006556009600755600a60085534801561003d57600080fd5b506109368061004d6000396000f3fe6080604052600436106100c25760003560e01c8063636e082b1161007f578063b4ad7fa911610059578063b4ad7fa91461025f578063c2c496ec1461028a578063ed2fa5ab146102b5578063f02e48c3146102e0576100c2565b8063636e082b146101db578063721028ec146101f7578063a8bdb68b14610234576100c2565b80630c03a1a3146100c7578063103347e7146100f257806320e731a11461011d57806328780a44146101485780632c9af64c146101735780635c8f6b561461019e575b600080fd5b3480156100d357600080fd5b506100dc61031f565b6040516100e9919061072c565b60405180910390f35b3480156100fe57600080fd5b50610107610325565b604051610114919061072c565b60405180910390f35b34801561012957600080fd5b5061013261032b565b60405161013f919061072c565b60405180910390f35b34801561015457600080fd5b5061015d610331565b60405161016a919061072c565b60405180910390f35b34801561017f57600080fd5b50610188610337565b604051610195919061072c565b60405180910390f35b3480156101aa57600080fd5b506101c560048036038101906101c0919061069d565b61033d565b6040516101d2919061072c565b60405180910390f35b6101f560048036038101906101f09190610670565b610353565b005b34801561020357600080fd5b5061021e6004803603810190610219919061069d565b61039d565b60405161022b919061072c565b60405180910390f35b34801561024057600080fd5b50610249610617565b604051610256919061072c565b60405180910390f35b34801561026b57600080fd5b5061027461061d565b604051610281919061072c565b60405180910390f35b34801561029657600080fd5b5061029f610623565b6040516102ac919061072c565b60405180910390f35b3480156102c157600080fd5b506102ca610629565b6040516102d7919061072c565b60405180910390f35b3480156102ec57600080fd5b50610307600480360381019061030291906106ca565b61062f565b60405161031693929190610747565b60405180910390f35b60055481565b60045481565b60035481565b60025481565b60005481565b600080548261034c91906107d4565b9050919050565b8073ffffffffffffffffffffffffffffffffffffffff166108fc349081150290604051600060405180830381858888f19350505050158015610399573d6000803e3d6000fd5b5050565b600060fb82101561059d5760338210156103c657600154826103bf91906107d4565b9050610598565b6032821180156103d65750606582105b15610415576002546032836103eb919061082e565b6103f591906107d4565b600154603261040491906107d4565b61040e919061077e565b9050610597565b6064821180156104255750609782105b1561047d5760035460328361043a919061082e565b61044491906107d4565b600254603261045391906107d4565b600154603261046291906107d4565b61046c919061077e565b610476919061077e565b9050610596565b60968211801561048d575060c982105b156104fe576004546032836104a2919061082e565b6104ac91906107d4565b60035460326104bb91906107d4565b60025460326104ca91906107d4565b60015460326104d991906107d4565b6104e3919061077e565b6104ed919061077e565b6104f7919061077e565b9050610595565b60c88211801561050e575060fb82105b1561059457600554603283610523919061082e565b61052d91906107d4565b600454603261053c91906107d4565b600354603261054b91906107d4565b600254603261055a91906107d4565b600154603261056991906107d4565b610573919061077e565b61057d919061077e565b610587919061077e565b610591919061077e565b90505b5b5b5b5b610612565b60fa821180156105ae575061015f82105b156105c857600654826105c191906107d4565b9050610611565b61015e821180156105da57506101c382105b156105f457600754826105ed91906107d4565b9050610610565b6101c282111561060f576008548261060c91906107d4565b90505b5b5b5b919050565b60085481565b60065481565b60015481565b60075481565b600080600085925084915083905093509350939050565b600081359050610655816108d2565b92915050565b60008135905061066a816108e9565b92915050565b600060208284031215610686576106856108cd565b5b600061069484828501610646565b91505092915050565b6000602082840312156106b3576106b26108cd565b5b60006106c18482850161065b565b91505092915050565b6000806000606084860312156106e3576106e26108cd565b5b60006106f18682870161065b565b93505060206107028682870161065b565b92505060406107138682870161065b565b9150509250925092565b61072681610894565b82525050565b6000602082019050610741600083018461071d565b92915050565b600060608201905061075c600083018661071d565b610769602083018561071d565b610776604083018461071d565b949350505050565b600061078982610894565b915061079483610894565b9250827fffffffffffffffffffffffffffffffffffffffffffffffffffffffffffffffff038211156107c9576107c861089e565b5b828201905092915050565b60006107df82610894565b91506107ea83610894565b9250817fffffffffffffffffffffffffffffffffffffffffffffffffffffffffffffffff04831182151516156108235761082261089e565b5b828202905092915050565b600061083982610894565b915061084483610894565b9250828210156108575761085661089e565b5b828203905092915050565b600061086d82610874565b9050919050565b600073ffffffffffffffffffffffffffffffffffffffff82169050919050565b6000819050919050565b7f4e487b7100000000000000000000000000000000000000000000000000000000600052601160045260246000fd5b600080fd5b6108db81610862565b81146108e657600080fd5b50565b6108f281610894565b81146108fd57600080fd5b5056fea26469706673582212204f72b3804d31f72f4e83fb628ea67971ecebad32dfa4d7122159247b8affac8b64736f6c63430008070033",
					"opcodes": "PUSH1 0x80 PUSH1 0x40 MSTORE PUSH1 0x3 PUSH1 0x0 SSTORE PUSH1 0x3 PUSH1 0x1 SSTORE PUSH1 0x4 PUSH1 0x2 SSTORE PUSH1 0x5 PUSH1 0x3 SSTORE PUSH1 0x6 PUSH1 0x4 SSTORE PUSH1 0x7 PUSH1 0x5 SSTORE PUSH1 0x8 PUSH1 0x6 SSTORE PUSH1 0x9 PUSH1 0x7 SSTORE PUSH1 0xA PUSH1 0x8 SSTORE CALLVALUE DUP1 ISZERO PUSH2 0x3D JUMPI PUSH1 0x0 DUP1 REVERT JUMPDEST POP PUSH2 0x936 DUP1 PUSH2 0x4D PUSH1 0x0 CODECOPY PUSH1 0x0 RETURN INVALID PUSH1 0x80 PUSH1 0x40 MSTORE PUSH1 0x4 CALLDATASIZE LT PUSH2 0xC2 JUMPI PUSH1 0x0 CALLDATALOAD PUSH1 0xE0 SHR DUP1 PUSH4 0x636E082B GT PUSH2 0x7F JUMPI DUP1 PUSH4 0xB4AD7FA9 GT PUSH2 0x59 JUMPI DUP1 PUSH4 0xB4AD7FA9 EQ PUSH2 0x25F JUMPI DUP1 PUSH4 0xC2C496EC EQ PUSH2 0x28A JUMPI DUP1 PUSH4 0xED2FA5AB EQ PUSH2 0x2B5 JUMPI DUP1 PUSH4 0xF02E48C3 EQ PUSH2 0x2E0 JUMPI PUSH2 0xC2 JUMP JUMPDEST DUP1 PUSH4 0x636E082B EQ PUSH2 0x1DB JUMPI DUP1 PUSH4 0x721028EC EQ PUSH2 0x1F7 JUMPI DUP1 PUSH4 0xA8BDB68B EQ PUSH2 0x234 JUMPI PUSH2 0xC2 JUMP JUMPDEST DUP1 PUSH4 0xC03A1A3 EQ PUSH2 0xC7 JUMPI DUP1 PUSH4 0x103347E7 EQ PUSH2 0xF2 JUMPI DUP1 PUSH4 0x20E731A1 EQ PUSH2 0x11D JUMPI DUP1 PUSH4 0x28780A44 EQ PUSH2 0x148 JUMPI DUP1 PUSH4 0x2C9AF64C EQ PUSH2 0x173 JUMPI DUP1 PUSH4 0x5C8F6B56 EQ PUSH2 0x19E JUMPI JUMPDEST PUSH1 0x0 DUP1 REVERT JUMPDEST CALLVALUE DUP1 ISZERO PUSH2 0xD3 JUMPI PUSH1 0x0 DUP1 REVERT JUMPDEST POP PUSH2 0xDC PUSH2 0x31F JUMP JUMPDEST PUSH1 0x40 MLOAD PUSH2 0xE9 SWAP2 SWAP1 PUSH2 0x72C JUMP JUMPDEST PUSH1 0x40 MLOAD DUP1 SWAP2 SUB SWAP1 RETURN JUMPDEST CALLVALUE DUP1 ISZERO PUSH2 0xFE JUMPI PUSH1 0x0 DUP1 REVERT JUMPDEST POP PUSH2 0x107 PUSH2 0x325 JUMP JUMPDEST PUSH1 0x40 MLOAD PUSH2 0x114 SWAP2 SWAP1 PUSH2 0x72C JUMP JUMPDEST PUSH1 0x40 MLOAD DUP1 SWAP2 SUB SWAP1 RETURN JUMPDEST CALLVALUE DUP1 ISZERO PUSH2 0x129 JUMPI PUSH1 0x0 DUP1 REVERT JUMPDEST POP PUSH2 0x132 PUSH2 0x32B JUMP JUMPDEST PUSH1 0x40 MLOAD PUSH2 0x13F SWAP2 SWAP1 PUSH2 0x72C JUMP JUMPDEST PUSH1 0x40 MLOAD DUP1 SWAP2 SUB SWAP1 RETURN JUMPDEST CALLVALUE DUP1 ISZERO PUSH2 0x154 JUMPI PUSH1 0x0 DUP1 REVERT JUMPDEST POP PUSH2 0x15D PUSH2 0x331 JUMP JUMPDEST PUSH1 0x40 MLOAD PUSH2 0x16A SWAP2 SWAP1 PUSH2 0x72C JUMP JUMPDEST PUSH1 0x40 MLOAD DUP1 SWAP2 SUB SWAP1 RETURN JUMPDEST CALLVALUE DUP1 ISZERO PUSH2 0x17F JUMPI PUSH1 0x0 DUP1 REVERT JUMPDEST POP PUSH2 0x188 PUSH2 0x337 JUMP JUMPDEST PUSH1 0x40 MLOAD PUSH2 0x195 SWAP2 SWAP1 PUSH2 0x72C JUMP JUMPDEST PUSH1 0x40 MLOAD DUP1 SWAP2 SUB SWAP1 RETURN JUMPDEST CALLVALUE DUP1 ISZERO PUSH2 0x1AA JUMPI PUSH1 0x0 DUP1 REVERT JUMPDEST POP PUSH2 0x1C5 PUSH1 0x4 DUP1 CALLDATASIZE SUB DUP2 ADD SWAP1 PUSH2 0x1C0 SWAP2 SWAP1 PUSH2 0x69D JUMP JUMPDEST PUSH2 0x33D JUMP JUMPDEST PUSH1 0x40 MLOAD PUSH2 0x1D2 SWAP2 SWAP1 PUSH2 0x72C JUMP JUMPDEST PUSH1 0x40 MLOAD DUP1 SWAP2 SUB SWAP1 RETURN JUMPDEST PUSH2 0x1F5 PUSH1 0x4 DUP1 CALLDATASIZE SUB DUP2 ADD SWAP1 PUSH2 0x1F0 SWAP2 SWAP1 PUSH2 0x670 JUMP JUMPDEST PUSH2 0x353 JUMP JUMPDEST STOP JUMPDEST CALLVALUE DUP1 ISZERO PUSH2 0x203 JUMPI PUSH1 0x0 DUP1 REVERT JUMPDEST POP PUSH2 0x21E PUSH1 0x4 DUP1 CALLDATASIZE SUB DUP2 ADD SWAP1 PUSH2 0x219 SWAP2 SWAP1 PUSH2 0x69D JUMP JUMPDEST PUSH2 0x39D JUMP JUMPDEST PUSH1 0x40 MLOAD PUSH2 0x22B SWAP2 SWAP1 PUSH2 0x72C JUMP JUMPDEST PUSH1 0x40 MLOAD DUP1 SWAP2 SUB SWAP1 RETURN JUMPDEST CALLVALUE DUP1 ISZERO PUSH2 0x240 JUMPI PUSH1 0x0 DUP1 REVERT JUMPDEST POP PUSH2 0x249 PUSH2 0x617 JUMP JUMPDEST PUSH1 0x40 MLOAD PUSH2 0x256 SWAP2 SWAP1 PUSH2 0x72C JUMP JUMPDEST PUSH1 0x40 MLOAD DUP1 SWAP2 SUB SWAP1 RETURN JUMPDEST CALLVALUE DUP1 ISZERO PUSH2 0x26B JUMPI PUSH1 0x0 DUP1 REVERT JUMPDEST POP PUSH2 0x274 PUSH2 0x61D JUMP JUMPDEST PUSH1 0x40 MLOAD PUSH2 0x281 SWAP2 SWAP1 PUSH2 0x72C JUMP JUMPDEST PUSH1 0x40 MLOAD DUP1 SWAP2 SUB SWAP1 RETURN JUMPDEST CALLVALUE DUP1 ISZERO PUSH2 0x296 JUMPI PUSH1 0x0 DUP1 REVERT JUMPDEST POP PUSH2 0x29F PUSH2 0x623 JUMP JUMPDEST PUSH1 0x40 MLOAD PUSH2 0x2AC SWAP2 SWAP1 PUSH2 0x72C JUMP JUMPDEST PUSH1 0x40 MLOAD DUP1 SWAP2 SUB SWAP1 RETURN JUMPDEST CALLVALUE DUP1 ISZERO PUSH2 0x2C1 JUMPI PUSH1 0x0 DUP1 REVERT JUMPDEST POP PUSH2 0x2CA PUSH2 0x629 JUMP JUMPDEST PUSH1 0x40 MLOAD PUSH2 0x2D7 SWAP2 SWAP1 PUSH2 0x72C JUMP JUMPDEST PUSH1 0x40 MLOAD DUP1 SWAP2 SUB SWAP1 RETURN JUMPDEST CALLVALUE DUP1 ISZERO PUSH2 0x2EC JUMPI PUSH1 0x0 DUP1 REVERT JUMPDEST POP PUSH2 0x307 PUSH1 0x4 DUP1 CALLDATASIZE SUB DUP2 ADD SWAP1 PUSH2 0x302 SWAP2 SWAP1 PUSH2 0x6CA JUMP JUMPDEST PUSH2 0x62F JUMP JUMPDEST PUSH1 0x40 MLOAD PUSH2 0x316 SWAP4 SWAP3 SWAP2 SWAP1 PUSH2 0x747 JUMP JUMPDEST PUSH1 0x40 MLOAD DUP1 SWAP2 SUB SWAP1 RETURN JUMPDEST PUSH1 0x5 SLOAD DUP2 JUMP JUMPDEST PUSH1 0x4 SLOAD DUP2 JUMP JUMPDEST PUSH1 0x3 SLOAD DUP2 JUMP JUMPDEST PUSH1 0x2 SLOAD DUP2 JUMP JUMPDEST PUSH1 0x0 SLOAD DUP2 JUMP JUMPDEST PUSH1 0x0 DUP1 SLOAD DUP3 PUSH2 0x34C SWAP2 SWAP1 PUSH2 0x7D4 JUMP JUMPDEST SWAP1 POP SWAP2 SWAP1 POP JUMP JUMPDEST DUP1 PUSH20 0xFFFFFFFFFFFFFFFFFFFFFFFFFFFFFFFFFFFFFFFF AND PUSH2 0x8FC CALLVALUE SWAP1 DUP2 ISZERO MUL SWAP1 PUSH1 0x40 MLOAD PUSH1 0x0 PUSH1 0x40 MLOAD DUP1 DUP4 SUB DUP2 DUP6 DUP9 DUP9 CALL SWAP4 POP POP POP POP ISZERO DUP1 ISZERO PUSH2 0x399 JUMPI RETURNDATASIZE PUSH1 0x0 DUP1 RETURNDATACOPY RETURNDATASIZE PUSH1 0x0 REVERT JUMPDEST POP POP JUMP JUMPDEST PUSH1 0x0 PUSH1 0xFB DUP3 LT ISZERO PUSH2 0x59D JUMPI PUSH1 0x33 DUP3 LT ISZERO PUSH2 0x3C6 JUMPI PUSH1 0x1 SLOAD DUP3 PUSH2 0x3BF SWAP2 SWAP1 PUSH2 0x7D4 JUMP JUMPDEST SWAP1 POP PUSH2 0x598 JUMP JUMPDEST PUSH1 0x32 DUP3 GT DUP1 ISZERO PUSH2 0x3D6 JUMPI POP PUSH1 0x65 DUP3 LT JUMPDEST ISZERO PUSH2 0x415 JUMPI PUSH1 0x2 SLOAD PUSH1 0x32 DUP4 PUSH2 0x3EB SWAP2 SWAP1 PUSH2 0x82E JUMP JUMPDEST PUSH2 0x3F5 SWAP2 SWAP1 PUSH2 0x7D4 JUMP JUMPDEST PUSH1 0x1 SLOAD PUSH1 0x32 PUSH2 0x404 SWAP2 SWAP1 PUSH2 0x7D4 JUMP JUMPDEST PUSH2 0x40E SWAP2 SWAP1 PUSH2 0x77E JUMP JUMPDEST SWAP1 POP PUSH2 0x597 JUMP JUMPDEST PUSH1 0x64 DUP3 GT DUP1 ISZERO PUSH2 0x425 JUMPI POP PUSH1 0x97 DUP3 LT JUMPDEST ISZERO PUSH2 0x47D JUMPI PUSH1 0x3 SLOAD PUSH1 0x32 DUP4 PUSH2 0x43A SWAP2 SWAP1 PUSH2 0x82E JUMP JUMPDEST PUSH2 0x444 SWAP2 SWAP1 PUSH2 0x7D4 JUMP JUMPDEST PUSH1 0x2 SLOAD PUSH1 0x32 PUSH2 0x453 SWAP2 SWAP1 PUSH2 0x7D4 JUMP JUMPDEST PUSH1 0x1 SLOAD PUSH1 0x32 PUSH2 0x462 SWAP2 SWAP1 PUSH2 0x7D4 JUMP JUMPDEST PUSH2 0x46C SWAP2 SWAP1 PUSH2 0x77E JUMP JUMPDEST PUSH2 0x476 SWAP2 SWAP1 PUSH2 0x77E JUMP JUMPDEST SWAP1 POP PUSH2 0x596 JUMP JUMPDEST PUSH1 0x96 DUP3 GT DUP1 ISZERO PUSH2 0x48D JUMPI POP PUSH1 0xC9 DUP3 LT JUMPDEST ISZERO PUSH2 0x4FE JUMPI PUSH1 0x4 SLOAD PUSH1 0x32 DUP4 PUSH2 0x4A2 SWAP2 SWAP1 PUSH2 0x82E JUMP JUMPDEST PUSH2 0x4AC SWAP2 SWAP1 PUSH2 0x7D4 JUMP JUMPDEST PUSH1 0x3 SLOAD PUSH1 0x32 PUSH2 0x4BB SWAP2 SWAP1 PUSH2 0x7D4 JUMP JUMPDEST PUSH1 0x2 SLOAD PUSH1 0x32 PUSH2 0x4CA SWAP2 SWAP1 PUSH2 0x7D4 JUMP JUMPDEST PUSH1 0x1 SLOAD PUSH1 0x32 PUSH2 0x4D9 SWAP2 SWAP1 PUSH2 0x7D4 JUMP JUMPDEST PUSH2 0x4E3 SWAP2 SWAP1 PUSH2 0x77E JUMP JUMPDEST PUSH2 0x4ED SWAP2 SWAP1 PUSH2 0x77E JUMP JUMPDEST PUSH2 0x4F7 SWAP2 SWAP1 PUSH2 0x77E JUMP JUMPDEST SWAP1 POP PUSH2 0x595 JUMP JUMPDEST PUSH1 0xC8 DUP3 GT DUP1 ISZERO PUSH2 0x50E JUMPI POP PUSH1 0xFB DUP3 LT JUMPDEST ISZERO PUSH2 0x594 JUMPI PUSH1 0x5 SLOAD PUSH1 0x32 DUP4 PUSH2 0x523 SWAP2 SWAP1 PUSH2 0x82E JUMP JUMPDEST PUSH2 0x52D SWAP2 SWAP1 PUSH2 0x7D4 JUMP JUMPDEST PUSH1 0x4 SLOAD PUSH1 0x32 PUSH2 0x53C SWAP2 SWAP1 PUSH2 0x7D4 JUMP JUMPDEST PUSH1 0x3 SLOAD PUSH1 0x32 PUSH2 0x54B SWAP2 SWAP1 PUSH2 0x7D4 JUMP JUMPDEST PUSH1 0x2 SLOAD PUSH1 0x32 PUSH2 0x55A SWAP2 SWAP1 PUSH2 0x7D4 JUMP JUMPDEST PUSH1 0x1 SLOAD PUSH1 0x32 PUSH2 0x569 SWAP2 SWAP1 PUSH2 0x7D4 JUMP JUMPDEST PUSH2 0x573 SWAP2 SWAP1 PUSH2 0x77E JUMP JUMPDEST PUSH2 0x57D SWAP2 SWAP1 PUSH2 0x77E JUMP JUMPDEST PUSH2 0x587 SWAP2 SWAP1 PUSH2 0x77E JUMP JUMPDEST PUSH2 0x591 SWAP2 SWAP1 PUSH2 0x77E JUMP JUMPDEST SWAP1 POP JUMPDEST JUMPDEST JUMPDEST JUMPDEST JUMPDEST PUSH2 0x612 JUMP JUMPDEST PUSH1 0xFA DUP3 GT DUP1 ISZERO PUSH2 0x5AE JUMPI POP PUSH2 0x15F DUP3 LT JUMPDEST ISZERO PUSH2 0x5C8 JUMPI PUSH1 0x6 SLOAD DUP3 PUSH2 0x5C1 SWAP2 SWAP1 PUSH2 0x7D4 JUMP JUMPDEST SWAP1 POP PUSH2 0x611 JUMP JUMPDEST PUSH2 0x15E DUP3 GT DUP1 ISZERO PUSH2 0x5DA JUMPI POP PUSH2 0x1C3 DUP3 LT JUMPDEST ISZERO PUSH2 0x5F4 JUMPI PUSH1 0x7 SLOAD DUP3 PUSH2 0x5ED SWAP2 SWAP1 PUSH2 0x7D4 JUMP JUMPDEST SWAP1 POP PUSH2 0x610 JUMP JUMPDEST PUSH2 0x1C2 DUP3 GT ISZERO PUSH2 0x60F JUMPI PUSH1 0x8 SLOAD DUP3 PUSH2 0x60C SWAP2 SWAP1 PUSH2 0x7D4 JUMP JUMPDEST SWAP1 POP JUMPDEST JUMPDEST JUMPDEST JUMPDEST SWAP2 SWAP1 POP JUMP JUMPDEST PUSH1 0x8 SLOAD DUP2 JUMP JUMPDEST PUSH1 0x6 SLOAD DUP2 JUMP JUMPDEST PUSH1 0x1 SLOAD DUP2 JUMP JUMPDEST PUSH1 0x7 SLOAD DUP2 JUMP JUMPDEST PUSH1 0x0 DUP1 PUSH1 0x0 DUP6 SWAP3 POP DUP5 SWAP2 POP DUP4 SWAP1 POP SWAP4 POP SWAP4 POP SWAP4 SWAP1 POP JUMP JUMPDEST PUSH1 0x0 DUP2 CALLDATALOAD SWAP1 POP PUSH2 0x655 DUP2 PUSH2 0x8D2 JUMP JUMPDEST SWAP3 SWAP2 POP POP JUMP JUMPDEST PUSH1 0x0 DUP2 CALLDATALOAD SWAP1 POP PUSH2 0x66A DUP2 PUSH2 0x8E9 JUMP JUMPDEST SWAP3 SWAP2 POP POP JUMP JUMPDEST PUSH1 0x0 PUSH1 0x20 DUP3 DUP5 SUB SLT ISZERO PUSH2 0x686 JUMPI PUSH2 0x685 PUSH2 0x8CD JUMP JUMPDEST JUMPDEST PUSH1 0x0 PUSH2 0x694 DUP5 DUP3 DUP6 ADD PUSH2 0x646 JUMP JUMPDEST SWAP2 POP POP SWAP3 SWAP2 POP POP JUMP JUMPDEST PUSH1 0x0 PUSH1 0x20 DUP3 DUP5 SUB SLT ISZERO PUSH2 0x6B3 JUMPI PUSH2 0x6B2 PUSH2 0x8CD JUMP JUMPDEST JUMPDEST PUSH1 0x0 PUSH2 0x6C1 DUP5 DUP3 DUP6 ADD PUSH2 0x65B JUMP JUMPDEST SWAP2 POP POP SWAP3 SWAP2 POP POP JUMP JUMPDEST PUSH1 0x0 DUP1 PUSH1 0x0 PUSH1 0x60 DUP5 DUP7 SUB SLT ISZERO PUSH2 0x6E3 JUMPI PUSH2 0x6E2 PUSH2 0x8CD JUMP JUMPDEST JUMPDEST PUSH1 0x0 PUSH2 0x6F1 DUP7 DUP3 DUP8 ADD PUSH2 0x65B JUMP JUMPDEST SWAP4 POP POP PUSH1 0x20 PUSH2 0x702 DUP7 DUP3 DUP8 ADD PUSH2 0x65B JUMP JUMPDEST SWAP3 POP POP PUSH1 0x40 PUSH2 0x713 DUP7 DUP3 DUP8 ADD PUSH2 0x65B JUMP JUMPDEST SWAP2 POP POP SWAP3 POP SWAP3 POP SWAP3 JUMP JUMPDEST PUSH2 0x726 DUP2 PUSH2 0x894 JUMP JUMPDEST DUP3 MSTORE POP POP JUMP JUMPDEST PUSH1 0x0 PUSH1 0x20 DUP3 ADD SWAP1 POP PUSH2 0x741 PUSH1 0x0 DUP4 ADD DUP5 PUSH2 0x71D JUMP JUMPDEST SWAP3 SWAP2 POP POP JUMP JUMPDEST PUSH1 0x0 PUSH1 0x60 DUP3 ADD SWAP1 POP PUSH2 0x75C PUSH1 0x0 DUP4 ADD DUP7 PUSH2 0x71D JUMP JUMPDEST PUSH2 0x769 PUSH1 0x20 DUP4 ADD DUP6 PUSH2 0x71D JUMP JUMPDEST PUSH2 0x776 PUSH1 0x40 DUP4 ADD DUP5 PUSH2 0x71D JUMP JUMPDEST SWAP5 SWAP4 POP POP POP POP JUMP JUMPDEST PUSH1 0x0 PUSH2 0x789 DUP3 PUSH2 0x894 JUMP JUMPDEST SWAP2 POP PUSH2 0x794 DUP4 PUSH2 0x894 JUMP JUMPDEST SWAP3 POP DUP3 PUSH32 0xFFFFFFFFFFFFFFFFFFFFFFFFFFFFFFFFFFFFFFFFFFFFFFFFFFFFFFFFFFFFFFFF SUB DUP3 GT ISZERO PUSH2 0x7C9 JUMPI PUSH2 0x7C8 PUSH2 0x89E JUMP JUMPDEST JUMPDEST DUP3 DUP3 ADD SWAP1 POP SWAP3 SWAP2 POP POP JUMP JUMPDEST PUSH1 0x0 PUSH2 0x7DF DUP3 PUSH2 0x894 JUMP JUMPDEST SWAP2 POP PUSH2 0x7EA DUP4 PUSH2 0x894 JUMP JUMPDEST SWAP3 POP DUP2 PUSH32 0xFFFFFFFFFFFFFFFFFFFFFFFFFFFFFFFFFFFFFFFFFFFFFFFFFFFFFFFFFFFFFFFF DIV DUP4 GT DUP3 ISZERO ISZERO AND ISZERO PUSH2 0x823 JUMPI PUSH2 0x822 PUSH2 0x89E JUMP JUMPDEST JUMPDEST DUP3 DUP3 MUL SWAP1 POP SWAP3 SWAP2 POP POP JUMP JUMPDEST PUSH1 0x0 PUSH2 0x839 DUP3 PUSH2 0x894 JUMP JUMPDEST SWAP2 POP PUSH2 0x844 DUP4 PUSH2 0x894 JUMP JUMPDEST SWAP3 POP DUP3 DUP3 LT ISZERO PUSH2 0x857 JUMPI PUSH2 0x856 PUSH2 0x89E JUMP JUMPDEST JUMPDEST DUP3 DUP3 SUB SWAP1 POP SWAP3 SWAP2 POP POP JUMP JUMPDEST PUSH1 0x0 PUSH2 0x86D DUP3 PUSH2 0x874 JUMP JUMPDEST SWAP1 POP SWAP2 SWAP1 POP JUMP JUMPDEST PUSH1 0x0 PUSH20 0xFFFFFFFFFFFFFFFFFFFFFFFFFFFFFFFFFFFFFFFF DUP3 AND SWAP1 POP SWAP2 SWAP1 POP JUMP JUMPDEST PUSH1 0x0 DUP2 SWAP1 POP SWAP2 SWAP1 POP JUMP JUMPDEST PUSH32 0x4E487B7100000000000000000000000000000000000000000000000000000000 PUSH1 0x0 MSTORE PUSH1 0x11 PUSH1 0x4 MSTORE PUSH1 0x24 PUSH1 0x0 REVERT JUMPDEST PUSH1 0x0 DUP1 REVERT JUMPDEST PUSH2 0x8DB DUP2 PUSH2 0x862 JUMP JUMPDEST DUP2 EQ PUSH2 0x8E6 JUMPI PUSH1 0x0 DUP1 REVERT JUMPDEST POP JUMP JUMPDEST PUSH2 0x8F2 DUP2 PUSH2 0x894 JUMP JUMPDEST DUP2 EQ PUSH2 0x8FD JUMPI PUSH1 0x0 DUP1 REVERT JUMPDEST POP JUMP INVALID LOG2 PUSH5 0x6970667358 0x22 SLT KECCAK256 0x4F PUSH19 0xB3804D31F72F4E83FB628EA67971ECEBAD32DF LOG4 0xD7 SLT 0x21 MSIZE 0x24 PUSH28 0x8AFFAC8B64736F6C6343000807003300000000000000000000000000 "
				},
				"gasEstimates": {
					"creation": {
						"codeDepositCost": "471600",
						"executionCost": "199459",
						"totalCost": "671059"
					},
					"external": {
						"btc1()": "2473",
						"btc2()": "2496",
						"btc3()": "2474",
						"btc4()": "2452",
						"btc5()": "2430",
						"btc6()": "2451",
						"btc7()": "2495",
						"btc8()": "2496",
						"btp()": "2518",
						"getConsumerTariff(uint256)": "infinite",
						"getProsumerTariff(uint256)": "infinite",
						"getnPnCnEV(uint256,uint256,uint256)": "infinite",
						"sendViaTransfer(address)": "infinite"
					}
				},
				"methodIdentifiers": {
					"btc1()": "c2c496ec",
					"btc2()": "28780a44",
					"btc3()": "20e731a1",
					"btc4()": "103347e7",
					"btc5()": "0c03a1a3",
					"btc6()": "b4ad7fa9",
					"btc7()": "ed2fa5ab",
					"btc8()": "a8bdb68b",
					"btp()": "2c9af64c",
					"getConsumerTariff(uint256)": "721028ec",
					"getProsumerTariff(uint256)": "5c8f6b56",
					"getnPnCnEV(uint256,uint256,uint256)": "f02e48c3",
					"sendViaTransfer(address)": "636e082b"
				}
			},
			"storageLayout": {
				"storage": [
					{
						"astId": 4,
						"contract": "contracts/FLIR_Contract.sol:FLIRContract",
						"label": "btp",
						"offset": 0,
						"slot": "0",
						"type": "t_uint256"
					},
					{
						"astId": 7,
						"contract": "contracts/FLIR_Contract.sol:FLIRContract",
						"label": "btc1",
						"offset": 0,
						"slot": "1",
						"type": "t_uint256"
					},
					{
						"astId": 10,
						"contract": "contracts/FLIR_Contract.sol:FLIRContract",
						"label": "btc2",
						"offset": 0,
						"slot": "2",
						"type": "t_uint256"
					},
					{
						"astId": 13,
						"contract": "contracts/FLIR_Contract.sol:FLIRContract",
						"label": "btc3",
						"offset": 0,
						"slot": "3",
						"type": "t_uint256"
					},
					{
						"astId": 16,
						"contract": "contracts/FLIR_Contract.sol:FLIRContract",
						"label": "btc4",
						"offset": 0,
						"slot": "4",
						"type": "t_uint256"
					},
					{
						"astId": 19,
						"contract": "contracts/FLIR_Contract.sol:FLIRContract",
						"label": "btc5",
						"offset": 0,
						"slot": "5",
						"type": "t_uint256"
					},
					{
						"astId": 22,
						"contract": "contracts/FLIR_Contract.sol:FLIRContract",
						"label": "btc6",
						"offset": 0,
						"slot": "6",
						"type": "t_uint256"
					},
					{
						"astId": 25,
						"contract": "contracts/FLIR_Contract.sol:FLIRContract",
						"label": "btc7",
						"offset": 0,
						"slot": "7",
						"type": "t_uint256"
					},
					{
						"astId": 28,
						"contract": "contracts/FLIR_Contract.sol:FLIRContract",
						"label": "btc8",
						"offset": 0,
						"slot": "8",
						"type": "t_uint256"
					}
				],
				"types": {
					"t_uint256": {
						"encoding": "inplace",
						"label": "uint256",
						"numberOfBytes": "32"
					}
				}
			},
			"userdoc": {
				"kind": "user",
				"methods": {},
				"version": 1
			}
		}
	}
}