{
  "contractName": "FLIRContract",
  "abi": [
    {
      "inputs": [],
      "name": "balance",
      "outputs": [
        {
          "internalType": "uint256",
          "name": "",
          "type": "uint256"
        }
      ],
      "stateMutability": "view",
      "type": "function",
      "constant": true
    },
    {
      "inputs": [],
      "name": "btc1",
      "outputs": [
        {
          "internalType": "uint256",
          "name": "",
          "type": "uint256"
        }
      ],
      "stateMutability": "view",
      "type": "function",
      "constant": true
    },
    {
      "inputs": [],
      "name": "btc2",
      "outputs": [
        {
          "internalType": "uint256",
          "name": "",
          "type": "uint256"
        }
      ],
      "stateMutability": "view",
      "type": "function",
      "constant": true
    },
    {
      "inputs": [],
      "name": "btc3",
      "outputs": [
        {
          "internalType": "uint256",
          "name": "",
          "type": "uint256"
        }
      ],
      "stateMutability": "view",
      "type": "function",
      "constant": true
    },
    {
      "inputs": [],
      "name": "btc4",
      "outputs": [
        {
          "internalType": "uint256",
          "name": "",
          "type": "uint256"
        }
      ],
      "stateMutability": "view",
      "type": "function",
      "constant": true
    },
    {
      "inputs": [],
      "name": "btc5",
      "outputs": [
        {
          "internalType": "uint256",
          "name": "",
          "type": "uint256"
        }
      ],
      "stateMutability": "view",
      "type": "function",
      "constant": true
    },
    {
      "inputs": [],
      "name": "btc6",
      "outputs": [
        {
          "internalType": "uint256",
          "name": "",
          "type": "uint256"
        }
      ],
      "stateMutability": "view",
      "type": "function",
      "constant": true
    },
    {
      "inputs": [],
      "name": "btc7",
      "outputs": [
        {
          "internalType": "uint256",
          "name": "",
          "type": "uint256"
        }
      ],
      "stateMutability": "view",
      "type": "function",
      "constant": true
    },
    {
      "inputs": [],
      "name": "btc8",
      "outputs": [
        {
          "internalType": "uint256",
          "name": "",
          "type": "uint256"
        }
      ],
      "stateMutability": "view",
      "type": "function",
      "constant": true
    },
    {
      "inputs": [],
      "name": "btp",
      "outputs": [
        {
          "internalType": "uint256",
          "name": "",
          "type": "uint256"
        }
      ],
      "stateMutability": "view",
      "type": "function",
      "constant": true
    },
    {
      "inputs": [
        {
          "internalType": "uint256",
          "name": "",
          "type": "uint256"
        }
      ],
      "name": "buyers",
      "outputs": [
        {
          "internalType": "address",
          "name": "",
          "type": "address"
        }
      ],
      "stateMutability": "view",
      "type": "function",
      "constant": true
    },
    {
      "inputs": [],
      "name": "manager",
      "outputs": [
        {
          "internalType": "address",
          "name": "",
          "type": "address"
        }
      ],
      "stateMutability": "view",
      "type": "function",
      "constant": true
    },
    {
      "inputs": [],
      "name": "owner",
      "outputs": [
        {
          "internalType": "address",
          "name": "",
          "type": "address"
        }
      ],
      "stateMutability": "view",
      "type": "function",
      "constant": true
    },
    {
      "inputs": [
        {
          "internalType": "uint256",
          "name": "",
          "type": "uint256"
        }
      ],
      "name": "seller",
      "outputs": [
        {
          "internalType": "address",
          "name": "",
          "type": "address"
        }
      ],
      "stateMutability": "view",
      "type": "function",
      "constant": true
    },
    {
      "inputs": [
        {
          "internalType": "uint256",
          "name": "nPget",
          "type": "uint256"
        }
      ],
      "name": "sellerID",
      "outputs": [
        {
          "internalType": "uint256",
          "name": "",
          "type": "uint256"
        }
      ],
      "stateMutability": "nonpayable",
      "type": "function"
    },
    {
      "inputs": [],
      "name": "getSellers",
      "outputs": [
        {
          "internalType": "address[16]",
          "name": "",
          "type": "address[16]"
        }
      ],
      "stateMutability": "view",
      "type": "function",
      "constant": true
    },
    {
      "inputs": [
        {
          "internalType": "uint256",
          "name": "nPget",
          "type": "uint256"
        },
        {
          "internalType": "uint256",
          "name": "nCget",
          "type": "uint256"
        },
        {
          "internalType": "uint256",
          "name": "nEVget",
          "type": "uint256"
        }
      ],
      "name": "getnPnCnEV",
      "outputs": [
        {
          "internalType": "uint256",
          "name": "nP",
          "type": "uint256"
        },
        {
          "internalType": "uint256",
          "name": "nC",
          "type": "uint256"
        },
        {
          "internalType": "uint256",
          "name": "nEV",
          "type": "uint256"
        }
      ],
      "stateMutability": "nonpayable",
      "type": "function"
    },
    {
      "inputs": [
        {
          "internalType": "uint256",
          "name": "Pexp",
          "type": "uint256"
        }
      ],
      "name": "getProsumerTariff",
      "outputs": [
        {
          "internalType": "uint256",
          "name": "Tp",
          "type": "uint256"
        }
      ],
      "stateMutability": "nonpayable",
      "type": "function"
    },
    {
      "inputs": [
        {
          "internalType": "uint256",
          "name": "Cimp",
          "type": "uint256"
        }
      ],
      "name": "getConsumerTariff",
      "outputs": [
        {
          "internalType": "uint256",
          "name": "Tc",
          "type": "uint256"
        }
      ],
      "stateMutability": "nonpayable",
      "type": "function"
    },
    {
      "inputs": [
        {
          "internalType": "address payable",
          "name": "_receiver",
          "type": "address"
        },
        {
          "internalType": "uint256",
          "name": "amount",
          "type": "uint256"
        }
      ],
      "name": "send",
      "outputs": [],
      "stateMutability": "payable",
      "type": "function",
      "payable": true
    },
    {
      "inputs": [],
      "name": "balCheck",
      "outputs": [],
      "stateMutability": "payable",
      "type": "function",
      "payable": true
    },
    {
      "inputs": [
        {
          "internalType": "address",
          "name": "_balanceCheck",
          "type": "address"
        }
      ],
      "name": "getBalance",
      "outputs": [
        {
          "internalType": "uint256",
          "name": "bal",
          "type": "uint256"
        }
      ],
      "stateMutability": "nonpayable",
      "type": "function"
    }
  ],
  "bytecode": "0x6080604052600060225560036023556003602455600460255560056026556006602755600760285560086029556009602a55600a602b5534801561004257600080fd5b50610f14806100526000396000f3fe6080604052600436106101355760003560e01c80638da5cb5b116100ab578063c2c496ec1161006f578063c2c496ec14610411578063d0679d341461043c578063ed2fa5ab14610458578063f02e48c314610483578063f2aa8218146104c2578063f8b2cb4f146104ff57610135565b80638da5cb5b14610328578063a8bdb68b14610353578063aacdfe6f1461037e578063b4ad7fa9146103bb578063b69ef8a8146103e657610135565b8063354f58c0116100fd578063354f58c014610211578063481c6a751461024e5780635c8f6b5614610279578063721028ec146102b65780637c134b14146102f35780637ee454cb146102fd57610135565b80630c03a1a31461013a578063103347e71461016557806320e731a11461019057806328780a44146101bb5780632c9af64c146101e6575b600080fd5b34801561014657600080fd5b5061014f61053c565b60405161015c9190610a9f565b60405180910390f35b34801561017157600080fd5b5061017a610542565b6040516101879190610a9f565b60405180910390f35b34801561019c57600080fd5b506101a5610548565b6040516101b29190610a9f565b60405180910390f35b3480156101c757600080fd5b506101d061054e565b6040516101dd9190610a9f565b60405180910390f35b3480156101f257600080fd5b506101fb610554565b6040516102089190610a9f565b60405180910390f35b34801561021d57600080fd5b5061023860048036038101906102339190610aeb565b61055a565b6040516102459190610a9f565b60405180910390f35b34801561025a57600080fd5b506102636105d2565b6040516102709190610b59565b60405180910390f35b34801561028557600080fd5b506102a0600480360381019061029b9190610aeb565b6105f8565b6040516102ad9190610a9f565b60405180910390f35b3480156102c257600080fd5b506102dd60048036038101906102d89190610aeb565b61060f565b6040516102ea9190610a9f565b60405180910390f35b6102fb610889565b005b34801561030957600080fd5b506103126108a4565b60405161031f9190610c1f565b60405180910390f35b34801561033457600080fd5b5061033d610925565b60405161034a9190610b59565b60405180910390f35b34801561035f57600080fd5b50610368610949565b6040516103759190610a9f565b60405180910390f35b34801561038a57600080fd5b506103a560048036038101906103a09190610aeb565b61094f565b6040516103b29190610b59565b60405180910390f35b3480156103c757600080fd5b506103d0610985565b6040516103dd9190610a9f565b60405180910390f35b3480156103f257600080fd5b506103fb61098b565b6040516104089190610a9f565b60405180910390f35b34801561041d57600080fd5b50610426610991565b6040516104339190610a9f565b60405180910390f35b61045660048036038101906104519190610c79565b610997565b005b34801561046457600080fd5b5061046d6109ef565b60405161047a9190610a9f565b60405180910390f35b34801561048f57600080fd5b506104aa60048036038101906104a59190610cb9565b6109f5565b6040516104b993929190610d0c565b60405180910390f35b3480156104ce57600080fd5b506104e960048036038101906104e49190610aeb565b610a0c565b6040516104f69190610b59565b60405180910390f35b34801561050b57600080fd5b5061052660048036038101906105219190610d6f565b610a42565b6040516105339190610a9f565b60405180910390f35b60285481565b60275481565b60265481565b60255481565b60235481565b600080821015801561056d5750600a8211155b61057657600080fd5b336002836010811061058b5761058a610d9c565b5b0160006101000a81548173ffffffffffffffffffffffffffffffffffffffff021916908373ffffffffffffffffffffffffffffffffffffffff160217905550819050919050565b600160009054906101000a900473ffffffffffffffffffffffffffffffffffffffff1681565b6000602354826106089190610dfa565b9050919050565b600060fb82101561080f57603382101561063857602454826106319190610dfa565b905061080a565b6032821180156106485750606582105b156106875760255460328361065d9190610e54565b6106679190610dfa565b60245460326106769190610dfa565b6106809190610e88565b9050610809565b6064821180156106975750609782105b156106ef576026546032836106ac9190610e54565b6106b69190610dfa565b60255460326106c59190610dfa565b60245460326106d49190610dfa565b6106de9190610e88565b6106e89190610e88565b9050610808565b6096821180156106ff575060c982105b15610770576027546032836107149190610e54565b61071e9190610dfa565b602654603261072d9190610dfa565b602554603261073c9190610dfa565b602454603261074b9190610dfa565b6107559190610e88565b61075f9190610e88565b6107699190610e88565b9050610807565b60c882118015610780575060fb82105b15610806576028546032836107959190610e54565b61079f9190610dfa565b60275460326107ae9190610dfa565b60265460326107bd9190610dfa565b60255460326107cc9190610dfa565b60245460326107db9190610dfa565b6107e59190610e88565b6107ef9190610e88565b6107f99190610e88565b6108039190610e88565b90505b5b5b5b5b610884565b60fa82118015610820575061015f82105b1561083a57602954826108339190610dfa565b9050610883565b61015e8211801561084c57506101c382105b1561086657602a548261085f9190610dfa565b9050610882565b6101c282111561088157602b548261087e9190610dfa565b90505b5b5b5b919050565b346022600082825461089b9190610e88565b92505081905550565b6108ac610a63565b600260108060200260405190810160405280929190826010801561091b576020028201915b8160009054906101000a900473ffffffffffffffffffffffffffffffffffffffff1673ffffffffffffffffffffffffffffffffffffffff16815260200190600101908083116108d1575b5050505050905090565b60008054906101000a900473ffffffffffffffffffffffffffffffffffffffff1681565b602b5481565b6002816010811061095f57600080fd5b016000915054906101000a900473ffffffffffffffffffffffffffffffffffffffff1681565b60295481565b60225481565b60245481565b803410156109a457600080fd5b8173ffffffffffffffffffffffffffffffffffffffff166108fc829081150290604051600060405180830381858888f193505050501580156109ea573d6000803e3d6000fd5b505050565b602a5481565b600080600085925084915083905093509350939050565b60128160108110610a1c57600080fd5b016000915054906101000a900473ffffffffffffffffffffffffffffffffffffffff1681565b60008173ffffffffffffffffffffffffffffffffffffffff16319050919050565b604051806102000160405280601090602082028036833780820191505090505090565b6000819050919050565b610a9981610a86565b82525050565b6000602082019050610ab46000830184610a90565b92915050565b600080fd5b610ac881610a86565b8114610ad357600080fd5b50565b600081359050610ae581610abf565b92915050565b600060208284031215610b0157610b00610aba565b5b6000610b0f84828501610ad6565b91505092915050565b600073ffffffffffffffffffffffffffffffffffffffff82169050919050565b6000610b4382610b18565b9050919050565b610b5381610b38565b82525050565b6000602082019050610b6e6000830184610b4a565b92915050565b600060109050919050565b600081905092915050565b6000819050919050565b610b9d81610b38565b82525050565b6000610baf8383610b94565b60208301905092915050565b6000602082019050919050565b610bd181610b74565b610bdb8184610b7f565b9250610be682610b8a565b8060005b83811015610c17578151610bfe8782610ba3565b9650610c0983610bbb565b925050600181019050610bea565b505050505050565b600061020082019050610c356000830184610bc8565b92915050565b6000610c4682610b18565b9050919050565b610c5681610c3b565b8114610c6157600080fd5b50565b600081359050610c7381610c4d565b92915050565b60008060408385031215610c9057610c8f610aba565b5b6000610c9e85828601610c64565b9250506020610caf85828601610ad6565b9150509250929050565b600080600060608486031215610cd257610cd1610aba565b5b6000610ce086828701610ad6565b9350506020610cf186828701610ad6565b9250506040610d0286828701610ad6565b9150509250925092565b6000606082019050610d216000830186610a90565b610d2e6020830185610a90565b610d3b6040830184610a90565b949350505050565b610d4c81610b38565b8114610d5757600080fd5b50565b600081359050610d6981610d43565b92915050565b600060208284031215610d8557610d84610aba565b5b6000610d9384828501610d5a565b91505092915050565b7f4e487b7100000000000000000000000000000000000000000000000000000000600052603260045260246000fd5b7f4e487b7100000000000000000000000000000000000000000000000000000000600052601160045260246000fd5b6000610e0582610a86565b9150610e1083610a86565b9250817fffffffffffffffffffffffffffffffffffffffffffffffffffffffffffffffff0483118215151615610e4957610e48610dcb565b5b828202905092915050565b6000610e5f82610a86565b9150610e6a83610a86565b925082821015610e7d57610e7c610dcb565b5b828203905092915050565b6000610e9382610a86565b9150610e9e83610a86565b9250827fffffffffffffffffffffffffffffffffffffffffffffffffffffffffffffffff03821115610ed357610ed2610dcb565b5b82820190509291505056fea2646970667358221220276404b0e3aae7c83c6009dbc622f6989d263236ca11239a736bfbccee8deff264736f6c634300080d0033",
  "immutableReferences": {},
  "source": "// SPDX-License-Identifier: MIT\n\n\npragma solidity >=0.4.4;\n\n// library for logging in console\n// import \"hardhat/console.sol\";\n\n\ncontract FLIRContract{\n    address public owner;\n    address public manager;\n    address[16] public seller;\n    address[16] public buyers;\n\n    // mapping(address => uint) public balances;\n    // mapping(address => uint256) private balaces;\n    // mapping(address => role) private roles;\n    \n    // // mapping(uint256 => address payable) Prosumers;\n    // // mapping(uint256 => address payable) Consumers;\n    // // mapping(uint256 => address payable) Nanogrid;\n    // // mapping(uint256 => address payable) EV;\n    \n    // enum role{\n    //     Prosumers,\n    //     Consumers,\n    //     Nanogrid,\n    //     EV\n    // }\n\n    uint public balance = 0;\n    // constructor() public{\n    //     owner = msg.sender;\n    // }\n\n    // uint public nP;\n    // uint public nC;\n    // uint public nEV;\n\n    uint public btp = 3;\n\n    uint public btc1 = 3;\n    uint public btc2 = 4;\n    uint public btc3 = 5;\n    uint public btc4 = 6;\n    uint public btc5 = 7;\n    uint public btc6 = 8;\n    uint public btc7 = 9;\n    uint public btc8 = 10;\n\n    function sellerID(uint nPget) public returns (uint) {\n        require (nPget >=0 && nPget <= 10);\n        seller[nPget] = msg.sender;\n        return nPget;\n    }\n\n    function getSellers() public view returns (address[16] memory){\n        return seller;\n    }\n    \n\n    function getnPnCnEV(uint nPget, uint nCget,uint nEVget) public\n    returns (uint nP,uint nC,uint nEV){\n        \n        nP = nPget;\n        nC = nCget;\n        nEV = nEVget;\n        // console.log(\"NP = %s\",nP);\n        // console.log(\"NC = %s\",nC);\n        // console.log(\"NEV = %s\",nEV);\n        return (nP,nC,nEV);\n    }\n\n    function getProsumerTariff(uint Pexp) public returns (uint Tp){\n        Tp = Pexp * btp;\n        return (Tp);\n    }\n\n    function getConsumerTariff(uint Cimp) public returns (uint Tc){\n        \n        if(Cimp < 251){\n            if(Cimp < 51){\n                Tc = Cimp * btc1;\n            }\n            else if(Cimp > 50 && Cimp < 101){\n                Tc = (50 * btc1) + ((Cimp-50) * btc2);\n            }\n            else if(Cimp > 100 && Cimp < 151){\n                Tc = (50 * btc1) + (50 * btc2) + ((Cimp-50) * btc3);\n            }\n            else if(Cimp > 150 && Cimp < 201){\n                Tc = (50 * btc1) + (50 * btc2) + (50 * btc3) + ((Cimp-50) * btc4);\n            }\n            else if(Cimp > 200 && Cimp < 251){\n                Tc = (50 * btc1) + (50 * btc2) + (50 * btc3) + (50 * btc4) + ((Cimp-50) * btc5);\n            }\n        }\n        else if(Cimp > 250 && Cimp < 351){\n            Tc = Cimp * btc6;\n        }\n        else if(Cimp > 350 && Cimp < 451){\n            Tc = Cimp * btc7;\n        }\n        else if(Cimp > 450){\n            Tc = Cimp * btc8;\n        }\n        return (Tc);\n    }\n\n    function send(address payable _receiver, uint amount) payable public {\n    // _receiver.call.value(msg.value).gas(20317)();\n        require(msg.value >= amount);\n        _receiver.transfer(amount);\n    }\n\n    function balCheck() public payable {\n    balance += msg.value;\n    }\n\n    function getBalance(address _balanceCheck) public returns (uint bal){\n        bal = _balanceCheck.balance;\n        return (bal);\n\n    }\n\n\n    // function getProsumerTariff(uint nPget, uint nCget,uint nEVget) public{}\n\n    // uint public amount = 1 ether;\n\n\n    // function send(address _addr, uint amount) payable public {\n    //     require(msg.value >= amount);\n    //     _addr.transfer(msg.value);\n    // }\n\n\n//   uint public balance = 0;\n  \n//   function () payable {\n//     balance += msg.value;\n//   }\n\n\n    \n    \n\n//     function integerToString(uint _i) internal pure \n//       returns (string memory) {\n      \n//       if (_i == 0) {\n//          return \"0\";\n//       }\n//       uint j = _i;\n//       uint len;\n      \n//       while (j != 0) {\n//          len++;\n//          j /= 10;\n//       }\n//       bytes memory bstr = new bytes(len);\n//       uint k = len - 1;\n      \n//       while (_i != 0) {\n//          bstr[k--] = byte(uint8(48 + _i % 10));\n//          _i /= 10;\n//       }\n//       return string(bstr);//access local variable\n//    }\n\n\n\n}\n\n// contract Receiver {\n//   uint public balance = 0;\n  \n//   function () payable {\n//     balance += msg.value;\n//   }\n// }",
  "sourcePath": "/home/wnaadmin/Git/flir/eth based/truffle/contracts/FLIR_Contract.sol",
  "compiler": {
    "name": "solc",
    "version": "0.8.13+commit.abaa5c0e.Emscripten.clang"
  },
  "schemaVersion": "3.4.7",
  "updatedAt": "2022-06-17T04:46:24.574Z",
  "networkType": "ethereum",
  "devdoc": {
    "kind": "dev",
    "methods": {},
    "version": 1
  },
  "userdoc": {
    "kind": "user",
    "methods": {},
    "version": 1
  }
}