{
  "contractName": "FLIRContract",
  "abi": [
    {
      "inputs": [],
      "name": "btc1",
      "outputs": [
        {
          "internalType": "uint256",
          "name": "",
          "type": "uint256"
        }
      ],
      "stateMutability": "view",
      "type": "function"
    },
    {
      "inputs": [],
      "name": "btc2",
      "outputs": [
        {
          "internalType": "uint256",
          "name": "",
          "type": "uint256"
        }
      ],
      "stateMutability": "view",
      "type": "function"
    },
    {
      "inputs": [],
      "name": "btc3",
      "outputs": [
        {
          "internalType": "uint256",
          "name": "",
          "type": "uint256"
        }
      ],
      "stateMutability": "view",
      "type": "function"
    },
    {
      "inputs": [],
      "name": "btc4",
      "outputs": [
        {
          "internalType": "uint256",
          "name": "",
          "type": "uint256"
        }
      ],
      "stateMutability": "view",
      "type": "function"
    },
    {
      "inputs": [],
      "name": "btc5",
      "outputs": [
        {
          "internalType": "uint256",
          "name": "",
          "type": "uint256"
        }
      ],
      "stateMutability": "view",
      "type": "function"
    },
    {
      "inputs": [],
      "name": "btc6",
      "outputs": [
        {
          "internalType": "uint256",
          "name": "",
          "type": "uint256"
        }
      ],
      "stateMutability": "view",
      "type": "function"
    },
    {
      "inputs": [],
      "name": "btc7",
      "outputs": [
        {
          "internalType": "uint256",
          "name": "",
          "type": "uint256"
        }
      ],
      "stateMutability": "view",
      "type": "function"
    },
    {
      "inputs": [],
      "name": "btc8",
      "outputs": [
        {
          "internalType": "uint256",
          "name": "",
          "type": "uint256"
        }
      ],
      "stateMutability": "view",
      "type": "function"
    },
    {
      "inputs": [],
      "name": "btp",
      "outputs": [
        {
          "internalType": "uint256",
          "name": "",
          "type": "uint256"
        }
      ],
      "stateMutability": "view",
      "type": "function"
    },
    {
      "inputs": [
        {
          "internalType": "uint256",
          "name": "nPget",
          "type": "uint256"
        },
        {
          "internalType": "uint256",
          "name": "nCget",
          "type": "uint256"
        },
        {
          "internalType": "uint256",
          "name": "nEVget",
          "type": "uint256"
        }
      ],
      "name": "getnPnCnEV",
      "outputs": [
        {
          "internalType": "uint256",
          "name": "nP",
          "type": "uint256"
        },
        {
          "internalType": "uint256",
          "name": "nC",
          "type": "uint256"
        },
        {
          "internalType": "uint256",
          "name": "nEV",
          "type": "uint256"
        }
      ],
      "stateMutability": "pure",
      "type": "function"
    },
    {
      "inputs": [
        {
          "internalType": "uint256",
          "name": "Pexp",
          "type": "uint256"
        }
      ],
      "name": "getProsumerTariff",
      "outputs": [
        {
          "internalType": "uint256",
          "name": "Tp",
          "type": "uint256"
        }
      ],
      "stateMutability": "nonpayable",
      "type": "function"
    },
    {
      "inputs": [
        {
          "internalType": "uint256",
          "name": "Cimp",
          "type": "uint256"
        }
      ],
      "name": "getConsumerTariff",
      "outputs": [
        {
          "internalType": "uint256",
          "name": "Tc",
          "type": "uint256"
        }
      ],
      "stateMutability": "nonpayable",
      "type": "function"
    }
  ],
  "bytecode": "0x608060405260036000556003600155600460025560056003556006600455600760055560086006556009600755600a60085534801561003d57600080fd5b5061079b8061004d6000396000f3fe608060405234801561001057600080fd5b50600436106100b45760003560e01c8063721028ec11610071578063721028ec1461017f578063a8bdb68b146101af578063b4ad7fa9146101cd578063c2c496ec146101eb578063ed2fa5ab14610209578063f02e48c314610227576100b4565b80630c03a1a3146100b9578063103347e7146100d757806320e731a1146100f557806328780a44146101135780632c9af64c146101315780635c8f6b561461014f575b600080fd5b6100c1610259565b6040516100ce919061054f565b60405180910390f35b6100df61025f565b6040516100ec919061054f565b60405180910390f35b6100fd610265565b60405161010a919061054f565b60405180910390f35b61011b61026b565b604051610128919061054f565b60405180910390f35b610139610271565b604051610146919061054f565b60405180910390f35b6101696004803603810190610164919061059b565b610277565b604051610176919061054f565b60405180910390f35b6101996004803603810190610194919061059b565b61028d565b6040516101a6919061054f565b60405180910390f35b6101b7610507565b6040516101c4919061054f565b60405180910390f35b6101d561050d565b6040516101e2919061054f565b60405180910390f35b6101f3610513565b604051610200919061054f565b60405180910390f35b610211610519565b60405161021e919061054f565b60405180910390f35b610241600480360381019061023c91906105c8565b61051f565b6040516102509392919061061b565b60405180910390f35b60055481565b60045481565b60035481565b60025481565b60005481565b60008054826102869190610681565b9050919050565b600060fb82101561048d5760338210156102b657600154826102af9190610681565b9050610488565b6032821180156102c65750606582105b15610305576002546032836102db91906106db565b6102e59190610681565b60015460326102f49190610681565b6102fe919061070f565b9050610487565b6064821180156103155750609782105b1561036d5760035460328361032a91906106db565b6103349190610681565b60025460326103439190610681565b60015460326103529190610681565b61035c919061070f565b610366919061070f565b9050610486565b60968211801561037d575060c982105b156103ee5760045460328361039291906106db565b61039c9190610681565b60035460326103ab9190610681565b60025460326103ba9190610681565b60015460326103c99190610681565b6103d3919061070f565b6103dd919061070f565b6103e7919061070f565b9050610485565b60c8821180156103fe575060fb82105b156104845760055460328361041391906106db565b61041d9190610681565b600454603261042c9190610681565b600354603261043b9190610681565b600254603261044a9190610681565b60015460326104599190610681565b610463919061070f565b61046d919061070f565b610477919061070f565b610481919061070f565b90505b5b5b5b5b610502565b60fa8211801561049e575061015f82105b156104b857600654826104b19190610681565b9050610501565b61015e821180156104ca57506101c382105b156104e457600754826104dd9190610681565b9050610500565b6101c28211156104ff57600854826104fc9190610681565b90505b5b5b5b919050565b60085481565b60065481565b60015481565b60075481565b600080600085925084915083905093509350939050565b6000819050919050565b61054981610536565b82525050565b60006020820190506105646000830184610540565b92915050565b600080fd5b61057881610536565b811461058357600080fd5b50565b6000813590506105958161056f565b92915050565b6000602082840312156105b1576105b061056a565b5b60006105bf84828501610586565b91505092915050565b6000806000606084860312156105e1576105e061056a565b5b60006105ef86828701610586565b935050602061060086828701610586565b925050604061061186828701610586565b9150509250925092565b60006060820190506106306000830186610540565b61063d6020830185610540565b61064a6040830184610540565b949350505050565b7f4e487b7100000000000000000000000000000000000000000000000000000000600052601160045260246000fd5b600061068c82610536565b915061069783610536565b9250817fffffffffffffffffffffffffffffffffffffffffffffffffffffffffffffffff04831182151516156106d0576106cf610652565b5b828202905092915050565b60006106e682610536565b91506106f183610536565b92508282101561070457610703610652565b5b828203905092915050565b600061071a82610536565b915061072583610536565b9250827fffffffffffffffffffffffffffffffffffffffffffffffffffffffffffffffff0382111561075a57610759610652565b5b82820190509291505056fea2646970667358221220d75b852df72a750e38f98b51185129b8d18f2c1d36a6a8b0b90805003328d18e64736f6c634300080d0033",
  "immutableReferences": {},
  "source": "// SPDX-License-Identifier: MIT\n\n\npragma solidity >=0.4.4;\n\n// library for logging in console\n// import \"hardhat/console.sol\";\n\n\ncontract FLIRContract{\n\n    uint public btp = 3;\n\n    uint public btc1 = 3;\n    uint public btc2 = 4;\n    uint public btc3 = 5;\n    uint public btc4 = 6;\n    uint public btc5 = 7;\n    uint public btc6 = 8;\n    uint public btc7 = 9;\n    uint public btc8 = 10;\n\n    function getnPnCnEV(uint nPget, uint nCget,uint nEVget) public pure\n    returns (uint nP,uint nC,uint nEV){\n        \n        nP = nPget;\n        nC = nCget;\n        nEV = nEVget;\n        return (nP,nC,nEV);\n    }\n\n    function getProsumerTariff(uint Pexp) public returns (uint Tp){\n        Tp = Pexp * btp;\n        return (Tp);\n    }\n\n    function getConsumerTariff(uint Cimp) public returns (uint Tc){\n        \n        if(Cimp < 251){\n            if(Cimp < 51){\n                Tc = Cimp * btc1;\n            }\n            else if(Cimp > 50 && Cimp < 101){\n                Tc = (50 * btc1) + ((Cimp-50) * btc2);\n            }\n            else if(Cimp > 100 && Cimp < 151){\n                Tc = (50 * btc1) + (50 * btc2) + ((Cimp-50) * btc3);\n            }\n            else if(Cimp > 150 && Cimp < 201){\n                Tc = (50 * btc1) + (50 * btc2) + (50 * btc3) + ((Cimp-50) * btc4);\n            }\n            else if(Cimp > 200 && Cimp < 251){\n                Tc = (50 * btc1) + (50 * btc2) + (50 * btc3) + (50 * btc4) + ((Cimp-50) * btc5);\n            }\n        }\n        else if(Cimp > 250 && Cimp < 351){\n            Tc = Cimp * btc6;\n        }\n        else if(Cimp > 350 && Cimp < 451){\n            Tc = Cimp * btc7;\n        }\n        else if(Cimp > 450){\n            Tc = Cimp * btc8;\n        }\n        return (Tc);\n    }\n\n}",
  "sourcePath": "/home/wnaadmin/Git/flir/eth based/truffle/contracts/FLIR_Contract.sol",
  "compiler": {
    "name": "solc",
    "version": "0.8.13+commit.abaa5c0e.Emscripten.clang"
  },
  "schemaVersion": "3.4.7",
  "updatedAt": "2022-06-18T05:57:48.071Z",
  "devdoc": {
    "kind": "dev",
    "methods": {},
    "version": 1
  },
  "userdoc": {
    "kind": "user",
    "methods": {},
    "version": 1
  }
}