{
  "contractName": "FLIRContract",
  "abi": [
    {
      "inputs": [],
      "name": "btc1",
      "outputs": [
        {
          "internalType": "uint256",
          "name": "",
          "type": "uint256"
        }
      ],
      "stateMutability": "view",
      "type": "function",
      "constant": true
    },
    {
      "inputs": [],
      "name": "btc2",
      "outputs": [
        {
          "internalType": "uint256",
          "name": "",
          "type": "uint256"
        }
      ],
      "stateMutability": "view",
      "type": "function",
      "constant": true
    },
    {
      "inputs": [],
      "name": "btc3",
      "outputs": [
        {
          "internalType": "uint256",
          "name": "",
          "type": "uint256"
        }
      ],
      "stateMutability": "view",
      "type": "function",
      "constant": true
    },
    {
      "inputs": [],
      "name": "btc4",
      "outputs": [
        {
          "internalType": "uint256",
          "name": "",
          "type": "uint256"
        }
      ],
      "stateMutability": "view",
      "type": "function",
      "constant": true
    },
    {
      "inputs": [],
      "name": "btc5",
      "outputs": [
        {
          "internalType": "uint256",
          "name": "",
          "type": "uint256"
        }
      ],
      "stateMutability": "view",
      "type": "function",
      "constant": true
    },
    {
      "inputs": [],
      "name": "btc6",
      "outputs": [
        {
          "internalType": "uint256",
          "name": "",
          "type": "uint256"
        }
      ],
      "stateMutability": "view",
      "type": "function",
      "constant": true
    },
    {
      "inputs": [],
      "name": "btc7",
      "outputs": [
        {
          "internalType": "uint256",
          "name": "",
          "type": "uint256"
        }
      ],
      "stateMutability": "view",
      "type": "function",
      "constant": true
    },
    {
      "inputs": [],
      "name": "btc8",
      "outputs": [
        {
          "internalType": "uint256",
          "name": "",
          "type": "uint256"
        }
      ],
      "stateMutability": "view",
      "type": "function",
      "constant": true
    },
    {
      "inputs": [],
      "name": "btp",
      "outputs": [
        {
          "internalType": "uint256",
          "name": "",
          "type": "uint256"
        }
      ],
      "stateMutability": "view",
      "type": "function",
      "constant": true
    },
    {
      "inputs": [
        {
          "internalType": "uint256",
          "name": "nPget",
          "type": "uint256"
        },
        {
          "internalType": "uint256",
          "name": "nCget",
          "type": "uint256"
        },
        {
          "internalType": "uint256",
          "name": "nEVget",
          "type": "uint256"
        }
      ],
      "name": "getnPnCnEV",
      "outputs": [
        {
          "internalType": "uint256",
          "name": "nP",
          "type": "uint256"
        },
        {
          "internalType": "uint256",
          "name": "nC",
          "type": "uint256"
        },
        {
          "internalType": "uint256",
          "name": "nEV",
          "type": "uint256"
        }
      ],
      "stateMutability": "pure",
      "type": "function",
      "constant": true
    },
    {
      "inputs": [
        {
          "internalType": "uint256",
          "name": "Pexp",
          "type": "uint256"
        }
      ],
      "name": "getProsumerTariff",
      "outputs": [
        {
          "internalType": "uint256",
          "name": "Tp",
          "type": "uint256"
        }
      ],
      "stateMutability": "nonpayable",
      "type": "function"
    },
    {
      "inputs": [
        {
          "internalType": "uint256",
          "name": "Cimp",
          "type": "uint256"
        }
      ],
      "name": "getConsumerTariff",
      "outputs": [
        {
          "internalType": "uint256",
          "name": "Tc",
          "type": "uint256"
        }
      ],
      "stateMutability": "nonpayable",
      "type": "function"
    },
    {
      "inputs": [
        {
          "internalType": "address payable",
          "name": "_to",
          "type": "address"
        }
      ],
      "name": "sendViaTransfer",
      "outputs": [],
      "stateMutability": "payable",
      "type": "function",
      "payable": true
    }
  ],
  "bytecode": "0x608060405260036000556003600155600460025560056003556006600455600760055560086006556009600755600a60085534801561003d57600080fd5b506109368061004d6000396000f3fe6080604052600436106100c25760003560e01c8063636e082b1161007f578063b4ad7fa911610059578063b4ad7fa91461025f578063c2c496ec1461028a578063ed2fa5ab146102b5578063f02e48c3146102e0576100c2565b8063636e082b146101db578063721028ec146101f7578063a8bdb68b14610234576100c2565b80630c03a1a3146100c7578063103347e7146100f257806320e731a11461011d57806328780a44146101485780632c9af64c146101735780635c8f6b561461019e575b600080fd5b3480156100d357600080fd5b506100dc61031f565b6040516100e9919061065f565b60405180910390f35b3480156100fe57600080fd5b50610107610325565b604051610114919061065f565b60405180910390f35b34801561012957600080fd5b5061013261032b565b60405161013f919061065f565b60405180910390f35b34801561015457600080fd5b5061015d610331565b60405161016a919061065f565b60405180910390f35b34801561017f57600080fd5b50610188610337565b604051610195919061065f565b60405180910390f35b3480156101aa57600080fd5b506101c560048036038101906101c091906106ab565b61033d565b6040516101d2919061065f565b60405180910390f35b6101f560048036038101906101f09190610736565b610353565b005b34801561020357600080fd5b5061021e600480360381019061021991906106ab565b61039d565b60405161022b919061065f565b60405180910390f35b34801561024057600080fd5b50610249610617565b604051610256919061065f565b60405180910390f35b34801561026b57600080fd5b5061027461061d565b604051610281919061065f565b60405180910390f35b34801561029657600080fd5b5061029f610623565b6040516102ac919061065f565b60405180910390f35b3480156102c157600080fd5b506102ca610629565b6040516102d7919061065f565b60405180910390f35b3480156102ec57600080fd5b5061030760048036038101906103029190610763565b61062f565b604051610316939291906107b6565b60405180910390f35b60055481565b60045481565b60035481565b60025481565b60005481565b600080548261034c919061081c565b9050919050565b8073ffffffffffffffffffffffffffffffffffffffff166108fc349081150290604051600060405180830381858888f19350505050158015610399573d6000803e3d6000fd5b5050565b600060fb82101561059d5760338210156103c657600154826103bf919061081c565b9050610598565b6032821180156103d65750606582105b15610415576002546032836103eb9190610876565b6103f5919061081c565b6001546032610404919061081c565b61040e91906108aa565b9050610597565b6064821180156104255750609782105b1561047d5760035460328361043a9190610876565b610444919061081c565b6002546032610453919061081c565b6001546032610462919061081c565b61046c91906108aa565b61047691906108aa565b9050610596565b60968211801561048d575060c982105b156104fe576004546032836104a29190610876565b6104ac919061081c565b60035460326104bb919061081c565b60025460326104ca919061081c565b60015460326104d9919061081c565b6104e391906108aa565b6104ed91906108aa565b6104f791906108aa565b9050610595565b60c88211801561050e575060fb82105b15610594576005546032836105239190610876565b61052d919061081c565b600454603261053c919061081c565b600354603261054b919061081c565b600254603261055a919061081c565b6001546032610569919061081c565b61057391906108aa565b61057d91906108aa565b61058791906108aa565b61059191906108aa565b90505b5b5b5b5b610612565b60fa821180156105ae575061015f82105b156105c857600654826105c1919061081c565b9050610611565b61015e821180156105da57506101c382105b156105f457600754826105ed919061081c565b9050610610565b6101c282111561060f576008548261060c919061081c565b90505b5b5b5b919050565b60085481565b60065481565b60015481565b60075481565b600080600085925084915083905093509350939050565b6000819050919050565b61065981610646565b82525050565b60006020820190506106746000830184610650565b92915050565b600080fd5b61068881610646565b811461069357600080fd5b50565b6000813590506106a58161067f565b92915050565b6000602082840312156106c1576106c061067a565b5b60006106cf84828501610696565b91505092915050565b600073ffffffffffffffffffffffffffffffffffffffff82169050919050565b6000610703826106d8565b9050919050565b610713816106f8565b811461071e57600080fd5b50565b6000813590506107308161070a565b92915050565b60006020828403121561074c5761074b61067a565b5b600061075a84828501610721565b91505092915050565b60008060006060848603121561077c5761077b61067a565b5b600061078a86828701610696565b935050602061079b86828701610696565b92505060406107ac86828701610696565b9150509250925092565b60006060820190506107cb6000830186610650565b6107d86020830185610650565b6107e56040830184610650565b949350505050565b7f4e487b7100000000000000000000000000000000000000000000000000000000600052601160045260246000fd5b600061082782610646565b915061083283610646565b9250817fffffffffffffffffffffffffffffffffffffffffffffffffffffffffffffffff048311821515161561086b5761086a6107ed565b5b828202905092915050565b600061088182610646565b915061088c83610646565b92508282101561089f5761089e6107ed565b5b828203905092915050565b60006108b582610646565b91506108c083610646565b9250827fffffffffffffffffffffffffffffffffffffffffffffffffffffffffffffffff038211156108f5576108f46107ed565b5b82820190509291505056fea2646970667358221220885801603c0f6f21eff7eac6584754c96d922bed05017adcb7b6f53e384f7c5264736f6c634300080d0033",
  "immutableReferences": {},
  "source": "// SPDX-License-Identifier: MIT\n\n\npragma solidity >=0.4.4;\n\n// library for logging in console\n// import \"hardhat/console.sol\";\n\n\ncontract FLIRContract{\n\n    uint public btp = 3;\n\n    uint public btc1 = 3;\n    uint public btc2 = 4;\n    uint public btc3 = 5;\n    uint public btc4 = 6;\n    uint public btc5 = 7;\n    uint public btc6 = 8;\n    uint public btc7 = 9;\n    uint public btc8 = 10;\n\n    function getnPnCnEV(uint nPget, uint nCget,uint nEVget) public pure\n    returns (uint nP,uint nC,uint nEV){\n        \n        nP = nPget;\n        nC = nCget;\n        nEV = nEVget;\n        return (nP,nC,nEV);\n    }\n\n    function getProsumerTariff(uint Pexp) public returns (uint Tp){\n        Tp = Pexp * btp;\n        return (Tp);\n    }\n\n    function getConsumerTariff(uint Cimp) public returns (uint Tc){\n        \n        if(Cimp < 251){\n            if(Cimp < 51){\n                Tc = Cimp * btc1;\n            }\n            else if(Cimp > 50 && Cimp < 101){\n                Tc = (50 * btc1) + ((Cimp-50) * btc2);\n            }\n            else if(Cimp > 100 && Cimp < 151){\n                Tc = (50 * btc1) + (50 * btc2) + ((Cimp-50) * btc3);\n            }\n            else if(Cimp > 150 && Cimp < 201){\n                Tc = (50 * btc1) + (50 * btc2) + (50 * btc3) + ((Cimp-50) * btc4);\n            }\n            else if(Cimp > 200 && Cimp < 251){\n                Tc = (50 * btc1) + (50 * btc2) + (50 * btc3) + (50 * btc4) + ((Cimp-50) * btc5);\n            }\n        }\n        else if(Cimp > 250 && Cimp < 351){\n            Tc = Cimp * btc6;\n        }\n        else if(Cimp > 350 && Cimp < 451){\n            Tc = Cimp * btc7;\n        }\n        else if(Cimp > 450){\n            Tc = Cimp * btc8;\n        }\n        return (Tc);\n    }\n\n    function sendViaTransfer(address payable _to) public payable{\n    _to.transfer(msg.value);\n    }\n\n}",
  "sourcePath": "/home/wnaadmin/Git/flir/eth based/truffle/contracts/FLIR_Contract.sol",
  "compiler": {
    "name": "solc",
    "version": "0.8.13+commit.abaa5c0e.Emscripten.clang"
  },
  "schemaVersion": "3.4.7",
  "updatedAt": "2022-07-18T11:34:09.082Z",
  "networkType": "ethereum",
  "devdoc": {
    "kind": "dev",
    "methods": {},
    "version": 1
  },
  "userdoc": {
    "kind": "user",
    "methods": {},
    "version": 1
  }
}